{
  "contractName": "ContentCreator",
  "abi": [
    {
      "constant": true,
      "inputs": [],
      "name": "userContract",
      "outputs": [
        {
          "name": "",
          "type": "address"
        }
      ],
      "payable": false,
      "stateMutability": "view",
      "type": "function"
    },
    {
      "constant": true,
      "inputs": [],
      "name": "owner",
      "outputs": [
        {
          "name": "",
          "type": "address"
        }
      ],
      "payable": false,
      "stateMutability": "view",
      "type": "function"
    },
    {
      "constant": true,
      "inputs": [],
      "name": "ccFactoryAddress",
      "outputs": [
        {
          "name": "",
          "type": "address"
        }
      ],
      "payable": false,
      "stateMutability": "view",
      "type": "function"
    },
    {
      "inputs": [
        {
          "name": "_userAccount",
          "type": "address"
        },
        {
          "name": "_contentCreatorFactory",
          "type": "address"
        }
      ],
      "payable": false,
      "stateMutability": "nonpayable",
      "type": "constructor"
    },
    {
      "constant": false,
      "inputs": [
        {
          "name": "_addressIPFS",
          "type": "string"
        },
        {
          "name": "_title",
          "type": "string"
        },
        {
          "name": "_description",
          "type": "string"
        }
      ],
      "name": "creatConent",
      "outputs": [
        {
          "name": "",
          "type": "bool"
        }
      ],
      "payable": true,
      "stateMutability": "payable",
      "type": "function"
    },
    {
      "constant": true,
      "inputs": [],
      "name": "getLock",
      "outputs": [
        {
          "name": "",
          "type": "bool"
        }
      ],
      "payable": false,
      "stateMutability": "view",
      "type": "function"
    },
    {
      "constant": false,
      "inputs": [
        {
          "name": "_lock",
          "type": "bool"
        }
      ],
      "name": "setLock",
      "outputs": [],
      "payable": false,
      "stateMutability": "nonpayable",
      "type": "function"
    },
    {
      "constant": true,
      "inputs": [],
      "name": "getOwner",
      "outputs": [
        {
          "name": "",
          "type": "address"
        }
      ],
      "payable": false,
      "stateMutability": "view",
      "type": "function"
    },
    {
      "constant": false,
      "inputs": [],
      "name": "kill",
      "outputs": [],
      "payable": false,
      "stateMutability": "nonpayable",
      "type": "function"
    }
  ],
  "bytecode": "0x608060405234801561001057600080fd5b506040516040806107a683398101604052805160209091015160028054600160a060020a03938416600160a060020a031991821681179092556003805482168317905560048054949093169381168417909255600180548316909117905560008054909116909117905561071d806100896000396000f3006080604052600436106100745763ffffffff60e060020a60003504166341c0e1b581146100795780635000596b14610090578063619d5194146100c15780637e5852d9146100db578063893d20e8146101045780638da5cb5b146101195780639daf87291461012e578063cd8c43b6146101f6575b600080fd5b34801561008557600080fd5b5061008e61020b565b005b34801561009c57600080fd5b506100a56102a3565b60408051600160a060020a039092168252519081900360200190f35b3480156100cd57600080fd5b5061008e60043515156102b2565b3480156100e757600080fd5b506100f061038a565b604080519115158252519081900360200190f35b34801561011057600080fd5b506100a56103ab565b34801561012557600080fd5b506100a56103ba565b6040805160206004803580820135601f81018490048402850184019095528484526100f094369492936024939284019190819084018382808284375050604080516020601f89358b018035918201839004830284018301909452808352979a99988101979196509182019450925082915084018382808284375050604080516020601f89358b018035918201839004830284018301909452808352979a9998810197919650918201945092508291508401838280828437509497506103c99650505050505050565b34801561020257600080fd5b506100a56106e2565b600254600160a060020a0316331461022257600080fd5b60008054604080517f6c4f8bd50000000000000000000000000000000000000000000000000000000081529051600160a060020a0390921692636c4f8bd59260048084019382900301818387803b15801561027c57600080fd5b505af1158015610290573d6000803e3d6000fd5b5050600254600160a060020a0316915050ff5b600354600160a060020a031681565b60008060009054906101000a9004600160a060020a0316600160a060020a03166386cc31ac6040518163ffffffff1660e060020a028152600401602060405180830381600087803b15801561030657600080fd5b505af115801561031a573d6000803e3d6000fd5b505050506040513d602081101561033057600080fd5b5051905033600160a060020a0382161461034957600080fd5b5060048054911515740100000000000000000000000000000000000000000274ff000000000000000000000000000000000000000019909216919091179055565b60045474010000000000000000000000000000000000000000900460ff1690565b600254600160a060020a031690565b600254600160a060020a031681565b600080600160009054906101000a9004600160a060020a0316600160a060020a0316637e5852d96040518163ffffffff1660e060020a028152600401602060405180830381600087803b15801561041f57600080fd5b505af1158015610433573d6000803e3d6000fd5b505050506040513d602081101561044957600080fd5b50511561045557600080fd5b60045474010000000000000000000000000000000000000000900460ff161561047d57600080fd5b6000809054906101000a9004600160a060020a0316600160a060020a031663f36675176040518163ffffffff1660e060020a028152600401602060405180830381600087803b1580156104cf57600080fd5b505af11580156104e3573d6000803e3d6000fd5b505050506040513d60208110156104f957600080fd5b5051604051909150600160a060020a038216903480156108fc02916000818181858888f19350505050158015610533573d6000803e3d6000fd5b5080600160a060020a031663fe8ef25e8686866040518463ffffffff1660e060020a02815260040180806020018060200180602001848103845287818151815260200191508051906020019080838360005b8381101561059d578181015183820152602001610585565b50505050905090810190601f1680156105ca5780820380516001836020036101000a031916815260200191505b50848103835286518152865160209182019188019080838360005b838110156105fd5781810151838201526020016105e5565b50505050905090810190601f16801561062a5780820380516001836020036101000a031916815260200191505b50848103825285518152855160209182019187019080838360005b8381101561065d578181015183820152602001610645565b50505050905090810190601f16801561068a5780820380516001836020036101000a031916815260200191505b509650505050505050602060405180830381600087803b1580156106ad57600080fd5b505af11580156106c1573d6000803e3d6000fd5b505050506040513d60208110156106d757600080fd5b505195945050505050565b600454600160a060020a0316815600a165627a7a723058201184fff11b1fe1535ec50e9e50ebeb16e51954f366e0067054d2781ceb5a9a1f0029",
  "source": "pragma solidity 0.4.24;\r\n\r\nimport \"./User.sol\";\r\nimport \"./ContentCreatorFactory.sol\";\r\nimport \"./LoveMachine.sol\";\r\n\r\ncontract ContentCreator {\r\n    ContentCreatorFactory ccFactory;\r\n    User user;\r\n    address public owner;\r\n    address public userContract;\r\n    address public ccFactoryAddress;\r\n    \r\n    bool ccLock;\r\n   \r\n   //Ensures the caller of the function is the userContract\r\n   //that created it. \r\n    modifier isUser { \r\n        require(msg.sender == owner);\r\n        _;\r\n    }\r\n\r\n    //Ensures the caller of the function is the \r\n    //ConetentCreatorFactory that spawner it. \r\n    modifier onlyCCFactory {\r\n        require(msg.sender == ccFactoryAddress);\r\n        _;\r\n    }\r\n\r\n    //Ensures the address is a user contract address.\r\n    modifier onlyAUser(address _user){\r\n        require(ccFactory.onlyAUser(_user));\r\n        _;\r\n    }\r\n    \r\n    //Ensures the lock is false.\r\n    modifier checkLock {\r\n        require(!user.getLock());\r\n        require(!ccLock);\r\n        _;\r\n    }\r\n    \r\n    //Ensures the caller of the function is the minter. \r\n    modifier onlyMinter {\r\n        address minter = ccFactory.getMinter();\r\n        require(msg.sender == minter);\r\n        _;\r\n    }\r\n    \r\n    //Ensures only the dataStorage can call this function\r\n    modifier onlyDataStorage {\r\n        address dataStorage = ccFactory.getDataStorage();\r\n        require(msg.sender == dataStorage);\r\n        _;\r\n    }\r\n    \r\n    /**\r\n      * @dev Creates a new Conent creator. \r\n      * @notice This is called by the Content Creator Facotry, which \r\n      *     in turn is called by a user account. \r\n      * @param _userAccount : The user contract that called the \r\n      *         Content Creator Factory to become a content creator. \r\n      *     _contentCreatorFactory : The address of the content \r\n      *         creator factory. \r\n      */\r\n    constructor(address _userAccount, address _contentCreatorFactory) \r\n        public \r\n        // onlyAUser(_userAccount)\r\n    {\r\n        owner = _userAccount;\r\n        userContract = _userAccount;\r\n        ccFactoryAddress = _contentCreatorFactory;\r\n        user = User(_userAccount);\r\n        ccFactory = ContentCreatorFactory(_contentCreatorFactory);\r\n    }\r\n    \r\n    /**\r\n      * @dev This allows the content creator to create content. \r\n      * @param _addressIPFS : The address of the content in IPFS. \r\n      *     _title : The title of the content.\r\n      *     _description : The description or the 'About' for the content.\r\n      * @return bool : If the minter created the content. \r\n      */\r\n    function creatConent( \r\n        string _addressIPFS, \r\n        string _title, \r\n        string _description\r\n        )\r\n        public\r\n        payable\r\n        checkLock\r\n        returns(bool)\r\n    {\r\n        LoveMachine minter = LoveMachine(ccFactory.getMinter());\r\n        address(minter).transfer(msg.value);\r\n        return minter.createContentMinter(_addressIPFS, _title, _description);\r\n    }\r\n    \r\n    /**\r\n      * @dev To ensure that the creator is not making any other state changes.  \r\n      * @return bool : If the creator is locked. \r\n      */\r\n    function getLock()\r\n        public\r\n        view\r\n        returns(bool)\r\n    {\r\n        return(ccLock);\r\n    }\r\n    \r\n    /**\r\n      * @dev Sets the lock to the value given. \r\n      * @notice This is only changable by the dataStorage as \r\n      *     the dataStorage is the only thing able to do state \r\n      *     changes, it is the only thing able to lock users and \r\n      *     creators. \r\n      * @param _lock : The new vaule for lock. \r\n      */\r\n    function setLock(bool _lock)\r\n        public\r\n        onlyDataStorage\r\n    {\r\n        ccLock = _lock;\r\n    }\r\n    \r\n    /**\r\n      * @return address : The address of the user contract that \r\n      *     created this creator account. \r\n      */\r\n    function getOwner()\r\n        public\r\n        view\r\n        returns(address)\r\n    {\r\n        return owner;\r\n    }\r\n    \r\n    /**\r\n      * @dev Allows the creator to destroy their account. \r\n      * @notice the killingContract() function transefers all  \r\n      *     views to the user contract that created it, and \r\n      *     also sends any value in the contract to the user \r\n      *     contract as well. \r\n      */\r\n    function kill() \r\n        public\r\n        isUser\r\n    {\r\n        ccFactory.killingCreator();\r\n        selfdestruct(owner);\r\n    }\r\n}",
  "sourcePath": "C:\\Users\\Veronica Coutts\\Desktop\\Desktop\\Work\\Web3 Projects\\MVP\\mvp\\contracts\\ContentCreator.sol",
  "compiler": {
    "name": "solc",
    "version": "0.4.24+commit.e67f0147.Emscripten.clang"
  },
  "schemaVersion": "2.0.1",
  "updatedAt": "2018-08-26T16:46:55.698Z"
}