{
  "contractName": "ContentCreatorFactory",
  "abi": [
    {
      "constant": true,
      "inputs": [],
      "name": "emergencyStop",
      "outputs": [
        {
          "name": "",
          "type": "bool"
        }
      ],
      "payable": false,
      "stateMutability": "view",
      "type": "function"
    },
    {
      "constant": true,
      "inputs": [
        {
          "name": "",
          "type": "uint256"
        }
      ],
      "name": "creatorAddresses",
      "outputs": [
        {
          "name": "",
          "type": "address"
        }
      ],
      "payable": false,
      "stateMutability": "view",
      "type": "function"
    },
    {
      "constant": true,
      "inputs": [],
      "name": "pause",
      "outputs": [
        {
          "name": "",
          "type": "bool"
        }
      ],
      "payable": false,
      "stateMutability": "view",
      "type": "function"
    },
    {
      "inputs": [
        {
          "name": "_dataStorage",
          "type": "address"
        }
      ],
      "payable": false,
      "stateMutability": "nonpayable",
      "type": "constructor"
    },
    {
      "anonymous": false,
      "inputs": [
        {
          "indexed": false,
          "name": "_userAccount",
          "type": "address"
        },
        {
          "indexed": false,
          "name": "_contentCreatorFactory",
          "type": "address"
        }
      ],
      "name": "LogContentCreator",
      "type": "event"
    },
    {
      "constant": true,
      "inputs": [
        {
          "name": "_addressToCheck",
          "type": "address"
        }
      ],
      "name": "onlyAUser",
      "outputs": [
        {
          "name": "",
          "type": "bool"
        }
      ],
      "payable": false,
      "stateMutability": "view",
      "type": "function"
    },
    {
      "constant": false,
      "inputs": [],
      "name": "createContentCreator",
      "outputs": [],
      "payable": false,
      "stateMutability": "nonpayable",
      "type": "function"
    },
    {
      "constant": true,
      "inputs": [],
      "name": "getMinter",
      "outputs": [
        {
          "name": "",
          "type": "address"
        }
      ],
      "payable": false,
      "stateMutability": "view",
      "type": "function"
    },
    {
      "constant": true,
      "inputs": [],
      "name": "getDataStorage",
      "outputs": [
        {
          "name": "",
          "type": "address"
        }
      ],
      "payable": false,
      "stateMutability": "view",
      "type": "function"
    },
    {
      "constant": false,
      "inputs": [],
      "name": "killingCreator",
      "outputs": [],
      "payable": false,
      "stateMutability": "nonpayable",
      "type": "function"
    },
    {
      "constant": false,
      "inputs": [
        {
          "name": "_minter",
          "type": "address"
        }
      ],
      "name": "kill",
      "outputs": [],
      "payable": false,
      "stateMutability": "nonpayable",
      "type": "function"
    }
  ],
  "bytecode": "0x60806040526006805462ffffff1916905534801561001c57600080fd5b5060405160208061118f833981016040818152915160028054600160a060020a0319908116600160a060020a0380851691821790935560008054909216178082557f8da5cb5b0000000000000000000000000000000000000000000000000000000085529451929490911692638da5cb5b9260048083019360209383900390910190829087803b1580156100af57600080fd5b505af11580156100c3573d6000803e3d6000fd5b505050506040513d60208110156100d957600080fd5b505160048054600160a060020a03909216600160a060020a0319909216919091179055506006805462ff00001916620100001790556110728061011d6000396000f30060806040526004361061007f5763ffffffff60e060020a60003504166363a599a481146100845780636c4f8bd5146100ad5780637c0cc8b3146100c45780638456cb59146100f857806386cc31ac1461010d578063a404d3c114610122578063cbf0b0c014610143578063d0b0731c14610164578063f366751714610179575b600080fd5b34801561009057600080fd5b5061009961018e565b604080519115158252519081900360200190f35b3480156100b957600080fd5b506100c2610197565b005b3480156100d057600080fd5b506100dc600435610449565b60408051600160a060020a039092168252519081900360200190f35b34801561010457600080fd5b50610099610471565b34801561011957600080fd5b506100dc61047f565b34801561012e57600080fd5b50610099600160a060020a036004351661048e565b34801561014f57600080fd5b506100c2600160a060020a03600435166105d0565b34801561017057600080fd5b506100c2610685565b34801561018557600080fd5b506100dc61080b565b60065460ff1681565b60008054604080517fefd46065000000000000000000000000000000000000000000000000000000008152336004820181905291519192600160a060020a03169163efd460659160248082019260209290919082900301818887803b1580156101ff57600080fd5b505af1158015610213573d6000803e3d6000fd5b505050506040513d602081101561022957600080fd5b5051151561023657600080fd5b33600160a060020a0382161461024b57600080fd5b3391506000809054906101000a9004600160a060020a0316600160a060020a0316635c1e153c3384600160a060020a031663893d20e86040518163ffffffff1660e060020a028152600401602060405180830381600087803b1580156102b057600080fd5b505af11580156102c4573d6000803e3d6000fd5b505050506040513d60208110156102da57600080fd5b50516040805160e060020a63ffffffff8616028152600160a060020a03938416600482015292909116602483015251604480830192600092919082900301818387803b15801561032957600080fd5b505af115801561033d573d6000803e3d6000fd5b505050506000809054906101000a9004600160a060020a0316600160a060020a031663aae87c2483600160a060020a031663893d20e86040518163ffffffff1660e060020a028152600401602060405180830381600087803b1580156103a257600080fd5b505af11580156103b6573d6000803e3d6000fd5b505050506040513d60208110156103cc57600080fd5b50516040805160e060020a63ffffffff8516028152600160a060020a0390921660048301523360248301525160448083019260209291908290030181600087803b15801561041957600080fd5b505af115801561042d573d6000803e3d6000fd5b505050506040513d602081101561044357600080fd5b50505050565b600580548290811061045757fe5b600091825260209091200154600160a060020a0316905081565b600654610100900460ff1681565b600254600160a060020a031690565b600080606060008092506000809054906101000a9004600160a060020a0316600160a060020a0316632f3300236040518163ffffffff1660e060020a028152600401600060405180830381600087803b1580156104ea57600080fd5b505af11580156104fe573d6000803e3d6000fd5b505050506040513d6000823e601f3d908101601f19168201604052602081101561052757600080fd5b81019080805164010000000081111561053f57600080fd5b8201602081018481111561055257600080fd5b815185602082028301116401000000008211171561056f57600080fd5b5090955060009450505050505b81518110156105c75784600160a060020a0316828281518110151561059d57fe5b90602001906020020151600160a060020a031614156105bf57600192506105c7565b60010161057c565b50909392505050565b600454600160a060020a031633148061066e57506000809054906101000a9004600160a060020a0316600160a060020a031663ed9aab516040518163ffffffff1660e060020a028152600401602060405180830381600087803b15801561063657600080fd5b505af115801561064a573d6000803e3d6000fd5b505050506040513d602081101561066057600080fd5b5051600160a060020a031633145b151561067957600080fd5b80600160a060020a0316ff5b60065460009060ff161561069857600080fd5b600654610100900460ff16156106ad57600080fd5b6000809054906101000a9004600160a060020a0316600160a060020a0316638456cb596040518163ffffffff1660e060020a028152600401602060405180830381600087803b1580156106ff57600080fd5b505af1158015610713573d6000803e3d6000fd5b505050506040513d602081101561072957600080fd5b50511561073557600080fd5b333061073f610890565b600160a060020a03928316815291166020820152604080519182900301906000f080158015610772573d6000803e3d6000fd5b50600580546001810182556000919091527f036b6384b5eca791c62761152d0c79bb0604c104a5fb6f4eb0703f3154bb3db001805473ffffffffffffffffffffffffffffffffffffffff1916600160a060020a0383161790556040805133815230602082015281519293507fc4a6c51d5a191081fe9bfd236037c94a0b113428ed97a5e77463b5c18723aa23929081900390910190a150565b60008060009054906101000a9004600160a060020a0316600160a060020a031663f36675176040518163ffffffff1660e060020a028152600401602060405180830381600087803b15801561085f57600080fd5b505af1158015610873573d6000803e3d6000fd5b505050506040513d602081101561088957600080fd5b5051905090565b6040516107a6806108a1833901905600608060405234801561001057600080fd5b506040516040806107a683398101604052805160209091015160028054600160a060020a03938416600160a060020a031991821681179092556003805482168317905560048054949093169381168417909255600180548316909117905560008054909116909117905561071d806100896000396000f3006080604052600436106100745763ffffffff60e060020a60003504166341c0e1b581146100795780635000596b14610090578063619d5194146100c15780637e5852d9146100db578063893d20e8146101045780638da5cb5b146101195780639daf87291461012e578063cd8c43b6146101f6575b600080fd5b34801561008557600080fd5b5061008e61020b565b005b34801561009c57600080fd5b506100a56102a3565b60408051600160a060020a039092168252519081900360200190f35b3480156100cd57600080fd5b5061008e60043515156102b2565b3480156100e757600080fd5b506100f061038a565b604080519115158252519081900360200190f35b34801561011057600080fd5b506100a56103ab565b34801561012557600080fd5b506100a56103ba565b6040805160206004803580820135601f81018490048402850184019095528484526100f094369492936024939284019190819084018382808284375050604080516020601f89358b018035918201839004830284018301909452808352979a99988101979196509182019450925082915084018382808284375050604080516020601f89358b018035918201839004830284018301909452808352979a9998810197919650918201945092508291508401838280828437509497506103c99650505050505050565b34801561020257600080fd5b506100a56106e2565b600254600160a060020a0316331461022257600080fd5b60008054604080517f6c4f8bd50000000000000000000000000000000000000000000000000000000081529051600160a060020a0390921692636c4f8bd59260048084019382900301818387803b15801561027c57600080fd5b505af1158015610290573d6000803e3d6000fd5b5050600254600160a060020a0316915050ff5b600354600160a060020a031681565b60008060009054906101000a9004600160a060020a0316600160a060020a03166386cc31ac6040518163ffffffff1660e060020a028152600401602060405180830381600087803b15801561030657600080fd5b505af115801561031a573d6000803e3d6000fd5b505050506040513d602081101561033057600080fd5b5051905033600160a060020a0382161461034957600080fd5b5060048054911515740100000000000000000000000000000000000000000274ff000000000000000000000000000000000000000019909216919091179055565b60045474010000000000000000000000000000000000000000900460ff1690565b600254600160a060020a031690565b600254600160a060020a031681565b600080600160009054906101000a9004600160a060020a0316600160a060020a0316637e5852d96040518163ffffffff1660e060020a028152600401602060405180830381600087803b15801561041f57600080fd5b505af1158015610433573d6000803e3d6000fd5b505050506040513d602081101561044957600080fd5b50511561045557600080fd5b60045474010000000000000000000000000000000000000000900460ff161561047d57600080fd5b6000809054906101000a9004600160a060020a0316600160a060020a031663f36675176040518163ffffffff1660e060020a028152600401602060405180830381600087803b1580156104cf57600080fd5b505af11580156104e3573d6000803e3d6000fd5b505050506040513d60208110156104f957600080fd5b5051604051909150600160a060020a038216903480156108fc02916000818181858888f19350505050158015610533573d6000803e3d6000fd5b5080600160a060020a031663fe8ef25e8686866040518463ffffffff1660e060020a02815260040180806020018060200180602001848103845287818151815260200191508051906020019080838360005b8381101561059d578181015183820152602001610585565b50505050905090810190601f1680156105ca5780820380516001836020036101000a031916815260200191505b50848103835286518152865160209182019188019080838360005b838110156105fd5781810151838201526020016105e5565b50505050905090810190601f16801561062a5780820380516001836020036101000a031916815260200191505b50848103825285518152855160209182019187019080838360005b8381101561065d578181015183820152602001610645565b50505050905090810190601f16801561068a5780820380516001836020036101000a031916815260200191505b509650505050505050602060405180830381600087803b1580156106ad57600080fd5b505af11580156106c1573d6000803e3d6000fd5b505050506040513d60208110156106d757600080fd5b505195945050505050565b600454600160a060020a0316815600a165627a7a723058201184fff11b1fe1535ec50e9e50ebeb16e51954f366e0067054d2781ceb5a9a1f0029a165627a7a72305820229317818ef2c98ccbe4f6d0bcdd7dc1b71cf87ceb45f6218eba15472bb7b16c0029",
  "source": "pragma solidity 0.4.24;\r\n\r\nimport \"./DataStorage.sol\";\r\nimport \"./Register.sol\";\r\nimport \"./LoveMachine.sol\";\r\nimport \"./ContentCreator.sol\";\r\n\r\ncontract ContentCreatorFactory {\r\n    DataStorage dataStorage;\r\n    Register register;\r\n    address dataStorageAddress;\r\n    address registerAddress;\r\n    address owner;\r\n    address[] public creatorAddresses;\r\n\r\n    bool public emergencyStop = false;\r\n    bool public pause = false;\r\n    bool callOnce = false;\r\n\r\n    event LogContentCreator(address _userAccount, address _contentCreatorFactory);\r\n\r\n    //Ensures the address is a user address.\r\n    modifier onlyUsers(address _user) {\r\n        bool pass = false;\r\n        pass = dataStorage.isUser(_user);\r\n        require(pass);\r\n        _;\r\n    }\r\n    \r\n    //Ensures function is only used in emergency.\r\n    modifier onlyInEmergency {\r\n        require(emergencyStop);\r\n        _;\r\n    }\r\n    \r\n    //Ensures function is stopped during an emergency.\r\n    modifier stopInEmergency {\r\n        require(!emergencyStop);\r\n        _;\r\n    }\r\n    \r\n    //Ensures the contract has been set up\r\n    modifier pauseFunction {\r\n        require(!pause);\r\n        require(!dataStorage.pause());\r\n        _;\r\n    }\r\n    \r\n    //Ensures the setUp function is only called once. \r\n    modifier onlyCallOnce {\r\n        require(!callOnce, \"This contract has already been set up\");\r\n        _;\r\n    }\r\n\r\n    //Ensures function is only called by owner or register.\r\n    modifier ownerOrRegister {\r\n        require(msg.sender == owner || msg.sender == dataStorage.registryAddress());\r\n        _;\r\n    }\r\n    \r\n    //Ensures only the creator can call this function\r\n    modifier onlyCreator(address _ccc) {\r\n        require(dataStorage.isCreator(msg.sender));\r\n        require(msg.sender == _ccc);\r\n        _;\r\n    }\r\n\r\n    /**\r\n      * @dev Creates the contract.\r\n      * @notice The constructor and contract setup has been seporated\r\n      *     becuse the constructor dose not create an address for itself\r\n      *     untill the constructor has finished. \r\n      */\r\n    constructor(address _dataStorage) \r\n        public \r\n    {\r\n        dataStorageAddress = _dataStorage;\r\n        dataStorage = DataStorage(_dataStorage);\r\n        owner = dataStorage.owner();\r\n        \r\n        callOnce = true;\r\n    }\r\n    \r\n    // /**\r\n    //   * @dev This function is used to set up the contract after the \r\n    //   *     constructor has created the contract address.\r\n    //   * @notice The owner is set to the owner of the DataStorage. \r\n    //   *     This function can only be called once. \r\n    //   * @param _dataStorage : The address of the dataStorage that \r\n    //   *             created it. \r\n    //   */\r\n    // function constructorFunction)\r\n    //     public\r\n    //     onlyCallOnce\r\n    // {\r\n        \r\n    // }\r\n\r\n    /**\r\n      * @dev Used to check if an address is a user. \r\n      * @param _addressToCheck : The address to check.\r\n      * @return bool : If the address is a user. \r\n      */\r\n    function onlyAUser(address _addressToCheck)\r\n        public\r\n        view\r\n        returns(bool)    \r\n    {\r\n        bool pass = false;\r\n        address[] memory allUsers = dataStorage.getAllUserAddresses();\r\n        for(uint i = 0; i < allUsers.length; i++) {\r\n            if(allUsers[i] == _addressToCheck) {\r\n                pass = true;\r\n                break;\r\n            }\r\n        }\r\n        return(pass);\r\n    } \r\n     \r\n     /**\r\n       * @dev Creates a conent creator.\r\n       * @notice Can only be called by a user. This function is \r\n       *    called directly from the users contract. \r\n       * @return bool : Returns what the minter function to \r\n       *    creator a creator returns. \r\n       */\r\n    function createContentCreator()\r\n        public \r\n        // payable\r\n        // onlyUsers(msg.sender)\r\n        stopInEmergency\r\n        pauseFunction\r\n        //returns(bool) \r\n    { \r\n        address ccc = new ContentCreator(msg.sender, this);\r\n        creatorAddresses.push(ccc);\r\n        \r\n        //return dataStorage.setNewCreatorData(msg.sender, ccc);\r\n        emit LogContentCreator(msg.sender, this);\r\n    }\r\n    \r\n    /**\r\n      * @return address : The address of the current minter \r\n      *     from the dataStorage.  \r\n      */\r\n    function getMinter() \r\n        public\r\n        view\r\n        returns(address)\r\n    {\r\n        return dataStorage.getMinter();\r\n    }\r\n    \r\n    function getDataStorage()\r\n        public\r\n        view\r\n        returns(address)\r\n    {\r\n        return dataStorageAddress;\r\n    }\r\n    \r\n    /**\r\n      * @dev Sends all funds to user contract and then deletes\r\n      *     all the content creators data. \r\n      */\r\n    function killingCreator()\r\n        public\r\n        onlyCreator(msg.sender)\r\n    {\r\n        ContentCreator cc = ContentCreator(msg.sender);\r\n        dataStorage.moveAllFundsToUser(msg.sender, cc.getOwner());\r\n        dataStorage.removeCreatorData(cc.getOwner(), msg.sender);\r\n    }\r\n\r\n    /**\r\n      * @dev Kills this contract and sends any finds to the \r\n      *     minter. \r\n      * @notice Can only be called by the \r\n      */\r\n    function kill(address _minter) \r\n        public \r\n        ownerOrRegister \r\n    {\r\n        selfdestruct(_minter);\r\n    }\r\n}",
  "sourcePath": "C:\\Users\\Veronica Coutts\\Desktop\\Desktop\\Work\\Web3 Projects\\MVP\\mvp\\contracts\\ContentCreatorFactory.sol",
  "compiler": {
    "name": "solc",
    "version": "0.4.24+commit.e67f0147.Emscripten.clang"
  },
  "schemaVersion": "2.0.1",
  "updatedAt": "2018-08-26T16:46:55.699Z"
}