{
  "contractName": "ContentCreator",
  "abi": [
    {
      "inputs": [
        {
          "name": "_userContractAddress",
          "type": "address"
        },
        {
          "name": "_contentCreatorFactory",
          "type": "address"
        }
      ],
      "payable": false,
      "stateMutability": "nonpayable",
      "type": "constructor"
    },
    {
      "constant": false,
      "inputs": [
        {
          "name": "_contentCreatorContract",
          "type": "address"
        },
        {
          "name": "_addressIPFS",
          "type": "uint256"
        },
        {
          "name": "_title",
          "type": "string"
        },
        {
          "name": "_description",
          "type": "string"
        }
      ],
      "name": "creatConent",
      "outputs": [
        {
          "name": "",
          "type": "bool"
        }
      ],
      "payable": true,
      "stateMutability": "payable",
      "type": "function"
    },
    {
      "constant": true,
      "inputs": [],
      "name": "getLock",
      "outputs": [
        {
          "name": "",
          "type": "bool"
        }
      ],
      "payable": false,
      "stateMutability": "view",
      "type": "function"
    }
  ],
  "bytecode": "0x608060405234801561001057600080fd5b506040516040806107f58339810180604052810190808051906020019092919080519060200190929190505050336000809054906101000a900473ffffffffffffffffffffffffffffffffffffffff1673ffffffffffffffffffffffffffffffffffffffff1663a404d3c1826040518263ffffffff167c0100000000000000000000000000000000000000000000000000000000028152600401808273ffffffffffffffffffffffffffffffffffffffff1673ffffffffffffffffffffffffffffffffffffffff168152602001915050602060405180830381600087803b1580156100fa57600080fd5b505af115801561010e573d6000803e3d6000fd5b505050506040513d602081101561012457600080fd5b8101908080519060200190929190505050151561014057600080fd5b33600260006101000a81548173ffffffffffffffffffffffffffffffffffffffff021916908373ffffffffffffffffffffffffffffffffffffffff16021790555082600360006101000a81548173ffffffffffffffffffffffffffffffffffffffff021916908373ffffffffffffffffffffffffffffffffffffffff16021790555081600460006101000a81548173ffffffffffffffffffffffffffffffffffffffff021916908373ffffffffffffffffffffffffffffffffffffffff16021790555082600160006101000a81548173ffffffffffffffffffffffffffffffffffffffff021916908373ffffffffffffffffffffffffffffffffffffffff160217905550816000806101000a81548173ffffffffffffffffffffffffffffffffffffffff021916908373ffffffffffffffffffffffffffffffffffffffff16021790555050505061055f806102966000396000f30060806040526004361061004c576000357c0100000000000000000000000000000000000000000000000000000000900463ffffffff1680637e5852d914610051578063caec47b414610080575b600080fd5b34801561005d57600080fd5b50610066610164565b604051808215151515815260200191505060405180910390f35b61014a600480360381019080803573ffffffffffffffffffffffffffffffffffffffff16906020019092919080359060200190929190803590602001908201803590602001908080601f0160208091040260200160405190810160405280939291908181526020018383808284378201915050505050509192919290803590602001908201803590602001908080601f016020809104026020016040519081016040528093929190818152602001838380828437820191505050505050919291929050505061017b565b604051808215151515815260200191505060405180910390f35b6000600460149054906101000a900460ff16905090565b600080600160009054906101000a900473ffffffffffffffffffffffffffffffffffffffff1673ffffffffffffffffffffffffffffffffffffffff16637e5852d96040518163ffffffff167c0100000000000000000000000000000000000000000000000000000000028152600401602060405180830381600087803b15801561020457600080fd5b505af1158015610218573d6000803e3d6000fd5b505050506040513d602081101561022e57600080fd5b810190808051906020019092919050505015151561024b57600080fd5b600460149054906101000a900460ff1615151561026757600080fd5b6000809054906101000a900473ffffffffffffffffffffffffffffffffffffffff1673ffffffffffffffffffffffffffffffffffffffff1663f36675176040518163ffffffff167c0100000000000000000000000000000000000000000000000000000000028152600401602060405180830381600087803b1580156102ec57600080fd5b505af1158015610300573d6000803e3d6000fd5b505050506040513d602081101561031657600080fd5b810190808051906020019092919050505090508073ffffffffffffffffffffffffffffffffffffffff166108fc349081150290604051600060405180830381858888f1935050505015801561036f573d6000803e3d6000fd5b508073ffffffffffffffffffffffffffffffffffffffff16632d7e79e9308787876040518563ffffffff167c0100000000000000000000000000000000000000000000000000000000028152600401808573ffffffffffffffffffffffffffffffffffffffff1673ffffffffffffffffffffffffffffffffffffffff1681526020018481526020018060200180602001838103835285818151815260200191508051906020019080838360005b8381101561043757808201518184015260208101905061041c565b50505050905090810190601f1680156104645780820380516001836020036101000a031916815260200191505b50838103825284818151815260200191508051906020019080838360005b8381101561049d578082015181840152602081019050610482565b50505050905090810190601f1680156104ca5780820380516001836020036101000a031916815260200191505b509650505050505050602060405180830381600087803b1580156104ed57600080fd5b505af1158015610501573d6000803e3d6000fd5b505050506040513d602081101561051757600080fd5b81019080805190602001909291905050509150509493505050505600a165627a7a72305820ce689e61f4fd82689e678a4d60c3cf8b026859ede9f180164975571611f24ee30029",
  "source": "pragma solidity 0.4.24;\r\n\r\nimport \"./1DataStorage.sol\";\r\nimport \"./User.sol\";\r\nimport \"./3ContentCreatorFactory.sol\";\r\nimport \"./LoveMachine.sol\";\r\n\r\ncontract ContentCreator {\r\n    ContentCreatorFactory ccFactory;\r\n    User user;\r\n    address owner;\r\n    address userContract;\r\n    address ccFactoryAddress;\r\n    \r\n    bool ccLock;\r\n   \r\n    modifier isUser { \r\n        require(msg.sender == owner);\r\n        _;\r\n    }\r\n\r\n    modifier onlyCCFactory {\r\n        require(msg.sender == ccFactoryAddress);\r\n        _;\r\n    }\r\n\r\n    modifier onlyAUser(address _user){\r\n        require(ccFactory.onlyAUser(_user));\r\n        _;\r\n    }\r\n    \r\n    modifier checkLock {\r\n        require(!user.getLock());\r\n        require(!ccLock);\r\n        _;\r\n    }\r\n    \r\n    constructor(address _userContractAddress, address _contentCreatorFactory) \r\n        public \r\n        onlyAUser(msg.sender)\r\n    {\r\n        owner = msg.sender;\r\n        userContract = _userContractAddress;\r\n        ccFactoryAddress = _contentCreatorFactory;\r\n        user = User(_userContractAddress);\r\n        ccFactory = ContentCreatorFactory(_contentCreatorFactory);\r\n    }\r\n    \r\n    function creatConent(\r\n        address _contentCreatorContract, \r\n        uint _addressIPFS, \r\n        string _title, \r\n        string _description\r\n        )\r\n        public\r\n        payable\r\n        checkLock\r\n        returns(bool)\r\n    {\r\n        LoveMachine minter = LoveMachine(ccFactory.getMinter());\r\n        address(minter).transfer(msg.value);\r\n        return minter.createContentMinter(this, _addressIPFS, _title, _description);\r\n    }\r\n    \r\n    function getLock()\r\n        public\r\n        view\r\n        returns(bool)\r\n    {\r\n        return(ccLock);\r\n    }\r\n}",
  "sourcePath": "C:\\Users\\Veronica Coutts\\Desktop\\Desktop\\Work\\Web3 Projects\\MVP\\mvp\\contracts\\ContentCreator.sol",
  "compiler": {
    "name": "solc",
    "version": "0.4.24+commit.e67f0147.Emscripten.clang"
  },
  "schemaVersion": "2.0.1",
  "updatedAt": "2018-08-23T20:18:44.260Z"
}