{
  "contractName": "ContentCreatorFactory",
  "abi": [
    {
      "constant": true,
      "inputs": [],
      "name": "emergencyStop",
      "outputs": [
        {
          "name": "",
          "type": "bool"
        }
      ],
      "payable": false,
      "stateMutability": "view",
      "type": "function"
    },
    {
      "constant": true,
      "inputs": [],
      "name": "pause",
      "outputs": [
        {
          "name": "",
          "type": "bool"
        }
      ],
      "payable": false,
      "stateMutability": "view",
      "type": "function"
    },
    {
      "inputs": [
        {
          "name": "_dataStorage",
          "type": "address"
        }
      ],
      "payable": false,
      "stateMutability": "nonpayable",
      "type": "constructor"
    },
    {
      "constant": true,
      "inputs": [
        {
          "name": "_addressToCheck",
          "type": "address"
        }
      ],
      "name": "onlyAUser",
      "outputs": [
        {
          "name": "",
          "type": "bool"
        }
      ],
      "payable": false,
      "stateMutability": "view",
      "type": "function"
    },
    {
      "constant": false,
      "inputs": [],
      "name": "createContentCreator",
      "outputs": [
        {
          "name": "",
          "type": "bool"
        }
      ],
      "payable": true,
      "stateMutability": "payable",
      "type": "function"
    },
    {
      "constant": true,
      "inputs": [],
      "name": "getMinter",
      "outputs": [
        {
          "name": "",
          "type": "address"
        }
      ],
      "payable": false,
      "stateMutability": "view",
      "type": "function"
    },
    {
      "constant": true,
      "inputs": [],
      "name": "getDataStorage",
      "outputs": [
        {
          "name": "",
          "type": "address"
        }
      ],
      "payable": false,
      "stateMutability": "view",
      "type": "function"
    },
    {
      "constant": false,
      "inputs": [],
      "name": "killingCreator",
      "outputs": [],
      "payable": false,
      "stateMutability": "nonpayable",
      "type": "function"
    },
    {
      "constant": false,
      "inputs": [
        {
          "name": "_minter",
          "type": "address"
        }
      ],
      "name": "kill",
      "outputs": [],
      "payable": false,
      "stateMutability": "nonpayable",
      "type": "function"
    }
  ],
  "bytecode": "0x60806040526004805460a060020a62ffffff021916905534801561002257600080fd5b5060405160208061126a833981016040818152915160028054600160a060020a0319908116600160a060020a0380851691821790935560008054909216178082557f8da5cb5b0000000000000000000000000000000000000000000000000000000085529451929490911692638da5cb5b9260048083019360209383900390910190829087803b1580156100b557600080fd5b505af11580156100c9573d6000803e3d6000fd5b505050506040513d60208110156100df57600080fd5b50516004805460b060020a60ff0219600160a060020a03909316600160a060020a0319909116179190911676010000000000000000000000000000000000000000000017905550611135806101356000396000f3006080604052600436106100745763ffffffff60e060020a60003504166363a599a481146100795780636c4f8bd5146100a25780638456cb59146100b957806386cc31ac146100ce578063a404d3c1146100ff578063cbf0b0c014610120578063d0b0731c14610141578063f366751714610149575b600080fd5b34801561008557600080fd5b5061008e61015e565b604080519115158252519081900360200190f35b3480156100ae57600080fd5b506100b761017f565b005b3480156100c557600080fd5b5061008e610431565b3480156100da57600080fd5b506100e3610453565b60408051600160a060020a039092168252519081900360200190f35b34801561010b57600080fd5b5061008e600160a060020a0360043516610462565b34801561012c57600080fd5b506100b7600160a060020a03600435166105a4565b61008e610659565b34801561015557600080fd5b506100e36108bc565b60045474010000000000000000000000000000000000000000900460ff1681565b60008054604080517fefd46065000000000000000000000000000000000000000000000000000000008152336004820181905291519192600160a060020a03169163efd460659160248082019260209290919082900301818887803b1580156101e757600080fd5b505af11580156101fb573d6000803e3d6000fd5b505050506040513d602081101561021157600080fd5b5051151561021e57600080fd5b33600160a060020a0382161461023357600080fd5b3391506000809054906101000a9004600160a060020a0316600160a060020a0316635c1e153c3384600160a060020a031663893d20e86040518163ffffffff1660e060020a028152600401602060405180830381600087803b15801561029857600080fd5b505af11580156102ac573d6000803e3d6000fd5b505050506040513d60208110156102c257600080fd5b50516040805160e060020a63ffffffff8616028152600160a060020a03938416600482015292909116602483015251604480830192600092919082900301818387803b15801561031157600080fd5b505af1158015610325573d6000803e3d6000fd5b505050506000809054906101000a9004600160a060020a0316600160a060020a031663aae87c2483600160a060020a031663893d20e86040518163ffffffff1660e060020a028152600401602060405180830381600087803b15801561038a57600080fd5b505af115801561039e573d6000803e3d6000fd5b505050506040513d60208110156103b457600080fd5b50516040805160e060020a63ffffffff8516028152600160a060020a0390921660048301523360248301525160448083019260209291908290030181600087803b15801561040157600080fd5b505af1158015610415573d6000803e3d6000fd5b505050506040513d602081101561042b57600080fd5b50505050565b6004547501000000000000000000000000000000000000000000900460ff1681565b600254600160a060020a031690565b600080606060008092506000809054906101000a9004600160a060020a0316600160a060020a0316632f3300236040518163ffffffff1660e060020a028152600401600060405180830381600087803b1580156104be57600080fd5b505af11580156104d2573d6000803e3d6000fd5b505050506040513d6000823e601f3d908101601f1916820160405260208110156104fb57600080fd5b81019080805164010000000081111561051357600080fd5b8201602081018481111561052657600080fd5b815185602082028301116401000000008211171561054357600080fd5b5090955060009450505050505b815181101561059b5784600160a060020a0316828281518110151561057157fe5b90602001906020020151600160a060020a03161415610593576001925061059b565b600101610550565b50909392505050565b600454600160a060020a031633148061064257506000809054906101000a9004600160a060020a0316600160a060020a031663ed9aab516040518163ffffffff1660e060020a028152600401602060405180830381600087803b15801561060a57600080fd5b505af115801561061e573d6000803e3d6000fd5b505050506040513d602081101561063457600080fd5b5051600160a060020a031633145b151561064d57600080fd5b80600160a060020a0316ff5b60008054604080517f4209fff10000000000000000000000000000000000000000000000000000000081523360048201819052915184938492600160a060020a0390911691634209fff19160248082019260209290919082900301818787803b1580156106c557600080fd5b505af11580156106d9573d6000803e3d6000fd5b505050506040513d60208110156106ef57600080fd5b505190508015156106ff57600080fd5b60045474010000000000000000000000000000000000000000900460ff161561072757600080fd5b6004547501000000000000000000000000000000000000000000900460ff161561075057600080fd5b6000809054906101000a9004600160a060020a0316600160a060020a0316638456cb596040518163ffffffff1660e060020a028152600401602060405180830381600087803b1580156107a257600080fd5b505af11580156107b6573d6000803e3d6000fd5b505050506040513d60208110156107cc57600080fd5b5051156107d857600080fd5b33306107e2610941565b600160a060020a03928316815291166020820152604080519182900301906000f080158015610815573d6000803e3d6000fd5b5060008054604080517fe2bf75d1000000000000000000000000000000000000000000000000000000008152336004820152600160a060020a038086166024830152915194975091169263e2bf75d192604480840193602093929083900390910190829087803b15801561088857600080fd5b505af115801561089c573d6000803e3d6000fd5b505050506040513d60208110156108b257600080fd5b5051935050505090565b60008060009054906101000a9004600160a060020a0316600160a060020a031663f36675176040518163ffffffff1660e060020a028152600401602060405180830381600087803b15801561091057600080fd5b505af1158015610924573d6000803e3d6000fd5b505050506040513d602081101561093a57600080fd5b5051905090565b6040516107b880610952833901905600608060405234801561001057600080fd5b506040516040806107b88339810160408181528251602093840151600080547fa404d3c1000000000000000000000000000000000000000000000000000000008652600160a060020a03808516600488015294519396929587959091169363a404d3c19360248084019491938390030190829087803b15801561009257600080fd5b505af11580156100a6573d6000803e3d6000fd5b505050506040513d60208110156100bc57600080fd5b505115156100c957600080fd5b5060028054600160a060020a03938416600160a060020a031991821681179092556003805482168317905560048054939094169281168317909355600180548416909117905560008054909216179055610690806101286000396000f3006080604052600436106100535763ffffffff60e060020a60003504166341c0e1b58114610058578063619d51941461006f5780637e5852d914610089578063893d20e8146100b25780639daf8729146100e3575b600080fd5b34801561006457600080fd5b5061006d6101ab565b005b34801561007b57600080fd5b5061006d6004351515610243565b34801561009557600080fd5b5061009e61031b565b604080519115158252519081900360200190f35b3480156100be57600080fd5b506100c761033c565b60408051600160a060020a039092168252519081900360200190f35b6040805160206004803580820135601f810184900484028501840190955284845261009e94369492936024939284019190819084018382808284375050604080516020601f89358b018035918201839004830284018301909452808352979a99988101979196509182019450925082915084018382808284375050604080516020601f89358b018035918201839004830284018301909452808352979a99988101979196509182019450925082915084018382808284375094975061034b9650505050505050565b600254600160a060020a031633146101c257600080fd5b60008054604080517f6c4f8bd50000000000000000000000000000000000000000000000000000000081529051600160a060020a0390921692636c4f8bd59260048084019382900301818387803b15801561021c57600080fd5b505af1158015610230573d6000803e3d6000fd5b5050600254600160a060020a0316915050ff5b60008060009054906101000a9004600160a060020a0316600160a060020a03166386cc31ac6040518163ffffffff1660e060020a028152600401602060405180830381600087803b15801561029757600080fd5b505af11580156102ab573d6000803e3d6000fd5b505050506040513d60208110156102c157600080fd5b5051905033600160a060020a038216146102da57600080fd5b5060048054911515740100000000000000000000000000000000000000000274ff000000000000000000000000000000000000000019909216919091179055565b60045474010000000000000000000000000000000000000000900460ff1690565b600254600160a060020a031690565b600080600160009054906101000a9004600160a060020a0316600160a060020a0316637e5852d96040518163ffffffff1660e060020a028152600401602060405180830381600087803b1580156103a157600080fd5b505af11580156103b5573d6000803e3d6000fd5b505050506040513d60208110156103cb57600080fd5b5051156103d757600080fd5b60045474010000000000000000000000000000000000000000900460ff16156103ff57600080fd5b6000809054906101000a9004600160a060020a0316600160a060020a031663f36675176040518163ffffffff1660e060020a028152600401602060405180830381600087803b15801561045157600080fd5b505af1158015610465573d6000803e3d6000fd5b505050506040513d602081101561047b57600080fd5b5051604051909150600160a060020a038216903480156108fc02916000818181858888f193505050501580156104b5573d6000803e3d6000fd5b5080600160a060020a031663fe8ef25e8686866040518463ffffffff1660e060020a02815260040180806020018060200180602001848103845287818151815260200191508051906020019080838360005b8381101561051f578181015183820152602001610507565b50505050905090810190601f16801561054c5780820380516001836020036101000a031916815260200191505b50848103835286518152865160209182019188019080838360005b8381101561057f578181015183820152602001610567565b50505050905090810190601f1680156105ac5780820380516001836020036101000a031916815260200191505b50848103825285518152855160209182019187019080838360005b838110156105df5781810151838201526020016105c7565b50505050905090810190601f16801561060c5780820380516001836020036101000a031916815260200191505b509650505050505050602060405180830381600087803b15801561062f57600080fd5b505af1158015610643573d6000803e3d6000fd5b505050506040513d602081101561065957600080fd5b5051959450505050505600a165627a7a72305820b04fc3be68b2c2e74e706b727c2e3f679cf53edef476fb3e4c8d19de390239df0029a165627a7a723058205ca0574bdf38cd7eb5c092fbed50311bf51798b5261104db6114e9c350bb7d7c0029",
  "source": "pragma solidity 0.4.24;\r\n\r\nimport \"./DataStorage.sol\";\r\nimport \"./Register.sol\";\r\nimport \"./LoveMachine.sol\";\r\nimport \"./ContentCreator.sol\";\r\n\r\ncontract ContentCreatorFactory {\r\n    DataStorage dataStorage;\r\n    Register register;\r\n    address dataStorageAddress;\r\n    address registerAddress;\r\n    address owner;\r\n\r\n    bool public emergencyStop = false;\r\n    bool public pause = false;\r\n    bool callOnce = false;\r\n\r\n    //Ensures the address is a user address.\r\n    modifier onlyUsers(address _user) {\r\n        bool pass = false;\r\n        pass = dataStorage.isUser(_user);\r\n        require(pass);\r\n        _;\r\n    }\r\n    \r\n    //Ensures function is only used in emergency.\r\n    modifier onlyInEmergency {\r\n        require(emergencyStop);\r\n        _;\r\n    }\r\n    \r\n    //Ensures function is stopped during an emergency.\r\n    modifier stopInEmergency {\r\n        require(!emergencyStop);\r\n        _;\r\n    }\r\n    \r\n    //Ensures the contract has been set up\r\n    modifier pauseFunction {\r\n        require(!pause);\r\n        require(!dataStorage.pause());\r\n        _;\r\n    }\r\n    \r\n    //Ensures the setUp function is only called once. \r\n    modifier onlyCallOnce {\r\n        require(!callOnce, \"This contract has already been set up\");\r\n        _;\r\n    }\r\n\r\n    //Ensures function is only called by owner or register.\r\n    modifier ownerOrRegister {\r\n        require(msg.sender == owner || msg.sender == dataStorage.registryAddress());\r\n        _;\r\n    }\r\n    \r\n    //Ensures only the creator can call this function\r\n    modifier onlyCreator(address _ccc) {\r\n        require(dataStorage.isCreator(msg.sender));\r\n        require(msg.sender == _ccc);\r\n        _;\r\n    }\r\n\r\n    /**\r\n      * @dev Creates the contract.\r\n      * @notice The constructor and contract setup has been seporated\r\n      *     becuse the constructor dose not create an address for itself\r\n      *     untill the constructor has finished. \r\n      */\r\n    constructor(address _dataStorage) \r\n        public \r\n    {\r\n        dataStorageAddress = _dataStorage;\r\n        dataStorage = DataStorage(_dataStorage);\r\n        owner = dataStorage.owner();\r\n        \r\n        callOnce = true;\r\n    }\r\n    \r\n    // /**\r\n    //   * @dev This function is used to set up the contract after the \r\n    //   *     constructor has created the contract address.\r\n    //   * @notice The owner is set to the owner of the DataStorage. \r\n    //   *     This function can only be called once. \r\n    //   * @param _dataStorage : The address of the dataStorage that \r\n    //   *             created it. \r\n    //   */\r\n    // function constructorFunction)\r\n    //     public\r\n    //     onlyCallOnce\r\n    // {\r\n        \r\n    // }\r\n\r\n    /**\r\n      * @dev Used to check if an address is a user. \r\n      * @param _addressToCheck : The address to check.\r\n      * @return bool : If the address is a user. \r\n      */\r\n    function onlyAUser(address _addressToCheck)\r\n        public\r\n        view\r\n        returns(bool)    \r\n    {\r\n        bool pass = false;\r\n        address[] memory allUsers = dataStorage.getAllUserAddresses();\r\n        for(uint i = 0; i < allUsers.length; i++) {\r\n            if(allUsers[i] == _addressToCheck) {\r\n                pass = true;\r\n                break;\r\n            }\r\n        }\r\n        return(pass);\r\n    } \r\n     \r\n     /**\r\n       * @dev Creates a conent creator.\r\n       * @notice Can only be called by a user. This function is \r\n       *    called directly from the users contract. \r\n       * @return bool : Returns what the minter function to \r\n       *    creator a creator returns. \r\n       */\r\n    function createContentCreator()\r\n        public \r\n        payable\r\n        onlyUsers(msg.sender)\r\n        stopInEmergency\r\n        pauseFunction\r\n        returns(bool) \r\n    { \r\n        address ccc = new ContentCreator(msg.sender, this);\r\n        return dataStorage.setNewCreatorData(msg.sender, ccc);\r\n    }\r\n    \r\n    /**\r\n      * @return address : The address of the current minter \r\n      *     from the dataStorage.  \r\n      */\r\n    function getMinter() \r\n        public\r\n        view\r\n        returns(address)\r\n    {\r\n        return dataStorage.getMinter();\r\n    }\r\n    \r\n    function getDataStorage()\r\n        public\r\n        view\r\n        returns(address)\r\n    {\r\n        return dataStorageAddress;\r\n    }\r\n    \r\n    /**\r\n      * @dev Sends all funds to user contract and then deletes\r\n      *     all the content creators data. \r\n      */\r\n    function killingCreator()\r\n        public\r\n        onlyCreator(msg.sender)\r\n    {\r\n        ContentCreator cc = ContentCreator(msg.sender);\r\n        dataStorage.moveAllFundsToUser(msg.sender, cc.getOwner());\r\n        dataStorage.removeCreatorData(cc.getOwner(), msg.sender);\r\n    }\r\n\r\n    /**\r\n      * @dev Kills this contract and sends any finds to the \r\n      *     minter. \r\n      * @notice Can only be called by the \r\n      */\r\n    function kill(address _minter) \r\n        public \r\n        ownerOrRegister \r\n    {\r\n        selfdestruct(_minter);\r\n    }\r\n}",
  "sourcePath": "C:\\Users\\Veronica Coutts\\Desktop\\Desktop\\Work\\Web3 Projects\\MVP\\mvp\\contracts\\3ContentCreatorFactory.sol",
  "compiler": {
    "name": "solc",
    "version": "0.4.24+commit.e67f0147.Emscripten.clang"
  },
  "schemaVersion": "2.0.1",
  "updatedAt": "2018-08-26T12:30:03.264Z"
}