{
  "contractName": "ContentCreatorFactory",
  "abi": [
    {
      "inputs": [],
      "payable": false,
      "stateMutability": "nonpayable",
      "type": "constructor"
    },
    {
      "constant": false,
      "inputs": [],
      "name": "createContentCreator",
      "outputs": [
        {
          "name": "",
          "type": "bool"
        }
      ],
      "payable": true,
      "stateMutability": "payable",
      "type": "function"
    }
  ],
  "bytecode": "0x608060405234801561001057600080fd5b50336000806101000a81548173ffffffffffffffffffffffffffffffffffffffff021916908373ffffffffffffffffffffffffffffffffffffffff16021790555061027b806100606000396000f300608060405260043610610041576000357c0100000000000000000000000000000000000000000000000000000000900463ffffffff168063d0b0731c14610046575b600080fd5b61004e610068565b604051808215151515815260200191505060405180910390f35b6000803361007461014b565b808273ffffffffffffffffffffffffffffffffffffffff1673ffffffffffffffffffffffffffffffffffffffff168152602001915050604051809103906000f0801580156100c6573d6000803e3d6000fd5b50905033600160008373ffffffffffffffffffffffffffffffffffffffff1673ffffffffffffffffffffffffffffffffffffffff16815260200190815260200160002060006101000a81548173ffffffffffffffffffffffffffffffffffffffff021916908373ffffffffffffffffffffffffffffffffffffffff1602179055505090565b60405160f58061015b8339019056006080604052348015600f57600080fd5b5060405160208060f583398101806040528101908080519060200190929190505050336000806101000a81548173ffffffffffffffffffffffffffffffffffffffff021916908373ffffffffffffffffffffffffffffffffffffffff16021790555080600160006101000a81548173ffffffffffffffffffffffffffffffffffffffff021916908373ffffffffffffffffffffffffffffffffffffffff1602179055505060358060c06000396000f3006080604052600080fd00a165627a7a723058208ed901cda0bddfecf3c235d0a035982ed0c2895c45c18b70c2851f804c3f6d260029a165627a7a723058202374b95003fe97421c034ab8410fe39a5bbb5188c7c1d58a1e49a376c0bd33bb0029",
  "source": "pragma solidity 0.4.24;\r\n\r\nimport \"./ContentCreator.sol\";\r\n\r\ncontract ContentCreatorFactory {\r\n    address owner;\r\n    mapping (address => address) contentCreators; //ccc address to user address\r\n    \r\n    constructor() {\r\n        owner = msg.sender;\r\n    }\r\n    \r\n    function createContentCreator()\r\n    public \r\n    payable\r\n    returns(bool) {\r\n        ContentCreator ccc = new ContentCreator(msg.sender);\r\n        contentCreators[ccc] = msg.sender;\r\n        \r\n    }\r\n}",
  "sourcePath": "C:\\Users\\Veronica Coutts\\Desktop\\Desktop\\Work\\Web3 Projects\\MVP\\mvp\\contracts\\ContentCreatorFactory.sol",
  "compiler": {
    "name": "solc",
    "version": "0.4.24+commit.e67f0147.Emscripten.clang"
  },
  "schemaVersion": "2.0.1",
  "updatedAt": "2018-08-19T16:31:58.059Z"
}