{
  "contractName": "ContentCreator",
  "abi": [
    {
      "inputs": [
        {
          "name": "_userAccount",
          "type": "address"
        },
        {
          "name": "_contentCreatorFactory",
          "type": "address"
        }
      ],
      "payable": false,
      "stateMutability": "nonpayable",
      "type": "constructor"
    },
    {
      "constant": false,
      "inputs": [
        {
          "name": "_addressIPFS",
          "type": "string"
        },
        {
          "name": "_title",
          "type": "string"
        },
        {
          "name": "_description",
          "type": "string"
        }
      ],
      "name": "creatConent",
      "outputs": [
        {
          "name": "",
          "type": "bool"
        }
      ],
      "payable": true,
      "stateMutability": "payable",
      "type": "function"
    },
    {
      "constant": true,
      "inputs": [],
      "name": "getLock",
      "outputs": [
        {
          "name": "",
          "type": "bool"
        }
      ],
      "payable": false,
      "stateMutability": "view",
      "type": "function"
    },
    {
      "constant": false,
      "inputs": [
        {
          "name": "_lock",
          "type": "bool"
        }
      ],
      "name": "setLock",
      "outputs": [],
      "payable": false,
      "stateMutability": "nonpayable",
      "type": "function"
    },
    {
      "constant": true,
      "inputs": [],
      "name": "getOwner",
      "outputs": [
        {
          "name": "",
          "type": "address"
        }
      ],
      "payable": false,
      "stateMutability": "view",
      "type": "function"
    },
    {
      "constant": false,
      "inputs": [],
      "name": "kill",
      "outputs": [],
      "payable": false,
      "stateMutability": "nonpayable",
      "type": "function"
    }
  ],
  "bytecode": "0x608060405234801561001057600080fd5b50604051604080610b798339810180604052810190808051906020019092919080519060200190929190505050816000809054906101000a900473ffffffffffffffffffffffffffffffffffffffff1673ffffffffffffffffffffffffffffffffffffffff1663a404d3c1826040518263ffffffff167c0100000000000000000000000000000000000000000000000000000000028152600401808273ffffffffffffffffffffffffffffffffffffffff1673ffffffffffffffffffffffffffffffffffffffff168152602001915050602060405180830381600087803b1580156100fa57600080fd5b505af115801561010e573d6000803e3d6000fd5b505050506040513d602081101561012457600080fd5b8101908080519060200190929190505050151561014057600080fd5b82600260006101000a81548173ffffffffffffffffffffffffffffffffffffffff021916908373ffffffffffffffffffffffffffffffffffffffff16021790555082600360006101000a81548173ffffffffffffffffffffffffffffffffffffffff021916908373ffffffffffffffffffffffffffffffffffffffff16021790555081600460006101000a81548173ffffffffffffffffffffffffffffffffffffffff021916908373ffffffffffffffffffffffffffffffffffffffff16021790555082600160006101000a81548173ffffffffffffffffffffffffffffffffffffffff021916908373ffffffffffffffffffffffffffffffffffffffff160217905550816000806101000a81548173ffffffffffffffffffffffffffffffffffffffff021916908373ffffffffffffffffffffffffffffffffffffffff1602179055505050506108e3806102966000396000f30060806040526004361061006d576000357c0100000000000000000000000000000000000000000000000000000000900463ffffffff16806341c0e1b514610072578063619d5194146100895780637e5852d9146100b8578063893d20e8146100e75780639daf87291461013e575b600080fd5b34801561007e57600080fd5b5061008761023e565b005b34801561009557600080fd5b506100b6600480360381019080803515159060200190929190505050610372565b005b3480156100c457600080fd5b506100cd61048e565b604051808215151515815260200191505060405180910390f35b3480156100f357600080fd5b506100fc6104a5565b604051808273ffffffffffffffffffffffffffffffffffffffff1673ffffffffffffffffffffffffffffffffffffffff16815260200191505060405180910390f35b610224600480360381019080803590602001908201803590602001908080601f0160208091040260200160405190810160405280939291908181526020018383808284378201915050505050509192919290803590602001908201803590602001908080601f0160208091040260200160405190810160405280939291908181526020018383808284378201915050505050509192919290803590602001908201803590602001908080601f01602080910402602001604051908101604052809392919081815260200183838082843782019150505050505091929192905050506104cf565b604051808215151515815260200191505060405180910390f35b600260009054906101000a900473ffffffffffffffffffffffffffffffffffffffff1673ffffffffffffffffffffffffffffffffffffffff163373ffffffffffffffffffffffffffffffffffffffff1614151561029a57600080fd5b6000809054906101000a900473ffffffffffffffffffffffffffffffffffffffff1673ffffffffffffffffffffffffffffffffffffffff16636c4f8bd56040518163ffffffff167c0100000000000000000000000000000000000000000000000000000000028152600401600060405180830381600087803b15801561031f57600080fd5b505af1158015610333573d6000803e3d6000fd5b50505050600260009054906101000a900473ffffffffffffffffffffffffffffffffffffffff1673ffffffffffffffffffffffffffffffffffffffff16ff5b60008060009054906101000a900473ffffffffffffffffffffffffffffffffffffffff1673ffffffffffffffffffffffffffffffffffffffff166386cc31ac6040518163ffffffff167c0100000000000000000000000000000000000000000000000000000000028152600401602060405180830381600087803b1580156103f957600080fd5b505af115801561040d573d6000803e3d6000fd5b505050506040513d602081101561042357600080fd5b810190808051906020019092919050505090508073ffffffffffffffffffffffffffffffffffffffff163373ffffffffffffffffffffffffffffffffffffffff1614151561047057600080fd5b81600460146101000a81548160ff0219169083151502179055505050565b6000600460149054906101000a900460ff16905090565b6000600260009054906101000a900473ffffffffffffffffffffffffffffffffffffffff16905090565b600080600160009054906101000a900473ffffffffffffffffffffffffffffffffffffffff1673ffffffffffffffffffffffffffffffffffffffff16637e5852d96040518163ffffffff167c0100000000000000000000000000000000000000000000000000000000028152600401602060405180830381600087803b15801561055857600080fd5b505af115801561056c573d6000803e3d6000fd5b505050506040513d602081101561058257600080fd5b810190808051906020019092919050505015151561059f57600080fd5b600460149054906101000a900460ff161515156105bb57600080fd5b6000809054906101000a900473ffffffffffffffffffffffffffffffffffffffff1673ffffffffffffffffffffffffffffffffffffffff1663f36675176040518163ffffffff167c0100000000000000000000000000000000000000000000000000000000028152600401602060405180830381600087803b15801561064057600080fd5b505af1158015610654573d6000803e3d6000fd5b505050506040513d602081101561066a57600080fd5b810190808051906020019092919050505090508073ffffffffffffffffffffffffffffffffffffffff166108fc349081150290604051600060405180830381858888f193505050501580156106c3573d6000803e3d6000fd5b508073ffffffffffffffffffffffffffffffffffffffff1663fe8ef25e8686866040518463ffffffff167c010000000000000000000000000000000000000000000000000000000002815260040180806020018060200180602001848103845287818151815260200191508051906020019080838360005b8381101561075657808201518184015260208101905061073b565b50505050905090810190601f1680156107835780820380516001836020036101000a031916815260200191505b50848103835286818151815260200191508051906020019080838360005b838110156107bc5780820151818401526020810190506107a1565b50505050905090810190601f1680156107e95780820380516001836020036101000a031916815260200191505b50848103825285818151815260200191508051906020019080838360005b83811015610822578082015181840152602081019050610807565b50505050905090810190601f16801561084f5780820380516001836020036101000a031916815260200191505b509650505050505050602060405180830381600087803b15801561087257600080fd5b505af1158015610886573d6000803e3d6000fd5b505050506040513d602081101561089c57600080fd5b810190808051906020019092919050505091505093925050505600a165627a7a72305820a28ac1cc20950e6cd7cf245ff4d466301ece310356b8370736e3ed7d3847708a0029",
  "source": "pragma solidity 0.4.24;\r\n\r\nimport \"./User.sol\";\r\nimport \"./3ContentCreatorFactory.sol\";\r\nimport \"./LoveMachine.sol\";\r\n\r\ncontract ContentCreator {\r\n    ContentCreatorFactory ccFactory;\r\n    User user;\r\n    address owner;\r\n    address userContract;\r\n    address ccFactoryAddress;\r\n    \r\n    bool ccLock;\r\n   \r\n   //Ensures the caller of the function is the userContract\r\n   //that created it. \r\n    modifier isUser { \r\n        require(msg.sender == owner);\r\n        _;\r\n    }\r\n\r\n    //Ensures the caller of the function is the \r\n    //ConetentCreatorFactory that spawner it. \r\n    modifier onlyCCFactory {\r\n        require(msg.sender == ccFactoryAddress);\r\n        _;\r\n    }\r\n\r\n    //Ensures the address is a user contract address.\r\n    modifier onlyAUser(address _user){\r\n        require(ccFactory.onlyAUser(_user));\r\n        _;\r\n    }\r\n    \r\n    //Ensures the lock is false.\r\n    modifier checkLock {\r\n        require(!user.getLock());\r\n        require(!ccLock);\r\n        _;\r\n    }\r\n    \r\n    //Ensures the caller of the function is the minter. \r\n    modifier onlyMinter {\r\n        address minter = ccFactory.getMinter();\r\n        require(msg.sender == minter);\r\n        _;\r\n    }\r\n    \r\n    //Ensures only the dataStorage can call this function\r\n    modifier onlyDataStorage {\r\n        address dataStorage = ccFactory.getDataStorage();\r\n        require(msg.sender == dataStorage);\r\n        _;\r\n    }\r\n    \r\n    /**\r\n      * @dev Creates a new Conent creator. \r\n      * @notice This is called by the Content Creator Facotry, which \r\n      *     in turn is called by a user account. \r\n      * @param _userAccount : The user contract that called the \r\n      *         Content Creator Factory to become a content creator. \r\n      *     _contentCreatorFactory : The address of the content \r\n      *         creator factory. \r\n      */\r\n    constructor(address _userAccount, address _contentCreatorFactory) \r\n        public \r\n        onlyAUser(_userAccount)\r\n    {\r\n        owner = _userAccount;\r\n        userContract = _userAccount;\r\n        ccFactoryAddress = _contentCreatorFactory;\r\n        user = User(_userAccount);\r\n        ccFactory = ContentCreatorFactory(_contentCreatorFactory);\r\n    }\r\n    \r\n    /**\r\n      * @dev This allows the content creator to create content. \r\n      * @param _addressIPFS : The address of the content in IPFS. \r\n      *     _title : The title of the content.\r\n      *     _description : The description or the 'About' for the content.\r\n      * @return bool : If the minter created the content. \r\n      */\r\n    function creatConent( \r\n        string _addressIPFS, \r\n        string _title, \r\n        string _description\r\n        )\r\n        public\r\n        payable\r\n        checkLock\r\n        returns(bool)\r\n    {\r\n        LoveMachine minter = LoveMachine(ccFactory.getMinter());\r\n        address(minter).transfer(msg.value);\r\n        return minter.createContentMinter(_addressIPFS, _title, _description);\r\n    }\r\n    \r\n    /**\r\n      * @dev To ensure that the creator is not making any other state changes.  \r\n      * @return bool : If the creator is locked. \r\n      */\r\n    function getLock()\r\n        public\r\n        view\r\n        returns(bool)\r\n    {\r\n        return(ccLock);\r\n    }\r\n    \r\n    /**\r\n      * @dev Sets the lock to the value given. \r\n      * @notice This is only changable by the dataStorage as \r\n      *     the dataStorage is the only thing able to do state \r\n      *     changes, it is the only thing able to lock users and \r\n      *     creators. \r\n      * @param _lock : The new vaule for lock. \r\n      */\r\n    function setLock(bool _lock)\r\n        public\r\n        onlyDataStorage\r\n    {\r\n        ccLock = _lock;\r\n    }\r\n    \r\n    /**\r\n      * @return address : The address of the user contract that \r\n      *     created this creator account. \r\n      */\r\n    function getOwner()\r\n        public\r\n        view\r\n        returns(address)\r\n    {\r\n        return owner;\r\n    }\r\n    \r\n    /**\r\n      * @dev Allows the creator to destroy their account. \r\n      * @notice the killingContract() function transefers all  \r\n      *     views to the user contract that created it, and \r\n      *     also sends any value in the contract to the user \r\n      *     contract as well. \r\n      */\r\n    function kill() \r\n        public\r\n        isUser\r\n    {\r\n        ccFactory.killingCreator();\r\n        selfdestruct(owner);\r\n    }\r\n}",
  "sourcePath": "C:\\Users\\Veronica Coutts\\Desktop\\Desktop\\Work\\Web3 Projects\\MVP\\mvp\\contracts\\ContentCreator.sol",
  "compiler": {
    "name": "solc",
    "version": "0.4.24+commit.e67f0147.Emscripten.clang"
  },
  "schemaVersion": "2.0.1",
  "updatedAt": "2018-08-25T14:16:26.708Z"
}