{
  "contractName": "ContentCreatorFactory",
  "abi": [
    {
      "constant": true,
      "inputs": [],
      "name": "emergencyStop",
      "outputs": [
        {
          "name": "",
          "type": "bool"
        }
      ],
      "payable": false,
      "stateMutability": "view",
      "type": "function"
    },
    {
      "constant": true,
      "inputs": [],
      "name": "pause",
      "outputs": [
        {
          "name": "",
          "type": "bool"
        }
      ],
      "payable": false,
      "stateMutability": "view",
      "type": "function"
    },
    {
      "inputs": [],
      "payable": false,
      "stateMutability": "nonpayable",
      "type": "constructor"
    },
    {
      "constant": false,
      "inputs": [
        {
          "name": "_dataStorage",
          "type": "address"
        },
        {
          "name": "_owner",
          "type": "address"
        }
      ],
      "name": "constructorFunction",
      "outputs": [],
      "payable": false,
      "stateMutability": "nonpayable",
      "type": "function"
    },
    {
      "constant": true,
      "inputs": [
        {
          "name": "_user",
          "type": "address"
        }
      ],
      "name": "onlyAUser",
      "outputs": [
        {
          "name": "",
          "type": "bool"
        }
      ],
      "payable": false,
      "stateMutability": "view",
      "type": "function"
    },
    {
      "constant": false,
      "inputs": [],
      "name": "createContentCreator",
      "outputs": [
        {
          "name": "",
          "type": "bool"
        }
      ],
      "payable": true,
      "stateMutability": "payable",
      "type": "function"
    },
    {
      "constant": true,
      "inputs": [],
      "name": "getMinter",
      "outputs": [
        {
          "name": "",
          "type": "address"
        }
      ],
      "payable": false,
      "stateMutability": "view",
      "type": "function"
    },
    {
      "constant": false,
      "inputs": [
        {
          "name": "_minter",
          "type": "address"
        }
      ],
      "name": "kill",
      "outputs": [],
      "payable": false,
      "stateMutability": "nonpayable",
      "type": "function"
    }
  ],
  "bytecode": "0x60806040526000600460146101000a81548160ff0219169083151502179055506000600460156101000a81548160ff0219169083151502179055506000600460166101000a81548160ff02191690831515021790555034801561006157600080fd5b50610c49806100716000396000f300608060405260043610610083576000357c0100000000000000000000000000000000000000000000000000000000900463ffffffff16806363a599a4146100885780638456cb59146100b7578063a404d3c1146100e6578063cbf0b0c014610141578063d0b0731c14610184578063e3181796146101a6578063f366751714610209575b600080fd5b34801561009457600080fd5b5061009d610260565b604051808215151515815260200191505060405180910390f35b3480156100c357600080fd5b506100cc610273565b604051808215151515815260200191505060405180910390f35b3480156100f257600080fd5b50610127600480360381019080803573ffffffffffffffffffffffffffffffffffffffff169060200190929190505050610286565b604051808215151515815260200191505060405180910390f35b34801561014d57600080fd5b50610182600480360381019080803573ffffffffffffffffffffffffffffffffffffffff16906020019092919050505061041e565b005b61018c610588565b604051808215151515815260200191505060405180910390f35b3480156101b257600080fd5b50610207600480360381019080803573ffffffffffffffffffffffffffffffffffffffff169060200190929190803573ffffffffffffffffffffffffffffffffffffffff1690602001909291905050506109ca565b005b34801561021557600080fd5b5061021e610b56565b604051808273ffffffffffffffffffffffffffffffffffffffff1673ffffffffffffffffffffffffffffffffffffffff16815260200191505060405180910390f35b600460149054906101000a900460ff1681565b600460159054906101000a900460ff1681565b600080606060008092506000809054906101000a900473ffffffffffffffffffffffffffffffffffffffff1673ffffffffffffffffffffffffffffffffffffffff16632f3300236040518163ffffffff167c0100000000000000000000000000000000000000000000000000000000028152600401600060405180830381600087803b15801561031557600080fd5b505af1158015610329573d6000803e3d6000fd5b505050506040513d6000823e3d601f19601f82011682018060405250602081101561035357600080fd5b81019080805164010000000081111561036b57600080fd5b8281019050602081018481111561038157600080fd5b815185602082028301116401000000008211171561039e57600080fd5b50509291905050509150600090505b8151811015610413578473ffffffffffffffffffffffffffffffffffffffff1682828151811015156103db57fe5b9060200190602002015173ffffffffffffffffffffffffffffffffffffffff16141561040657600192505b80806001019150506103ad565b829350505050919050565b600460009054906101000a900473ffffffffffffffffffffffffffffffffffffffff1673ffffffffffffffffffffffffffffffffffffffff163373ffffffffffffffffffffffffffffffffffffffff16148061056457506000809054906101000a900473ffffffffffffffffffffffffffffffffffffffff1673ffffffffffffffffffffffffffffffffffffffff1663ed9aab516040518163ffffffff167c0100000000000000000000000000000000000000000000000000000000028152600401602060405180830381600087803b1580156104fa57600080fd5b505af115801561050e573d6000803e3d6000fd5b505050506040513d602081101561052457600080fd5b810190808051906020019092919050505073ffffffffffffffffffffffffffffffffffffffff163373ffffffffffffffffffffffffffffffffffffffff16145b151561056f57600080fd5b8073ffffffffffffffffffffffffffffffffffffffff16ff5b600080336000606060008092506000809054906101000a900473ffffffffffffffffffffffffffffffffffffffff1673ffffffffffffffffffffffffffffffffffffffff16632f3300236040518163ffffffff167c0100000000000000000000000000000000000000000000000000000000028152600401600060405180830381600087803b15801561061a57600080fd5b505af115801561062e573d6000803e3d6000fd5b505050506040513d6000823e3d601f19601f82011682018060405250602081101561065857600080fd5b81019080805164010000000081111561067057600080fd5b8281019050602081018481111561068657600080fd5b81518560208202830111640100000000821117156106a357600080fd5b50509291905050509150600090505b8151811015610718578373ffffffffffffffffffffffffffffffffffffffff1682828151811015156106e057fe5b9060200190602002015173ffffffffffffffffffffffffffffffffffffffff16141561070b57600192505b80806001019150506106b2565b82151561072457600080fd5b600460149054906101000a900460ff1615151561074057600080fd5b600460159054906101000a900460ff1615151561075c57600080fd5b6000809054906101000a900473ffffffffffffffffffffffffffffffffffffffff1673ffffffffffffffffffffffffffffffffffffffff16638456cb596040518163ffffffff167c0100000000000000000000000000000000000000000000000000000000028152600401602060405180830381600087803b1580156107e157600080fd5b505af11580156107f5573d6000803e3d6000fd5b505050506040513d602081101561080b57600080fd5b810190808051906020019092919050505015151561082857600080fd5b6000809054906101000a900473ffffffffffffffffffffffffffffffffffffffff1673ffffffffffffffffffffffffffffffffffffffff166334d722c96040518163ffffffff167c0100000000000000000000000000000000000000000000000000000000028152600401602060405180830381600087803b1580156108ad57600080fd5b505af11580156108c1573d6000803e3d6000fd5b505050506040513d60208110156108d757600080fd5b810190808051906020019092919050505094508473ffffffffffffffffffffffffffffffffffffffff1663dea2801a336040518263ffffffff167c0100000000000000000000000000000000000000000000000000000000028152600401808273ffffffffffffffffffffffffffffffffffffffff1673ffffffffffffffffffffffffffffffffffffffff168152602001915050602060405180830381600087803b15801561098557600080fd5b505af1158015610999573d6000803e3d6000fd5b505050506040513d60208110156109af57600080fd5b81019080805190602001909291905050509550505050505090565b600460169054906101000a900460ff16151515610a75576040517f08c379a00000000000000000000000000000000000000000000000000000000081526004018080602001828103825260258152602001807f5468697320636f6e74726163742068617320616c7265616479206265656e207381526020017f657420757000000000000000000000000000000000000000000000000000000081525060400191505060405180910390fd5b80600460006101000a81548173ffffffffffffffffffffffffffffffffffffffff021916908373ffffffffffffffffffffffffffffffffffffffff16021790555081600260006101000a81548173ffffffffffffffffffffffffffffffffffffffff021916908373ffffffffffffffffffffffffffffffffffffffff160217905550816000806101000a81548173ffffffffffffffffffffffffffffffffffffffff021916908373ffffffffffffffffffffffffffffffffffffffff1602179055506001600460166101000a81548160ff0219169083151502179055505050565b60008060009054906101000a900473ffffffffffffffffffffffffffffffffffffffff1673ffffffffffffffffffffffffffffffffffffffff166334d722c96040518163ffffffff167c0100000000000000000000000000000000000000000000000000000000028152600401602060405180830381600087803b158015610bdd57600080fd5b505af1158015610bf1573d6000803e3d6000fd5b505050506040513d6020811015610c0757600080fd5b81019080805190602001909291905050509050905600a165627a7a72305820661f6069c68b7f43cd9efc161d6147cfb7981dfcb8e881c7e5c9f529c04dd62d0029",
  "source": "pragma solidity 0.4.24;\r\n\r\nimport \"./1DataStorage.sol\";\r\nimport \"./2Register.sol\";\r\nimport \"./LoveMachine.sol\";\r\nimport \"./ContentCreator.sol\";\r\n\r\ncontract ContentCreatorFactory {\r\n    DataStorage dataStorage;\r\n    Register register;\r\n    address dataStorageAddress;\r\n    address registerAddress;\r\n    address owner;\r\n\r\n    bool public emergencyStop = false;\r\n    bool public pause = false;\r\n    bool callOnce = false;\r\n\r\n    modifier onlyUsers(address _user) {\r\n        bool pass = false;\r\n        address[] memory allUsers = dataStorage.getAllUserAddresses();\r\n        for(uint i = 0; i < allUsers.length; i++) {\r\n            if(allUsers[i] == _user) {\r\n                pass = true;\r\n            }\r\n        }\r\n        require(pass);\r\n        _;\r\n    }\r\n    \r\n    modifier onlyInEmergency {\r\n        require(emergencyStop);\r\n        _;\r\n    }\r\n    \r\n    modifier stopInEmergency {\r\n        require(!emergencyStop);\r\n        _;\r\n    }\r\n    \r\n    modifier pauseFunction {\r\n        require(!pause);\r\n        require(!dataStorage.pause());\r\n        _;\r\n    }\r\n    \r\n    modifier onlyCallOnce {\r\n        require(!callOnce, \"This contract has already been set up\");\r\n        _;\r\n    }\r\n\r\n    modifier ownerOrRegister {\r\n        require(msg.sender == owner || msg.sender == dataStorage.registryAddress());\r\n        _;\r\n    }\r\n\r\n    constructor() \r\n        public \r\n    {\r\n    \r\n    }\r\n    \r\n    function constructorFunction(address _dataStorage, address _owner)\r\n        public\r\n        onlyCallOnce\r\n    {\r\n        owner = _owner;\r\n        dataStorageAddress = _dataStorage;\r\n        dataStorage = DataStorage(_dataStorage);\r\n        callOnce = true;\r\n    }\r\n\r\n    function onlyAUser(address _user)\r\n        public\r\n        view\r\n        returns(bool)    \r\n    {\r\n        bool pass = false;\r\n        address[] memory allUsers = dataStorage.getAllUserAddresses();\r\n        for(uint i = 0; i < allUsers.length; i++) {\r\n            if(allUsers[i] == _user) {\r\n                pass = true;\r\n            }\r\n        }\r\n        return(pass);\r\n    } \r\n     \r\n    function createContentCreator()\r\n        public \r\n        payable\r\n        onlyUsers(msg.sender)\r\n        stopInEmergency\r\n        pauseFunction\r\n        returns(bool) \r\n    { \r\n        LoveMachine minter = LoveMachine(dataStorage.minterAddress());\r\n        return minter.createContentCreatorMinter(msg.sender); \r\n    }\r\n    \r\n    function getMinter() \r\n        public\r\n        view\r\n        returns(address)\r\n    {\r\n        return dataStorage.minterAddress();\r\n    }\r\n\r\n    function kill(address _minter) \r\n        public \r\n        ownerOrRegister \r\n    {\r\n        selfdestruct(_minter);\r\n    }\r\n}",
  "sourcePath": "C:\\Users\\Veronica Coutts\\Desktop\\Desktop\\Work\\Web3 Projects\\MVP\\mvp\\contracts\\3ContentCreatorFactory.sol",
  "compiler": {
    "name": "solc",
    "version": "0.4.24+commit.e67f0147.Emscripten.clang"
  },
  "schemaVersion": "2.0.1",
  "updatedAt": "2018-08-23T20:18:44.262Z"
}