{
  "contractName": "DataStorage",
  "abi": [
    {
      "constant": true,
      "inputs": [
        {
          "name": "",
          "type": "uint256"
        }
      ],
      "name": "creatorsAddresses",
      "outputs": [
        {
          "name": "",
          "type": "address"
        }
      ],
      "payable": false,
      "stateMutability": "view",
      "type": "function"
    },
    {
      "constant": true,
      "inputs": [
        {
          "name": "",
          "type": "uint256"
        }
      ],
      "name": "allContent",
      "outputs": [
        {
          "name": "creator",
          "type": "address"
        },
        {
          "name": "contentLocationIPFS",
          "type": "string"
        },
        {
          "name": "title",
          "type": "string"
        },
        {
          "name": "description",
          "type": "string"
        },
        {
          "name": "views",
          "type": "uint256"
        }
      ],
      "payable": false,
      "stateMutability": "view",
      "type": "function"
    },
    {
      "constant": true,
      "inputs": [],
      "name": "moderatorViews",
      "outputs": [
        {
          "name": "",
          "type": "uint256"
        }
      ],
      "payable": false,
      "stateMutability": "view",
      "type": "function"
    },
    {
      "constant": true,
      "inputs": [
        {
          "name": "",
          "type": "address"
        }
      ],
      "name": "creatorsContractOwners",
      "outputs": [
        {
          "name": "",
          "type": "address"
        }
      ],
      "payable": false,
      "stateMutability": "view",
      "type": "function"
    },
    {
      "constant": true,
      "inputs": [],
      "name": "minterAddress",
      "outputs": [
        {
          "name": "",
          "type": "address"
        }
      ],
      "payable": false,
      "stateMutability": "view",
      "type": "function"
    },
    {
      "constant": true,
      "inputs": [],
      "name": "userFactoryAddress",
      "outputs": [
        {
          "name": "",
          "type": "address"
        }
      ],
      "payable": false,
      "stateMutability": "view",
      "type": "function"
    },
    {
      "constant": true,
      "inputs": [
        {
          "name": "",
          "type": "uint256"
        }
      ],
      "name": "usersNames",
      "outputs": [
        {
          "name": "",
          "type": "string"
        }
      ],
      "payable": false,
      "stateMutability": "view",
      "type": "function"
    },
    {
      "constant": true,
      "inputs": [],
      "name": "emergencyStop",
      "outputs": [
        {
          "name": "",
          "type": "bool"
        }
      ],
      "payable": false,
      "stateMutability": "view",
      "type": "function"
    },
    {
      "constant": true,
      "inputs": [
        {
          "name": "",
          "type": "address"
        },
        {
          "name": "",
          "type": "uint256"
        }
      ],
      "name": "creatorContent",
      "outputs": [
        {
          "name": "creator",
          "type": "address"
        },
        {
          "name": "contentLocationIPFS",
          "type": "string"
        },
        {
          "name": "title",
          "type": "string"
        },
        {
          "name": "description",
          "type": "string"
        },
        {
          "name": "views",
          "type": "uint256"
        }
      ],
      "payable": false,
      "stateMutability": "view",
      "type": "function"
    },
    {
      "constant": true,
      "inputs": [
        {
          "name": "",
          "type": "address"
        }
      ],
      "name": "allCreators",
      "outputs": [
        {
          "name": "",
          "type": "uint256"
        }
      ],
      "payable": false,
      "stateMutability": "view",
      "type": "function"
    },
    {
      "constant": true,
      "inputs": [
        {
          "name": "",
          "type": "uint256"
        }
      ],
      "name": "usersAddresses",
      "outputs": [
        {
          "name": "",
          "type": "address"
        }
      ],
      "payable": false,
      "stateMutability": "view",
      "type": "function"
    },
    {
      "constant": true,
      "inputs": [],
      "name": "pause",
      "outputs": [
        {
          "name": "",
          "type": "bool"
        }
      ],
      "payable": false,
      "stateMutability": "view",
      "type": "function"
    },
    {
      "constant": true,
      "inputs": [],
      "name": "owner",
      "outputs": [
        {
          "name": "",
          "type": "address"
        }
      ],
      "payable": false,
      "stateMutability": "view",
      "type": "function"
    },
    {
      "constant": true,
      "inputs": [
        {
          "name": "",
          "type": "address"
        }
      ],
      "name": "userContractOwners",
      "outputs": [
        {
          "name": "",
          "type": "address"
        }
      ],
      "payable": false,
      "stateMutability": "view",
      "type": "function"
    },
    {
      "constant": true,
      "inputs": [
        {
          "name": "",
          "type": "address"
        }
      ],
      "name": "UsersTotalViewPurchases",
      "outputs": [
        {
          "name": "",
          "type": "uint256"
        }
      ],
      "payable": false,
      "stateMutability": "view",
      "type": "function"
    },
    {
      "constant": true,
      "inputs": [
        {
          "name": "",
          "type": "address"
        }
      ],
      "name": "allUserNames",
      "outputs": [
        {
          "name": "",
          "type": "string"
        }
      ],
      "payable": false,
      "stateMutability": "view",
      "type": "function"
    },
    {
      "constant": true,
      "inputs": [],
      "name": "ccFactoryAddress",
      "outputs": [
        {
          "name": "",
          "type": "address"
        }
      ],
      "payable": false,
      "stateMutability": "view",
      "type": "function"
    },
    {
      "constant": true,
      "inputs": [],
      "name": "registryAddress",
      "outputs": [
        {
          "name": "",
          "type": "address"
        }
      ],
      "payable": false,
      "stateMutability": "view",
      "type": "function"
    },
    {
      "constant": true,
      "inputs": [
        {
          "name": "",
          "type": "address"
        }
      ],
      "name": "allUsers",
      "outputs": [
        {
          "name": "",
          "type": "uint256"
        }
      ],
      "payable": false,
      "stateMutability": "view",
      "type": "function"
    },
    {
      "inputs": [],
      "payable": false,
      "stateMutability": "nonpayable",
      "type": "constructor"
    },
    {
      "anonymous": false,
      "inputs": [
        {
          "indexed": false,
          "name": "_emergency",
          "type": "bool"
        }
      ],
      "name": "LogEmergency",
      "type": "event"
    },
    {
      "anonymous": false,
      "inputs": [
        {
          "indexed": false,
          "name": "_pause",
          "type": "bool"
        }
      ],
      "name": "LogPause",
      "type": "event"
    },
    {
      "anonymous": false,
      "inputs": [
        {
          "indexed": false,
          "name": "_userFactoryAddress",
          "type": "address"
        },
        {
          "indexed": false,
          "name": "_creatorFactoryAddress",
          "type": "address"
        },
        {
          "indexed": false,
          "name": "_minterAddress",
          "type": "address"
        }
      ],
      "name": "LogSetUp",
      "type": "event"
    },
    {
      "anonymous": false,
      "inputs": [
        {
          "indexed": false,
          "name": "_account",
          "type": "address"
        },
        {
          "indexed": false,
          "name": "_amount",
          "type": "uint256"
        }
      ],
      "name": "LogBoughtViewsUser",
      "type": "event"
    },
    {
      "anonymous": false,
      "inputs": [
        {
          "indexed": false,
          "name": "_account",
          "type": "address"
        },
        {
          "indexed": false,
          "name": "_amount",
          "type": "uint256"
        }
      ],
      "name": "LogModeriatorFund",
      "type": "event"
    },
    {
      "anonymous": false,
      "inputs": [
        {
          "indexed": false,
          "name": "_owner",
          "type": "address"
        },
        {
          "indexed": false,
          "name": "_userContract",
          "type": "address"
        },
        {
          "indexed": false,
          "name": "_userName",
          "type": "string"
        }
      ],
      "name": "LogUserCreated",
      "type": "event"
    },
    {
      "anonymous": false,
      "inputs": [
        {
          "indexed": false,
          "name": "_owner",
          "type": "address"
        },
        {
          "indexed": false,
          "name": "_userContract",
          "type": "address"
        },
        {
          "indexed": false,
          "name": "_userName",
          "type": "string"
        }
      ],
      "name": "LogUserDeleted",
      "type": "event"
    },
    {
      "anonymous": false,
      "inputs": [
        {
          "indexed": false,
          "name": "_userCOwner",
          "type": "address"
        },
        {
          "indexed": false,
          "name": "_creatorContract",
          "type": "address"
        }
      ],
      "name": "LogCreatorCreated",
      "type": "event"
    },
    {
      "anonymous": false,
      "inputs": [
        {
          "indexed": false,
          "name": "_userContract",
          "type": "address"
        },
        {
          "indexed": false,
          "name": "_creatorContract",
          "type": "address"
        }
      ],
      "name": "LogCreatorDeleted",
      "type": "event"
    },
    {
      "anonymous": false,
      "inputs": [
        {
          "indexed": true,
          "name": "_position",
          "type": "uint256"
        },
        {
          "indexed": true,
          "name": "_title",
          "type": "string"
        },
        {
          "indexed": true,
          "name": "_creator",
          "type": "address"
        }
      ],
      "name": "LogContentCreated",
      "type": "event"
    },
    {
      "constant": false,
      "inputs": [
        {
          "name": "_userFactoryAddress",
          "type": "address"
        },
        {
          "name": "_ccFactoryAddress",
          "type": "address"
        },
        {
          "name": "_minterAddress",
          "type": "address"
        }
      ],
      "name": "setUpDataContracts",
      "outputs": [
        {
          "name": "",
          "type": "bool"
        }
      ],
      "payable": false,
      "stateMutability": "nonpayable",
      "type": "function"
    },
    {
      "constant": true,
      "inputs": [],
      "name": "getMinter",
      "outputs": [
        {
          "name": "",
          "type": "address"
        }
      ],
      "payable": false,
      "stateMutability": "view",
      "type": "function"
    },
    {
      "constant": true,
      "inputs": [],
      "name": "getAllUserAddresses",
      "outputs": [
        {
          "name": "",
          "type": "address[]"
        }
      ],
      "payable": false,
      "stateMutability": "view",
      "type": "function"
    },
    {
      "constant": true,
      "inputs": [],
      "name": "getAllCreatorsAddresses",
      "outputs": [
        {
          "name": "",
          "type": "address[]"
        }
      ],
      "payable": false,
      "stateMutability": "view",
      "type": "function"
    },
    {
      "constant": true,
      "inputs": [],
      "name": "getAllUsersNames",
      "outputs": [
        {
          "name": "",
          "type": "string[]"
        }
      ],
      "payable": false,
      "stateMutability": "view",
      "type": "function"
    },
    {
      "constant": true,
      "inputs": [
        {
          "name": "_user",
          "type": "address"
        }
      ],
      "name": "getAUsersName",
      "outputs": [
        {
          "name": "",
          "type": "string"
        }
      ],
      "payable": false,
      "stateMutability": "view",
      "type": "function"
    },
    {
      "constant": true,
      "inputs": [
        {
          "name": "_userAddress",
          "type": "address"
        }
      ],
      "name": "isCreator",
      "outputs": [
        {
          "name": "",
          "type": "bool"
        }
      ],
      "payable": false,
      "stateMutability": "view",
      "type": "function"
    },
    {
      "constant": true,
      "inputs": [
        {
          "name": "_addressToCheck",
          "type": "address"
        }
      ],
      "name": "isUser",
      "outputs": [
        {
          "name": "",
          "type": "bool"
        }
      ],
      "payable": false,
      "stateMutability": "view",
      "type": "function"
    },
    {
      "constant": true,
      "inputs": [
        {
          "name": "_userAddress",
          "type": "address"
        }
      ],
      "name": "getCreatorAddressFromUser",
      "outputs": [
        {
          "name": "",
          "type": "address"
        }
      ],
      "payable": false,
      "stateMutability": "view",
      "type": "function"
    },
    {
      "constant": true,
      "inputs": [
        {
          "name": "_contractAddress",
          "type": "address"
        }
      ],
      "name": "getAUsersOwnerData",
      "outputs": [
        {
          "name": "",
          "type": "address"
        }
      ],
      "payable": false,
      "stateMutability": "view",
      "type": "function"
    },
    {
      "constant": true,
      "inputs": [
        {
          "name": "_contractAddress",
          "type": "address"
        }
      ],
      "name": "getAUsersNameData",
      "outputs": [
        {
          "name": "",
          "type": "string"
        }
      ],
      "payable": false,
      "stateMutability": "view",
      "type": "function"
    },
    {
      "constant": false,
      "inputs": [
        {
          "name": "_user",
          "type": "address"
        },
        {
          "name": "_amount",
          "type": "uint256"
        }
      ],
      "name": "setTotalViewsDispenced",
      "outputs": [],
      "payable": false,
      "stateMutability": "nonpayable",
      "type": "function"
    },
    {
      "constant": false,
      "inputs": [
        {
          "name": "_ccc",
          "type": "address"
        },
        {
          "name": "_userContract",
          "type": "address"
        }
      ],
      "name": "moveAllFundsToUser",
      "outputs": [],
      "payable": false,
      "stateMutability": "nonpayable",
      "type": "function"
    },
    {
      "constant": false,
      "inputs": [
        {
          "name": "_emergencyState",
          "type": "bool"
        }
      ],
      "name": "setEmergency",
      "outputs": [
        {
          "name": "",
          "type": "bool"
        }
      ],
      "payable": false,
      "stateMutability": "nonpayable",
      "type": "function"
    },
    {
      "constant": false,
      "inputs": [
        {
          "name": "pauseState",
          "type": "bool"
        }
      ],
      "name": "setPause",
      "outputs": [
        {
          "name": "",
          "type": "bool"
        }
      ],
      "payable": false,
      "stateMutability": "nonpayable",
      "type": "function"
    },
    {
      "constant": false,
      "inputs": [
        {
          "name": "_user",
          "type": "address"
        },
        {
          "name": "_userContract",
          "type": "address"
        },
        {
          "name": "_userName",
          "type": "string"
        }
      ],
      "name": "setNewUserData",
      "outputs": [],
      "payable": false,
      "stateMutability": "nonpayable",
      "type": "function"
    },
    {
      "constant": false,
      "inputs": [
        {
          "name": "_newUserFactory",
          "type": "address"
        }
      ],
      "name": "registryUpdateUserFactory",
      "outputs": [],
      "payable": false,
      "stateMutability": "nonpayable",
      "type": "function"
    },
    {
      "constant": false,
      "inputs": [
        {
          "name": "_newCCFactory",
          "type": "address"
        }
      ],
      "name": "registryUpdateCCFactory",
      "outputs": [],
      "payable": false,
      "stateMutability": "nonpayable",
      "type": "function"
    },
    {
      "constant": false,
      "inputs": [
        {
          "name": "_newMinter",
          "type": "address"
        }
      ],
      "name": "registryUpdateMinter",
      "outputs": [],
      "payable": false,
      "stateMutability": "nonpayable",
      "type": "function"
    },
    {
      "constant": false,
      "inputs": [
        {
          "name": "_userContract",
          "type": "address"
        },
        {
          "name": "_amount",
          "type": "uint256"
        }
      ],
      "name": "buyViewsSave",
      "outputs": [
        {
          "name": "",
          "type": "bool"
        }
      ],
      "payable": false,
      "stateMutability": "nonpayable",
      "type": "function"
    },
    {
      "constant": false,
      "inputs": [
        {
          "name": "_userContract",
          "type": "address"
        },
        {
          "name": "_amount",
          "type": "uint256"
        }
      ],
      "name": "sellViewsSave",
      "outputs": [
        {
          "name": "",
          "type": "bool"
        }
      ],
      "payable": false,
      "stateMutability": "nonpayable",
      "type": "function"
    },
    {
      "constant": false,
      "inputs": [
        {
          "name": "_user",
          "type": "address"
        },
        {
          "name": "_amount",
          "type": "uint256"
        }
      ],
      "name": "fromUserToCreator",
      "outputs": [
        {
          "name": "",
          "type": "bool"
        }
      ],
      "payable": false,
      "stateMutability": "nonpayable",
      "type": "function"
    },
    {
      "constant": false,
      "inputs": [
        {
          "name": "_user",
          "type": "address"
        },
        {
          "name": "_amount",
          "type": "uint256"
        }
      ],
      "name": "fromCreatorToUser",
      "outputs": [
        {
          "name": "",
          "type": "bool"
        }
      ],
      "payable": false,
      "stateMutability": "nonpayable",
      "type": "function"
    },
    {
      "constant": false,
      "inputs": [
        {
          "name": "viewUsedRecived",
          "type": "uint8"
        },
        {
          "name": "_contentOwner",
          "type": "address"
        },
        {
          "name": "_user",
          "type": "address"
        }
      ],
      "name": "storingLikes",
      "outputs": [],
      "payable": false,
      "stateMutability": "nonpayable",
      "type": "function"
    },
    {
      "constant": false,
      "inputs": [
        {
          "name": "_user",
          "type": "address"
        },
        {
          "name": "_userContract",
          "type": "address"
        },
        {
          "name": "_userName",
          "type": "string"
        }
      ],
      "name": "removeUserData",
      "outputs": [
        {
          "name": "",
          "type": "bool"
        }
      ],
      "payable": false,
      "stateMutability": "nonpayable",
      "type": "function"
    },
    {
      "constant": false,
      "inputs": [
        {
          "name": "_userContract",
          "type": "address"
        },
        {
          "name": "_creatorContract",
          "type": "address"
        }
      ],
      "name": "setNewCreatorData",
      "outputs": [
        {
          "name": "",
          "type": "bool"
        }
      ],
      "payable": false,
      "stateMutability": "nonpayable",
      "type": "function"
    },
    {
      "constant": false,
      "inputs": [
        {
          "name": "_contentCreatorContract",
          "type": "address"
        },
        {
          "name": "_addressIPFS",
          "type": "string"
        },
        {
          "name": "_title",
          "type": "string"
        },
        {
          "name": "_description",
          "type": "string"
        }
      ],
      "name": "createContent",
      "outputs": [],
      "payable": false,
      "stateMutability": "nonpayable",
      "type": "function"
    },
    {
      "constant": false,
      "inputs": [
        {
          "name": "_userContract",
          "type": "address"
        },
        {
          "name": "_creatorContract",
          "type": "address"
        }
      ],
      "name": "removeCreatorData",
      "outputs": [
        {
          "name": "",
          "type": "bool"
        }
      ],
      "payable": false,
      "stateMutability": "nonpayable",
      "type": "function"
    },
    {
      "constant": true,
      "inputs": [
        {
          "name": "_userName",
          "type": "string"
        }
      ],
      "name": "isUnique",
      "outputs": [
        {
          "name": "",
          "type": "bool"
        }
      ],
      "payable": false,
      "stateMutability": "view",
      "type": "function"
    },
    {
      "constant": false,
      "inputs": [
        {
          "name": "_newRegister",
          "type": "address"
        }
      ],
      "name": "updateRegister",
      "outputs": [],
      "payable": false,
      "stateMutability": "nonpayable",
      "type": "function"
    }
  ],
  "bytecode": "0x60806040526016805461ffff19166101001762ff00001916620200001764ffff000000191664010000000017905534801561003957600080fd5b5060008054600160a060020a031916331790556151868061005b6000396000f3006080604052600436106102375763ffffffff60e060020a600035041663040321f6811461023c5780630501d5561461027257806307d1b2fd1461029f5780631418c311146102d05780631ddf8358146102f25780632c8694b6146103125780632f3300231461033257806334d722c91461035457806336bab95b146103695780634209fff11461037e5780634604920f1461039e578063547e7afe146103be5780635b48d7fb146103e05780635c1e153c146104025780635ebe20321461042257806363a599a41461044f57806364015cc9146104645780636a480eb8146104845780636db08bd7146104a45780636e6ac45a146104c457806371858108146104e457806372ee19a214610504578063733380811461052457806376fc2b6e14610544578063819ad027146105645780638456cb59146105845780638da5cb5b14610599578063aae87c24146105ae578063b1781da3146105ce578063b6b961e1146105ee578063b7acf7c31461060e578063b96275fb1461062e578063bba11cf71461064e578063bd76e4941461066e578063bedb86fb1461068e578063bf57df09146106ae578063bfc16c50146106ce578063c0fed46f146106ee578063c38535371461070e578063ccaf95531461072e578063cd8c43b61461074e578063e0b969bd14610763578063e2bf75d114610778578063e393c5aa14610798578063ed9aab51146107b8578063edbece37146107cd578063ee38ae56146107ed578063efd460651461080d578063f36675171461082d575b600080fd5b34801561024857600080fd5b5061025c6102573660046149e0565b610842565b6040516102699190614e23565b60405180910390f35b34801561027e57600080fd5b5061029261028d36600461494e565b61086a565b6040516102699190614f69565b3480156102ab57600080fd5b506102bf6102ba3660046149e0565b610926565b604051610269959493929190614ecb565b3480156102dc57600080fd5b506102e5610b13565b6040516102699190615058565b3480156102fe57600080fd5b5061029261030d36600461491e565b610b19565b34801561031e57600080fd5b5061025c61032d36600461474f565b610f0d565b34801561033e57600080fd5b50610347610f28565b6040516102699190614f47565b34801561036057600080fd5b5061025c610f8b565b34801561037557600080fd5b5061025c610f9a565b34801561038a57600080fd5b5061029261039936600461474f565b610fa9565b3480156103aa57600080fd5b506102926103b936600461491e565b610fdb565b3480156103ca57600080fd5b506103d3611397565b6040516102699190614f58565b3480156103ec57600080fd5b506104006103fb36600461498a565b61146f565b005b34801561040e57600080fd5b5061040061041d366004614793565b6119c4565b34801561042e57600080fd5b5061044261043d3660046149e0565b611d00565b6040516102699190614f77565b34801561045b57600080fd5b50610292611da7565b34801561047057600080fd5b5061044261047f36600461474f565b611db7565b34801561049057600080fd5b506102bf61049f36600461491e565b611e62565b3480156104b057600080fd5b506102926104bf36600461491e565b611efd565b3480156104d057600080fd5b506104006104df366004614875565b6122d9565b3480156104f057600080fd5b506102e56104ff36600461474f565b612702565b34801561051057600080fd5b5061029261051f3660046149ab565b612714565b34801561053057600080fd5b5061025c61053f3660046149e0565b61282b565b34801561055057600080fd5b5061040061055f36600461474f565b612839565b34801561057057600080fd5b5061029261057f36600461481a565b6128b6565b34801561059057600080fd5b50610292612c30565b3480156105a557600080fd5b5061025c612c41565b3480156105ba57600080fd5b506102926105c9366004614793565b612c50565b3480156105da57600080fd5b5061025c6105e936600461474f565b612ec3565b3480156105fa57600080fd5b506102926106093660046147cd565b612ede565b34801561061a57600080fd5b5061025c61062936600461474f565b612fe3565b34801561063a57600080fd5b5061025c61064936600461474f565b61302a565b34801561065a57600080fd5b5061040061066936600461491e565b613071565b34801561067a57600080fd5b506102e561068936600461474f565b6131ba565b34801561069a57600080fd5b506102926106a936600461494e565b6131cc565b3480156106ba57600080fd5b506102926106c936600461491e565b61324e565b3480156106da57600080fd5b506104426106e936600461474f565b6135e7565b3480156106fa57600080fd5b5061044261070936600461474f565b613680565b34801561071a57600080fd5b5061040061072936600461474f565b6136e8565b34801561073a57600080fd5b5061040061074936600461481a565b613765565b34801561075a57600080fd5b5061025c613ced565b34801561076f57600080fd5b50610347613cfc565b34801561078457600080fd5b50610292610793366004614793565b613d5c565b3480156107a457600080fd5b506104006107b336600461474f565b613f8a565b3480156107c457600080fd5b5061025c614007565b3480156107d957600080fd5b506102e56107e836600461474f565b614016565b3480156107f957600080fd5b5061040061080836600461474f565b614028565b34801561081957600080fd5b5061029261082836600461474f565b6140a5565b34801561083957600080fd5b5061025c6140cf565b601080548290811061085057fe5b600091825260209091200154600160a060020a0316905081565b60008054600160a060020a031633146108a15760405160e560020a62461bcd02815260040161089890614ff8565b60405180910390fd5b601654640100000000900460ff16156108cf5760405160e560020a62461bcd02815260040161089890614fb8565b7f413e6d22f012c3337757e66546d28828d7000e061a40d2492c34741e2c62d988826040516108fe9190614f69565b60405180910390a1506016805463ff000000191663010000008315150217905560015b919050565b601380548290811061093457fe5b600091825260209182902060059091020180546001808301805460408051601f6002600019968516156101000296909601909316949094049182018790048702840187019052808352600160a060020a0390931695509293909291908301828280156109e15780601f106109b6576101008083540402835291602001916109e1565b820191906000526020600020905b8154815290600101906020018083116109c457829003601f168201915b50505060028085018054604080516020601f6000196101006001871615020190941695909504928301859004850281018501909152818152959695945090925090830182828015610a735780601f10610a4857610100808354040283529160200191610a73565b820191906000526020600020905b815481529060010190602001808311610a5657829003601f168201915b5050505060038301805460408051602060026001851615610100026000190190941693909304601f8101849004840282018401909252818152949594935090830182828015610b035780601f10610ad857610100808354040283529160200191610b03565b820191906000526020600020905b815481529060010190602001808311610ae657829003601f168201915b5050505050908060040154905085565b60125481565b600480546040805160e060020a63f366751702815290516000938593600160a060020a03169263f3667517928183019260209282900301818887803b158015610b6157600080fd5b505af1158015610b75573d6000803e3d6000fd5b505050506040513d601f19601f82011682018060405250610b999190810190614775565b600160a060020a03163314610bc35760405160e560020a62461bcd02815260040161089890615018565b60008111610be65760405160e560020a62461bcd02815260040161089890615048565b8360008060008084935083600160a060020a0316637e5852d96040518163ffffffff1660e060020a028152600401602060405180830381600087803b158015610c2e57600080fd5b505af1158015610c42573d6000803e3d6000fd5b505050506040513d601f19601f82011682018060405250610c66919081019061496c565b92508215610c895760405160e560020a62461bcd02815260040161089890615038565b60405160e060020a63efd46065028152309063efd4606590610caf908890600401614e23565b602060405180830381600087803b158015610cc957600080fd5b505af1158015610cdd573d6000803e3d6000fd5b505050506040513d601f19601f82011682018060405250610d01919081019061496c565b15610e195760405160e060020a63b7acf7c3028152309063b7acf7c390610d2c908890600401614e23565b602060405180830381600087803b158015610d4657600080fd5b505af1158015610d5a573d6000803e3d6000fd5b505050506040513d601f19601f82011682018060405250610d7e9190810190614775565b915081600160a060020a0316637e5852d96040518163ffffffff1660e060020a028152600401602060405180830381600087803b158015610dbe57600080fd5b505af1158015610dd2573d6000803e3d6000fd5b505050506040513d601f19601f82011682018060405250610df6919081019061496c565b90508015610e195760405160e560020a62461bcd02815260040161089890615038565b6016546301000000900460ff1615610e3057600080fd5b601654640100000000900460ff1615610e5e5760405160e560020a62461bcd02815260040161089890614fb8565b610e6789614161565b610e70896140a5565b1515610e7b57600080fd5b87600b6000610e898c612fe3565b600160a060020a0316815260208101919091526040016000205411610ead57600080fd5b87600b6000610ebb8c612fe3565b600160a060020a039081168252602080830193909352604091820160009081208054959095039094558c16835260099091529020805489019055610efe8961438e565b50600198975050505050505050565b600e60205260009081526040902054600160a060020a031681565b6060600f805480602002602001604051908101604052809291908181526020018280548015610f8057602002820191906000526020600020905b8154600160a060020a03168152600190910190602001808311610f62575b505050505090505b90565b600754600160a060020a031681565b600554600160a060020a031681565b600160a060020a038082166000908152600d602052604081205490911615610fd357506001610921565b506000919050565b600480546040805160e060020a63f366751702815290516000938593600160a060020a03169263f3667517928183019260209282900301818887803b15801561102357600080fd5b505af1158015611037573d6000803e3d6000fd5b505050506040513d601f19601f8201168201806040525061105b9190810190614775565b600160a060020a031633146110855760405160e560020a62461bcd02815260040161089890615018565b600081116110a85760405160e560020a62461bcd02815260040161089890615048565b8360008060008084935083600160a060020a0316637e5852d96040518163ffffffff1660e060020a028152600401602060405180830381600087803b1580156110f057600080fd5b505af1158015611104573d6000803e3d6000fd5b505050506040513d601f19601f82011682018060405250611128919081019061496c565b9250821561114b5760405160e560020a62461bcd02815260040161089890615038565b60405160e060020a63efd46065028152309063efd4606590611171908890600401614e23565b602060405180830381600087803b15801561118b57600080fd5b505af115801561119f573d6000803e3d6000fd5b505050506040513d601f19601f820116820180604052506111c3919081019061496c565b156112db5760405160e060020a63b7acf7c3028152309063b7acf7c3906111ee908890600401614e23565b602060405180830381600087803b15801561120857600080fd5b505af115801561121c573d6000803e3d6000fd5b505050506040513d601f19601f820116820180604052506112409190810190614775565b915081600160a060020a0316637e5852d96040518163ffffffff1660e060020a028152600401602060405180830381600087803b15801561128057600080fd5b505af1158015611294573d6000803e3d6000fd5b505050506040513d601f19601f820116820180604052506112b8919081019061496c565b905080156112db5760405160e560020a62461bcd02815260040161089890615038565b6016546301000000900460ff16156112f257600080fd5b601654640100000000900460ff16156113205760405160e560020a62461bcd02815260040161089890614fb8565b61132989614161565b600160a060020a03891660009081526009602052604090208054890160041990810190915561135b908a908a01613071565b611366896005614587565b5060008051602061512d8339815191528989604051611386929190614f2c565b60405180910390a1610efe8961438e565b60606011805480602002602001604051908101604052809291908181526020016000905b828210156114665760008481526020908190208301805460408051601f60026000196101006001871615020190941693909304928301859004850281018501909152818152928301828280156114525780601f1061142757610100808354040283529160200191611452565b820191906000526020600020905b81548152906001019060200180831161143557829003601f168201915b5050505050815260200190600101906113bb565b50505050905090565b6001600460009054906101000a9004600160a060020a0316600160a060020a031663f36675176040518163ffffffff1660e060020a028152600401602060405180830381600087803b1580156114c457600080fd5b505af11580156114d8573d6000803e3d6000fd5b505050506040513d601f19601f820116820180604052506114fc9190810190614775565b600160a060020a031633146115265760405160e560020a62461bcd02815260040161089890615018565b600081116115495760405160e560020a62461bcd02815260040161089890615048565b8160008060008084935083600160a060020a0316637e5852d96040518163ffffffff1660e060020a028152600401602060405180830381600087803b15801561159157600080fd5b505af11580156115a5573d6000803e3d6000fd5b505050506040513d601f19601f820116820180604052506115c9919081019061496c565b925082156115ec5760405160e560020a62461bcd02815260040161089890615038565b60405160e060020a63efd46065028152309063efd4606590611612908890600401614e23565b602060405180830381600087803b15801561162c57600080fd5b505af1158015611640573d6000803e3d6000fd5b505050506040513d601f19601f82011682018060405250611664919081019061496c565b1561177c5760405160e060020a63b7acf7c3028152309063b7acf7c39061168f908890600401614e23565b602060405180830381600087803b1580156116a957600080fd5b505af11580156116bd573d6000803e3d6000fd5b505050506040513d601f19601f820116820180604052506116e19190810190614775565b915081600160a060020a0316637e5852d96040518163ffffffff1660e060020a028152600401602060405180830381600087803b15801561172157600080fd5b505af1158015611735573d6000803e3d6000fd5b505050506040513d601f19601f82011682018060405250611759919081019061496c565b9050801561177c5760405160e560020a62461bcd02815260040161089890615038565b6016546301000000900460ff161561179357600080fd5b601654640100000000900460ff16156117c15760405160e560020a62461bcd02815260040161089890614fb8565b6117ca87614161565b60008960028111156117d857fe5b141561186457600160a060020a03871660009081526009602052604090205460051061180357600080fd5b600160a060020a0380881660009081526009602090815260408083208054600419019055928b168252600b905281902080546005908101909155905160008051602061512d8339815191529161185b918a9190614eb0565b60405180910390a15b600189600281111561187257fe5b141561190a57600160a060020a038716600090815260096020526040902054600f1061189d57600080fd5b600160a060020a0380881660009081526009602090815260408083208054600e19019055928b168252600b9052208054600f9081019091556118e0908890614587565b5060008051602061512d83398151915287600f604051611901929190614eb0565b60405180910390a15b600289600281111561191857fe5b14156119b057600160a060020a03871660009081526009602052604090205460191061194357600080fd5b600160a060020a0380881660009081526009602090815260408083208054601819019055928b168252600b90522080546019908101909155611986908890614587565b5060008051602061512d8339815191528760196040516119a7929190614eb0565b60405180910390a15b6119b98761438e565b505050505050505050565b6000600460009054906101000a9004600160a060020a0316600160a060020a0316633c093d5a6040518163ffffffff1660e060020a028152600401602060405180830381600087803b158015611a1957600080fd5b505af1158015611a2d573d6000803e3d6000fd5b505050506040513d601f19601f82011682018060405250611a519190810190614775565b600160a060020a03163314611a7b5760405160e560020a62461bcd02815260040161089890614f88565b8160008060008084935083600160a060020a0316637e5852d96040518163ffffffff1660e060020a028152600401602060405180830381600087803b158015611ac357600080fd5b505af1158015611ad7573d6000803e3d6000fd5b505050506040513d601f19601f82011682018060405250611afb919081019061496c565b92508215611b1e5760405160e560020a62461bcd02815260040161089890615038565b60405160e060020a63efd46065028152309063efd4606590611b44908890600401614e23565b602060405180830381600087803b158015611b5e57600080fd5b505af1158015611b72573d6000803e3d6000fd5b505050506040513d601f19601f82011682018060405250611b96919081019061496c565b15611cae5760405160e060020a63b7acf7c3028152309063b7acf7c390611bc1908890600401614e23565b602060405180830381600087803b158015611bdb57600080fd5b505af1158015611bef573d6000803e3d6000fd5b505050506040513d601f19601f82011682018060405250611c139190810190614775565b915081600160a060020a0316637e5852d96040518163ffffffff1660e060020a028152600401602060405180830381600087803b158015611c5357600080fd5b505af1158015611c67573d6000803e3d6000fd5b505050506040513d601f19601f82011682018060405250611c8b919081019061496c565b90508015611cae5760405160e560020a62461bcd02815260040161089890615038565b611cb787614161565b600160a060020a038089166000908152600b60209081526040808320805490849055938b168352600990915290208054820190559550611cf68761438e565b5050505050505050565b6011805482908110611d0e57fe5b600091825260209182902001805460408051601f6002600019610100600187161502019094169390930492830185900485028101850190915281815293509091830182828015611d9f5780601f10611d7457610100808354040283529160200191611d9f565b820191906000526020600020905b815481529060010190602001808311611d8257829003601f168201915b505050505081565b6016546301000000900460ff1681565b600160a060020a0381166000908152600c602090815260409182902080548351601f6002600019610100600186161502019093169290920491820184900484028101840190945280845260609392830182828015611e565780601f10611e2b57610100808354040283529160200191611e56565b820191906000526020600020905b815481529060010190602001808311611e3957829003601f168201915b50505050509050919050565b601460205281600052604060002081815481101515611e7d57fe5b600091825260209182902060059091020180546001808301805460408051601f6002600019968516156101000296909601909316949094049182018790048702840187019052808352600160a060020a039093169650929450928301828280156109e15780601f106109b6576101008083540402835291602001916109e1565b600480546040805160e060020a63f366751702815290516000938593600160a060020a03169263f3667517928183019260209282900301818887803b158015611f4557600080fd5b505af1158015611f59573d6000803e3d6000fd5b505050506040513d601f19601f82011682018060405250611f7d9190810190614775565b600160a060020a03163314611fa75760405160e560020a62461bcd02815260040161089890615018565b60008111611fca5760405160e560020a62461bcd02815260040161089890615048565b8360008060008084935083600160a060020a0316637e5852d96040518163ffffffff1660e060020a028152600401602060405180830381600087803b15801561201257600080fd5b505af1158015612026573d6000803e3d6000fd5b505050506040513d601f19601f8201168201806040525061204a919081019061496c565b9250821561206d5760405160e560020a62461bcd02815260040161089890615038565b60405160e060020a63efd46065028152309063efd4606590612093908890600401614e23565b602060405180830381600087803b1580156120ad57600080fd5b505af11580156120c1573d6000803e3d6000fd5b505050506040513d601f19601f820116820180604052506120e5919081019061496c565b156121fd5760405160e060020a63b7acf7c3028152309063b7acf7c390612110908890600401614e23565b602060405180830381600087803b15801561212a57600080fd5b505af115801561213e573d6000803e3d6000fd5b505050506040513d601f19601f820116820180604052506121629190810190614775565b915081600160a060020a0316637e5852d96040518163ffffffff1660e060020a028152600401602060405180830381600087803b1580156121a257600080fd5b505af11580156121b6573d6000803e3d6000fd5b505050506040513d601f19601f820116820180604052506121da919081019061496c565b905080156121fd5760405160e560020a62461bcd02815260040161089890615038565b6016546301000000900460ff161561221457600080fd5b601654640100000000900460ff16156122425760405160e560020a62461bcd02815260040161089890614fb8565b61224b89614161565b612254896140a5565b151561225f57600080fd5b600160a060020a038916600090815260096020526040902054881061228357600080fd5b600160a060020a038916600090815260096020526040812080548a900390558890600b906122b08c612fe3565b600160a060020a03168152602081019190915260400160002080549091019055610efe8961438e565b6000806001600460009054906101000a9004600160a060020a0316600160a060020a031663f36675176040518163ffffffff1660e060020a028152600401602060405180830381600087803b15801561233157600080fd5b505af1158015612345573d6000803e3d6000fd5b505050506040513d601f19601f820116820180604052506123699190810190614775565b600160a060020a031633146123935760405160e560020a62461bcd02815260040161089890615018565b600081116123b65760405160e560020a62461bcd02815260040161089890615048565b6016546301000000900460ff16156123cd57600080fd5b601654640100000000900460ff16156123fb5760405160e560020a62461bcd02815260040161089890614fb8565b600160a060020a038781166000818152601460209081526040808320815160a0810183529485528483018c81529185018b9052606085018a905260808501849052805460018082018084559286529484902086516005909202018054600160a060020a031916919097161786559051805191959361247f93908501929101906145dd565b506040820151805161249b9160028401916020909101906145dd565b50606082015180516124b79160038401916020909101906145dd565b506080919091015160049091015550600160a060020a0387166000908152600b60205260409020546005106124eb57600080fd5b600160a060020a0387166000908152600b602052604090208054600419019055601280546005908101909155612522908890614587565b506040805160a081018252600160a060020a03898116825260208083018a81529383018990526060830188905260006080840181905260138054600181018083559190925284517f66de8ffda797e3de9c05e8fc57b3bf0ec28a930d40b0d285d93c06501cf6a09060059093029283018054600160a060020a03191691909516178455945180516125dc937f66de8ffda797e3de9c05e8fc57b3bf0ec28a930d40b0d285d93c06501cf6a0919093019291909101906145dd565b50604082015180516125f89160028401916020909101906145dd565b50606082015180516126149160038401916020909101906145dd565b506080820151816004015550505086600160a060020a0316856040518082805190602001908083835b6020831061265c5780518252601f19909201916020918201910161263d565b5181516020939093036101000a60001901801990911692169190911790526040519201829003822060135490945092507f1265282869251121edf11374a7f7d04b956dfd0ab45255cf5a1c08cfa527012b9160009150a4600160a060020a03871660008181526014602081815260408084208054825160a0810184528781528085018e90529283018c9052606083018b9052608083018690529590945291905291945084fe5b600b6020526000908152604090205481565b6000805b60115481101561282057601180548290811061273057fe5b9060005260206000200160405180828054600181600116156101000203166002900480156127955780601f10612773576101008083540402835291820191612795565b820191906000526020600020905b815481529060010190602001808311612781575b50506040519081900381208651909350869250819060208401908083835b602083106127d25780518252601f1990920191602091820191016127b3565b6001836020036101000a03801982511681845116808217855250505050505090500191505060405180910390206000191614151561280f57612818565b60009150612825565b600101612718565b600191505b50919050565b600f80548290811061085057fe5b600854600160a060020a031633146128665760405160e560020a62461bcd02815260040161089890614fa8565b601654640100000000900460ff16156128945760405160e560020a62461bcd02815260040161089890614fb8565b60048054600160a060020a031916600160a060020a0392909216919091179055565b6000806000600460009054906101000a9004600160a060020a0316600160a060020a031663e1d551556040518163ffffffff1660e060020a028152600401602060405180830381600087803b15801561290e57600080fd5b505af1158015612922573d6000803e3d6000fd5b505050506040513d601f19601f820116820180604052506129469190810190614775565b600160a060020a031633146129705760405160e560020a62461bcd02815260040161089890614fd8565b600160a060020a0385166000908152600960205260409020548590156129ab5760405160e560020a62461bcd02815260040161089890614fc8565b6016546301000000900460ff16156129c257600080fd5b601654640100000000900460ff16156129f05760405160e560020a62461bcd02815260040161089890614fb8565b600160a060020a0386166000908152600960209081526040808320839055600c9091528120612a1e9161465b565b600160a060020a0386166000908152600d602052604081208054600160a060020a031916905592505b600f54831015612abc5785600160a060020a0316600f84815481101515612a6a57fe5b600091825260209091200154600160a060020a03161415612ab157600f805484908110612a9357fe5b60009182526020909120018054600160a060020a0319169055612abc565b600190920191612a47565b600091505b601154821015612be857846040518082805190602001908083835b60208310612afb5780518252601f199092019160209182019101612adc565b5181516020939093036101000a600019018019909116921691909117905260405192018290039091206011805491945092508591508110612b3857fe5b906000526020600020016040518082805460018160011615610100020316600290048015612b9d5780601f10612b7b576101008083540402835291820191612b9d565b820191906000526020600020905b815481529060010190602001808311612b89575b50509150506040518091039020600019161415612bdd576011805483908110612bc257fe5b906000526020600020016000612bd8919061465b565b612be8565b600190910190612ac1565b7f534fe867fcd18d9d6f5f22aa672ea934f7f45cb109b283f70f4de5d2bbc71f07878787604051612c1b93929190614e7a565b60405180910390a15060019695505050505050565b601654640100000000900460ff1681565b600054600160a060020a031681565b60048054604080517f3c093d5a00000000000000000000000000000000000000000000000000000000815290516000938493600160a060020a031692633c093d5a928183019260209282900301818787803b158015612cae57600080fd5b505af1158015612cc2573d6000803e3d6000fd5b505050506040513d601f19601f82011682018060405250612ce69190810190614775565b600160a060020a03163314612d105760405160e560020a62461bcd02815260040161089890614f88565b600160a060020a0383166000908152600b6020526040902054839015612d4b5760405160e560020a62461bcd02815260040161089890615028565b600160a060020a038516600090815260096020526040902054859015612d865760405160e560020a62461bcd02815260040161089890614fc8565b6016546301000000900460ff1615612d9d57600080fd5b601654640100000000900460ff1615612dcb5760405160e560020a62461bcd02815260040161089890614fb8565b600160a060020a038086166000908152600b602090815260408083208390559289168252600e90529081208054600160a060020a031916905592505b601054831015612e7c5784600160a060020a0316601084815481101515612e2a57fe5b600091825260209091200154600160a060020a03161415612e71576010805484908110612e5357fe5b60009182526020909120018054600160a060020a0319169055612e7c565b600190920191612e07565b7f5979f2d5c2a55039e0944909f57404087e16171fa44b3e32147bde6f48bfe1d18686604051612ead929190614e37565b60405180910390a1600193505b50505092915050565b600d60205260009081526040902054600160a060020a031681565b60008054600160a060020a03163314612f0c5760405160e560020a62461bcd02815260040161089890614ff8565b6016546301000000900460ff1615612f2357600080fd5b60065460028054600160a060020a0319908116600160a060020a0393841617909155600554600180548316918416919091179055600754600380548316918416919091179055600854600480549092169216919091179055612f8560006131cc565b506005546006546007546040517fa128b49349428308f629b4b0629f8941c6657b08a04401df002afb3b70e27ec593612fd093600160a060020a039182169390821692911690614e52565b60405180910390a15060015b9392505050565b600160a060020a038082166000908152600e6020526040812054909116151561300b57600080fd5b50600160a060020a039081166000908152600e60205260409020541690565b600160a060020a038082166000908152600d6020526040812054909116151561305257600080fd5b50600160a060020a039081166000908152600d60205260409020541690565b80600460009054906101000a9004600160a060020a0316600160a060020a031663f36675176040518163ffffffff1660e060020a028152600401602060405180830381600087803b1580156130c557600080fd5b505af11580156130d9573d6000803e3d6000fd5b505050506040513d601f19601f820116820180604052506130fd9190810190614775565b600160a060020a031633146131275760405160e560020a62461bcd02815260040161089890615018565b6000811161314a5760405160e560020a62461bcd02815260040161089890615048565b6016546301000000900460ff161561316157600080fd5b601654640100000000900460ff161561318f5760405160e560020a62461bcd02815260040161089890614fb8565b50600160a060020a039091166000908152600a60205260409020805482019055601580549091019055565b600a6020526000908152604090205481565b60008054600160a060020a031633146131fa5760405160e560020a62461bcd02815260040161089890614ff8565b7fdd7221e8fae38eadd917726db6aa1477e63320aea2609f225f90fe8bb2ff6010826040516132299190614f69565b60405180910390a1506016805464ff0000000019166401000000008315150217905590565b600480546040805160e060020a63f366751702815290516000938593600160a060020a03169263f3667517928183019260209282900301818887803b15801561329657600080fd5b505af11580156132aa573d6000803e3d6000fd5b505050506040513d601f19601f820116820180604052506132ce9190810190614775565b600160a060020a031633146132f85760405160e560020a62461bcd02815260040161089890615018565b6000811161331b5760405160e560020a62461bcd02815260040161089890615048565b8360008060008084935083600160a060020a0316637e5852d96040518163ffffffff1660e060020a028152600401602060405180830381600087803b15801561336357600080fd5b505af1158015613377573d6000803e3d6000fd5b505050506040513d601f19601f8201168201806040525061339b919081019061496c565b925082156133be5760405160e560020a62461bcd02815260040161089890615038565b60405160e060020a63efd46065028152309063efd46065906133e4908890600401614e23565b602060405180830381600087803b1580156133fe57600080fd5b505af1158015613412573d6000803e3d6000fd5b505050506040513d601f19601f82011682018060405250613436919081019061496c565b1561354e5760405160e060020a63b7acf7c3028152309063b7acf7c390613461908890600401614e23565b602060405180830381600087803b15801561347b57600080fd5b505af115801561348f573d6000803e3d6000fd5b505050506040513d601f19601f820116820180604052506134b39190810190614775565b915081600160a060020a0316637e5852d96040518163ffffffff1660e060020a028152600401602060405180830381600087803b1580156134f357600080fd5b505af1158015613507573d6000803e3d6000fd5b505050506040513d601f19601f8201168201806040525061352b919081019061496c565b9050801561354e5760405160e560020a62461bcd02815260040161089890615038565b6016546301000000900460ff161561356557600080fd5b601654640100000000900460ff16156135935760405160e560020a62461bcd02815260040161089890614fb8565b61359c89614161565b600160a060020a038916600090815260096020526040812054899003116135bf57fe5b600160a060020a038916600090815260096020526040902080548990039055610efe8961438e565b600160a060020a038116600090815260096020526040902054606090151561360e57600080fd5b600160a060020a0382166000908152600c602090815260409182902080548351601f600260001961010060018616150201909316929092049182018490048402810184019094528084529091830182828015611e565780601f10611e2b57610100808354040283529160200191611e56565b600c6020908152600091825260409182902080548351601f600260001961010060018616150201909316929092049182018490048402810184019094528084529091830182828015611d9f5780601f10611d7457610100808354040283529160200191611d9f565b600854600160a060020a031633146137155760405160e560020a62461bcd02815260040161089890614fa8565b601654640100000000900460ff16156137435760405160e560020a62461bcd02815260040161089890614fb8565b60018054600160a060020a031916600160a060020a0392909216919091179055565b60048054604080517fe1d551550000000000000000000000000000000000000000000000000000000081529051600160a060020a039092169263e1d551559282820192602092908290030181600087803b1580156137c257600080fd5b505af11580156137d6573d6000803e3d6000fd5b505050506040513d601f19601f820116820180604052506137fa9190810190614775565b600160a060020a031633146138245760405160e560020a62461bcd02815260040161089890614fd8565b8260008060008084935083600160a060020a0316637e5852d96040518163ffffffff1660e060020a028152600401602060405180830381600087803b15801561386c57600080fd5b505af1158015613880573d6000803e3d6000fd5b505050506040513d601f19601f820116820180604052506138a4919081019061496c565b925082156138c75760405160e560020a62461bcd02815260040161089890615038565b60405160e060020a63efd46065028152309063efd46065906138ed908890600401614e23565b602060405180830381600087803b15801561390757600080fd5b505af115801561391b573d6000803e3d6000fd5b505050506040513d601f19601f8201168201806040525061393f919081019061496c565b15613a575760405160e060020a63b7acf7c3028152309063b7acf7c39061396a908890600401614e23565b602060405180830381600087803b15801561398457600080fd5b505af1158015613998573d6000803e3d6000fd5b505050506040513d601f19601f820116820180604052506139bc9190810190614775565b915081600160a060020a0316637e5852d96040518163ffffffff1660e060020a028152600401602060405180830381600087803b1580156139fc57600080fd5b505af1158015613a10573d6000803e3d6000fd5b505050506040513d601f19601f82011682018060405250613a34919081019061496c565b90508015613a575760405160e560020a62461bcd02815260040161089890615038565b8560005b601154811015613b71576011805482908110613a7357fe5b906000526020600020016040518082805460018160011615610100020316600290048015613ad85780601f10613ab6576101008083540402835291820191613ad8565b820191906000526020600020905b815481529060010190602001808311613ac4575b50506040519081900381208551909350859250819060208401908083835b60208310613b155780518252601f199092019160209182019101613af6565b6001836020036101000a03801982511681845116808217855250505050505090500191505060405180910390206000191614151515613b695760405160e560020a62461bcd02815260040161089890614f98565b600101613a5b565b6016546301000000900460ff1615613b8857600080fd5b601654640100000000900460ff1615613bb65760405160e560020a62461bcd02815260040161089890614fb8565b613bbf8a614161565b600160a060020a0389166000908152600960209081526040808320839055600c82529091208951613bf2928b01906145dd565b50600160a060020a03808a166000818152600d6020908152604082208054948f16600160a060020a0319958616179055600f805460018181019092557f8d1108e10bcb7c27dddfc02ed9d693a074039d026cf4ea4240b40f7d581ac8020180549095169093179093556011805492830180825591528a519092613c9b927f31ecc21a745e3968a04e9570e4425bc18fa8019c68028196b546d1669c200c680191908c01906145dd565b50507fce57b5f9720fa3562dd0b9eaf95894975c0b100ea8e3aa40a353228a7c1063e38a8a8a604051613cd093929190614e7a565b60405180910390a1613ce18961438e565b50505050505050505050565b600654600160a060020a031681565b60606010805480602002602001604051908101604052809291908181526020018280548015610f8057602002820191906000526020600020908154600160a060020a03168152600190910190602001808311610f62575050505050905090565b600480546040805160e060020a63f36675170281529051600093600193600160a060020a03169263f3667517928183019260209282900301818887803b158015613da557600080fd5b505af1158015613db9573d6000803e3d6000fd5b505050506040513d601f19601f82011682018060405250613ddd9190810190614775565b600160a060020a03163314613e075760405160e560020a62461bcd02815260040161089890615018565b60008111613e2a5760405160e560020a62461bcd02815260040161089890615048565b6016546301000000900460ff1615613e4157600080fd5b601654640100000000900460ff1615613e6f5760405160e560020a62461bcd02815260040161089890614fb8565b600160a060020a038416600090815260096020526040902054600510613eaa5760405160e560020a62461bcd02815260040161089890615008565b600160a060020a03841660009081526009602052604090208054600419019055601280546005908101909155613ee1908590614587565b50600160a060020a038084166000818152600b602090815260408083208390559388168252600e90528281208054600160a060020a031990811684179091556010805460018101825592527f1b6847dc741a1b0cd08d278845f9d819d87b734759afb55fe2de5cb82a9ae67290910180549091169091179055517f719114bb62dcf2ce1ce925182885f459c01951965d9a783e3de78bf19143850f90612fd09086908690614e37565b600854600160a060020a03163314613fb75760405160e560020a62461bcd02815260040161089890614fa8565b601654640100000000900460ff1615613fe55760405160e560020a62461bcd02815260040161089890614fb8565b60028054600160a060020a031916600160a060020a0392909216919091179055565b600854600160a060020a031681565b60096020526000908152604090205481565b600854600160a060020a031633146140555760405160e560020a62461bcd02815260040161089890614fa8565b601654640100000000900460ff16156140835760405160e560020a62461bcd02815260040161089890614fb8565b60038054600160a060020a031916600160a060020a0392909216919091179055565b600160a060020a038082166000908152600e602052604081205490911615610fd357506001610921565b6000600460009054906101000a9004600160a060020a0316600160a060020a031663f36675176040518163ffffffff1660e060020a028152600401602060405180830381600087803b15801561412457600080fd5b505af1158015614138573d6000803e3d6000fd5b505050506040513d601f19601f8201168201806040525061415c9190810190614775565b905090565b600160a060020a03811660009081526009602052604081205481908390151561419f5760405160e560020a62461bcd02815260040161089890614fe8565b601654640100000000900460ff16156141cd5760405160e560020a62461bcd02815260040161089890614fb8565b60405160e260020a6318675465028152849350600160a060020a0384169063619d51949061420090600190600401614f69565b600060405180830381600087803b15801561421a57600080fd5b505af115801561422e573d6000803e3d6000fd5b505060405160e060020a63efd4606502815230925063efd460659150614258908790600401614e23565b602060405180830381600087803b15801561427257600080fd5b505af1158015614286573d6000803e3d6000fd5b505050506040513d601f19601f820116820180604052506142aa919081019061496c565b156143885760405160e060020a63b7acf7c3028152309063b7acf7c3906142d5908790600401614e23565b602060405180830381600087803b1580156142ef57600080fd5b505af1158015614303573d6000803e3d6000fd5b505050506040513d601f19601f820116820180604052506143279190810190614775565b60405160e260020a6318675465028152909250600160a060020a0383169063619d51949061435a90600190600401614f69565b600060405180830381600087803b15801561437457600080fd5b505af1158015611cf6573d6000803e3d6000fd5b50505050565b600160a060020a0381166000908152600960205260408120548190839015156143cc5760405160e560020a62461bcd02815260040161089890614fe8565b601654640100000000900460ff16156143fa5760405160e560020a62461bcd02815260040161089890614fb8565b60405160e260020a6318675465028152849350600160a060020a0384169063619d51949061442d90600090600401614f69565b600060405180830381600087803b15801561444757600080fd5b505af115801561445b573d6000803e3d6000fd5b505060405160e060020a63efd4606502815230925063efd460659150614485908790600401614e23565b602060405180830381600087803b15801561449f57600080fd5b505af11580156144b3573d6000803e3d6000fd5b505050506040513d601f19601f820116820180604052506144d7919081019061496c565b156143885760405160e060020a63b7acf7c3028152309063b7acf7c390614502908790600401614e23565b602060405180830381600087803b15801561451c57600080fd5b505af1158015614530573d6000803e3d6000fd5b505050506040513d601f19601f820116820180604052506145549190810190614775565b60405160e260020a6318675465028152909250600160a060020a0383169063619d51949061435a90600090600401614f69565b600080821161459557600080fd5b60128054830190556040517f353e5eeb76213a2ec8cc1db1fa84a2782f6129abcdee0e4c2238cb99fa835889906145cf9085908590614f2c565b60405180910390a192915050565b828054600181600116156101000203166002900490600052602060002090601f016020900481019282601f1061461e57805160ff191683800117855561464b565b8280016001018555821561464b579182015b8281111561464b578251825591602001919060010190614630565b506146579291506146a2565b5090565b50805460018160011615610100020316600290046000825580601f10614681575061469f565b601f01602090049060005260206000209081019061469f91906146a2565b50565b610f8891905b8082111561465757600081556001016146a8565b6000612fdc82356150bf565b6000612fdc82516150bf565b6000612fdc82356150cb565b6000612fdc82516150cb565b6000612fdc82356150d0565b6000601f8201831361470957600080fd5b813561471c6147178261508d565b615066565b9150808252602083016020830185838301111561473857600080fd5b612eba8382846150ea565b6000612fdc8235610f88565b60006020828403121561476157600080fd5b600061476d84846146bc565b949350505050565b60006020828403121561478757600080fd5b600061476d84846146c8565b600080604083850312156147a657600080fd5b60006147b285856146bc565b92505060206147c3858286016146bc565b9150509250929050565b6000806000606084860312156147e257600080fd5b60006147ee86866146bc565b93505060206147ff868287016146bc565b9250506040614810868287016146bc565b9150509250925092565b60008060006060848603121561482f57600080fd5b600061483b86866146bc565b935050602061484c868287016146bc565b925050604084013567ffffffffffffffff81111561486957600080fd5b614810868287016146f8565b6000806000806080858703121561488b57600080fd5b600061489787876146bc565b945050602085013567ffffffffffffffff8111156148b457600080fd5b6148c0878288016146f8565b935050604085013567ffffffffffffffff8111156148dd57600080fd5b6148e9878288016146f8565b925050606085013567ffffffffffffffff81111561490657600080fd5b614912878288016146f8565b91505092959194509250565b6000806040838503121561493157600080fd5b600061493d85856146bc565b92505060206147c385828601614743565b60006020828403121561496057600080fd5b600061476d84846146d4565b60006020828403121561497e57600080fd5b600061476d84846146e0565b60008060006060848603121561499f57600080fd5b60006147ee86866146ec565b6000602082840312156149bd57600080fd5b813567ffffffffffffffff8111156149d457600080fd5b61476d848285016146f8565b6000602082840312156149f257600080fd5b600061476d8484614743565b614a07816150bf565b82525050565b6000614a18826150bb565b808452602084019350614a2a836150b5565b60005b82811015614a5a57614a408683516149fe565b614a49826150b5565b602096909601959150600101614a2d565b5093949350505050565b6000614a6f826150bb565b80845260208401935083602082028501614a88856150b5565b60005b84811015614abf578383038852614aa3838351614add565b9250614aae826150b5565b602098909801979150600101614a8b565b50909695505050505050565b614a07816150cb565b614a07816150df565b6000614ae8826150bb565b808452614afc8160208601602086016150f6565b614b0581615122565b9093016020019392505050565b601d81527f53656e646572206973206e6f742043726561746f724661636f7472792e000000602082015260400190565b601a81527f557365724e616d652068617320746f20626520756e697175652e000000000000602082015260400190565b601681527f53656e646572206973206e6f7420526567697374657200000000000000000000602082015260400190565b601981527f436f6e7472616374207265717569726573207365742d75702e00000000000000602082015260400190565b602f81527f55736572206163636f756e74206d75737420626520656d707479206265666f7260208201527f65206265696e67206b696c6c65642e0000000000000000000000000000000000604082015260600190565b601981527f53656e646572206973206e6f742055736572466163746f727900000000000000602082015260400190565b601e81527f41646472657373206973206e6f742061207573657220616464726573732e0000602082015260400190565b601481527f53656e646572206973206e6f74206f776e65722e000000000000000000000000602082015260400190565b602b81527f596f75206e65656420746f2062652061626c6520746f206c696b6520796f757260208201527f206f776e2073747566662e000000000000000000000000000000000000000000604082015260600190565b601481527f53656e646572206973206e6f74204d696e746572000000000000000000000000602082015260400190565b603281527f43726561746f72206163636f756e74206d75737420626520656d70747920626560208201527f666f7265206265696e67206b696c6c65642e0000000000000000000000000000604082015260600190565b602781527f436f6e74726163742063757272656e746c79206c6f636b65642e20506c65617360208201527f6520776169742e00000000000000000000000000000000000000000000000000604082015260600190565b601a81527f416d6f756e742063616e6e6f74206265206e656761746976652e000000000000602082015260400190565b614a0781610f88565b60208101614e3182846149fe565b92915050565b60408101614e4582856149fe565b612fdc60208301846149fe565b60608101614e6082866149fe565b614e6d60208301856149fe565b61476d60408301846149fe565b60608101614e8882866149fe565b614e9560208301856149fe565b8181036040830152614ea78184614add565b95945050505050565b60408101614ebe82856149fe565b612fdc6020830184614ad4565b60a08101614ed982886149fe565b8181036020830152614eeb8187614add565b90508181036040830152614eff8186614add565b90508181036060830152614f138185614add565b9050614f226080830184614e1a565b9695505050505050565b60408101614f3a82856149fe565b612fdc6020830184614e1a565b60208082528101612fdc8184614a0d565b60208082528101612fdc8184614a64565b60208101614e318284614acb565b60208082528101612fdc8184614add565b60208082528101614e3181614b12565b60208082528101614e3181614b42565b60208082528101614e3181614b72565b60208082528101614e3181614ba2565b60208082528101614e3181614bd2565b60208082528101614e3181614c28565b60208082528101614e3181614c58565b60208082528101614e3181614c88565b60208082528101614e3181614cb8565b60208082528101614e3181614d0e565b60208082528101614e3181614d3e565b60208082528101614e3181614d94565b60208082528101614e3181614dea565b60208101614e318284614e1a565b60405181810167ffffffffffffffff8111828210171561508557600080fd5b604052919050565b600067ffffffffffffffff8211156150a457600080fd5b506020601f91909101601f19160190565b60200190565b5190565b600160a060020a031690565b151590565b60006003821061465757600080fd5b6000614e3182610f88565b82818337506000910152565b60005b838110156151115781810151838201526020016150f9565b838111156143885750506000910152565b601f01601f19169056005fc13a8cb79897556001bff3646be555a23490209aba88173cfa256d76220527a265627a7a723058200f953831a285a19f03de8cdd1bf4334e845470ca86518bed001be66b8b250f616c6578706572696d656e74616cf50037",
  "source": "pragma solidity 0.4.24;\r\npragma experimental ABIEncoderV2;\r\n\r\nimport \"./UserFactory.sol\";\r\nimport \"./3ContentCreatorFactory.sol\";\r\nimport \"./LoveMachine.sol\";\r\nimport \"./Register.sol\";\r\n\r\ncontract DataStorage {\r\n    address public owner;\r\n\r\n    UserFactory uf;\r\n    ContentCreatorFactory ccf;\r\n    LoveMachine m;\r\n    Register registry;\r\n\r\n    address public userFactoryAddress;\r\n    address public ccFactoryAddress;\r\n    address public minterAddress;\r\n    address public registryAddress;\r\n    \r\n    mapping (address => uint) public allUsers; //userContract to views\r\n    mapping (address => uint) public UsersTotalViewPurchases;//userContract to total views bought\r\n    mapping (address => uint) public allCreators;//creatorContract to views\r\n    mapping (address => string) public allUserNames;//user contract address to userName\r\n    mapping (address => address) public userContractOwners;//userContract add to user add ress\r\n    mapping (address => address) public creatorsContractOwners;//userContract to creatorContract\r\n    address[] public usersAddresses;//contract addresses\r\n    address[] public creatorsAddresses;//creators contract addresses\r\n    string[] public usersNames;//userNames\r\n    uint public moderatorViews;\r\n    struct Content {\r\n        address creator;\r\n        string contentLocationIPFS;\r\n        string title;\r\n        string description;\r\n        uint views;\r\n    }\r\n    Content[] public allContent;\r\n    mapping (address => Content[]) public creatorContent;//ccc to array of content\r\n    uint private totalViewCreated;\r\n    \r\n    enum ViewsUsed {LIKED, LOVED, FANLOVED}\r\n    ViewsUsed liked = ViewsUsed.LIKED;\r\n    ViewsUsed loved = ViewsUsed.LOVED;\r\n    ViewsUsed fanLoved = ViewsUsed.FANLOVED;\r\n    \r\n    bool public emergencyStop = false;\r\n    bool public pause = true;\r\n    \r\n    event LogEmergency(bool _emergency);\r\n    event LogPause(bool _pause);\r\n    event LogSetUp(address _userFactoryAddress, address _creatorFactoryAddress, address _minterAddress);\r\n    event LogBoughtViewsUser(address _account, uint _amount);\r\n    event LogModeriatorFund(address _account, uint _amount);\r\n    event LogUserCreated(address _owner, address _userContract, string _userName);\r\n    event LogUserDeleted(address _owner, address _userContract, string _userName);\r\n    event LogCreatorCreated(address _userCOwner, address _creatorContract);\r\n    event LogCreatorDeleted(address _userContract, address _creatorContract);\r\n    event LogContentCreated(uint indexed _position, string indexed _title, address indexed _creator);\r\n    \r\n    //Ensures the user can still withdraw during an emergency.\r\n    modifier onlyInEmergency {\r\n        require(emergencyStop);\r\n        _;\r\n    }\r\n    \r\n    //Ensures no sensitive transations happen in an emergency.\r\n    modifier stopInEmergency {\r\n        require(!emergencyStop);\r\n        _;\r\n    }\r\n    \r\n    //Ensures no state changes can happen untill the \r\n    //contract has finished being set up.\r\n    modifier pauseFunction {\r\n        require(!pause, \"Contract requires set-up.\");\r\n        _;\r\n    }\r\n    \r\n    //Ensures only the user can call the function.\r\n    modifier onlyOwner {\r\n        require(msg.sender == owner, \"Sender is not owner.\");\r\n        _;\r\n    }\r\n    \r\n    //Ensures only the owner can call the function \r\n    modifier onlyAUser(address _userAddress) {\r\n        require(allUsers[_userAddress] != 0, \"Address is not a user address.\");\r\n        _;\r\n    }\r\n    \r\n    //Ensures only the ContentCreatorFactory can call\r\n    //the function. Calls from register so that the most \r\n    //up to date contract is always used. \r\n    modifier onlyCreatorFactory {\r\n        require(\r\n            msg.sender == registry.getContentCreatorFactory(),\r\n            \"Sender is not CreatorFacotry.\"\r\n        );\r\n        _;\r\n    }\r\n    \r\n    //Ensures only the minter may call the function\r\n    modifier onlyMinter(uint _amount) {\r\n        require(msg.sender == registry.getMinter(), \"Sender is not Minter\");\r\n        require(_amount > 0, \"Amount cannot be negative.\");\r\n        _;\r\n    }\r\n    \r\n    //Ensures only they UserFactory can call the function.\r\n    modifier onlyUserFactory {\r\n        require(msg.sender == registry.getUserFactory(), \"Sender is not UserFactory\");\r\n        _;\r\n    }\r\n    \r\n    //Ensures only the Register can call this function.\r\n    modifier onlyRegistry {\r\n        require(msg.sender == registryAddress, \"Sender is not Register\");\r\n        _;\r\n    }\r\n    \r\n    //Ensures the user is not making another state change. \r\n    modifier lockCheck(address _user) {\r\n        User u = User(_user);\r\n        bool lock = u.getLock();\r\n        require(!lock, \"Contract currently locked. Please wait.\");\r\n        if(this.isCreator(_user)) {\r\n            ContentCreator cc = ContentCreator(this.getCreatorAddressFromUser(_user));\r\n            bool ccLock = cc.getLock();\r\n            require(!ccLock, \"Contract currently locked. Please wait.\");\r\n        }\r\n        _;\r\n    }\r\n    \r\n    //Ensures the _userName is unique. \r\n    modifier uniqueUserName(string _userName) {\r\n        for(uint i = 0; i < usersNames.length; i++){\r\n            require(\r\n                keccak256(_userName) != keccak256(usersNames[i]), \r\n                \"UserName has to be unique.\"\r\n            );\r\n        }\r\n        _;\r\n    }\r\n    \r\n    //Ensures the user has no more views before they get deleted. \r\n    modifier beforeDeleteChecksUser(address _userContract) {\r\n        require(\r\n            allUsers[_userContract] == 0, \r\n            \"User account must be empty before being killed.\"\r\n        );\r\n        _;\r\n    }\r\n    \r\n    //Ensures the Creator has no more views before \r\n    //deleteing their account. \r\n    modifier beforeDeleteChecksCreator(address _creatorContract) {\r\n        require(\r\n            allCreators[_creatorContract] == 0, \r\n            \"Creator account must be empty before being killed.\"\r\n        );\r\n        _;\r\n    }\r\n    \r\n    /**\r\n      * @dev Creates all the contracts that use this dataStorage. \r\n      * @notice The constructor and contract setup has been seporated\r\n      *     becuse the constructor dose not create an address for itself\r\n      *     untill the constructor has finished. \r\n      */\r\n    constructor()\r\n        public\r\n    {\r\n        owner = msg.sender;    \r\n        // ccFactoryAddress = new ContentCreatorFactory();\r\n        // userFactoryAddress = new UserFactory();\r\n        // minterAddress = new LoveMachine();\r\n        // registryAddress = new Register();\r\n        \r\n        // ccf = ContentCreatorFactory(ccFactoryAddress);\r\n        // uf = UserFactory(userFactoryAddress);\r\n        // m = LoveMachine(minterAddress);\r\n        // registry = Register(registryAddress);\r\n    }\r\n    \r\n    /**\r\n      * @dev This function sets up all the contracts and inputs the \r\n      *     various addresses they all need after they have all been \r\n      *     created by blank constructors. \r\n      * @notice This function sets paused to false and allows the data \r\n      *     storage to be used for state modification. \r\n      */\r\n    function setUpDataContracts(\r\n        address _userFactoryAddress,\r\n        address _ccFactoryAddress,\r\n        address _minterAddress\r\n        )\r\n        public\r\n        onlyOwner \r\n        stopInEmergency\r\n        returns(bool)\r\n    {\r\n        ccf = ContentCreatorFactory(ccFactoryAddress);\r\n        uf = UserFactory(userFactoryAddress);\r\n        m = LoveMachine(minterAddress);\r\n        registry = Register(registryAddress);\r\n        \r\n        // ccf.constructorFunction(this);\r\n        // uf.constructorFunction(this, owner, ccFactoryAddress);\r\n        // m.constructorFunction(this);\r\n        // registry.constructorFunction(\r\n        //     userFactoryAddress,\r\n        //     ccFactoryAddress,\r\n        //     minterAddress,\r\n        //     owner,\r\n        //     this\r\n        // );\r\n        \r\n        setPause(false);\r\n        \r\n        LogSetUp(userFactoryAddress, ccFactoryAddress, minterAddress);\r\n        \r\n        return true;\r\n    }\r\n    \r\n    /**\r\n      * @dev Locks the user so that no other state changes\r\n      *     for that user may occur at the same time, thus preventing reentry attacks \r\n      *     and other recursion atacks. It also helps with code readability.\r\n      *     As an instance of a User is being created, we have to check the address\r\n      *     dose belong to a user. \r\n      * @notice creating instances of the users is expensive and inifiecient. Future\r\n      *     versions will allow for the users data to be entirely stored in the \r\n      *     dataStorage, meaning an instance of the user dose not need to be created \r\n      *     to check or set their lock. \r\n      * @param _user : The user who is making the state change. \r\n      */\r\n    function lockUser(address _user) \r\n        private\r\n        onlyAUser(_user)\r\n        pauseFunction\r\n    {\r\n        User u = User(_user);\r\n        u.setLock(true);\r\n        if(this.isCreator(_user)) {\r\n            ContentCreator ccc = ContentCreator(this.getCreatorAddressFromUser(_user));\r\n            ccc.setLock(true);\r\n        }\r\n    }\r\n    \r\n    /**\r\n      * @dev Unlocks the user so they may make other state changes. \r\n      * @notice creating instances of the users is expensive and inifiecient. Future\r\n      *     versions will allow for the users data to be entirely stored in the \r\n      *     dataStorage, meaning an instance of the user dose not need to be created \r\n      *     to check or set their lock. \r\n      * @param _user : The user who is being unlocked to make state changes.\r\n      */\r\n    function unlockUser(address _user)\r\n        private\r\n        onlyAUser(_user)\r\n        pauseFunction\r\n    {\r\n        User u = User(_user);\r\n        u.setLock(false);\r\n        if(this.isCreator(_user)) {\r\n            ContentCreator ccc = ContentCreator(this.getCreatorAddressFromUser(_user));\r\n            ccc.setLock(false);\r\n        }\r\n    }\r\n    \r\n    /**\r\n      * @return address : The address of the minter.\r\n      */\r\n    function getMinter()\r\n        public\r\n        view\r\n        returns(address)\r\n    {\r\n        return registry.getMinter();\r\n    }\r\n    \r\n    /**\r\n      * @return address[] : The addresses of all Users. \r\n      */\r\n    function getAllUserAddresses() \r\n        public \r\n        view\r\n        returns(address[])\r\n    {\r\n        return usersAddresses;\r\n    }\r\n\r\n    /**\r\n      * @return address[] : The addresses of all creators. \r\n      */\r\n    function getAllCreatorsAddresses() \r\n        public \r\n        view\r\n        returns(address[])\r\n    {\r\n        return creatorsAddresses;\r\n    }\r\n\r\n    /**\r\n      * @return string[] : All user names registered. \r\n      */\r\n    function getAllUsersNames() \r\n        public \r\n        view\r\n        returns(string[])\r\n    {\r\n        return usersNames;\r\n    }\r\n    \r\n    /**\r\n      * @param _user : The address of the user whos \r\n      *     name is wanted.  \r\n      * @return string : A users name. \r\n      */\r\n    function getAUsersName(address _user)\r\n        public\r\n        view\r\n        returns(string)    \r\n    {\r\n        return(allUserNames[_user]);\r\n    }\r\n    \r\n    /**\r\n      * @param _userAddress : The address of the user \r\n      *     that is being checked as a creator. \r\n      * @return bool : Wether they are a creator or not.      \r\n      */\r\n    function isCreator(address _userAddress)\r\n        public\r\n        view\r\n        returns(bool)\r\n    {\r\n        if(creatorsContractOwners[_userAddress] != 0) {\r\n            return true;\r\n        }\r\n        return false;\r\n    }\r\n    \r\n    /**\r\n      * @param _addressToCheck : The address to be checked. \r\n      * @return bool : Wether the address is a user. \r\n      */\r\n    function isUser(address _addressToCheck)\r\n        public\r\n        view\r\n        returns(bool)\r\n    {\r\n        if(userContractOwners[_addressToCheck] != 0) {\r\n            return true;\r\n        }\r\n        return false;\r\n    }\r\n    \r\n    /**\r\n      * @param _userAddress : The user address\r\n      * @return address : The address of the users Creator contract. \r\n      */\r\n    function getCreatorAddressFromUser(address _userAddress)\r\n        public\r\n        view\r\n        returns(address)\r\n    {\r\n        require(creatorsContractOwners[_userAddress] != 0);\r\n        return creatorsContractOwners[_userAddress];\r\n    }\r\n\r\n    /**\r\n      * @param _contractAddress : The address of the users contract. \r\n      * @return address : The address of the owner.\r\n      */\r\n    function getAUsersOwnerData(address _contractAddress)\r\n        public\r\n        view\r\n        returns(address)\r\n    {\r\n        require(userContractOwners[_contractAddress] != 0);\r\n        return(userContractOwners[_contractAddress]);\r\n    }\r\n\r\n    /**\r\n      * @param _contractAddress : The address of the useowner.\r\n      * @return string : The users UserName. \r\n      */\r\n    function getAUsersNameData(address _contractAddress)\r\n        public\r\n        view\r\n        returns(string)\r\n    {\r\n        require(allUsers[_contractAddress] != 0);\r\n        return(allUserNames[_contractAddress]);\r\n    }\r\n    \r\n    /**\r\n      * @dev This function dose not need user locks or safy checks \r\n      *     as it is mearly a counter for views dispenced and the users \r\n      *     total amount of views purchased. \r\n      * @param _user : The users address.\r\n      *     _amount : The amount of views purchased. \r\n      */\r\n    function setTotalViewsDispenced(address _user, uint _amount) \r\n        public \r\n        onlyMinter(_amount)\r\n        stopInEmergency\r\n        pauseFunction\r\n    {\r\n        UsersTotalViewPurchases[_user] += _amount;\r\n        totalViewCreated += _amount;\r\n    }\r\n    \r\n    /**\r\n      * @dev For when a content creator whishes to delete their account.\r\n      * @param _ccc : The content creator contract address.\r\n      *     _userContract : The address of the users account.\r\n      */\r\n    function moveAllFundsToUser(address _ccc, address _userContract)\r\n        public\r\n        onlyCreatorFactory\r\n        lockCheck(_userContract)\r\n    {\r\n        lockUser(_userContract);\r\n        \r\n        uint allFunds = allCreators[_ccc];\r\n        allCreators[_ccc] -= allFunds;\r\n        \r\n        allUsers[_userContract] += allFunds;\r\n        \r\n        unlockUser(_userContract);\r\n    }\r\n    \r\n    /**\r\n      * @dev Called when views are being taken out of an account \r\n      *     and  do not need to be paid to a creator.\r\n      * @param _adder : Whom ever is being 'charged' the View.\r\n      *     _amount : The amount of views being taken from the adder. \r\n      * @return bool : Compleated function. \r\n      */\r\n    function addToModeratorFund(address _adder, uint _amount)\r\n        internal \r\n        returns(bool)\r\n    {\r\n        require(_amount > 0);\r\n        moderatorViews += _amount;\r\n        \r\n        emit LogModeriatorFund(_adder, _amount);\r\n    }\r\n    \r\n    /**\r\n      * @dev Allows for the owner to set the emergency state. \r\n      * @notice This function takes in a bool instead of being two \r\n      *     functions (one that sets true and one that sets false) \r\n      *     as to simplify access. \r\n      * @param _emergencyState : The state to set emergency to. \r\n      * @return bool : Returns true once function compleate.\r\n      */\r\n    function setEmergency(bool _emergencyState)\r\n        public \r\n        onlyOwner \r\n        pauseFunction\r\n        returns(bool)\r\n    {\r\n        emit LogEmergency(_emergencyState);\r\n        \r\n        emergencyStop = _emergencyState;\r\n        return true;\r\n    }\r\n    \r\n    /**\r\n      * @dev Sets the pause function. Is not stopped during emergency \r\n      *     to allow for state mutability to be changed during an emergency. \r\n      */\r\n    function setPause(bool pauseState) \r\n        public\r\n        onlyOwner\r\n        returns(bool) \r\n    {\r\n        emit LogPause(pauseState);\r\n        \r\n        return pause = pauseState;\r\n    }\r\n    \r\n    /**\r\n      * @dev Creates a new userUser. \r\n      * @notice Only the user factory can call the creation of a new \r\n      *     user, so that the user has to be registed to the system \r\n      *     and to ensure that the user is an actual user and belongs to \r\n      *     the  UserFactory.\r\n      * @param _user : The address of the creators wallet. \r\n      *     _userContract : The address of the users created user contract.\r\n      *     _userName : The users chosen userName. \r\n      */\r\n    function setNewUserData(address _user, address _userContract, string _userName)\r\n        public \r\n        onlyUserFactory\r\n        lockCheck(_user)\r\n        uniqueUserName(_userName) \r\n        stopInEmergency\r\n        pauseFunction\r\n    {\r\n        lockUser(_user);\r\n        \r\n        allUsers[_userContract] = 0;\r\n        allUserNames[_userContract] = _userName;\r\n        userContractOwners[_userContract] = _user;\r\n        usersAddresses.push(_userContract);\r\n        usersNames.push(_userName);\r\n        \r\n        emit LogUserCreated(_user, _userContract, _userName);\r\n        \r\n        unlockUser(_userContract);\r\n    }\r\n    \r\n    /**\r\n      * @dev used to update the dataStorages instance of the ccontract.\r\n      * @param _newUserFactory : The address of the new contract. \r\n      */\r\n    function registryUpdateUserFactory(address _newUserFactory)\r\n        public\r\n        onlyRegistry\r\n        pauseFunction\r\n    {\r\n        uf = UserFactory(_newUserFactory);\r\n    }\r\n    \r\n    /**\r\n      * @dev used to update the dataStorages instance of the ccontract.\r\n      * @param _newCCFactory : The address of the new contract. \r\n      */\r\n    function registryUpdateCCFactory(address _newCCFactory)\r\n        public\r\n        onlyRegistry\r\n        pauseFunction\r\n    {\r\n        ccf = ContentCreatorFactory(_newCCFactory);\r\n    }\r\n    \r\n    /**\r\n      * @dev used to update the dataStorages instance of the ccontract.\r\n      * @param _newMinter : The address of the new contract. \r\n      */\r\n    function registryUpdateMinter(address _newMinter)\r\n        public\r\n        onlyRegistry\r\n        pauseFunction\r\n    {\r\n        m = LoveMachine(_newMinter);\r\n    }\r\n        \r\n    /**\r\n      * @dev Saves a users purchase of views after LoveMachine has been paid.\r\n      * @param _userContract : The users contract address.\r\n      *     _amount : The amount of views the user has already paid for in the \r\n      *         LoveMachine.\r\n      * @return bool After it has changed the users balance.\r\n      */\r\n    function buyViewsSave(address _userContract, uint _amount)\r\n        public\r\n        onlyMinter(_amount)\r\n        lockCheck(_userContract)\r\n        stopInEmergency\r\n        pauseFunction\r\n        returns(bool)\r\n    {\r\n        lockUser(_userContract);\r\n        \r\n        allUsers[_userContract] += _amount - 5;\r\n        setTotalViewsDispenced(_userContract, _amount - 5);\r\n        \r\n        addToModeratorFund(_userContract, 5);\r\n        \r\n        emit LogBoughtViewsUser(_userContract, _amount);\r\n        \r\n        unlockUser(_userContract);\r\n        return true;\r\n    }\r\n    \r\n    /**\r\n      * @dev Saves a users sale of views before the LoveMachine pays the user the \r\n      *     value of the views in Ether.\r\n      * @notice the assert is used as a prevention of underflow.\r\n      * @param _userContract : The users contract address.\r\n      *     _amount : The amount of views the user is selling. \r\n      * @return bool After it has changed the users balance.\r\n      */\r\n    function sellViewsSave(address _userContract, uint _amount)\r\n        public\r\n        onlyMinter(_amount)\r\n        lockCheck(_userContract)\r\n        stopInEmergency\r\n        pauseFunction\r\n        returns(bool)\r\n    {\r\n        lockUser(_userContract);\r\n        \r\n        assert(allUsers[_userContract] - _amount > 0);\r\n        \r\n        allUsers[_userContract] -= _amount;\r\n        \r\n        unlockUser(_userContract);\r\n        return true;\r\n    }\r\n    \r\n    /**\r\n      * @dev Allows a creator to send views from their user contract (where they can \r\n      *     buy and sell views) to their creator contract.\r\n      * @notice This function is nessasary as the seporation of user contracts from \r\n      *     creator contracts prevents some reentry attacks. \r\n      * @param _user : The users contracts account. \r\n      *     _amount: The amount of views they wish to transfer from their user contract \r\n      *         to their creator accouhnt. Amount is set in the LoveMachine, and \r\n      *         check here. \r\n      * @return bool After the function has compleated. \r\n      */\r\n    function fromUserToCreator(address _user, uint _amount) \r\n        public\r\n        onlyMinter(_amount)\r\n        lockCheck(_user)\r\n        stopInEmergency\r\n        pauseFunction\r\n        returns(bool)\r\n    {\r\n        lockUser(_user);\r\n        \r\n        require(isCreator(_user));\r\n        require(allUsers[_user] > _amount);\r\n        allUsers[_user] -= _amount;\r\n        allCreators[getCreatorAddressFromUser(_user)] += _amount;\r\n        \r\n        unlockUser(_user);\r\n        return true;\r\n        \r\n    }\r\n    \r\n    /**\r\n      * @dev Allows the creator to send views from their creator account to their\r\n      *     user contract account so they can sell them back for Ether, or so they \r\n      *     can view and consume contennt. \r\n      * @notice This function is nessasary for the compleate seporation of consurns \r\n      *     and to prevent various weaknesses and attack points through reeentry. \r\n      *     No views are being bought or sold and therefore there are no emits or \r\n      *     logs of any kind. \r\n      *     Function checks that the _amount is not more than the creator address has. \r\n      * @param _user : The users contract address.\r\n      *     _amount : The amount of views they wish to transfer. \r\n      */\r\n    function fromCreatorToUser(address _user, uint _amount)\r\n        public\r\n        onlyMinter(_amount)\r\n        lockCheck(_user)\r\n        stopInEmergency\r\n        pauseFunction\r\n        returns(bool)\r\n    {\r\n        lockUser(_user);\r\n        \r\n        require(isCreator(_user));\r\n        require(allCreators[getCreatorAddressFromUser(_user)] > _amount);\r\n        allCreators[getCreatorAddressFromUser(_user)] -= _amount;\r\n        allUsers[_user] += _amount;\r\n        \r\n        unlockUser(_user);\r\n        return true;\r\n    }\r\n    \r\n    /**\r\n      * @depracated Made the stack too deep.\r\n      */\r\n    // function recivedViews(address _reciver, uint _amount, address _sender)\r\n    //     public\r\n    //     onlyMinter(_amount)\r\n    //     onlyAUser(_reciver)\r\n    //     onlyAUser(_sender)\r\n    //     stopInEmergency\r\n    //     pauseFunction\r\n    //     returns(bool compleated)\r\n    // {\r\n    //     User reciver = User(_reciver);\r\n    //     User sender = User(_sender);\r\n    //     reciver.setLock(true);\r\n    //     sender.setLock(true);\r\n    // }\r\n    \r\n    /**\r\n      * @dev Minter calls this when a user likes content. \r\n      * @notice Only the user is locked as the content creator should be able to \r\n      *     recive multipule likes, and should not be licked by each one as this \r\n      *     would slow down the system sygnificantly.\r\n      */\r\n    function storingLikes(ViewsUsed viewUsedRecived, address _contentOwner, address _user)\r\n        public \r\n        onlyMinter(1)\r\n        lockCheck(_user)\r\n        stopInEmergency\r\n        pauseFunction\r\n    {\r\n        lockUser(_user);\r\n        \r\n        if (viewUsedRecived == ViewsUsed.LIKED) {\r\n            require(allUsers[_user] > 5);\r\n            allUsers[_user] -= 5;\r\n            allCreators[_contentOwner] += 5;\r\n            \r\n            emit LogBoughtViewsUser(_user, 5);\r\n        }\r\n        if (viewUsedRecived == ViewsUsed.LOVED) {\r\n            require(allUsers[_user] > 15);\r\n            allUsers[_user] -= 15;\r\n            allCreators[_contentOwner] += 15;\r\n            addToModeratorFund(_user, 15);\r\n            \r\n            emit LogBoughtViewsUser(_user, 15);\r\n        }\r\n        if (viewUsedRecived == ViewsUsed.FANLOVED) {\r\n            require(allUsers[_user] > 25);\r\n            allUsers[_user] -= 25;\r\n            allCreators[_contentOwner] += 25;\r\n            addToModeratorFund(_user, 25);\r\n            \r\n            emit LogBoughtViewsUser(_user, 25);\r\n        }\r\n        \r\n        unlockUser(_user);\r\n    }\r\n    \r\n    /** \r\n      * @dev Called by the users Factory by the users contract to delete the \r\n      *     users details and send all their views back to them as Ether. \r\n      * @notice This method implements the lock to ensure no other transactions\r\n      *     are happening before the users Contract is deleted.\r\n      * @param _user : The address of the users contract. To be removed \r\n      *         in future versions and the address of the users wallet from \r\n      *         storage.\r\n      *     _userContract : The address of the users Contract.\r\n      *     string _usrName: The users name.\r\n      */\r\n    function removeUserData(address _user, address _userContract, string _userName)\r\n        public\r\n        onlyUserFactory \r\n        beforeDeleteChecksUser(_userContract) \r\n        stopInEmergency\r\n        pauseFunction\r\n        returns(bool)\r\n    {\r\n        //function is called through the user factory, but the account should \r\n            //have all funds sent to their users wallets. \r\n        //TODO: delete creator content as well. \r\n        delete allUsers[_userContract];\r\n        delete allUserNames[_userContract];\r\n        delete userContractOwners[_userContract];\r\n        for(uint i = 0; i < usersAddresses.length; i++) {\r\n            if(usersAddresses[i] == _userContract) {\r\n                delete usersAddresses[i];\r\n                break;\r\n            }\r\n        }\r\n        for(uint a = 0; a < usersNames.length; a++) {\r\n            if(keccak256(usersNames[a]) == keccak256(_userName)) {\r\n                delete usersNames[a];\r\n                break;\r\n            }\r\n        }\r\n        \r\n        emit LogUserDeleted(_user, _userContract, _userName);\r\n        \r\n        return true;\r\n    }\r\n    \r\n    /**\r\n      * @dev This allows a new creator to be finalized and stored.\r\n      * @notice The 'transaction fee' of a like (5 views) is taken \r\n      *     and added to the moderator fund, to help pay for the \r\n      *     moderation of content. \r\n      *     This method can only be called by the minter as the minter \r\n      *     needs to handle all payable methods values.\r\n      * @param _userContract : The address of the users contract.\r\n      *     _creatorContract : The address of the new Creators contract.\r\n      */\r\n    function setNewCreatorData(address _userContract, address _creatorContract) \r\n        public \r\n        onlyMinter(1) \r\n        stopInEmergency \r\n        pauseFunction\r\n        returns(bool)\r\n    {\r\n        require(\r\n            allUsers[_userContract] > 5, \r\n            \"You need to be able to like your own stuff.\"\r\n        );\r\n        allUsers[_userContract] -= 5;\r\n        moderatorViews += 5;\r\n        \r\n        addToModeratorFund(_userContract, 5);\r\n        \r\n        allCreators[_creatorContract] = 0;\r\n        creatorsContractOwners[_userContract] = _creatorContract;\r\n        creatorsAddresses.push(_creatorContract);\r\n        \r\n        emit LogCreatorCreated(_userContract, _creatorContract);\r\n        \r\n        return true;\r\n    }\r\n\r\n    /**\r\n      * @dev This function allows for the storage of newly created content. \r\n      * @notice This contract can only be called by the minter as the \r\n      *     minter handles a;; calles that have the potential for value \r\n      *     transfer.\r\n      */\r\n    function createContent(\r\n        address _contentCreatorContract, \r\n        string _addressIPFS, \r\n        string _title, \r\n        string _description\r\n        )\r\n        public\r\n        onlyMinter(1)\r\n        stopInEmergency\r\n        pauseFunction\r\n    {\r\n        creatorContent[_contentCreatorContract].push(Content({creator: _contentCreatorContract,\r\n        contentLocationIPFS: _addressIPFS,\r\n        title: _title,\r\n        description: _description,\r\n        views: 0}));\r\n        //reducing balance of content creator\r\n        require(allCreators[_contentCreatorContract] > 5);\r\n        allCreators[_contentCreatorContract] -= 5;\r\n        moderatorViews += 5;\r\n        \r\n        addToModeratorFund(_contentCreatorContract, 5);\r\n        \r\n        allContent.push(Content({\r\n            creator: _contentCreatorContract,\r\n            contentLocationIPFS: _addressIPFS,\r\n            title: _title,\r\n            description: _description,\r\n            views: 0\r\n        })); \r\n        //for front end to have access to lates and all content\r\n        emit LogContentCreated(allContent.length, _title, _contentCreatorContract);\r\n        //For the indervidual conent creators to be able to claim ownership of content\r\n        uint length = creatorContent[_contentCreatorContract].length;\r\n        creatorContent[_contentCreatorContract][length] = Content({\r\n            creator: _contentCreatorContract,\r\n            contentLocationIPFS: _addressIPFS,\r\n            title: _title,\r\n            description: _description,\r\n            views: 0\r\n        });\r\n        \r\n        Content[] storage temp = creatorContent[_contentCreatorContract];\r\n        temp.push(Content({\r\n            creator: _contentCreatorContract,\r\n            contentLocationIPFS: _addressIPFS,\r\n            title: _title,\r\n            description: _description,\r\n            views: 0\r\n        }));\r\n    }\r\n    \r\n    /**\r\n      * @dev Removes the creators data and deletes all their information off \r\n      *     the system. It requires that the user has already cleared their \r\n      *     balance. This function deletes the user information and the \r\n      *     creator information. \r\n      * @param _userContract : The address of the user contract. \r\n      *     _creatorContract : The address of the creators contract. \r\n      * @return bool : After the function has been completed. \r\n      */\r\n    function removeCreatorData(address _userContract, address _creatorContract) \r\n        public\r\n        onlyCreatorFactory \r\n        beforeDeleteChecksCreator(_creatorContract) \r\n        beforeDeleteChecksUser(_userContract)\r\n        stopInEmergency\r\n        pauseFunction\r\n        returns(bool)\r\n    {\r\n        delete allCreators[_creatorContract];\r\n        delete creatorsContractOwners[_userContract];\r\n        for(uint a = 0; a < creatorsAddresses.length; a++) {\r\n            if(creatorsAddresses[a] == _creatorContract) {\r\n                delete creatorsAddresses[a];\r\n                break;\r\n            }\r\n        }\r\n        \r\n        emit LogCreatorDeleted(_userContract, _creatorContract);\r\n        \r\n        return true;\r\n    }\r\n    \r\n    /**\r\n      * @dev Checks the uniqueness of a userName. \r\n      * @param _userName : The userName to be checked. \r\n      * @return bool : Wether the user name is unique or \r\n      *     not.\r\n      */\r\n    function isUnique(string _userName)\r\n        public\r\n        view\r\n        returns(bool)\r\n    {\r\n        for(uint i = 0; i < usersNames.length; i++){\r\n            if(\r\n                keccak256(_userName) != keccak256(usersNames[i])) \r\n            {\r\n            } else {\r\n                return false;\r\n            }\r\n        }\r\n        return true;\r\n    }\r\n\r\n    /**\r\n      * @dev This function allows the register to replace itself. \r\n      * @notice The function in the register that allows it to be \r\n      *     replaced can only be called by the owner. \r\n      * @param _newRegister : The address of the new register. \r\n      */\r\n    function updateRegister(address _newRegister) \r\n        onlyRegistry\r\n        pauseFunction\r\n        public\r\n    {\r\n        registry = Register(_newRegister);\r\n    } \r\n}",
  "sourcePath": "C:\\Users\\Veronica Coutts\\Desktop\\Desktop\\Work\\Web3 Projects\\MVP\\mvp\\contracts\\DataStorage.sol",
  "compiler": {
    "name": "solc",
    "version": "0.4.24+commit.e67f0147.Emscripten.clang"
  },
  "schemaVersion": "2.0.1",
  "updatedAt": "2018-08-25T21:08:09.890Z"
}