{
  "contractName": "DataStorage",
  "abi": [
    {
      "constant": true,
      "inputs": [
        {
          "name": "",
          "type": "uint256"
        }
      ],
      "name": "creatorsAddresses",
      "outputs": [
        {
          "name": "",
          "type": "address"
        }
      ],
      "payable": false,
      "stateMutability": "view",
      "type": "function"
    },
    {
      "constant": true,
      "inputs": [
        {
          "name": "",
          "type": "uint256"
        }
      ],
      "name": "allContent",
      "outputs": [
        {
          "name": "creator",
          "type": "address"
        },
        {
          "name": "contentLocationIPFS",
          "type": "string"
        },
        {
          "name": "title",
          "type": "string"
        },
        {
          "name": "description",
          "type": "string"
        },
        {
          "name": "views",
          "type": "uint256"
        }
      ],
      "payable": false,
      "stateMutability": "view",
      "type": "function"
    },
    {
      "constant": true,
      "inputs": [],
      "name": "moderatorViews",
      "outputs": [
        {
          "name": "",
          "type": "uint256"
        }
      ],
      "payable": false,
      "stateMutability": "view",
      "type": "function"
    },
    {
      "constant": true,
      "inputs": [
        {
          "name": "",
          "type": "address"
        }
      ],
      "name": "creatorsContractOwners",
      "outputs": [
        {
          "name": "",
          "type": "address"
        }
      ],
      "payable": false,
      "stateMutability": "view",
      "type": "function"
    },
    {
      "constant": true,
      "inputs": [],
      "name": "minterAddress",
      "outputs": [
        {
          "name": "",
          "type": "address"
        }
      ],
      "payable": false,
      "stateMutability": "view",
      "type": "function"
    },
    {
      "constant": true,
      "inputs": [],
      "name": "userFactoryAddress",
      "outputs": [
        {
          "name": "",
          "type": "address"
        }
      ],
      "payable": false,
      "stateMutability": "view",
      "type": "function"
    },
    {
      "constant": true,
      "inputs": [
        {
          "name": "",
          "type": "uint256"
        }
      ],
      "name": "usersNames",
      "outputs": [
        {
          "name": "",
          "type": "string"
        }
      ],
      "payable": false,
      "stateMutability": "view",
      "type": "function"
    },
    {
      "constant": true,
      "inputs": [],
      "name": "emergencyStop",
      "outputs": [
        {
          "name": "",
          "type": "bool"
        }
      ],
      "payable": false,
      "stateMutability": "view",
      "type": "function"
    },
    {
      "constant": true,
      "inputs": [
        {
          "name": "",
          "type": "address"
        },
        {
          "name": "",
          "type": "uint256"
        }
      ],
      "name": "creatorContent",
      "outputs": [
        {
          "name": "creator",
          "type": "address"
        },
        {
          "name": "contentLocationIPFS",
          "type": "string"
        },
        {
          "name": "title",
          "type": "string"
        },
        {
          "name": "description",
          "type": "string"
        },
        {
          "name": "views",
          "type": "uint256"
        }
      ],
      "payable": false,
      "stateMutability": "view",
      "type": "function"
    },
    {
      "constant": true,
      "inputs": [
        {
          "name": "",
          "type": "address"
        }
      ],
      "name": "allCreators",
      "outputs": [
        {
          "name": "",
          "type": "uint256"
        }
      ],
      "payable": false,
      "stateMutability": "view",
      "type": "function"
    },
    {
      "constant": true,
      "inputs": [
        {
          "name": "",
          "type": "uint256"
        }
      ],
      "name": "usersAddresses",
      "outputs": [
        {
          "name": "",
          "type": "address"
        }
      ],
      "payable": false,
      "stateMutability": "view",
      "type": "function"
    },
    {
      "constant": true,
      "inputs": [],
      "name": "pause",
      "outputs": [
        {
          "name": "",
          "type": "bool"
        }
      ],
      "payable": false,
      "stateMutability": "view",
      "type": "function"
    },
    {
      "constant": true,
      "inputs": [],
      "name": "owner",
      "outputs": [
        {
          "name": "",
          "type": "address"
        }
      ],
      "payable": false,
      "stateMutability": "view",
      "type": "function"
    },
    {
      "constant": true,
      "inputs": [
        {
          "name": "",
          "type": "address"
        }
      ],
      "name": "userContractOwners",
      "outputs": [
        {
          "name": "",
          "type": "address"
        }
      ],
      "payable": false,
      "stateMutability": "view",
      "type": "function"
    },
    {
      "constant": true,
      "inputs": [
        {
          "name": "",
          "type": "address"
        }
      ],
      "name": "UsersTotalViewPurchases",
      "outputs": [
        {
          "name": "",
          "type": "uint256"
        }
      ],
      "payable": false,
      "stateMutability": "view",
      "type": "function"
    },
    {
      "constant": true,
      "inputs": [
        {
          "name": "",
          "type": "address"
        }
      ],
      "name": "allUserNames",
      "outputs": [
        {
          "name": "",
          "type": "string"
        }
      ],
      "payable": false,
      "stateMutability": "view",
      "type": "function"
    },
    {
      "constant": true,
      "inputs": [],
      "name": "ccFactoryAddress",
      "outputs": [
        {
          "name": "",
          "type": "address"
        }
      ],
      "payable": false,
      "stateMutability": "view",
      "type": "function"
    },
    {
      "constant": true,
      "inputs": [],
      "name": "registryAddress",
      "outputs": [
        {
          "name": "",
          "type": "address"
        }
      ],
      "payable": false,
      "stateMutability": "view",
      "type": "function"
    },
    {
      "constant": true,
      "inputs": [
        {
          "name": "",
          "type": "address"
        }
      ],
      "name": "allUsers",
      "outputs": [
        {
          "name": "",
          "type": "uint256"
        }
      ],
      "payable": false,
      "stateMutability": "view",
      "type": "function"
    },
    {
      "inputs": [],
      "payable": false,
      "stateMutability": "nonpayable",
      "type": "constructor"
    },
    {
      "anonymous": false,
      "inputs": [
        {
          "indexed": false,
          "name": "emergency",
          "type": "bool"
        }
      ],
      "name": "LogEmergency",
      "type": "event"
    },
    {
      "anonymous": false,
      "inputs": [
        {
          "indexed": false,
          "name": "pause",
          "type": "bool"
        }
      ],
      "name": "LogPause",
      "type": "event"
    },
    {
      "anonymous": false,
      "inputs": [
        {
          "indexed": false,
          "name": "userFactoryAddress",
          "type": "address"
        },
        {
          "indexed": false,
          "name": "creatorFactoryAddress",
          "type": "address"
        },
        {
          "indexed": false,
          "name": "minterAddress",
          "type": "address"
        },
        {
          "indexed": false,
          "name": "register",
          "type": "address"
        }
      ],
      "name": "LogSetUp",
      "type": "event"
    },
    {
      "anonymous": false,
      "inputs": [
        {
          "indexed": false,
          "name": "account",
          "type": "address"
        },
        {
          "indexed": false,
          "name": "amount",
          "type": "uint256"
        }
      ],
      "name": "LogBoughtViewsUser",
      "type": "event"
    },
    {
      "anonymous": false,
      "inputs": [
        {
          "indexed": false,
          "name": "account",
          "type": "address"
        },
        {
          "indexed": false,
          "name": "amount",
          "type": "uint256"
        }
      ],
      "name": "LogSoldViewsUser",
      "type": "event"
    },
    {
      "anonymous": false,
      "inputs": [
        {
          "indexed": false,
          "name": "account",
          "type": "address"
        },
        {
          "indexed": false,
          "name": "amount",
          "type": "uint256"
        }
      ],
      "name": "LogModeriatorFund",
      "type": "event"
    },
    {
      "anonymous": false,
      "inputs": [
        {
          "indexed": false,
          "name": "owner",
          "type": "address"
        },
        {
          "indexed": false,
          "name": "userContract",
          "type": "address"
        },
        {
          "indexed": false,
          "name": "userName",
          "type": "string"
        }
      ],
      "name": "LogUserCreated",
      "type": "event"
    },
    {
      "anonymous": false,
      "inputs": [
        {
          "indexed": false,
          "name": "owner",
          "type": "address"
        },
        {
          "indexed": false,
          "name": "userContract",
          "type": "address"
        },
        {
          "indexed": false,
          "name": "userName",
          "type": "string"
        }
      ],
      "name": "LogUserDeleted",
      "type": "event"
    },
    {
      "anonymous": false,
      "inputs": [
        {
          "indexed": false,
          "name": "userCOwner",
          "type": "address"
        },
        {
          "indexed": false,
          "name": "creatorContract",
          "type": "address"
        }
      ],
      "name": "LogCreatorCreated",
      "type": "event"
    },
    {
      "anonymous": false,
      "inputs": [
        {
          "indexed": false,
          "name": "userContract",
          "type": "address"
        },
        {
          "indexed": false,
          "name": "creatorContract",
          "type": "address"
        }
      ],
      "name": "LogCreatorDeleted",
      "type": "event"
    },
    {
      "anonymous": false,
      "inputs": [
        {
          "indexed": true,
          "name": "position",
          "type": "uint256"
        },
        {
          "indexed": true,
          "name": "title",
          "type": "string"
        },
        {
          "indexed": true,
          "name": "creator",
          "type": "address"
        }
      ],
      "name": "LogContentCreated",
      "type": "event"
    },
    {
      "anonymous": false,
      "inputs": [
        {
          "indexed": false,
          "name": "userContract",
          "type": "address"
        }
      ],
      "name": "LogCheckingData",
      "type": "event"
    },
    {
      "constant": false,
      "inputs": [
        {
          "name": "_userFactoryAddress",
          "type": "address"
        },
        {
          "name": "_ccFactoryAddress",
          "type": "address"
        },
        {
          "name": "_minterAddress",
          "type": "address"
        },
        {
          "name": "_register",
          "type": "address"
        }
      ],
      "name": "setUpDataContracts",
      "outputs": [
        {
          "name": "",
          "type": "bool"
        }
      ],
      "payable": false,
      "stateMutability": "nonpayable",
      "type": "function"
    },
    {
      "constant": true,
      "inputs": [],
      "name": "getMinter",
      "outputs": [
        {
          "name": "",
          "type": "address"
        }
      ],
      "payable": false,
      "stateMutability": "view",
      "type": "function"
    },
    {
      "constant": true,
      "inputs": [],
      "name": "getAllUserAddresses",
      "outputs": [
        {
          "name": "",
          "type": "address[]"
        }
      ],
      "payable": false,
      "stateMutability": "view",
      "type": "function"
    },
    {
      "constant": true,
      "inputs": [],
      "name": "getAllCreatorsAddresses",
      "outputs": [
        {
          "name": "",
          "type": "address[]"
        }
      ],
      "payable": false,
      "stateMutability": "view",
      "type": "function"
    },
    {
      "constant": true,
      "inputs": [],
      "name": "getAllUsersNames",
      "outputs": [
        {
          "name": "",
          "type": "string[]"
        }
      ],
      "payable": false,
      "stateMutability": "view",
      "type": "function"
    },
    {
      "constant": true,
      "inputs": [
        {
          "name": "_user",
          "type": "address"
        }
      ],
      "name": "getAUsersName",
      "outputs": [
        {
          "name": "",
          "type": "string"
        }
      ],
      "payable": false,
      "stateMutability": "view",
      "type": "function"
    },
    {
      "constant": true,
      "inputs": [
        {
          "name": "_userAddress",
          "type": "address"
        }
      ],
      "name": "isCreator",
      "outputs": [
        {
          "name": "",
          "type": "bool"
        }
      ],
      "payable": false,
      "stateMutability": "view",
      "type": "function"
    },
    {
      "constant": true,
      "inputs": [
        {
          "name": "_addressToCheck",
          "type": "address"
        }
      ],
      "name": "isUser",
      "outputs": [
        {
          "name": "",
          "type": "bool"
        }
      ],
      "payable": false,
      "stateMutability": "view",
      "type": "function"
    },
    {
      "constant": true,
      "inputs": [
        {
          "name": "_userAddress",
          "type": "address"
        }
      ],
      "name": "getCreatorAddressFromUser",
      "outputs": [
        {
          "name": "",
          "type": "address"
        }
      ],
      "payable": false,
      "stateMutability": "view",
      "type": "function"
    },
    {
      "constant": true,
      "inputs": [
        {
          "name": "_contractAddress",
          "type": "address"
        }
      ],
      "name": "getAUsersOwnerData",
      "outputs": [
        {
          "name": "",
          "type": "address"
        }
      ],
      "payable": false,
      "stateMutability": "view",
      "type": "function"
    },
    {
      "constant": true,
      "inputs": [
        {
          "name": "_contractAddress",
          "type": "address"
        }
      ],
      "name": "getAUsersNameData",
      "outputs": [
        {
          "name": "",
          "type": "string"
        }
      ],
      "payable": false,
      "stateMutability": "view",
      "type": "function"
    },
    {
      "constant": false,
      "inputs": [
        {
          "name": "_user",
          "type": "address"
        },
        {
          "name": "_amount",
          "type": "uint256"
        }
      ],
      "name": "setTotalViewsDispenced",
      "outputs": [],
      "payable": false,
      "stateMutability": "nonpayable",
      "type": "function"
    },
    {
      "constant": false,
      "inputs": [
        {
          "name": "_ccc",
          "type": "address"
        },
        {
          "name": "_userContract",
          "type": "address"
        }
      ],
      "name": "moveAllFundsToUser",
      "outputs": [],
      "payable": false,
      "stateMutability": "nonpayable",
      "type": "function"
    },
    {
      "constant": false,
      "inputs": [
        {
          "name": "_emergencyState",
          "type": "bool"
        }
      ],
      "name": "setEmergency",
      "outputs": [
        {
          "name": "",
          "type": "bool"
        }
      ],
      "payable": false,
      "stateMutability": "nonpayable",
      "type": "function"
    },
    {
      "constant": false,
      "inputs": [
        {
          "name": "pauseState",
          "type": "bool"
        }
      ],
      "name": "setPause",
      "outputs": [
        {
          "name": "",
          "type": "bool"
        }
      ],
      "payable": false,
      "stateMutability": "nonpayable",
      "type": "function"
    },
    {
      "constant": false,
      "inputs": [
        {
          "name": "_newUserFactory",
          "type": "address"
        }
      ],
      "name": "registryUpdateUserFactory",
      "outputs": [],
      "payable": false,
      "stateMutability": "nonpayable",
      "type": "function"
    },
    {
      "constant": false,
      "inputs": [
        {
          "name": "_newCCFactory",
          "type": "address"
        }
      ],
      "name": "registryUpdateCCFactory",
      "outputs": [],
      "payable": false,
      "stateMutability": "nonpayable",
      "type": "function"
    },
    {
      "constant": false,
      "inputs": [
        {
          "name": "_newMinter",
          "type": "address"
        }
      ],
      "name": "registryUpdateMinter",
      "outputs": [],
      "payable": false,
      "stateMutability": "nonpayable",
      "type": "function"
    },
    {
      "constant": false,
      "inputs": [
        {
          "name": "_user",
          "type": "address"
        },
        {
          "name": "_userContract",
          "type": "address"
        },
        {
          "name": "_userName",
          "type": "string"
        }
      ],
      "name": "setNewUserData",
      "outputs": [],
      "payable": false,
      "stateMutability": "nonpayable",
      "type": "function"
    },
    {
      "constant": false,
      "inputs": [
        {
          "name": "_user",
          "type": "address"
        },
        {
          "name": "_userContract",
          "type": "address"
        },
        {
          "name": "_userName",
          "type": "string"
        }
      ],
      "name": "removeUserData",
      "outputs": [
        {
          "name": "",
          "type": "bool"
        }
      ],
      "payable": false,
      "stateMutability": "nonpayable",
      "type": "function"
    },
    {
      "constant": false,
      "inputs": [
        {
          "name": "_userContract",
          "type": "address"
        },
        {
          "name": "_creatorContract",
          "type": "address"
        }
      ],
      "name": "setNewCreatorData",
      "outputs": [
        {
          "name": "",
          "type": "bool"
        }
      ],
      "payable": false,
      "stateMutability": "nonpayable",
      "type": "function"
    },
    {
      "constant": false,
      "inputs": [
        {
          "name": "_userContract",
          "type": "address"
        },
        {
          "name": "_creatorContract",
          "type": "address"
        }
      ],
      "name": "removeCreatorData",
      "outputs": [
        {
          "name": "",
          "type": "bool"
        }
      ],
      "payable": false,
      "stateMutability": "nonpayable",
      "type": "function"
    },
    {
      "constant": false,
      "inputs": [
        {
          "name": "_userContract",
          "type": "address"
        },
        {
          "name": "_amount",
          "type": "uint256"
        }
      ],
      "name": "buyViewsSave",
      "outputs": [
        {
          "name": "",
          "type": "bool"
        }
      ],
      "payable": false,
      "stateMutability": "nonpayable",
      "type": "function"
    },
    {
      "constant": false,
      "inputs": [
        {
          "name": "_userContract",
          "type": "address"
        },
        {
          "name": "_amount",
          "type": "uint256"
        }
      ],
      "name": "sellViewsSave",
      "outputs": [
        {
          "name": "",
          "type": "bool"
        }
      ],
      "payable": false,
      "stateMutability": "nonpayable",
      "type": "function"
    },
    {
      "constant": false,
      "inputs": [
        {
          "name": "_user",
          "type": "address"
        },
        {
          "name": "_amount",
          "type": "uint256"
        }
      ],
      "name": "fromUserToCreator",
      "outputs": [
        {
          "name": "",
          "type": "bool"
        }
      ],
      "payable": false,
      "stateMutability": "nonpayable",
      "type": "function"
    },
    {
      "constant": false,
      "inputs": [
        {
          "name": "_user",
          "type": "address"
        },
        {
          "name": "_amount",
          "type": "uint256"
        }
      ],
      "name": "fromCreatorToUser",
      "outputs": [
        {
          "name": "",
          "type": "bool"
        }
      ],
      "payable": false,
      "stateMutability": "nonpayable",
      "type": "function"
    },
    {
      "constant": false,
      "inputs": [
        {
          "name": "viewUsedRecived",
          "type": "uint8"
        },
        {
          "name": "_contentOwner",
          "type": "address"
        },
        {
          "name": "_user",
          "type": "address"
        }
      ],
      "name": "storingLikes",
      "outputs": [],
      "payable": false,
      "stateMutability": "nonpayable",
      "type": "function"
    },
    {
      "constant": false,
      "inputs": [
        {
          "name": "_contentCreatorContract",
          "type": "address"
        },
        {
          "name": "_addressIPFS",
          "type": "string"
        },
        {
          "name": "_title",
          "type": "string"
        },
        {
          "name": "_description",
          "type": "string"
        }
      ],
      "name": "createContent",
      "outputs": [],
      "payable": false,
      "stateMutability": "nonpayable",
      "type": "function"
    },
    {
      "constant": false,
      "inputs": [
        {
          "name": "_newRegister",
          "type": "address"
        }
      ],
      "name": "updateRegister",
      "outputs": [],
      "payable": false,
      "stateMutability": "nonpayable",
      "type": "function"
    }
  ],
  "bytecode": "0x60806040526016805461ffff19166101001762ff00001916620200001764ffff000000191664010000000017905534801561003957600080fd5b5060008054600160a060020a031916331790556147618061005b6000396000f30060806040526004361061022c5763ffffffff60e060020a600035041663040321f681146102315780630501d5561461026757806307d1b2fd146102945780631418c311146102c557806316531415146102e75780631ddf8358146103075780632c8694b6146103275780632f3300231461034757806334d722c91461036957806336bab95b1461037e5780634209fff1146103935780634604920f146103b3578063547e7afe146103d35780635b48d7fb146103f55780635c1e153c146104175780635ebe20321461043757806363a599a41461046457806364015cc9146104795780636a480eb8146104995780636db08bd7146104b95780636e6ac45a146104d957806371858108146104f9578063733380811461051957806376fc2b6e14610539578063819ad027146105595780638456cb59146105795780638da5cb5b1461058e578063aae87c24146105a3578063b1781da3146105c3578063b7acf7c3146105e3578063b96275fb14610603578063bba11cf714610623578063bd76e49414610643578063bedb86fb14610663578063bf57df0914610683578063bfc16c50146106a3578063c0fed46f146106c3578063c3853537146106e3578063ccaf955314610703578063cd8c43b614610723578063e0b969bd14610738578063e2bf75d11461074d578063e393c5aa1461076d578063ed9aab511461078d578063edbece37146107a2578063ee38ae56146107c2578063efd46065146107e2578063f366751714610802575b600080fd5b34801561023d57600080fd5b5061025161024c366004614096565b610817565b60405161025e9190614423565b60405180910390f35b34801561027357600080fd5b50610287610282366004614017565b61083f565b60405161025e9190614570565b3480156102a057600080fd5b506102b46102af366004614096565b6108fb565b60405161025e9594939291906144d2565b3480156102d157600080fd5b506102da610ae8565b60405161025e919061462f565b3480156102f357600080fd5b50610287610302366004613e84565b610aee565b34801561031357600080fd5b50610287610322366004613fe7565b610bf6565b34801561033357600080fd5b50610251610342366004613e06565b611000565b34801561035357600080fd5b5061035c61101b565b60405161025e919061454e565b34801561037557600080fd5b5061025161107e565b34801561038a57600080fd5b5061025161108d565b34801561039f57600080fd5b506102876103ae366004613e06565b61109c565b3480156103bf57600080fd5b506102876103ce366004613fe7565b6110ce565b3480156103df57600080fd5b506103e86113d0565b60405161025e919061455f565b34801561040157600080fd5b50610415610410366004614053565b6114a8565b005b34801561042357600080fd5b50610415610432366004613e4a565b6119fd565b34801561044357600080fd5b50610457610452366004614096565b611d39565b60405161025e919061457e565b34801561047057600080fd5b50610287611de0565b34801561048557600080fd5b50610457610494366004613e06565b611df0565b3480156104a557600080fd5b506102b46104b4366004613fe7565b611ea0565b3480156104c557600080fd5b506102876104d4366004613fe7565b611f3b565b3480156104e557600080fd5b506104156104f4366004613f4a565b61232d565b34801561050557600080fd5b506102da610514366004613e06565b612756565b34801561052557600080fd5b50610251610534366004614096565b612768565b34801561054557600080fd5b50610415610554366004613e06565b612776565b34801561056557600080fd5b50610287610574366004613ee5565b6127f3565b34801561058557600080fd5b50610287612a46565b34801561059a57600080fd5b50610251612a57565b3480156105af57600080fd5b506102876105be366004613e4a565b612a66565b3480156105cf57600080fd5b506102516105de366004613e06565b612cd9565b3480156105ef57600080fd5b506102516105fe366004613e06565b612cf4565b34801561060f57600080fd5b5061025161061e366004613e06565b612d3b565b34801561062f57600080fd5b5061041561063e366004613fe7565b612d82565b34801561064f57600080fd5b506102da61065e366004613e06565b612ecb565b34801561066f57600080fd5b5061028761067e366004614017565b612edd565b34801561068f57600080fd5b5061028761069e366004613fe7565b612f5f565b3480156106af57600080fd5b506104576106be366004613e06565b613233565b3480156106cf57600080fd5b506104576106de366004613e06565b6132de565b3480156106ef57600080fd5b506104156106fe366004613e06565b613346565b34801561070f57600080fd5b5061041561071e366004613ee5565b6133cd565b34801561072f57600080fd5b506102516134eb565b34801561074457600080fd5b5061035c6134fa565b34801561075957600080fd5b50610287610768366004613e4a565b61355a565b34801561077957600080fd5b50610415610788366004613e06565b613694565b34801561079957600080fd5b5061025161371b565b3480156107ae57600080fd5b506102da6107bd366004613e06565b61372a565b3480156107ce57600080fd5b506104156107dd366004613e06565b61373c565b3480156107ee57600080fd5b506102876107fd366004613e06565b6137c3565b34801561080e57600080fd5b506102516137ed565b601080548290811061082557fe5b600091825260209091200154600160a060020a0316905081565b60008054600160a060020a031633146108765760405160e560020a62461bcd02815260040161086d906145df565b60405180910390fd5b601654640100000000900460ff16156108a45760405160e560020a62461bcd02815260040161086d906145af565b7f413e6d22f012c3337757e66546d28828d7000e061a40d2492c34741e2c62d988826040516108d39190614570565b60405180910390a1506016805463ff000000191663010000008315150217905560015b919050565b601380548290811061090957fe5b600091825260209182902060059091020180546001808301805460408051601f6002600019968516156101000296909601909316949094049182018790048702840187019052808352600160a060020a0390931695509293909291908301828280156109b65780601f1061098b576101008083540402835291602001916109b6565b820191906000526020600020905b81548152906001019060200180831161099957829003601f168201915b50505060028085018054604080516020601f6000196101006001871615020190941695909504928301859004850281018501909152818152959695945090925090830182828015610a485780601f10610a1d57610100808354040283529160200191610a48565b820191906000526020600020905b815481529060010190602001808311610a2b57829003601f168201915b5050505060038301805460408051602060026001851615610100026000190190941693909304601f8101849004840282018401909252818152949594935090830182828015610ad85780601f10610aad57610100808354040283529160200191610ad8565b820191906000526020600020905b815481529060010190602001808311610abb57829003601f168201915b5050505050908060040154905085565b60125481565b60008054600160a060020a03163314610b1c5760405160e560020a62461bcd02815260040161086d906145df565b6016546301000000900460ff1615610b3357600080fd5b60028054600160a060020a0319908116600160a060020a0387811691821790935560068054831690911790556001805482168884169081179091556005805483169091179055600380548216868416908117909155600780548316909117905560048054909116918416919091179055610bad6000612edd565b507fd6c831f26f396f47a3d6dae9057e42c399d6487e0174d1ab18f78f7b889f929385858585604051610be3949392919061444c565b60405180910390a1506001949350505050565b60048054604080517ff366751700000000000000000000000000000000000000000000000000000000815290516000938593600160a060020a03169263f3667517928183019260209282900301818887803b158015610c5457600080fd5b505af1158015610c68573d6000803e3d6000fd5b505050506040513d601f19601f82011682018060405250610c8c9190810190613e2c565b600160a060020a03163314610cb65760405160e560020a62461bcd02815260040161086d906145ef565b60008111610cd95760405160e560020a62461bcd02815260040161086d9061461f565b8360008060008084935083600160a060020a0316637e5852d96040518163ffffffff1660e060020a028152600401602060405180830381600087803b158015610d2157600080fd5b505af1158015610d35573d6000803e3d6000fd5b505050506040513d601f19601f82011682018060405250610d599190810190614035565b92508215610d7c5760405160e560020a62461bcd02815260040161086d9061460f565b60405160e060020a63efd46065028152309063efd4606590610da2908890600401614423565b602060405180830381600087803b158015610dbc57600080fd5b505af1158015610dd0573d6000803e3d6000fd5b505050506040513d601f19601f82011682018060405250610df49190810190614035565b15610f0c5760405160e060020a63b7acf7c3028152309063b7acf7c390610e1f908890600401614423565b602060405180830381600087803b158015610e3957600080fd5b505af1158015610e4d573d6000803e3d6000fd5b505050506040513d601f19601f82011682018060405250610e719190810190613e2c565b915081600160a060020a0316637e5852d96040518163ffffffff1660e060020a028152600401602060405180830381600087803b158015610eb157600080fd5b505af1158015610ec5573d6000803e3d6000fd5b505050506040513d601f19601f82011682018060405250610ee99190810190614035565b90508015610f0c5760405160e560020a62461bcd02815260040161086d9061460f565b6016546301000000900460ff1615610f2357600080fd5b601654640100000000900460ff1615610f515760405160e560020a62461bcd02815260040161086d906145af565b610f5a8961387f565b610f63896137c3565b1515610f6e57600080fd5b87600b6000610f7c8c612cf4565b600160a060020a0316815260208101919091526040016000205411610fa057600080fd5b87600b6000610fae8c612cf4565b600160a060020a039081168252602080830193909352604091820160009081208054959095039094558c16835260099091529020805489019055610ff189613a77565b50600198975050505050505050565b600e60205260009081526040902054600160a060020a031681565b6060600f80548060200260200160405190810160405280929190818152602001828054801561107357602002820191906000526020600020905b8154600160a060020a03168152600190910190602001808311611055575b505050505090505b90565b600754600160a060020a031681565b600554600160a060020a031681565b600160a060020a038082166000908152600d6020526040812054909116156110c6575060016108f6565b506000919050565b60008260008060008084935083600160a060020a0316637e5852d96040518163ffffffff1660e060020a028152600401602060405180830381600087803b15801561111857600080fd5b505af115801561112c573d6000803e3d6000fd5b505050506040513d601f19601f820116820180604052506111509190810190614035565b925082156111735760405160e560020a62461bcd02815260040161086d9061460f565b60405160e060020a63efd46065028152309063efd4606590611199908890600401614423565b602060405180830381600087803b1580156111b357600080fd5b505af11580156111c7573d6000803e3d6000fd5b505050506040513d601f19601f820116820180604052506111eb9190810190614035565b156113035760405160e060020a63b7acf7c3028152309063b7acf7c390611216908890600401614423565b602060405180830381600087803b15801561123057600080fd5b505af1158015611244573d6000803e3d6000fd5b505050506040513d601f19601f820116820180604052506112689190810190613e2c565b915081600160a060020a0316637e5852d96040518163ffffffff1660e060020a028152600401602060405180830381600087803b1580156112a857600080fd5b505af11580156112bc573d6000803e3d6000fd5b505050506040513d601f19601f820116820180604052506112e09190810190614035565b905080156113035760405160e560020a62461bcd02815260040161086d9061460f565b6016546301000000900460ff161561131a57600080fd5b601654640100000000900460ff16156113485760405160e560020a62461bcd02815260040161086d906145af565b6113518861387f565b600160a060020a0388166000908152600960205260409020805488016004199081019091556113839089908901612d82565b61138e886005613c37565b5060008051602061470883398151915288600589036040516113b1929190614533565b60405180910390a16113c288613a77565b506001979650505050505050565b60606011805480602002602001604051908101604052809291908181526020016000905b8282101561149f5760008481526020908190208301805460408051601f600260001961010060018716150201909416939093049283018590048502810185019091528181529283018282801561148b5780601f106114605761010080835404028352916020019161148b565b820191906000526020600020905b81548152906001019060200180831161146e57829003601f168201915b5050505050815260200190600101906113f4565b50505050905090565b6001600460009054906101000a9004600160a060020a0316600160a060020a031663f36675176040518163ffffffff1660e060020a028152600401602060405180830381600087803b1580156114fd57600080fd5b505af1158015611511573d6000803e3d6000fd5b505050506040513d601f19601f820116820180604052506115359190810190613e2c565b600160a060020a0316331461155f5760405160e560020a62461bcd02815260040161086d906145ef565b600081116115825760405160e560020a62461bcd02815260040161086d9061461f565b8160008060008084935083600160a060020a0316637e5852d96040518163ffffffff1660e060020a028152600401602060405180830381600087803b1580156115ca57600080fd5b505af11580156115de573d6000803e3d6000fd5b505050506040513d601f19601f820116820180604052506116029190810190614035565b925082156116255760405160e560020a62461bcd02815260040161086d9061460f565b60405160e060020a63efd46065028152309063efd460659061164b908890600401614423565b602060405180830381600087803b15801561166557600080fd5b505af1158015611679573d6000803e3d6000fd5b505050506040513d601f19601f8201168201806040525061169d9190810190614035565b156117b55760405160e060020a63b7acf7c3028152309063b7acf7c3906116c8908890600401614423565b602060405180830381600087803b1580156116e257600080fd5b505af11580156116f6573d6000803e3d6000fd5b505050506040513d601f19601f8201168201806040525061171a9190810190613e2c565b915081600160a060020a0316637e5852d96040518163ffffffff1660e060020a028152600401602060405180830381600087803b15801561175a57600080fd5b505af115801561176e573d6000803e3d6000fd5b505050506040513d601f19601f820116820180604052506117929190810190614035565b905080156117b55760405160e560020a62461bcd02815260040161086d9061460f565b6016546301000000900460ff16156117cc57600080fd5b601654640100000000900460ff16156117fa5760405160e560020a62461bcd02815260040161086d906145af565b6118038761387f565b600089600281111561181157fe5b141561189d57600160a060020a03871660009081526009602052604090205460051061183c57600080fd5b600160a060020a0380881660009081526009602090815260408083208054600419019055928b168252600b905281902080546005908101909155905160008051602061470883398151915291611894918a91906144b7565b60405180910390a15b60018960028111156118ab57fe5b141561194357600160a060020a038716600090815260096020526040902054600f106118d657600080fd5b600160a060020a0380881660009081526009602090815260408083208054600e19019055928b168252600b9052208054600f908101909155611919908890613c37565b5060008051602061470883398151915287600f60405161193a9291906144b7565b60405180910390a15b600289600281111561195157fe5b14156119e957600160a060020a03871660009081526009602052604090205460191061197c57600080fd5b600160a060020a0380881660009081526009602090815260408083208054601819019055928b168252600b905220805460199081019091556119bf908890613c37565b506000805160206147088339815191528760196040516119e09291906144b7565b60405180910390a15b6119f287613a77565b505050505050505050565b6000600460009054906101000a9004600160a060020a0316600160a060020a0316633c093d5a6040518163ffffffff1660e060020a028152600401602060405180830381600087803b158015611a5257600080fd5b505af1158015611a66573d6000803e3d6000fd5b505050506040513d601f19601f82011682018060405250611a8a9190810190613e2c565b600160a060020a03163314611ab45760405160e560020a62461bcd02815260040161086d9061458f565b8160008060008084935083600160a060020a0316637e5852d96040518163ffffffff1660e060020a028152600401602060405180830381600087803b158015611afc57600080fd5b505af1158015611b10573d6000803e3d6000fd5b505050506040513d601f19601f82011682018060405250611b349190810190614035565b92508215611b575760405160e560020a62461bcd02815260040161086d9061460f565b60405160e060020a63efd46065028152309063efd4606590611b7d908890600401614423565b602060405180830381600087803b158015611b9757600080fd5b505af1158015611bab573d6000803e3d6000fd5b505050506040513d601f19601f82011682018060405250611bcf9190810190614035565b15611ce75760405160e060020a63b7acf7c3028152309063b7acf7c390611bfa908890600401614423565b602060405180830381600087803b158015611c1457600080fd5b505af1158015611c28573d6000803e3d6000fd5b505050506040513d601f19601f82011682018060405250611c4c9190810190613e2c565b915081600160a060020a0316637e5852d96040518163ffffffff1660e060020a028152600401602060405180830381600087803b158015611c8c57600080fd5b505af1158015611ca0573d6000803e3d6000fd5b505050506040513d601f19601f82011682018060405250611cc49190810190614035565b90508015611ce75760405160e560020a62461bcd02815260040161086d9061460f565b611cf08761387f565b600160a060020a038089166000908152600b60209081526040808320805490849055938b168352600990915290208054820190559550611d2f87613a77565b5050505050505050565b6011805482908110611d4757fe5b600091825260209182902001805460408051601f6002600019610100600187161502019094169390930492830185900485028101850190915281815293509091830182828015611dd85780601f10611dad57610100808354040283529160200191611dd8565b820191906000526020600020905b815481529060010190602001808311611dbb57829003601f168201915b505050505081565b6016546301000000900460ff1681565b600160a060020a0381166000908152600c602090815260409182902080548351601f600260001961010060018616150201909316929092049182018490048402810184019094528084526060939192839190830182828015611e935780601f10611e6857610100808354040283529160200191611e93565b820191906000526020600020905b815481529060010190602001808311611e7657829003601f168201915b5050505050915050919050565b601460205281600052604060002081815481101515611ebb57fe5b600091825260209182902060059091020180546001808301805460408051601f6002600019968516156101000296909601909316949094049182018790048702840187019052808352600160a060020a039093169650929450928301828280156109b65780601f1061098b576101008083540402835291602001916109b6565b60048054604080517ff366751700000000000000000000000000000000000000000000000000000000815290516000938593600160a060020a03169263f3667517928183019260209282900301818887803b158015611f9957600080fd5b505af1158015611fad573d6000803e3d6000fd5b505050506040513d601f19601f82011682018060405250611fd19190810190613e2c565b600160a060020a03163314611ffb5760405160e560020a62461bcd02815260040161086d906145ef565b6000811161201e5760405160e560020a62461bcd02815260040161086d9061461f565b8360008060008084935083600160a060020a0316637e5852d96040518163ffffffff1660e060020a028152600401602060405180830381600087803b15801561206657600080fd5b505af115801561207a573d6000803e3d6000fd5b505050506040513d601f19601f8201168201806040525061209e9190810190614035565b925082156120c15760405160e560020a62461bcd02815260040161086d9061460f565b60405160e060020a63efd46065028152309063efd46065906120e7908890600401614423565b602060405180830381600087803b15801561210157600080fd5b505af1158015612115573d6000803e3d6000fd5b505050506040513d601f19601f820116820180604052506121399190810190614035565b156122515760405160e060020a63b7acf7c3028152309063b7acf7c390612164908890600401614423565b602060405180830381600087803b15801561217e57600080fd5b505af1158015612192573d6000803e3d6000fd5b505050506040513d601f19601f820116820180604052506121b69190810190613e2c565b915081600160a060020a0316637e5852d96040518163ffffffff1660e060020a028152600401602060405180830381600087803b1580156121f657600080fd5b505af115801561220a573d6000803e3d6000fd5b505050506040513d601f19601f8201168201806040525061222e9190810190614035565b905080156122515760405160e560020a62461bcd02815260040161086d9061460f565b6016546301000000900460ff161561226857600080fd5b601654640100000000900460ff16156122965760405160e560020a62461bcd02815260040161086d906145af565b61229f8961387f565b6122a8896137c3565b15156122b357600080fd5b600160a060020a03891660009081526009602052604090205488106122d757600080fd5b600160a060020a038916600090815260096020526040812080548a900390558890600b906123048c612cf4565b600160a060020a03168152602081019190915260400160002080549091019055610ff189613a77565b6000806001600460009054906101000a9004600160a060020a0316600160a060020a031663f36675176040518163ffffffff1660e060020a028152600401602060405180830381600087803b15801561238557600080fd5b505af1158015612399573d6000803e3d6000fd5b505050506040513d601f19601f820116820180604052506123bd9190810190613e2c565b600160a060020a031633146123e75760405160e560020a62461bcd02815260040161086d906145ef565b6000811161240a5760405160e560020a62461bcd02815260040161086d9061461f565b6016546301000000900460ff161561242157600080fd5b601654640100000000900460ff161561244f5760405160e560020a62461bcd02815260040161086d906145af565b600160a060020a038781166000818152601460209081526040808320815160a0810183529485528483018c81529185018b9052606085018a905260808501849052805460018082018084559286529484902086516005909202018054600160a060020a03191691909716178655905180519195936124d39390850192910190613c8d565b50604082015180516124ef916002840191602090910190613c8d565b506060820151805161250b916003840191602090910190613c8d565b506080919091015160049091015550600160a060020a0387166000908152600b602052604090205460051061253f57600080fd5b600160a060020a0387166000908152600b602052604090208054600419019055601280546005908101909155612576908890613c37565b506040805160a081018252600160a060020a03898116825260208083018a81529383018990526060830188905260006080840181905260138054600181018083559190925284517f66de8ffda797e3de9c05e8fc57b3bf0ec28a930d40b0d285d93c06501cf6a09060059093029283018054600160a060020a0319169190951617845594518051612630937f66de8ffda797e3de9c05e8fc57b3bf0ec28a930d40b0d285d93c06501cf6a091909301929190910190613c8d565b506040820151805161264c916002840191602090910190613c8d565b5060608201518051612668916003840191602090910190613c8d565b506080820151816004015550505086600160a060020a0316856040518082805190602001908083835b602083106126b05780518252601f199092019160209182019101612691565b5181516020939093036101000a60001901801990911692169190911790526040519201829003822060135490945092507f1265282869251121edf11374a7f7d04b956dfd0ab45255cf5a1c08cfa527012b9160009150a4600160a060020a03871660008181526014602081815260408084208054825160a0810184528781528085018e90529283018c9052606083018b9052608083018690529590945291905291945084fe5b600b6020526000908152604090205481565b600f80548290811061082557fe5b600854600160a060020a031633146127a35760405160e560020a62461bcd02815260040161086d9061459f565b601654640100000000900460ff16156127d15760405160e560020a62461bcd02815260040161086d906145af565b60048054600160a060020a031916600160a060020a0392909216919091179055565b60048054604080517fe1d5515500000000000000000000000000000000000000000000000000000000815290516000938493600160a060020a03169263e1d55155928183019260209282900301818787803b15801561285157600080fd5b505af1158015612865573d6000803e3d6000fd5b505050506040513d601f19601f820116820180604052506128899190810190613e2c565b600160a060020a031633146128b35760405160e560020a62461bcd02815260040161086d906145cf565b600160a060020a0384166000908152600960205260409020548490156128ee5760405160e560020a62461bcd02815260040161086d906145bf565b6016546301000000900460ff161561290557600080fd5b601654640100000000900460ff16156129335760405160e560020a62461bcd02815260040161086d906145af565b600160a060020a0385166000908152600960209081526040808320839055600c909152812061296191613d0b565b600160a060020a0385166000908152600d602052604081208054600160a060020a031916905591505b600f548210156129ff5784600160a060020a0316600f838154811015156129ad57fe5b600091825260209091200154600160a060020a031614156129f457600f8054839081106129d657fe5b60009182526020909120018054600160a060020a03191690556129ff565b60019091019061298a565b7f534fe867fcd18d9d6f5f22aa672ea934f7f45cb109b283f70f4de5d2bbc71f07868686604051612a329392919061448a565b60405180910390a150600195945050505050565b601654640100000000900460ff1681565b600054600160a060020a031681565b60048054604080517f3c093d5a00000000000000000000000000000000000000000000000000000000815290516000938493600160a060020a031692633c093d5a928183019260209282900301818787803b158015612ac457600080fd5b505af1158015612ad8573d6000803e3d6000fd5b505050506040513d601f19601f82011682018060405250612afc9190810190613e2c565b600160a060020a03163314612b265760405160e560020a62461bcd02815260040161086d9061458f565b600160a060020a0383166000908152600b6020526040902054839015612b615760405160e560020a62461bcd02815260040161086d906145ff565b600160a060020a038516600090815260096020526040902054859015612b9c5760405160e560020a62461bcd02815260040161086d906145bf565b6016546301000000900460ff1615612bb357600080fd5b601654640100000000900460ff1615612be15760405160e560020a62461bcd02815260040161086d906145af565b600160a060020a038086166000908152600b602090815260408083208390559289168252600e90529081208054600160a060020a031916905592505b601054831015612c925784600160a060020a0316601084815481101515612c4057fe5b600091825260209091200154600160a060020a03161415612c87576010805484908110612c6957fe5b60009182526020909120018054600160a060020a0319169055612c92565b600190920191612c1d565b7f5979f2d5c2a55039e0944909f57404087e16171fa44b3e32147bde6f48bfe1d18686604051612cc3929190614431565b60405180910390a1600193505b50505092915050565b600d60205260009081526040902054600160a060020a031681565b600160a060020a038082166000908152600e60205260408120549091161515612d1c57600080fd5b50600160a060020a039081166000908152600e60205260409020541690565b600160a060020a038082166000908152600d60205260408120549091161515612d6357600080fd5b50600160a060020a039081166000908152600d60205260409020541690565b80600460009054906101000a9004600160a060020a0316600160a060020a031663f36675176040518163ffffffff1660e060020a028152600401602060405180830381600087803b158015612dd657600080fd5b505af1158015612dea573d6000803e3d6000fd5b505050506040513d601f19601f82011682018060405250612e0e9190810190613e2c565b600160a060020a03163314612e385760405160e560020a62461bcd02815260040161086d906145ef565b60008111612e5b5760405160e560020a62461bcd02815260040161086d9061461f565b6016546301000000900460ff1615612e7257600080fd5b601654640100000000900460ff1615612ea05760405160e560020a62461bcd02815260040161086d906145af565b50600160a060020a039091166000908152600a60205260409020805482019055601580549091019055565b600a6020526000908152604090205481565b60008054600160a060020a03163314612f0b5760405160e560020a62461bcd02815260040161086d906145df565b7fdd7221e8fae38eadd917726db6aa1477e63320aea2609f225f90fe8bb2ff601082604051612f3a9190614570565b60405180910390a1506016805464ff0000000019166401000000008315150217905590565b60008260008060008084935083600160a060020a0316637e5852d96040518163ffffffff1660e060020a028152600401602060405180830381600087803b158015612fa957600080fd5b505af1158015612fbd573d6000803e3d6000fd5b505050506040513d601f19601f82011682018060405250612fe19190810190614035565b925082156130045760405160e560020a62461bcd02815260040161086d9061460f565b60405160e060020a63efd46065028152309063efd460659061302a908890600401614423565b602060405180830381600087803b15801561304457600080fd5b505af1158015613058573d6000803e3d6000fd5b505050506040513d601f19601f8201168201806040525061307c9190810190614035565b156131945760405160e060020a63b7acf7c3028152309063b7acf7c3906130a7908890600401614423565b602060405180830381600087803b1580156130c157600080fd5b505af11580156130d5573d6000803e3d6000fd5b505050506040513d601f19601f820116820180604052506130f99190810190613e2c565b915081600160a060020a0316637e5852d96040518163ffffffff1660e060020a028152600401602060405180830381600087803b15801561313957600080fd5b505af115801561314d573d6000803e3d6000fd5b505050506040513d601f19601f820116820180604052506131719190810190614035565b905080156131945760405160e560020a62461bcd02815260040161086d9061460f565b6016546301000000900460ff16156131ab57600080fd5b601654640100000000900460ff16156131d95760405160e560020a62461bcd02815260040161086d906145af565b6131e28861387f565b600160a060020a0388166000908152600960205260409081902080548990039055517fd5d3187f4ee69cdab201eb2d01d5e0979950c476211c91e5370cabbb5c34692d906113b1908a908a90614533565b600160a060020a0381166000908152600c602090815260409182902080548351601f60026000196101006001861615020190931692909204918201849004840281018401909452808452606093928301828280156132d25780601f106132a7576101008083540402835291602001916132d2565b820191906000526020600020905b8154815290600101906020018083116132b557829003601f168201915b50505050509050919050565b600c6020908152600091825260409182902080548351601f600260001961010060018616150201909316929092049182018490048402810184019094528084529091830182828015611dd85780601f10611dad57610100808354040283529160200191611dd8565b600854600160a060020a031633146133735760405160e560020a62461bcd02815260040161086d9061459f565b601654640100000000900460ff16156133a15760405160e560020a62461bcd02815260040161086d906145af565b60018054600160a060020a03909216600160a060020a0319928316811790915560058054909216179055565b600160a060020a0382166000908152600960209081526040808320839055600c8252909120825161340092840190613c8d565b50600160a060020a038083166000818152600d6020908152604082208054948816600160a060020a0319958616179055600f805460018181019092557f8d1108e10bcb7c27dddfc02ed9d693a074039d026cf4ea4240b40f7d581ac802018054909516909317909355601180549283018082559152835190926134a9927f31ecc21a745e3968a04e9570e4425bc18fa8019c68028196b546d1669c200c68019190850190613c8d565b50507fce57b5f9720fa3562dd0b9eaf95894975c0b100ea8e3aa40a353228a7c1063e38383836040516134de9392919061448a565b60405180910390a1505050565b600654600160a060020a031681565b6060601080548060200260200160405190810160405280929190818152602001828054801561107357602002820191906000526020600020908154600160a060020a03168152600190910190602001808311611055575050505050905090565b6016546000906301000000900460ff161561357457600080fd5b601654640100000000900460ff16156135a25760405160e560020a62461bcd02815260040161086d906145af565b600160a060020a038316600090815260096020526040902080546004190190556012805460059081019091556135d9908490613c37565b50600160a060020a038083166000818152600b602090815260408083208390559387168252600e90528281208054600160a060020a031990811684179091556010805460018101825592527f1b6847dc741a1b0cd08d278845f9d819d87b734759afb55fe2de5cb82a9ae67290910180549091169091179055517f719114bb62dcf2ce1ce925182885f459c01951965d9a783e3de78bf19143850f906136829085908590614431565b60405180910390a15060015b92915050565b600854600160a060020a031633146136c15760405160e560020a62461bcd02815260040161086d9061459f565b601654640100000000900460ff16156136ef5760405160e560020a62461bcd02815260040161086d906145af565b60028054600160a060020a03909216600160a060020a0319928316811790915560068054909216179055565b600854600160a060020a031681565b60096020526000908152604090205481565b600854600160a060020a031633146137695760405160e560020a62461bcd02815260040161086d9061459f565b601654640100000000900460ff16156137975760405160e560020a62461bcd02815260040161086d906145af565b60038054600160a060020a03909216600160a060020a0319928316811790915560078054909216179055565b600160a060020a038082166000908152600e6020526040812054909116156110c6575060016108f6565b6000600460009054906101000a9004600160a060020a0316600160a060020a031663f36675176040518163ffffffff1660e060020a028152600401602060405180830381600087803b15801561384257600080fd5b505af1158015613856573d6000803e3d6000fd5b505050506040513d601f19601f8201168201806040525061387a9190810190613e2c565b905090565b6016546000908190640100000000900460ff16156138b25760405160e560020a62461bcd02815260040161086d906145af565b60405160e260020a6318675465028152839250600160a060020a0383169063619d5194906138e590600190600401614570565b600060405180830381600087803b1580156138ff57600080fd5b505af1158015613913573d6000803e3d6000fd5b505060405160e060020a63efd4606502815230925063efd46065915061393d908690600401614423565b602060405180830381600087803b15801561395757600080fd5b505af115801561396b573d6000803e3d6000fd5b505050506040513d601f19601f8201168201806040525061398f9190810190614035565b15613a725760405160e060020a63b7acf7c3028152309063b7acf7c3906139ba908690600401614423565b602060405180830381600087803b1580156139d457600080fd5b505af11580156139e8573d6000803e3d6000fd5b505050506040513d601f19601f82011682018060405250613a0c9190810190613e2c565b60405160e260020a6318675465028152909150600160a060020a0382169063619d519490613a3f90600190600401614570565b600060405180830381600087803b158015613a5957600080fd5b505af1158015613a6d573d6000803e3d6000fd5b505050505b505050565b6016546000908190640100000000900460ff1615613aaa5760405160e560020a62461bcd02815260040161086d906145af565b60405160e260020a6318675465028152839250600160a060020a0383169063619d519490613add90600090600401614570565b600060405180830381600087803b158015613af757600080fd5b505af1158015613b0b573d6000803e3d6000fd5b505060405160e060020a63efd4606502815230925063efd460659150613b35908690600401614423565b602060405180830381600087803b158015613b4f57600080fd5b505af1158015613b63573d6000803e3d6000fd5b505050506040513d601f19601f82011682018060405250613b879190810190614035565b15613a725760405160e060020a63b7acf7c3028152309063b7acf7c390613bb2908690600401614423565b602060405180830381600087803b158015613bcc57600080fd5b505af1158015613be0573d6000803e3d6000fd5b505050506040513d601f19601f82011682018060405250613c049190810190613e2c565b60405160e260020a6318675465028152909150600160a060020a0382169063619d519490613a3f90600090600401614570565b6000808211613c4557600080fd5b60128054830190556040517f353e5eeb76213a2ec8cc1db1fa84a2782f6129abcdee0e4c2238cb99fa83588990613c7f9085908590614533565b60405180910390a192915050565b828054600181600116156101000203166002900490600052602060002090601f016020900481019282601f10613cce57805160ff1916838001178555613cfb565b82800160010185558215613cfb579182015b82811115613cfb578251825591602001919060010190613ce0565b50613d07929150613d52565b5090565b50805460018160011615610100020316600290046000825580601f10613d315750613d4f565b601f016020900490600052602060002090810190613d4f9190613d52565b50565b61107b91905b80821115613d075760008155600101613d58565b6000613d788235614696565b9392505050565b6000613d788251614696565b6000613d7882356146a2565b6000613d7882516146a2565b6000613d7882356146a7565b6000601f82018313613dc057600080fd5b8135613dd3613dce82614664565b61463d565b91508082526020830160208301858383011115613def57600080fd5b612cd08382846146c1565b6000613d78823561107b565b600060208284031215613e1857600080fd5b6000613e248484613d6c565b949350505050565b600060208284031215613e3e57600080fd5b6000613e248484613d7f565b60008060408385031215613e5d57600080fd5b6000613e698585613d6c565b9250506020613e7a85828601613d6c565b9150509250929050565b60008060008060808587031215613e9a57600080fd5b6000613ea68787613d6c565b9450506020613eb787828801613d6c565b9350506040613ec887828801613d6c565b9250506060613ed987828801613d6c565b91505092959194509250565b600080600060608486031215613efa57600080fd5b6000613f068686613d6c565b9350506020613f1786828701613d6c565b925050604084013567ffffffffffffffff811115613f3457600080fd5b613f4086828701613daf565b9150509250925092565b60008060008060808587031215613f6057600080fd5b6000613f6c8787613d6c565b945050602085013567ffffffffffffffff811115613f8957600080fd5b613f9587828801613daf565b935050604085013567ffffffffffffffff811115613fb257600080fd5b613fbe87828801613daf565b925050606085013567ffffffffffffffff811115613fdb57600080fd5b613ed987828801613daf565b60008060408385031215613ffa57600080fd5b60006140068585613d6c565b9250506020613e7a85828601613dfa565b60006020828403121561402957600080fd5b6000613e248484613d8b565b60006020828403121561404757600080fd5b6000613e248484613d97565b60008060006060848603121561406857600080fd5b60006140748686613da3565b935050602061408586828701613d6c565b9250506040613f4086828701613d6c565b6000602082840312156140a857600080fd5b6000613e248484613dfa565b6140bd81614696565b82525050565b60006140ce82614692565b8084526020840193506140e08361468c565b60005b82811015614110576140f68683516140b4565b6140ff8261468c565b6020969096019591506001016140e3565b5093949350505050565b600061412582614692565b8084526020840193508360208202850161413e8561468c565b60005b84811015614175578383038852614159838351614193565b92506141648261468c565b602098909801979150600101614141565b50909695505050505050565b6140bd816146a2565b6140bd816146b6565b600061419e82614692565b8084526141b28160208601602086016146cd565b6141bb816146fd565b9093016020019392505050565b601d81527f53656e646572206973206e6f742043726561746f724661636f7472792e000000602082015260400190565b601681527f53656e646572206973206e6f7420526567697374657200000000000000000000602082015260400190565b601981527f436f6e7472616374207265717569726573207365742d75702e00000000000000602082015260400190565b602f81527f55736572206163636f756e74206d75737420626520656d707479206265666f7260208201527f65206265696e67206b696c6c65642e0000000000000000000000000000000000604082015260600190565b601981527f53656e646572206973206e6f742055736572466163746f727900000000000000602082015260400190565b601481527f53656e646572206973206e6f74206f776e65722e000000000000000000000000602082015260400190565b601481527f53656e646572206973206e6f74204d696e746572000000000000000000000000602082015260400190565b603281527f43726561746f72206163636f756e74206d75737420626520656d70747920626560208201527f666f7265206265696e67206b696c6c65642e0000000000000000000000000000604082015260600190565b602781527f436f6e74726163742063757272656e746c79206c6f636b65642e20506c65617360208201527f6520776169742e00000000000000000000000000000000000000000000000000604082015260600190565b601a81527f416d6f756e742063616e6e6f74206265206e656761746976652e000000000000602082015260400190565b6140bd8161107b565b6020810161368e82846140b4565b6040810161443f82856140b4565b613d7860208301846140b4565b6080810161445a82876140b4565b61446760208301866140b4565b61447460408301856140b4565b61448160608301846140b4565b95945050505050565b6060810161449882866140b4565b6144a560208301856140b4565b81810360408301526144818184614193565b604081016144c582856140b4565b613d78602083018461418a565b60a081016144e082886140b4565b81810360208301526144f28187614193565b905081810360408301526145068186614193565b9050818103606083015261451a8185614193565b9050614529608083018461441a565b9695505050505050565b6040810161454182856140b4565b613d78602083018461441a565b60208082528101613d7881846140c3565b60208082528101613d78818461411a565b6020810161368e8284614181565b60208082528101613d788184614193565b6020808252810161368e816141c8565b6020808252810161368e816141f8565b6020808252810161368e81614228565b6020808252810161368e81614258565b6020808252810161368e816142ae565b6020808252810161368e816142de565b6020808252810161368e8161430e565b6020808252810161368e8161433e565b6020808252810161368e81614394565b6020808252810161368e816143ea565b6020810161368e828461441a565b60405181810167ffffffffffffffff8111828210171561465c57600080fd5b604052919050565b600067ffffffffffffffff82111561467b57600080fd5b506020601f91909101601f19160190565b60200190565b5190565b600160a060020a031690565b151590565b600060038210613d0757600080fd5b600061368e8261107b565b82818337506000910152565b60005b838110156146e85781810151838201526020016146d0565b838111156146f7576000848401525b50505050565b601f01601f19169056005fc13a8cb79897556001bff3646be555a23490209aba88173cfa256d76220527a265627a7a72305820567e394a182055476efe0cc180b184c8756053b7214e355fd8be9a93d9b8ddf66c6578706572696d656e74616cf50037",
  "source": "pragma solidity 0.4.24;\r\npragma experimental ABIEncoderV2;\r\n\r\nimport \"./UserFactory.sol\";\r\nimport \"./ContentCreatorFactory.sol\";\r\nimport \"./LoveMachine.sol\";\r\nimport \"./Register.sol\";\r\n\r\ncontract DataStorage {\r\n    address public owner;\r\n\r\n    UserFactory uf;\r\n    ContentCreatorFactory ccf;\r\n    LoveMachine m;\r\n    Register registry;\r\n\r\n    address public userFactoryAddress;\r\n    address public ccFactoryAddress;\r\n    address public minterAddress;\r\n    address public registryAddress;\r\n    \r\n    mapping (address => uint) public allUsers; //userContract to views\r\n    mapping (address => uint) public UsersTotalViewPurchases;//userContract to total views bought\r\n    mapping (address => uint) public allCreators;//creatorContract to views\r\n    mapping (address => string) public allUserNames;//user contract address to userName\r\n    mapping (address => address) public userContractOwners;//userContract add to user add ress\r\n    mapping (address => address) public creatorsContractOwners;//userContract to creatorContract\r\n    address[] public usersAddresses;//contract addresses\r\n    address[] public creatorsAddresses;//creators contract addresses\r\n    string[] public usersNames;//userNames\r\n    uint public moderatorViews;\r\n    struct Content {\r\n        address creator;\r\n        string contentLocationIPFS;\r\n        string title;\r\n        string description;\r\n        uint views;\r\n    }\r\n    Content[] public allContent;\r\n    mapping (address => Content[]) public creatorContent;//ccc to array of content\r\n    uint private totalViewCreated;\r\n    \r\n    enum ViewsUsed {LIKED, LOVED, FANLOVED}\r\n    ViewsUsed liked = ViewsUsed.LIKED;\r\n    ViewsUsed loved = ViewsUsed.LOVED;\r\n    ViewsUsed fanLoved = ViewsUsed.FANLOVED;\r\n    \r\n    bool public emergencyStop = false;\r\n    bool public pause = true;\r\n    \r\n    event LogEmergency(bool emergency);\r\n    event LogPause(bool pause);\r\n    event LogSetUp(address userFactoryAddress, address creatorFactoryAddress, address minterAddress, address register);\r\n    event LogBoughtViewsUser(address account, uint amount);\r\n    event LogSoldViewsUser(address account, uint amount);\r\n    event LogModeriatorFund(address account, uint amount);\r\n    event LogUserCreated(address owner, address userContract, string userName);\r\n    event LogUserDeleted(address owner, address userContract, string userName);\r\n    event LogCreatorCreated(address userCOwner, address creatorContract);\r\n    event LogCreatorDeleted(address userContract, address creatorContract);\r\n    event LogContentCreated(uint indexed position, string indexed title, address indexed creator);\r\n    event LogCheckingData(address userContract);\r\n    \r\n    //Ensures the user can still withdraw during an emergency.\r\n    modifier onlyInEmergency {\r\n        require(emergencyStop);\r\n        _;\r\n    }\r\n    \r\n    //Ensures no sensitive transations happen in an emergency.\r\n    modifier stopInEmergency {\r\n        require(!emergencyStop);\r\n        _;\r\n    }\r\n    \r\n    //Ensures no state changes can happen untill the \r\n    //contract has finished being set up.\r\n    modifier pauseFunction {\r\n        require(!pause, \"Contract requires set-up.\");\r\n        _;\r\n    }\r\n    \r\n    //Ensures only the user can call the function.\r\n    modifier onlyOwner {\r\n        require(msg.sender == owner, \"Sender is not owner.\");\r\n        _;\r\n    }\r\n    \r\n    //Ensures only the owner can call the function \r\n    modifier onlyAUser(address _userAddress) {\r\n        require(allUsers[_userAddress] != 0, \"Address is not a user address.\");\r\n        _;\r\n    }\r\n    \r\n    //Ensures only the ContentCreatorFactory can call\r\n    //the function. Calls from register so that the most \r\n    //up to date contract is always used. \r\n    modifier onlyCreatorFactory {\r\n        require(\r\n            msg.sender == registry.getContentCreatorFactory(),\r\n            \"Sender is not CreatorFacotry.\"\r\n        );\r\n        _;\r\n    }\r\n    \r\n    //Ensures only the minter may call the function\r\n    modifier onlyMinter(uint _amount) {\r\n        require(msg.sender == registry.getMinter(), \"Sender is not Minter\");\r\n        require(_amount > 0, \"Amount cannot be negative.\");\r\n        _;\r\n    }\r\n    \r\n    //Ensures only they UserFactory can call the function.\r\n    modifier onlyUserFactory {\r\n        require(msg.sender == registry.getUserFactory(), \"Sender is not UserFactory\");\r\n        _;\r\n    }\r\n    \r\n    //Ensures only the Register can call this function.\r\n    modifier onlyRegistry {\r\n        require(msg.sender == registryAddress, \"Sender is not Register\");\r\n        _;\r\n    }\r\n    \r\n    //Ensures the user is not making another state change. \r\n    modifier lockCheck(address _user) {\r\n        User u = User(_user);\r\n        bool lock = u.getLock();\r\n        require(!lock, \"Contract currently locked. Please wait.\");\r\n        if(this.isCreator(_user)) {\r\n            ContentCreator cc = ContentCreator(this.getCreatorAddressFromUser(_user));\r\n            bool ccLock = cc.getLock();\r\n            require(!ccLock, \"Contract currently locked. Please wait.\");\r\n        }\r\n        _;\r\n    }\r\n    \r\n    //Ensures the _userName is unique. \r\n    // modifier uniqueUserName(string _userName) {\r\n    //     for(uint i = 0; i < usersNames.length; i++){\r\n    //         require(\r\n    //             keccak256(_userName) != keccak256(usersNames[i]), \r\n    //             \"UserName has to be unique.\"\r\n    //         );\r\n    //     }\r\n    //     _;\r\n    // }\r\n    \r\n    //Ensures the user has no more views before they get deleted. \r\n    modifier beforeDeleteChecksUser(address _userContract) {\r\n        require(\r\n            allUsers[_userContract] == 0, \r\n            \"User account must be empty before being killed.\"\r\n        );\r\n        _;\r\n    }\r\n    \r\n    //Ensures the Creator has no more views before \r\n    //deleteing their account. \r\n    modifier beforeDeleteChecksCreator(address _creatorContract) {\r\n        require(\r\n            allCreators[_creatorContract] == 0, \r\n            \"Creator account must be empty before being killed.\"\r\n        );\r\n        _;\r\n    }\r\n    \r\n    /**\r\n      * @dev Creates all the contracts that use this dataStorage. \r\n      * @notice The constructor and contract setup has been seporated\r\n      *     becuse the constructor dose not create an address for itself\r\n      *     untill the constructor has finished. \r\n      */\r\n    constructor()\r\n        public\r\n    {\r\n        owner = msg.sender;    \r\n        // ccFactoryAddress = new ContentCreatorFactory();\r\n        // userFactoryAddress = new UserFactory();\r\n        // minterAddress = new LoveMachine();\r\n        // registryAddress = new Register();\r\n        \r\n        // ccf = ContentCreatorFactory(ccFactoryAddress);\r\n        // uf = UserFactory(userFactoryAddress);\r\n        // m = LoveMachine(minterAddress);\r\n        // registry = Register(registryAddress);\r\n    }\r\n    \r\n    /**\r\n      * @dev This function sets up all the contracts and inputs the \r\n      *     various addresses they all need after they have all been \r\n      *     created by blank constructors. \r\n      * @notice This function sets paused to false and allows the data \r\n      *     storage to be used for state modification. \r\n      */\r\n    function setUpDataContracts(\r\n        address _userFactoryAddress,\r\n        address _ccFactoryAddress,\r\n        address _minterAddress,\r\n        address _register\r\n        )\r\n        public\r\n        onlyOwner \r\n        stopInEmergency\r\n        returns(bool)\r\n    {\r\n        ccf = ContentCreatorFactory(_ccFactoryAddress);\r\n        ccFactoryAddress = _ccFactoryAddress;\r\n        uf = UserFactory(_userFactoryAddress);\r\n        userFactoryAddress = _userFactoryAddress;\r\n        m = LoveMachine(_minterAddress);\r\n        minterAddress = _minterAddress;\r\n        registry = Register(_register);\r\n        \r\n        // ccf.constructorFunction(this);\r\n        // uf.constructorFunction(this, owner, ccFactoryAddress);\r\n        // m.constructorFunction(this);\r\n        // registry.constructorFunction(\r\n        //     userFactoryAddress,\r\n        //     ccFactoryAddress,\r\n        //     minterAddress,\r\n        //     owner,\r\n        //     this\r\n        // );\r\n        \r\n        setPause(false);\r\n        \r\n        emit LogSetUp(_userFactoryAddress, _ccFactoryAddress, _minterAddress, _register);\r\n        \r\n        return true;\r\n    }\r\n    \r\n    /**\r\n      * @dev Locks the user so that no other state changes\r\n      *     for that user may occur at the same time, thus preventing reentry attacks \r\n      *     and other recursion atacks. It also helps with code readability.\r\n      *     As an instance of a User is being created, we have to check the address\r\n      *     dose belong to a user. \r\n      * @notice creating instances of the users is expensive and inifiecient. Future\r\n      *     versions will allow for the users data to be entirely stored in the \r\n      *     dataStorage, meaning an instance of the user dose not need to be created \r\n      *     to check or set their lock. \r\n      * @param _user : The user who is making the state change. \r\n      */\r\n    function lockUser(address _user) \r\n        private\r\n        //onlyAUser(_user)\r\n        pauseFunction\r\n    {\r\n        User u;\r\n        u = User(_user);\r\n        u.setLock(true);\r\n        if(this.isCreator(_user)) {\r\n            ContentCreator ccc = ContentCreator(this.getCreatorAddressFromUser(_user));\r\n            ccc.setLock(true);\r\n        }\r\n    }\r\n    \r\n    /**\r\n      * @dev Unlocks the user so they may make other state changes. \r\n      * @notice creating instances of the users is expensive and inifiecient. Future\r\n      *     versions will allow for the users data to be entirely stored in the \r\n      *     dataStorage, meaning an instance of the user dose not need to be created \r\n      *     to check or set their lock. \r\n      * @param _user : The user who is being unlocked to make state changes.\r\n      */\r\n    function unlockUser(address _user)\r\n        private\r\n        //onlyAUser(_user)\r\n        pauseFunction\r\n    {\r\n        User u;\r\n        u = User(_user);\r\n        u.setLock(false);\r\n        if(this.isCreator(_user)) {\r\n            ContentCreator ccc = ContentCreator(this.getCreatorAddressFromUser(_user));\r\n            ccc.setLock(false);\r\n        }\r\n    }\r\n    \r\n    /**\r\n      * @return address : The address of the minter.\r\n      */\r\n    function getMinter()\r\n        public\r\n        view\r\n        returns(address)\r\n    {\r\n        return registry.getMinter();\r\n    }\r\n    \r\n    /**\r\n      * @return address[] : The addresses of all Users. \r\n      */\r\n    function getAllUserAddresses() \r\n        public \r\n        view\r\n        returns(address[])\r\n    {\r\n        return usersAddresses;\r\n    }\r\n\r\n    /**\r\n      * @return address[] : The addresses of all creators. \r\n      */\r\n    function getAllCreatorsAddresses() \r\n        public \r\n        view\r\n        returns(address[])\r\n    {\r\n        return creatorsAddresses;\r\n    }\r\n\r\n    /**\r\n      * @return string[] : All user names registered. \r\n      */\r\n    function getAllUsersNames() \r\n        public \r\n        view\r\n        returns(string[])\r\n    {\r\n        return usersNames;\r\n    }\r\n    \r\n    /**\r\n      * @param _user : The address of the user whos \r\n      *     name is wanted.  \r\n      * @return string : A users name. \r\n      */\r\n    function getAUsersName(address _user)\r\n        public\r\n        view\r\n        returns(string)    \r\n    {\r\n        string userName = allUserNames[_user];\r\n        return(userName);\r\n    }\r\n    \r\n    /**\r\n      * @param _userAddress : The address of the user \r\n      *     that is being checked as a creator. \r\n      * @return bool : Wether they are a creator or not.      \r\n      */\r\n    function isCreator(address _userAddress)\r\n        public\r\n        view\r\n        returns(bool)\r\n    {\r\n        if(creatorsContractOwners[_userAddress] != 0) {\r\n            return true;\r\n        }\r\n        return false;\r\n    }\r\n    \r\n    /**\r\n      * @param _addressToCheck : The address to be checked. \r\n      * @return bool : Wether the address is a user. \r\n      */\r\n    function isUser(address _addressToCheck)\r\n        public\r\n        view\r\n        returns(bool)\r\n    {\r\n        if(userContractOwners[_addressToCheck] != 0) {\r\n            return true;\r\n        }\r\n        return false;\r\n    }\r\n    \r\n    /**\r\n      * @param _userAddress : The user address\r\n      * @return address : The address of the users Creator contract. \r\n      */\r\n    function getCreatorAddressFromUser(address _userAddress)\r\n        public\r\n        view\r\n        returns(address)\r\n    {\r\n        require(creatorsContractOwners[_userAddress] != 0);\r\n        return creatorsContractOwners[_userAddress];\r\n    }\r\n\r\n    /**\r\n      * @param _contractAddress : The address of the users contract. \r\n      * @return address : The address of the owner.\r\n      */\r\n    function getAUsersOwnerData(address _contractAddress)\r\n        public\r\n        view\r\n        returns(address)\r\n    {\r\n        require(userContractOwners[_contractAddress] != 0);\r\n        return(userContractOwners[_contractAddress]);\r\n    }\r\n\r\n    /**\r\n      * @param _contractAddress : The address of the useowner.\r\n      * @return string : The users UserName. \r\n      */\r\n    function getAUsersNameData(address _contractAddress)\r\n        public\r\n        view\r\n        returns(string)\r\n    {\r\n        //require(allUsers[_contractAddress] != 0);\r\n        return(allUserNames[_contractAddress]);\r\n    }\r\n    \r\n    /**\r\n      * @dev This function dose not need user locks or safy checks \r\n      *     as it is mearly a counter for views dispenced and the users \r\n      *     total amount of views purchased. \r\n      * @param _user : The users address.\r\n      *     _amount : The amount of views purchased. \r\n      */\r\n    function setTotalViewsDispenced(address _user, uint _amount) \r\n        public \r\n        onlyMinter(_amount)\r\n        stopInEmergency\r\n        pauseFunction\r\n    {\r\n        UsersTotalViewPurchases[_user] += _amount;\r\n        totalViewCreated += _amount;\r\n    }\r\n    \r\n    /**\r\n      * @dev For when a content creator whishes to delete their account.\r\n      * @param _ccc : The content creator contract address.\r\n      *     _userContract : The address of the users account.\r\n      */\r\n    function moveAllFundsToUser(address _ccc, address _userContract)\r\n        public\r\n        onlyCreatorFactory\r\n        lockCheck(_userContract)\r\n    {\r\n        lockUser(_userContract);\r\n        \r\n        uint allFunds = allCreators[_ccc];\r\n        allCreators[_ccc] -= allFunds;\r\n        \r\n        allUsers[_userContract] += allFunds;\r\n        \r\n        unlockUser(_userContract);\r\n    }\r\n    \r\n    /**\r\n      * @dev Called when views are being taken out of an account \r\n      *     and  do not need to be paid to a creator.\r\n      * @param _adder : Whom ever is being 'charged' the View.\r\n      *     _amount : The amount of views being taken from the adder. \r\n      * @return bool : Compleated function. \r\n      */\r\n    function addToModeratorFund(address _adder, uint _amount)\r\n        internal \r\n        returns(bool)\r\n    {\r\n        require(_amount > 0);\r\n        moderatorViews += _amount;\r\n        \r\n        emit LogModeriatorFund(_adder, _amount);\r\n    }\r\n    \r\n    /**\r\n      * @dev Allows for the owner to set the emergency state. \r\n      * @notice This function takes in a bool instead of being two \r\n      *     functions (one that sets true and one that sets false) \r\n      *     as to simplify access. \r\n      * @param _emergencyState : The state to set emergency to. \r\n      * @return bool : Returns true once function compleate.\r\n      */\r\n    function setEmergency(bool _emergencyState)\r\n        public \r\n        onlyOwner \r\n        pauseFunction\r\n        returns(bool)\r\n    {\r\n        emit LogEmergency(_emergencyState);\r\n        \r\n        emergencyStop = _emergencyState;\r\n        return true;\r\n    }\r\n    \r\n    /**\r\n      * @dev Sets the pause function. Is not stopped during emergency \r\n      *     to allow for state mutability to be changed during an emergency. \r\n      */\r\n    function setPause(bool pauseState) \r\n        public\r\n        onlyOwner\r\n        returns(bool) \r\n    {\r\n        emit LogPause(pauseState);\r\n        \r\n        return pause = pauseState;\r\n    }\r\n    \r\n    /**\r\n      * @dev used to update the dataStorages instance of the ccontract.\r\n      * @param _newUserFactory : The address of the new contract. \r\n      */\r\n    function registryUpdateUserFactory(address _newUserFactory)\r\n        public\r\n        onlyRegistry\r\n        pauseFunction\r\n    {\r\n        uf = UserFactory(_newUserFactory);\r\n        userFactoryAddress = _newUserFactory;\r\n    }\r\n    \r\n    /**\r\n      * @dev used to update the dataStorages instance of the ccontract.\r\n      * @param _newCCFactory : The address of the new contract. \r\n      */\r\n    function registryUpdateCCFactory(address _newCCFactory)\r\n        public\r\n        onlyRegistry\r\n        pauseFunction\r\n    {\r\n        ccf = ContentCreatorFactory(_newCCFactory);\r\n        ccFactoryAddress = _newCCFactory;\r\n    }\r\n    \r\n    /**\r\n      * @dev used to update the dataStorages instance of the ccontract.\r\n      * @param _newMinter : The address of the new contract. \r\n      */\r\n    function registryUpdateMinter(address _newMinter)\r\n        public\r\n        onlyRegistry\r\n        pauseFunction\r\n    {\r\n        m = LoveMachine(_newMinter);\r\n        minterAddress = _newMinter;\r\n    }\r\n\r\n    /**\r\n      * @dev Creates a new userUser. \r\n      * @notice Only the user factory can call the creation of a new \r\n      *     user, so that the user has to be registed to the system \r\n      *     and to ensure that the user is an actual user and belongs to \r\n      *     the  UserFactory.\r\n      * @param _user : The address of the creators wallet. \r\n      *     _userContract : The address of the users created user contract.\r\n      *     _userName : The users chosen userName. \r\n      */\r\n    function setNewUserData(address _user, address _userContract, string _userName)\r\n        public \r\n        //onlyUserFactory\r\n        //lockCheck(_userContract)\r\n        //stopInEmergency\r\n        //pauseFunction\r\n    {\r\n        //lockUser(_userContract);\r\n        \r\n        allUsers[_userContract] = 0;\r\n        allUserNames[_userContract] = _userName;\r\n        userContractOwners[_userContract] = _user;\r\n        usersAddresses.push(_userContract);\r\n        usersNames.push(_userName);\r\n        \r\n        emit LogUserCreated(_user, _userContract, _userName);\r\n        \r\n        //unlockUser(_userContract);\r\n    }\r\n    \r\n    /** \r\n      * @dev Called by the users Factory by the users contract to delete the \r\n      *     users details and send all their views back to them as Ether. \r\n      * @notice This method implements the lock to ensure no other transactions\r\n      *     are happening before the users Contract is deleted.\r\n      * @param _user : The address of the users contract. To be removed \r\n      *         in future versions and the address of the users wallet from \r\n      *         storage.\r\n      *     _userContract : The address of the users Contract.\r\n      *     string _usrName: The users name.\r\n      */\r\n    function removeUserData(address _user, address _userContract, string _userName)\r\n        public\r\n        onlyUserFactory \r\n        beforeDeleteChecksUser(_userContract) \r\n        stopInEmergency\r\n        pauseFunction\r\n        returns(bool)\r\n    {\r\n        //function is called through the user factory, but the account should \r\n            //have all funds sent to their users wallets. \r\n        //TODO: delete creator content as well. \r\n        delete allUsers[_userContract];\r\n        delete allUserNames[_userContract];\r\n        delete userContractOwners[_userContract];\r\n        for(uint i = 0; i < usersAddresses.length; i++) {\r\n            if(usersAddresses[i] == _userContract) {\r\n                delete usersAddresses[i];\r\n                break;\r\n            }\r\n        }\r\n        // for(uint a = 0; a < usersNames.length; a++) {\r\n        //     if(keccak256(usersNames[a]) == keccak256(_userName)) {\r\n        //         delete usersNames[a];\r\n        //         break;\r\n        //     }\r\n        // }\r\n        \r\n        emit LogUserDeleted(_user, _userContract, _userName);\r\n        \r\n        return true;\r\n    }\r\n    \r\n    /**\r\n      * @dev This allows a new creator to be finalized and stored.\r\n      * @notice The 'transaction fee' of a like (5 views) is taken \r\n      *     and added to the moderator fund, to help pay for the \r\n      *     moderation of content. \r\n      *     This method can only be called by the minter as the minter \r\n      *     needs to handle all payable methods values.\r\n      * @param _userContract : The address of the users contract.\r\n      *     _creatorContract : The address of the new Creators contract.\r\n      */\r\n    function setNewCreatorData(address _userContract, address _creatorContract) \r\n        public \r\n        //onlyMinter(1) \r\n        stopInEmergency \r\n        pauseFunction\r\n        returns(bool)\r\n    {\r\n        // require(\r\n        //     allUsers[_userContract] > 5, \r\n        //     \"You need to be able to like your own stuff.\"\r\n        // );\r\n        allUsers[_userContract] -= 5;\r\n        moderatorViews += 5;\r\n        \r\n        addToModeratorFund(_userContract, 5);\r\n        \r\n        allCreators[_creatorContract] = 0;\r\n        creatorsContractOwners[_userContract] = _creatorContract;\r\n        creatorsAddresses.push(_creatorContract);\r\n        \r\n        emit LogCreatorCreated(_userContract, _creatorContract);\r\n        \r\n        return true;\r\n    }\r\n\r\n    /**\r\n      * @dev Removes the creators data and deletes all their information off \r\n      *     the system. It requires that the user has already cleared their \r\n      *     balance. This function deletes the user information and the \r\n      *     creator information. \r\n      * @param _userContract : The address of the user contract. \r\n      *     _creatorContract : The address of the creators contract. \r\n      * @return bool : After the function has been completed. \r\n      */\r\n    function removeCreatorData(address _userContract, address _creatorContract) \r\n        public\r\n        onlyCreatorFactory \r\n        beforeDeleteChecksCreator(_creatorContract) \r\n        beforeDeleteChecksUser(_userContract)\r\n        stopInEmergency\r\n        pauseFunction\r\n        returns(bool)\r\n    {\r\n        delete allCreators[_creatorContract];\r\n        delete creatorsContractOwners[_userContract];\r\n        for(uint a = 0; a < creatorsAddresses.length; a++) {\r\n            if(creatorsAddresses[a] == _creatorContract) {\r\n                delete creatorsAddresses[a];\r\n                break;\r\n            }\r\n        }\r\n        \r\n        emit LogCreatorDeleted(_userContract, _creatorContract);\r\n        \r\n        return true;\r\n    }\r\n\r\n    /**\r\n      * @dev Saves a users purchase of views after LoveMachine has been paid.\r\n      * @param _userContract : The users contract address.\r\n      *     _amount : The amount of views the user has already paid for in the \r\n      *         LoveMachine.\r\n      * @return bool After it has changed the users balance.\r\n      */\r\n    function buyViewsSave(address _userContract, uint _amount)\r\n        public\r\n        //onlyMinter(_amount)\r\n        lockCheck(_userContract)\r\n        stopInEmergency\r\n        pauseFunction\r\n        returns(bool)\r\n    {\r\n        lockUser(_userContract);\r\n        \r\n        allUsers[_userContract] += _amount - 5;\r\n        setTotalViewsDispenced(_userContract, _amount - 5);\r\n        \r\n        addToModeratorFund(_userContract, 5);\r\n        \r\n        emit LogBoughtViewsUser(_userContract, _amount - 5);\r\n        \r\n        unlockUser(_userContract);\r\n        return true;\r\n    }\r\n    \r\n    /**\r\n      * @dev Saves a users sale of views before the LoveMachine pays the user the \r\n      *     value of the views in Ether.\r\n      * @notice the assert is used as a prevention of underflow.\r\n      * @param _userContract : The users contract address.\r\n      *     _amount : The amount of views the user is selling. \r\n      * @return bool After it has changed the users balance.\r\n      */\r\n    function sellViewsSave(address _userContract, uint _amount)\r\n        public\r\n        //onlyMinter(_amount)\r\n        lockCheck(_userContract)\r\n        stopInEmergency\r\n        pauseFunction\r\n        returns(bool)\r\n    {\r\n        lockUser(_userContract);\r\n        \r\n        //assert(allUsers[_userContract] - _amount > 0);\r\n        \r\n        allUsers[_userContract] = allUsers[_userContract] - _amount;\r\n\r\n        emit LogSoldViewsUser(_userContract, _amount);\r\n        \r\n        unlockUser(_userContract);\r\n        return true;\r\n    }\r\n    \r\n    /**\r\n      * @dev Allows a creator to send views from their user contract (where they can \r\n      *     buy and sell views) to their creator contract.\r\n      * @notice This function is nessasary as the seporation of user contracts from \r\n      *     creator contracts prevents some reentry attacks. \r\n      * @param _user : The users contracts account. \r\n      *     _amount: The amount of views they wish to transfer from their user contract \r\n      *         to their creator accouhnt. Amount is set in the LoveMachine, and \r\n      *         check here. \r\n      * @return bool After the function has compleated. \r\n      */\r\n    function fromUserToCreator(address _user, uint _amount) \r\n        public\r\n        onlyMinter(_amount)\r\n        lockCheck(_user)\r\n        stopInEmergency\r\n        pauseFunction\r\n        returns(bool)\r\n    {\r\n        lockUser(_user);\r\n        \r\n        require(isCreator(_user));\r\n        require(allUsers[_user] > _amount);\r\n        allUsers[_user] -= _amount;\r\n        allCreators[getCreatorAddressFromUser(_user)] += _amount;\r\n        \r\n        unlockUser(_user);\r\n        return true;\r\n        \r\n    }\r\n    \r\n    /**\r\n      * @dev Allows the creator to send views from their creator account to their\r\n      *     user contract account so they can sell them back for Ether, or so they \r\n      *     can view and consume contennt. \r\n      * @notice This function is nessasary for the compleate seporation of consurns \r\n      *     and to prevent various weaknesses and attack points through reeentry. \r\n      *     No views are being bought or sold and therefore there are no emits or \r\n      *     logs of any kind. \r\n      *     Function checks that the _amount is not more than the creator address has. \r\n      * @param _user : The users contract address.\r\n      *     _amount : The amount of views they wish to transfer. \r\n      */\r\n    function fromCreatorToUser(address _user, uint _amount)\r\n        public\r\n        onlyMinter(_amount)\r\n        lockCheck(_user)\r\n        stopInEmergency\r\n        pauseFunction\r\n        returns(bool)\r\n    {\r\n        lockUser(_user);\r\n        \r\n        require(isCreator(_user));\r\n        require(allCreators[getCreatorAddressFromUser(_user)] > _amount);\r\n        allCreators[getCreatorAddressFromUser(_user)] -= _amount;\r\n        allUsers[_user] += _amount;\r\n        \r\n        unlockUser(_user);\r\n        return true;\r\n    }\r\n    \r\n    /**\r\n      * @dev Minter calls this when a user likes content. \r\n      * @notice Only the user is locked as the content creator should be able to \r\n      *     recive multipule likes, and should not be licked by each one as this \r\n      *     would slow down the system sygnificantly.\r\n      */\r\n    function storingLikes(ViewsUsed viewUsedRecived, address _contentOwner, address _user)\r\n        public \r\n        onlyMinter(1)\r\n        lockCheck(_user)\r\n        stopInEmergency\r\n        pauseFunction\r\n    {\r\n        lockUser(_user);\r\n        \r\n        if (viewUsedRecived == ViewsUsed.LIKED) {\r\n            require(allUsers[_user] > 5);\r\n            allUsers[_user] -= 5;\r\n            allCreators[_contentOwner] += 5;\r\n            \r\n            emit LogBoughtViewsUser(_user, 5);\r\n        }\r\n        if (viewUsedRecived == ViewsUsed.LOVED) {\r\n            require(allUsers[_user] > 15);\r\n            allUsers[_user] -= 15;\r\n            allCreators[_contentOwner] += 15;\r\n            addToModeratorFund(_user, 15);\r\n            \r\n            emit LogBoughtViewsUser(_user, 15);\r\n        }\r\n        if (viewUsedRecived == ViewsUsed.FANLOVED) {\r\n            require(allUsers[_user] > 25);\r\n            allUsers[_user] -= 25;\r\n            allCreators[_contentOwner] += 25;\r\n            addToModeratorFund(_user, 25);\r\n            \r\n            emit LogBoughtViewsUser(_user, 25);\r\n        }\r\n        \r\n        unlockUser(_user);\r\n    }\r\n\r\n    /**\r\n      * @dev This function allows for the storage of newly created content. \r\n      * @notice This contract can only be called by the minter as the \r\n      *     minter handles a;; calles that have the potential for value \r\n      *     transfer.\r\n      */\r\n    function createContent(\r\n        address _contentCreatorContract, \r\n        string _addressIPFS, \r\n        string _title, \r\n        string _description\r\n        )\r\n        public\r\n        onlyMinter(1)\r\n        stopInEmergency\r\n        pauseFunction\r\n    {\r\n        creatorContent[_contentCreatorContract].push(Content({creator: _contentCreatorContract,\r\n        contentLocationIPFS: _addressIPFS,\r\n        title: _title,\r\n        description: _description,\r\n        views: 0}));\r\n        //reducing balance of content creator\r\n        require(allCreators[_contentCreatorContract] > 5);\r\n        allCreators[_contentCreatorContract] -= 5;\r\n        moderatorViews += 5;\r\n        \r\n        addToModeratorFund(_contentCreatorContract, 5);\r\n        \r\n        allContent.push(Content({\r\n            creator: _contentCreatorContract,\r\n            contentLocationIPFS: _addressIPFS,\r\n            title: _title,\r\n            description: _description,\r\n            views: 0\r\n        })); \r\n        //for front end to have access to lates and all content\r\n        emit LogContentCreated(allContent.length, _title, _contentCreatorContract);\r\n        //For the indervidual conent creators to be able to claim ownership of content\r\n        uint length = creatorContent[_contentCreatorContract].length;\r\n        creatorContent[_contentCreatorContract][length] = Content({\r\n            creator: _contentCreatorContract,\r\n            contentLocationIPFS: _addressIPFS,\r\n            title: _title,\r\n            description: _description,\r\n            views: 0\r\n        });\r\n        \r\n        Content[] storage temp = creatorContent[_contentCreatorContract];\r\n        temp.push(Content({\r\n            creator: _contentCreatorContract,\r\n            contentLocationIPFS: _addressIPFS,\r\n            title: _title,\r\n            description: _description,\r\n            views: 0\r\n        }));\r\n    }    \r\n    \r\n    /**\r\n      * @dev Checks the uniqueness of a userName. \r\n      * @param _userName : The userName to be checked. \r\n      * @return bool : Wether the user name is unique or \r\n      *     not.\r\n      */\r\n    // function isUnique(string _userName)\r\n    //     public\r\n    //     view\r\n    //     returns(bool)\r\n    // {\r\n    //     for(uint i = 0; i < usersNames.length; i++){\r\n    //         if(\r\n    //             keccak256(_userName) != keccak256(usersNames[i])) \r\n    //         {\r\n    //         } else {\r\n    //             return false;\r\n    //         }\r\n    //     }\r\n    //     return true;\r\n    // }\r\n\r\n    /**\r\n      * @dev This function allows the register to replace itself. \r\n      * @notice The function in the register that allows it to be \r\n      *     replaced can only be called by the owner. \r\n      * @param _newRegister : The address of the new register. \r\n      */\r\n    function updateRegister(address _newRegister) \r\n        onlyRegistry\r\n        pauseFunction\r\n        public\r\n    {\r\n        registry = Register(_newRegister);\r\n    } \r\n}",
  "sourcePath": "C:\\Users\\Veronica Coutts\\Desktop\\Desktop\\Work\\Web3 Projects\\MVP\\mvp\\contracts\\DataStorage.sol",
  "compiler": {
    "name": "solc",
    "version": "0.4.24+commit.e67f0147.Emscripten.clang"
  },
  "schemaVersion": "2.0.1",
  "updatedAt": "2018-08-26T16:46:55.701Z"
}