{
  "contractName": "DataStorage",
  "abi": [
    {
      "constant": true,
      "inputs": [
        {
          "name": "",
          "type": "uint256"
        }
      ],
      "name": "creatorsAddresses",
      "outputs": [
        {
          "name": "",
          "type": "address"
        }
      ],
      "payable": false,
      "stateMutability": "view",
      "type": "function"
    },
    {
      "constant": true,
      "inputs": [
        {
          "name": "",
          "type": "uint256"
        }
      ],
      "name": "allContent",
      "outputs": [
        {
          "name": "creator",
          "type": "address"
        },
        {
          "name": "contentLocationIPFS",
          "type": "string"
        },
        {
          "name": "title",
          "type": "string"
        },
        {
          "name": "description",
          "type": "string"
        },
        {
          "name": "views",
          "type": "uint256"
        }
      ],
      "payable": false,
      "stateMutability": "view",
      "type": "function"
    },
    {
      "constant": true,
      "inputs": [],
      "name": "moderatorViews",
      "outputs": [
        {
          "name": "",
          "type": "uint256"
        }
      ],
      "payable": false,
      "stateMutability": "view",
      "type": "function"
    },
    {
      "constant": true,
      "inputs": [
        {
          "name": "",
          "type": "address"
        }
      ],
      "name": "creatorsContractOwners",
      "outputs": [
        {
          "name": "",
          "type": "address"
        }
      ],
      "payable": false,
      "stateMutability": "view",
      "type": "function"
    },
    {
      "constant": true,
      "inputs": [],
      "name": "minterAddress",
      "outputs": [
        {
          "name": "",
          "type": "address"
        }
      ],
      "payable": false,
      "stateMutability": "view",
      "type": "function"
    },
    {
      "constant": true,
      "inputs": [],
      "name": "userFactoryAddress",
      "outputs": [
        {
          "name": "",
          "type": "address"
        }
      ],
      "payable": false,
      "stateMutability": "view",
      "type": "function"
    },
    {
      "constant": true,
      "inputs": [
        {
          "name": "",
          "type": "uint256"
        }
      ],
      "name": "usersNames",
      "outputs": [
        {
          "name": "",
          "type": "string"
        }
      ],
      "payable": false,
      "stateMutability": "view",
      "type": "function"
    },
    {
      "constant": true,
      "inputs": [],
      "name": "emergencyStop",
      "outputs": [
        {
          "name": "",
          "type": "bool"
        }
      ],
      "payable": false,
      "stateMutability": "view",
      "type": "function"
    },
    {
      "constant": true,
      "inputs": [
        {
          "name": "",
          "type": "address"
        },
        {
          "name": "",
          "type": "uint256"
        }
      ],
      "name": "creatorContent",
      "outputs": [
        {
          "name": "creator",
          "type": "address"
        },
        {
          "name": "contentLocationIPFS",
          "type": "string"
        },
        {
          "name": "title",
          "type": "string"
        },
        {
          "name": "description",
          "type": "string"
        },
        {
          "name": "views",
          "type": "uint256"
        }
      ],
      "payable": false,
      "stateMutability": "view",
      "type": "function"
    },
    {
      "constant": true,
      "inputs": [
        {
          "name": "",
          "type": "address"
        }
      ],
      "name": "allCreators",
      "outputs": [
        {
          "name": "",
          "type": "uint256"
        }
      ],
      "payable": false,
      "stateMutability": "view",
      "type": "function"
    },
    {
      "constant": true,
      "inputs": [
        {
          "name": "",
          "type": "uint256"
        }
      ],
      "name": "usersAddresses",
      "outputs": [
        {
          "name": "",
          "type": "address"
        }
      ],
      "payable": false,
      "stateMutability": "view",
      "type": "function"
    },
    {
      "constant": true,
      "inputs": [],
      "name": "pause",
      "outputs": [
        {
          "name": "",
          "type": "bool"
        }
      ],
      "payable": false,
      "stateMutability": "view",
      "type": "function"
    },
    {
      "constant": true,
      "inputs": [],
      "name": "owner",
      "outputs": [
        {
          "name": "",
          "type": "address"
        }
      ],
      "payable": false,
      "stateMutability": "view",
      "type": "function"
    },
    {
      "constant": true,
      "inputs": [
        {
          "name": "",
          "type": "address"
        }
      ],
      "name": "userContractOwners",
      "outputs": [
        {
          "name": "",
          "type": "address"
        }
      ],
      "payable": false,
      "stateMutability": "view",
      "type": "function"
    },
    {
      "constant": true,
      "inputs": [
        {
          "name": "",
          "type": "address"
        }
      ],
      "name": "UsersTotalViewPurchases",
      "outputs": [
        {
          "name": "",
          "type": "uint256"
        }
      ],
      "payable": false,
      "stateMutability": "view",
      "type": "function"
    },
    {
      "constant": true,
      "inputs": [
        {
          "name": "",
          "type": "address"
        }
      ],
      "name": "allUserNames",
      "outputs": [
        {
          "name": "",
          "type": "string"
        }
      ],
      "payable": false,
      "stateMutability": "view",
      "type": "function"
    },
    {
      "constant": true,
      "inputs": [],
      "name": "ccFactoryAddress",
      "outputs": [
        {
          "name": "",
          "type": "address"
        }
      ],
      "payable": false,
      "stateMutability": "view",
      "type": "function"
    },
    {
      "constant": true,
      "inputs": [],
      "name": "registryAddress",
      "outputs": [
        {
          "name": "",
          "type": "address"
        }
      ],
      "payable": false,
      "stateMutability": "view",
      "type": "function"
    },
    {
      "constant": true,
      "inputs": [
        {
          "name": "",
          "type": "address"
        }
      ],
      "name": "allUsers",
      "outputs": [
        {
          "name": "",
          "type": "uint256"
        }
      ],
      "payable": false,
      "stateMutability": "view",
      "type": "function"
    },
    {
      "inputs": [],
      "payable": false,
      "stateMutability": "nonpayable",
      "type": "constructor"
    },
    {
      "anonymous": false,
      "inputs": [
        {
          "indexed": false,
          "name": "emergency",
          "type": "bool"
        }
      ],
      "name": "LogEmergency",
      "type": "event"
    },
    {
      "anonymous": false,
      "inputs": [
        {
          "indexed": false,
          "name": "pause",
          "type": "bool"
        }
      ],
      "name": "LogPause",
      "type": "event"
    },
    {
      "anonymous": false,
      "inputs": [
        {
          "indexed": false,
          "name": "userFactoryAddress",
          "type": "address"
        },
        {
          "indexed": false,
          "name": "creatorFactoryAddress",
          "type": "address"
        },
        {
          "indexed": false,
          "name": "minterAddress",
          "type": "address"
        },
        {
          "indexed": false,
          "name": "register",
          "type": "address"
        }
      ],
      "name": "LogSetUp",
      "type": "event"
    },
    {
      "anonymous": false,
      "inputs": [
        {
          "indexed": false,
          "name": "account",
          "type": "address"
        },
        {
          "indexed": false,
          "name": "amount",
          "type": "uint256"
        }
      ],
      "name": "LogBoughtViewsUser",
      "type": "event"
    },
    {
      "anonymous": false,
      "inputs": [
        {
          "indexed": false,
          "name": "account",
          "type": "address"
        },
        {
          "indexed": false,
          "name": "amount",
          "type": "uint256"
        }
      ],
      "name": "LogModeriatorFund",
      "type": "event"
    },
    {
      "anonymous": false,
      "inputs": [
        {
          "indexed": false,
          "name": "owner",
          "type": "address"
        },
        {
          "indexed": false,
          "name": "userContract",
          "type": "address"
        },
        {
          "indexed": false,
          "name": "userName",
          "type": "string"
        }
      ],
      "name": "LogUserCreated",
      "type": "event"
    },
    {
      "anonymous": false,
      "inputs": [
        {
          "indexed": false,
          "name": "owner",
          "type": "address"
        },
        {
          "indexed": false,
          "name": "userContract",
          "type": "address"
        },
        {
          "indexed": false,
          "name": "userName",
          "type": "string"
        }
      ],
      "name": "LogUserDeleted",
      "type": "event"
    },
    {
      "anonymous": false,
      "inputs": [
        {
          "indexed": false,
          "name": "userCOwner",
          "type": "address"
        },
        {
          "indexed": false,
          "name": "creatorContract",
          "type": "address"
        }
      ],
      "name": "LogCreatorCreated",
      "type": "event"
    },
    {
      "anonymous": false,
      "inputs": [
        {
          "indexed": false,
          "name": "userContract",
          "type": "address"
        },
        {
          "indexed": false,
          "name": "creatorContract",
          "type": "address"
        }
      ],
      "name": "LogCreatorDeleted",
      "type": "event"
    },
    {
      "anonymous": false,
      "inputs": [
        {
          "indexed": true,
          "name": "position",
          "type": "uint256"
        },
        {
          "indexed": true,
          "name": "title",
          "type": "string"
        },
        {
          "indexed": true,
          "name": "creator",
          "type": "address"
        }
      ],
      "name": "LogContentCreated",
      "type": "event"
    },
    {
      "anonymous": false,
      "inputs": [
        {
          "indexed": false,
          "name": "userContract",
          "type": "address"
        }
      ],
      "name": "LogCheckingData",
      "type": "event"
    },
    {
      "constant": false,
      "inputs": [
        {
          "name": "_userFactoryAddress",
          "type": "address"
        },
        {
          "name": "_ccFactoryAddress",
          "type": "address"
        },
        {
          "name": "_minterAddress",
          "type": "address"
        },
        {
          "name": "_register",
          "type": "address"
        }
      ],
      "name": "setUpDataContracts",
      "outputs": [
        {
          "name": "",
          "type": "bool"
        }
      ],
      "payable": false,
      "stateMutability": "nonpayable",
      "type": "function"
    },
    {
      "constant": true,
      "inputs": [],
      "name": "getMinter",
      "outputs": [
        {
          "name": "",
          "type": "address"
        }
      ],
      "payable": false,
      "stateMutability": "view",
      "type": "function"
    },
    {
      "constant": true,
      "inputs": [],
      "name": "getAllUserAddresses",
      "outputs": [
        {
          "name": "",
          "type": "address[]"
        }
      ],
      "payable": false,
      "stateMutability": "view",
      "type": "function"
    },
    {
      "constant": true,
      "inputs": [],
      "name": "getAllCreatorsAddresses",
      "outputs": [
        {
          "name": "",
          "type": "address[]"
        }
      ],
      "payable": false,
      "stateMutability": "view",
      "type": "function"
    },
    {
      "constant": true,
      "inputs": [],
      "name": "getAllUsersNames",
      "outputs": [
        {
          "name": "",
          "type": "string[]"
        }
      ],
      "payable": false,
      "stateMutability": "view",
      "type": "function"
    },
    {
      "constant": true,
      "inputs": [
        {
          "name": "_user",
          "type": "address"
        }
      ],
      "name": "getAUsersName",
      "outputs": [
        {
          "name": "",
          "type": "string"
        }
      ],
      "payable": false,
      "stateMutability": "view",
      "type": "function"
    },
    {
      "constant": true,
      "inputs": [
        {
          "name": "_userAddress",
          "type": "address"
        }
      ],
      "name": "isCreator",
      "outputs": [
        {
          "name": "",
          "type": "bool"
        }
      ],
      "payable": false,
      "stateMutability": "view",
      "type": "function"
    },
    {
      "constant": true,
      "inputs": [
        {
          "name": "_addressToCheck",
          "type": "address"
        }
      ],
      "name": "isUser",
      "outputs": [
        {
          "name": "",
          "type": "bool"
        }
      ],
      "payable": false,
      "stateMutability": "view",
      "type": "function"
    },
    {
      "constant": true,
      "inputs": [
        {
          "name": "_userAddress",
          "type": "address"
        }
      ],
      "name": "getCreatorAddressFromUser",
      "outputs": [
        {
          "name": "",
          "type": "address"
        }
      ],
      "payable": false,
      "stateMutability": "view",
      "type": "function"
    },
    {
      "constant": true,
      "inputs": [
        {
          "name": "_contractAddress",
          "type": "address"
        }
      ],
      "name": "getAUsersOwnerData",
      "outputs": [
        {
          "name": "",
          "type": "address"
        }
      ],
      "payable": false,
      "stateMutability": "view",
      "type": "function"
    },
    {
      "constant": true,
      "inputs": [
        {
          "name": "_contractAddress",
          "type": "address"
        }
      ],
      "name": "getAUsersNameData",
      "outputs": [
        {
          "name": "",
          "type": "string"
        }
      ],
      "payable": false,
      "stateMutability": "view",
      "type": "function"
    },
    {
      "constant": false,
      "inputs": [
        {
          "name": "_user",
          "type": "address"
        },
        {
          "name": "_amount",
          "type": "uint256"
        }
      ],
      "name": "setTotalViewsDispenced",
      "outputs": [],
      "payable": false,
      "stateMutability": "nonpayable",
      "type": "function"
    },
    {
      "constant": false,
      "inputs": [
        {
          "name": "_ccc",
          "type": "address"
        },
        {
          "name": "_userContract",
          "type": "address"
        }
      ],
      "name": "moveAllFundsToUser",
      "outputs": [],
      "payable": false,
      "stateMutability": "nonpayable",
      "type": "function"
    },
    {
      "constant": false,
      "inputs": [
        {
          "name": "_emergencyState",
          "type": "bool"
        }
      ],
      "name": "setEmergency",
      "outputs": [
        {
          "name": "",
          "type": "bool"
        }
      ],
      "payable": false,
      "stateMutability": "nonpayable",
      "type": "function"
    },
    {
      "constant": false,
      "inputs": [
        {
          "name": "pauseState",
          "type": "bool"
        }
      ],
      "name": "setPause",
      "outputs": [
        {
          "name": "",
          "type": "bool"
        }
      ],
      "payable": false,
      "stateMutability": "nonpayable",
      "type": "function"
    },
    {
      "constant": false,
      "inputs": [
        {
          "name": "_newUserFactory",
          "type": "address"
        }
      ],
      "name": "registryUpdateUserFactory",
      "outputs": [],
      "payable": false,
      "stateMutability": "nonpayable",
      "type": "function"
    },
    {
      "constant": false,
      "inputs": [
        {
          "name": "_newCCFactory",
          "type": "address"
        }
      ],
      "name": "registryUpdateCCFactory",
      "outputs": [],
      "payable": false,
      "stateMutability": "nonpayable",
      "type": "function"
    },
    {
      "constant": false,
      "inputs": [
        {
          "name": "_newMinter",
          "type": "address"
        }
      ],
      "name": "registryUpdateMinter",
      "outputs": [],
      "payable": false,
      "stateMutability": "nonpayable",
      "type": "function"
    },
    {
      "constant": false,
      "inputs": [
        {
          "name": "_user",
          "type": "address"
        },
        {
          "name": "_userContract",
          "type": "address"
        },
        {
          "name": "_userName",
          "type": "string"
        }
      ],
      "name": "setNewUserData",
      "outputs": [],
      "payable": false,
      "stateMutability": "nonpayable",
      "type": "function"
    },
    {
      "constant": false,
      "inputs": [
        {
          "name": "_user",
          "type": "address"
        },
        {
          "name": "_userContract",
          "type": "address"
        },
        {
          "name": "_userName",
          "type": "string"
        }
      ],
      "name": "removeUserData",
      "outputs": [
        {
          "name": "",
          "type": "bool"
        }
      ],
      "payable": false,
      "stateMutability": "nonpayable",
      "type": "function"
    },
    {
      "constant": false,
      "inputs": [
        {
          "name": "_userContract",
          "type": "address"
        },
        {
          "name": "_creatorContract",
          "type": "address"
        }
      ],
      "name": "setNewCreatorData",
      "outputs": [
        {
          "name": "",
          "type": "bool"
        }
      ],
      "payable": false,
      "stateMutability": "nonpayable",
      "type": "function"
    },
    {
      "constant": false,
      "inputs": [
        {
          "name": "_userContract",
          "type": "address"
        },
        {
          "name": "_creatorContract",
          "type": "address"
        }
      ],
      "name": "removeCreatorData",
      "outputs": [
        {
          "name": "",
          "type": "bool"
        }
      ],
      "payable": false,
      "stateMutability": "nonpayable",
      "type": "function"
    },
    {
      "constant": false,
      "inputs": [
        {
          "name": "_userContract",
          "type": "address"
        },
        {
          "name": "_amount",
          "type": "uint256"
        }
      ],
      "name": "buyViewsSave",
      "outputs": [
        {
          "name": "",
          "type": "bool"
        }
      ],
      "payable": false,
      "stateMutability": "nonpayable",
      "type": "function"
    },
    {
      "constant": false,
      "inputs": [
        {
          "name": "_userContract",
          "type": "address"
        },
        {
          "name": "_amount",
          "type": "uint256"
        }
      ],
      "name": "sellViewsSave",
      "outputs": [
        {
          "name": "",
          "type": "bool"
        }
      ],
      "payable": false,
      "stateMutability": "nonpayable",
      "type": "function"
    },
    {
      "constant": false,
      "inputs": [
        {
          "name": "_user",
          "type": "address"
        },
        {
          "name": "_amount",
          "type": "uint256"
        }
      ],
      "name": "fromUserToCreator",
      "outputs": [
        {
          "name": "",
          "type": "bool"
        }
      ],
      "payable": false,
      "stateMutability": "nonpayable",
      "type": "function"
    },
    {
      "constant": false,
      "inputs": [
        {
          "name": "_user",
          "type": "address"
        },
        {
          "name": "_amount",
          "type": "uint256"
        }
      ],
      "name": "fromCreatorToUser",
      "outputs": [
        {
          "name": "",
          "type": "bool"
        }
      ],
      "payable": false,
      "stateMutability": "nonpayable",
      "type": "function"
    },
    {
      "constant": false,
      "inputs": [
        {
          "name": "viewUsedRecived",
          "type": "uint8"
        },
        {
          "name": "_contentOwner",
          "type": "address"
        },
        {
          "name": "_user",
          "type": "address"
        }
      ],
      "name": "storingLikes",
      "outputs": [],
      "payable": false,
      "stateMutability": "nonpayable",
      "type": "function"
    },
    {
      "constant": false,
      "inputs": [
        {
          "name": "_contentCreatorContract",
          "type": "address"
        },
        {
          "name": "_addressIPFS",
          "type": "string"
        },
        {
          "name": "_title",
          "type": "string"
        },
        {
          "name": "_description",
          "type": "string"
        }
      ],
      "name": "createContent",
      "outputs": [],
      "payable": false,
      "stateMutability": "nonpayable",
      "type": "function"
    },
    {
      "constant": true,
      "inputs": [
        {
          "name": "_userName",
          "type": "string"
        }
      ],
      "name": "isUnique",
      "outputs": [
        {
          "name": "",
          "type": "bool"
        }
      ],
      "payable": false,
      "stateMutability": "view",
      "type": "function"
    },
    {
      "constant": false,
      "inputs": [
        {
          "name": "_newRegister",
          "type": "address"
        }
      ],
      "name": "updateRegister",
      "outputs": [],
      "payable": false,
      "stateMutability": "nonpayable",
      "type": "function"
    }
  ],
  "bytecode": "0x60806040526016805461ffff19166101001762ff00001916620200001764ffff000000191664010000000017905534801561003957600080fd5b5060008054600160a060020a03191633179055614c7f8061005b6000396000f3006080604052600436106102375763ffffffff60e060020a600035041663040321f6811461023c5780630501d5561461027257806307d1b2fd1461029f5780631418c311146102d057806316531415146102f25780631ddf8358146103125780632c8694b6146103325780632f3300231461035257806334d722c91461037457806336bab95b146103895780634209fff11461039e5780634604920f146103be578063547e7afe146103de5780635b48d7fb146104005780635c1e153c146104225780635ebe20321461044257806363a599a41461046f57806364015cc9146104845780636a480eb8146104a45780636db08bd7146104c45780636e6ac45a146104e4578063718581081461050457806372ee19a214610524578063733380811461054457806376fc2b6e14610564578063819ad027146105845780638456cb59146105a45780638da5cb5b146105b9578063aae87c24146105ce578063b1781da3146105ee578063b7acf7c31461060e578063b96275fb1461062e578063bba11cf71461064e578063bd76e4941461066e578063bedb86fb1461068e578063bf57df09146106ae578063bfc16c50146106ce578063c0fed46f146106ee578063c38535371461070e578063ccaf95531461072e578063cd8c43b61461074e578063e0b969bd14610763578063e2bf75d114610778578063e393c5aa14610798578063ed9aab51146107b8578063edbece37146107cd578063ee38ae56146107ed578063efd460651461080d578063f36675171461082d575b600080fd5b34801561024857600080fd5b5061025c610257366004614548565b610842565b604051610269919061492b565b60405180910390f35b34801561027e57600080fd5b5061029261028d366004614494565b61086a565b6040516102699190614a7e565b3480156102ab57600080fd5b506102bf6102ba366004614548565b610926565b6040516102699594939291906149e0565b3480156102dc57600080fd5b506102e5610b13565b6040516102699190614b4d565b3480156102fe57600080fd5b5061029261030d366004614301565b610b19565b34801561031e57600080fd5b5061029261032d366004614464565b610bfb565b34801561033e57600080fd5b5061025c61034d366004614283565b610fef565b34801561035e57600080fd5b5061036761100a565b6040516102699190614a5c565b34801561038057600080fd5b5061025c61106d565b34801561039557600080fd5b5061025c61107c565b3480156103aa57600080fd5b506102926103b9366004614283565b61108b565b3480156103ca57600080fd5b506102926103d9366004614464565b6110bd565b3480156103ea57600080fd5b506103f3611479565b6040516102699190614a6d565b34801561040c57600080fd5b5061042061041b3660046144d0565b611551565b005b34801561042e57600080fd5b5061042061043d3660046142c7565b611aa6565b34801561044e57600080fd5b5061046261045d366004614548565b611de2565b6040516102699190614a8c565b34801561047b57600080fd5b50610292611e89565b34801561049057600080fd5b5061046261049f366004614283565b611e99565b3480156104b057600080fd5b506102bf6104bf366004614464565b611f4a565b3480156104d057600080fd5b506102926104df366004614464565b611fe5565b3480156104f057600080fd5b506104206104ff3660046143c7565b6123c1565b34801561051057600080fd5b506102e561051f366004614283565b6127ea565b34801561053057600080fd5b5061029261053f366004614513565b6127fc565b34801561055057600080fd5b5061025c61055f366004614548565b612911565b34801561057057600080fd5b5061042061057f366004614283565b61291f565b34801561059057600080fd5b5061029261059f366004614362565b61299c565b3480156105b057600080fd5b50610292612d16565b3480156105c557600080fd5b5061025c612d27565b3480156105da57600080fd5b506102926105e93660046142c7565b612d36565b3480156105fa57600080fd5b5061025c610609366004614283565b612fa9565b34801561061a57600080fd5b5061025c610629366004614283565b612fc4565b34801561063a57600080fd5b5061025c610649366004614283565b61300b565b34801561065a57600080fd5b50610420610669366004614464565b613052565b34801561067a57600080fd5b506102e5610689366004614283565b61319b565b34801561069a57600080fd5b506102926106a9366004614494565b6131ad565b3480156106ba57600080fd5b506102926106c9366004614464565b61322f565b3480156106da57600080fd5b506104626106e9366004614283565b6135c8565b3480156106fa57600080fd5b50610462610709366004614283565b613673565b34801561071a57600080fd5b50610420610729366004614283565b6136db565b34801561073a57600080fd5b50610420610749366004614362565b613758565b34801561075a57600080fd5b5061025c613876565b34801561076f57600080fd5b50610367613885565b34801561078457600080fd5b506102926107933660046142c7565b6138e5565b3480156107a457600080fd5b506104206107b3366004614283565b613b25565b3480156107c457600080fd5b5061025c613ba2565b3480156107d957600080fd5b506102e56107e8366004614283565b613bb1565b3480156107f957600080fd5b50610420610808366004614283565b613bc3565b34801561081957600080fd5b50610292610828366004614283565b613c40565b34801561083957600080fd5b5061025c613c6a565b601080548290811061085057fe5b600091825260209091200154600160a060020a0316905081565b60008054600160a060020a031633146108a15760405160e560020a62461bcd02815260040161089890614aed565b60405180910390fd5b601654640100000000900460ff16156108cf5760405160e560020a62461bcd02815260040161089890614abd565b7f413e6d22f012c3337757e66546d28828d7000e061a40d2492c34741e2c62d988826040516108fe9190614a7e565b60405180910390a1506016805463ff000000191663010000008315150217905560015b919050565b601380548290811061093457fe5b600091825260209182902060059091020180546001808301805460408051601f6002600019968516156101000296909601909316949094049182018790048702840187019052808352600160a060020a0390931695509293909291908301828280156109e15780601f106109b6576101008083540402835291602001916109e1565b820191906000526020600020905b8154815290600101906020018083116109c457829003601f168201915b50505060028085018054604080516020601f6000196101006001871615020190941695909504928301859004850281018501909152818152959695945090925090830182828015610a735780601f10610a4857610100808354040283529160200191610a73565b820191906000526020600020905b815481529060010190602001808311610a5657829003601f168201915b5050505060038301805460408051602060026001851615610100026000190190941693909304601f8101849004840282018401909252818152949594935090830182828015610b035780601f10610ad857610100808354040283529160200191610b03565b820191906000526020600020905b815481529060010190602001808311610ae657829003601f168201915b5050505050908060040154905085565b60125481565b60008054600160a060020a03163314610b475760405160e560020a62461bcd02815260040161089890614aed565b6016546301000000900460ff1615610b5e57600080fd5b60028054600160a060020a03808716600160a060020a03199283161790925560018054888416908316179055600380548684169083161790556004805492851692909116919091179055610bb260006131ad565b507fd6c831f26f396f47a3d6dae9057e42c399d6487e0174d1ab18f78f7b889f929385858585604051610be8949392919061495a565b60405180910390a1506001949350505050565b600480546040805160e060020a63f366751702815290516000938593600160a060020a03169263f3667517928183019260209282900301818887803b158015610c4357600080fd5b505af1158015610c57573d6000803e3d6000fd5b505050506040513d601f19601f82011682018060405250610c7b91908101906142a9565b600160a060020a03163314610ca55760405160e560020a62461bcd02815260040161089890614b0d565b60008111610cc85760405160e560020a62461bcd02815260040161089890614b3d565b8360008060008084935083600160a060020a0316637e5852d96040518163ffffffff1660e060020a028152600401602060405180830381600087803b158015610d1057600080fd5b505af1158015610d24573d6000803e3d6000fd5b505050506040513d601f19601f82011682018060405250610d4891908101906144b2565b92508215610d6b5760405160e560020a62461bcd02815260040161089890614b2d565b60405160e060020a63efd46065028152309063efd4606590610d9190889060040161492b565b602060405180830381600087803b158015610dab57600080fd5b505af1158015610dbf573d6000803e3d6000fd5b505050506040513d601f19601f82011682018060405250610de391908101906144b2565b15610efb5760405160e060020a63b7acf7c3028152309063b7acf7c390610e0e90889060040161492b565b602060405180830381600087803b158015610e2857600080fd5b505af1158015610e3c573d6000803e3d6000fd5b505050506040513d601f19601f82011682018060405250610e6091908101906142a9565b915081600160a060020a0316637e5852d96040518163ffffffff1660e060020a028152600401602060405180830381600087803b158015610ea057600080fd5b505af1158015610eb4573d6000803e3d6000fd5b505050506040513d601f19601f82011682018060405250610ed891908101906144b2565b90508015610efb5760405160e560020a62461bcd02815260040161089890614b2d565b6016546301000000900460ff1615610f1257600080fd5b601654640100000000900460ff1615610f405760405160e560020a62461bcd02815260040161089890614abd565b610f4989613cfc565b610f5289613c40565b1515610f5d57600080fd5b87600b6000610f6b8c612fc4565b600160a060020a0316815260208101919091526040016000205411610f8f57600080fd5b87600b6000610f9d8c612fc4565b600160a060020a039081168252602080830193909352604091820160009081208054959095039094558c16835260099091529020805489019055610fe089613ef4565b50600198975050505050505050565b600e60205260009081526040902054600160a060020a031681565b6060600f80548060200260200160405190810160405280929190818152602001828054801561106257602002820191906000526020600020905b8154600160a060020a03168152600190910190602001808311611044575b505050505090505b90565b600754600160a060020a031681565b600554600160a060020a031681565b600160a060020a038082166000908152600d6020526040812054909116156110b557506001610921565b506000919050565b600480546040805160e060020a63f366751702815290516000938593600160a060020a03169263f3667517928183019260209282900301818887803b15801561110557600080fd5b505af1158015611119573d6000803e3d6000fd5b505050506040513d601f19601f8201168201806040525061113d91908101906142a9565b600160a060020a031633146111675760405160e560020a62461bcd02815260040161089890614b0d565b6000811161118a5760405160e560020a62461bcd02815260040161089890614b3d565b8360008060008084935083600160a060020a0316637e5852d96040518163ffffffff1660e060020a028152600401602060405180830381600087803b1580156111d257600080fd5b505af11580156111e6573d6000803e3d6000fd5b505050506040513d601f19601f8201168201806040525061120a91908101906144b2565b9250821561122d5760405160e560020a62461bcd02815260040161089890614b2d565b60405160e060020a63efd46065028152309063efd460659061125390889060040161492b565b602060405180830381600087803b15801561126d57600080fd5b505af1158015611281573d6000803e3d6000fd5b505050506040513d601f19601f820116820180604052506112a591908101906144b2565b156113bd5760405160e060020a63b7acf7c3028152309063b7acf7c3906112d090889060040161492b565b602060405180830381600087803b1580156112ea57600080fd5b505af11580156112fe573d6000803e3d6000fd5b505050506040513d601f19601f8201168201806040525061132291908101906142a9565b915081600160a060020a0316637e5852d96040518163ffffffff1660e060020a028152600401602060405180830381600087803b15801561136257600080fd5b505af1158015611376573d6000803e3d6000fd5b505050506040513d601f19601f8201168201806040525061139a91908101906144b2565b905080156113bd5760405160e560020a62461bcd02815260040161089890614b2d565b6016546301000000900460ff16156113d457600080fd5b601654640100000000900460ff16156114025760405160e560020a62461bcd02815260040161089890614abd565b61140b89613cfc565b600160a060020a03891660009081526009602052604090208054890160041990810190915561143d908a908a01613052565b6114488960056140b4565b50600080516020614c268339815191528989604051611468929190614a41565b60405180910390a1610fe089613ef4565b60606011805480602002602001604051908101604052809291908181526020016000905b828210156115485760008481526020908190208301805460408051601f60026000196101006001871615020190941693909304928301859004850281018501909152818152928301828280156115345780601f1061150957610100808354040283529160200191611534565b820191906000526020600020905b81548152906001019060200180831161151757829003601f168201915b50505050508152602001906001019061149d565b50505050905090565b6001600460009054906101000a9004600160a060020a0316600160a060020a031663f36675176040518163ffffffff1660e060020a028152600401602060405180830381600087803b1580156115a657600080fd5b505af11580156115ba573d6000803e3d6000fd5b505050506040513d601f19601f820116820180604052506115de91908101906142a9565b600160a060020a031633146116085760405160e560020a62461bcd02815260040161089890614b0d565b6000811161162b5760405160e560020a62461bcd02815260040161089890614b3d565b8160008060008084935083600160a060020a0316637e5852d96040518163ffffffff1660e060020a028152600401602060405180830381600087803b15801561167357600080fd5b505af1158015611687573d6000803e3d6000fd5b505050506040513d601f19601f820116820180604052506116ab91908101906144b2565b925082156116ce5760405160e560020a62461bcd02815260040161089890614b2d565b60405160e060020a63efd46065028152309063efd46065906116f490889060040161492b565b602060405180830381600087803b15801561170e57600080fd5b505af1158015611722573d6000803e3d6000fd5b505050506040513d601f19601f8201168201806040525061174691908101906144b2565b1561185e5760405160e060020a63b7acf7c3028152309063b7acf7c39061177190889060040161492b565b602060405180830381600087803b15801561178b57600080fd5b505af115801561179f573d6000803e3d6000fd5b505050506040513d601f19601f820116820180604052506117c391908101906142a9565b915081600160a060020a0316637e5852d96040518163ffffffff1660e060020a028152600401602060405180830381600087803b15801561180357600080fd5b505af1158015611817573d6000803e3d6000fd5b505050506040513d601f19601f8201168201806040525061183b91908101906144b2565b9050801561185e5760405160e560020a62461bcd02815260040161089890614b2d565b6016546301000000900460ff161561187557600080fd5b601654640100000000900460ff16156118a35760405160e560020a62461bcd02815260040161089890614abd565b6118ac87613cfc565b60008960028111156118ba57fe5b141561194657600160a060020a0387166000908152600960205260409020546005106118e557600080fd5b600160a060020a0380881660009081526009602090815260408083208054600419019055928b168252600b9052819020805460059081019091559051600080516020614c268339815191529161193d918a91906149c5565b60405180910390a15b600189600281111561195457fe5b14156119ec57600160a060020a038716600090815260096020526040902054600f1061197f57600080fd5b600160a060020a0380881660009081526009602090815260408083208054600e19019055928b168252600b9052208054600f9081019091556119c29088906140b4565b50600080516020614c2683398151915287600f6040516119e39291906149c5565b60405180910390a15b60028960028111156119fa57fe5b1415611a9257600160a060020a038716600090815260096020526040902054601910611a2557600080fd5b600160a060020a0380881660009081526009602090815260408083208054601819019055928b168252600b90522080546019908101909155611a689088906140b4565b50600080516020614c26833981519152876019604051611a899291906149c5565b60405180910390a15b611a9b87613ef4565b505050505050505050565b6000600460009054906101000a9004600160a060020a0316600160a060020a0316633c093d5a6040518163ffffffff1660e060020a028152600401602060405180830381600087803b158015611afb57600080fd5b505af1158015611b0f573d6000803e3d6000fd5b505050506040513d601f19601f82011682018060405250611b3391908101906142a9565b600160a060020a03163314611b5d5760405160e560020a62461bcd02815260040161089890614a9d565b8160008060008084935083600160a060020a0316637e5852d96040518163ffffffff1660e060020a028152600401602060405180830381600087803b158015611ba557600080fd5b505af1158015611bb9573d6000803e3d6000fd5b505050506040513d601f19601f82011682018060405250611bdd91908101906144b2565b92508215611c005760405160e560020a62461bcd02815260040161089890614b2d565b60405160e060020a63efd46065028152309063efd4606590611c2690889060040161492b565b602060405180830381600087803b158015611c4057600080fd5b505af1158015611c54573d6000803e3d6000fd5b505050506040513d601f19601f82011682018060405250611c7891908101906144b2565b15611d905760405160e060020a63b7acf7c3028152309063b7acf7c390611ca390889060040161492b565b602060405180830381600087803b158015611cbd57600080fd5b505af1158015611cd1573d6000803e3d6000fd5b505050506040513d601f19601f82011682018060405250611cf591908101906142a9565b915081600160a060020a0316637e5852d96040518163ffffffff1660e060020a028152600401602060405180830381600087803b158015611d3557600080fd5b505af1158015611d49573d6000803e3d6000fd5b505050506040513d601f19601f82011682018060405250611d6d91908101906144b2565b90508015611d905760405160e560020a62461bcd02815260040161089890614b2d565b611d9987613cfc565b600160a060020a038089166000908152600b60209081526040808320805490849055938b168352600990915290208054820190559550611dd887613ef4565b5050505050505050565b6011805482908110611df057fe5b600091825260209182902001805460408051601f6002600019610100600187161502019094169390930492830185900485028101850190915281815293509091830182828015611e815780601f10611e5657610100808354040283529160200191611e81565b820191906000526020600020905b815481529060010190602001808311611e6457829003601f168201915b505050505081565b6016546301000000900460ff1681565b600160a060020a0381166000908152600c602090815260409182902080548351601f600260001961010060018616150201909316929092049182018490048402810184019094528084526060939192839190830182828015611f3c5780601f10611f1157610100808354040283529160200191611f3c565b820191906000526020600020905b815481529060010190602001808311611f1f57829003601f168201915b505050505091505b50919050565b601460205281600052604060002081815481101515611f6557fe5b600091825260209182902060059091020180546001808301805460408051601f6002600019968516156101000296909601909316949094049182018790048702840187019052808352600160a060020a039093169650929450928301828280156109e15780601f106109b6576101008083540402835291602001916109e1565b600480546040805160e060020a63f366751702815290516000938593600160a060020a03169263f3667517928183019260209282900301818887803b15801561202d57600080fd5b505af1158015612041573d6000803e3d6000fd5b505050506040513d601f19601f8201168201806040525061206591908101906142a9565b600160a060020a0316331461208f5760405160e560020a62461bcd02815260040161089890614b0d565b600081116120b25760405160e560020a62461bcd02815260040161089890614b3d565b8360008060008084935083600160a060020a0316637e5852d96040518163ffffffff1660e060020a028152600401602060405180830381600087803b1580156120fa57600080fd5b505af115801561210e573d6000803e3d6000fd5b505050506040513d601f19601f8201168201806040525061213291908101906144b2565b925082156121555760405160e560020a62461bcd02815260040161089890614b2d565b60405160e060020a63efd46065028152309063efd460659061217b90889060040161492b565b602060405180830381600087803b15801561219557600080fd5b505af11580156121a9573d6000803e3d6000fd5b505050506040513d601f19601f820116820180604052506121cd91908101906144b2565b156122e55760405160e060020a63b7acf7c3028152309063b7acf7c3906121f890889060040161492b565b602060405180830381600087803b15801561221257600080fd5b505af1158015612226573d6000803e3d6000fd5b505050506040513d601f19601f8201168201806040525061224a91908101906142a9565b915081600160a060020a0316637e5852d96040518163ffffffff1660e060020a028152600401602060405180830381600087803b15801561228a57600080fd5b505af115801561229e573d6000803e3d6000fd5b505050506040513d601f19601f820116820180604052506122c291908101906144b2565b905080156122e55760405160e560020a62461bcd02815260040161089890614b2d565b6016546301000000900460ff16156122fc57600080fd5b601654640100000000900460ff161561232a5760405160e560020a62461bcd02815260040161089890614abd565b61233389613cfc565b61233c89613c40565b151561234757600080fd5b600160a060020a038916600090815260096020526040902054881061236b57600080fd5b600160a060020a038916600090815260096020526040812080548a900390558890600b906123988c612fc4565b600160a060020a03168152602081019190915260400160002080549091019055610fe089613ef4565b6000806001600460009054906101000a9004600160a060020a0316600160a060020a031663f36675176040518163ffffffff1660e060020a028152600401602060405180830381600087803b15801561241957600080fd5b505af115801561242d573d6000803e3d6000fd5b505050506040513d601f19601f8201168201806040525061245191908101906142a9565b600160a060020a0316331461247b5760405160e560020a62461bcd02815260040161089890614b0d565b6000811161249e5760405160e560020a62461bcd02815260040161089890614b3d565b6016546301000000900460ff16156124b557600080fd5b601654640100000000900460ff16156124e35760405160e560020a62461bcd02815260040161089890614abd565b600160a060020a038781166000818152601460209081526040808320815160a0810183529485528483018c81529185018b9052606085018a905260808501849052805460018082018084559286529484902086516005909202018054600160a060020a0319169190971617865590518051919593612567939085019291019061410a565b506040820151805161258391600284019160209091019061410a565b506060820151805161259f91600384019160209091019061410a565b506080919091015160049091015550600160a060020a0387166000908152600b60205260409020546005106125d357600080fd5b600160a060020a0387166000908152600b60205260409020805460041901905560128054600590810190915561260a9088906140b4565b506040805160a081018252600160a060020a03898116825260208083018a81529383018990526060830188905260006080840181905260138054600181018083559190925284517f66de8ffda797e3de9c05e8fc57b3bf0ec28a930d40b0d285d93c06501cf6a09060059093029283018054600160a060020a03191691909516178455945180516126c4937f66de8ffda797e3de9c05e8fc57b3bf0ec28a930d40b0d285d93c06501cf6a09190930192919091019061410a565b50604082015180516126e091600284019160209091019061410a565b50606082015180516126fc91600384019160209091019061410a565b506080820151816004015550505086600160a060020a0316856040518082805190602001908083835b602083106127445780518252601f199092019160209182019101612725565b5181516020939093036101000a60001901801990911692169190911790526040519201829003822060135490945092507f1265282869251121edf11374a7f7d04b956dfd0ab45255cf5a1c08cfa527012b9160009150a4600160a060020a03871660008181526014602081815260408084208054825160a0810184528781528085018e90529283018c9052606083018b9052608083018690529590945291905291945084fe5b600b6020526000908152604090205481565b6000805b60115481101561290857601180548290811061281857fe5b90600052602060002001604051808280546001816001161561010002031660029004801561287d5780601f1061285b57610100808354040283529182019161287d565b820191906000526020600020905b815481529060010190602001808311612869575b50506040519081900381208651909350869250819060208401908083835b602083106128ba5780518252601f19909201916020918201910161289b565b6001836020036101000a0380198251168184511680821785525050505050509050019150506040518091039020600019161415156128f757612900565b60009150611f44565b600101612800565b50600192915050565b600f80548290811061085057fe5b600854600160a060020a0316331461294c5760405160e560020a62461bcd02815260040161089890614aad565b601654640100000000900460ff161561297a5760405160e560020a62461bcd02815260040161089890614abd565b60048054600160a060020a031916600160a060020a0392909216919091179055565b6000806000600460009054906101000a9004600160a060020a0316600160a060020a031663e1d551556040518163ffffffff1660e060020a028152600401602060405180830381600087803b1580156129f457600080fd5b505af1158015612a08573d6000803e3d6000fd5b505050506040513d601f19601f82011682018060405250612a2c91908101906142a9565b600160a060020a03163314612a565760405160e560020a62461bcd02815260040161089890614add565b600160a060020a038516600090815260096020526040902054859015612a915760405160e560020a62461bcd02815260040161089890614acd565b6016546301000000900460ff1615612aa857600080fd5b601654640100000000900460ff1615612ad65760405160e560020a62461bcd02815260040161089890614abd565b600160a060020a0386166000908152600960209081526040808320839055600c9091528120612b0491614188565b600160a060020a0386166000908152600d602052604081208054600160a060020a031916905592505b600f54831015612ba25785600160a060020a0316600f84815481101515612b5057fe5b600091825260209091200154600160a060020a03161415612b9757600f805484908110612b7957fe5b60009182526020909120018054600160a060020a0319169055612ba2565b600190920191612b2d565b600091505b601154821015612cce57846040518082805190602001908083835b60208310612be15780518252601f199092019160209182019101612bc2565b5181516020939093036101000a600019018019909116921691909117905260405192018290039091206011805491945092508591508110612c1e57fe5b906000526020600020016040518082805460018160011615610100020316600290048015612c835780601f10612c61576101008083540402835291820191612c83565b820191906000526020600020905b815481529060010190602001808311612c6f575b50509150506040518091039020600019161415612cc3576011805483908110612ca857fe5b906000526020600020016000612cbe9190614188565b612cce565b600190910190612ba7565b7f534fe867fcd18d9d6f5f22aa672ea934f7f45cb109b283f70f4de5d2bbc71f07878787604051612d0193929190614998565b60405180910390a15060019695505050505050565b601654640100000000900460ff1681565b600054600160a060020a031681565b60048054604080517f3c093d5a00000000000000000000000000000000000000000000000000000000815290516000938493600160a060020a031692633c093d5a928183019260209282900301818787803b158015612d9457600080fd5b505af1158015612da8573d6000803e3d6000fd5b505050506040513d601f19601f82011682018060405250612dcc91908101906142a9565b600160a060020a03163314612df65760405160e560020a62461bcd02815260040161089890614a9d565b600160a060020a0383166000908152600b6020526040902054839015612e315760405160e560020a62461bcd02815260040161089890614b1d565b600160a060020a038516600090815260096020526040902054859015612e6c5760405160e560020a62461bcd02815260040161089890614acd565b6016546301000000900460ff1615612e8357600080fd5b601654640100000000900460ff1615612eb15760405160e560020a62461bcd02815260040161089890614abd565b600160a060020a038086166000908152600b602090815260408083208390559289168252600e90529081208054600160a060020a031916905592505b601054831015612f625784600160a060020a0316601084815481101515612f1057fe5b600091825260209091200154600160a060020a03161415612f57576010805484908110612f3957fe5b60009182526020909120018054600160a060020a0319169055612f62565b600190920191612eed565b7f5979f2d5c2a55039e0944909f57404087e16171fa44b3e32147bde6f48bfe1d18686604051612f9392919061493f565b60405180910390a1600193505b50505092915050565b600d60205260009081526040902054600160a060020a031681565b600160a060020a038082166000908152600e60205260408120549091161515612fec57600080fd5b50600160a060020a039081166000908152600e60205260409020541690565b600160a060020a038082166000908152600d6020526040812054909116151561303357600080fd5b50600160a060020a039081166000908152600d60205260409020541690565b80600460009054906101000a9004600160a060020a0316600160a060020a031663f36675176040518163ffffffff1660e060020a028152600401602060405180830381600087803b1580156130a657600080fd5b505af11580156130ba573d6000803e3d6000fd5b505050506040513d601f19601f820116820180604052506130de91908101906142a9565b600160a060020a031633146131085760405160e560020a62461bcd02815260040161089890614b0d565b6000811161312b5760405160e560020a62461bcd02815260040161089890614b3d565b6016546301000000900460ff161561314257600080fd5b601654640100000000900460ff16156131705760405160e560020a62461bcd02815260040161089890614abd565b50600160a060020a039091166000908152600a60205260409020805482019055601580549091019055565b600a6020526000908152604090205481565b60008054600160a060020a031633146131db5760405160e560020a62461bcd02815260040161089890614aed565b7fdd7221e8fae38eadd917726db6aa1477e63320aea2609f225f90fe8bb2ff60108260405161320a9190614a7e565b60405180910390a1506016805464ff0000000019166401000000008315150217905590565b600480546040805160e060020a63f366751702815290516000938593600160a060020a03169263f3667517928183019260209282900301818887803b15801561327757600080fd5b505af115801561328b573d6000803e3d6000fd5b505050506040513d601f19601f820116820180604052506132af91908101906142a9565b600160a060020a031633146132d95760405160e560020a62461bcd02815260040161089890614b0d565b600081116132fc5760405160e560020a62461bcd02815260040161089890614b3d565b8360008060008084935083600160a060020a0316637e5852d96040518163ffffffff1660e060020a028152600401602060405180830381600087803b15801561334457600080fd5b505af1158015613358573d6000803e3d6000fd5b505050506040513d601f19601f8201168201806040525061337c91908101906144b2565b9250821561339f5760405160e560020a62461bcd02815260040161089890614b2d565b60405160e060020a63efd46065028152309063efd46065906133c590889060040161492b565b602060405180830381600087803b1580156133df57600080fd5b505af11580156133f3573d6000803e3d6000fd5b505050506040513d601f19601f8201168201806040525061341791908101906144b2565b1561352f5760405160e060020a63b7acf7c3028152309063b7acf7c39061344290889060040161492b565b602060405180830381600087803b15801561345c57600080fd5b505af1158015613470573d6000803e3d6000fd5b505050506040513d601f19601f8201168201806040525061349491908101906142a9565b915081600160a060020a0316637e5852d96040518163ffffffff1660e060020a028152600401602060405180830381600087803b1580156134d457600080fd5b505af11580156134e8573d6000803e3d6000fd5b505050506040513d601f19601f8201168201806040525061350c91908101906144b2565b9050801561352f5760405160e560020a62461bcd02815260040161089890614b2d565b6016546301000000900460ff161561354657600080fd5b601654640100000000900460ff16156135745760405160e560020a62461bcd02815260040161089890614abd565b61357d89613cfc565b600160a060020a038916600090815260096020526040812054899003116135a057fe5b600160a060020a038916600090815260096020526040902080548990039055610fe089613ef4565b600160a060020a0381166000908152600c602090815260409182902080548351601f60026000196101006001861615020190931692909204918201849004840281018401909452808452606093928301828280156136675780601f1061363c57610100808354040283529160200191613667565b820191906000526020600020905b81548152906001019060200180831161364a57829003601f168201915b50505050509050919050565b600c6020908152600091825260409182902080548351601f600260001961010060018616150201909316929092049182018490048402810184019094528084529091830182828015611e815780601f10611e5657610100808354040283529160200191611e81565b600854600160a060020a031633146137085760405160e560020a62461bcd02815260040161089890614aad565b601654640100000000900460ff16156137365760405160e560020a62461bcd02815260040161089890614abd565b60018054600160a060020a031916600160a060020a0392909216919091179055565b600160a060020a0382166000908152600960209081526040808320839055600c8252909120825161378b9284019061410a565b50600160a060020a038083166000818152600d6020908152604082208054948816600160a060020a0319958616179055600f805460018181019092557f8d1108e10bcb7c27dddfc02ed9d693a074039d026cf4ea4240b40f7d581ac80201805490951690931790935560118054928301808255915283519092613834927f31ecc21a745e3968a04e9570e4425bc18fa8019c68028196b546d1669c200c6801919085019061410a565b50507fce57b5f9720fa3562dd0b9eaf95894975c0b100ea8e3aa40a353228a7c1063e383838360405161386993929190614998565b60405180910390a1505050565b600654600160a060020a031681565b6060601080548060200260200160405190810160405280929190818152602001828054801561106257602002820191906000526020600020908154600160a060020a03168152600190910190602001808311611044575050505050905090565b600480546040805160e060020a63f36675170281529051600093600193600160a060020a03169263f3667517928183019260209282900301818887803b15801561392e57600080fd5b505af1158015613942573d6000803e3d6000fd5b505050506040513d601f19601f8201168201806040525061396691908101906142a9565b600160a060020a031633146139905760405160e560020a62461bcd02815260040161089890614b0d565b600081116139b35760405160e560020a62461bcd02815260040161089890614b3d565b6016546301000000900460ff16156139ca57600080fd5b601654640100000000900460ff16156139f85760405160e560020a62461bcd02815260040161089890614abd565b600160a060020a038416600090815260096020526040902054600510613a335760405160e560020a62461bcd02815260040161089890614afd565b600160a060020a03841660009081526009602052604090208054600419019055601280546005908101909155613a6a9085906140b4565b50600160a060020a038084166000818152600b602090815260408083208390559388168252600e90528281208054600160a060020a031990811684179091556010805460018101825592527f1b6847dc741a1b0cd08d278845f9d819d87b734759afb55fe2de5cb82a9ae67290910180549091169091179055517f719114bb62dcf2ce1ce925182885f459c01951965d9a783e3de78bf19143850f90613b13908690869061493f565b60405180910390a15060019392505050565b600854600160a060020a03163314613b525760405160e560020a62461bcd02815260040161089890614aad565b601654640100000000900460ff1615613b805760405160e560020a62461bcd02815260040161089890614abd565b60028054600160a060020a031916600160a060020a0392909216919091179055565b600854600160a060020a031681565b60096020526000908152604090205481565b600854600160a060020a03163314613bf05760405160e560020a62461bcd02815260040161089890614aad565b601654640100000000900460ff1615613c1e5760405160e560020a62461bcd02815260040161089890614abd565b60038054600160a060020a031916600160a060020a0392909216919091179055565b600160a060020a038082166000908152600e6020526040812054909116156110b557506001610921565b6000600460009054906101000a9004600160a060020a0316600160a060020a031663f36675176040518163ffffffff1660e060020a028152600401602060405180830381600087803b158015613cbf57600080fd5b505af1158015613cd3573d6000803e3d6000fd5b505050506040513d601f19601f82011682018060405250613cf791908101906142a9565b905090565b6016546000908190640100000000900460ff1615613d2f5760405160e560020a62461bcd02815260040161089890614abd565b60405160e260020a6318675465028152839250600160a060020a0383169063619d519490613d6290600190600401614a7e565b600060405180830381600087803b158015613d7c57600080fd5b505af1158015613d90573d6000803e3d6000fd5b505060405160e060020a63efd4606502815230925063efd460659150613dba90869060040161492b565b602060405180830381600087803b158015613dd457600080fd5b505af1158015613de8573d6000803e3d6000fd5b505050506040513d601f19601f82011682018060405250613e0c91908101906144b2565b15613eef5760405160e060020a63b7acf7c3028152309063b7acf7c390613e3790869060040161492b565b602060405180830381600087803b158015613e5157600080fd5b505af1158015613e65573d6000803e3d6000fd5b505050506040513d601f19601f82011682018060405250613e8991908101906142a9565b60405160e260020a6318675465028152909150600160a060020a0382169063619d519490613ebc90600190600401614a7e565b600060405180830381600087803b158015613ed657600080fd5b505af1158015613eea573d6000803e3d6000fd5b505050505b505050565b6016546000908190640100000000900460ff1615613f275760405160e560020a62461bcd02815260040161089890614abd565b60405160e260020a6318675465028152839250600160a060020a0383169063619d519490613f5a90600090600401614a7e565b600060405180830381600087803b158015613f7457600080fd5b505af1158015613f88573d6000803e3d6000fd5b505060405160e060020a63efd4606502815230925063efd460659150613fb290869060040161492b565b602060405180830381600087803b158015613fcc57600080fd5b505af1158015613fe0573d6000803e3d6000fd5b505050506040513d601f19601f8201168201806040525061400491908101906144b2565b15613eef5760405160e060020a63b7acf7c3028152309063b7acf7c39061402f90869060040161492b565b602060405180830381600087803b15801561404957600080fd5b505af115801561405d573d6000803e3d6000fd5b505050506040513d601f19601f8201168201806040525061408191908101906142a9565b60405160e260020a6318675465028152909150600160a060020a0382169063619d519490613ebc90600090600401614a7e565b60008082116140c257600080fd5b60128054830190556040517f353e5eeb76213a2ec8cc1db1fa84a2782f6129abcdee0e4c2238cb99fa835889906140fc9085908590614a41565b60405180910390a192915050565b828054600181600116156101000203166002900490600052602060002090601f016020900481019282601f1061414b57805160ff1916838001178555614178565b82800160010185558215614178579182015b8281111561417857825182559160200191906001019061415d565b506141849291506141cf565b5090565b50805460018160011615610100020316600290046000825580601f106141ae57506141cc565b601f0160209004906000526020600020908101906141cc91906141cf565b50565b61106a91905b8082111561418457600081556001016141d5565b60006141f58235614bb4565b9392505050565b60006141f58251614bb4565b60006141f58235614bc0565b60006141f58251614bc0565b60006141f58235614bc5565b6000601f8201831361423d57600080fd5b813561425061424b82614b82565b614b5b565b9150808252602083016020830185838301111561426c57600080fd5b612fa0838284614bdf565b60006141f5823561106a565b60006020828403121561429557600080fd5b60006142a184846141e9565b949350505050565b6000602082840312156142bb57600080fd5b60006142a184846141fc565b600080604083850312156142da57600080fd5b60006142e685856141e9565b92505060206142f7858286016141e9565b9150509250929050565b6000806000806080858703121561431757600080fd5b600061432387876141e9565b9450506020614334878288016141e9565b9350506040614345878288016141e9565b9250506060614356878288016141e9565b91505092959194509250565b60008060006060848603121561437757600080fd5b600061438386866141e9565b9350506020614394868287016141e9565b925050604084013567ffffffffffffffff8111156143b157600080fd5b6143bd8682870161422c565b9150509250925092565b600080600080608085870312156143dd57600080fd5b60006143e987876141e9565b945050602085013567ffffffffffffffff81111561440657600080fd5b6144128782880161422c565b935050604085013567ffffffffffffffff81111561442f57600080fd5b61443b8782880161422c565b925050606085013567ffffffffffffffff81111561445857600080fd5b6143568782880161422c565b6000806040838503121561447757600080fd5b600061448385856141e9565b92505060206142f785828601614277565b6000602082840312156144a657600080fd5b60006142a18484614208565b6000602082840312156144c457600080fd5b60006142a18484614214565b6000806000606084860312156144e557600080fd5b60006144f18686614220565b9350506020614502868287016141e9565b92505060406143bd868287016141e9565b60006020828403121561452557600080fd5b813567ffffffffffffffff81111561453c57600080fd5b6142a18482850161422c565b60006020828403121561455a57600080fd5b60006142a18484614277565b61456f81614bb4565b82525050565b600061458082614bb0565b80845260208401935061459283614baa565b60005b828110156145c2576145a8868351614566565b6145b182614baa565b602096909601959150600101614595565b5093949350505050565b60006145d782614bb0565b808452602084019350836020820285016145f085614baa565b60005b8481101561462757838303885261460b838351614645565b925061461682614baa565b6020989098019791506001016145f3565b50909695505050505050565b61456f81614bc0565b61456f81614bd4565b600061465082614bb0565b808452614664816020860160208601614beb565b61466d81614c1b565b9093016020019392505050565b601d81527f53656e646572206973206e6f742043726561746f724661636f7472792e000000602082015260400190565b601681527f53656e646572206973206e6f7420526567697374657200000000000000000000602082015260400190565b601981527f436f6e7472616374207265717569726573207365742d75702e00000000000000602082015260400190565b602f81527f55736572206163636f756e74206d75737420626520656d707479206265666f7260208201527f65206265696e67206b696c6c65642e0000000000000000000000000000000000604082015260600190565b601981527f53656e646572206973206e6f742055736572466163746f727900000000000000602082015260400190565b601481527f53656e646572206973206e6f74206f776e65722e000000000000000000000000602082015260400190565b602b81527f596f75206e65656420746f2062652061626c6520746f206c696b6520796f757260208201527f206f776e2073747566662e000000000000000000000000000000000000000000604082015260600190565b601481527f53656e646572206973206e6f74204d696e746572000000000000000000000000602082015260400190565b603281527f43726561746f72206163636f756e74206d75737420626520656d70747920626560208201527f666f7265206265696e67206b696c6c65642e0000000000000000000000000000604082015260600190565b602781527f436f6e74726163742063757272656e746c79206c6f636b65642e20506c65617360208201527f6520776169742e00000000000000000000000000000000000000000000000000604082015260600190565b601a81527f416d6f756e742063616e6e6f74206265206e656761746976652e000000000000602082015260400190565b61456f8161106a565b602081016149398284614566565b92915050565b6040810161494d8285614566565b6141f56020830184614566565b608081016149688287614566565b6149756020830186614566565b6149826040830185614566565b61498f6060830184614566565b95945050505050565b606081016149a68286614566565b6149b36020830185614566565b818103604083015261498f8184614645565b604081016149d38285614566565b6141f5602083018461463c565b60a081016149ee8288614566565b8181036020830152614a008187614645565b90508181036040830152614a148186614645565b90508181036060830152614a288185614645565b9050614a376080830184614922565b9695505050505050565b60408101614a4f8285614566565b6141f56020830184614922565b602080825281016141f58184614575565b602080825281016141f581846145cc565b602081016149398284614633565b602080825281016141f58184614645565b602080825281016149398161467a565b60208082528101614939816146aa565b60208082528101614939816146da565b602080825281016149398161470a565b6020808252810161493981614760565b6020808252810161493981614790565b60208082528101614939816147c0565b6020808252810161493981614816565b6020808252810161493981614846565b602080825281016149398161489c565b60208082528101614939816148f2565b602081016149398284614922565b60405181810167ffffffffffffffff81118282101715614b7a57600080fd5b604052919050565b600067ffffffffffffffff821115614b9957600080fd5b506020601f91909101601f19160190565b60200190565b5190565b600160a060020a031690565b151590565b60006003821061418457600080fd5b60006149398261106a565b82818337506000910152565b60005b83811015614c06578181015183820152602001614bee565b83811115614c15576000848401525b50505050565b601f01601f19169056005fc13a8cb79897556001bff3646be555a23490209aba88173cfa256d76220527a265627a7a72305820e0840867c75b8dc3edca4ba307d8c064d83f0074373c21ccde0f482cc482389b6c6578706572696d656e74616cf50037",
  "source": "pragma solidity 0.4.24;\r\npragma experimental ABIEncoderV2;\r\n\r\nimport \"./UserFactory.sol\";\r\nimport \"./3ContentCreatorFactory.sol\";\r\nimport \"./LoveMachine.sol\";\r\nimport \"./Register.sol\";\r\n\r\ncontract DataStorage {\r\n    address public owner;\r\n\r\n    UserFactory uf;\r\n    ContentCreatorFactory ccf;\r\n    LoveMachine m;\r\n    Register registry;\r\n\r\n    address public userFactoryAddress;\r\n    address public ccFactoryAddress;\r\n    address public minterAddress;\r\n    address public registryAddress;\r\n    \r\n    mapping (address => uint) public allUsers; //userContract to views\r\n    mapping (address => uint) public UsersTotalViewPurchases;//userContract to total views bought\r\n    mapping (address => uint) public allCreators;//creatorContract to views\r\n    mapping (address => string) public allUserNames;//user contract address to userName\r\n    mapping (address => address) public userContractOwners;//userContract add to user add ress\r\n    mapping (address => address) public creatorsContractOwners;//userContract to creatorContract\r\n    address[] public usersAddresses;//contract addresses\r\n    address[] public creatorsAddresses;//creators contract addresses\r\n    string[] public usersNames;//userNames\r\n    uint public moderatorViews;\r\n    struct Content {\r\n        address creator;\r\n        string contentLocationIPFS;\r\n        string title;\r\n        string description;\r\n        uint views;\r\n    }\r\n    Content[] public allContent;\r\n    mapping (address => Content[]) public creatorContent;//ccc to array of content\r\n    uint private totalViewCreated;\r\n    \r\n    enum ViewsUsed {LIKED, LOVED, FANLOVED}\r\n    ViewsUsed liked = ViewsUsed.LIKED;\r\n    ViewsUsed loved = ViewsUsed.LOVED;\r\n    ViewsUsed fanLoved = ViewsUsed.FANLOVED;\r\n    \r\n    bool public emergencyStop = false;\r\n    bool public pause = true;\r\n    \r\n    event LogEmergency(bool emergency);\r\n    event LogPause(bool pause);\r\n    event LogSetUp(address userFactoryAddress, address creatorFactoryAddress, address minterAddress, address register);\r\n    event LogBoughtViewsUser(address account, uint amount);\r\n    event LogModeriatorFund(address account, uint amount);\r\n    event LogUserCreated(address owner, address userContract, string userName);\r\n    event LogUserDeleted(address owner, address userContract, string userName);\r\n    event LogCreatorCreated(address userCOwner, address creatorContract);\r\n    event LogCreatorDeleted(address userContract, address creatorContract);\r\n    event LogContentCreated(uint indexed position, string indexed title, address indexed creator);\r\n    event LogCheckingData(address userContract);\r\n    \r\n    //Ensures the user can still withdraw during an emergency.\r\n    modifier onlyInEmergency {\r\n        require(emergencyStop);\r\n        _;\r\n    }\r\n    \r\n    //Ensures no sensitive transations happen in an emergency.\r\n    modifier stopInEmergency {\r\n        require(!emergencyStop);\r\n        _;\r\n    }\r\n    \r\n    //Ensures no state changes can happen untill the \r\n    //contract has finished being set up.\r\n    modifier pauseFunction {\r\n        require(!pause, \"Contract requires set-up.\");\r\n        _;\r\n    }\r\n    \r\n    //Ensures only the user can call the function.\r\n    modifier onlyOwner {\r\n        require(msg.sender == owner, \"Sender is not owner.\");\r\n        _;\r\n    }\r\n    \r\n    //Ensures only the owner can call the function \r\n    modifier onlyAUser(address _userAddress) {\r\n        require(allUsers[_userAddress] != 0, \"Address is not a user address.\");\r\n        _;\r\n    }\r\n    \r\n    //Ensures only the ContentCreatorFactory can call\r\n    //the function. Calls from register so that the most \r\n    //up to date contract is always used. \r\n    modifier onlyCreatorFactory {\r\n        require(\r\n            msg.sender == registry.getContentCreatorFactory(),\r\n            \"Sender is not CreatorFacotry.\"\r\n        );\r\n        _;\r\n    }\r\n    \r\n    //Ensures only the minter may call the function\r\n    modifier onlyMinter(uint _amount) {\r\n        require(msg.sender == registry.getMinter(), \"Sender is not Minter\");\r\n        require(_amount > 0, \"Amount cannot be negative.\");\r\n        _;\r\n    }\r\n    \r\n    //Ensures only they UserFactory can call the function.\r\n    modifier onlyUserFactory {\r\n        require(msg.sender == registry.getUserFactory(), \"Sender is not UserFactory\");\r\n        _;\r\n    }\r\n    \r\n    //Ensures only the Register can call this function.\r\n    modifier onlyRegistry {\r\n        require(msg.sender == registryAddress, \"Sender is not Register\");\r\n        _;\r\n    }\r\n    \r\n    //Ensures the user is not making another state change. \r\n    modifier lockCheck(address _user) {\r\n        User u = User(_user);\r\n        bool lock = u.getLock();\r\n        require(!lock, \"Contract currently locked. Please wait.\");\r\n        if(this.isCreator(_user)) {\r\n            ContentCreator cc = ContentCreator(this.getCreatorAddressFromUser(_user));\r\n            bool ccLock = cc.getLock();\r\n            require(!ccLock, \"Contract currently locked. Please wait.\");\r\n        }\r\n        _;\r\n    }\r\n    \r\n    //Ensures the _userName is unique. \r\n    // modifier uniqueUserName(string _userName) {\r\n    //     for(uint i = 0; i < usersNames.length; i++){\r\n    //         require(\r\n    //             keccak256(_userName) != keccak256(usersNames[i]), \r\n    //             \"UserName has to be unique.\"\r\n    //         );\r\n    //     }\r\n    //     _;\r\n    // }\r\n    \r\n    //Ensures the user has no more views before they get deleted. \r\n    modifier beforeDeleteChecksUser(address _userContract) {\r\n        require(\r\n            allUsers[_userContract] == 0, \r\n            \"User account must be empty before being killed.\"\r\n        );\r\n        _;\r\n    }\r\n    \r\n    //Ensures the Creator has no more views before \r\n    //deleteing their account. \r\n    modifier beforeDeleteChecksCreator(address _creatorContract) {\r\n        require(\r\n            allCreators[_creatorContract] == 0, \r\n            \"Creator account must be empty before being killed.\"\r\n        );\r\n        _;\r\n    }\r\n    \r\n    /**\r\n      * @dev Creates all the contracts that use this dataStorage. \r\n      * @notice The constructor and contract setup has been seporated\r\n      *     becuse the constructor dose not create an address for itself\r\n      *     untill the constructor has finished. \r\n      */\r\n    constructor()\r\n        public\r\n    {\r\n        owner = msg.sender;    \r\n        // ccFactoryAddress = new ContentCreatorFactory();\r\n        // userFactoryAddress = new UserFactory();\r\n        // minterAddress = new LoveMachine();\r\n        // registryAddress = new Register();\r\n        \r\n        // ccf = ContentCreatorFactory(ccFactoryAddress);\r\n        // uf = UserFactory(userFactoryAddress);\r\n        // m = LoveMachine(minterAddress);\r\n        // registry = Register(registryAddress);\r\n    }\r\n    \r\n    /**\r\n      * @dev This function sets up all the contracts and inputs the \r\n      *     various addresses they all need after they have all been \r\n      *     created by blank constructors. \r\n      * @notice This function sets paused to false and allows the data \r\n      *     storage to be used for state modification. \r\n      */\r\n    function setUpDataContracts(\r\n        address _userFactoryAddress,\r\n        address _ccFactoryAddress,\r\n        address _minterAddress,\r\n        address _register\r\n        )\r\n        public\r\n        onlyOwner \r\n        stopInEmergency\r\n        returns(bool)\r\n    {\r\n        ccf = ContentCreatorFactory(_ccFactoryAddress);\r\n        uf = UserFactory(_userFactoryAddress);\r\n        m = LoveMachine(_minterAddress);\r\n        registry = Register(_register);\r\n        \r\n        // ccf.constructorFunction(this);\r\n        // uf.constructorFunction(this, owner, ccFactoryAddress);\r\n        // m.constructorFunction(this);\r\n        // registry.constructorFunction(\r\n        //     userFactoryAddress,\r\n        //     ccFactoryAddress,\r\n        //     minterAddress,\r\n        //     owner,\r\n        //     this\r\n        // );\r\n        \r\n        setPause(false);\r\n        \r\n        emit LogSetUp(_userFactoryAddress, _ccFactoryAddress, _minterAddress, _register);\r\n        \r\n        return true;\r\n    }\r\n    \r\n    /**\r\n      * @dev Locks the user so that no other state changes\r\n      *     for that user may occur at the same time, thus preventing reentry attacks \r\n      *     and other recursion atacks. It also helps with code readability.\r\n      *     As an instance of a User is being created, we have to check the address\r\n      *     dose belong to a user. \r\n      * @notice creating instances of the users is expensive and inifiecient. Future\r\n      *     versions will allow for the users data to be entirely stored in the \r\n      *     dataStorage, meaning an instance of the user dose not need to be created \r\n      *     to check or set their lock. \r\n      * @param _user : The user who is making the state change. \r\n      */\r\n    function lockUser(address _user) \r\n        private\r\n        //onlyAUser(_user)\r\n        pauseFunction\r\n    {\r\n        User u;\r\n        u = User(_user);\r\n        u.setLock(true);\r\n        if(this.isCreator(_user)) {\r\n            ContentCreator ccc = ContentCreator(this.getCreatorAddressFromUser(_user));\r\n            ccc.setLock(true);\r\n        }\r\n    }\r\n    \r\n    /**\r\n      * @dev Unlocks the user so they may make other state changes. \r\n      * @notice creating instances of the users is expensive and inifiecient. Future\r\n      *     versions will allow for the users data to be entirely stored in the \r\n      *     dataStorage, meaning an instance of the user dose not need to be created \r\n      *     to check or set their lock. \r\n      * @param _user : The user who is being unlocked to make state changes.\r\n      */\r\n    function unlockUser(address _user)\r\n        private\r\n        //onlyAUser(_user)\r\n        pauseFunction\r\n    {\r\n        User u;\r\n        u = User(_user);\r\n        u.setLock(false);\r\n        if(this.isCreator(_user)) {\r\n            ContentCreator ccc = ContentCreator(this.getCreatorAddressFromUser(_user));\r\n            ccc.setLock(false);\r\n        }\r\n    }\r\n    \r\n    /**\r\n      * @return address : The address of the minter.\r\n      */\r\n    function getMinter()\r\n        public\r\n        view\r\n        returns(address)\r\n    {\r\n        return registry.getMinter();\r\n    }\r\n    \r\n    /**\r\n      * @return address[] : The addresses of all Users. \r\n      */\r\n    function getAllUserAddresses() \r\n        public \r\n        view\r\n        returns(address[])\r\n    {\r\n        return usersAddresses;\r\n    }\r\n\r\n    /**\r\n      * @return address[] : The addresses of all creators. \r\n      */\r\n    function getAllCreatorsAddresses() \r\n        public \r\n        view\r\n        returns(address[])\r\n    {\r\n        return creatorsAddresses;\r\n    }\r\n\r\n    /**\r\n      * @return string[] : All user names registered. \r\n      */\r\n    function getAllUsersNames() \r\n        public \r\n        view\r\n        returns(string[])\r\n    {\r\n        return usersNames;\r\n    }\r\n    \r\n    /**\r\n      * @param _user : The address of the user whos \r\n      *     name is wanted.  \r\n      * @return string : A users name. \r\n      */\r\n    function getAUsersName(address _user)\r\n        public\r\n        view\r\n        returns(string)    \r\n    {\r\n        string userName = allUserNames[_user];\r\n        return(userName);\r\n    }\r\n    \r\n    /**\r\n      * @param _userAddress : The address of the user \r\n      *     that is being checked as a creator. \r\n      * @return bool : Wether they are a creator or not.      \r\n      */\r\n    function isCreator(address _userAddress)\r\n        public\r\n        view\r\n        returns(bool)\r\n    {\r\n        if(creatorsContractOwners[_userAddress] != 0) {\r\n            return true;\r\n        }\r\n        return false;\r\n    }\r\n    \r\n    /**\r\n      * @param _addressToCheck : The address to be checked. \r\n      * @return bool : Wether the address is a user. \r\n      */\r\n    function isUser(address _addressToCheck)\r\n        public\r\n        view\r\n        returns(bool)\r\n    {\r\n        if(userContractOwners[_addressToCheck] != 0) {\r\n            return true;\r\n        }\r\n        return false;\r\n    }\r\n    \r\n    /**\r\n      * @param _userAddress : The user address\r\n      * @return address : The address of the users Creator contract. \r\n      */\r\n    function getCreatorAddressFromUser(address _userAddress)\r\n        public\r\n        view\r\n        returns(address)\r\n    {\r\n        require(creatorsContractOwners[_userAddress] != 0);\r\n        return creatorsContractOwners[_userAddress];\r\n    }\r\n\r\n    /**\r\n      * @param _contractAddress : The address of the users contract. \r\n      * @return address : The address of the owner.\r\n      */\r\n    function getAUsersOwnerData(address _contractAddress)\r\n        public\r\n        view\r\n        returns(address)\r\n    {\r\n        require(userContractOwners[_contractAddress] != 0);\r\n        return(userContractOwners[_contractAddress]);\r\n    }\r\n\r\n    /**\r\n      * @param _contractAddress : The address of the useowner.\r\n      * @return string : The users UserName. \r\n      */\r\n    function getAUsersNameData(address _contractAddress)\r\n        public\r\n        view\r\n        returns(string)\r\n    {\r\n        //require(allUsers[_contractAddress] != 0);\r\n        return(allUserNames[_contractAddress]);\r\n    }\r\n    \r\n    /**\r\n      * @dev This function dose not need user locks or safy checks \r\n      *     as it is mearly a counter for views dispenced and the users \r\n      *     total amount of views purchased. \r\n      * @param _user : The users address.\r\n      *     _amount : The amount of views purchased. \r\n      */\r\n    function setTotalViewsDispenced(address _user, uint _amount) \r\n        public \r\n        onlyMinter(_amount)\r\n        stopInEmergency\r\n        pauseFunction\r\n    {\r\n        UsersTotalViewPurchases[_user] += _amount;\r\n        totalViewCreated += _amount;\r\n    }\r\n    \r\n    /**\r\n      * @dev For when a content creator whishes to delete their account.\r\n      * @param _ccc : The content creator contract address.\r\n      *     _userContract : The address of the users account.\r\n      */\r\n    function moveAllFundsToUser(address _ccc, address _userContract)\r\n        public\r\n        onlyCreatorFactory\r\n        lockCheck(_userContract)\r\n    {\r\n        lockUser(_userContract);\r\n        \r\n        uint allFunds = allCreators[_ccc];\r\n        allCreators[_ccc] -= allFunds;\r\n        \r\n        allUsers[_userContract] += allFunds;\r\n        \r\n        unlockUser(_userContract);\r\n    }\r\n    \r\n    /**\r\n      * @dev Called when views are being taken out of an account \r\n      *     and  do not need to be paid to a creator.\r\n      * @param _adder : Whom ever is being 'charged' the View.\r\n      *     _amount : The amount of views being taken from the adder. \r\n      * @return bool : Compleated function. \r\n      */\r\n    function addToModeratorFund(address _adder, uint _amount)\r\n        internal \r\n        returns(bool)\r\n    {\r\n        require(_amount > 0);\r\n        moderatorViews += _amount;\r\n        \r\n        emit LogModeriatorFund(_adder, _amount);\r\n    }\r\n    \r\n    /**\r\n      * @dev Allows for the owner to set the emergency state. \r\n      * @notice This function takes in a bool instead of being two \r\n      *     functions (one that sets true and one that sets false) \r\n      *     as to simplify access. \r\n      * @param _emergencyState : The state to set emergency to. \r\n      * @return bool : Returns true once function compleate.\r\n      */\r\n    function setEmergency(bool _emergencyState)\r\n        public \r\n        onlyOwner \r\n        pauseFunction\r\n        returns(bool)\r\n    {\r\n        emit LogEmergency(_emergencyState);\r\n        \r\n        emergencyStop = _emergencyState;\r\n        return true;\r\n    }\r\n    \r\n    /**\r\n      * @dev Sets the pause function. Is not stopped during emergency \r\n      *     to allow for state mutability to be changed during an emergency. \r\n      */\r\n    function setPause(bool pauseState) \r\n        public\r\n        onlyOwner\r\n        returns(bool) \r\n    {\r\n        emit LogPause(pauseState);\r\n        \r\n        return pause = pauseState;\r\n    }\r\n    \r\n    /**\r\n      * @dev used to update the dataStorages instance of the ccontract.\r\n      * @param _newUserFactory : The address of the new contract. \r\n      */\r\n    function registryUpdateUserFactory(address _newUserFactory)\r\n        public\r\n        onlyRegistry\r\n        pauseFunction\r\n    {\r\n        uf = UserFactory(_newUserFactory);\r\n    }\r\n    \r\n    /**\r\n      * @dev used to update the dataStorages instance of the ccontract.\r\n      * @param _newCCFactory : The address of the new contract. \r\n      */\r\n    function registryUpdateCCFactory(address _newCCFactory)\r\n        public\r\n        onlyRegistry\r\n        pauseFunction\r\n    {\r\n        ccf = ContentCreatorFactory(_newCCFactory);\r\n    }\r\n    \r\n    /**\r\n      * @dev used to update the dataStorages instance of the ccontract.\r\n      * @param _newMinter : The address of the new contract. \r\n      */\r\n    function registryUpdateMinter(address _newMinter)\r\n        public\r\n        onlyRegistry\r\n        pauseFunction\r\n    {\r\n        m = LoveMachine(_newMinter);\r\n    }\r\n\r\n    /**\r\n      * @dev Creates a new userUser. \r\n      * @notice Only the user factory can call the creation of a new \r\n      *     user, so that the user has to be registed to the system \r\n      *     and to ensure that the user is an actual user and belongs to \r\n      *     the  UserFactory.\r\n      * @param _user : The address of the creators wallet. \r\n      *     _userContract : The address of the users created user contract.\r\n      *     _userName : The users chosen userName. \r\n      */\r\n    function setNewUserData(address _user, address _userContract, string _userName)\r\n        public \r\n        //onlyUserFactory\r\n        //lockCheck(_userContract)\r\n        //stopInEmergency\r\n        //pauseFunction\r\n    {\r\n        //lockUser(_userContract);\r\n        \r\n        allUsers[_userContract] = 0;\r\n        allUserNames[_userContract] = _userName;\r\n        userContractOwners[_userContract] = _user;\r\n        usersAddresses.push(_userContract);\r\n        usersNames.push(_userName);\r\n        \r\n        emit LogUserCreated(_user, _userContract, _userName);\r\n        \r\n        //unlockUser(_userContract);\r\n    }\r\n    \r\n    /** \r\n      * @dev Called by the users Factory by the users contract to delete the \r\n      *     users details and send all their views back to them as Ether. \r\n      * @notice This method implements the lock to ensure no other transactions\r\n      *     are happening before the users Contract is deleted.\r\n      * @param _user : The address of the users contract. To be removed \r\n      *         in future versions and the address of the users wallet from \r\n      *         storage.\r\n      *     _userContract : The address of the users Contract.\r\n      *     string _usrName: The users name.\r\n      */\r\n    function removeUserData(address _user, address _userContract, string _userName)\r\n        public\r\n        onlyUserFactory \r\n        beforeDeleteChecksUser(_userContract) \r\n        stopInEmergency\r\n        pauseFunction\r\n        returns(bool)\r\n    {\r\n        //function is called through the user factory, but the account should \r\n            //have all funds sent to their users wallets. \r\n        //TODO: delete creator content as well. \r\n        delete allUsers[_userContract];\r\n        delete allUserNames[_userContract];\r\n        delete userContractOwners[_userContract];\r\n        for(uint i = 0; i < usersAddresses.length; i++) {\r\n            if(usersAddresses[i] == _userContract) {\r\n                delete usersAddresses[i];\r\n                break;\r\n            }\r\n        }\r\n        for(uint a = 0; a < usersNames.length; a++) {\r\n            if(keccak256(usersNames[a]) == keccak256(_userName)) {\r\n                delete usersNames[a];\r\n                break;\r\n            }\r\n        }\r\n        \r\n        emit LogUserDeleted(_user, _userContract, _userName);\r\n        \r\n        return true;\r\n    }\r\n    \r\n    /**\r\n      * @dev This allows a new creator to be finalized and stored.\r\n      * @notice The 'transaction fee' of a like (5 views) is taken \r\n      *     and added to the moderator fund, to help pay for the \r\n      *     moderation of content. \r\n      *     This method can only be called by the minter as the minter \r\n      *     needs to handle all payable methods values.\r\n      * @param _userContract : The address of the users contract.\r\n      *     _creatorContract : The address of the new Creators contract.\r\n      */\r\n    function setNewCreatorData(address _userContract, address _creatorContract) \r\n        public \r\n        onlyMinter(1) \r\n        stopInEmergency \r\n        pauseFunction\r\n        returns(bool)\r\n    {\r\n        require(\r\n            allUsers[_userContract] > 5, \r\n            \"You need to be able to like your own stuff.\"\r\n        );\r\n        allUsers[_userContract] -= 5;\r\n        moderatorViews += 5;\r\n        \r\n        addToModeratorFund(_userContract, 5);\r\n        \r\n        allCreators[_creatorContract] = 0;\r\n        creatorsContractOwners[_userContract] = _creatorContract;\r\n        creatorsAddresses.push(_creatorContract);\r\n        \r\n        emit LogCreatorCreated(_userContract, _creatorContract);\r\n        \r\n        return true;\r\n    }\r\n\r\n    /**\r\n      * @dev Removes the creators data and deletes all their information off \r\n      *     the system. It requires that the user has already cleared their \r\n      *     balance. This function deletes the user information and the \r\n      *     creator information. \r\n      * @param _userContract : The address of the user contract. \r\n      *     _creatorContract : The address of the creators contract. \r\n      * @return bool : After the function has been completed. \r\n      */\r\n    function removeCreatorData(address _userContract, address _creatorContract) \r\n        public\r\n        onlyCreatorFactory \r\n        beforeDeleteChecksCreator(_creatorContract) \r\n        beforeDeleteChecksUser(_userContract)\r\n        stopInEmergency\r\n        pauseFunction\r\n        returns(bool)\r\n    {\r\n        delete allCreators[_creatorContract];\r\n        delete creatorsContractOwners[_userContract];\r\n        for(uint a = 0; a < creatorsAddresses.length; a++) {\r\n            if(creatorsAddresses[a] == _creatorContract) {\r\n                delete creatorsAddresses[a];\r\n                break;\r\n            }\r\n        }\r\n        \r\n        emit LogCreatorDeleted(_userContract, _creatorContract);\r\n        \r\n        return true;\r\n    }\r\n\r\n    /**\r\n      * @dev Saves a users purchase of views after LoveMachine has been paid.\r\n      * @param _userContract : The users contract address.\r\n      *     _amount : The amount of views the user has already paid for in the \r\n      *         LoveMachine.\r\n      * @return bool After it has changed the users balance.\r\n      */\r\n    function buyViewsSave(address _userContract, uint _amount)\r\n        public\r\n        onlyMinter(_amount)\r\n        lockCheck(_userContract)\r\n        stopInEmergency\r\n        pauseFunction\r\n        returns(bool)\r\n    {\r\n        lockUser(_userContract);\r\n        \r\n        allUsers[_userContract] += _amount - 5;\r\n        setTotalViewsDispenced(_userContract, _amount - 5);\r\n        \r\n        addToModeratorFund(_userContract, 5);\r\n        \r\n        emit LogBoughtViewsUser(_userContract, _amount);\r\n        \r\n        unlockUser(_userContract);\r\n        return true;\r\n    }\r\n    \r\n    /**\r\n      * @dev Saves a users sale of views before the LoveMachine pays the user the \r\n      *     value of the views in Ether.\r\n      * @notice the assert is used as a prevention of underflow.\r\n      * @param _userContract : The users contract address.\r\n      *     _amount : The amount of views the user is selling. \r\n      * @return bool After it has changed the users balance.\r\n      */\r\n    function sellViewsSave(address _userContract, uint _amount)\r\n        public\r\n        onlyMinter(_amount)\r\n        lockCheck(_userContract)\r\n        stopInEmergency\r\n        pauseFunction\r\n        returns(bool)\r\n    {\r\n        lockUser(_userContract);\r\n        \r\n        assert(allUsers[_userContract] - _amount > 0);\r\n        \r\n        allUsers[_userContract] -= _amount;\r\n        \r\n        unlockUser(_userContract);\r\n        return true;\r\n    }\r\n    \r\n    /**\r\n      * @dev Allows a creator to send views from their user contract (where they can \r\n      *     buy and sell views) to their creator contract.\r\n      * @notice This function is nessasary as the seporation of user contracts from \r\n      *     creator contracts prevents some reentry attacks. \r\n      * @param _user : The users contracts account. \r\n      *     _amount: The amount of views they wish to transfer from their user contract \r\n      *         to their creator accouhnt. Amount is set in the LoveMachine, and \r\n      *         check here. \r\n      * @return bool After the function has compleated. \r\n      */\r\n    function fromUserToCreator(address _user, uint _amount) \r\n        public\r\n        onlyMinter(_amount)\r\n        lockCheck(_user)\r\n        stopInEmergency\r\n        pauseFunction\r\n        returns(bool)\r\n    {\r\n        lockUser(_user);\r\n        \r\n        require(isCreator(_user));\r\n        require(allUsers[_user] > _amount);\r\n        allUsers[_user] -= _amount;\r\n        allCreators[getCreatorAddressFromUser(_user)] += _amount;\r\n        \r\n        unlockUser(_user);\r\n        return true;\r\n        \r\n    }\r\n    \r\n    /**\r\n      * @dev Allows the creator to send views from their creator account to their\r\n      *     user contract account so they can sell them back for Ether, or so they \r\n      *     can view and consume contennt. \r\n      * @notice This function is nessasary for the compleate seporation of consurns \r\n      *     and to prevent various weaknesses and attack points through reeentry. \r\n      *     No views are being bought or sold and therefore there are no emits or \r\n      *     logs of any kind. \r\n      *     Function checks that the _amount is not more than the creator address has. \r\n      * @param _user : The users contract address.\r\n      *     _amount : The amount of views they wish to transfer. \r\n      */\r\n    function fromCreatorToUser(address _user, uint _amount)\r\n        public\r\n        onlyMinter(_amount)\r\n        lockCheck(_user)\r\n        stopInEmergency\r\n        pauseFunction\r\n        returns(bool)\r\n    {\r\n        lockUser(_user);\r\n        \r\n        require(isCreator(_user));\r\n        require(allCreators[getCreatorAddressFromUser(_user)] > _amount);\r\n        allCreators[getCreatorAddressFromUser(_user)] -= _amount;\r\n        allUsers[_user] += _amount;\r\n        \r\n        unlockUser(_user);\r\n        return true;\r\n    }\r\n    \r\n    /**\r\n      * @dev Minter calls this when a user likes content. \r\n      * @notice Only the user is locked as the content creator should be able to \r\n      *     recive multipule likes, and should not be licked by each one as this \r\n      *     would slow down the system sygnificantly.\r\n      */\r\n    function storingLikes(ViewsUsed viewUsedRecived, address _contentOwner, address _user)\r\n        public \r\n        onlyMinter(1)\r\n        lockCheck(_user)\r\n        stopInEmergency\r\n        pauseFunction\r\n    {\r\n        lockUser(_user);\r\n        \r\n        if (viewUsedRecived == ViewsUsed.LIKED) {\r\n            require(allUsers[_user] > 5);\r\n            allUsers[_user] -= 5;\r\n            allCreators[_contentOwner] += 5;\r\n            \r\n            emit LogBoughtViewsUser(_user, 5);\r\n        }\r\n        if (viewUsedRecived == ViewsUsed.LOVED) {\r\n            require(allUsers[_user] > 15);\r\n            allUsers[_user] -= 15;\r\n            allCreators[_contentOwner] += 15;\r\n            addToModeratorFund(_user, 15);\r\n            \r\n            emit LogBoughtViewsUser(_user, 15);\r\n        }\r\n        if (viewUsedRecived == ViewsUsed.FANLOVED) {\r\n            require(allUsers[_user] > 25);\r\n            allUsers[_user] -= 25;\r\n            allCreators[_contentOwner] += 25;\r\n            addToModeratorFund(_user, 25);\r\n            \r\n            emit LogBoughtViewsUser(_user, 25);\r\n        }\r\n        \r\n        unlockUser(_user);\r\n    }\r\n\r\n    /**\r\n      * @dev This function allows for the storage of newly created content. \r\n      * @notice This contract can only be called by the minter as the \r\n      *     minter handles a;; calles that have the potential for value \r\n      *     transfer.\r\n      */\r\n    function createContent(\r\n        address _contentCreatorContract, \r\n        string _addressIPFS, \r\n        string _title, \r\n        string _description\r\n        )\r\n        public\r\n        onlyMinter(1)\r\n        stopInEmergency\r\n        pauseFunction\r\n    {\r\n        creatorContent[_contentCreatorContract].push(Content({creator: _contentCreatorContract,\r\n        contentLocationIPFS: _addressIPFS,\r\n        title: _title,\r\n        description: _description,\r\n        views: 0}));\r\n        //reducing balance of content creator\r\n        require(allCreators[_contentCreatorContract] > 5);\r\n        allCreators[_contentCreatorContract] -= 5;\r\n        moderatorViews += 5;\r\n        \r\n        addToModeratorFund(_contentCreatorContract, 5);\r\n        \r\n        allContent.push(Content({\r\n            creator: _contentCreatorContract,\r\n            contentLocationIPFS: _addressIPFS,\r\n            title: _title,\r\n            description: _description,\r\n            views: 0\r\n        })); \r\n        //for front end to have access to lates and all content\r\n        emit LogContentCreated(allContent.length, _title, _contentCreatorContract);\r\n        //For the indervidual conent creators to be able to claim ownership of content\r\n        uint length = creatorContent[_contentCreatorContract].length;\r\n        creatorContent[_contentCreatorContract][length] = Content({\r\n            creator: _contentCreatorContract,\r\n            contentLocationIPFS: _addressIPFS,\r\n            title: _title,\r\n            description: _description,\r\n            views: 0\r\n        });\r\n        \r\n        Content[] storage temp = creatorContent[_contentCreatorContract];\r\n        temp.push(Content({\r\n            creator: _contentCreatorContract,\r\n            contentLocationIPFS: _addressIPFS,\r\n            title: _title,\r\n            description: _description,\r\n            views: 0\r\n        }));\r\n    }    \r\n    \r\n    /**\r\n      * @dev Checks the uniqueness of a userName. \r\n      * @param _userName : The userName to be checked. \r\n      * @return bool : Wether the user name is unique or \r\n      *     not.\r\n      */\r\n    function isUnique(string _userName)\r\n        public\r\n        view\r\n        returns(bool)\r\n    {\r\n        for(uint i = 0; i < usersNames.length; i++){\r\n            if(\r\n                keccak256(_userName) != keccak256(usersNames[i])) \r\n            {\r\n            } else {\r\n                return false;\r\n            }\r\n        }\r\n        return true;\r\n    }\r\n\r\n    /**\r\n      * @dev This function allows the register to replace itself. \r\n      * @notice The function in the register that allows it to be \r\n      *     replaced can only be called by the owner. \r\n      * @param _newRegister : The address of the new register. \r\n      */\r\n    function updateRegister(address _newRegister) \r\n        onlyRegistry\r\n        pauseFunction\r\n        public\r\n    {\r\n        registry = Register(_newRegister);\r\n    } \r\n}",
  "sourcePath": "C:\\Users\\Veronica Coutts\\Desktop\\Desktop\\Work\\Web3 Projects\\MVP\\mvp\\contracts\\DataStorage.sol",
  "compiler": {
    "name": "solc",
    "version": "0.4.24+commit.e67f0147.Emscripten.clang"
  },
  "schemaVersion": "2.0.1",
  "updatedAt": "2018-08-26T12:30:03.338Z"
}