{
  "contractName": "DataStorage",
  "abi": [
    {
      "constant": true,
      "inputs": [
        {
          "name": "",
          "type": "uint256"
        }
      ],
      "name": "creatorsAddresses",
      "outputs": [
        {
          "name": "",
          "type": "address"
        }
      ],
      "payable": false,
      "stateMutability": "view",
      "type": "function"
    },
    {
      "constant": true,
      "inputs": [
        {
          "name": "",
          "type": "uint256"
        }
      ],
      "name": "allContent",
      "outputs": [
        {
          "name": "creator",
          "type": "address"
        },
        {
          "name": "contentLocationIPFS",
          "type": "string"
        },
        {
          "name": "title",
          "type": "string"
        },
        {
          "name": "description",
          "type": "string"
        },
        {
          "name": "views",
          "type": "uint256"
        }
      ],
      "payable": false,
      "stateMutability": "view",
      "type": "function"
    },
    {
      "constant": true,
      "inputs": [],
      "name": "moderatorViews",
      "outputs": [
        {
          "name": "",
          "type": "uint256"
        }
      ],
      "payable": false,
      "stateMutability": "view",
      "type": "function"
    },
    {
      "constant": true,
      "inputs": [
        {
          "name": "",
          "type": "address"
        }
      ],
      "name": "creatorsContractOwners",
      "outputs": [
        {
          "name": "",
          "type": "address"
        }
      ],
      "payable": false,
      "stateMutability": "view",
      "type": "function"
    },
    {
      "constant": true,
      "inputs": [],
      "name": "minterAddress",
      "outputs": [
        {
          "name": "",
          "type": "address"
        }
      ],
      "payable": false,
      "stateMutability": "view",
      "type": "function"
    },
    {
      "constant": true,
      "inputs": [],
      "name": "userFactoryAddress",
      "outputs": [
        {
          "name": "",
          "type": "address"
        }
      ],
      "payable": false,
      "stateMutability": "view",
      "type": "function"
    },
    {
      "constant": true,
      "inputs": [
        {
          "name": "",
          "type": "uint256"
        }
      ],
      "name": "usersNames",
      "outputs": [
        {
          "name": "",
          "type": "string"
        }
      ],
      "payable": false,
      "stateMutability": "view",
      "type": "function"
    },
    {
      "constant": true,
      "inputs": [],
      "name": "emergencyStop",
      "outputs": [
        {
          "name": "",
          "type": "bool"
        }
      ],
      "payable": false,
      "stateMutability": "view",
      "type": "function"
    },
    {
      "constant": true,
      "inputs": [
        {
          "name": "",
          "type": "address"
        },
        {
          "name": "",
          "type": "uint256"
        }
      ],
      "name": "creatorContent",
      "outputs": [
        {
          "name": "creator",
          "type": "address"
        },
        {
          "name": "contentLocationIPFS",
          "type": "string"
        },
        {
          "name": "title",
          "type": "string"
        },
        {
          "name": "description",
          "type": "string"
        },
        {
          "name": "views",
          "type": "uint256"
        }
      ],
      "payable": false,
      "stateMutability": "view",
      "type": "function"
    },
    {
      "constant": true,
      "inputs": [
        {
          "name": "",
          "type": "address"
        }
      ],
      "name": "allCreators",
      "outputs": [
        {
          "name": "",
          "type": "uint256"
        }
      ],
      "payable": false,
      "stateMutability": "view",
      "type": "function"
    },
    {
      "constant": true,
      "inputs": [
        {
          "name": "",
          "type": "uint256"
        }
      ],
      "name": "usersAddresses",
      "outputs": [
        {
          "name": "",
          "type": "address"
        }
      ],
      "payable": false,
      "stateMutability": "view",
      "type": "function"
    },
    {
      "constant": true,
      "inputs": [],
      "name": "pause",
      "outputs": [
        {
          "name": "",
          "type": "bool"
        }
      ],
      "payable": false,
      "stateMutability": "view",
      "type": "function"
    },
    {
      "constant": true,
      "inputs": [],
      "name": "owner",
      "outputs": [
        {
          "name": "",
          "type": "address"
        }
      ],
      "payable": false,
      "stateMutability": "view",
      "type": "function"
    },
    {
      "constant": true,
      "inputs": [
        {
          "name": "",
          "type": "address"
        }
      ],
      "name": "userContractOwners",
      "outputs": [
        {
          "name": "",
          "type": "address"
        }
      ],
      "payable": false,
      "stateMutability": "view",
      "type": "function"
    },
    {
      "constant": true,
      "inputs": [
        {
          "name": "",
          "type": "address"
        }
      ],
      "name": "UsersTotalViewPurchases",
      "outputs": [
        {
          "name": "",
          "type": "uint256"
        }
      ],
      "payable": false,
      "stateMutability": "view",
      "type": "function"
    },
    {
      "constant": true,
      "inputs": [
        {
          "name": "",
          "type": "address"
        }
      ],
      "name": "allUserNames",
      "outputs": [
        {
          "name": "",
          "type": "string"
        }
      ],
      "payable": false,
      "stateMutability": "view",
      "type": "function"
    },
    {
      "constant": true,
      "inputs": [],
      "name": "ccFactoryAddress",
      "outputs": [
        {
          "name": "",
          "type": "address"
        }
      ],
      "payable": false,
      "stateMutability": "view",
      "type": "function"
    },
    {
      "constant": true,
      "inputs": [],
      "name": "registryAddress",
      "outputs": [
        {
          "name": "",
          "type": "address"
        }
      ],
      "payable": false,
      "stateMutability": "view",
      "type": "function"
    },
    {
      "constant": true,
      "inputs": [
        {
          "name": "",
          "type": "address"
        }
      ],
      "name": "allUsers",
      "outputs": [
        {
          "name": "",
          "type": "uint256"
        }
      ],
      "payable": false,
      "stateMutability": "view",
      "type": "function"
    },
    {
      "inputs": [],
      "payable": false,
      "stateMutability": "nonpayable",
      "type": "constructor"
    },
    {
      "anonymous": false,
      "inputs": [
        {
          "indexed": false,
          "name": "_emergency",
          "type": "bool"
        }
      ],
      "name": "LogEmergency",
      "type": "event"
    },
    {
      "anonymous": false,
      "inputs": [
        {
          "indexed": false,
          "name": "_pause",
          "type": "bool"
        }
      ],
      "name": "LogPause",
      "type": "event"
    },
    {
      "anonymous": false,
      "inputs": [
        {
          "indexed": false,
          "name": "_userFactoryAddress",
          "type": "address"
        },
        {
          "indexed": false,
          "name": "_creatorFactoryAddress",
          "type": "address"
        },
        {
          "indexed": false,
          "name": "_minterAddress",
          "type": "address"
        }
      ],
      "name": "LogSetUp",
      "type": "event"
    },
    {
      "anonymous": false,
      "inputs": [
        {
          "indexed": false,
          "name": "_account",
          "type": "address"
        },
        {
          "indexed": false,
          "name": "_amount",
          "type": "uint256"
        }
      ],
      "name": "LogBoughtViewsUser",
      "type": "event"
    },
    {
      "anonymous": false,
      "inputs": [
        {
          "indexed": false,
          "name": "_account",
          "type": "address"
        },
        {
          "indexed": false,
          "name": "_amount",
          "type": "uint256"
        }
      ],
      "name": "LogModeriatorFund",
      "type": "event"
    },
    {
      "anonymous": false,
      "inputs": [
        {
          "indexed": false,
          "name": "_owner",
          "type": "address"
        },
        {
          "indexed": false,
          "name": "_userContract",
          "type": "address"
        },
        {
          "indexed": false,
          "name": "_userName",
          "type": "string"
        }
      ],
      "name": "LogUserCreated",
      "type": "event"
    },
    {
      "anonymous": false,
      "inputs": [
        {
          "indexed": false,
          "name": "_owner",
          "type": "address"
        },
        {
          "indexed": false,
          "name": "_userContract",
          "type": "address"
        },
        {
          "indexed": false,
          "name": "_userName",
          "type": "string"
        }
      ],
      "name": "LogUserDeleted",
      "type": "event"
    },
    {
      "anonymous": false,
      "inputs": [
        {
          "indexed": false,
          "name": "_userCOwner",
          "type": "address"
        },
        {
          "indexed": false,
          "name": "_creatorContract",
          "type": "address"
        }
      ],
      "name": "LogCreatorCreated",
      "type": "event"
    },
    {
      "anonymous": false,
      "inputs": [
        {
          "indexed": false,
          "name": "_userContract",
          "type": "address"
        },
        {
          "indexed": false,
          "name": "_creatorContract",
          "type": "address"
        }
      ],
      "name": "LogCreatorDeleted",
      "type": "event"
    },
    {
      "anonymous": false,
      "inputs": [
        {
          "indexed": true,
          "name": "_position",
          "type": "uint256"
        },
        {
          "indexed": true,
          "name": "_title",
          "type": "string"
        },
        {
          "indexed": true,
          "name": "_creator",
          "type": "address"
        }
      ],
      "name": "LogContentCreated",
      "type": "event"
    },
    {
      "constant": false,
      "inputs": [],
      "name": "setUpDataContracts",
      "outputs": [
        {
          "name": "",
          "type": "bool"
        }
      ],
      "payable": false,
      "stateMutability": "nonpayable",
      "type": "function"
    },
    {
      "constant": true,
      "inputs": [],
      "name": "getMinter",
      "outputs": [
        {
          "name": "",
          "type": "address"
        }
      ],
      "payable": false,
      "stateMutability": "view",
      "type": "function"
    },
    {
      "constant": true,
      "inputs": [],
      "name": "getAllUserAddresses",
      "outputs": [
        {
          "name": "",
          "type": "address[]"
        }
      ],
      "payable": false,
      "stateMutability": "view",
      "type": "function"
    },
    {
      "constant": true,
      "inputs": [],
      "name": "getAllCreatorsAddresses",
      "outputs": [
        {
          "name": "",
          "type": "address[]"
        }
      ],
      "payable": false,
      "stateMutability": "view",
      "type": "function"
    },
    {
      "constant": true,
      "inputs": [],
      "name": "getAllUsersNames",
      "outputs": [
        {
          "name": "",
          "type": "string[]"
        }
      ],
      "payable": false,
      "stateMutability": "view",
      "type": "function"
    },
    {
      "constant": true,
      "inputs": [
        {
          "name": "_user",
          "type": "address"
        }
      ],
      "name": "getAUsersName",
      "outputs": [
        {
          "name": "",
          "type": "string"
        }
      ],
      "payable": false,
      "stateMutability": "view",
      "type": "function"
    },
    {
      "constant": true,
      "inputs": [
        {
          "name": "_userAddress",
          "type": "address"
        }
      ],
      "name": "isCreator",
      "outputs": [
        {
          "name": "",
          "type": "bool"
        }
      ],
      "payable": false,
      "stateMutability": "view",
      "type": "function"
    },
    {
      "constant": true,
      "inputs": [
        {
          "name": "_addressToCheck",
          "type": "address"
        }
      ],
      "name": "isUser",
      "outputs": [
        {
          "name": "",
          "type": "bool"
        }
      ],
      "payable": false,
      "stateMutability": "view",
      "type": "function"
    },
    {
      "constant": true,
      "inputs": [
        {
          "name": "_userAddress",
          "type": "address"
        }
      ],
      "name": "getCreatorAddressFromUser",
      "outputs": [
        {
          "name": "",
          "type": "address"
        }
      ],
      "payable": false,
      "stateMutability": "view",
      "type": "function"
    },
    {
      "constant": true,
      "inputs": [
        {
          "name": "_contractAddress",
          "type": "address"
        }
      ],
      "name": "getAUsersOwnerData",
      "outputs": [
        {
          "name": "",
          "type": "address"
        }
      ],
      "payable": false,
      "stateMutability": "view",
      "type": "function"
    },
    {
      "constant": true,
      "inputs": [
        {
          "name": "_contractAddress",
          "type": "address"
        }
      ],
      "name": "getAUsersNameData",
      "outputs": [
        {
          "name": "",
          "type": "string"
        }
      ],
      "payable": false,
      "stateMutability": "view",
      "type": "function"
    },
    {
      "constant": false,
      "inputs": [
        {
          "name": "_user",
          "type": "address"
        },
        {
          "name": "_amount",
          "type": "uint256"
        }
      ],
      "name": "setTotalViewsDispenced",
      "outputs": [],
      "payable": false,
      "stateMutability": "nonpayable",
      "type": "function"
    },
    {
      "constant": false,
      "inputs": [
        {
          "name": "_ccc",
          "type": "address"
        },
        {
          "name": "_userContract",
          "type": "address"
        }
      ],
      "name": "moveAllFundsToUser",
      "outputs": [],
      "payable": false,
      "stateMutability": "nonpayable",
      "type": "function"
    },
    {
      "constant": false,
      "inputs": [
        {
          "name": "_emergencyState",
          "type": "bool"
        }
      ],
      "name": "setEmergency",
      "outputs": [
        {
          "name": "",
          "type": "bool"
        }
      ],
      "payable": false,
      "stateMutability": "nonpayable",
      "type": "function"
    },
    {
      "constant": false,
      "inputs": [
        {
          "name": "pauseState",
          "type": "bool"
        }
      ],
      "name": "setPause",
      "outputs": [
        {
          "name": "",
          "type": "bool"
        }
      ],
      "payable": false,
      "stateMutability": "nonpayable",
      "type": "function"
    },
    {
      "constant": false,
      "inputs": [
        {
          "name": "_user",
          "type": "address"
        },
        {
          "name": "_userContract",
          "type": "address"
        },
        {
          "name": "_userName",
          "type": "string"
        }
      ],
      "name": "setNewUserData",
      "outputs": [],
      "payable": false,
      "stateMutability": "nonpayable",
      "type": "function"
    },
    {
      "constant": false,
      "inputs": [
        {
          "name": "_newUserFactory",
          "type": "address"
        }
      ],
      "name": "registryUpdateUserFactory",
      "outputs": [],
      "payable": false,
      "stateMutability": "nonpayable",
      "type": "function"
    },
    {
      "constant": false,
      "inputs": [
        {
          "name": "_newCCFactory",
          "type": "address"
        }
      ],
      "name": "registryUpdateCCFactory",
      "outputs": [],
      "payable": false,
      "stateMutability": "nonpayable",
      "type": "function"
    },
    {
      "constant": false,
      "inputs": [
        {
          "name": "_newMinter",
          "type": "address"
        }
      ],
      "name": "registryUpdateMinter",
      "outputs": [],
      "payable": false,
      "stateMutability": "nonpayable",
      "type": "function"
    },
    {
      "constant": false,
      "inputs": [
        {
          "name": "_userContract",
          "type": "address"
        },
        {
          "name": "_amount",
          "type": "uint256"
        }
      ],
      "name": "buyViewsSave",
      "outputs": [
        {
          "name": "",
          "type": "bool"
        }
      ],
      "payable": false,
      "stateMutability": "nonpayable",
      "type": "function"
    },
    {
      "constant": false,
      "inputs": [
        {
          "name": "_userContract",
          "type": "address"
        },
        {
          "name": "_amount",
          "type": "uint256"
        }
      ],
      "name": "sellViewsSave",
      "outputs": [
        {
          "name": "",
          "type": "bool"
        }
      ],
      "payable": false,
      "stateMutability": "nonpayable",
      "type": "function"
    },
    {
      "constant": false,
      "inputs": [
        {
          "name": "_user",
          "type": "address"
        },
        {
          "name": "_amount",
          "type": "uint256"
        }
      ],
      "name": "fromUserToCreator",
      "outputs": [
        {
          "name": "",
          "type": "bool"
        }
      ],
      "payable": false,
      "stateMutability": "nonpayable",
      "type": "function"
    },
    {
      "constant": false,
      "inputs": [
        {
          "name": "_user",
          "type": "address"
        },
        {
          "name": "_amount",
          "type": "uint256"
        }
      ],
      "name": "fromCreatorToUser",
      "outputs": [
        {
          "name": "",
          "type": "bool"
        }
      ],
      "payable": false,
      "stateMutability": "nonpayable",
      "type": "function"
    },
    {
      "constant": false,
      "inputs": [
        {
          "name": "viewUsedRecived",
          "type": "uint8"
        },
        {
          "name": "_contentOwner",
          "type": "address"
        },
        {
          "name": "_user",
          "type": "address"
        }
      ],
      "name": "storingLikes",
      "outputs": [],
      "payable": false,
      "stateMutability": "nonpayable",
      "type": "function"
    },
    {
      "constant": false,
      "inputs": [
        {
          "name": "_user",
          "type": "address"
        },
        {
          "name": "_userContract",
          "type": "address"
        },
        {
          "name": "_userName",
          "type": "string"
        }
      ],
      "name": "removeUserData",
      "outputs": [
        {
          "name": "",
          "type": "bool"
        }
      ],
      "payable": false,
      "stateMutability": "nonpayable",
      "type": "function"
    },
    {
      "constant": false,
      "inputs": [
        {
          "name": "_userContract",
          "type": "address"
        },
        {
          "name": "_creatorContract",
          "type": "address"
        }
      ],
      "name": "setNewCreatorData",
      "outputs": [
        {
          "name": "",
          "type": "bool"
        }
      ],
      "payable": false,
      "stateMutability": "nonpayable",
      "type": "function"
    },
    {
      "constant": false,
      "inputs": [
        {
          "name": "_contentCreatorContract",
          "type": "address"
        },
        {
          "name": "_addressIPFS",
          "type": "string"
        },
        {
          "name": "_title",
          "type": "string"
        },
        {
          "name": "_description",
          "type": "string"
        }
      ],
      "name": "createContent",
      "outputs": [],
      "payable": false,
      "stateMutability": "nonpayable",
      "type": "function"
    },
    {
      "constant": false,
      "inputs": [
        {
          "name": "_userContract",
          "type": "address"
        },
        {
          "name": "_creatorContract",
          "type": "address"
        }
      ],
      "name": "removeCreatorData",
      "outputs": [
        {
          "name": "",
          "type": "bool"
        }
      ],
      "payable": false,
      "stateMutability": "nonpayable",
      "type": "function"
    },
    {
      "constant": false,
      "inputs": [
        {
          "name": "_newRegister",
          "type": "address"
        }
      ],
      "name": "updateRegister",
      "outputs": [],
      "payable": false,
      "stateMutability": "nonpayable",
      "type": "function"
    }
  ],
  "bytecode": "0x60806040526000601660006101000a81548160ff021916908360028111156200002457fe5b02179055506001601660016101000a81548160ff021916908360028111156200004957fe5b02179055506002601660026101000a81548160ff021916908360028111156200006e57fe5b02179055506000601660036101000a81548160ff0219169083151502179055506001601660046101000a81548160ff021916908315150217905550348015620000b657600080fd5b50336000806101000a81548173ffffffffffffffffffffffffffffffffffffffff021916908373ffffffffffffffffffffffffffffffffffffffff1602179055506200010162000429565b604051809103906000f0801580156200011e573d6000803e3d6000fd5b50600660006101000a81548173ffffffffffffffffffffffffffffffffffffffff021916908373ffffffffffffffffffffffffffffffffffffffff160217905550620001696200043a565b604051809103906000f08015801562000186573d6000803e3d6000fd5b50600560006101000a81548173ffffffffffffffffffffffffffffffffffffffff021916908373ffffffffffffffffffffffffffffffffffffffff160217905550620001d16200044b565b604051809103906000f080158015620001ee573d6000803e3d6000fd5b50600760006101000a81548173ffffffffffffffffffffffffffffffffffffffff021916908373ffffffffffffffffffffffffffffffffffffffff160217905550620002396200045c565b604051809103906000f08015801562000256573d6000803e3d6000fd5b50600860006101000a81548173ffffffffffffffffffffffffffffffffffffffff021916908373ffffffffffffffffffffffffffffffffffffffff160217905550600660009054906101000a900473ffffffffffffffffffffffffffffffffffffffff16600260006101000a81548173ffffffffffffffffffffffffffffffffffffffff021916908373ffffffffffffffffffffffffffffffffffffffff160217905550600560009054906101000a900473ffffffffffffffffffffffffffffffffffffffff16600160006101000a81548173ffffffffffffffffffffffffffffffffffffffff021916908373ffffffffffffffffffffffffffffffffffffffff160217905550600760009054906101000a900473ffffffffffffffffffffffffffffffffffffffff16600360006101000a81548173ffffffffffffffffffffffffffffffffffffffff021916908373ffffffffffffffffffffffffffffffffffffffff160217905550600860009054906101000a900473ffffffffffffffffffffffffffffffffffffffff16600460006101000a81548173ffffffffffffffffffffffffffffffffffffffff021916908373ffffffffffffffffffffffffffffffffffffffff1602179055506200046d565b604051611dde806200767783390190565b604051612a23806200945583390190565b604051611b43806200be7883390190565b604051611b43806200d9bb83390190565b6171fa806200047d6000396000f300608060405260043610610246576000357c0100000000000000000000000000000000000000000000000000000000900463ffffffff168063040321f61461024b5780630501d5561461028857806307d1b2fd146102c55780631418c311146103065780631ddf8358146103315780632c8694b61461036e5780632f330023146103ab57806334d722c9146103d657806336bab95b146104015780634209fff11461042c5780634604920f14610469578063547e7afe146104a65780635b48d7fb146104d15780635c1e153c146104fa5780635ebe20321461052357806363a599a41461056057806364015cc91461058b5780636a480eb8146105c85780636db08bd7146106095780636e6ac45a14610646578063718581081461066f57806373338081146106ac57806376fc2b6e146106e9578063819ad027146107125780638456cb591461074f5780638da5cb5b1461077a578063aae87c24146107a5578063ab536c77146107e2578063b1781da31461080d578063b7acf7c31461084a578063b96275fb14610887578063bba11cf7146108c4578063bd76e494146108ed578063bedb86fb1461092a578063bf57df0914610967578063bfc16c50146109a4578063c0fed46f146109e1578063c385353714610a1e578063ccaf955314610a47578063cd8c43b614610a70578063e0b969bd14610a9b578063e2bf75d114610ac6578063e393c5aa14610b03578063ed9aab5114610b2c578063edbece3714610b57578063ee38ae5614610b94578063efd4606514610bbd578063f366751714610bfa575b600080fd5b34801561025757600080fd5b50610272600480360361026d9190810190616a24565b610c25565b60405161027f9190616c7f565b60405180910390f35b34801561029457600080fd5b506102af60048036036102aa9190810190616983565b610c63565b6040516102bc9190616edb565b60405180910390f35b3480156102d157600080fd5b506102ec60048036036102e79190810190616a24565b610d36565b6040516102fd959493929190616e06565b60405180910390f35b34801561031257600080fd5b5061031b610f63565b6040516103289190616fcc565b60405180910390f35b34801561033d57600080fd5b5061035860048036036103539190810190616947565b610f69565b6040516103659190616edb565b60405180910390f35b34801561037a57600080fd5b50610395600480360361039091908101906167a7565b61148d565b6040516103a29190616c7f565b60405180910390f35b3480156103b757600080fd5b506103c06114c0565b6040516103cd9190616e97565b60405180910390f35b3480156103e257600080fd5b506103eb61154e565b6040516103f89190616c7f565b60405180910390f35b34801561040d57600080fd5b50610416611574565b6040516104239190616c7f565b60405180910390f35b34801561043857600080fd5b50610453600480360361044e91908101906167a7565b61159a565b6040516104609190616edb565b60405180910390f35b34801561047557600080fd5b50610490600480360361048b9190810190616947565b61162d565b60405161049d9190616edb565b60405180910390f35b3480156104b257600080fd5b506104bb611ae8565b6040516104c89190616eb9565b60405180910390f35b3480156104dd57600080fd5b506104f860048036036104f391908101906169d5565b611bd1565b005b34801561050657600080fd5b50610521600480360361051c91908101906167f9565b6123c7565b005b34801561052f57600080fd5b5061054a60048036036105459190810190616a24565b61286e565b6040516105579190616f48565b60405180910390f35b34801561056c57600080fd5b50610575612929565b6040516105829190616edb565b60405180910390f35b34801561059757600080fd5b506105b260048036036105ad91908101906167a7565b61293c565b6040516105bf9190616f6a565b60405180910390f35b3480156105d457600080fd5b506105ef60048036036105ea9190810190616947565b612a1d565b604051610600959493929190616e06565b60405180910390f35b34801561061557600080fd5b50610630600480360361062b9190810190616947565b612c57565b60405161063d9190616edb565b60405180910390f35b34801561065257600080fd5b5061066d6004803603610668919081019061689c565b613173565b005b34801561067b57600080fd5b50610696600480360361069191908101906167a7565b61396f565b6040516106a39190616fcc565b60405180910390f35b3480156106b857600080fd5b506106d360048036036106ce9190810190616a24565b613987565b6040516106e09190616c7f565b60405180910390f35b3480156106f557600080fd5b50610710600480360361070b91908101906167a7565b6139c5565b005b34801561071e57600080fd5b5061073960048036036107349190810190616835565b613a81565b6040516107469190616edb565b60405180910390f35b34801561075b57600080fd5b50610764613f45565b6040516107719190616edb565b60405180910390f35b34801561078657600080fd5b5061078f613f58565b60405161079c9190616c7f565b60405180910390f35b3480156107b157600080fd5b506107cc60048036036107c791908101906167f9565b613f7d565b6040516107d99190616edb565b60405180910390f35b3480156107ee57600080fd5b506107f7614305565b6040516108049190616edb565b60405180910390f35b34801561081957600080fd5b50610834600480360361082f91908101906167a7565b6147ab565b6040516108419190616c7f565b60405180910390f35b34801561085657600080fd5b50610871600480360361086c91908101906167a7565b6147de565b60405161087e9190616c7f565b60405180910390f35b34801561089357600080fd5b506108ae60048036036108a991908101906167a7565b6148cb565b6040516108bb9190616c7f565b60405180910390f35b3480156108d057600080fd5b506108eb60048036036108e69190810190616947565b6149b8565b005b3480156108f957600080fd5b50610914600480360361090f91908101906167a7565b614b59565b6040516109219190616fcc565b60405180910390f35b34801561093657600080fd5b50610951600480360361094c9190810190616983565b614b71565b60405161095e9190616edb565b60405180910390f35b34801561097357600080fd5b5061098e60048036036109899190810190616947565b614c25565b60405161099b9190616edb565b60405180910390f35b3480156109b057600080fd5b506109cb60048036036109c691908101906167a7565b6150d8565b6040516109d89190616f6a565b60405180910390f35b3480156109ed57600080fd5b50610a086004803603610a0391908101906167a7565b615208565b604051610a159190616f48565b60405180910390f35b348015610a2a57600080fd5b50610a456004803603610a4091908101906167a7565b6152b8565b005b348015610a5357600080fd5b50610a6e6004803603610a699190810190616835565b615374565b005b348015610a7c57600080fd5b50610a856157f1565b604051610a929190616c7f565b60405180910390f35b348015610aa757600080fd5b50610ab0615817565b604051610abd9190616e97565b60405180910390f35b348015610ad257600080fd5b50610aed6004803603610ae891908101906167f9565b6158a5565b604051610afa9190616edb565b60405180910390f35b348015610b0f57600080fd5b50610b2a6004803603610b2591908101906167a7565b615c43565b005b348015610b3857600080fd5b50610b41615cff565b604051610b4e9190616c7f565b60405180910390f35b348015610b6357600080fd5b50610b7e6004803603610b7991908101906167a7565b615d25565b604051610b8b9190616fcc565b60405180910390f35b348015610ba057600080fd5b50610bbb6004803603610bb691908101906167a7565b615d3d565b005b348015610bc957600080fd5b50610be46004803603610bdf91908101906167a7565b615df9565b604051610bf19190616edb565b60405180910390f35b348015610c0657600080fd5b50610c0f615e8c565b604051610c1c9190616c7f565b60405180910390f35b601081815481101515610c3457fe5b906000526020600020016000915054906101000a900473ffffffffffffffffffffffffffffffffffffffff1681565b60008060009054906101000a900473ffffffffffffffffffffffffffffffffffffffff1673ffffffffffffffffffffffffffffffffffffffff163373ffffffffffffffffffffffffffffffffffffffff16141515610cc057600080fd5b601660049054906101000a900460ff16151515610cdc57600080fd5b7f413e6d22f012c3337757e66546d28828d7000e061a40d2492c34741e2c62d98882604051610d0b9190616edb565b60405180910390a181601660036101000a81548160ff02191690831515021790555060019050919050565b601381815481101515610d4557fe5b90600052602060002090600502016000915090508060000160009054906101000a900473ffffffffffffffffffffffffffffffffffffffff1690806001018054600181600116156101000203166002900480601f016020809104026020016040519081016040528092919081815260200182805460018160011615610100020316600290048015610e175780601f10610dec57610100808354040283529160200191610e17565b820191906000526020600020905b815481529060010190602001808311610dfa57829003601f168201915b505050505090806002018054600181600116156101000203166002900480601f016020809104026020016040519081016040528092919081815260200182805460018160011615610100020316600290048015610eb55780601f10610e8a57610100808354040283529160200191610eb5565b820191906000526020600020905b815481529060010190602001808311610e9857829003601f168201915b505050505090806003018054600181600116156101000203166002900480601f016020809104026020016040519081016040528092919081815260200182805460018160011615610100020316600290048015610f535780601f10610f2857610100808354040283529160200191610f53565b820191906000526020600020905b815481529060010190602001808311610f3657829003601f168201915b5050505050908060040154905085565b60125481565b600081600460009054906101000a900473ffffffffffffffffffffffffffffffffffffffff1673ffffffffffffffffffffffffffffffffffffffff1663f36675176040518163ffffffff167c0100000000000000000000000000000000000000000000000000000000028152600401602060405180830381600087803b158015610ff257600080fd5b505af1158015611006573d6000803e3d6000fd5b505050506040513d601f19601f8201168201806040525061102a91908101906167d0565b73ffffffffffffffffffffffffffffffffffffffff163373ffffffffffffffffffffffffffffffffffffffff1614151561106357600080fd5b60008111151561107257600080fd5b836000806000808493508373ffffffffffffffffffffffffffffffffffffffff16637e5852d96040518163ffffffff167c0100000000000000000000000000000000000000000000000000000000028152600401602060405180830381600087803b1580156110e057600080fd5b505af11580156110f4573d6000803e3d6000fd5b505050506040513d601f19601f8201168201806040525061111891908101906169ac565b92508215151561112757600080fd5b3073ffffffffffffffffffffffffffffffffffffffff1663efd46065866040518263ffffffff167c010000000000000000000000000000000000000000000000000000000002815260040161117c9190616c7f565b602060405180830381600087803b15801561119657600080fd5b505af11580156111aa573d6000803e3d6000fd5b505050506040513d601f19601f820116820180604052506111ce91908101906169ac565b15611328573073ffffffffffffffffffffffffffffffffffffffff1663b7acf7c3866040518263ffffffff167c01000000000000000000000000000000000000000000000000000000000281526004016112289190616c7f565b602060405180830381600087803b15801561124257600080fd5b505af1158015611256573d6000803e3d6000fd5b505050506040513d601f19601f8201168201806040525061127a91908101906167d0565b91508173ffffffffffffffffffffffffffffffffffffffff16637e5852d96040518163ffffffff167c0100000000000000000000000000000000000000000000000000000000028152600401602060405180830381600087803b1580156112e057600080fd5b505af11580156112f4573d6000803e3d6000fd5b505050506040513d601f19601f8201168201806040525061131891908101906169ac565b90508015151561132757600080fd5b5b601660039054906101000a900460ff1615151561134457600080fd5b601660049054906101000a900460ff1615151561136057600080fd5b61136989615f51565b61137289615df9565b151561137d57600080fd5b87600b600061138b8c6147de565b73ffffffffffffffffffffffffffffffffffffffff1673ffffffffffffffffffffffffffffffffffffffff168152602001908152602001600020541115156113d257600080fd5b87600b60006113e08c6147de565b73ffffffffffffffffffffffffffffffffffffffff1673ffffffffffffffffffffffffffffffffffffffff1681526020019081526020016000206000828254039250508190555087600960008b73ffffffffffffffffffffffffffffffffffffffff1673ffffffffffffffffffffffffffffffffffffffff1681526020019081526020016000206000828254019250508190555061147d8961622f565b6001965050505050505092915050565b600e6020528060005260406000206000915054906101000a900473ffffffffffffffffffffffffffffffffffffffff1681565b6060600f80548060200260200160405190810160405280929190818152602001828054801561154457602002820191906000526020600020905b8160009054906101000a900473ffffffffffffffffffffffffffffffffffffffff1673ffffffffffffffffffffffffffffffffffffffff16815260200190600101908083116114fa575b5050505050905090565b600760009054906101000a900473ffffffffffffffffffffffffffffffffffffffff1681565b600560009054906101000a900473ffffffffffffffffffffffffffffffffffffffff1681565b600080600d60008473ffffffffffffffffffffffffffffffffffffffff1673ffffffffffffffffffffffffffffffffffffffff16815260200190815260200160002060009054906101000a900473ffffffffffffffffffffffffffffffffffffffff1673ffffffffffffffffffffffffffffffffffffffff161415156116235760019050611628565b600090505b919050565b600081600460009054906101000a900473ffffffffffffffffffffffffffffffffffffffff1673ffffffffffffffffffffffffffffffffffffffff1663f36675176040518163ffffffff167c0100000000000000000000000000000000000000000000000000000000028152600401602060405180830381600087803b1580156116b657600080fd5b505af11580156116ca573d6000803e3d6000fd5b505050506040513d601f19601f820116820180604052506116ee91908101906167d0565b73ffffffffffffffffffffffffffffffffffffffff163373ffffffffffffffffffffffffffffffffffffffff1614151561172757600080fd5b60008111151561173657600080fd5b836000806000808493508373ffffffffffffffffffffffffffffffffffffffff16637e5852d96040518163ffffffff167c0100000000000000000000000000000000000000000000000000000000028152600401602060405180830381600087803b1580156117a457600080fd5b505af11580156117b8573d6000803e3d6000fd5b505050506040513d601f19601f820116820180604052506117dc91908101906169ac565b9250821515156117eb57600080fd5b3073ffffffffffffffffffffffffffffffffffffffff1663efd46065866040518263ffffffff167c01000000000000000000000000000000000000000000000000000000000281526004016118409190616c7f565b602060405180830381600087803b15801561185a57600080fd5b505af115801561186e573d6000803e3d6000fd5b505050506040513d601f19601f8201168201806040525061189291908101906169ac565b156119ec573073ffffffffffffffffffffffffffffffffffffffff1663b7acf7c3866040518263ffffffff167c01000000000000000000000000000000000000000000000000000000000281526004016118ec9190616c7f565b602060405180830381600087803b15801561190657600080fd5b505af115801561191a573d6000803e3d6000fd5b505050506040513d601f19601f8201168201806040525061193e91908101906167d0565b91508173ffffffffffffffffffffffffffffffffffffffff16637e5852d96040518163ffffffff167c0100000000000000000000000000000000000000000000000000000000028152600401602060405180830381600087803b1580156119a457600080fd5b505af11580156119b8573d6000803e3d6000fd5b505050506040513d601f19601f820116820180604052506119dc91908101906169ac565b9050801515156119eb57600080fd5b5b601660039054906101000a900460ff16151515611a0857600080fd5b601660049054906101000a900460ff16151515611a2457600080fd5b611a2d89615f51565b60058803600960008b73ffffffffffffffffffffffffffffffffffffffff1673ffffffffffffffffffffffffffffffffffffffff16815260200190815260200160002060008282540192505081905550611a8a8960058a036149b8565b611a9589600561650d565b507f5fc13a8cb79897556001bff3646be555a23490209aba88173cfa256d762205278989604051611ac7929190616e6e565b60405180910390a1611ad88961622f565b6001965050505050505092915050565b60606011805480602002602001604051908101604052809291908181526020016000905b82821015611bc8578382906000526020600020018054600181600116156101000203166002900480601f016020809104026020016040519081016040528092919081815260200182805460018160011615610100020316600290048015611bb45780601f10611b8957610100808354040283529160200191611bb4565b820191906000526020600020905b815481529060010190602001808311611b9757829003601f168201915b505050505081526020019060010190611b0c565b50505050905090565b6001600460009054906101000a900473ffffffffffffffffffffffffffffffffffffffff1673ffffffffffffffffffffffffffffffffffffffff1663f36675176040518163ffffffff167c0100000000000000000000000000000000000000000000000000000000028152600401602060405180830381600087803b158015611c5957600080fd5b505af1158015611c6d573d6000803e3d6000fd5b505050506040513d601f19601f82011682018060405250611c9191908101906167d0565b73ffffffffffffffffffffffffffffffffffffffff163373ffffffffffffffffffffffffffffffffffffffff16141515611cca57600080fd5b600081111515611cd957600080fd5b816000806000808493508373ffffffffffffffffffffffffffffffffffffffff16637e5852d96040518163ffffffff167c0100000000000000000000000000000000000000000000000000000000028152600401602060405180830381600087803b158015611d4757600080fd5b505af1158015611d5b573d6000803e3d6000fd5b505050506040513d601f19601f82011682018060405250611d7f91908101906169ac565b925082151515611d8e57600080fd5b3073ffffffffffffffffffffffffffffffffffffffff1663efd46065866040518263ffffffff167c0100000000000000000000000000000000000000000000000000000000028152600401611de39190616c7f565b602060405180830381600087803b158015611dfd57600080fd5b505af1158015611e11573d6000803e3d6000fd5b505050506040513d601f19601f82011682018060405250611e3591908101906169ac565b15611f8f573073ffffffffffffffffffffffffffffffffffffffff1663b7acf7c3866040518263ffffffff167c0100000000000000000000000000000000000000000000000000000000028152600401611e8f9190616c7f565b602060405180830381600087803b158015611ea957600080fd5b505af1158015611ebd573d6000803e3d6000fd5b505050506040513d601f19601f82011682018060405250611ee191908101906167d0565b91508173ffffffffffffffffffffffffffffffffffffffff16637e5852d96040518163ffffffff167c0100000000000000000000000000000000000000000000000000000000028152600401602060405180830381600087803b158015611f4757600080fd5b505af1158015611f5b573d6000803e3d6000fd5b505050506040513d601f19601f82011682018060405250611f7f91908101906169ac565b905080151515611f8e57600080fd5b5b601660039054906101000a900460ff16151515611fab57600080fd5b601660049054906101000a900460ff16151515611fc757600080fd5b611fd087615f51565b60006002811115611fdd57fe5b896002811115611fe957fe5b1415612114576005600960008973ffffffffffffffffffffffffffffffffffffffff1673ffffffffffffffffffffffffffffffffffffffff1681526020019081526020016000205411151561203d57600080fd5b6005600960008973ffffffffffffffffffffffffffffffffffffffff1673ffffffffffffffffffffffffffffffffffffffff168152602001908152602001600020600082825403925050819055506005600b60008a73ffffffffffffffffffffffffffffffffffffffff1673ffffffffffffffffffffffffffffffffffffffff168152602001908152602001600020600082825401925050819055507f5fc13a8cb79897556001bff3646be555a23490209aba88173cfa256d7622052787600560405161210b929190616ddd565b60405180910390a15b6001600281111561212157fe5b89600281111561212d57fe5b141561226457600f600960008973ffffffffffffffffffffffffffffffffffffffff1673ffffffffffffffffffffffffffffffffffffffff1681526020019081526020016000205411151561218157600080fd5b600f600960008973ffffffffffffffffffffffffffffffffffffffff1673ffffffffffffffffffffffffffffffffffffffff16815260200190815260200160002060008282540392505081905550600f600b60008a73ffffffffffffffffffffffffffffffffffffffff1673ffffffffffffffffffffffffffffffffffffffff1681526020019081526020016000206000828254019250508190555061222887600f61650d565b507f5fc13a8cb79897556001bff3646be555a23490209aba88173cfa256d7622052787600f60405161225b929190616d8b565b60405180910390a15b60028081111561227057fe5b89600281111561227c57fe5b14156123b3576019600960008973ffffffffffffffffffffffffffffffffffffffff1673ffffffffffffffffffffffffffffffffffffffff168152602001908152602001600020541115156122d057600080fd5b6019600960008973ffffffffffffffffffffffffffffffffffffffff1673ffffffffffffffffffffffffffffffffffffffff168152602001908152602001600020600082825403925050819055506019600b60008a73ffffffffffffffffffffffffffffffffffffffff1673ffffffffffffffffffffffffffffffffffffffff1681526020019081526020016000206000828254019250508190555061237787601961650d565b507f5fc13a8cb79897556001bff3646be555a23490209aba88173cfa256d762205278760196040516123aa929190616db4565b60405180910390a15b6123bc8761622f565b505050505050505050565b6000600460009054906101000a900473ffffffffffffffffffffffffffffffffffffffff1673ffffffffffffffffffffffffffffffffffffffff16633c093d5a6040518163ffffffff167c0100000000000000000000000000000000000000000000000000000000028152600401602060405180830381600087803b15801561244f57600080fd5b505af1158015612463573d6000803e3d6000fd5b505050506040513d601f19601f8201168201806040525061248791908101906167d0565b73ffffffffffffffffffffffffffffffffffffffff163373ffffffffffffffffffffffffffffffffffffffff161415156124c057600080fd5b816000806000808493508373ffffffffffffffffffffffffffffffffffffffff16637e5852d96040518163ffffffff167c0100000000000000000000000000000000000000000000000000000000028152600401602060405180830381600087803b15801561252e57600080fd5b505af1158015612542573d6000803e3d6000fd5b505050506040513d601f19601f8201168201806040525061256691908101906169ac565b92508215151561257557600080fd5b3073ffffffffffffffffffffffffffffffffffffffff1663efd46065866040518263ffffffff167c01000000000000000000000000000000000000000000000000000000000281526004016125ca9190616c7f565b602060405180830381600087803b1580156125e457600080fd5b505af11580156125f8573d6000803e3d6000fd5b505050506040513d601f19601f8201168201806040525061261c91908101906169ac565b15612776573073ffffffffffffffffffffffffffffffffffffffff1663b7acf7c3866040518263ffffffff167c01000000000000000000000000000000000000000000000000000000000281526004016126769190616c7f565b602060405180830381600087803b15801561269057600080fd5b505af11580156126a4573d6000803e3d6000fd5b505050506040513d601f19601f820116820180604052506126c891908101906167d0565b91508173ffffffffffffffffffffffffffffffffffffffff16637e5852d96040518163ffffffff167c0100000000000000000000000000000000000000000000000000000000028152600401602060405180830381600087803b15801561272e57600080fd5b505af1158015612742573d6000803e3d6000fd5b505050506040513d601f19601f8201168201806040525061276691908101906169ac565b90508015151561277557600080fd5b5b61277f87615f51565b600b60008973ffffffffffffffffffffffffffffffffffffffff1673ffffffffffffffffffffffffffffffffffffffff16815260200190815260200160002054955085600b60008a73ffffffffffffffffffffffffffffffffffffffff1673ffffffffffffffffffffffffffffffffffffffff1681526020019081526020016000206000828254039250508190555085600960008973ffffffffffffffffffffffffffffffffffffffff1673ffffffffffffffffffffffffffffffffffffffff168152602001908152602001600020600082825401925050819055506128648761622f565b5050505050505050565b60118181548110151561287d57fe5b906000526020600020016000915090508054600181600116156101000203166002900480601f0160208091040260200160405190810160405280929190818152602001828054600181600116156101000203166002900480156129215780601f106128f657610100808354040283529160200191612921565b820191906000526020600020905b81548152906001019060200180831161290457829003601f168201915b505050505081565b601660039054906101000a900460ff1681565b6060600c60008373ffffffffffffffffffffffffffffffffffffffff1673ffffffffffffffffffffffffffffffffffffffff1681526020019081526020016000208054600181600116156101000203166002900480601f016020809104026020016040519081016040528092919081815260200182805460018160011615610100020316600290048015612a115780601f106129e657610100808354040283529160200191612a11565b820191906000526020600020905b8154815290600101906020018083116129f457829003601f168201915b50505050509050919050565b601460205281600052604060002081815481101515612a3857fe5b9060005260206000209060050201600091509150508060000160009054906101000a900473ffffffffffffffffffffffffffffffffffffffff1690806001018054600181600116156101000203166002900480601f016020809104026020016040519081016040528092919081815260200182805460018160011615610100020316600290048015612b0b5780601f10612ae057610100808354040283529160200191612b0b565b820191906000526020600020905b815481529060010190602001808311612aee57829003601f168201915b505050505090806002018054600181600116156101000203166002900480601f016020809104026020016040519081016040528092919081815260200182805460018160011615610100020316600290048015612ba95780601f10612b7e57610100808354040283529160200191612ba9565b820191906000526020600020905b815481529060010190602001808311612b8c57829003601f168201915b505050505090806003018054600181600116156101000203166002900480601f016020809104026020016040519081016040528092919081815260200182805460018160011615610100020316600290048015612c475780601f10612c1c57610100808354040283529160200191612c47565b820191906000526020600020905b815481529060010190602001808311612c2a57829003601f168201915b5050505050908060040154905085565b600081600460009054906101000a900473ffffffffffffffffffffffffffffffffffffffff1673ffffffffffffffffffffffffffffffffffffffff1663f36675176040518163ffffffff167c0100000000000000000000000000000000000000000000000000000000028152600401602060405180830381600087803b158015612ce057600080fd5b505af1158015612cf4573d6000803e3d6000fd5b505050506040513d601f19601f82011682018060405250612d1891908101906167d0565b73ffffffffffffffffffffffffffffffffffffffff163373ffffffffffffffffffffffffffffffffffffffff16141515612d5157600080fd5b600081111515612d6057600080fd5b836000806000808493508373ffffffffffffffffffffffffffffffffffffffff16637e5852d96040518163ffffffff167c0100000000000000000000000000000000000000000000000000000000028152600401602060405180830381600087803b158015612dce57600080fd5b505af1158015612de2573d6000803e3d6000fd5b505050506040513d601f19601f82011682018060405250612e0691908101906169ac565b925082151515612e1557600080fd5b3073ffffffffffffffffffffffffffffffffffffffff1663efd46065866040518263ffffffff167c0100000000000000000000000000000000000000000000000000000000028152600401612e6a9190616c7f565b602060405180830381600087803b158015612e8457600080fd5b505af1158015612e98573d6000803e3d6000fd5b505050506040513d601f19601f82011682018060405250612ebc91908101906169ac565b15613016573073ffffffffffffffffffffffffffffffffffffffff1663b7acf7c3866040518263ffffffff167c0100000000000000000000000000000000000000000000000000000000028152600401612f169190616c7f565b602060405180830381600087803b158015612f3057600080fd5b505af1158015612f44573d6000803e3d6000fd5b505050506040513d601f19601f82011682018060405250612f6891908101906167d0565b91508173ffffffffffffffffffffffffffffffffffffffff16637e5852d96040518163ffffffff167c0100000000000000000000000000000000000000000000000000000000028152600401602060405180830381600087803b158015612fce57600080fd5b505af1158015612fe2573d6000803e3d6000fd5b505050506040513d601f19601f8201168201806040525061300691908101906169ac565b90508015151561301557600080fd5b5b601660039054906101000a900460ff1615151561303257600080fd5b601660049054906101000a900460ff1615151561304e57600080fd5b61305789615f51565b61306089615df9565b151561306b57600080fd5b87600960008b73ffffffffffffffffffffffffffffffffffffffff1673ffffffffffffffffffffffffffffffffffffffff168152602001908152602001600020541115156130b857600080fd5b87600960008b73ffffffffffffffffffffffffffffffffffffffff1673ffffffffffffffffffffffffffffffffffffffff1681526020019081526020016000206000828254039250508190555087600b60006131138c6147de565b73ffffffffffffffffffffffffffffffffffffffff1673ffffffffffffffffffffffffffffffffffffffff168152602001908152602001600020600082825401925050819055506131638961622f565b6001965050505050505092915050565b6000806001600460009054906101000a900473ffffffffffffffffffffffffffffffffffffffff1673ffffffffffffffffffffffffffffffffffffffff1663f36675176040518163ffffffff167c0100000000000000000000000000000000000000000000000000000000028152600401602060405180830381600087803b1580156131fe57600080fd5b505af1158015613212573d6000803e3d6000fd5b505050506040513d601f19601f8201168201806040525061323691908101906167d0565b73ffffffffffffffffffffffffffffffffffffffff163373ffffffffffffffffffffffffffffffffffffffff1614151561326f57600080fd5b60008111151561327e57600080fd5b601660039054906101000a900460ff1615151561329a57600080fd5b601660049054906101000a900460ff161515156132b657600080fd5b601460008873ffffffffffffffffffffffffffffffffffffffff1673ffffffffffffffffffffffffffffffffffffffff16815260200190815260200160002060a0604051908101604052808973ffffffffffffffffffffffffffffffffffffffff16815260200188815260200187815260200186815260200160008152509080600181540180825580915050906001820390600052602060002090600502016000909192909190915060008201518160000160006101000a81548173ffffffffffffffffffffffffffffffffffffffff021916908373ffffffffffffffffffffffffffffffffffffffff16021790555060208201518160010190805190602001906133c292919061656c565b5060408201518160020190805190602001906133df92919061656c565b5060608201518160030190805190602001906133fc92919061656c565b50608082015181600401555050506005600b60008973ffffffffffffffffffffffffffffffffffffffff1673ffffffffffffffffffffffffffffffffffffffff1681526020019081526020016000205411151561345857600080fd5b6005600b60008973ffffffffffffffffffffffffffffffffffffffff1673ffffffffffffffffffffffffffffffffffffffff1681526020019081526020016000206000828254039250508190555060056012600082825401925050819055506134c287600561650d565b50601360a0604051908101604052808973ffffffffffffffffffffffffffffffffffffffff16815260200188815260200187815260200186815260200160008152509080600181540180825580915050906001820390600052602060002090600502016000909192909190915060008201518160000160006101000a81548173ffffffffffffffffffffffffffffffffffffffff021916908373ffffffffffffffffffffffffffffffffffffffff160217905550602082015181600101908051906020019061359292919061656c565b5060408201518160020190805190602001906135af92919061656c565b5060608201518160030190805190602001906135cc92919061656c565b50608082015181600401555050508673ffffffffffffffffffffffffffffffffffffffff16856040518082805190602001908083835b6020831015156136275780518252602082019150602081019050602083039250613602565b6001836020036101000a03801982511681845116808217855250505050505090500191505060405180910390206013805490507f1265282869251121edf11374a7f7d04b956dfd0ab45255cf5a1c08cfa527012b60405160405180910390a4601460008873ffffffffffffffffffffffffffffffffffffffff1673ffffffffffffffffffffffffffffffffffffffff16815260200190815260200160002080549050925060a0604051908101604052808873ffffffffffffffffffffffffffffffffffffffff1681526020018781526020018681526020018581526020016000815250601460008973ffffffffffffffffffffffffffffffffffffffff1673ffffffffffffffffffffffffffffffffffffffff1681526020019081526020016000208481548110151561375657fe5b906000526020600020906005020160008201518160000160006101000a81548173ffffffffffffffffffffffffffffffffffffffff021916908373ffffffffffffffffffffffffffffffffffffffff16021790555060208201518160010190805190602001906137c792919061656c565b5060408201518160020190805190602001906137e492919061656c565b50606082015181600301908051906020019061380192919061656c565b5060808201518160040155905050601460008873ffffffffffffffffffffffffffffffffffffffff1673ffffffffffffffffffffffffffffffffffffffff16815260200190815260200160002091508160a0604051908101604052808973ffffffffffffffffffffffffffffffffffffffff16815260200188815260200187815260200186815260200160008152509080600181540180825580915050906001820390600052602060002090600502016000909192909190915060008201518160000160006101000a81548173ffffffffffffffffffffffffffffffffffffffff021916908373ffffffffffffffffffffffffffffffffffffffff160217905550602082015181600101908051906020019061391e92919061656c565b50604082015181600201908051906020019061393b92919061656c565b50606082015181600301908051906020019061395892919061656c565b506080820151816004015550505050505050505050565b600b6020528060005260406000206000915090505481565b600f8181548110151561399657fe5b906000526020600020016000915054906101000a900473ffffffffffffffffffffffffffffffffffffffff1681565b600860009054906101000a900473ffffffffffffffffffffffffffffffffffffffff1673ffffffffffffffffffffffffffffffffffffffff163373ffffffffffffffffffffffffffffffffffffffff16141515613a2157600080fd5b601660049054906101000a900460ff16151515613a3d57600080fd5b80600460006101000a81548173ffffffffffffffffffffffffffffffffffffffff021916908373ffffffffffffffffffffffffffffffffffffffff16021790555050565b6000806000600460009054906101000a900473ffffffffffffffffffffffffffffffffffffffff1673ffffffffffffffffffffffffffffffffffffffff1663e1d551556040518163ffffffff167c0100000000000000000000000000000000000000000000000000000000028152600401602060405180830381600087803b158015613b0c57600080fd5b505af1158015613b20573d6000803e3d6000fd5b505050506040513d601f19601f82011682018060405250613b4491908101906167d0565b73ffffffffffffffffffffffffffffffffffffffff163373ffffffffffffffffffffffffffffffffffffffff16141515613b7d57600080fd5b846000600960008373ffffffffffffffffffffffffffffffffffffffff1673ffffffffffffffffffffffffffffffffffffffff16815260200190815260200160002054141515613bcc57600080fd5b601660039054906101000a900460ff16151515613be857600080fd5b601660049054906101000a900460ff16151515613c0457600080fd5b600960008773ffffffffffffffffffffffffffffffffffffffff1673ffffffffffffffffffffffffffffffffffffffff16815260200190815260200160002060009055600c60008773ffffffffffffffffffffffffffffffffffffffff1673ffffffffffffffffffffffffffffffffffffffff1681526020019081526020016000206000613c9291906165ec565b600d60008773ffffffffffffffffffffffffffffffffffffffff1673ffffffffffffffffffffffffffffffffffffffff16815260200190815260200160002060006101000a81549073ffffffffffffffffffffffffffffffffffffffff0219169055600092505b600f80549050831015613dc1578573ffffffffffffffffffffffffffffffffffffffff16600f84815481101515613d2c57fe5b9060005260206000200160009054906101000a900473ffffffffffffffffffffffffffffffffffffffff1673ffffffffffffffffffffffffffffffffffffffff161415613db457600f83815481101515613d8257fe5b9060005260206000200160006101000a81549073ffffffffffffffffffffffffffffffffffffffff0219169055613dc1565b8280600101935050613cf9565b600091505b601180549050821015613efc57846040518082805190602001908083835b602083101515613e095780518252602082019150602081019050602083039250613de4565b6001836020036101000a038019825116818451168082178552505050505050905001915050604051809103902060001916601183815481101515613e4957fe5b906000526020600020016040518082805460018160011615610100020316600290048015613eae5780601f10613e8c576101008083540402835291820191613eae565b820191906000526020600020905b815481529060010190602001808311613e9a575b50509150506040518091039020600019161415613eef57601182815481101515613ed457fe5b906000526020600020016000613eea91906165ec565b613efc565b8180600101925050613dc6565b7f534fe867fcd18d9d6f5f22aa672ea934f7f45cb109b283f70f4de5d2bbc71f07878787604051613f2f93929190616d4d565b60405180910390a1600193505050509392505050565b601660049054906101000a900460ff1681565b6000809054906101000a900473ffffffffffffffffffffffffffffffffffffffff1681565b600080600460009054906101000a900473ffffffffffffffffffffffffffffffffffffffff1673ffffffffffffffffffffffffffffffffffffffff16633c093d5a6040518163ffffffff167c0100000000000000000000000000000000000000000000000000000000028152600401602060405180830381600087803b15801561400657600080fd5b505af115801561401a573d6000803e3d6000fd5b505050506040513d601f19601f8201168201806040525061403e91908101906167d0565b73ffffffffffffffffffffffffffffffffffffffff163373ffffffffffffffffffffffffffffffffffffffff1614151561407757600080fd5b826000600b60008373ffffffffffffffffffffffffffffffffffffffff1673ffffffffffffffffffffffffffffffffffffffff168152602001908152602001600020541415156140c657600080fd5b846000600960008373ffffffffffffffffffffffffffffffffffffffff1673ffffffffffffffffffffffffffffffffffffffff1681526020019081526020016000205414151561411557600080fd5b601660039054906101000a900460ff1615151561413157600080fd5b601660049054906101000a900460ff1615151561414d57600080fd5b600b60008673ffffffffffffffffffffffffffffffffffffffff1673ffffffffffffffffffffffffffffffffffffffff16815260200190815260200160002060009055600e60008773ffffffffffffffffffffffffffffffffffffffff1673ffffffffffffffffffffffffffffffffffffffff16815260200190815260200160002060006101000a81549073ffffffffffffffffffffffffffffffffffffffff0219169055600092505b6010805490508310156142bf578473ffffffffffffffffffffffffffffffffffffffff1660108481548110151561422a57fe5b9060005260206000200160009054906101000a900473ffffffffffffffffffffffffffffffffffffffff1673ffffffffffffffffffffffffffffffffffffffff1614156142b25760108381548110151561428057fe5b9060005260206000200160006101000a81549073ffffffffffffffffffffffffffffffffffffffff02191690556142bf565b82806001019350506141f7565b7f5979f2d5c2a55039e0944909f57404087e16171fa44b3e32147bde6f48bfe1d186866040516142f0929190616c9a565b60405180910390a16001935050505092915050565b60008060009054906101000a900473ffffffffffffffffffffffffffffffffffffffff1673ffffffffffffffffffffffffffffffffffffffff163373ffffffffffffffffffffffffffffffffffffffff1614151561436257600080fd5b601660039054906101000a900460ff1615151561437e57600080fd5b600260009054906101000a900473ffffffffffffffffffffffffffffffffffffffff1673ffffffffffffffffffffffffffffffffffffffff166335ac4ccf306040518263ffffffff167c01000000000000000000000000000000000000000000000000000000000281526004016143f59190616ef6565b600060405180830381600087803b15801561440f57600080fd5b505af1158015614423573d6000803e3d6000fd5b50505050600160009054906101000a900473ffffffffffffffffffffffffffffffffffffffff1673ffffffffffffffffffffffffffffffffffffffff166328f56902306000809054906101000a900473ffffffffffffffffffffffffffffffffffffffff16600660009054906101000a900473ffffffffffffffffffffffffffffffffffffffff166040518463ffffffff167c01000000000000000000000000000000000000000000000000000000000281526004016144e593929190616f11565b600060405180830381600087803b1580156144ff57600080fd5b505af1158015614513573d6000803e3d6000fd5b50505050600360009054906101000a900473ffffffffffffffffffffffffffffffffffffffff1673ffffffffffffffffffffffffffffffffffffffff166335ac4ccf306040518263ffffffff167c010000000000000000000000000000000000000000000000000000000002815260040161458e9190616ef6565b600060405180830381600087803b1580156145a857600080fd5b505af11580156145bc573d6000803e3d6000fd5b50505050600460009054906101000a900473ffffffffffffffffffffffffffffffffffffffff1673ffffffffffffffffffffffffffffffffffffffff166343d3f4b0600560009054906101000a900473ffffffffffffffffffffffffffffffffffffffff16600660009054906101000a900473ffffffffffffffffffffffffffffffffffffffff16600760009054906101000a900473ffffffffffffffffffffffffffffffffffffffff166000809054906101000a900473ffffffffffffffffffffffffffffffffffffffff16306040518663ffffffff167c01000000000000000000000000000000000000000000000000000000000281526004016146c6959493929190616cfa565b600060405180830381600087803b1580156146e057600080fd5b505af11580156146f4573d6000803e3d6000fd5b505050506147026000614b71565b507fa128b49349428308f629b4b0629f8941c6657b08a04401df002afb3b70e27ec5600560009054906101000a900473ffffffffffffffffffffffffffffffffffffffff16600660009054906101000a900473ffffffffffffffffffffffffffffffffffffffff16600760009054906101000a900473ffffffffffffffffffffffffffffffffffffffff1660405161479c93929190616cc3565b60405180910390a16001905090565b600d6020528060005260406000206000915054906101000a900473ffffffffffffffffffffffffffffffffffffffff1681565b600080600e60008473ffffffffffffffffffffffffffffffffffffffff1673ffffffffffffffffffffffffffffffffffffffff16815260200190815260200160002060009054906101000a900473ffffffffffffffffffffffffffffffffffffffff1673ffffffffffffffffffffffffffffffffffffffff161415151561486457600080fd5b600e60008373ffffffffffffffffffffffffffffffffffffffff1673ffffffffffffffffffffffffffffffffffffffff16815260200190815260200160002060009054906101000a900473ffffffffffffffffffffffffffffffffffffffff169050919050565b600080600d60008473ffffffffffffffffffffffffffffffffffffffff1673ffffffffffffffffffffffffffffffffffffffff16815260200190815260200160002060009054906101000a900473ffffffffffffffffffffffffffffffffffffffff1673ffffffffffffffffffffffffffffffffffffffff161415151561495157600080fd5b600d60008373ffffffffffffffffffffffffffffffffffffffff1673ffffffffffffffffffffffffffffffffffffffff16815260200190815260200160002060009054906101000a900473ffffffffffffffffffffffffffffffffffffffff169050919050565b80600460009054906101000a900473ffffffffffffffffffffffffffffffffffffffff1673ffffffffffffffffffffffffffffffffffffffff1663f36675176040518163ffffffff167c0100000000000000000000000000000000000000000000000000000000028152600401602060405180830381600087803b158015614a3f57600080fd5b505af1158015614a53573d6000803e3d6000fd5b505050506040513d601f19601f82011682018060405250614a7791908101906167d0565b73ffffffffffffffffffffffffffffffffffffffff163373ffffffffffffffffffffffffffffffffffffffff16141515614ab057600080fd5b600081111515614abf57600080fd5b601660039054906101000a900460ff16151515614adb57600080fd5b601660049054906101000a900460ff16151515614af757600080fd5b81600a60008573ffffffffffffffffffffffffffffffffffffffff1673ffffffffffffffffffffffffffffffffffffffff1681526020019081526020016000206000828254019250508190555081601560008282540192505081905550505050565b600a6020528060005260406000206000915090505481565b60008060009054906101000a900473ffffffffffffffffffffffffffffffffffffffff1673ffffffffffffffffffffffffffffffffffffffff163373ffffffffffffffffffffffffffffffffffffffff16141515614bce57600080fd5b7fdd7221e8fae38eadd917726db6aa1477e63320aea2609f225f90fe8bb2ff601082604051614bfd9190616edb565b60405180910390a181601660046101000a81548160ff02191690831515021790559050919050565b600081600460009054906101000a900473ffffffffffffffffffffffffffffffffffffffff1673ffffffffffffffffffffffffffffffffffffffff1663f36675176040518163ffffffff167c0100000000000000000000000000000000000000000000000000000000028152600401602060405180830381600087803b158015614cae57600080fd5b505af1158015614cc2573d6000803e3d6000fd5b505050506040513d601f19601f82011682018060405250614ce691908101906167d0565b73ffffffffffffffffffffffffffffffffffffffff163373ffffffffffffffffffffffffffffffffffffffff16141515614d1f57600080fd5b600081111515614d2e57600080fd5b836000806000808493508373ffffffffffffffffffffffffffffffffffffffff16637e5852d96040518163ffffffff167c0100000000000000000000000000000000000000000000000000000000028152600401602060405180830381600087803b158015614d9c57600080fd5b505af1158015614db0573d6000803e3d6000fd5b505050506040513d601f19601f82011682018060405250614dd491908101906169ac565b925082151515614de357600080fd5b3073ffffffffffffffffffffffffffffffffffffffff1663efd46065866040518263ffffffff167c0100000000000000000000000000000000000000000000000000000000028152600401614e389190616c7f565b602060405180830381600087803b158015614e5257600080fd5b505af1158015614e66573d6000803e3d6000fd5b505050506040513d601f19601f82011682018060405250614e8a91908101906169ac565b15614fe4573073ffffffffffffffffffffffffffffffffffffffff1663b7acf7c3866040518263ffffffff167c0100000000000000000000000000000000000000000000000000000000028152600401614ee49190616c7f565b602060405180830381600087803b158015614efe57600080fd5b505af1158015614f12573d6000803e3d6000fd5b505050506040513d601f19601f82011682018060405250614f3691908101906167d0565b91508173ffffffffffffffffffffffffffffffffffffffff16637e5852d96040518163ffffffff167c0100000000000000000000000000000000000000000000000000000000028152600401602060405180830381600087803b158015614f9c57600080fd5b505af1158015614fb0573d6000803e3d6000fd5b505050506040513d601f19601f82011682018060405250614fd491908101906169ac565b905080151515614fe357600080fd5b5b601660039054906101000a900460ff1615151561500057600080fd5b601660049054906101000a900460ff1615151561501c57600080fd5b61502589615f51565b600088600960008c73ffffffffffffffffffffffffffffffffffffffff1673ffffffffffffffffffffffffffffffffffffffff168152602001908152602001600020540311151561507257fe5b87600960008b73ffffffffffffffffffffffffffffffffffffffff1673ffffffffffffffffffffffffffffffffffffffff168152602001908152602001600020600082825403925050819055506150c88961622f565b6001965050505050505092915050565b60606000600960008473ffffffffffffffffffffffffffffffffffffffff1673ffffffffffffffffffffffffffffffffffffffff168152602001908152602001600020541415151561512957600080fd5b600c60008373ffffffffffffffffffffffffffffffffffffffff1673ffffffffffffffffffffffffffffffffffffffff1681526020019081526020016000208054600181600116156101000203166002900480601f0160208091040260200160405190810160405280929190818152602001828054600181600116156101000203166002900480156151fc5780601f106151d1576101008083540402835291602001916151fc565b820191906000526020600020905b8154815290600101906020018083116151df57829003601f168201915b50505050509050919050565b600c6020528060005260406000206000915090508054600181600116156101000203166002900480601f0160208091040260200160405190810160405280929190818152602001828054600181600116156101000203166002900480156152b05780601f10615285576101008083540402835291602001916152b0565b820191906000526020600020905b81548152906001019060200180831161529357829003601f168201915b505050505081565b600860009054906101000a900473ffffffffffffffffffffffffffffffffffffffff1673ffffffffffffffffffffffffffffffffffffffff163373ffffffffffffffffffffffffffffffffffffffff1614151561531457600080fd5b601660049054906101000a900460ff1615151561533057600080fd5b80600160006101000a81548173ffffffffffffffffffffffffffffffffffffffff021916908373ffffffffffffffffffffffffffffffffffffffff16021790555050565b600460009054906101000a900473ffffffffffffffffffffffffffffffffffffffff1673ffffffffffffffffffffffffffffffffffffffff1663e1d551556040518163ffffffff167c0100000000000000000000000000000000000000000000000000000000028152600401602060405180830381600087803b1580156153fa57600080fd5b505af115801561540e573d6000803e3d6000fd5b505050506040513d601f19601f8201168201806040525061543291908101906167d0565b73ffffffffffffffffffffffffffffffffffffffff163373ffffffffffffffffffffffffffffffffffffffff1614151561546b57600080fd5b8060008090505b6011805490508110156155bb5760118181548110151561548e57fe5b9060005260206000200160405180828054600181600116156101000203166002900480156154f35780601f106154d15761010080835404028352918201916154f3565b820191906000526020600020905b8154815290600101906020018083116154df575b5050915050604051809103902060001916826040518082805190602001908083835b60208310151561553a5780518252602082019150602081019050602083039250615515565b6001836020036101000a038019825116818451168082178552505050505050905001915050604051809103902060001916141515156155ae576040517f08c379a00000000000000000000000000000000000000000000000000000000081526004016155a590616f8c565b60405180910390fd5b8080600101915050615472565b601660039054906101000a900460ff161515156155d757600080fd5b601660049054906101000a900460ff161515156155f357600080fd5b6000600960008673ffffffffffffffffffffffffffffffffffffffff1673ffffffffffffffffffffffffffffffffffffffff1681526020019081526020016000208190555082600c60008673ffffffffffffffffffffffffffffffffffffffff1673ffffffffffffffffffffffffffffffffffffffff168152602001908152602001600020908051906020019061568b929190616634565b5084600d60008673ffffffffffffffffffffffffffffffffffffffff1673ffffffffffffffffffffffffffffffffffffffff16815260200190815260200160002060006101000a81548173ffffffffffffffffffffffffffffffffffffffff021916908373ffffffffffffffffffffffffffffffffffffffff160217905550600f8490806001815401808255809150509060018203906000526020600020016000909192909190916101000a81548173ffffffffffffffffffffffffffffffffffffffff021916908373ffffffffffffffffffffffffffffffffffffffff1602179055505060118390806001815401808255809150509060018203906000526020600020016000909192909190915090805190602001906157ad929190616634565b50507fce57b5f9720fa3562dd0b9eaf95894975c0b100ea8e3aa40a353228a7c1063e38585856040516157e293929190616d4d565b60405180910390a15050505050565b600660009054906101000a900473ffffffffffffffffffffffffffffffffffffffff1681565b6060601080548060200260200160405190810160405280929190818152602001828054801561589b57602002820191906000526020600020905b8160009054906101000a900473ffffffffffffffffffffffffffffffffffffffff1673ffffffffffffffffffffffffffffffffffffffff1681526020019060010190808311615851575b5050505050905090565b60006001600460009054906101000a900473ffffffffffffffffffffffffffffffffffffffff1673ffffffffffffffffffffffffffffffffffffffff1663f36675176040518163ffffffff167c0100000000000000000000000000000000000000000000000000000000028152600401602060405180830381600087803b15801561592f57600080fd5b505af1158015615943573d6000803e3d6000fd5b505050506040513d601f19601f8201168201806040525061596791908101906167d0565b73ffffffffffffffffffffffffffffffffffffffff163373ffffffffffffffffffffffffffffffffffffffff161415156159a057600080fd5b6000811115156159af57600080fd5b601660039054906101000a900460ff161515156159cb57600080fd5b601660049054906101000a900460ff161515156159e757600080fd5b6005600960008673ffffffffffffffffffffffffffffffffffffffff1673ffffffffffffffffffffffffffffffffffffffff16815260200190815260200160002054111515615a6b576040517f08c379a0000000000000000000000000000000000000000000000000000000008152600401615a6290616fac565b60405180910390fd5b6005600960008673ffffffffffffffffffffffffffffffffffffffff1673ffffffffffffffffffffffffffffffffffffffff168152602001908152602001600020600082825403925050819055506005601260008282540192505081905550615ad584600561650d565b506000600b60008573ffffffffffffffffffffffffffffffffffffffff1673ffffffffffffffffffffffffffffffffffffffff1681526020019081526020016000208190555082600e60008673ffffffffffffffffffffffffffffffffffffffff1673ffffffffffffffffffffffffffffffffffffffff16815260200190815260200160002060006101000a81548173ffffffffffffffffffffffffffffffffffffffff021916908373ffffffffffffffffffffffffffffffffffffffff16021790555060108390806001815401808255809150509060018203906000526020600020016000909192909190916101000a81548173ffffffffffffffffffffffffffffffffffffffff021916908373ffffffffffffffffffffffffffffffffffffffff160217905550507f719114bb62dcf2ce1ce925182885f459c01951965d9a783e3de78bf19143850f8484604051615c30929190616c9a565b60405180910390a1600191505092915050565b600860009054906101000a900473ffffffffffffffffffffffffffffffffffffffff1673ffffffffffffffffffffffffffffffffffffffff163373ffffffffffffffffffffffffffffffffffffffff16141515615c9f57600080fd5b601660049054906101000a900460ff16151515615cbb57600080fd5b80600260006101000a81548173ffffffffffffffffffffffffffffffffffffffff021916908373ffffffffffffffffffffffffffffffffffffffff16021790555050565b600860009054906101000a900473ffffffffffffffffffffffffffffffffffffffff1681565b60096020528060005260406000206000915090505481565b600860009054906101000a900473ffffffffffffffffffffffffffffffffffffffff1673ffffffffffffffffffffffffffffffffffffffff163373ffffffffffffffffffffffffffffffffffffffff16141515615d9957600080fd5b601660049054906101000a900460ff16151515615db557600080fd5b80600360006101000a81548173ffffffffffffffffffffffffffffffffffffffff021916908373ffffffffffffffffffffffffffffffffffffffff16021790555050565b600080600e60008473ffffffffffffffffffffffffffffffffffffffff1673ffffffffffffffffffffffffffffffffffffffff16815260200190815260200160002060009054906101000a900473ffffffffffffffffffffffffffffffffffffffff1673ffffffffffffffffffffffffffffffffffffffff16141515615e825760019050615e87565b600090505b919050565b6000600460009054906101000a900473ffffffffffffffffffffffffffffffffffffffff1673ffffffffffffffffffffffffffffffffffffffff1663e1d551556040518163ffffffff167c0100000000000000000000000000000000000000000000000000000000028152600401602060405180830381600087803b158015615f1457600080fd5b505af1158015615f28573d6000803e3d6000fd5b505050506040513d601f19601f82011682018060405250615f4c91908101906167d0565b905090565b600080826000600960008373ffffffffffffffffffffffffffffffffffffffff1673ffffffffffffffffffffffffffffffffffffffff1681526020019081526020016000205414151515615fa457600080fd5b601660049054906101000a900460ff16151515615fc057600080fd5b8392508273ffffffffffffffffffffffffffffffffffffffff1663619d519460016040518263ffffffff167c01000000000000000000000000000000000000000000000000000000000281526004016160199190616edb565b600060405180830381600087803b15801561603357600080fd5b505af1158015616047573d6000803e3d6000fd5b505050503073ffffffffffffffffffffffffffffffffffffffff1663efd46065856040518263ffffffff167c01000000000000000000000000000000000000000000000000000000000281526004016160a09190616c7f565b602060405180830381600087803b1580156160ba57600080fd5b505af11580156160ce573d6000803e3d6000fd5b505050506040513d601f19601f820116820180604052506160f291908101906169ac565b15616229573073ffffffffffffffffffffffffffffffffffffffff1663b7acf7c3856040518263ffffffff167c010000000000000000000000000000000000000000000000000000000002815260040161614c9190616c7f565b602060405180830381600087803b15801561616657600080fd5b505af115801561617a573d6000803e3d6000fd5b505050506040513d601f19601f8201168201806040525061619e91908101906167d0565b91508173ffffffffffffffffffffffffffffffffffffffff1663619d519460016040518263ffffffff167c01000000000000000000000000000000000000000000000000000000000281526004016161f69190616edb565b600060405180830381600087803b15801561621057600080fd5b505af1158015616224573d6000803e3d6000fd5b505050505b50505050565b600080826000600960008373ffffffffffffffffffffffffffffffffffffffff1673ffffffffffffffffffffffffffffffffffffffff168152602001908152602001600020541415151561628257600080fd5b601660049054906101000a900460ff1615151561629e57600080fd5b8392508273ffffffffffffffffffffffffffffffffffffffff1663619d519460006040518263ffffffff167c01000000000000000000000000000000000000000000000000000000000281526004016162f79190616edb565b600060405180830381600087803b15801561631157600080fd5b505af1158015616325573d6000803e3d6000fd5b505050503073ffffffffffffffffffffffffffffffffffffffff1663efd46065856040518263ffffffff167c010000000000000000000000000000000000000000000000000000000002815260040161637e9190616c7f565b602060405180830381600087803b15801561639857600080fd5b505af11580156163ac573d6000803e3d6000fd5b505050506040513d601f19601f820116820180604052506163d091908101906169ac565b15616507573073ffffffffffffffffffffffffffffffffffffffff1663b7acf7c3856040518263ffffffff167c010000000000000000000000000000000000000000000000000000000002815260040161642a9190616c7f565b602060405180830381600087803b15801561644457600080fd5b505af1158015616458573d6000803e3d6000fd5b505050506040513d601f19601f8201168201806040525061647c91908101906167d0565b91508173ffffffffffffffffffffffffffffffffffffffff1663619d519460006040518263ffffffff167c01000000000000000000000000000000000000000000000000000000000281526004016164d49190616edb565b600060405180830381600087803b1580156164ee57600080fd5b505af1158015616502573d6000803e3d6000fd5b505050505b50505050565b6000808211151561651d57600080fd5b816012600082825401925050819055507f353e5eeb76213a2ec8cc1db1fa84a2782f6129abcdee0e4c2238cb99fa835889838360405161655e929190616e6e565b60405180910390a192915050565b828054600181600116156101000203166002900490600052602060002090601f016020900481019282601f106165ad57805160ff19168380011785556165db565b828001600101855582156165db579182015b828111156165da5782518255916020019190600101906165bf565b5b5090506165e891906166b4565b5090565b50805460018160011615610100020316600290046000825580601f106166125750616631565b601f01602090049060005260206000209081019061663091906166b4565b5b50565b828054600181600116156101000203166002900490600052602060002090601f016020900481019282601f1061667557805160ff19168380011785556166a3565b828001600101855582156166a3579182015b828111156166a2578251825591602001919060010190616687565b5b5090506166b091906166b4565b5090565b6166d691905b808211156166d25760008160009055506001016166ba565b5090565b90565b60006166e582356170d6565b905092915050565b60006166f982516170d6565b905092915050565b600061670d82356170f6565b905092915050565b600061672182516170f6565b905092915050565b60006167358235617102565b905092915050565b600082601f830112151561675057600080fd5b813561676361675e82617014565b616fe7565b9150808252602083016020830185838301111561677f57600080fd5b61678a83828461716d565b50505092915050565b600061679f823561711b565b905092915050565b6000602082840312156167b957600080fd5b60006167c7848285016166d9565b91505092915050565b6000602082840312156167e257600080fd5b60006167f0848285016166ed565b91505092915050565b6000806040838503121561680c57600080fd5b600061681a858286016166d9565b925050602061682b858286016166d9565b9150509250929050565b60008060006060848603121561684a57600080fd5b6000616858868287016166d9565b9350506020616869868287016166d9565b925050604084013567ffffffffffffffff81111561688657600080fd5b6168928682870161673d565b9150509250925092565b600080600080608085870312156168b257600080fd5b60006168c0878288016166d9565b945050602085013567ffffffffffffffff8111156168dd57600080fd5b6168e98782880161673d565b935050604085013567ffffffffffffffff81111561690657600080fd5b6169128782880161673d565b925050606085013567ffffffffffffffff81111561692f57600080fd5b61693b8782880161673d565b91505092959194509250565b6000806040838503121561695a57600080fd5b6000616968858286016166d9565b925050602061697985828601616793565b9150509250929050565b60006020828403121561699557600080fd5b60006169a384828501616701565b91505092915050565b6000602082840312156169be57600080fd5b60006169cc84828501616715565b91505092915050565b6000806000606084860312156169ea57600080fd5b60006169f886828701616729565b9350506020616a09868287016166d9565b9250506040616a1a868287016166d9565b9150509250925092565b600060208284031215616a3657600080fd5b6000616a4484828501616793565b91505092915050565b616a56816170a0565b82525050565b6000616a678261705a565b808452602084019350616a7983617040565b60005b82811015616aab57616a8f868351616a4d565b616a9882617086565b9150602086019550600181019050616a7c565b50849250505092915050565b6000616ac282617065565b80845260208401935083602082028501616adb8561704d565b60005b84811015616b14578383038852616af6838351616ba6565b9250616b0182617093565b9150602088019750600181019050616ade565b508196508694505050505092915050565b616b2e816170c0565b82525050565b616b3d81617125565b82525050565b616b4c81617137565b82525050565b616b5b81617149565b82525050565b616b6a8161715b565b82525050565b6000616b7b8261707b565b808452616b8f81602086016020860161717c565b616b98816171af565b602085010191505092915050565b6000616bb182617070565b808452616bc581602086016020860161717c565b616bce816171af565b602085010191505092915050565b6000601a82527f557365724e616d652068617320746f20626520756e697175652e0000000000006020830152604082019050919050565b6000602b82527f596f75206e65656420746f2062652061626c6520746f206c696b6520796f757260208301527f206f776e2073747566662e0000000000000000000000000000000000000000006040830152606082019050919050565b616c79816170cc565b82525050565b6000602082019050616c946000830184616a4d565b92915050565b6000604082019050616caf6000830185616a4d565b616cbc6020830184616a4d565b9392505050565b6000606082019050616cd86000830186616a4d565b616ce56020830185616a4d565b616cf26040830184616a4d565b949350505050565b600060a082019050616d0f6000830188616a4d565b616d1c6020830187616a4d565b616d296040830186616a4d565b616d366060830185616a4d565b616d436080830184616b34565b9695505050505050565b6000606082019050616d626000830186616a4d565b616d6f6020830185616a4d565b8181036040830152616d818184616b70565b9050949350505050565b6000604082019050616da06000830185616a4d565b616dad6020830184616b43565b9392505050565b6000604082019050616dc96000830185616a4d565b616dd66020830184616b52565b9392505050565b6000604082019050616df26000830185616a4d565b616dff6020830184616b61565b9392505050565b600060a082019050616e1b6000830188616a4d565b8181036020830152616e2d8187616ba6565b90508181036040830152616e418186616ba6565b90508181036060830152616e558185616ba6565b9050616e646080830184616c70565b9695505050505050565b6000604082019050616e836000830185616a4d565b616e906020830184616c70565b9392505050565b60006020820190508181036000830152616eb18184616a5c565b905092915050565b60006020820190508181036000830152616ed38184616ab7565b905092915050565b6000602082019050616ef06000830184616b25565b92915050565b6000602082019050616f0b6000830184616b34565b92915050565b6000606082019050616f266000830186616b34565b616f336020830185616a4d565b616f406040830184616a4d565b949350505050565b60006020820190508181036000830152616f628184616ba6565b905092915050565b60006020820190508181036000830152616f848184616b70565b905092915050565b60006020820190508181036000830152616fa581616bdc565b9050919050565b60006020820190508181036000830152616fc581616c13565b9050919050565b6000602082019050616fe16000830184616c70565b92915050565b6000604051905081810181811067ffffffffffffffff8211171561700a57600080fd5b8060405250919050565b600067ffffffffffffffff82111561702b57600080fd5b601f19601f8301169050602081019050919050565b6000602082019050919050565b6000602082019050919050565b600081519050919050565b600081519050919050565b600081519050919050565b600081519050919050565b6000602082019050919050565b6000602082019050919050565b600073ffffffffffffffffffffffffffffffffffffffff82169050919050565b60008115159050919050565b6000819050919050565b600073ffffffffffffffffffffffffffffffffffffffff82169050919050565b60008115159050919050565b600060038210151561711357600080fd5b819050919050565b6000819050919050565b6000617130826170a0565b9050919050565b6000617142826170cc565b9050919050565b6000617154826170cc565b9050919050565b6000617166826170cc565b9050919050565b82818337600083830152505050565b60005b8381101561719a57808201518184015260208101905061717f565b838111156171a9576000848401525b50505050565b6000601f19601f83011690509190505600a265627a7a7230582047f9f43001327f4dd04c3f6d5323220d067b5c9feac039daa70761c63087467d6c6578706572696d656e74616cf5003760806040526000600460146101000a81548160ff0219169083151502179055506000600460156101000a81548160ff0219169083151502179055506000600460166101000a81548160ff02191690831515021790555034801561006157600080fd5b50611d6d806100716000396000f300608060405260043610610099576000357c0100000000000000000000000000000000000000000000000000000000900463ffffffff16806335ac4ccf1461009e57806363a599a4146100e15780636c4f8bd5146101105780638456cb591461012757806386cc31ac14610156578063a404d3c1146101ad578063cbf0b0c014610208578063d0b0731c1461024b578063f36675171461026d575b600080fd5b3480156100aa57600080fd5b506100df600480360381019080803573ffffffffffffffffffffffffffffffffffffffff1690602001909291905050506102c4565b005b3480156100ed57600080fd5b506100f661050e565b604051808215151515815260200191505060405180910390f35b34801561011c57600080fd5b50610125610521565b005b34801561013357600080fd5b5061013c6109d7565b604051808215151515815260200191505060405180910390f35b34801561016257600080fd5b5061016b6109ea565b604051808273ffffffffffffffffffffffffffffffffffffffff1673ffffffffffffffffffffffffffffffffffffffff16815260200191505060405180910390f35b3480156101b957600080fd5b506101ee600480360381019080803573ffffffffffffffffffffffffffffffffffffffff169060200190929190505050610a14565b604051808215151515815260200191505060405180910390f35b34801561021457600080fd5b50610249600480360381019080803573ffffffffffffffffffffffffffffffffffffffff169060200190929190505050610bb0565b005b610253610d1a565b604051808215151515815260200191505060405180910390f35b34801561027957600080fd5b506102826110f1565b604051808273ffffffffffffffffffffffffffffffffffffffff1673ffffffffffffffffffffffffffffffffffffffff16815260200191505060405180910390f35b600460169054906101000a900460ff1615151561036f576040517f08c379a00000000000000000000000000000000000000000000000000000000081526004018080602001828103825260258152602001807f5468697320636f6e74726163742068617320616c7265616479206265656e207381526020017f657420757000000000000000000000000000000000000000000000000000000081525060400191505060405180910390fd5b80600260006101000a81548173ffffffffffffffffffffffffffffffffffffffff021916908373ffffffffffffffffffffffffffffffffffffffff160217905550806000806101000a81548173ffffffffffffffffffffffffffffffffffffffff021916908373ffffffffffffffffffffffffffffffffffffffff1602179055506000809054906101000a900473ffffffffffffffffffffffffffffffffffffffff1673ffffffffffffffffffffffffffffffffffffffff16638da5cb5b6040518163ffffffff167c0100000000000000000000000000000000000000000000000000000000028152600401602060405180830381600087803b15801561047557600080fd5b505af1158015610489573d6000803e3d6000fd5b505050506040513d602081101561049f57600080fd5b8101908080519060200190929190505050600460006101000a81548173ffffffffffffffffffffffffffffffffffffffff021916908373ffffffffffffffffffffffffffffffffffffffff1602179055506001600460166101000a81548160ff02191690831515021790555050565b600460149054906101000a900460ff1681565b6000336000809054906101000a900473ffffffffffffffffffffffffffffffffffffffff1673ffffffffffffffffffffffffffffffffffffffff1663efd46065336040518263ffffffff167c0100000000000000000000000000000000000000000000000000000000028152600401808273ffffffffffffffffffffffffffffffffffffffff1673ffffffffffffffffffffffffffffffffffffffff168152602001915050602060405180830381600087803b1580156105e057600080fd5b505af11580156105f4573d6000803e3d6000fd5b505050506040513d602081101561060a57600080fd5b8101908080519060200190929190505050151561062657600080fd5b8073ffffffffffffffffffffffffffffffffffffffff163373ffffffffffffffffffffffffffffffffffffffff1614151561066057600080fd5b3391506000809054906101000a900473ffffffffffffffffffffffffffffffffffffffff1673ffffffffffffffffffffffffffffffffffffffff16635c1e153c338473ffffffffffffffffffffffffffffffffffffffff1663893d20e86040518163ffffffff167c0100000000000000000000000000000000000000000000000000000000028152600401602060405180830381600087803b15801561070557600080fd5b505af1158015610719573d6000803e3d6000fd5b505050506040513d602081101561072f57600080fd5b81019080805190602001909291905050506040518363ffffffff167c0100000000000000000000000000000000000000000000000000000000028152600401808373ffffffffffffffffffffffffffffffffffffffff1673ffffffffffffffffffffffffffffffffffffffff1681526020018273ffffffffffffffffffffffffffffffffffffffff1673ffffffffffffffffffffffffffffffffffffffff16815260200192505050600060405180830381600087803b1580156107f157600080fd5b505af1158015610805573d6000803e3d6000fd5b505050506000809054906101000a900473ffffffffffffffffffffffffffffffffffffffff1673ffffffffffffffffffffffffffffffffffffffff1663aae87c248373ffffffffffffffffffffffffffffffffffffffff1663893d20e86040518163ffffffff167c0100000000000000000000000000000000000000000000000000000000028152600401602060405180830381600087803b1580156108aa57600080fd5b505af11580156108be573d6000803e3d6000fd5b505050506040513d60208110156108d457600080fd5b8101908080519060200190929190505050336040518363ffffffff167c0100000000000000000000000000000000000000000000000000000000028152600401808373ffffffffffffffffffffffffffffffffffffffff1673ffffffffffffffffffffffffffffffffffffffff1681526020018273ffffffffffffffffffffffffffffffffffffffff1673ffffffffffffffffffffffffffffffffffffffff16815260200192505050602060405180830381600087803b15801561099757600080fd5b505af11580156109ab573d6000803e3d6000fd5b505050506040513d60208110156109c157600080fd5b8101908080519060200190929190505050505050565b600460159054906101000a900460ff1681565b6000600260009054906101000a900473ffffffffffffffffffffffffffffffffffffffff16905090565b600080606060008092506000809054906101000a900473ffffffffffffffffffffffffffffffffffffffff1673ffffffffffffffffffffffffffffffffffffffff16632f3300236040518163ffffffff167c0100000000000000000000000000000000000000000000000000000000028152600401600060405180830381600087803b158015610aa357600080fd5b505af1158015610ab7573d6000803e3d6000fd5b505050506040513d6000823e3d601f19601f820116820180604052506020811015610ae157600080fd5b810190808051640100000000811115610af957600080fd5b82810190506020810184811115610b0f57600080fd5b8151856020820283011164010000000082111715610b2c57600080fd5b50509291905050509150600090505b8151811015610ba5578473ffffffffffffffffffffffffffffffffffffffff168282815181101515610b6957fe5b9060200190602002015173ffffffffffffffffffffffffffffffffffffffff161415610b985760019250610ba5565b8080600101915050610b3b565b829350505050919050565b600460009054906101000a900473ffffffffffffffffffffffffffffffffffffffff1673ffffffffffffffffffffffffffffffffffffffff163373ffffffffffffffffffffffffffffffffffffffff161480610cf657506000809054906101000a900473ffffffffffffffffffffffffffffffffffffffff1673ffffffffffffffffffffffffffffffffffffffff1663ed9aab516040518163ffffffff167c0100000000000000000000000000000000000000000000000000000000028152600401602060405180830381600087803b158015610c8c57600080fd5b505af1158015610ca0573d6000803e3d6000fd5b505050506040513d6020811015610cb657600080fd5b810190808051906020019092919050505073ffffffffffffffffffffffffffffffffffffffff163373ffffffffffffffffffffffffffffffffffffffff16145b1515610d0157600080fd5b8073ffffffffffffffffffffffffffffffffffffffff16ff5b6000803360008090506000809054906101000a900473ffffffffffffffffffffffffffffffffffffffff1673ffffffffffffffffffffffffffffffffffffffff16634209fff1836040518263ffffffff167c0100000000000000000000000000000000000000000000000000000000028152600401808273ffffffffffffffffffffffffffffffffffffffff1673ffffffffffffffffffffffffffffffffffffffff168152602001915050602060405180830381600087803b158015610ddf57600080fd5b505af1158015610df3573d6000803e3d6000fd5b505050506040513d6020811015610e0957600080fd5b81019080805190602001909291905050509050801515610e2857600080fd5b600460149054906101000a900460ff16151515610e4457600080fd5b600460159054906101000a900460ff16151515610e6057600080fd5b6000809054906101000a900473ffffffffffffffffffffffffffffffffffffffff1673ffffffffffffffffffffffffffffffffffffffff16638456cb596040518163ffffffff167c0100000000000000000000000000000000000000000000000000000000028152600401602060405180830381600087803b158015610ee557600080fd5b505af1158015610ef9573d6000803e3d6000fd5b505050506040513d6020811015610f0f57600080fd5b8101908080519060200190929190505050151515610f2c57600080fd5b3330610f366111b8565b808373ffffffffffffffffffffffffffffffffffffffff1673ffffffffffffffffffffffffffffffffffffffff1681526020018273ffffffffffffffffffffffffffffffffffffffff1673ffffffffffffffffffffffffffffffffffffffff16815260200192505050604051809103906000f080158015610fbb573d6000803e3d6000fd5b5092506000809054906101000a900473ffffffffffffffffffffffffffffffffffffffff1673ffffffffffffffffffffffffffffffffffffffff1663e2bf75d133856040518363ffffffff167c0100000000000000000000000000000000000000000000000000000000028152600401808373ffffffffffffffffffffffffffffffffffffffff1673ffffffffffffffffffffffffffffffffffffffff1681526020018273ffffffffffffffffffffffffffffffffffffffff1673ffffffffffffffffffffffffffffffffffffffff16815260200192505050602060405180830381600087803b1580156110ae57600080fd5b505af11580156110c2573d6000803e3d6000fd5b505050506040513d60208110156110d857600080fd5b8101908080519060200190929190505050935050505090565b60008060009054906101000a900473ffffffffffffffffffffffffffffffffffffffff1673ffffffffffffffffffffffffffffffffffffffff1663f36675176040518163ffffffff167c0100000000000000000000000000000000000000000000000000000000028152600401602060405180830381600087803b15801561117857600080fd5b505af115801561118c573d6000803e3d6000fd5b505050506040513d60208110156111a257600080fd5b8101908080519060200190929190505050905090565b604051610b79806111c9833901905600608060405234801561001057600080fd5b50604051604080610b798339810180604052810190808051906020019092919080519060200190929190505050816000809054906101000a900473ffffffffffffffffffffffffffffffffffffffff1673ffffffffffffffffffffffffffffffffffffffff1663a404d3c1826040518263ffffffff167c0100000000000000000000000000000000000000000000000000000000028152600401808273ffffffffffffffffffffffffffffffffffffffff1673ffffffffffffffffffffffffffffffffffffffff168152602001915050602060405180830381600087803b1580156100fa57600080fd5b505af115801561010e573d6000803e3d6000fd5b505050506040513d602081101561012457600080fd5b8101908080519060200190929190505050151561014057600080fd5b82600260006101000a81548173ffffffffffffffffffffffffffffffffffffffff021916908373ffffffffffffffffffffffffffffffffffffffff16021790555082600360006101000a81548173ffffffffffffffffffffffffffffffffffffffff021916908373ffffffffffffffffffffffffffffffffffffffff16021790555081600460006101000a81548173ffffffffffffffffffffffffffffffffffffffff021916908373ffffffffffffffffffffffffffffffffffffffff16021790555082600160006101000a81548173ffffffffffffffffffffffffffffffffffffffff021916908373ffffffffffffffffffffffffffffffffffffffff160217905550816000806101000a81548173ffffffffffffffffffffffffffffffffffffffff021916908373ffffffffffffffffffffffffffffffffffffffff1602179055505050506108e3806102966000396000f30060806040526004361061006d576000357c0100000000000000000000000000000000000000000000000000000000900463ffffffff16806341c0e1b514610072578063619d5194146100895780637e5852d9146100b8578063893d20e8146100e75780639daf87291461013e575b600080fd5b34801561007e57600080fd5b5061008761023e565b005b34801561009557600080fd5b506100b6600480360381019080803515159060200190929190505050610372565b005b3480156100c457600080fd5b506100cd61048e565b604051808215151515815260200191505060405180910390f35b3480156100f357600080fd5b506100fc6104a5565b604051808273ffffffffffffffffffffffffffffffffffffffff1673ffffffffffffffffffffffffffffffffffffffff16815260200191505060405180910390f35b610224600480360381019080803590602001908201803590602001908080601f0160208091040260200160405190810160405280939291908181526020018383808284378201915050505050509192919290803590602001908201803590602001908080601f0160208091040260200160405190810160405280939291908181526020018383808284378201915050505050509192919290803590602001908201803590602001908080601f01602080910402602001604051908101604052809392919081815260200183838082843782019150505050505091929192905050506104cf565b604051808215151515815260200191505060405180910390f35b600260009054906101000a900473ffffffffffffffffffffffffffffffffffffffff1673ffffffffffffffffffffffffffffffffffffffff163373ffffffffffffffffffffffffffffffffffffffff1614151561029a57600080fd5b6000809054906101000a900473ffffffffffffffffffffffffffffffffffffffff1673ffffffffffffffffffffffffffffffffffffffff16636c4f8bd56040518163ffffffff167c0100000000000000000000000000000000000000000000000000000000028152600401600060405180830381600087803b15801561031f57600080fd5b505af1158015610333573d6000803e3d6000fd5b50505050600260009054906101000a900473ffffffffffffffffffffffffffffffffffffffff1673ffffffffffffffffffffffffffffffffffffffff16ff5b60008060009054906101000a900473ffffffffffffffffffffffffffffffffffffffff1673ffffffffffffffffffffffffffffffffffffffff166386cc31ac6040518163ffffffff167c0100000000000000000000000000000000000000000000000000000000028152600401602060405180830381600087803b1580156103f957600080fd5b505af115801561040d573d6000803e3d6000fd5b505050506040513d602081101561042357600080fd5b810190808051906020019092919050505090508073ffffffffffffffffffffffffffffffffffffffff163373ffffffffffffffffffffffffffffffffffffffff1614151561047057600080fd5b81600460146101000a81548160ff0219169083151502179055505050565b6000600460149054906101000a900460ff16905090565b6000600260009054906101000a900473ffffffffffffffffffffffffffffffffffffffff16905090565b600080600160009054906101000a900473ffffffffffffffffffffffffffffffffffffffff1673ffffffffffffffffffffffffffffffffffffffff16637e5852d96040518163ffffffff167c0100000000000000000000000000000000000000000000000000000000028152600401602060405180830381600087803b15801561055857600080fd5b505af115801561056c573d6000803e3d6000fd5b505050506040513d602081101561058257600080fd5b810190808051906020019092919050505015151561059f57600080fd5b600460149054906101000a900460ff161515156105bb57600080fd5b6000809054906101000a900473ffffffffffffffffffffffffffffffffffffffff1673ffffffffffffffffffffffffffffffffffffffff1663f36675176040518163ffffffff167c0100000000000000000000000000000000000000000000000000000000028152600401602060405180830381600087803b15801561064057600080fd5b505af1158015610654573d6000803e3d6000fd5b505050506040513d602081101561066a57600080fd5b810190808051906020019092919050505090508073ffffffffffffffffffffffffffffffffffffffff166108fc349081150290604051600060405180830381858888f193505050501580156106c3573d6000803e3d6000fd5b508073ffffffffffffffffffffffffffffffffffffffff1663fe8ef25e8686866040518463ffffffff167c010000000000000000000000000000000000000000000000000000000002815260040180806020018060200180602001848103845287818151815260200191508051906020019080838360005b8381101561075657808201518184015260208101905061073b565b50505050905090810190601f1680156107835780820380516001836020036101000a031916815260200191505b50848103835286818151815260200191508051906020019080838360005b838110156107bc5780820151818401526020810190506107a1565b50505050905090810190601f1680156107e95780820380516001836020036101000a031916815260200191505b50848103825285818151815260200191508051906020019080838360005b83811015610822578082015181840152602081019050610807565b50505050905090810190601f16801561084f5780820380516001836020036101000a031916815260200191505b509650505050505050602060405180830381600087803b15801561087257600080fd5b505af1158015610886573d6000803e3d6000fd5b505050506040513d602081101561089c57600080fd5b810190808051906020019092919050505091505093925050505600a165627a7a72305820a28ac1cc20950e6cd7cf245ff4d466301ece310356b8370736e3ed7d3847708a0029a165627a7a723058209fbb24b60106e6771e891c4d246e86a6c09bd88c24f9b8e83310ad665ec1f94c002960806040526000600560146101000a81548160ff0219169083151502179055506000600560156101000a81548160ff0219169083151502179055506000600560166101000a81548160ff02191690831515021790555034801561006157600080fd5b506129b2806100716000396000f3006080604052600436106100af576000357c0100000000000000000000000000000000000000000000000000000000900463ffffffff16806328f56902146100b45780633c093d5a14610137578063507ffba51461018e578063638f83601461023757806363a599a41461028e5780638456cb59146102bd57806394d2d7a7146102ec578063cbf0b0c014610343578063cd189e2b14610386578063ee92d484146103e1578063f366751714610410575b600080fd5b3480156100c057600080fd5b50610135600480360381019080803573ffffffffffffffffffffffffffffffffffffffff169060200190929190803573ffffffffffffffffffffffffffffffffffffffff169060200190929190803573ffffffffffffffffffffffffffffffffffffffff169060200190929190505050610467565b005b34801561014357600080fd5b5061014c610635565b604051808273ffffffffffffffffffffffffffffffffffffffff1673ffffffffffffffffffffffffffffffffffffffff16815260200191505060405180910390f35b34801561019a57600080fd5b506101f5600480360381019080803590602001908201803590602001908080601f01602080910402602001604051908101604052809392919081815260200183838082843782019150505050505091929192905050506106fc565b604051808273ffffffffffffffffffffffffffffffffffffffff1673ffffffffffffffffffffffffffffffffffffffff16815260200191505060405180910390f35b34801561024357600080fd5b5061024c610a80565b604051808273ffffffffffffffffffffffffffffffffffffffff1673ffffffffffffffffffffffffffffffffffffffff16815260200191505060405180910390f35b34801561029a57600080fd5b506102a3610aaa565b604051808215151515815260200191505060405180910390f35b3480156102c957600080fd5b506102d2610abd565b604051808215151515815260200191505060405180910390f35b3480156102f857600080fd5b50610301610ad0565b604051808273ffffffffffffffffffffffffffffffffffffffff1673ffffffffffffffffffffffffffffffffffffffff16815260200191505060405180910390f35b34801561034f57600080fd5b50610384600480360381019080803573ffffffffffffffffffffffffffffffffffffffff169060200190929190505050610bce565b005b34801561039257600080fd5b506103c7600480360381019080803573ffffffffffffffffffffffffffffffffffffffff169060200190929190505050610d38565b604051808215151515815260200191505060405180910390f35b3480156103ed57600080fd5b506103f6611437565b604051808215151515815260200191505060405180910390f35b34801561041c57600080fd5b50610425611535565b604051808273ffffffffffffffffffffffffffffffffffffffff1673ffffffffffffffffffffffffffffffffffffffff16815260200191505060405180910390f35b600560169054906101000a900460ff16151515610512576040517f08c379a00000000000000000000000000000000000000000000000000000000081526004018080602001828103825260258152602001807f5468697320636f6e74726163742068617320616c7265616479206265656e207381526020017f657420757000000000000000000000000000000000000000000000000000000081525060400191505060405180910390fd5b81600560006101000a81548173ffffffffffffffffffffffffffffffffffffffff021916908373ffffffffffffffffffffffffffffffffffffffff16021790555082600360006101000a81548173ffffffffffffffffffffffffffffffffffffffff021916908373ffffffffffffffffffffffffffffffffffffffff160217905550826000806101000a81548173ffffffffffffffffffffffffffffffffffffffff021916908373ffffffffffffffffffffffffffffffffffffffff16021790555080600260006101000a81548173ffffffffffffffffffffffffffffffffffffffff021916908373ffffffffffffffffffffffffffffffffffffffff1602179055506001600560166101000a81548160ff021916908315150217905550505050565b60008060009054906101000a900473ffffffffffffffffffffffffffffffffffffffff1673ffffffffffffffffffffffffffffffffffffffff1663cd8c43b66040518163ffffffff167c0100000000000000000000000000000000000000000000000000000000028152600401602060405180830381600087803b1580156106bc57600080fd5b505af11580156106d0573d6000803e3d6000fd5b505050506040513d60208110156106e657600080fd5b8101908080519060200190929190505050905090565b600080600560149054906101000a900460ff1615151561071b57600080fd5b600560159054906101000a900460ff1615151561073757600080fd5b6000809054906101000a900473ffffffffffffffffffffffffffffffffffffffff1673ffffffffffffffffffffffffffffffffffffffff16638456cb596040518163ffffffff167c0100000000000000000000000000000000000000000000000000000000028152600401602060405180830381600087803b1580156107bc57600080fd5b505af11580156107d0573d6000803e3d6000fd5b505050506040513d60208110156107e657600080fd5b810190808051906020019092919050505015151561080357600080fd5b33833061080e6115fc565b808473ffffffffffffffffffffffffffffffffffffffff1673ffffffffffffffffffffffffffffffffffffffff168152602001806020018373ffffffffffffffffffffffffffffffffffffffff1673ffffffffffffffffffffffffffffffffffffffff168152602001828103825284818151815260200191508051906020019080838360005b838110156108af578082015181840152602081019050610894565b50505050905090810190601f1680156108dc5780820380516001836020036101000a031916815260200191505b50945050505050604051809103906000f0801580156108ff573d6000803e3d6000fd5b5090506000809054906101000a900473ffffffffffffffffffffffffffffffffffffffff1673ffffffffffffffffffffffffffffffffffffffff1663ccaf95533383866040518463ffffffff167c0100000000000000000000000000000000000000000000000000000000028152600401808473ffffffffffffffffffffffffffffffffffffffff1673ffffffffffffffffffffffffffffffffffffffff1681526020018373ffffffffffffffffffffffffffffffffffffffff1673ffffffffffffffffffffffffffffffffffffffff16815260200180602001828103825283818151815260200191508051906020019080838360005b83811015610a115780820151818401526020810190506109f6565b50505050905090810190601f168015610a3e5780820380516001836020036101000a031916815260200191505b50945050505050600060405180830381600087803b158015610a5f57600080fd5b505af1158015610a73573d6000803e3d6000fd5b5050505080915050919050565b6000600360009054906101000a900473ffffffffffffffffffffffffffffffffffffffff16905090565b600560149054906101000a900460ff1681565b600560159054906101000a900460ff1681565b60008060009054906101000a900473ffffffffffffffffffffffffffffffffffffffff1673ffffffffffffffffffffffffffffffffffffffff1663b7acf7c3336040518263ffffffff167c0100000000000000000000000000000000000000000000000000000000028152600401808273ffffffffffffffffffffffffffffffffffffffff1673ffffffffffffffffffffffffffffffffffffffff168152602001915050602060405180830381600087803b158015610b8e57600080fd5b505af1158015610ba2573d6000803e3d6000fd5b505050506040513d6020811015610bb857600080fd5b8101908080519060200190929190505050905090565b600560009054906101000a900473ffffffffffffffffffffffffffffffffffffffff1673ffffffffffffffffffffffffffffffffffffffff163373ffffffffffffffffffffffffffffffffffffffff161480610d1457506000809054906101000a900473ffffffffffffffffffffffffffffffffffffffff1673ffffffffffffffffffffffffffffffffffffffff1663ed9aab516040518163ffffffff167c0100000000000000000000000000000000000000000000000000000000028152600401602060405180830381600087803b158015610caa57600080fd5b505af1158015610cbe573d6000803e3d6000fd5b505050506040513d6020811015610cd457600080fd5b810190808051906020019092919050505073ffffffffffffffffffffffffffffffffffffffff163373ffffffffffffffffffffffffffffffffffffffff16145b1515610d1f57600080fd5b8073ffffffffffffffffffffffffffffffffffffffff16ff5b60006060600560149054906101000a900460ff16151515610d5857600080fd5b600560159054906101000a900460ff16151515610d7457600080fd5b6000809054906101000a900473ffffffffffffffffffffffffffffffffffffffff1673ffffffffffffffffffffffffffffffffffffffff16638456cb596040518163ffffffff167c0100000000000000000000000000000000000000000000000000000000028152600401602060405180830381600087803b158015610df957600080fd5b505af1158015610e0d573d6000803e3d6000fd5b505050506040513d6020811015610e2357600080fd5b8101908080519060200190929190505050151515610e4057600080fd5b8273ffffffffffffffffffffffffffffffffffffffff163373ffffffffffffffffffffffffffffffffffffffff16141515610e7a57600080fd5b6000809054906101000a900473ffffffffffffffffffffffffffffffffffffffff1673ffffffffffffffffffffffffffffffffffffffff166364015cc9846040518263ffffffff167c0100000000000000000000000000000000000000000000000000000000028152600401808273ffffffffffffffffffffffffffffffffffffffff1673ffffffffffffffffffffffffffffffffffffffff168152602001915050600060405180830381600087803b158015610f3657600080fd5b505af1158015610f4a573d6000803e3d6000fd5b505050506040513d6000823e3d601f19601f820116820180604052506020811015610f7457600080fd5b810190808051640100000000811115610f8c57600080fd5b82810190506020810184811115610fa257600080fd5b8151856001820283011164010000000082111715610fbf57600080fd5b50509291905050509050604051806000019050604051809103902060001916816040518082805190602001908083835b6020831015156110145780518252602082019150602081019050602083039250610fef565b6001836020036101000a0380198251168184511680821785525050505050509050019150506040518091039020600019161415151561105257600080fd5b6000809054906101000a900473ffffffffffffffffffffffffffffffffffffffff1673ffffffffffffffffffffffffffffffffffffffff1663819ad0276000809054906101000a900473ffffffffffffffffffffffffffffffffffffffff1673ffffffffffffffffffffffffffffffffffffffff1663b96275fb866040518263ffffffff167c0100000000000000000000000000000000000000000000000000000000028152600401808273ffffffffffffffffffffffffffffffffffffffff1673ffffffffffffffffffffffffffffffffffffffff168152602001915050602060405180830381600087803b15801561114b57600080fd5b505af115801561115f573d6000803e3d6000fd5b505050506040513d602081101561117557600080fd5b8101908080519060200190929190505050856000809054906101000a900473ffffffffffffffffffffffffffffffffffffffff1673ffffffffffffffffffffffffffffffffffffffff1663bfc16c50886040518263ffffffff167c0100000000000000000000000000000000000000000000000000000000028152600401808273ffffffffffffffffffffffffffffffffffffffff1673ffffffffffffffffffffffffffffffffffffffff168152602001915050600060405180830381600087803b15801561124357600080fd5b505af1158015611257573d6000803e3d6000fd5b505050506040513d6000823e3d601f19601f82011682018060405250602081101561128157600080fd5b81019080805164010000000081111561129957600080fd5b828101905060208101848111156112af57600080fd5b81518560018202830111640100000000821117156112cc57600080fd5b50509291905050506040518463ffffffff167c0100000000000000000000000000000000000000000000000000000000028152600401808473ffffffffffffffffffffffffffffffffffffffff1673ffffffffffffffffffffffffffffffffffffffff1681526020018373ffffffffffffffffffffffffffffffffffffffff1673ffffffffffffffffffffffffffffffffffffffff16815260200180602001828103825283818151815260200191508051906020019080838360005b838110156113a3578082015181840152602081019050611388565b50505050905090810190601f1680156113d05780820380516001836020036101000a031916815260200191505b50945050505050602060405180830381600087803b1580156113f157600080fd5b505af1158015611405573d6000803e3d6000fd5b505050506040513d602081101561141b57600080fd5b8101908080519060200190929190505050506001915050919050565b60008060009054906101000a900473ffffffffffffffffffffffffffffffffffffffff1673ffffffffffffffffffffffffffffffffffffffff1663efd46065336040518263ffffffff167c0100000000000000000000000000000000000000000000000000000000028152600401808273ffffffffffffffffffffffffffffffffffffffff1673ffffffffffffffffffffffffffffffffffffffff168152602001915050602060405180830381600087803b1580156114f557600080fd5b505af1158015611509573d6000803e3d6000fd5b505050506040513d602081101561151f57600080fd5b8101908080519060200190929190505050905090565b60008060009054906101000a900473ffffffffffffffffffffffffffffffffffffffff1673ffffffffffffffffffffffffffffffffffffffff166334d722c96040518163ffffffff167c0100000000000000000000000000000000000000000000000000000000028152600401602060405180830381600087803b1580156115bc57600080fd5b505af11580156115d0573d6000803e3d6000fd5b505050506040513d60208110156115e657600080fd5b8101908080519060200190929190505050905090565b60405161137a8061160d83390190560060806040523480156200001157600080fd5b506040516200137a3803806200137a83398101806040528101908080519060200190929190805182019291906020018051906020019092919050505082600160006101000a81548173ffffffffffffffffffffffffffffffffffffffff021916908373ffffffffffffffffffffffffffffffffffffffff160217905550426003819055508160029080519060200190620000ad929190620000f7565b50806000806101000a81548173ffffffffffffffffffffffffffffffffffffffff021916908373ffffffffffffffffffffffffffffffffffffffff160217905550505050620001a6565b828054600181600116156101000203166002900490600052602060002090601f016020900481019282601f106200013a57805160ff19168380011785556200016b565b828001600101855582156200016b579182015b828111156200016a5782518255916020019190600101906200014d565b5b5090506200017a91906200017e565b5090565b620001a391905b808211156200019f57600081600090555060010162000185565b5090565b90565b6111c480620001b66000396000f3006080604052600436106100af576000357c0100000000000000000000000000000000000000000000000000000000900463ffffffff168063026ff05e146100b45780634cad552b146100e3578063619d51941461011057806370019b351461013f5780637e5852d9146101cf5780638da5cb5b146101fe578063a1b181f714610255578063afe8c37d14610282578063ca979d50146102af578063e8380d9b146102da578063fbfa1c67146102fc575b600080fd5b3480156100c057600080fd5b506100c9610306565b604051808215151515815260200191505060405180910390f35b3480156100ef57600080fd5b5061010e600480360381019080803590602001909291905050506106ab565b005b34801561011c57600080fd5b5061013d60048036038101908080351515906020019092919050505061087a565b005b34801561014b57600080fd5b50610154610990565b6040518080602001828103825283818151815260200191508051906020019080838360005b83811015610194578082015181840152602081019050610179565b50505050905090810190601f1680156101c15780820380516001836020036101000a031916815260200191505b509250505060405180910390f35b3480156101db57600080fd5b506101e4610a2e565b604051808215151515815260200191505060405180910390f35b34801561020a57600080fd5b50610213610a45565b604051808273ffffffffffffffffffffffffffffffffffffffff1673ffffffffffffffffffffffffffffffffffffffff16815260200191505060405180910390f35b34801561026157600080fd5b5061028060048036038101908080359060200190929190505050610a6b565b005b34801561028e57600080fd5b506102ad60048036038101908080359060200190929190505050610c3a565b005b3480156102bb57600080fd5b506102c4610e09565b6040518082815260200191505060405180910390f35b6102e2610e0f565b604051808215151515815260200191505060405180910390f35b610304610fd5565b005b6000806000600160009054906101000a900473ffffffffffffffffffffffffffffffffffffffff1673ffffffffffffffffffffffffffffffffffffffff163373ffffffffffffffffffffffffffffffffffffffff1614151561036757600080fd5b6000809054906101000a900473ffffffffffffffffffffffffffffffffffffffff1673ffffffffffffffffffffffffffffffffffffffff1663cd189e2b306040518263ffffffff167c0100000000000000000000000000000000000000000000000000000000028152600401808273ffffffffffffffffffffffffffffffffffffffff1673ffffffffffffffffffffffffffffffffffffffff168152602001915050602060405180830381600087803b15801561042357600080fd5b505af1158015610437573d6000803e3d6000fd5b505050506040513d602081101561044d57600080fd5b8101908080519060200190929190505050151561046957600080fd5b6000809054906101000a900473ffffffffffffffffffffffffffffffffffffffff1673ffffffffffffffffffffffffffffffffffffffff1663ee92d4846040518163ffffffff167c0100000000000000000000000000000000000000000000000000000000028152600401602060405180830381600087803b1580156104ee57600080fd5b505af1158015610502573d6000803e3d6000fd5b505050506040513d602081101561051857600080fd5b810190808051906020019092919050505091508115610670576000809054906101000a900473ffffffffffffffffffffffffffffffffffffffff1673ffffffffffffffffffffffffffffffffffffffff166394d2d7a76040518163ffffffff167c0100000000000000000000000000000000000000000000000000000000028152600401602060405180830381600087803b1580156105b657600080fd5b505af11580156105ca573d6000803e3d6000fd5b505050506040513d60208110156105e057600080fd5b810190808051906020019092919050505090508073ffffffffffffffffffffffffffffffffffffffff166341c0e1b56040518163ffffffff167c0100000000000000000000000000000000000000000000000000000000028152600401600060405180830381600087803b15801561065757600080fd5b505af115801561066b573d6000803e3d6000fd5b505050505b600160009054906101000a900473ffffffffffffffffffffffffffffffffffffffff1673ffffffffffffffffffffffffffffffffffffffff16ff5b6000600160009054906101000a900473ffffffffffffffffffffffffffffffffffffffff1673ffffffffffffffffffffffffffffffffffffffff163373ffffffffffffffffffffffffffffffffffffffff1614151561070957600080fd5b6000809054906101000a900473ffffffffffffffffffffffffffffffffffffffff1673ffffffffffffffffffffffffffffffffffffffff1663f36675176040518163ffffffff167c0100000000000000000000000000000000000000000000000000000000028152600401602060405180830381600087803b15801561078e57600080fd5b505af11580156107a2573d6000803e3d6000fd5b505050506040513d60208110156107b857600080fd5b810190808051906020019092919050505090508073ffffffffffffffffffffffffffffffffffffffff16634cad552b836040518263ffffffff167c010000000000000000000000000000000000000000000000000000000002815260040180828152602001915050602060405180830381600087803b15801561083a57600080fd5b505af115801561084e573d6000803e3d6000fd5b505050506040513d602081101561086457600080fd5b8101908080519060200190929190505050505050565b6000809054906101000a900473ffffffffffffffffffffffffffffffffffffffff1673ffffffffffffffffffffffffffffffffffffffff1663638f83606040518163ffffffff167c0100000000000000000000000000000000000000000000000000000000028152600401602060405180830381600087803b1580156108ff57600080fd5b505af1158015610913573d6000803e3d6000fd5b505050506040513d602081101561092957600080fd5b810190808051906020019092919050505073ffffffffffffffffffffffffffffffffffffffff163373ffffffffffffffffffffffffffffffffffffffff1614151561097357600080fd5b80600460006101000a81548160ff02191690831515021790555050565b60028054600181600116156101000203166002900480601f016020809104026020016040519081016040528092919081815260200182805460018160011615610100020316600290048015610a265780601f106109fb57610100808354040283529160200191610a26565b820191906000526020600020905b815481529060010190602001808311610a0957829003601f168201915b505050505081565b6000600460009054906101000a900460ff16905090565b600160009054906101000a900473ffffffffffffffffffffffffffffffffffffffff1681565b6000600160009054906101000a900473ffffffffffffffffffffffffffffffffffffffff1673ffffffffffffffffffffffffffffffffffffffff163373ffffffffffffffffffffffffffffffffffffffff16141515610ac957600080fd5b6000809054906101000a900473ffffffffffffffffffffffffffffffffffffffff1673ffffffffffffffffffffffffffffffffffffffff1663f36675176040518163ffffffff167c0100000000000000000000000000000000000000000000000000000000028152600401602060405180830381600087803b158015610b4e57600080fd5b505af1158015610b62573d6000803e3d6000fd5b505050506040513d6020811015610b7857600080fd5b810190808051906020019092919050505090508073ffffffffffffffffffffffffffffffffffffffff166367526c4d836040518263ffffffff167c010000000000000000000000000000000000000000000000000000000002815260040180828152602001915050602060405180830381600087803b158015610bfa57600080fd5b505af1158015610c0e573d6000803e3d6000fd5b505050506040513d6020811015610c2457600080fd5b8101908080519060200190929190505050505050565b6000600160009054906101000a900473ffffffffffffffffffffffffffffffffffffffff1673ffffffffffffffffffffffffffffffffffffffff163373ffffffffffffffffffffffffffffffffffffffff16141515610c9857600080fd5b6000809054906101000a900473ffffffffffffffffffffffffffffffffffffffff1673ffffffffffffffffffffffffffffffffffffffff1663f36675176040518163ffffffff167c0100000000000000000000000000000000000000000000000000000000028152600401602060405180830381600087803b158015610d1d57600080fd5b505af1158015610d31573d6000803e3d6000fd5b505050506040513d6020811015610d4757600080fd5b810190808051906020019092919050505090508073ffffffffffffffffffffffffffffffffffffffff1663ec792932836040518263ffffffff167c010000000000000000000000000000000000000000000000000000000002815260040180828152602001915050602060405180830381600087803b158015610dc957600080fd5b505af1158015610ddd573d6000803e3d6000fd5b505050506040513d6020811015610df357600080fd5b8101908080519060200190929190505050505050565b60035481565b600080600160009054906101000a900473ffffffffffffffffffffffffffffffffffffffff1673ffffffffffffffffffffffffffffffffffffffff163373ffffffffffffffffffffffffffffffffffffffff16141515610e6e57600080fd5b6000809054906101000a900473ffffffffffffffffffffffffffffffffffffffff1673ffffffffffffffffffffffffffffffffffffffff16633c093d5a6040518163ffffffff167c0100000000000000000000000000000000000000000000000000000000028152600401602060405180830381600087803b158015610ef357600080fd5b505af1158015610f07573d6000803e3d6000fd5b505050506040513d6020811015610f1d57600080fd5b810190808051906020019092919050505090508073ffffffffffffffffffffffffffffffffffffffff1663d0b0731c6040518163ffffffff167c0100000000000000000000000000000000000000000000000000000000028152600401602060405180830381600087803b158015610f9457600080fd5b505af1158015610fa8573d6000803e3d6000fd5b505050506040513d6020811015610fbe57600080fd5b810190808051906020019092919050505091505090565b6000600160009054906101000a900473ffffffffffffffffffffffffffffffffffffffff1673ffffffffffffffffffffffffffffffffffffffff163373ffffffffffffffffffffffffffffffffffffffff1614151561103357600080fd5b6000809054906101000a900473ffffffffffffffffffffffffffffffffffffffff1673ffffffffffffffffffffffffffffffffffffffff1663f36675176040518163ffffffff167c0100000000000000000000000000000000000000000000000000000000028152600401602060405180830381600087803b1580156110b857600080fd5b505af11580156110cc573d6000803e3d6000fd5b505050506040513d60208110156110e257600080fd5b810190808051906020019092919050505090508073ffffffffffffffffffffffffffffffffffffffff1663fbfa1c676040518163ffffffff167c0100000000000000000000000000000000000000000000000000000000028152600401602060405180830381600087803b15801561115957600080fd5b505af115801561116d573d6000803e3d6000fd5b505050506040513d602081101561118357600080fd5b810190808051906020019092919050505050505600a165627a7a723058200b5636c961b7033af12769ec091f179100ea334ca7add54a35cb4e5efc5396240029a165627a7a723058209b4114ffbbd16325bf008385af6a064845c560109077d804a3439604e20bf244002960806040526000600160146101000a81548160ff0219169083151502179055506000600160156101000a81548160ff0219169083151502179055506000600160166101000a81548160ff02191690831515021790555034801561006157600080fd5b50611ad2806100716000396000f3006080604052600436106100a4576000357c0100000000000000000000000000000000000000000000000000000000900463ffffffff16806314d03713146100a95780632946014c1461010c578063347001261461016f57806335ac4ccf146101d257806341c0e1b5146102155780634cad552b1461022c57806367526c4d14610271578063ec792932146102b6578063fbfa1c67146102fb578063fe8ef25e1461031d575b600080fd5b3480156100b557600080fd5b5061010a600480360381019080803573ffffffffffffffffffffffffffffffffffffffff169060200190929190803573ffffffffffffffffffffffffffffffffffffffff16906020019092919050505061041d565b005b34801561011857600080fd5b5061016d600480360381019080803573ffffffffffffffffffffffffffffffffffffffff169060200190929190803573ffffffffffffffffffffffffffffffffffffffff169060200190929190505050610648565b005b34801561017b57600080fd5b506101d0600480360381019080803573ffffffffffffffffffffffffffffffffffffffff169060200190929190803573ffffffffffffffffffffffffffffffffffffffff169060200190929190505050610873565b005b3480156101de57600080fd5b50610213600480360381019080803573ffffffffffffffffffffffffffffffffffffffff169060200190929190505050610a9e565b005b34801561022157600080fd5b5061022a610ca6565b005b34801561023857600080fd5b5061025760048036038101908080359060200190929190505050610ec1565b604051808215151515815260200191505060405180910390f35b34801561027d57600080fd5b5061029c6004803603810190808035906020019092919050505061112a565b604051808215151515815260200191505060405180910390f35b3480156102c257600080fd5b506102e16004803603810190808035906020019092919050505061133c565b604051808215151515815260200191505060405180910390f35b61030361154e565b604051808215151515815260200191505060405180910390f35b610403600480360381019080803590602001908201803590602001908080601f0160208091040260200160405190810160405280939291908181526020018383808284378201915050505050509192919290803590602001908201803590602001908080601f0160208091040260200160405190810160405280939291908181526020018383808284378201915050505050509192919290803590602001908201803590602001908080601f0160208091040260200160405190810160405280939291908181526020018383808284378201915050505050509192919290505050611777565b604051808215151515815260200191505060405180910390f35b60008060009054906101000a900473ffffffffffffffffffffffffffffffffffffffff1673ffffffffffffffffffffffffffffffffffffffff16634209fff1336040518263ffffffff167c0100000000000000000000000000000000000000000000000000000000028152600401808273ffffffffffffffffffffffffffffffffffffffff1673ffffffffffffffffffffffffffffffffffffffff168152602001915050602060405180830381600087803b1580156104db57600080fd5b505af11580156104ef573d6000803e3d6000fd5b505050506040513d602081101561050557600080fd5b8101908080519060200190929190505050905080151561052457600080fd5b6000809054906101000a900473ffffffffffffffffffffffffffffffffffffffff1673ffffffffffffffffffffffffffffffffffffffff16635b48d7fb600285856040518463ffffffff167c0100000000000000000000000000000000000000000000000000000000028152600401808460028111156105a057fe5b60ff1681526020018373ffffffffffffffffffffffffffffffffffffffff1673ffffffffffffffffffffffffffffffffffffffff1681526020018273ffffffffffffffffffffffffffffffffffffffff1673ffffffffffffffffffffffffffffffffffffffff1681526020019350505050600060405180830381600087803b15801561062b57600080fd5b505af115801561063f573d6000803e3d6000fd5b50505050505050565b60008060009054906101000a900473ffffffffffffffffffffffffffffffffffffffff1673ffffffffffffffffffffffffffffffffffffffff16634209fff1336040518263ffffffff167c0100000000000000000000000000000000000000000000000000000000028152600401808273ffffffffffffffffffffffffffffffffffffffff1673ffffffffffffffffffffffffffffffffffffffff168152602001915050602060405180830381600087803b15801561070657600080fd5b505af115801561071a573d6000803e3d6000fd5b505050506040513d602081101561073057600080fd5b8101908080519060200190929190505050905080151561074f57600080fd5b6000809054906101000a900473ffffffffffffffffffffffffffffffffffffffff1673ffffffffffffffffffffffffffffffffffffffff16635b48d7fb600185856040518463ffffffff167c0100000000000000000000000000000000000000000000000000000000028152600401808460028111156107cb57fe5b60ff1681526020018373ffffffffffffffffffffffffffffffffffffffff1673ffffffffffffffffffffffffffffffffffffffff1681526020018273ffffffffffffffffffffffffffffffffffffffff1673ffffffffffffffffffffffffffffffffffffffff1681526020019350505050600060405180830381600087803b15801561085657600080fd5b505af115801561086a573d6000803e3d6000fd5b50505050505050565b60008060009054906101000a900473ffffffffffffffffffffffffffffffffffffffff1673ffffffffffffffffffffffffffffffffffffffff16634209fff1336040518263ffffffff167c0100000000000000000000000000000000000000000000000000000000028152600401808273ffffffffffffffffffffffffffffffffffffffff1673ffffffffffffffffffffffffffffffffffffffff168152602001915050602060405180830381600087803b15801561093157600080fd5b505af1158015610945573d6000803e3d6000fd5b505050506040513d602081101561095b57600080fd5b8101908080519060200190929190505050905080151561097a57600080fd5b6000809054906101000a900473ffffffffffffffffffffffffffffffffffffffff1673ffffffffffffffffffffffffffffffffffffffff16635b48d7fb600085856040518463ffffffff167c0100000000000000000000000000000000000000000000000000000000028152600401808460028111156109f657fe5b60ff1681526020018373ffffffffffffffffffffffffffffffffffffffff1673ffffffffffffffffffffffffffffffffffffffff1681526020018273ffffffffffffffffffffffffffffffffffffffff1673ffffffffffffffffffffffffffffffffffffffff1681526020019350505050600060405180830381600087803b158015610a8157600080fd5b505af1158015610a95573d6000803e3d6000fd5b50505050505050565b600160169054906101000a900460ff16151515610b49576040517f08c379a00000000000000000000000000000000000000000000000000000000081526004018080602001828103825260258152602001807f5468697320636f6e74726163742068617320616c7265616479206265656e207381526020017f657420757000000000000000000000000000000000000000000000000000000081525060400191505060405180910390fd5b806000806101000a81548173ffffffffffffffffffffffffffffffffffffffff021916908373ffffffffffffffffffffffffffffffffffffffff1602179055506000809054906101000a900473ffffffffffffffffffffffffffffffffffffffff1673ffffffffffffffffffffffffffffffffffffffff16638da5cb5b6040518163ffffffff167c0100000000000000000000000000000000000000000000000000000000028152600401602060405180830381600087803b158015610c0e57600080fd5b505af1158015610c22573d6000803e3d6000fd5b505050506040513d6020811015610c3857600080fd5b8101908080519060200190929190505050600160006101000a81548173ffffffffffffffffffffffffffffffffffffffff021916908373ffffffffffffffffffffffffffffffffffffffff16021790555060018060166101000a81548160ff02191690831515021790555050565b600160009054906101000a900473ffffffffffffffffffffffffffffffffffffffff1673ffffffffffffffffffffffffffffffffffffffff163373ffffffffffffffffffffffffffffffffffffffff161480610dec57506000809054906101000a900473ffffffffffffffffffffffffffffffffffffffff1673ffffffffffffffffffffffffffffffffffffffff1663ed9aab516040518163ffffffff167c0100000000000000000000000000000000000000000000000000000000028152600401602060405180830381600087803b158015610d8257600080fd5b505af1158015610d96573d6000803e3d6000fd5b505050506040513d6020811015610dac57600080fd5b810190808051906020019092919050505073ffffffffffffffffffffffffffffffffffffffff163373ffffffffffffffffffffffffffffffffffffffff16145b1515610e86576040517f08c379a00000000000000000000000000000000000000000000000000000000081526004018080602001828103825260398152602001807f46756e6374696f6e2063616e206f6e6c792062652063616c6c6564206279207481526020017f6865206f776e6572206f72207468652072656769737465722e0000000000000081525060400191505060405180910390fd5b600160009054906101000a900473ffffffffffffffffffffffffffffffffffffffff1673ffffffffffffffffffffffffffffffffffffffff16ff5b6000806000806000809054906101000a900473ffffffffffffffffffffffffffffffffffffffff1673ffffffffffffffffffffffffffffffffffffffff16634209fff1336040518263ffffffff167c0100000000000000000000000000000000000000000000000000000000028152600401808273ffffffffffffffffffffffffffffffffffffffff1673ffffffffffffffffffffffffffffffffffffffff168152602001915050602060405180830381600087803b158015610f8357600080fd5b505af1158015610f97573d6000803e3d6000fd5b505050506040513d6020811015610fad57600080fd5b81019080805190602001909291905050509050801515610fcc57600080fd5b6509184e72a000850292506000809054906101000a900473ffffffffffffffffffffffffffffffffffffffff1673ffffffffffffffffffffffffffffffffffffffff1663bf57df0933876040518363ffffffff167c0100000000000000000000000000000000000000000000000000000000028152600401808373ffffffffffffffffffffffffffffffffffffffff1673ffffffffffffffffffffffffffffffffffffffff16815260200182815260200192505050602060405180830381600087803b15801561109b57600080fd5b505af11580156110af573d6000803e3d6000fd5b505050506040513d60208110156110c557600080fd5b810190808051906020019092919050505091503373ffffffffffffffffffffffffffffffffffffffff166108fc869081150290604051600060405180830381858888f1935050505015801561111e573d6000803e3d6000fd5b50819350505050919050565b6000806000809054906101000a900473ffffffffffffffffffffffffffffffffffffffff1673ffffffffffffffffffffffffffffffffffffffff16634209fff1336040518263ffffffff167c0100000000000000000000000000000000000000000000000000000000028152600401808273ffffffffffffffffffffffffffffffffffffffff1673ffffffffffffffffffffffffffffffffffffffff168152602001915050602060405180830381600087803b1580156111e957600080fd5b505af11580156111fd573d6000803e3d6000fd5b505050506040513d602081101561121357600080fd5b8101908080519060200190929190505050905080151561123257600080fd5b6000809054906101000a900473ffffffffffffffffffffffffffffffffffffffff1673ffffffffffffffffffffffffffffffffffffffff16631ddf835833856040518363ffffffff167c0100000000000000000000000000000000000000000000000000000000028152600401808373ffffffffffffffffffffffffffffffffffffffff1673ffffffffffffffffffffffffffffffffffffffff16815260200182815260200192505050602060405180830381600087803b1580156112f657600080fd5b505af115801561130a573d6000803e3d6000fd5b505050506040513d602081101561132057600080fd5b8101908080519060200190929190505050506001915050919050565b6000806000809054906101000a900473ffffffffffffffffffffffffffffffffffffffff1673ffffffffffffffffffffffffffffffffffffffff16634209fff1336040518263ffffffff167c0100000000000000000000000000000000000000000000000000000000028152600401808273ffffffffffffffffffffffffffffffffffffffff1673ffffffffffffffffffffffffffffffffffffffff168152602001915050602060405180830381600087803b1580156113fb57600080fd5b505af115801561140f573d6000803e3d6000fd5b505050506040513d602081101561142557600080fd5b8101908080519060200190929190505050905080151561144457600080fd5b6000809054906101000a900473ffffffffffffffffffffffffffffffffffffffff1673ffffffffffffffffffffffffffffffffffffffff16636db08bd733856040518363ffffffff167c0100000000000000000000000000000000000000000000000000000000028152600401808373ffffffffffffffffffffffffffffffffffffffff1673ffffffffffffffffffffffffffffffffffffffff16815260200182815260200192505050602060405180830381600087803b15801561150857600080fd5b505af115801561151c573d6000803e3d6000fd5b505050506040513d602081101561153257600080fd5b8101908080519060200190929190505050506001915050919050565b6000806000806000809054906101000a900473ffffffffffffffffffffffffffffffffffffffff1673ffffffffffffffffffffffffffffffffffffffff16634209fff1336040518263ffffffff167c0100000000000000000000000000000000000000000000000000000000028152600401808273ffffffffffffffffffffffffffffffffffffffff1673ffffffffffffffffffffffffffffffffffffffff168152602001915050602060405180830381600087803b15801561161057600080fd5b505af1158015611624573d6000803e3d6000fd5b505050506040513d602081101561163a57600080fd5b8101908080519060200190929190505050905080151561165957600080fd5b6509184e72a0003481151561166a57fe5b0492506000809054906101000a900473ffffffffffffffffffffffffffffffffffffffff1673ffffffffffffffffffffffffffffffffffffffff16634604920f33856040518363ffffffff167c0100000000000000000000000000000000000000000000000000000000028152600401808373ffffffffffffffffffffffffffffffffffffffff1673ffffffffffffffffffffffffffffffffffffffff16815260200182815260200192505050602060405180830381600087803b15801561173157600080fd5b505af1158015611745573d6000803e3d6000fd5b505050506040513d602081101561175b57600080fd5b8101908080519060200190929190505050915081935050505090565b6000806000809054906101000a900473ffffffffffffffffffffffffffffffffffffffff1673ffffffffffffffffffffffffffffffffffffffff1663efd46065336040518263ffffffff167c0100000000000000000000000000000000000000000000000000000000028152600401808273ffffffffffffffffffffffffffffffffffffffff1673ffffffffffffffffffffffffffffffffffffffff168152602001915050602060405180830381600087803b15801561183657600080fd5b505af115801561184a573d6000803e3d6000fd5b505050506040513d602081101561186057600080fd5b8101908080519060200190929190505050905080151561187f57600080fd5b6000809054906101000a900473ffffffffffffffffffffffffffffffffffffffff1673ffffffffffffffffffffffffffffffffffffffff16636e6ac45a338787876040518563ffffffff167c0100000000000000000000000000000000000000000000000000000000028152600401808573ffffffffffffffffffffffffffffffffffffffff1673ffffffffffffffffffffffffffffffffffffffff168152602001806020018060200180602001848103845287818151815260200191508051906020019080838360005b8381101561196557808201518184015260208101905061194a565b50505050905090810190601f1680156119925780820380516001836020036101000a031916815260200191505b50848103835286818151815260200191508051906020019080838360005b838110156119cb5780820151818401526020810190506119b0565b50505050905090810190601f1680156119f85780820380516001836020036101000a031916815260200191505b50848103825285818151815260200191508051906020019080838360005b83811015611a31578082015181840152602081019050611a16565b50505050905090810190601f168015611a5e5780820380516001836020036101000a031916815260200191505b50975050505050505050600060405180830381600087803b158015611a8257600080fd5b505af1158015611a96573d6000803e3d6000fd5b50505050600191505093925050505600a165627a7a723058203a3b50c18371776d54039c1902c714f729e4e8ef5a160e839b2ff75d5616ce51002960806040526000600a60146101000a81548160ff0219169083151502179055506001600a60156101000a81548160ff0219169083151502179055506000600a60166101000a81548160ff02191690831515021790555034801561006157600080fd5b50611ad2806100716000396000f3006080604052600436106100a4576000357c0100000000000000000000000000000000000000000000000000000000900463ffffffff16806321815e36146100a95780632c4d4d18146101045780633c093d5a1461015f57806343d3f4b0146101b657806359ebee861461027957806363a599a4146102d45780638456cb5914610303578063cbf0b0c014610332578063e1d5515514610375578063f3667517146103cc575b600080fd5b3480156100b557600080fd5b506100ea600480360381019080803573ffffffffffffffffffffffffffffffffffffffff169060200190929190505050610423565b604051808215151515815260200191505060405180910390f35b34801561011057600080fd5b50610145600480360381019080803573ffffffffffffffffffffffffffffffffffffffff1690602001909291905050506109c1565b604051808215151515815260200191505060405180910390f35b34801561016b57600080fd5b50610174610f3d565b604051808273ffffffffffffffffffffffffffffffffffffffff1673ffffffffffffffffffffffffffffffffffffffff16815260200191505060405180910390f35b3480156101c257600080fd5b50610277600480360381019080803573ffffffffffffffffffffffffffffffffffffffff169060200190929190803573ffffffffffffffffffffffffffffffffffffffff169060200190929190803573ffffffffffffffffffffffffffffffffffffffff169060200190929190803573ffffffffffffffffffffffffffffffffffffffff169060200190929190803573ffffffffffffffffffffffffffffffffffffffff169060200190929190505050610f67565b005b34801561028557600080fd5b506102ba600480360381019080803573ffffffffffffffffffffffffffffffffffffffff16906020019092919050505061123b565b604051808215151515815260200191505060405180910390f35b3480156102e057600080fd5b506102e96117d9565b604051808215151515815260200191505060405180910390f35b34801561030f57600080fd5b506103186117ec565b604051808215151515815260200191505060405180910390f35b34801561033e57600080fd5b50610373600480360381019080803573ffffffffffffffffffffffffffffffffffffffff1690602001909291905050506117ff565b005b34801561038157600080fd5b5061038a611a52565b604051808273ffffffffffffffffffffffffffffffffffffffff1673ffffffffffffffffffffffffffffffffffffffff16815260200191505060405180910390f35b3480156103d857600080fd5b506103e1611a7c565b604051808273ffffffffffffffffffffffffffffffffffffffff1673ffffffffffffffffffffffffffffffffffffffff16815260200191505060405180910390f35b6000600a60009054906101000a900473ffffffffffffffffffffffffffffffffffffffff1673ffffffffffffffffffffffffffffffffffffffff163373ffffffffffffffffffffffffffffffffffffffff1614151561048157600080fd5b600a60149054906101000a900460ff1615151561049d57600080fd5b600a60159054906101000a900460ff161515156104b957600080fd5b6000809054906101000a900473ffffffffffffffffffffffffffffffffffffffff1673ffffffffffffffffffffffffffffffffffffffff16638456cb596040518163ffffffff167c0100000000000000000000000000000000000000000000000000000000028152600401602060405180830381600087803b15801561053e57600080fd5b505af1158015610552573d6000803e3d6000fd5b505050506040513d602081101561056857600080fd5b810190808051906020019092919050505015151561058557600080fd5b600460009054906101000a900473ffffffffffffffffffffffffffffffffffffffff1673ffffffffffffffffffffffffffffffffffffffff168273ffffffffffffffffffffffffffffffffffffffff161415156109b7577f551060e17116e4c03a5cb1beee4a599abe03db9e44126cc5b3e6215d7afde08182600460009054906101000a900473ffffffffffffffffffffffffffffffffffffffff16604051808373ffffffffffffffffffffffffffffffffffffffff1673ffffffffffffffffffffffffffffffffffffffff1681526020018273ffffffffffffffffffffffffffffffffffffffff1673ffffffffffffffffffffffffffffffffffffffff1681526020019250505060405180910390a16005600460009054906101000a900473ffffffffffffffffffffffffffffffffffffffff1690806001815401808255809150509060018203906000526020600020016000909192909190916101000a81548173ffffffffffffffffffffffffffffffffffffffff021916908373ffffffffffffffffffffffffffffffffffffffff16021790555050600160009054906101000a900473ffffffffffffffffffffffffffffffffffffffff1673ffffffffffffffffffffffffffffffffffffffff1663cbf0b0c0600860009054906101000a900473ffffffffffffffffffffffffffffffffffffffff166040518263ffffffff167c0100000000000000000000000000000000000000000000000000000000028152600401808273ffffffffffffffffffffffffffffffffffffffff1673ffffffffffffffffffffffffffffffffffffffff168152602001915050600060405180830381600087803b1580156107fc57600080fd5b505af1158015610810573d6000803e3d6000fd5b5050505081600460006101000a81548173ffffffffffffffffffffffffffffffffffffffff021916908373ffffffffffffffffffffffffffffffffffffffff160217905550600460009054906101000a900473ffffffffffffffffffffffffffffffffffffffff16600160006101000a81548173ffffffffffffffffffffffffffffffffffffffff021916908373ffffffffffffffffffffffffffffffffffffffff1602179055506000809054906101000a900473ffffffffffffffffffffffffffffffffffffffff1673ffffffffffffffffffffffffffffffffffffffff1663c3853537600460009054906101000a900473ffffffffffffffffffffffffffffffffffffffff166040518263ffffffff167c0100000000000000000000000000000000000000000000000000000000028152600401808273ffffffffffffffffffffffffffffffffffffffff1673ffffffffffffffffffffffffffffffffffffffff168152602001915050600060405180830381600087803b15801561099657600080fd5b505af11580156109aa573d6000803e3d6000fd5b50505050600190506109bc565b600090505b919050565b6000600a60009054906101000a900473ffffffffffffffffffffffffffffffffffffffff1673ffffffffffffffffffffffffffffffffffffffff163373ffffffffffffffffffffffffffffffffffffffff16141515610a1f57600080fd5b600a60149054906101000a900460ff16151515610a3b57600080fd5b600a60159054906101000a900460ff16151515610a5757600080fd5b6000809054906101000a900473ffffffffffffffffffffffffffffffffffffffff1673ffffffffffffffffffffffffffffffffffffffff16638456cb596040518163ffffffff167c0100000000000000000000000000000000000000000000000000000000028152600401602060405180830381600087803b158015610adc57600080fd5b505af1158015610af0573d6000803e3d6000fd5b505050506040513d6020811015610b0657600080fd5b8101908080519060200190929190505050151515610b2357600080fd5b600860009054906101000a900473ffffffffffffffffffffffffffffffffffffffff1673ffffffffffffffffffffffffffffffffffffffff168273ffffffffffffffffffffffffffffffffffffffff16141515610f33577f551060e17116e4c03a5cb1beee4a599abe03db9e44126cc5b3e6215d7afde08182600860009054906101000a900473ffffffffffffffffffffffffffffffffffffffff16604051808373ffffffffffffffffffffffffffffffffffffffff1673ffffffffffffffffffffffffffffffffffffffff1681526020018273ffffffffffffffffffffffffffffffffffffffff1673ffffffffffffffffffffffffffffffffffffffff1681526020019250505060405180910390a16009600860009054906101000a900473ffffffffffffffffffffffffffffffffffffffff1690806001815401808255809150509060018203906000526020600020016000909192909190916101000a81548173ffffffffffffffffffffffffffffffffffffffff021916908373ffffffffffffffffffffffffffffffffffffffff16021790555050600260009054906101000a900473ffffffffffffffffffffffffffffffffffffffff1673ffffffffffffffffffffffffffffffffffffffff1663cbf0b0c0836040518263ffffffff167c0100000000000000000000000000000000000000000000000000000000028152600401808273ffffffffffffffffffffffffffffffffffffffff1673ffffffffffffffffffffffffffffffffffffffff168152602001915050600060405180830381600087803b158015610d7857600080fd5b505af1158015610d8c573d6000803e3d6000fd5b5050505081600860006101000a81548173ffffffffffffffffffffffffffffffffffffffff021916908373ffffffffffffffffffffffffffffffffffffffff160217905550600860009054906101000a900473ffffffffffffffffffffffffffffffffffffffff16600360006101000a81548173ffffffffffffffffffffffffffffffffffffffff021916908373ffffffffffffffffffffffffffffffffffffffff1602179055506000809054906101000a900473ffffffffffffffffffffffffffffffffffffffff1673ffffffffffffffffffffffffffffffffffffffff1663ee38ae56600860009054906101000a900473ffffffffffffffffffffffffffffffffffffffff166040518263ffffffff167c0100000000000000000000000000000000000000000000000000000000028152600401808273ffffffffffffffffffffffffffffffffffffffff1673ffffffffffffffffffffffffffffffffffffffff168152602001915050600060405180830381600087803b158015610f1257600080fd5b505af1158015610f26573d6000803e3d6000fd5b5050505060019050610f38565b600090505b919050565b6000600660009054906101000a900473ffffffffffffffffffffffffffffffffffffffff16905090565b600a60169054906101000a900460ff16151515611012576040517f08c379a00000000000000000000000000000000000000000000000000000000081526004018080602001828103825260258152602001807f5468697320636f6e74726163742068617320616c7265616479206265656e207381526020017f657420757000000000000000000000000000000000000000000000000000000081525060400191505060405180910390fd5b8173ffffffffffffffffffffffffffffffffffffffff16600a60009054906101000a90505050806000806101000a81548173ffffffffffffffffffffffffffffffffffffffff021916908373ffffffffffffffffffffffffffffffffffffffff16021790555084600460006101000a81548173ffffffffffffffffffffffffffffffffffffffff021916908373ffffffffffffffffffffffffffffffffffffffff16021790555084600160006101000a81548173ffffffffffffffffffffffffffffffffffffffff021916908373ffffffffffffffffffffffffffffffffffffffff16021790555083600660006101000a81548173ffffffffffffffffffffffffffffffffffffffff021916908373ffffffffffffffffffffffffffffffffffffffff16021790555083600260006101000a81548173ffffffffffffffffffffffffffffffffffffffff021916908373ffffffffffffffffffffffffffffffffffffffff16021790555082600860006101000a81548173ffffffffffffffffffffffffffffffffffffffff021916908373ffffffffffffffffffffffffffffffffffffffff16021790555082600360006101000a81548173ffffffffffffffffffffffffffffffffffffffff021916908373ffffffffffffffffffffffffffffffffffffffff1602179055506000600a60156101000a81548160ff0219169083151502179055506001600a60166101000a81548160ff0219169083151502179055505050505050565b6000600a60009054906101000a900473ffffffffffffffffffffffffffffffffffffffff1673ffffffffffffffffffffffffffffffffffffffff163373ffffffffffffffffffffffffffffffffffffffff1614151561129957600080fd5b600a60149054906101000a900460ff161515156112b557600080fd5b600a60159054906101000a900460ff161515156112d157600080fd5b6000809054906101000a900473ffffffffffffffffffffffffffffffffffffffff1673ffffffffffffffffffffffffffffffffffffffff16638456cb596040518163ffffffff167c0100000000000000000000000000000000000000000000000000000000028152600401602060405180830381600087803b15801561135657600080fd5b505af115801561136a573d6000803e3d6000fd5b505050506040513d602081101561138057600080fd5b810190808051906020019092919050505015151561139d57600080fd5b600660009054906101000a900473ffffffffffffffffffffffffffffffffffffffff1673ffffffffffffffffffffffffffffffffffffffff168273ffffffffffffffffffffffffffffffffffffffff161415156117cf577f551060e17116e4c03a5cb1beee4a599abe03db9e44126cc5b3e6215d7afde08182600660009054906101000a900473ffffffffffffffffffffffffffffffffffffffff16604051808373ffffffffffffffffffffffffffffffffffffffff1673ffffffffffffffffffffffffffffffffffffffff1681526020018273ffffffffffffffffffffffffffffffffffffffff1673ffffffffffffffffffffffffffffffffffffffff1681526020019250505060405180910390a16007600460009054906101000a900473ffffffffffffffffffffffffffffffffffffffff1690806001815401808255809150509060018203906000526020600020016000909192909190916101000a81548173ffffffffffffffffffffffffffffffffffffffff021916908373ffffffffffffffffffffffffffffffffffffffff16021790555050600260009054906101000a900473ffffffffffffffffffffffffffffffffffffffff1673ffffffffffffffffffffffffffffffffffffffff1663cbf0b0c0600860009054906101000a900473ffffffffffffffffffffffffffffffffffffffff166040518263ffffffff167c0100000000000000000000000000000000000000000000000000000000028152600401808273ffffffffffffffffffffffffffffffffffffffff1673ffffffffffffffffffffffffffffffffffffffff168152602001915050600060405180830381600087803b15801561161457600080fd5b505af1158015611628573d6000803e3d6000fd5b5050505081600660006101000a81548173ffffffffffffffffffffffffffffffffffffffff021916908373ffffffffffffffffffffffffffffffffffffffff160217905550600660009054906101000a900473ffffffffffffffffffffffffffffffffffffffff16600260006101000a81548173ffffffffffffffffffffffffffffffffffffffff021916908373ffffffffffffffffffffffffffffffffffffffff1602179055506000809054906101000a900473ffffffffffffffffffffffffffffffffffffffff1673ffffffffffffffffffffffffffffffffffffffff1663e393c5aa600660009054906101000a900473ffffffffffffffffffffffffffffffffffffffff166040518263ffffffff167c0100000000000000000000000000000000000000000000000000000000028152600401808273ffffffffffffffffffffffffffffffffffffffff1673ffffffffffffffffffffffffffffffffffffffff168152602001915050600060405180830381600087803b1580156117ae57600080fd5b505af11580156117c2573d6000803e3d6000fd5b50505050600190506117d4565b600090505b919050565b600a60149054906101000a900460ff1681565b600a60159054906101000a900460ff1681565b600a60009054906101000a900473ffffffffffffffffffffffffffffffffffffffff1673ffffffffffffffffffffffffffffffffffffffff163373ffffffffffffffffffffffffffffffffffffffff1614151561185b57600080fd5b600a60159054906101000a900460ff1615151561187757600080fd5b6000809054906101000a900473ffffffffffffffffffffffffffffffffffffffff1673ffffffffffffffffffffffffffffffffffffffff16638456cb596040518163ffffffff167c0100000000000000000000000000000000000000000000000000000000028152600401602060405180830381600087803b1580156118fc57600080fd5b505af1158015611910573d6000803e3d6000fd5b505050506040513d602081101561192657600080fd5b810190808051906020019092919050505015151561194357600080fd5b6000809054906101000a900473ffffffffffffffffffffffffffffffffffffffff1673ffffffffffffffffffffffffffffffffffffffff166376fc2b6e826040518263ffffffff167c0100000000000000000000000000000000000000000000000000000000028152600401808273ffffffffffffffffffffffffffffffffffffffff1673ffffffffffffffffffffffffffffffffffffffff168152602001915050600060405180830381600087803b1580156119ff57600080fd5b505af1158015611a13573d6000803e3d6000fd5b50505050600a60009054906101000a900473ffffffffffffffffffffffffffffffffffffffff1673ffffffffffffffffffffffffffffffffffffffff16ff5b6000600460009054906101000a900473ffffffffffffffffffffffffffffffffffffffff16905090565b6000600860009054906101000a900473ffffffffffffffffffffffffffffffffffffffff169050905600a165627a7a72305820c677822bd3ce2340bd28240730aab9e43be2ab7bffe025cf75b3bc1dbaa969b50029",
  "source": "pragma solidity 0.4.24;\r\npragma experimental ABIEncoderV2;\r\n\r\nimport \"./UserFactory.sol\";\r\nimport \"./3ContentCreatorFactory.sol\";\r\nimport \"./LoveMachine.sol\";\r\nimport \"./2Register.sol\";\r\n\r\ncontract DataStorage {\r\n    address public owner;\r\n\r\n    UserFactory uf;\r\n    ContentCreatorFactory ccf;\r\n    LoveMachine m;\r\n    Register registry;\r\n\r\n    address public userFactoryAddress;\r\n    address public ccFactoryAddress;\r\n    address public minterAddress;\r\n    address public registryAddress;\r\n    \r\n    mapping (address => uint) public allUsers; //userContract to views\r\n    mapping (address => uint) public UsersTotalViewPurchases;//userContract to total views bought\r\n    mapping (address => uint) public allCreators;//creatorContract to views\r\n    mapping (address => string) public allUserNames;//user contract address to userName\r\n    mapping (address => address) public userContractOwners;//userContract add to user add ress\r\n    mapping (address => address) public creatorsContractOwners;//userContract to creatorContract\r\n    address[] public usersAddresses;//contract addresses\r\n    address[] public creatorsAddresses;//creators contract addresses\r\n    string[] public usersNames;//userNames\r\n    uint public moderatorViews;\r\n    struct Content {\r\n        address creator;\r\n        string contentLocationIPFS;\r\n        string title;\r\n        string description;\r\n        uint views;\r\n    }\r\n    Content[] public allContent;\r\n    mapping (address => Content[]) public creatorContent;//ccc to array of content\r\n    uint private totalViewCreated;\r\n    \r\n    enum ViewsUsed {LIKED, LOVED, FANLOVED}\r\n    ViewsUsed liked = ViewsUsed.LIKED;\r\n    ViewsUsed loved = ViewsUsed.LOVED;\r\n    ViewsUsed fanLoved = ViewsUsed.FANLOVED;\r\n    \r\n    bool public emergencyStop = false;\r\n    bool public pause = true;\r\n    \r\n    event LogEmergency(bool _emergency);\r\n    event LogPause(bool _pause);\r\n    event LogSetUp(address _userFactoryAddress, address _creatorFactoryAddress, address _minterAddress);\r\n    event LogBoughtViewsUser(address _account, uint _amount);\r\n    event LogModeriatorFund(address _account, uint _amount);\r\n    event LogUserCreated(address _owner, address _userContract, string _userName);\r\n    event LogUserDeleted(address _owner, address _userContract, string _userName);\r\n    event LogCreatorCreated(address _userCOwner, address _creatorContract);\r\n    event LogCreatorDeleted(address _userContract, address _creatorContract);\r\n    event LogContentCreated(uint indexed _position, string indexed _title, address indexed _creator);\r\n    \r\n    //Ensures the user can still withdraw during an emergency.\r\n    modifier onlyInEmergency {\r\n        require(emergencyStop);\r\n        _;\r\n    }\r\n    \r\n    //Ensures no sensitive transations happen in an emergency.\r\n    modifier stopInEmergency {\r\n        require(!emergencyStop);\r\n        _;\r\n    }\r\n    \r\n    //Ensures no state changes can happen untill the \r\n    //contract has finished being set up.\r\n    modifier pauseFunction {\r\n        require(!pause);\r\n        _;\r\n    }\r\n    \r\n    //Ensures only the user can call the function.\r\n    modifier onlyOwner {\r\n        require(msg.sender == owner);\r\n        _;\r\n    }\r\n    \r\n    //Ensures only the owner can call the function \r\n    modifier onlyAUser(address _userAddress) {\r\n        require(allUsers[_userAddress] != 0);\r\n        _;\r\n    }\r\n    \r\n    //Ensures only the ContentCreatorFactory can call\r\n    //the function. Calls from register so that the most \r\n    //up to date contract is always used. \r\n    modifier onlyCreatorFactory {\r\n        require(msg.sender == registry.getContentCreatorFactory());\r\n        _;\r\n    }\r\n    \r\n    //Ensures only the minter may call the function\r\n    modifier onlyMinter(uint _amount) {\r\n        require(msg.sender == registry.getMinter());\r\n        require(_amount > 0);\r\n        _;\r\n    }\r\n    \r\n    //Ensures only they UserFactory can call the function.\r\n    modifier onlyUserFactory {\r\n        require(msg.sender == registry.getUserFactory());\r\n        _;\r\n    }\r\n    \r\n    //Ensures only the Register can call this function.\r\n    modifier onlyRegistry {\r\n        require(msg.sender == registryAddress);\r\n        _;\r\n    }\r\n    \r\n    //Ensures the user is not making another state change. \r\n    modifier lockCheck(address _user) {\r\n        User u = User(_user);\r\n        bool lock = u.getLock();\r\n        require(!lock);\r\n        if(this.isCreator(_user)) {\r\n            ContentCreator cc = ContentCreator(this.getCreatorAddressFromUser(_user));\r\n            bool ccLock = cc.getLock();\r\n            require(!ccLock);\r\n        }\r\n        _;\r\n    }\r\n    \r\n    //Ensures the _userName is unique. \r\n    modifier uniqueUserName(string _userName) {\r\n        for(uint i = 0; i < usersNames.length; i++){\r\n            require(\r\n                keccak256(_userName) != keccak256(usersNames[i]), \r\n                \"UserName has to be unique.\"\r\n            );\r\n        }\r\n        _;\r\n    }\r\n    \r\n    //Ensures the user has no more views before they get deleted. \r\n    modifier beforeDeleteChecksUser(address _userContract) {\r\n        require(allUsers[_userContract] == 0);\r\n        _;\r\n    }\r\n    \r\n    //Ensures the Creator has no more views before \r\n    //deleteing their account. \r\n    modifier beforeDeleteChecksCreator(address _creatorContract) {\r\n        require(allCreators[_creatorContract] == 0);\r\n        _;\r\n    }\r\n    \r\n    /**\r\n      * @dev Creates all the contracts that use this dataStorage. \r\n      * @notice The constructor and contract setup has been seporated\r\n      *     becuse the constructor dose not create an address for itself\r\n      *     untill the constructor has finished. \r\n      */\r\n    constructor()\r\n        public\r\n    {\r\n        owner = msg.sender;    \r\n        ccFactoryAddress = new ContentCreatorFactory();\r\n        userFactoryAddress = new UserFactory();\r\n        minterAddress = new LoveMachine();\r\n        registryAddress = new Register();\r\n        \r\n        ccf = ContentCreatorFactory(ccFactoryAddress);\r\n        uf = UserFactory(userFactoryAddress);\r\n        m = LoveMachine(minterAddress);\r\n        registry = Register(registryAddress);\r\n    }\r\n    \r\n    /**\r\n      * @dev This function sets up all the contracts and inputs the \r\n      *     various addresses they all need after they have all been \r\n      *     created by blank constructors. \r\n      * @notice This function sets paused to false and allows the data \r\n      *     storage to be used for state modification. \r\n      */\r\n    function setUpDataContracts()\r\n        public\r\n        onlyOwner \r\n        stopInEmergency\r\n        returns(bool)\r\n    {\r\n        ccf.constructorFunction(this);\r\n        uf.constructorFunction(this, owner, ccFactoryAddress);\r\n        m.constructorFunction(this);\r\n        registry.constructorFunction(\r\n            userFactoryAddress,\r\n            ccFactoryAddress,\r\n            minterAddress,\r\n            owner,\r\n            this\r\n        );\r\n        \r\n        setPause(false);\r\n        \r\n        LogSetUp(userFactoryAddress, ccFactoryAddress, minterAddress);\r\n        \r\n        return true;\r\n    }\r\n    \r\n    /**\r\n      * @dev Locks the user so that no other state changes\r\n      *     for that user may occur at the same time, thus preventing reentry attacks \r\n      *     and other recursion atacks. It also helps with code readability.\r\n      *     As an instance of a User is being created, we have to check the address\r\n      *     dose belong to a user. \r\n      * @notice creating instances of the users is expensive and inifiecient. Future\r\n      *     versions will allow for the users data to be entirely stored in the \r\n      *     dataStorage, meaning an instance of the user dose not need to be created \r\n      *     to check or set their lock. \r\n      * @param _user : The user who is making the state change. \r\n      */\r\n    function lockUser(address _user) \r\n        private\r\n        onlyAUser(_user)\r\n        pauseFunction\r\n    {\r\n        User u = User(_user);\r\n        u.setLock(true);\r\n        if(this.isCreator(_user)) {\r\n            ContentCreator ccc = ContentCreator(this.getCreatorAddressFromUser(_user));\r\n            ccc.setLock(true);\r\n        }\r\n    }\r\n    \r\n    /**\r\n      * @dev Unlocks the user so they may make other state changes. \r\n      * @notice creating instances of the users is expensive and inifiecient. Future\r\n      *     versions will allow for the users data to be entirely stored in the \r\n      *     dataStorage, meaning an instance of the user dose not need to be created \r\n      *     to check or set their lock. \r\n      * @param _user : The user who is being unlocked to make state changes.\r\n      */\r\n    function unlockUser(address _user)\r\n        private\r\n        onlyAUser(_user) \r\n        pauseFunction\r\n    {\r\n        User u = User(_user);\r\n        u.setLock(false);\r\n        if(this.isCreator(_user)) {\r\n            ContentCreator ccc = ContentCreator(this.getCreatorAddressFromUser(_user));\r\n            ccc.setLock(false);\r\n        }\r\n    }\r\n    \r\n    /**\r\n      * @return address : The address of the minter.\r\n      */\r\n    function getMinter()\r\n        public\r\n        view\r\n        returns(address)\r\n    {\r\n        return registry.getUserFactory();\r\n    }\r\n    \r\n    /**\r\n      * @return address[] : The addresses of all Users. \r\n      */\r\n    function getAllUserAddresses() \r\n        public \r\n        view\r\n        returns(address[])\r\n    {\r\n        return usersAddresses;\r\n    }\r\n\r\n    /**\r\n      * @return address[] : The addresses of all creators. \r\n      */\r\n    function getAllCreatorsAddresses() \r\n        public \r\n        view\r\n        returns(address[])\r\n    {\r\n        return creatorsAddresses;\r\n    }\r\n\r\n    /**\r\n      * @return string[] : All user names registered. \r\n      */\r\n    function getAllUsersNames() \r\n        public \r\n        view\r\n        returns(string[])\r\n    {\r\n        return usersNames;\r\n    }\r\n    \r\n    /**\r\n      * @param _user : The address of the user whos \r\n      *     name is wanted.  \r\n      * @return string : A users name. \r\n      */\r\n    function getAUsersName(address _user)\r\n        public\r\n        view\r\n        returns(string)    \r\n    {\r\n        return(allUserNames[_user]);\r\n    }\r\n    \r\n    /**\r\n      * @param _userAddress : The address of the user \r\n      *     that is being checked as a creator. \r\n      * @return bool : Wether they are a creator or not.      \r\n      */\r\n    function isCreator(address _userAddress)\r\n        public\r\n        view\r\n        returns(bool)\r\n    {\r\n        if(creatorsContractOwners[_userAddress] != 0) {\r\n            return true;\r\n        }\r\n        return false;\r\n    }\r\n    \r\n    /**\r\n      * @param _addressToCheck : The address to be checked. \r\n      * @return bool : Wether the address is a user. \r\n      */\r\n    function isUser(address _addressToCheck)\r\n        public\r\n        view\r\n        returns(bool)\r\n    {\r\n        if(userContractOwners[_addressToCheck] != 0) {\r\n            return true;\r\n        }\r\n        return false;\r\n    }\r\n    \r\n    /**\r\n      * @param _userAddress : The user address\r\n      * @return address : The address of the users Creator contract. \r\n      */\r\n    function getCreatorAddressFromUser(address _userAddress)\r\n        public\r\n        view\r\n        returns(address)\r\n    {\r\n        require(creatorsContractOwners[_userAddress] != 0);\r\n        return creatorsContractOwners[_userAddress];\r\n    }\r\n\r\n    /**\r\n      * @param _contractAddress : The address of the users contract. \r\n      * @return address : The address of the owner.\r\n      */\r\n    function getAUsersOwnerData(address _contractAddress)\r\n        public\r\n        view\r\n        returns(address)\r\n    {\r\n        require(userContractOwners[_contractAddress] != 0);\r\n        return(userContractOwners[_contractAddress]);\r\n    }\r\n\r\n    /**\r\n      * @param _contractAddress : The address of the useowner.\r\n      * @return string : The users UserName. \r\n      */\r\n    function getAUsersNameData(address _contractAddress)\r\n        public\r\n        view\r\n        returns(string)\r\n    {\r\n        require(allUsers[_contractAddress] != 0);\r\n        return(allUserNames[_contractAddress]);\r\n    }\r\n    \r\n    /**\r\n      * @dev This function dose not need user locks or safy checks \r\n      *     as it is mearly a counter for views dispenced and the users \r\n      *     total amount of views purchased. \r\n      * @param _user : The users address.\r\n      *     _amount : The amount of views purchased. \r\n      */\r\n    function setTotalViewsDispenced(address _user, uint _amount) \r\n        public \r\n        onlyMinter(_amount)\r\n        stopInEmergency\r\n        pauseFunction\r\n    {\r\n        UsersTotalViewPurchases[_user] += _amount;\r\n        totalViewCreated += _amount;\r\n    }\r\n    \r\n    /**\r\n      * @dev For when a content creator whishes to delete their account.\r\n      * @param _ccc : The content creator contract address.\r\n      *     _userContract : The address of the users account.\r\n      */\r\n    function moveAllFundsToUser(address _ccc, address _userContract)\r\n        public\r\n        onlyCreatorFactory\r\n        lockCheck(_userContract)\r\n    {\r\n        lockUser(_userContract);\r\n        \r\n        uint allFunds = allCreators[_ccc];\r\n        allCreators[_ccc] -= allFunds;\r\n        \r\n        allUsers[_userContract] += allFunds;\r\n        \r\n        unlockUser(_userContract);\r\n    }\r\n    \r\n    /**\r\n      * @dev Called when views are being taken out of an account \r\n      *     and  do not need to be paid to a creator.\r\n      * @param _adder : Whom ever is being 'charged' the View.\r\n      *     _amount : The amount of views being taken from the adder. \r\n      * @return bool : Compleated function. \r\n      */\r\n    function addToModeratorFund(address _adder, uint _amount)\r\n        internal \r\n        returns(bool)\r\n    {\r\n        require(_amount > 0);\r\n        moderatorViews += _amount;\r\n        \r\n        emit LogModeriatorFund(_adder, _amount);\r\n    }\r\n    \r\n    /**\r\n      * @dev Allows for the owner to set the emergency state. \r\n      * @notice This function takes in a bool instead of being two \r\n      *     functions (one that sets true and one that sets false) \r\n      *     as to simplify access. \r\n      * @param _emergencyState : The state to set emergency to. \r\n      * @return bool : Returns true once function compleate.\r\n      */\r\n    function setEmergency(bool _emergencyState)\r\n        public \r\n        onlyOwner \r\n        pauseFunction\r\n        returns(bool)\r\n    {\r\n        emit LogEmergency(_emergencyState);\r\n        \r\n        emergencyStop = _emergencyState;\r\n        return true;\r\n    }\r\n    \r\n    /**\r\n      * @dev Sets the pause function. Is not stopped during emergency \r\n      *     to allow for state mutability to be changed during an emergency. \r\n      */\r\n    function setPause(bool pauseState) \r\n        public\r\n        onlyOwner\r\n        returns(bool) \r\n    {\r\n        emit LogPause(pauseState);\r\n        \r\n        return pause = pauseState;\r\n    }\r\n    \r\n    /**\r\n      * @dev Creates a new userUser. \r\n      * @notice Only the user factory can call the creation of a new \r\n      *     user, so that the user has to be registed to the system \r\n      *     and to ensure that the user is an actual user and belongs to \r\n      *     the  UserFactory.\r\n      * @param _user : The address of the creators wallwt. \r\n      *     _userContract : The address of the users created user contract.\r\n      *     _userName : The users chosen userName. \r\n      */\r\n    function setNewUserData(address _user, address _userContract, string _userName)\r\n        public \r\n        onlyUserFactory \r\n        uniqueUserName(_userName) \r\n        stopInEmergency\r\n        pauseFunction\r\n    {\r\n        allUsers[_userContract] = 0;\r\n        allUserNames[_userContract] = _userName;\r\n        userContractOwners[_userContract] = _user;\r\n        usersAddresses.push(_userContract);\r\n        usersNames.push(_userName);\r\n        \r\n        emit LogUserCreated(_user, _userContract, _userName);\r\n    }\r\n    \r\n    /**\r\n      * @dev used to update the dataStorages instance of the ccontract.\r\n      * @param _newUserFactory : The address of the new contract. \r\n      */\r\n    function registryUpdateUserFactory(address _newUserFactory)\r\n        public\r\n        onlyRegistry\r\n        pauseFunction\r\n    {\r\n        uf = UserFactory(_newUserFactory);\r\n    }\r\n    \r\n    /**\r\n      * @dev used to update the dataStorages instance of the ccontract.\r\n      * @param _newCCFactory : The address of the new contract. \r\n      */\r\n    function registryUpdateCCFactory(address _newCCFactory)\r\n        public\r\n        onlyRegistry\r\n        pauseFunction\r\n    {\r\n        ccf = ContentCreatorFactory(_newCCFactory);\r\n    }\r\n    \r\n    /**\r\n      * @dev used to update the dataStorages instance of the ccontract.\r\n      * @param _newMinter : The address of the new contract. \r\n      */\r\n    function registryUpdateMinter(address _newMinter)\r\n        public\r\n        onlyRegistry\r\n        pauseFunction\r\n    {\r\n        m = LoveMachine(_newMinter);\r\n    }\r\n        \r\n    /**\r\n      * @dev Saves a users purchase of views after LoveMachine has been paid.\r\n      * @param _userContract : The users contract address.\r\n      *     _amount : The amount of views the user has already paid for in the \r\n      *         LoveMachine.\r\n      * @return bool After it has changed the users balance.\r\n      */\r\n    function buyViewsSave(address _userContract, uint _amount)\r\n        public\r\n        onlyMinter(_amount)\r\n        lockCheck(_userContract)\r\n        stopInEmergency\r\n        pauseFunction\r\n        returns(bool)\r\n    {\r\n        lockUser(_userContract);\r\n        \r\n        allUsers[_userContract] += _amount - 5;\r\n        setTotalViewsDispenced(_userContract, _amount - 5);\r\n        \r\n        addToModeratorFund(_userContract, 5);\r\n        \r\n        emit LogBoughtViewsUser(_userContract, _amount);\r\n        \r\n        unlockUser(_userContract);\r\n        return true;\r\n    }\r\n    \r\n    /**\r\n      * @dev Saves a users sale of views before the LoveMachine pays the user the \r\n      *     value of the views in Ether.\r\n      * @notice the assert is used as a prevention of underflow.\r\n      * @param _userContract : The users contract address.\r\n      *     _amount : The amount of views the user is selling. \r\n      * @return bool After it has changed the users balance.\r\n      */\r\n    function sellViewsSave(address _userContract, uint _amount)\r\n        public\r\n        onlyMinter(_amount)\r\n        lockCheck(_userContract)\r\n        stopInEmergency\r\n        pauseFunction\r\n        returns(bool)\r\n    {\r\n        lockUser(_userContract);\r\n        \r\n        assert(allUsers[_userContract] - _amount > 0);\r\n        \r\n        allUsers[_userContract] -= _amount;\r\n        \r\n        unlockUser(_userContract);\r\n        return true;\r\n    }\r\n    \r\n    /**\r\n      * @dev Allows a creator to send views from their user contract (where they can \r\n      *     buy and sell views) to their creator contract.\r\n      * @notice This function is nessasary as the seporation of user contracts from \r\n      *     creator contracts prevents some reentry attacks. \r\n      * @param _user : The users contracts account. \r\n      *     _amount: The amount of views they wish to transfer from their user contract \r\n      *         to their creator accouhnt. Amount is set in the LoveMachine, and \r\n      *         check here. \r\n      * @return bool After the function has compleated. \r\n      */\r\n    function fromUserToCreator(address _user, uint _amount) \r\n        public\r\n        onlyMinter(_amount)\r\n        lockCheck(_user)\r\n        stopInEmergency\r\n        pauseFunction\r\n        returns(bool)\r\n    {\r\n        lockUser(_user);\r\n        \r\n        require(isCreator(_user));\r\n        require(allUsers[_user] > _amount);\r\n        allUsers[_user] -= _amount;\r\n        allCreators[getCreatorAddressFromUser(_user)] += _amount;\r\n        \r\n        unlockUser(_user);\r\n        return true;\r\n        \r\n    }\r\n    \r\n    /**\r\n      * @dev Allows the creator to send views from their creator account to their\r\n      *     user contract account so they can sell them back for Ether, or so they \r\n      *     can view and consume contennt. \r\n      * @notice This function is nessasary for the compleate seporation of consurns \r\n      *     and to prevent various weaknesses and attack points through reeentry. \r\n      *     No views are being bought or sold and therefore there are no emits or \r\n      *     logs of any kind. \r\n      *     Function checks that the _amount is not more than the creator address has. \r\n      * @param _user : The users contract address.\r\n      *     _amount : The amount of views they wish to transfer. \r\n      */\r\n    function fromCreatorToUser(address _user, uint _amount)\r\n        public\r\n        onlyMinter(_amount)\r\n        lockCheck(_user)\r\n        stopInEmergency\r\n        pauseFunction\r\n        returns(bool)\r\n    {\r\n        lockUser(_user);\r\n        \r\n        require(isCreator(_user));\r\n        require(allCreators[getCreatorAddressFromUser(_user)] > _amount);\r\n        allCreators[getCreatorAddressFromUser(_user)] -= _amount;\r\n        allUsers[_user] += _amount;\r\n        \r\n        unlockUser(_user);\r\n        return true;\r\n    }\r\n    \r\n    /**\r\n      * @dev Minter calls this when a user likes content. \r\n      * @notice Only the user is locked as the content creator should be able to \r\n      *     recive multipule likes, and should not be licked by each one as this \r\n      *     would slow down the system sygnificantly.\r\n      */\r\n    function storingLikes(ViewsUsed viewUsedRecived, address _contentOwner, address _user)\r\n        public \r\n        onlyMinter(1)\r\n        lockCheck(_user)\r\n        stopInEmergency\r\n        pauseFunction\r\n    {\r\n        lockUser(_user);\r\n        \r\n        if (viewUsedRecived == ViewsUsed.LIKED) {\r\n            require(allUsers[_user] > 5);\r\n            allUsers[_user] -= 5;\r\n            allCreators[_contentOwner] += 5;\r\n            \r\n            emit LogBoughtViewsUser(_user, 5);\r\n        }\r\n        if (viewUsedRecived == ViewsUsed.LOVED) {\r\n            require(allUsers[_user] > 15);\r\n            allUsers[_user] -= 15;\r\n            allCreators[_contentOwner] += 15;\r\n            addToModeratorFund(_user, 15);\r\n            \r\n            emit LogBoughtViewsUser(_user, 15);\r\n        }\r\n        if (viewUsedRecived == ViewsUsed.FANLOVED) {\r\n            require(allUsers[_user] > 25);\r\n            allUsers[_user] -= 25;\r\n            allCreators[_contentOwner] += 25;\r\n            addToModeratorFund(_user, 25);\r\n            \r\n            emit LogBoughtViewsUser(_user, 25);\r\n        }\r\n        \r\n        unlockUser(_user);\r\n    }\r\n    \r\n    /** \r\n      * @dev Called by the users Factory by the users contract to delete the \r\n      *     users details and send all their views back to them as Ether. \r\n      * @notice This method implements the lock to ensure no other transactions\r\n      *     are happening before the users Contract is deleted.\r\n      * @param _user : The address of the users contract. To be removed \r\n      *         in future versions and the address of the users wallet from \r\n      *         storage.\r\n      *     _userContract : The address of the users Contract.\r\n      *     string _usrName: The users name.\r\n      */\r\n    function removeUserData(address _user, address _userContract, string _userName)\r\n        public\r\n        onlyUserFactory \r\n        beforeDeleteChecksUser(_userContract) \r\n        stopInEmergency\r\n        pauseFunction\r\n        returns(bool)\r\n    {\r\n        //function is called through the user factory, but the account should \r\n            //have all funds sent to their users wallets. \r\n        //TODO: delete creator content as well. \r\n        delete allUsers[_userContract];\r\n        delete allUserNames[_userContract];\r\n        delete userContractOwners[_userContract];\r\n        for(uint i = 0; i < usersAddresses.length; i++) {\r\n            if(usersAddresses[i] == _userContract) {\r\n                delete usersAddresses[i];\r\n                break;\r\n            }\r\n        }\r\n        for(uint a = 0; a < usersNames.length; a++) {\r\n            if(keccak256(usersNames[a]) == keccak256(_userName)) {\r\n                delete usersNames[a];\r\n                break;\r\n            }\r\n        }\r\n        \r\n        emit LogUserDeleted(_user, _userContract, _userName);\r\n        \r\n        return true;\r\n    }\r\n    \r\n    /**\r\n      * @dev This allows a new creator to be finalized and stored.\r\n      * @notice The 'transaction fee' of a like (5 views) is taken \r\n      *     and added to the moderator fund, to help pay for the \r\n      *     moderation of content. \r\n      *     This method can only be called by the minter as the minter \r\n      *     needs to handle all payable methods values.\r\n      * @param _userContract : The address of the users contract.\r\n      *     _creatorContract : The address of the new Creators contract.\r\n      */\r\n    function setNewCreatorData(address _userContract, address _creatorContract) \r\n        public \r\n        onlyMinter(1) \r\n        stopInEmergency \r\n        pauseFunction\r\n        returns(bool)\r\n    {\r\n        require(\r\n            allUsers[_userContract] > 5, \r\n            \"You need to be able to like your own stuff.\"\r\n        );\r\n        allUsers[_userContract] -= 5;\r\n        moderatorViews += 5;\r\n        \r\n        addToModeratorFund(_userContract, 5);\r\n        \r\n        allCreators[_creatorContract] = 0;\r\n        creatorsContractOwners[_userContract] = _creatorContract;\r\n        creatorsAddresses.push(_creatorContract);\r\n        \r\n        emit LogCreatorCreated(_userContract, _creatorContract);\r\n        \r\n        return true;\r\n    }\r\n\r\n    /**\r\n      * @dev This function allows for the storage of newly created content. \r\n      * @notice This contract can only be called by the minter as the \r\n      *     minter handles a;; calles that have the potential for value \r\n      *     transfer.\r\n      */\r\n    function createContent(\r\n        address _contentCreatorContract, \r\n        string _addressIPFS, \r\n        string _title, \r\n        string _description\r\n        )\r\n        public\r\n        onlyMinter(1)\r\n        stopInEmergency\r\n        pauseFunction\r\n    {\r\n        creatorContent[_contentCreatorContract].push(Content({creator: _contentCreatorContract,\r\n        contentLocationIPFS: _addressIPFS,\r\n        title: _title,\r\n        description: _description,\r\n        views: 0}));\r\n        //reducing balance of content creator\r\n        require(allCreators[_contentCreatorContract] > 5);\r\n        allCreators[_contentCreatorContract] -= 5;\r\n        moderatorViews += 5;\r\n        \r\n        addToModeratorFund(_contentCreatorContract, 5);\r\n        \r\n        allContent.push(Content({\r\n            creator: _contentCreatorContract,\r\n            contentLocationIPFS: _addressIPFS,\r\n            title: _title,\r\n            description: _description,\r\n            views: 0\r\n        })); \r\n        //for front end to have access to lates and all content\r\n        emit LogContentCreated(allContent.length, _title, _contentCreatorContract);\r\n        //For the indervidual conent creators to be able to claim ownership of content\r\n        uint length = creatorContent[_contentCreatorContract].length;\r\n        creatorContent[_contentCreatorContract][length] = Content({\r\n            creator: _contentCreatorContract,\r\n            contentLocationIPFS: _addressIPFS,\r\n            title: _title,\r\n            description: _description,\r\n            views: 0\r\n        });\r\n        \r\n        Content[] storage temp = creatorContent[_contentCreatorContract];\r\n        temp.push(Content({\r\n            creator: _contentCreatorContract,\r\n            contentLocationIPFS: _addressIPFS,\r\n            title: _title,\r\n            description: _description,\r\n            views: 0\r\n        }));\r\n    }\r\n    \r\n    /**\r\n      * @dev Removes the creators data and deletes all their information off \r\n      *     the system. It requires that the user has already cleared their \r\n      *     balance. This function deletes the user information and the \r\n      *     creator information. \r\n      * @param _userContract : The address of the user contract. \r\n      *     _creatorContract : The address of the creators contract. \r\n      * @return bool : After the function has been completed. \r\n      */\r\n    function removeCreatorData(address _userContract, address _creatorContract) \r\n        public\r\n        onlyCreatorFactory \r\n        beforeDeleteChecksCreator(_creatorContract) \r\n        beforeDeleteChecksUser(_userContract)\r\n        stopInEmergency\r\n        pauseFunction\r\n        returns(bool)\r\n    {\r\n        delete allCreators[_creatorContract];\r\n        delete creatorsContractOwners[_userContract];\r\n        for(uint a = 0; a < creatorsAddresses.length; a++) {\r\n            if(creatorsAddresses[a] == _creatorContract) {\r\n                delete creatorsAddresses[a];\r\n                break;\r\n            }\r\n        }\r\n        \r\n        emit LogCreatorDeleted(_userContract, _creatorContract);\r\n        \r\n        return true;\r\n    }\r\n\r\n    /**\r\n      * @dev This function allows the register to replace itself. \r\n      * @notice The function in the register that allows it to be \r\n      *     replaced can only be called by the owner. \r\n      * @param _newRegister : The address of the new register. \r\n      */\r\n    function updateRegister(address _newRegister) \r\n        onlyRegistry\r\n        pauseFunction\r\n        public\r\n    {\r\n        registry = Register(_newRegister);\r\n    } \r\n}",
  "sourcePath": "C:\\Users\\Veronica Coutts\\Desktop\\Desktop\\Work\\Web3 Projects\\MVP\\mvp\\contracts\\1DataStorage.sol",
  "compiler": {
    "name": "solc",
    "version": "0.4.24+commit.e67f0147.Emscripten.clang"
  },
  "schemaVersion": "2.0.1",
  "updatedAt": "2018-08-25T14:16:26.750Z"
}