{
  "contractName": "LoveMachine",
  "abi": [
    {
      "inputs": [
        {
          "name": "_dataStorage",
          "type": "address"
        }
      ],
      "payable": false,
      "stateMutability": "nonpayable",
      "type": "constructor"
    },
    {
      "constant": false,
      "inputs": [],
      "name": "getBalance",
      "outputs": [
        {
          "name": "",
          "type": "uint256"
        }
      ],
      "payable": false,
      "stateMutability": "nonpayable",
      "type": "function"
    },
    {
      "constant": false,
      "inputs": [],
      "name": "buyViews",
      "outputs": [
        {
          "name": "",
          "type": "bool"
        }
      ],
      "payable": true,
      "stateMutability": "payable",
      "type": "function"
    },
    {
      "constant": false,
      "inputs": [
        {
          "name": "_amount",
          "type": "uint256"
        }
      ],
      "name": "sellViews",
      "outputs": [
        {
          "name": "",
          "type": "bool"
        }
      ],
      "payable": false,
      "stateMutability": "nonpayable",
      "type": "function"
    },
    {
      "constant": false,
      "inputs": [
        {
          "name": "_amount",
          "type": "uint256"
        }
      ],
      "name": "TransferViewsToCreatorAccount",
      "outputs": [
        {
          "name": "",
          "type": "bool"
        }
      ],
      "payable": false,
      "stateMutability": "nonpayable",
      "type": "function"
    },
    {
      "constant": false,
      "inputs": [
        {
          "name": "_amount",
          "type": "uint256"
        }
      ],
      "name": "TransferViewsToUserAccount",
      "outputs": [
        {
          "name": "",
          "type": "bool"
        }
      ],
      "payable": false,
      "stateMutability": "nonpayable",
      "type": "function"
    },
    {
      "constant": false,
      "inputs": [
        {
          "name": "_contentCreator",
          "type": "address"
        },
        {
          "name": "_userConsumer",
          "type": "address"
        }
      ],
      "name": "liked",
      "outputs": [],
      "payable": false,
      "stateMutability": "nonpayable",
      "type": "function"
    },
    {
      "constant": false,
      "inputs": [
        {
          "name": "_contentCreator",
          "type": "address"
        },
        {
          "name": "_userConsumer",
          "type": "address"
        }
      ],
      "name": "loved",
      "outputs": [],
      "payable": false,
      "stateMutability": "nonpayable",
      "type": "function"
    },
    {
      "constant": false,
      "inputs": [
        {
          "name": "_contentCreator",
          "type": "address"
        },
        {
          "name": "_userConsumer",
          "type": "address"
        }
      ],
      "name": "fanLoved",
      "outputs": [],
      "payable": false,
      "stateMutability": "nonpayable",
      "type": "function"
    },
    {
      "constant": false,
      "inputs": [
        {
          "name": "_addressIPFS",
          "type": "string"
        },
        {
          "name": "_title",
          "type": "string"
        },
        {
          "name": "_description",
          "type": "string"
        }
      ],
      "name": "createContentMinter",
      "outputs": [
        {
          "name": "",
          "type": "bool"
        }
      ],
      "payable": true,
      "stateMutability": "payable",
      "type": "function"
    },
    {
      "constant": false,
      "inputs": [],
      "name": "kill",
      "outputs": [],
      "payable": false,
      "stateMutability": "nonpayable",
      "type": "function"
    }
  ],
  "bytecode": "0x60806040526001805460a060020a62ffffff021916905534801561002257600080fd5b50604051602080610dda833981016040818152915160008054600160a060020a031916600160a060020a03808416919091178083557f8da5cb5b000000000000000000000000000000000000000000000000000000008552945192941692638da5cb5b9260048083019360209383900390910190829087803b1580156100a757600080fd5b505af11580156100bb573d6000803e3d6000fd5b505050506040513d60208110156100d157600080fd5b50516001805460b060020a60ff0219600160a060020a03909316600160a060020a0319909116179190911676010000000000000000000000000000000000000000000017905550610cb3806101276000396000f30060806040526004361061008a5763ffffffff60e060020a60003504166312065fe0811461008f57806314d03713146100b65780632946014c146100df578063347001261461010657806341c0e1b51461012d5780634cad552b1461014257806367526c4d1461016e578063ec79293214610186578063fbfa1c671461019e578063fe8ef25e146101a6575b600080fd5b34801561009b57600080fd5b506100a461026e565b60408051918252519081900360200190f35b3480156100c257600080fd5b506100dd600160a060020a0360043581169060243516610273565b005b3480156100eb57600080fd5b506100dd600160a060020a03600435811690602435166103b9565b34801561011257600080fd5b506100dd600160a060020a036004358116906024351661048f565b34801561013957600080fd5b506100dd610563565b34801561014e57600080fd5b5061015a6004356106a2565b604080519115158252519081900360200190f35b34801561017a57600080fd5b5061015a60043561074f565b34801561019257600080fd5b5061015a60043561087b565b61015a610972565b6040805160206004803580820135601f810184900484028501840190955284845261015a94369492936024939284019190819084018382808284375050604080516020601f89358b018035918201839004830284018301909452808352979a99988101979196509182019450925082915084018382808284375050604080516020601f89358b018035918201839004830284018301909452808352979a999881019791965091820194509250829150840183828082843750949750610a1e9650505050505050565b303190565b600080546040805160e060020a634209fff10281523360048201529051600160a060020a0390921691634209fff19160248082019260209290919082900301818787803b1580156102c357600080fd5b505af11580156102d7573d6000803e3d6000fd5b505050506040513d60208110156102ed57600080fd5b505190508015156102fd57600080fd5b6000546040517f5b48d7fb000000000000000000000000000000000000000000000000000000008152600160a060020a0390911690635b48d7fb906002908690869060040180845b60ff16815260200183600160a060020a0316600160a060020a0316815260200182600160a060020a0316600160a060020a031681526020019350505050600060405180830381600087803b15801561039c57600080fd5b505af11580156103b0573d6000803e3d6000fd5b50505050505050565b600080546040805160e060020a634209fff10281523360048201529051600160a060020a0390921691634209fff19160248082019260209290919082900301818787803b15801561040957600080fd5b505af115801561041d573d6000803e3d6000fd5b505050506040513d602081101561043357600080fd5b5051905080151561044357600080fd5b6000546040517f5b48d7fb000000000000000000000000000000000000000000000000000000008152600160a060020a0390911690635b48d7fb90600190869086906004018084610345565b600080546040805160e060020a634209fff10281523360048201529051600160a060020a0390921691634209fff19160248082019260209290919082900301818787803b1580156104df57600080fd5b505af11580156104f3573d6000803e3d6000fd5b505050506040513d602081101561050957600080fd5b5051905080151561051957600080fd5b600080546040517f5b48d7fb000000000000000000000000000000000000000000000000000000008152600160a060020a0390911691635b48d7fb91869086906004018084610345565b600154600160a060020a031633148061060157506000809054906101000a9004600160a060020a0316600160a060020a031663ed9aab516040518163ffffffff1660e060020a028152600401602060405180830381600087803b1580156105c957600080fd5b505af11580156105dd573d6000803e3d6000fd5b505050506040513d60208110156105f357600080fd5b5051600160a060020a031633145b151561069457604080517f08c379a000000000000000000000000000000000000000000000000000000000815260206004820152603960248201527f46756e6374696f6e2063616e206f6e6c792062652063616c6c6564206279207460448201527f6865206f776e6572206f72207468652072656769737465722e00000000000000606482015290519081900360840190fd5b600154600160a060020a0316ff5b60008054604080517fbf57df090000000000000000000000000000000000000000000000000000000081523360048201526024810185905290516509184e72a0008502928492600160a060020a039091169163bf57df099160448082019260209290919082900301818787803b15801561071b57600080fd5b505af115801561072f573d6000803e3d6000fd5b505050506040513d602081101561074557600080fd5b5051949350505050565b600080546040805160e060020a634209fff102815233600482015290518392600160a060020a031691634209fff191602480830192602092919082900301818787803b15801561079e57600080fd5b505af11580156107b2573d6000803e3d6000fd5b505050506040513d60208110156107c857600080fd5b505190508015156107d857600080fd5b60008054604080517f1ddf8358000000000000000000000000000000000000000000000000000000008152336004820152602481018790529051600160a060020a0390921692631ddf8358926044808401936020939083900390910190829087803b15801561084657600080fd5b505af115801561085a573d6000803e3d6000fd5b505050506040513d602081101561087057600080fd5b506001949350505050565b600080546040805160e060020a634209fff102815233600482015290518392600160a060020a031691634209fff191602480830192602092919082900301818787803b1580156108ca57600080fd5b505af11580156108de573d6000803e3d6000fd5b505050506040513d60208110156108f457600080fd5b5051905080151561090457600080fd5b60008054604080517f6db08bd7000000000000000000000000000000000000000000000000000000008152336004820152602481018790529051600160a060020a0390921692636db08bd7926044808401936020939083900390910190829087803b15801561084657600080fd5b60008054604080517f4604920f0000000000000000000000000000000000000000000000000000000081523360048201526509184e72a000340460248201819052915191928492600160a060020a0390911691634604920f91604480830192602092919082900301818787803b1580156109eb57600080fd5b505af11580156109ff573d6000803e3d6000fd5b505050506040513d6020811015610a1557600080fd5b50519392505050565b60008054604080517fefd4606500000000000000000000000000000000000000000000000000000000815233600482015290518392600160a060020a03169163efd4606591602480830192602092919082900301818787803b158015610a8357600080fd5b505af1158015610a97573d6000803e3d6000fd5b505050506040513d6020811015610aad57600080fd5b50519050801515610abd57600080fd5b6000809054906101000a9004600160a060020a0316600160a060020a0316636e6ac45a338787876040518563ffffffff1660e060020a0281526004018085600160a060020a0316600160a060020a03168152602001806020018060200180602001848103845287818151815260200191508051906020019080838360005b83811015610b53578181015183820152602001610b3b565b50505050905090810190601f168015610b805780820380516001836020036101000a031916815260200191505b50848103835286518152865160209182019188019080838360005b83811015610bb3578181015183820152602001610b9b565b50505050905090810190601f168015610be05780820380516001836020036101000a031916815260200191505b50848103825285518152855160209182019187019080838360005b83811015610c13578181015183820152602001610bfb565b50505050905090810190601f168015610c405780820380516001836020036101000a031916815260200191505b50975050505050505050600060405180830381600087803b158015610c6457600080fd5b505af1158015610c78573d6000803e3d6000fd5b506001989750505050505050505600a165627a7a723058207b125cd375ceb1254769a9c2c13533232a08e6dddd5a1094056dff321199f22c0029",
  "source": "pragma solidity 0.4.24;\r\n\r\nimport \"./DataStorage.sol\";\r\nimport \"./Register.sol\";\r\nimport \"./User.sol\";\r\nimport \"./ContentCreator.sol\";\r\n\r\ncontract LoveMachine {\r\n    DataStorage dataStorage;\r\n    address owner;\r\n    \r\n    enum viewsUsed {LIKED, LOVED, FANLOVED}\r\n\r\n    bool emergencyStop = false;\r\n    bool pause = false;\r\n    bool callOnce = false;\r\n\r\n    //Ensures only the owner can call the function.\r\n    modifier onlyOwner {\r\n        require(msg.sender == owner);\r\n        _;\r\n    }\r\n\r\n    //Ensures that the function will not work in emergency.\r\n    modifier stopInEmergency() {\r\n        require(!emergencyStop);\r\n        _;\r\n    }\r\n\r\n    //Ensures the contract dose not work untill it is set up.\r\n    modifier pauseModifier {\r\n        require(!pause);\r\n        _;\r\n    }\r\n    \r\n    //Ensures set up only ever runs once. \r\n    modifier onlyCallOnce {\r\n        require(!callOnce, \"This contract has already been set up\");\r\n        _;\r\n    }\r\n    \r\n    //Ensures only a user can call this function. \r\n    modifier onlyAUser {\r\n        bool user = dataStorage.isUser(msg.sender);\r\n        require(user);\r\n        _;\r\n    }\r\n    \r\n    //Ensures address is that of a users.\r\n    modifier onlyAUserAddress(address _addressToCheck) {\r\n        bool user = dataStorage.isUser(_addressToCheck);\r\n        require(user, \"Address is not a user\");\r\n        _;\r\n    }\r\n    \r\n    //Ensures only a creator can call this function.\r\n    modifier onlyACreator {\r\n        bool creator = dataStorage.isCreator(msg.sender);\r\n        require(creator);\r\n        _;\r\n    }\r\n    \r\n    //Ensures address is that of a creators. \r\n    modifier onlyACreatorAddress(address _addressToCheck) {\r\n        bool creator = dataStorage.isCreator(_addressToCheck);\r\n        require(creator);\r\n        _;\r\n    }\r\n\r\n    //Ensures only the owner or register can call the function. \r\n    modifier ownerOrRegister {\r\n        require(\r\n            msg.sender == owner || msg.sender == dataStorage.registryAddress(),\r\n            \"Function can only be called by the owner or the register.\"\r\n        );\r\n        _;\r\n    }\r\n\r\n    /**\r\n      *@dev Called by the DataStorage to create an instance of this contract.\r\n      */\r\n    constructor(address _dataStorage) \r\n        public\r\n    {\r\n        dataStorage = DataStorage(_dataStorage);\r\n        owner =  dataStorage.owner();\r\n        callOnce = true;\r\n    }\r\n    \r\n    // /**\r\n    //   * @dev Allows for the set up of the LoveMachine contract. \r\n    //   *     This function is required as a contract dose not have\r\n    //   *     an address untill the constructor has finished executing, \r\n    //   *     so the constructor functionality had to be seporated out \r\n    //   *     to allow for the various addresses to be created and passed in. \r\n    //   */\r\n    // function constructorFunction(address _dataStorage) \r\n    //     public\r\n    //     onlyCallOnce\r\n    // {\r\n    //     dataStorage = DataStorage(_dataStorage);\r\n    //     owner =  dataStorage.owner();\r\n    //     callOnce = true;\r\n    // }\r\n\r\n    function getBalance()\r\n        public\r\n        returns(uint)\r\n    {\r\n        return this.balance;\r\n    }\r\n\r\n    /**\r\n      * @dev Allows only user contracts to buy views. \r\n      * @return bool : If the proccess was successful.\r\n      */\r\n    function buyViews()\r\n        public\r\n        payable\r\n        //onlyAUser\r\n        returns(bool)\r\n    {\r\n        uint amountPossible = msg.value / 10**13;\r\n        bool updated = dataStorage.buyViewsSave(msg.sender, amountPossible);\r\n        return updated;\r\n    }\r\n    \r\n    /**\r\n      * @dev Allows only user contracts to sell views.\r\n      * @return bool : If the transfer was successful.\r\n      */\r\n    function sellViews(uint _amount)\r\n        public\r\n        // onlyAUser\r\n        returns(bool)\r\n    {\r\n        uint weiValue = _amount * 10**13;\r\n        bool viewsSold = dataStorage.sellViewsSave(msg.sender, _amount);\r\n        //msg.sender.transfer(weiValue);\r\n        \r\n        return viewsSold;\r\n    }\r\n    \r\n    /**\r\n      * @dev Allows a user to transfer views from their user account \r\n      *     to their creator account.\r\n      * @notice This is needed as a creator dose not have the functionality\r\n      *     of a user. \r\n      * @param _amount : The amount of views they wish to transfer.\r\n      * @return bool : If the transaction was successful.\r\n      */\r\n    function TransferViewsToCreatorAccount(uint _amount)\r\n        public\r\n        onlyAUser\r\n        returns(bool)\r\n    {\r\n        dataStorage.fromUserToCreator(msg.sender, _amount);\r\n        \r\n        return true;\r\n    }\r\n\r\n    /**\r\n      * @dev Allows a creator to send views back to their user acount. \r\n      * @notice This functionality is needed if the creator wants \r\n      *     to sell their views. \r\n      */\r\n    function TransferViewsToUserAccount(uint _amount)\r\n        public\r\n        onlyAUser\r\n        returns(bool)\r\n    {\r\n        dataStorage.fromCreatorToUser(msg.sender, _amount);\r\n        \r\n        return true;\r\n    }\r\n    \r\n    /**\r\n      * @dev Allows a user to like content. \r\n      * @param _contentCreator : The content the user is liking's creator. \r\n      *     _userConsumer : The user who is liking the content. \r\n      */\r\n    function liked(address _contentCreator, address _userConsumer)\r\n        public\r\n        onlyAUser\r\n    {\r\n        dataStorage.storingLikes(DataStorage.ViewsUsed.LIKED, _contentCreator, _userConsumer);\r\n    }\r\n\r\n    /**\r\n      * @dev Allows a user to love content. \r\n      * @param _contentCreator : The content the user is loving's creator. \r\n      *     _userConsumer : The user who is loving the content. \r\n      */\r\n    function loved(address _contentCreator, address _userConsumer)\r\n        public\r\n        onlyAUser\r\n    {\r\n        dataStorage.storingLikes(DataStorage.ViewsUsed.LOVED, _contentCreator, _userConsumer);\r\n    }\r\n    \r\n    /**\r\n      * @dev Allows a user to love content. \r\n      * @param _contentCreator : The content the user is fan loving's creator. \r\n      *     _userConsumer : The user who is fan loving the content. \r\n      */\r\n    function fanLoved(address _contentCreator, address _userConsumer)\r\n        public\r\n        onlyAUser\r\n    {\r\n        dataStorage.storingLikes(DataStorage.ViewsUsed.FANLOVED, _contentCreator, _userConsumer);\r\n    }\r\n    \r\n    /**\r\n      * @dev Allows a creator to create content. \r\n      * @param _addressIPFS : The address of the content in IPFS. \r\n      *     _title : The title of the content. \r\n      *     _description : The 'About' of the content. \r\n      * @return bool : If the transaction was successful. \r\n      */\r\n    function createContentMinter(\r\n        string _addressIPFS, \r\n        string _title, \r\n        string _description\r\n        ) \r\n        public\r\n        payable\r\n        onlyACreator\r\n        returns(bool)\r\n    {\r\n        dataStorage.createContent(msg.sender, _addressIPFS, _title, _description);\r\n        return true; \r\n    }\r\n\r\n    /**\r\n      * @dev Allows the register or owner to replace the minter by kiling it. \r\n      * @notice All the other kill's for contract factories send their \r\n      *     value to this contract, but when this contract is destroyed it \r\n      *     sends its value to the owner. \r\n      */\r\n    function kill() \r\n        public \r\n        ownerOrRegister \r\n    {\r\n        selfdestruct(owner);\r\n    }\r\n}",
  "sourcePath": "C:\\Users\\Veronica Coutts\\Desktop\\Desktop\\Work\\Web3 Projects\\MVP\\mvp\\contracts\\LoveMachine.sol",
  "compiler": {
    "name": "solc",
    "version": "0.4.24+commit.e67f0147.Emscripten.clang"
  },
  "schemaVersion": "2.0.1",
  "updatedAt": "2018-08-26T16:46:55.709Z"
}