{
  "contractName": "LoveMachine",
  "abi": [
    {
      "inputs": [],
      "payable": false,
      "stateMutability": "nonpayable",
      "type": "constructor"
    },
    {
      "constant": false,
      "inputs": [
        {
          "name": "_dataStorage",
          "type": "address"
        }
      ],
      "name": "constructorFunction",
      "outputs": [],
      "payable": false,
      "stateMutability": "nonpayable",
      "type": "function"
    },
    {
      "constant": false,
      "inputs": [],
      "name": "buyViews",
      "outputs": [
        {
          "name": "",
          "type": "bool"
        }
      ],
      "payable": true,
      "stateMutability": "payable",
      "type": "function"
    },
    {
      "constant": false,
      "inputs": [
        {
          "name": "_amount",
          "type": "uint256"
        }
      ],
      "name": "sellViews",
      "outputs": [
        {
          "name": "",
          "type": "bool"
        }
      ],
      "payable": false,
      "stateMutability": "nonpayable",
      "type": "function"
    },
    {
      "constant": false,
      "inputs": [
        {
          "name": "_amount",
          "type": "uint256"
        }
      ],
      "name": "TransferViewsToCreatorAccount",
      "outputs": [
        {
          "name": "",
          "type": "bool"
        }
      ],
      "payable": false,
      "stateMutability": "nonpayable",
      "type": "function"
    },
    {
      "constant": false,
      "inputs": [
        {
          "name": "_amount",
          "type": "uint256"
        }
      ],
      "name": "TransferViewsToUserAccount",
      "outputs": [
        {
          "name": "",
          "type": "bool"
        }
      ],
      "payable": false,
      "stateMutability": "nonpayable",
      "type": "function"
    },
    {
      "constant": false,
      "inputs": [
        {
          "name": "_contentCreator",
          "type": "address"
        },
        {
          "name": "_userConsumer",
          "type": "address"
        }
      ],
      "name": "liked",
      "outputs": [],
      "payable": false,
      "stateMutability": "nonpayable",
      "type": "function"
    },
    {
      "constant": false,
      "inputs": [
        {
          "name": "_contentCreator",
          "type": "address"
        },
        {
          "name": "_userConsumer",
          "type": "address"
        }
      ],
      "name": "loved",
      "outputs": [],
      "payable": false,
      "stateMutability": "nonpayable",
      "type": "function"
    },
    {
      "constant": false,
      "inputs": [
        {
          "name": "_contentCreator",
          "type": "address"
        },
        {
          "name": "_userConsumer",
          "type": "address"
        }
      ],
      "name": "fanLoved",
      "outputs": [],
      "payable": false,
      "stateMutability": "nonpayable",
      "type": "function"
    },
    {
      "constant": false,
      "inputs": [
        {
          "name": "_addressIPFS",
          "type": "string"
        },
        {
          "name": "_title",
          "type": "string"
        },
        {
          "name": "_description",
          "type": "string"
        }
      ],
      "name": "createContentMinter",
      "outputs": [
        {
          "name": "",
          "type": "bool"
        }
      ],
      "payable": true,
      "stateMutability": "payable",
      "type": "function"
    },
    {
      "constant": false,
      "inputs": [],
      "name": "kill",
      "outputs": [],
      "payable": false,
      "stateMutability": "nonpayable",
      "type": "function"
    }
  ],
  "bytecode": "0x60806040526000600160146101000a81548160ff0219169083151502179055506000600160156101000a81548160ff0219169083151502179055506000600160166101000a81548160ff02191690831515021790555034801561006157600080fd5b50611ad2806100716000396000f3006080604052600436106100a4576000357c0100000000000000000000000000000000000000000000000000000000900463ffffffff16806314d03713146100a95780632946014c1461010c578063347001261461016f57806335ac4ccf146101d257806341c0e1b5146102155780634cad552b1461022c57806367526c4d14610271578063ec792932146102b6578063fbfa1c67146102fb578063fe8ef25e1461031d575b600080fd5b3480156100b557600080fd5b5061010a600480360381019080803573ffffffffffffffffffffffffffffffffffffffff169060200190929190803573ffffffffffffffffffffffffffffffffffffffff16906020019092919050505061041d565b005b34801561011857600080fd5b5061016d600480360381019080803573ffffffffffffffffffffffffffffffffffffffff169060200190929190803573ffffffffffffffffffffffffffffffffffffffff169060200190929190505050610648565b005b34801561017b57600080fd5b506101d0600480360381019080803573ffffffffffffffffffffffffffffffffffffffff169060200190929190803573ffffffffffffffffffffffffffffffffffffffff169060200190929190505050610873565b005b3480156101de57600080fd5b50610213600480360381019080803573ffffffffffffffffffffffffffffffffffffffff169060200190929190505050610a9e565b005b34801561022157600080fd5b5061022a610ca6565b005b34801561023857600080fd5b5061025760048036038101908080359060200190929190505050610ec1565b604051808215151515815260200191505060405180910390f35b34801561027d57600080fd5b5061029c6004803603810190808035906020019092919050505061112a565b604051808215151515815260200191505060405180910390f35b3480156102c257600080fd5b506102e16004803603810190808035906020019092919050505061133c565b604051808215151515815260200191505060405180910390f35b61030361154e565b604051808215151515815260200191505060405180910390f35b610403600480360381019080803590602001908201803590602001908080601f0160208091040260200160405190810160405280939291908181526020018383808284378201915050505050509192919290803590602001908201803590602001908080601f0160208091040260200160405190810160405280939291908181526020018383808284378201915050505050509192919290803590602001908201803590602001908080601f0160208091040260200160405190810160405280939291908181526020018383808284378201915050505050509192919290505050611777565b604051808215151515815260200191505060405180910390f35b60008060009054906101000a900473ffffffffffffffffffffffffffffffffffffffff1673ffffffffffffffffffffffffffffffffffffffff16634209fff1336040518263ffffffff167c0100000000000000000000000000000000000000000000000000000000028152600401808273ffffffffffffffffffffffffffffffffffffffff1673ffffffffffffffffffffffffffffffffffffffff168152602001915050602060405180830381600087803b1580156104db57600080fd5b505af11580156104ef573d6000803e3d6000fd5b505050506040513d602081101561050557600080fd5b8101908080519060200190929190505050905080151561052457600080fd5b6000809054906101000a900473ffffffffffffffffffffffffffffffffffffffff1673ffffffffffffffffffffffffffffffffffffffff16635b48d7fb600285856040518463ffffffff167c0100000000000000000000000000000000000000000000000000000000028152600401808460028111156105a057fe5b60ff1681526020018373ffffffffffffffffffffffffffffffffffffffff1673ffffffffffffffffffffffffffffffffffffffff1681526020018273ffffffffffffffffffffffffffffffffffffffff1673ffffffffffffffffffffffffffffffffffffffff1681526020019350505050600060405180830381600087803b15801561062b57600080fd5b505af115801561063f573d6000803e3d6000fd5b50505050505050565b60008060009054906101000a900473ffffffffffffffffffffffffffffffffffffffff1673ffffffffffffffffffffffffffffffffffffffff16634209fff1336040518263ffffffff167c0100000000000000000000000000000000000000000000000000000000028152600401808273ffffffffffffffffffffffffffffffffffffffff1673ffffffffffffffffffffffffffffffffffffffff168152602001915050602060405180830381600087803b15801561070657600080fd5b505af115801561071a573d6000803e3d6000fd5b505050506040513d602081101561073057600080fd5b8101908080519060200190929190505050905080151561074f57600080fd5b6000809054906101000a900473ffffffffffffffffffffffffffffffffffffffff1673ffffffffffffffffffffffffffffffffffffffff16635b48d7fb600185856040518463ffffffff167c0100000000000000000000000000000000000000000000000000000000028152600401808460028111156107cb57fe5b60ff1681526020018373ffffffffffffffffffffffffffffffffffffffff1673ffffffffffffffffffffffffffffffffffffffff1681526020018273ffffffffffffffffffffffffffffffffffffffff1673ffffffffffffffffffffffffffffffffffffffff1681526020019350505050600060405180830381600087803b15801561085657600080fd5b505af115801561086a573d6000803e3d6000fd5b50505050505050565b60008060009054906101000a900473ffffffffffffffffffffffffffffffffffffffff1673ffffffffffffffffffffffffffffffffffffffff16634209fff1336040518263ffffffff167c0100000000000000000000000000000000000000000000000000000000028152600401808273ffffffffffffffffffffffffffffffffffffffff1673ffffffffffffffffffffffffffffffffffffffff168152602001915050602060405180830381600087803b15801561093157600080fd5b505af1158015610945573d6000803e3d6000fd5b505050506040513d602081101561095b57600080fd5b8101908080519060200190929190505050905080151561097a57600080fd5b6000809054906101000a900473ffffffffffffffffffffffffffffffffffffffff1673ffffffffffffffffffffffffffffffffffffffff16635b48d7fb600085856040518463ffffffff167c0100000000000000000000000000000000000000000000000000000000028152600401808460028111156109f657fe5b60ff1681526020018373ffffffffffffffffffffffffffffffffffffffff1673ffffffffffffffffffffffffffffffffffffffff1681526020018273ffffffffffffffffffffffffffffffffffffffff1673ffffffffffffffffffffffffffffffffffffffff1681526020019350505050600060405180830381600087803b158015610a8157600080fd5b505af1158015610a95573d6000803e3d6000fd5b50505050505050565b600160169054906101000a900460ff16151515610b49576040517f08c379a00000000000000000000000000000000000000000000000000000000081526004018080602001828103825260258152602001807f5468697320636f6e74726163742068617320616c7265616479206265656e207381526020017f657420757000000000000000000000000000000000000000000000000000000081525060400191505060405180910390fd5b806000806101000a81548173ffffffffffffffffffffffffffffffffffffffff021916908373ffffffffffffffffffffffffffffffffffffffff1602179055506000809054906101000a900473ffffffffffffffffffffffffffffffffffffffff1673ffffffffffffffffffffffffffffffffffffffff16638da5cb5b6040518163ffffffff167c0100000000000000000000000000000000000000000000000000000000028152600401602060405180830381600087803b158015610c0e57600080fd5b505af1158015610c22573d6000803e3d6000fd5b505050506040513d6020811015610c3857600080fd5b8101908080519060200190929190505050600160006101000a81548173ffffffffffffffffffffffffffffffffffffffff021916908373ffffffffffffffffffffffffffffffffffffffff16021790555060018060166101000a81548160ff02191690831515021790555050565b600160009054906101000a900473ffffffffffffffffffffffffffffffffffffffff1673ffffffffffffffffffffffffffffffffffffffff163373ffffffffffffffffffffffffffffffffffffffff161480610dec57506000809054906101000a900473ffffffffffffffffffffffffffffffffffffffff1673ffffffffffffffffffffffffffffffffffffffff1663ed9aab516040518163ffffffff167c0100000000000000000000000000000000000000000000000000000000028152600401602060405180830381600087803b158015610d8257600080fd5b505af1158015610d96573d6000803e3d6000fd5b505050506040513d6020811015610dac57600080fd5b810190808051906020019092919050505073ffffffffffffffffffffffffffffffffffffffff163373ffffffffffffffffffffffffffffffffffffffff16145b1515610e86576040517f08c379a00000000000000000000000000000000000000000000000000000000081526004018080602001828103825260398152602001807f46756e6374696f6e2063616e206f6e6c792062652063616c6c6564206279207481526020017f6865206f776e6572206f72207468652072656769737465722e0000000000000081525060400191505060405180910390fd5b600160009054906101000a900473ffffffffffffffffffffffffffffffffffffffff1673ffffffffffffffffffffffffffffffffffffffff16ff5b6000806000806000809054906101000a900473ffffffffffffffffffffffffffffffffffffffff1673ffffffffffffffffffffffffffffffffffffffff16634209fff1336040518263ffffffff167c0100000000000000000000000000000000000000000000000000000000028152600401808273ffffffffffffffffffffffffffffffffffffffff1673ffffffffffffffffffffffffffffffffffffffff168152602001915050602060405180830381600087803b158015610f8357600080fd5b505af1158015610f97573d6000803e3d6000fd5b505050506040513d6020811015610fad57600080fd5b81019080805190602001909291905050509050801515610fcc57600080fd5b6509184e72a000850292506000809054906101000a900473ffffffffffffffffffffffffffffffffffffffff1673ffffffffffffffffffffffffffffffffffffffff1663bf57df0933876040518363ffffffff167c0100000000000000000000000000000000000000000000000000000000028152600401808373ffffffffffffffffffffffffffffffffffffffff1673ffffffffffffffffffffffffffffffffffffffff16815260200182815260200192505050602060405180830381600087803b15801561109b57600080fd5b505af11580156110af573d6000803e3d6000fd5b505050506040513d60208110156110c557600080fd5b810190808051906020019092919050505091503373ffffffffffffffffffffffffffffffffffffffff166108fc869081150290604051600060405180830381858888f1935050505015801561111e573d6000803e3d6000fd5b50819350505050919050565b6000806000809054906101000a900473ffffffffffffffffffffffffffffffffffffffff1673ffffffffffffffffffffffffffffffffffffffff16634209fff1336040518263ffffffff167c0100000000000000000000000000000000000000000000000000000000028152600401808273ffffffffffffffffffffffffffffffffffffffff1673ffffffffffffffffffffffffffffffffffffffff168152602001915050602060405180830381600087803b1580156111e957600080fd5b505af11580156111fd573d6000803e3d6000fd5b505050506040513d602081101561121357600080fd5b8101908080519060200190929190505050905080151561123257600080fd5b6000809054906101000a900473ffffffffffffffffffffffffffffffffffffffff1673ffffffffffffffffffffffffffffffffffffffff16631ddf835833856040518363ffffffff167c0100000000000000000000000000000000000000000000000000000000028152600401808373ffffffffffffffffffffffffffffffffffffffff1673ffffffffffffffffffffffffffffffffffffffff16815260200182815260200192505050602060405180830381600087803b1580156112f657600080fd5b505af115801561130a573d6000803e3d6000fd5b505050506040513d602081101561132057600080fd5b8101908080519060200190929190505050506001915050919050565b6000806000809054906101000a900473ffffffffffffffffffffffffffffffffffffffff1673ffffffffffffffffffffffffffffffffffffffff16634209fff1336040518263ffffffff167c0100000000000000000000000000000000000000000000000000000000028152600401808273ffffffffffffffffffffffffffffffffffffffff1673ffffffffffffffffffffffffffffffffffffffff168152602001915050602060405180830381600087803b1580156113fb57600080fd5b505af115801561140f573d6000803e3d6000fd5b505050506040513d602081101561142557600080fd5b8101908080519060200190929190505050905080151561144457600080fd5b6000809054906101000a900473ffffffffffffffffffffffffffffffffffffffff1673ffffffffffffffffffffffffffffffffffffffff16636db08bd733856040518363ffffffff167c0100000000000000000000000000000000000000000000000000000000028152600401808373ffffffffffffffffffffffffffffffffffffffff1673ffffffffffffffffffffffffffffffffffffffff16815260200182815260200192505050602060405180830381600087803b15801561150857600080fd5b505af115801561151c573d6000803e3d6000fd5b505050506040513d602081101561153257600080fd5b8101908080519060200190929190505050506001915050919050565b6000806000806000809054906101000a900473ffffffffffffffffffffffffffffffffffffffff1673ffffffffffffffffffffffffffffffffffffffff16634209fff1336040518263ffffffff167c0100000000000000000000000000000000000000000000000000000000028152600401808273ffffffffffffffffffffffffffffffffffffffff1673ffffffffffffffffffffffffffffffffffffffff168152602001915050602060405180830381600087803b15801561161057600080fd5b505af1158015611624573d6000803e3d6000fd5b505050506040513d602081101561163a57600080fd5b8101908080519060200190929190505050905080151561165957600080fd5b6509184e72a0003481151561166a57fe5b0492506000809054906101000a900473ffffffffffffffffffffffffffffffffffffffff1673ffffffffffffffffffffffffffffffffffffffff16634604920f33856040518363ffffffff167c0100000000000000000000000000000000000000000000000000000000028152600401808373ffffffffffffffffffffffffffffffffffffffff1673ffffffffffffffffffffffffffffffffffffffff16815260200182815260200192505050602060405180830381600087803b15801561173157600080fd5b505af1158015611745573d6000803e3d6000fd5b505050506040513d602081101561175b57600080fd5b8101908080519060200190929190505050915081935050505090565b6000806000809054906101000a900473ffffffffffffffffffffffffffffffffffffffff1673ffffffffffffffffffffffffffffffffffffffff1663efd46065336040518263ffffffff167c0100000000000000000000000000000000000000000000000000000000028152600401808273ffffffffffffffffffffffffffffffffffffffff1673ffffffffffffffffffffffffffffffffffffffff168152602001915050602060405180830381600087803b15801561183657600080fd5b505af115801561184a573d6000803e3d6000fd5b505050506040513d602081101561186057600080fd5b8101908080519060200190929190505050905080151561187f57600080fd5b6000809054906101000a900473ffffffffffffffffffffffffffffffffffffffff1673ffffffffffffffffffffffffffffffffffffffff16636e6ac45a338787876040518563ffffffff167c0100000000000000000000000000000000000000000000000000000000028152600401808573ffffffffffffffffffffffffffffffffffffffff1673ffffffffffffffffffffffffffffffffffffffff168152602001806020018060200180602001848103845287818151815260200191508051906020019080838360005b8381101561196557808201518184015260208101905061194a565b50505050905090810190601f1680156119925780820380516001836020036101000a031916815260200191505b50848103835286818151815260200191508051906020019080838360005b838110156119cb5780820151818401526020810190506119b0565b50505050905090810190601f1680156119f85780820380516001836020036101000a031916815260200191505b50848103825285818151815260200191508051906020019080838360005b83811015611a31578082015181840152602081019050611a16565b50505050905090810190601f168015611a5e5780820380516001836020036101000a031916815260200191505b50975050505050505050600060405180830381600087803b158015611a8257600080fd5b505af1158015611a96573d6000803e3d6000fd5b50505050600191505093925050505600a165627a7a723058203a3b50c18371776d54039c1902c714f729e4e8ef5a160e839b2ff75d5616ce510029",
  "source": "pragma solidity 0.4.24;\r\n\r\nimport \"./1DataStorage.sol\";\r\nimport \"./2Register.sol\";\r\nimport \"./User.sol\";\r\nimport \"./ContentCreator.sol\";\r\n\r\ncontract LoveMachine {\r\n    DataStorage dataStorage;\r\n    address owner;\r\n    \r\n    enum viewsUsed {LIKED, LOVED, FANLOVED}\r\n\r\n    bool emergencyStop = false;\r\n    bool pause = false;\r\n    bool callOnce = false;\r\n\r\n    //Ensures only the owner can call the function.\r\n    modifier onlyOwner {\r\n        require(msg.sender == owner);\r\n        _;\r\n    }\r\n\r\n    //Ensures that the function will not work in emergency.\r\n    modifier stopInEmergency() {\r\n        require(!emergencyStop);\r\n        _;\r\n    }\r\n\r\n    //Ensures the contract dose not work untill it is set up.\r\n    modifier pauseModifier {\r\n        require(!pause);\r\n        _;\r\n    }\r\n    \r\n    //Ensures set up only ever runs once. \r\n    modifier onlyCallOnce {\r\n        require(!callOnce, \"This contract has already been set up\");\r\n        _;\r\n    }\r\n    \r\n    //Ensures only a user can call this function. \r\n    modifier onlyAUser {\r\n        bool user = dataStorage.isUser(msg.sender);\r\n        require(user);\r\n        _;\r\n    }\r\n    \r\n    //Ensures address is that of a users.\r\n    modifier onlyAUserAddress(address _addressToCheck) {\r\n        bool user = dataStorage.isUser(_addressToCheck);\r\n        require(user, \"Address is not a user\");\r\n        _;\r\n    }\r\n    \r\n    //Ensures only a creator can call this function.\r\n    modifier onlyACreator {\r\n        bool creator = dataStorage.isCreator(msg.sender);\r\n        require(creator);\r\n        _;\r\n    }\r\n    \r\n    //Ensures address is that of a creators. \r\n    modifier onlyACreatorAddress(address _addressToCheck) {\r\n        bool creator = dataStorage.isCreator(_addressToCheck);\r\n        require(creator);\r\n        _;\r\n    }\r\n\r\n    //Ensures only the owner or register can call the function. \r\n    modifier ownerOrRegister {\r\n        require(\r\n            msg.sender == owner || msg.sender == dataStorage.registryAddress(),\r\n            \"Function can only be called by the owner or the register.\"\r\n        );\r\n        _;\r\n    }\r\n\r\n    /**\r\n      *@dev Called by the DataStorage to create an instance of this contract.\r\n      */\r\n    constructor() \r\n        public\r\n    {\r\n\r\n    }\r\n    \r\n    /**\r\n      * @dev Allows for the set up of the LoveMachine contract. \r\n      *     This function is required as a contract dose not have\r\n      *     an address untill the constructor has finished executing, \r\n      *     so the constructor functionality had to be seporated out \r\n      *     to allow for the various addresses to be created and passed in. \r\n      */\r\n    function constructorFunction(address _dataStorage) \r\n        public\r\n        onlyCallOnce\r\n    {\r\n        dataStorage = DataStorage(_dataStorage);\r\n        owner =  dataStorage.owner();\r\n        callOnce = true;\r\n    }\r\n\r\n    /**\r\n      * @dev Allows only user contracts to buy views. \r\n      * @return bool : If the proccess was successful.\r\n      */\r\n    function buyViews()\r\n        public\r\n        payable\r\n        onlyAUser\r\n        returns(bool)\r\n    {\r\n        uint amountPossible = msg.value / 10**13;\r\n        bool updated = dataStorage.buyViewsSave(msg.sender, amountPossible);\r\n        return updated;\r\n    }\r\n    \r\n    /**\r\n      * @dev Allows only user contracts to sell views.\r\n      * @return bool : If the transfer was successful.\r\n      */\r\n    function sellViews(uint _amount)\r\n        public\r\n        onlyAUser\r\n        returns(bool)\r\n    {\r\n        uint weiValue = _amount * 10**13;\r\n        bool viewsSold = dataStorage.sellViewsSave(msg.sender, _amount);\r\n        msg.sender.transfer(_amount);\r\n        \r\n        return viewsSold;\r\n    }\r\n    \r\n    /**\r\n      * @dev Allows a user to transfer views from their user account \r\n      *     to their creator account.\r\n      * @notice This is needed as a creator dose not have the functionality\r\n      *     of a user. \r\n      * @param _amount : The amount of views they wish to transfer.\r\n      * @return bool : If the transaction was successful.\r\n      */\r\n    function TransferViewsToCreatorAccount(uint _amount)\r\n        public\r\n        onlyAUser\r\n        returns(bool)\r\n    {\r\n        dataStorage.fromUserToCreator(msg.sender, _amount);\r\n        \r\n        return true;\r\n    }\r\n\r\n    /**\r\n      * @dev Allows a creator to send views back to their user acount. \r\n      * @notice This functionality is needed if the creator wants \r\n      *     to sell their views. \r\n      */\r\n    function TransferViewsToUserAccount(uint _amount)\r\n        public\r\n        onlyAUser\r\n        returns(bool)\r\n    {\r\n        dataStorage.fromCreatorToUser(msg.sender, _amount);\r\n        \r\n        return true;\r\n    }\r\n    \r\n    /**\r\n      * @dev Allows a user to like content. \r\n      * @param _contentCreator : The content the user is liking's creator. \r\n      *     _userConsumer : The user who is liking the content. \r\n      */\r\n    function liked(address _contentCreator, address _userConsumer)\r\n        public\r\n        onlyAUser\r\n    {\r\n        dataStorage.storingLikes(DataStorage.ViewsUsed.LIKED, _contentCreator, _userConsumer);\r\n    }\r\n\r\n    /**\r\n      * @dev Allows a user to love content. \r\n      * @param _contentCreator : The content the user is loving's creator. \r\n      *     _userConsumer : The user who is loving the content. \r\n      */\r\n    function loved(address _contentCreator, address _userConsumer)\r\n        public\r\n        onlyAUser\r\n    {\r\n        dataStorage.storingLikes(DataStorage.ViewsUsed.LOVED, _contentCreator, _userConsumer);\r\n    }\r\n    \r\n    /**\r\n      * @dev Allows a user to love content. \r\n      * @param _contentCreator : The content the user is fan loving's creator. \r\n      *     _userConsumer : The user who is fan loving the content. \r\n      */\r\n    function fanLoved(address _contentCreator, address _userConsumer)\r\n        public\r\n        onlyAUser\r\n    {\r\n        dataStorage.storingLikes(DataStorage.ViewsUsed.FANLOVED, _contentCreator, _userConsumer);\r\n    }\r\n    \r\n    /**\r\n      * @dev Allows a creator to create content. \r\n      * @param _addressIPFS : The address of the content in IPFS. \r\n      *     _title : The title of the content. \r\n      *     _description : The 'About' of the content. \r\n      * @return bool : If the transaction was successful. \r\n      */\r\n    function createContentMinter(\r\n        string _addressIPFS, \r\n        string _title, \r\n        string _description\r\n        ) \r\n        public\r\n        payable\r\n        onlyACreator\r\n        returns(bool)\r\n    {\r\n        dataStorage.createContent(msg.sender, _addressIPFS, _title, _description);\r\n        return true; \r\n    }\r\n\r\n    /**\r\n      * @dev Allows the register or owner to replace the minter by kiling it. \r\n      * @notice All the other kill's for contract factories send their \r\n      *     value to this contract, but when this contract is destroyed it \r\n      *     sends its value to the owner. \r\n      */\r\n    function kill() \r\n        public \r\n        ownerOrRegister \r\n    {\r\n        selfdestruct(owner);\r\n    }\r\n}",
  "sourcePath": "C:\\Users\\Veronica Coutts\\Desktop\\Desktop\\Work\\Web3 Projects\\MVP\\mvp\\contracts\\LoveMachine.sol",
  "compiler": {
    "name": "solc",
    "version": "0.4.24+commit.e67f0147.Emscripten.clang"
  },
  "schemaVersion": "2.0.1",
  "updatedAt": "2018-08-25T14:16:26.731Z"
}