{
  "contractName": "LoveMachine",
  "abi": [
    {
      "inputs": [
        {
          "name": "_dataStorage",
          "type": "address"
        }
      ],
      "payable": false,
      "stateMutability": "nonpayable",
      "type": "constructor"
    },
    {
      "constant": false,
      "inputs": [],
      "name": "buyViews",
      "outputs": [
        {
          "name": "",
          "type": "bool"
        }
      ],
      "payable": true,
      "stateMutability": "payable",
      "type": "function"
    },
    {
      "constant": false,
      "inputs": [
        {
          "name": "_amount",
          "type": "uint256"
        }
      ],
      "name": "sellViews",
      "outputs": [
        {
          "name": "",
          "type": "bool"
        }
      ],
      "payable": false,
      "stateMutability": "nonpayable",
      "type": "function"
    },
    {
      "constant": false,
      "inputs": [
        {
          "name": "_amount",
          "type": "uint256"
        }
      ],
      "name": "TransferViewsToCreatorAccount",
      "outputs": [
        {
          "name": "",
          "type": "bool"
        }
      ],
      "payable": false,
      "stateMutability": "nonpayable",
      "type": "function"
    },
    {
      "constant": false,
      "inputs": [
        {
          "name": "_amount",
          "type": "uint256"
        }
      ],
      "name": "TransferViewsToUserAccount",
      "outputs": [
        {
          "name": "",
          "type": "bool"
        }
      ],
      "payable": false,
      "stateMutability": "nonpayable",
      "type": "function"
    },
    {
      "constant": false,
      "inputs": [
        {
          "name": "_contentCreator",
          "type": "address"
        },
        {
          "name": "_userConsumer",
          "type": "address"
        }
      ],
      "name": "liked",
      "outputs": [],
      "payable": false,
      "stateMutability": "nonpayable",
      "type": "function"
    },
    {
      "constant": false,
      "inputs": [
        {
          "name": "_contentCreator",
          "type": "address"
        },
        {
          "name": "_userConsumer",
          "type": "address"
        }
      ],
      "name": "loved",
      "outputs": [],
      "payable": false,
      "stateMutability": "nonpayable",
      "type": "function"
    },
    {
      "constant": false,
      "inputs": [
        {
          "name": "_contentCreator",
          "type": "address"
        },
        {
          "name": "_userConsumer",
          "type": "address"
        }
      ],
      "name": "fanLoved",
      "outputs": [],
      "payable": false,
      "stateMutability": "nonpayable",
      "type": "function"
    },
    {
      "constant": false,
      "inputs": [
        {
          "name": "_addressIPFS",
          "type": "string"
        },
        {
          "name": "_title",
          "type": "string"
        },
        {
          "name": "_description",
          "type": "string"
        }
      ],
      "name": "createContentMinter",
      "outputs": [
        {
          "name": "",
          "type": "bool"
        }
      ],
      "payable": true,
      "stateMutability": "payable",
      "type": "function"
    },
    {
      "constant": false,
      "inputs": [],
      "name": "kill",
      "outputs": [],
      "payable": false,
      "stateMutability": "nonpayable",
      "type": "function"
    }
  ],
  "bytecode": "0x60806040526001805460a060020a62ffffff021916905534801561002257600080fd5b50604051602080610ef7833981016040818152915160008054600160a060020a031916600160a060020a03808416919091178083557f8da5cb5b000000000000000000000000000000000000000000000000000000008552945192941692638da5cb5b9260048083019360209383900390910190829087803b1580156100a757600080fd5b505af11580156100bb573d6000803e3d6000fd5b505050506040513d60208110156100d157600080fd5b50516001805460b060020a60ff0219600160a060020a03909316600160a060020a0319909116179190911676010000000000000000000000000000000000000000000017905550610dd0806101276000396000f30060806040526004361061007f5763ffffffff60e060020a60003504166314d0371381146100845780632946014c146100ad57806334700126146100d457806341c0e1b5146100fb5780634cad552b1461011057806367526c4d1461013c578063ec79293214610154578063fbfa1c671461016c578063fe8ef25e14610174575b600080fd5b34801561009057600080fd5b506100ab600160a060020a036004358116906024351661023c565b005b3480156100b957600080fd5b506100ab600160a060020a0360043581169060243516610382565b3480156100e057600080fd5b506100ab600160a060020a0360043581169060243516610458565b34801561010757600080fd5b506100ab61052c565b34801561011c57600080fd5b5061012860043561066b565b604080519115158252519081900360200190f35b34801561014857600080fd5b506101286004356107da565b34801561016057600080fd5b50610128600435610906565b6101286109fd565b6040805160206004803580820135601f810184900484028501840190955284845261012894369492936024939284019190819084018382808284375050604080516020601f89358b018035918201839004830284018301909452808352979a99988101979196509182019450925082915084018382808284375050604080516020601f89358b018035918201839004830284018301909452808352979a999881019791965091820194509250829150840183828082843750949750610b3b9650505050505050565b600080546040805160e060020a634209fff10281523360048201529051600160a060020a0390921691634209fff19160248082019260209290919082900301818787803b15801561028c57600080fd5b505af11580156102a0573d6000803e3d6000fd5b505050506040513d60208110156102b657600080fd5b505190508015156102c657600080fd5b6000546040517f5b48d7fb000000000000000000000000000000000000000000000000000000008152600160a060020a0390911690635b48d7fb906002908690869060040180845b60ff16815260200183600160a060020a0316600160a060020a0316815260200182600160a060020a0316600160a060020a031681526020019350505050600060405180830381600087803b15801561036557600080fd5b505af1158015610379573d6000803e3d6000fd5b50505050505050565b600080546040805160e060020a634209fff10281523360048201529051600160a060020a0390921691634209fff19160248082019260209290919082900301818787803b1580156103d257600080fd5b505af11580156103e6573d6000803e3d6000fd5b505050506040513d60208110156103fc57600080fd5b5051905080151561040c57600080fd5b6000546040517f5b48d7fb000000000000000000000000000000000000000000000000000000008152600160a060020a0390911690635b48d7fb9060019086908690600401808461030e565b600080546040805160e060020a634209fff10281523360048201529051600160a060020a0390921691634209fff19160248082019260209290919082900301818787803b1580156104a857600080fd5b505af11580156104bc573d6000803e3d6000fd5b505050506040513d60208110156104d257600080fd5b505190508015156104e257600080fd5b600080546040517f5b48d7fb000000000000000000000000000000000000000000000000000000008152600160a060020a0390911691635b48d7fb9186908690600401808461030e565b600154600160a060020a03163314806105ca57506000809054906101000a9004600160a060020a0316600160a060020a031663ed9aab516040518163ffffffff1660e060020a028152600401602060405180830381600087803b15801561059257600080fd5b505af11580156105a6573d6000803e3d6000fd5b505050506040513d60208110156105bc57600080fd5b5051600160a060020a031633145b151561065d57604080517f08c379a000000000000000000000000000000000000000000000000000000000815260206004820152603960248201527f46756e6374696f6e2063616e206f6e6c792062652063616c6c6564206279207460448201527f6865206f776e6572206f72207468652072656769737465722e00000000000000606482015290519081900360840190fd5b600154600160a060020a0316ff5b600080546040805160e060020a634209fff10281523360048201529051839283928392600160a060020a0390921691634209fff19160248082019260209290919082900301818787803b1580156106c157600080fd5b505af11580156106d5573d6000803e3d6000fd5b505050506040513d60208110156106eb57600080fd5b505190508015156106fb57600080fd5b60008054604080517fbf57df090000000000000000000000000000000000000000000000000000000081523360048201526024810189905290516509184e72a00089029650600160a060020a039092169263bf57df09926044808401936020939083900390910190829087803b15801561077457600080fd5b505af1158015610788573d6000803e3d6000fd5b505050506040513d602081101561079e57600080fd5b5051604051909250339084156108fc029085906000818181858888f193505050501580156107d0573d6000803e3d6000fd5b5090949350505050565b600080546040805160e060020a634209fff102815233600482015290518392600160a060020a031691634209fff191602480830192602092919082900301818787803b15801561082957600080fd5b505af115801561083d573d6000803e3d6000fd5b505050506040513d602081101561085357600080fd5b5051905080151561086357600080fd5b60008054604080517f1ddf8358000000000000000000000000000000000000000000000000000000008152336004820152602481018790529051600160a060020a0390921692631ddf8358926044808401936020939083900390910190829087803b1580156108d157600080fd5b505af11580156108e5573d6000803e3d6000fd5b505050506040513d60208110156108fb57600080fd5b506001949350505050565b600080546040805160e060020a634209fff102815233600482015290518392600160a060020a031691634209fff191602480830192602092919082900301818787803b15801561095557600080fd5b505af1158015610969573d6000803e3d6000fd5b505050506040513d602081101561097f57600080fd5b5051905080151561098f57600080fd5b60008054604080517f6db08bd7000000000000000000000000000000000000000000000000000000008152336004820152602481018790529051600160a060020a0390921692636db08bd7926044808401936020939083900390910190829087803b1580156108d157600080fd5b600080546040805160e060020a634209fff10281523360048201529051839283928392600160a060020a0390921691634209fff19160248082019260209290919082900301818787803b158015610a5357600080fd5b505af1158015610a67573d6000803e3d6000fd5b505050506040513d6020811015610a7d57600080fd5b50519050801515610a8d57600080fd5b6509184e72a0003460008054604080517f4604920f00000000000000000000000000000000000000000000000000000000815233600482015294909304602485018190529251929650600160a060020a031692634604920f9260448083019360209383900390910190829087803b158015610b0757600080fd5b505af1158015610b1b573d6000803e3d6000fd5b505050506040513d6020811015610b3157600080fd5b5051949350505050565b60008054604080517fefd4606500000000000000000000000000000000000000000000000000000000815233600482015290518392600160a060020a03169163efd4606591602480830192602092919082900301818787803b158015610ba057600080fd5b505af1158015610bb4573d6000803e3d6000fd5b505050506040513d6020811015610bca57600080fd5b50519050801515610bda57600080fd5b6000809054906101000a9004600160a060020a0316600160a060020a0316636e6ac45a338787876040518563ffffffff1660e060020a0281526004018085600160a060020a0316600160a060020a03168152602001806020018060200180602001848103845287818151815260200191508051906020019080838360005b83811015610c70578181015183820152602001610c58565b50505050905090810190601f168015610c9d5780820380516001836020036101000a031916815260200191505b50848103835286518152865160209182019188019080838360005b83811015610cd0578181015183820152602001610cb8565b50505050905090810190601f168015610cfd5780820380516001836020036101000a031916815260200191505b50848103825285518152855160209182019187019080838360005b83811015610d30578181015183820152602001610d18565b50505050905090810190601f168015610d5d5780820380516001836020036101000a031916815260200191505b50975050505050505050600060405180830381600087803b158015610d8157600080fd5b505af1158015610d95573d6000803e3d6000fd5b506001989750505050505050505600a165627a7a72305820d4566136d5a18e44b6ddfab035d1133939860b123ffa66836dd8f3b04cea21b20029",
  "source": "pragma solidity 0.4.24;\r\n\r\nimport \"./DataStorage.sol\";\r\nimport \"./Register.sol\";\r\nimport \"./User.sol\";\r\nimport \"./ContentCreator.sol\";\r\n\r\ncontract LoveMachine {\r\n    DataStorage dataStorage;\r\n    address owner;\r\n    \r\n    enum viewsUsed {LIKED, LOVED, FANLOVED}\r\n\r\n    bool emergencyStop = false;\r\n    bool pause = false;\r\n    bool callOnce = false;\r\n\r\n    //Ensures only the owner can call the function.\r\n    modifier onlyOwner {\r\n        require(msg.sender == owner);\r\n        _;\r\n    }\r\n\r\n    //Ensures that the function will not work in emergency.\r\n    modifier stopInEmergency() {\r\n        require(!emergencyStop);\r\n        _;\r\n    }\r\n\r\n    //Ensures the contract dose not work untill it is set up.\r\n    modifier pauseModifier {\r\n        require(!pause);\r\n        _;\r\n    }\r\n    \r\n    //Ensures set up only ever runs once. \r\n    modifier onlyCallOnce {\r\n        require(!callOnce, \"This contract has already been set up\");\r\n        _;\r\n    }\r\n    \r\n    //Ensures only a user can call this function. \r\n    modifier onlyAUser {\r\n        bool user = dataStorage.isUser(msg.sender);\r\n        require(user);\r\n        _;\r\n    }\r\n    \r\n    //Ensures address is that of a users.\r\n    modifier onlyAUserAddress(address _addressToCheck) {\r\n        bool user = dataStorage.isUser(_addressToCheck);\r\n        require(user, \"Address is not a user\");\r\n        _;\r\n    }\r\n    \r\n    //Ensures only a creator can call this function.\r\n    modifier onlyACreator {\r\n        bool creator = dataStorage.isCreator(msg.sender);\r\n        require(creator);\r\n        _;\r\n    }\r\n    \r\n    //Ensures address is that of a creators. \r\n    modifier onlyACreatorAddress(address _addressToCheck) {\r\n        bool creator = dataStorage.isCreator(_addressToCheck);\r\n        require(creator);\r\n        _;\r\n    }\r\n\r\n    //Ensures only the owner or register can call the function. \r\n    modifier ownerOrRegister {\r\n        require(\r\n            msg.sender == owner || msg.sender == dataStorage.registryAddress(),\r\n            \"Function can only be called by the owner or the register.\"\r\n        );\r\n        _;\r\n    }\r\n\r\n    /**\r\n      *@dev Called by the DataStorage to create an instance of this contract.\r\n      */\r\n    constructor(address _dataStorage) \r\n        public\r\n    {\r\n        dataStorage = DataStorage(_dataStorage);\r\n        owner =  dataStorage.owner();\r\n        callOnce = true;\r\n    }\r\n    \r\n    // /**\r\n    //   * @dev Allows for the set up of the LoveMachine contract. \r\n    //   *     This function is required as a contract dose not have\r\n    //   *     an address untill the constructor has finished executing, \r\n    //   *     so the constructor functionality had to be seporated out \r\n    //   *     to allow for the various addresses to be created and passed in. \r\n    //   */\r\n    // function constructorFunction(address _dataStorage) \r\n    //     public\r\n    //     onlyCallOnce\r\n    // {\r\n    //     dataStorage = DataStorage(_dataStorage);\r\n    //     owner =  dataStorage.owner();\r\n    //     callOnce = true;\r\n    // }\r\n\r\n    /**\r\n      * @dev Allows only user contracts to buy views. \r\n      * @return bool : If the proccess was successful.\r\n      */\r\n    function buyViews()\r\n        public\r\n        payable\r\n        onlyAUser\r\n        returns(bool)\r\n    {\r\n        uint amountPossible = msg.value / 10**13;\r\n        bool updated = dataStorage.buyViewsSave(msg.sender, amountPossible);\r\n        return updated;\r\n    }\r\n    \r\n    /**\r\n      * @dev Allows only user contracts to sell views.\r\n      * @return bool : If the transfer was successful.\r\n      */\r\n    function sellViews(uint _amount)\r\n        public\r\n        onlyAUser\r\n        returns(bool)\r\n    {\r\n        uint weiValue = _amount * 10**13;\r\n        bool viewsSold = dataStorage.sellViewsSave(msg.sender, _amount);\r\n        msg.sender.transfer(weiValue);\r\n        \r\n        return viewsSold;\r\n    }\r\n    \r\n    /**\r\n      * @dev Allows a user to transfer views from their user account \r\n      *     to their creator account.\r\n      * @notice This is needed as a creator dose not have the functionality\r\n      *     of a user. \r\n      * @param _amount : The amount of views they wish to transfer.\r\n      * @return bool : If the transaction was successful.\r\n      */\r\n    function TransferViewsToCreatorAccount(uint _amount)\r\n        public\r\n        onlyAUser\r\n        returns(bool)\r\n    {\r\n        dataStorage.fromUserToCreator(msg.sender, _amount);\r\n        \r\n        return true;\r\n    }\r\n\r\n    /**\r\n      * @dev Allows a creator to send views back to their user acount. \r\n      * @notice This functionality is needed if the creator wants \r\n      *     to sell their views. \r\n      */\r\n    function TransferViewsToUserAccount(uint _amount)\r\n        public\r\n        onlyAUser\r\n        returns(bool)\r\n    {\r\n        dataStorage.fromCreatorToUser(msg.sender, _amount);\r\n        \r\n        return true;\r\n    }\r\n    \r\n    /**\r\n      * @dev Allows a user to like content. \r\n      * @param _contentCreator : The content the user is liking's creator. \r\n      *     _userConsumer : The user who is liking the content. \r\n      */\r\n    function liked(address _contentCreator, address _userConsumer)\r\n        public\r\n        onlyAUser\r\n    {\r\n        dataStorage.storingLikes(DataStorage.ViewsUsed.LIKED, _contentCreator, _userConsumer);\r\n    }\r\n\r\n    /**\r\n      * @dev Allows a user to love content. \r\n      * @param _contentCreator : The content the user is loving's creator. \r\n      *     _userConsumer : The user who is loving the content. \r\n      */\r\n    function loved(address _contentCreator, address _userConsumer)\r\n        public\r\n        onlyAUser\r\n    {\r\n        dataStorage.storingLikes(DataStorage.ViewsUsed.LOVED, _contentCreator, _userConsumer);\r\n    }\r\n    \r\n    /**\r\n      * @dev Allows a user to love content. \r\n      * @param _contentCreator : The content the user is fan loving's creator. \r\n      *     _userConsumer : The user who is fan loving the content. \r\n      */\r\n    function fanLoved(address _contentCreator, address _userConsumer)\r\n        public\r\n        onlyAUser\r\n    {\r\n        dataStorage.storingLikes(DataStorage.ViewsUsed.FANLOVED, _contentCreator, _userConsumer);\r\n    }\r\n    \r\n    /**\r\n      * @dev Allows a creator to create content. \r\n      * @param _addressIPFS : The address of the content in IPFS. \r\n      *     _title : The title of the content. \r\n      *     _description : The 'About' of the content. \r\n      * @return bool : If the transaction was successful. \r\n      */\r\n    function createContentMinter(\r\n        string _addressIPFS, \r\n        string _title, \r\n        string _description\r\n        ) \r\n        public\r\n        payable\r\n        onlyACreator\r\n        returns(bool)\r\n    {\r\n        dataStorage.createContent(msg.sender, _addressIPFS, _title, _description);\r\n        return true; \r\n    }\r\n\r\n    /**\r\n      * @dev Allows the register or owner to replace the minter by kiling it. \r\n      * @notice All the other kill's for contract factories send their \r\n      *     value to this contract, but when this contract is destroyed it \r\n      *     sends its value to the owner. \r\n      */\r\n    function kill() \r\n        public \r\n        ownerOrRegister \r\n    {\r\n        selfdestruct(owner);\r\n    }\r\n}",
  "sourcePath": "C:\\Users\\Veronica Coutts\\Desktop\\Desktop\\Work\\Web3 Projects\\MVP\\mvp\\contracts\\LoveMachine.sol",
  "compiler": {
    "name": "solc",
    "version": "0.4.24+commit.e67f0147.Emscripten.clang"
  },
  "schemaVersion": "2.0.1",
  "updatedAt": "2018-08-26T12:30:03.278Z"
}