{
  "contractName": "LoveMachine",
  "abi": [
    {
      "inputs": [],
      "payable": false,
      "stateMutability": "nonpayable",
      "type": "constructor"
    },
    {
      "constant": false,
      "inputs": [
        {
          "name": "_dataStorage",
          "type": "address"
        }
      ],
      "name": "constructorFunction",
      "outputs": [],
      "payable": false,
      "stateMutability": "nonpayable",
      "type": "function"
    },
    {
      "constant": false,
      "inputs": [],
      "name": "buyViews",
      "outputs": [
        {
          "name": "",
          "type": "bool"
        }
      ],
      "payable": true,
      "stateMutability": "payable",
      "type": "function"
    },
    {
      "constant": false,
      "inputs": [
        {
          "name": "_amount",
          "type": "uint256"
        }
      ],
      "name": "sellViews",
      "outputs": [
        {
          "name": "",
          "type": "bool"
        }
      ],
      "payable": false,
      "stateMutability": "nonpayable",
      "type": "function"
    },
    {
      "constant": false,
      "inputs": [
        {
          "name": "_amount",
          "type": "uint256"
        }
      ],
      "name": "TransferViewsToCreatorAccount",
      "outputs": [
        {
          "name": "",
          "type": "bool"
        }
      ],
      "payable": false,
      "stateMutability": "nonpayable",
      "type": "function"
    },
    {
      "constant": false,
      "inputs": [
        {
          "name": "_amount",
          "type": "uint256"
        }
      ],
      "name": "TransferViewsToUserAccount",
      "outputs": [
        {
          "name": "",
          "type": "bool"
        }
      ],
      "payable": false,
      "stateMutability": "nonpayable",
      "type": "function"
    },
    {
      "constant": false,
      "inputs": [
        {
          "name": "_contentCreator",
          "type": "address"
        },
        {
          "name": "_userConsumer",
          "type": "address"
        }
      ],
      "name": "liked",
      "outputs": [],
      "payable": false,
      "stateMutability": "nonpayable",
      "type": "function"
    },
    {
      "constant": false,
      "inputs": [
        {
          "name": "_contentCreator",
          "type": "address"
        },
        {
          "name": "_userConsumer",
          "type": "address"
        }
      ],
      "name": "loved",
      "outputs": [],
      "payable": false,
      "stateMutability": "nonpayable",
      "type": "function"
    },
    {
      "constant": false,
      "inputs": [
        {
          "name": "_contentCreator",
          "type": "address"
        },
        {
          "name": "_userConsumer",
          "type": "address"
        }
      ],
      "name": "fanLoved",
      "outputs": [],
      "payable": false,
      "stateMutability": "nonpayable",
      "type": "function"
    },
    {
      "constant": false,
      "inputs": [
        {
          "name": "_addressIPFS",
          "type": "string"
        },
        {
          "name": "_title",
          "type": "string"
        },
        {
          "name": "_description",
          "type": "string"
        }
      ],
      "name": "createContentMinter",
      "outputs": [
        {
          "name": "",
          "type": "bool"
        }
      ],
      "payable": true,
      "stateMutability": "payable",
      "type": "function"
    },
    {
      "constant": false,
      "inputs": [],
      "name": "kill",
      "outputs": [],
      "payable": false,
      "stateMutability": "nonpayable",
      "type": "function"
    }
  ],
  "bytecode": "0x60806040526001805460a060020a62ffffff021916905534801561002257600080fd5b50610fc2806100326000396000f30060806040526004361061008a5763ffffffff60e060020a60003504166314d03713811461008f5780632946014c146100b857806334700126146100df57806335ac4ccf1461010657806341c0e1b5146101275780634cad552b1461013c57806367526c4d14610168578063ec79293214610180578063fbfa1c6714610198578063fe8ef25e146101a0575b600080fd5b34801561009b57600080fd5b506100b6600160a060020a0360043581169060243516610268565b005b3480156100c457600080fd5b506100b6600160a060020a03600435811690602435166103ae565b3480156100eb57600080fd5b506100b6600160a060020a0360043581169060243516610484565b34801561011257600080fd5b506100b6600160a060020a0360043516610558565b34801561013357600080fd5b506100b661071e565b34801561014857600080fd5b5061015460043561085d565b604080519115158252519081900360200190f35b34801561017457600080fd5b506101546004356109cc565b34801561018c57600080fd5b50610154600435610af8565b610154610bef565b6040805160206004803580820135601f810184900484028501840190955284845261015494369492936024939284019190819084018382808284375050604080516020601f89358b018035918201839004830284018301909452808352979a99988101979196509182019450925082915084018382808284375050604080516020601f89358b018035918201839004830284018301909452808352979a999881019791965091820194509250829150840183828082843750949750610d2d9650505050505050565b600080546040805160e060020a634209fff10281523360048201529051600160a060020a0390921691634209fff19160248082019260209290919082900301818787803b1580156102b857600080fd5b505af11580156102cc573d6000803e3d6000fd5b505050506040513d60208110156102e257600080fd5b505190508015156102f257600080fd5b6000546040517f5b48d7fb000000000000000000000000000000000000000000000000000000008152600160a060020a0390911690635b48d7fb906002908690869060040180845b60ff16815260200183600160a060020a0316600160a060020a0316815260200182600160a060020a0316600160a060020a031681526020019350505050600060405180830381600087803b15801561039157600080fd5b505af11580156103a5573d6000803e3d6000fd5b50505050505050565b600080546040805160e060020a634209fff10281523360048201529051600160a060020a0390921691634209fff19160248082019260209290919082900301818787803b1580156103fe57600080fd5b505af1158015610412573d6000803e3d6000fd5b505050506040513d602081101561042857600080fd5b5051905080151561043857600080fd5b6000546040517f5b48d7fb000000000000000000000000000000000000000000000000000000008152600160a060020a0390911690635b48d7fb9060019086908690600401808461033a565b600080546040805160e060020a634209fff10281523360048201529051600160a060020a0390921691634209fff19160248082019260209290919082900301818787803b1580156104d457600080fd5b505af11580156104e8573d6000803e3d6000fd5b505050506040513d60208110156104fe57600080fd5b5051905080151561050e57600080fd5b600080546040517f5b48d7fb000000000000000000000000000000000000000000000000000000008152600160a060020a0390911691635b48d7fb9186908690600401808461033a565b600154760100000000000000000000000000000000000000000000900460ff161561060a57604080517f08c379a000000000000000000000000000000000000000000000000000000000815260206004820152602560248201527f5468697320636f6e74726163742068617320616c7265616479206265656e207360448201527f6574207570000000000000000000000000000000000000000000000000000000606482015290519081900360840190fd5b6000805473ffffffffffffffffffffffffffffffffffffffff1916600160a060020a0383811691909117808355604080517f8da5cb5b00000000000000000000000000000000000000000000000000000000815290519190921692638da5cb5b92600480820193602093909283900390910190829087803b15801561068e57600080fd5b505af11580156106a2573d6000803e3d6000fd5b505050506040513d60208110156106b857600080fd5b50516001805476ff0000000000000000000000000000000000000000000019600160a060020a0390931673ffffffffffffffffffffffffffffffffffffffff19909116179190911676010000000000000000000000000000000000000000000017905550565b600154600160a060020a03163314806107bc57506000809054906101000a9004600160a060020a0316600160a060020a031663ed9aab516040518163ffffffff1660e060020a028152600401602060405180830381600087803b15801561078457600080fd5b505af1158015610798573d6000803e3d6000fd5b505050506040513d60208110156107ae57600080fd5b5051600160a060020a031633145b151561084f57604080517f08c379a000000000000000000000000000000000000000000000000000000000815260206004820152603960248201527f46756e6374696f6e2063616e206f6e6c792062652063616c6c6564206279207460448201527f6865206f776e6572206f72207468652072656769737465722e00000000000000606482015290519081900360840190fd5b600154600160a060020a0316ff5b600080546040805160e060020a634209fff10281523360048201529051839283928392600160a060020a0390921691634209fff19160248082019260209290919082900301818787803b1580156108b357600080fd5b505af11580156108c7573d6000803e3d6000fd5b505050506040513d60208110156108dd57600080fd5b505190508015156108ed57600080fd5b60008054604080517fbf57df090000000000000000000000000000000000000000000000000000000081523360048201526024810189905290516509184e72a00089029650600160a060020a039092169263bf57df09926044808401936020939083900390910190829087803b15801561096657600080fd5b505af115801561097a573d6000803e3d6000fd5b505050506040513d602081101561099057600080fd5b5051604051909250339086156108fc029087906000818181858888f193505050501580156109c2573d6000803e3d6000fd5b5090949350505050565b600080546040805160e060020a634209fff102815233600482015290518392600160a060020a031691634209fff191602480830192602092919082900301818787803b158015610a1b57600080fd5b505af1158015610a2f573d6000803e3d6000fd5b505050506040513d6020811015610a4557600080fd5b50519050801515610a5557600080fd5b60008054604080517f1ddf8358000000000000000000000000000000000000000000000000000000008152336004820152602481018790529051600160a060020a0390921692631ddf8358926044808401936020939083900390910190829087803b158015610ac357600080fd5b505af1158015610ad7573d6000803e3d6000fd5b505050506040513d6020811015610aed57600080fd5b506001949350505050565b600080546040805160e060020a634209fff102815233600482015290518392600160a060020a031691634209fff191602480830192602092919082900301818787803b158015610b4757600080fd5b505af1158015610b5b573d6000803e3d6000fd5b505050506040513d6020811015610b7157600080fd5b50519050801515610b8157600080fd5b60008054604080517f6db08bd7000000000000000000000000000000000000000000000000000000008152336004820152602481018790529051600160a060020a0390921692636db08bd7926044808401936020939083900390910190829087803b158015610ac357600080fd5b600080546040805160e060020a634209fff10281523360048201529051839283928392600160a060020a0390921691634209fff19160248082019260209290919082900301818787803b158015610c4557600080fd5b505af1158015610c59573d6000803e3d6000fd5b505050506040513d6020811015610c6f57600080fd5b50519050801515610c7f57600080fd5b6509184e72a0003460008054604080517f4604920f00000000000000000000000000000000000000000000000000000000815233600482015294909304602485018190529251929650600160a060020a031692634604920f9260448083019360209383900390910190829087803b158015610cf957600080fd5b505af1158015610d0d573d6000803e3d6000fd5b505050506040513d6020811015610d2357600080fd5b5051949350505050565b60008054604080517fefd4606500000000000000000000000000000000000000000000000000000000815233600482015290518392600160a060020a03169163efd4606591602480830192602092919082900301818787803b158015610d9257600080fd5b505af1158015610da6573d6000803e3d6000fd5b505050506040513d6020811015610dbc57600080fd5b50519050801515610dcc57600080fd5b6000809054906101000a9004600160a060020a0316600160a060020a0316636e6ac45a338787876040518563ffffffff1660e060020a0281526004018085600160a060020a0316600160a060020a03168152602001806020018060200180602001848103845287818151815260200191508051906020019080838360005b83811015610e62578181015183820152602001610e4a565b50505050905090810190601f168015610e8f5780820380516001836020036101000a031916815260200191505b50848103835286518152865160209182019188019080838360005b83811015610ec2578181015183820152602001610eaa565b50505050905090810190601f168015610eef5780820380516001836020036101000a031916815260200191505b50848103825285518152855160209182019187019080838360005b83811015610f22578181015183820152602001610f0a565b50505050905090810190601f168015610f4f5780820380516001836020036101000a031916815260200191505b50975050505050505050600060405180830381600087803b158015610f7357600080fd5b505af1158015610f87573d6000803e3d6000fd5b506001989750505050505050505600a165627a7a7230582084e1e1998981f313967ec715daac7f4660d740cf7059638eb905969abc0f636a0029",
  "source": "pragma solidity 0.4.24;\r\n\r\nimport \"./DataStorage.sol\";\r\nimport \"./Register.sol\";\r\nimport \"./User.sol\";\r\nimport \"./ContentCreator.sol\";\r\n\r\ncontract LoveMachine {\r\n    DataStorage dataStorage;\r\n    address owner;\r\n    \r\n    enum viewsUsed {LIKED, LOVED, FANLOVED}\r\n\r\n    bool emergencyStop = false;\r\n    bool pause = false;\r\n    bool callOnce = false;\r\n\r\n    //Ensures only the owner can call the function.\r\n    modifier onlyOwner {\r\n        require(msg.sender == owner);\r\n        _;\r\n    }\r\n\r\n    //Ensures that the function will not work in emergency.\r\n    modifier stopInEmergency() {\r\n        require(!emergencyStop);\r\n        _;\r\n    }\r\n\r\n    //Ensures the contract dose not work untill it is set up.\r\n    modifier pauseModifier {\r\n        require(!pause);\r\n        _;\r\n    }\r\n    \r\n    //Ensures set up only ever runs once. \r\n    modifier onlyCallOnce {\r\n        require(!callOnce, \"This contract has already been set up\");\r\n        _;\r\n    }\r\n    \r\n    //Ensures only a user can call this function. \r\n    modifier onlyAUser {\r\n        bool user = dataStorage.isUser(msg.sender);\r\n        require(user);\r\n        _;\r\n    }\r\n    \r\n    //Ensures address is that of a users.\r\n    modifier onlyAUserAddress(address _addressToCheck) {\r\n        bool user = dataStorage.isUser(_addressToCheck);\r\n        require(user, \"Address is not a user\");\r\n        _;\r\n    }\r\n    \r\n    //Ensures only a creator can call this function.\r\n    modifier onlyACreator {\r\n        bool creator = dataStorage.isCreator(msg.sender);\r\n        require(creator);\r\n        _;\r\n    }\r\n    \r\n    //Ensures address is that of a creators. \r\n    modifier onlyACreatorAddress(address _addressToCheck) {\r\n        bool creator = dataStorage.isCreator(_addressToCheck);\r\n        require(creator);\r\n        _;\r\n    }\r\n\r\n    //Ensures only the owner or register can call the function. \r\n    modifier ownerOrRegister {\r\n        require(\r\n            msg.sender == owner || msg.sender == dataStorage.registryAddress(),\r\n            \"Function can only be called by the owner or the register.\"\r\n        );\r\n        _;\r\n    }\r\n\r\n    /**\r\n      *@dev Called by the DataStorage to create an instance of this contract.\r\n      */\r\n    constructor() \r\n        public\r\n    {\r\n\r\n    }\r\n    \r\n    /**\r\n      * @dev Allows for the set up of the LoveMachine contract. \r\n      *     This function is required as a contract dose not have\r\n      *     an address untill the constructor has finished executing, \r\n      *     so the constructor functionality had to be seporated out \r\n      *     to allow for the various addresses to be created and passed in. \r\n      */\r\n    function constructorFunction(address _dataStorage) \r\n        public\r\n        onlyCallOnce\r\n    {\r\n        dataStorage = DataStorage(_dataStorage);\r\n        owner =  dataStorage.owner();\r\n        callOnce = true;\r\n    }\r\n\r\n    /**\r\n      * @dev Allows only user contracts to buy views. \r\n      * @return bool : If the proccess was successful.\r\n      */\r\n    function buyViews()\r\n        public\r\n        payable\r\n        onlyAUser\r\n        returns(bool)\r\n    {\r\n        uint amountPossible = msg.value / 10**13;\r\n        bool updated = dataStorage.buyViewsSave(msg.sender, amountPossible);\r\n        return updated;\r\n    }\r\n    \r\n    /**\r\n      * @dev Allows only user contracts to sell views.\r\n      * @return bool : If the transfer was successful.\r\n      */\r\n    function sellViews(uint _amount)\r\n        public\r\n        onlyAUser\r\n        returns(bool)\r\n    {\r\n        uint weiValue = _amount * 10**13;\r\n        bool viewsSold = dataStorage.sellViewsSave(msg.sender, _amount);\r\n        msg.sender.transfer(_amount);\r\n        \r\n        return viewsSold;\r\n    }\r\n    \r\n    /**\r\n      * @dev Allows a user to transfer views from their user account \r\n      *     to their creator account.\r\n      * @notice This is needed as a creator dose not have the functionality\r\n      *     of a user. \r\n      * @param _amount : The amount of views they wish to transfer.\r\n      * @return bool : If the transaction was successful.\r\n      */\r\n    function TransferViewsToCreatorAccount(uint _amount)\r\n        public\r\n        onlyAUser\r\n        returns(bool)\r\n    {\r\n        dataStorage.fromUserToCreator(msg.sender, _amount);\r\n        \r\n        return true;\r\n    }\r\n\r\n    /**\r\n      * @dev Allows a creator to send views back to their user acount. \r\n      * @notice This functionality is needed if the creator wants \r\n      *     to sell their views. \r\n      */\r\n    function TransferViewsToUserAccount(uint _amount)\r\n        public\r\n        onlyAUser\r\n        returns(bool)\r\n    {\r\n        dataStorage.fromCreatorToUser(msg.sender, _amount);\r\n        \r\n        return true;\r\n    }\r\n    \r\n    /**\r\n      * @dev Allows a user to like content. \r\n      * @param _contentCreator : The content the user is liking's creator. \r\n      *     _userConsumer : The user who is liking the content. \r\n      */\r\n    function liked(address _contentCreator, address _userConsumer)\r\n        public\r\n        onlyAUser\r\n    {\r\n        dataStorage.storingLikes(DataStorage.ViewsUsed.LIKED, _contentCreator, _userConsumer);\r\n    }\r\n\r\n    /**\r\n      * @dev Allows a user to love content. \r\n      * @param _contentCreator : The content the user is loving's creator. \r\n      *     _userConsumer : The user who is loving the content. \r\n      */\r\n    function loved(address _contentCreator, address _userConsumer)\r\n        public\r\n        onlyAUser\r\n    {\r\n        dataStorage.storingLikes(DataStorage.ViewsUsed.LOVED, _contentCreator, _userConsumer);\r\n    }\r\n    \r\n    /**\r\n      * @dev Allows a user to love content. \r\n      * @param _contentCreator : The content the user is fan loving's creator. \r\n      *     _userConsumer : The user who is fan loving the content. \r\n      */\r\n    function fanLoved(address _contentCreator, address _userConsumer)\r\n        public\r\n        onlyAUser\r\n    {\r\n        dataStorage.storingLikes(DataStorage.ViewsUsed.FANLOVED, _contentCreator, _userConsumer);\r\n    }\r\n    \r\n    /**\r\n      * @dev Allows a creator to create content. \r\n      * @param _addressIPFS : The address of the content in IPFS. \r\n      *     _title : The title of the content. \r\n      *     _description : The 'About' of the content. \r\n      * @return bool : If the transaction was successful. \r\n      */\r\n    function createContentMinter(\r\n        string _addressIPFS, \r\n        string _title, \r\n        string _description\r\n        ) \r\n        public\r\n        payable\r\n        onlyACreator\r\n        returns(bool)\r\n    {\r\n        dataStorage.createContent(msg.sender, _addressIPFS, _title, _description);\r\n        return true; \r\n    }\r\n\r\n    /**\r\n      * @dev Allows the register or owner to replace the minter by kiling it. \r\n      * @notice All the other kill's for contract factories send their \r\n      *     value to this contract, but when this contract is destroyed it \r\n      *     sends its value to the owner. \r\n      */\r\n    function kill() \r\n        public \r\n        ownerOrRegister \r\n    {\r\n        selfdestruct(owner);\r\n    }\r\n}",
  "sourcePath": "C:\\Users\\Veronica Coutts\\Desktop\\Desktop\\Work\\Web3 Projects\\MVP\\mvp\\contracts\\LoveMachine.sol",
  "compiler": {
    "name": "solc",
    "version": "0.4.24+commit.e67f0147.Emscripten.clang"
  },
  "schemaVersion": "2.0.1",
  "updatedAt": "2018-08-25T21:07:59.466Z"
}