{
  "contractName": "LoveMachine",
  "abi": [
    {
      "inputs": [],
      "payable": false,
      "stateMutability": "nonpayable",
      "type": "constructor"
    },
    {
      "constant": false,
      "inputs": [
        {
          "name": "_dataStorage",
          "type": "address"
        },
        {
          "name": "_owner",
          "type": "address"
        }
      ],
      "name": "constructorFunction",
      "outputs": [],
      "payable": false,
      "stateMutability": "nonpayable",
      "type": "function"
    },
    {
      "constant": false,
      "inputs": [
        {
          "name": "_userContract",
          "type": "address"
        },
        {
          "name": "_amount",
          "type": "uint256"
        }
      ],
      "name": "buyViews",
      "outputs": [
        {
          "name": "",
          "type": "bool"
        }
      ],
      "payable": true,
      "stateMutability": "payable",
      "type": "function"
    },
    {
      "constant": false,
      "inputs": [
        {
          "name": "_reciver",
          "type": "address"
        },
        {
          "name": "_amount",
          "type": "uint256"
        }
      ],
      "name": "byViewsFor",
      "outputs": [],
      "payable": true,
      "stateMutability": "payable",
      "type": "function"
    },
    {
      "constant": false,
      "inputs": [
        {
          "name": "_contentCreator",
          "type": "address"
        },
        {
          "name": "_userConsumer",
          "type": "address"
        }
      ],
      "name": "liked",
      "outputs": [],
      "payable": false,
      "stateMutability": "nonpayable",
      "type": "function"
    },
    {
      "constant": false,
      "inputs": [
        {
          "name": "_contentCreator",
          "type": "address"
        },
        {
          "name": "_userConsumer",
          "type": "address"
        }
      ],
      "name": "loved",
      "outputs": [],
      "payable": false,
      "stateMutability": "nonpayable",
      "type": "function"
    },
    {
      "constant": false,
      "inputs": [
        {
          "name": "_contentCreator",
          "type": "address"
        },
        {
          "name": "_userConsumer",
          "type": "address"
        }
      ],
      "name": "fanLoved",
      "outputs": [],
      "payable": false,
      "stateMutability": "nonpayable",
      "type": "function"
    },
    {
      "constant": false,
      "inputs": [
        {
          "name": "_userAccount",
          "type": "address"
        }
      ],
      "name": "createContentCreatorMinter",
      "outputs": [
        {
          "name": "",
          "type": "bool"
        }
      ],
      "payable": true,
      "stateMutability": "payable",
      "type": "function"
    },
    {
      "constant": false,
      "inputs": [
        {
          "name": "_contentCreatorContract",
          "type": "address"
        },
        {
          "name": "_addressIPFS",
          "type": "uint256"
        },
        {
          "name": "_title",
          "type": "string"
        },
        {
          "name": "_description",
          "type": "string"
        }
      ],
      "name": "createContentMinter",
      "outputs": [
        {
          "name": "",
          "type": "bool"
        }
      ],
      "payable": true,
      "stateMutability": "payable",
      "type": "function"
    },
    {
      "constant": false,
      "inputs": [],
      "name": "kill",
      "outputs": [],
      "payable": false,
      "stateMutability": "nonpayable",
      "type": "function"
    }
  ],
  "bytecode": "0x60806040526000600160146101000a81548160ff0219169083151502179055506000600160156101000a81548160ff0219169083151502179055506000600160166101000a81548160ff02191690831515021790555034801561006157600080fd5b50600160149054906101000a900460ff1615151561007e57600080fd5b612b938061008d6000396000f300608060405260043610610099576000357c0100000000000000000000000000000000000000000000000000000000900463ffffffff16806314d037131461009e5780632946014c146101015780632d7e79e914610164578063347001261461024857806341c0e1b5146102ab57806356f43156146102c25780638b9d210e1461031a578063dea2801a1461035a578063e3181796146103a8575b600080fd5b3480156100aa57600080fd5b506100ff600480360381019080803573ffffffffffffffffffffffffffffffffffffffff169060200190929190803573ffffffffffffffffffffffffffffffffffffffff16906020019092919050505061040b565b005b34801561010d57600080fd5b50610162600480360381019080803573ffffffffffffffffffffffffffffffffffffffff169060200190929190803573ffffffffffffffffffffffffffffffffffffffff169060200190929190505050610636565b005b61022e600480360381019080803573ffffffffffffffffffffffffffffffffffffffff16906020019092919080359060200190929190803590602001908201803590602001908080601f0160208091040260200160405190810160405280939291908181526020018383808284378201915050505050509192919290803590602001908201803590602001908080601f0160208091040260200160405190810160405280939291908181526020018383808284378201915050505050509192919290505050610861565b604051808215151515815260200191505060405180910390f35b34801561025457600080fd5b506102a9600480360381019080803573ffffffffffffffffffffffffffffffffffffffff169060200190929190803573ffffffffffffffffffffffffffffffffffffffff169060200190929190505050610e89565b005b3480156102b757600080fd5b506102c06110b4565b005b610300600480360381019080803573ffffffffffffffffffffffffffffffffffffffff16906020019092919080359060200190929190505050611240565b604051808215151515815260200191505060405180910390f35b610358600480360381019080803573ffffffffffffffffffffffffffffffffffffffff1690602001909291908035906020019092919050505061184b565b005b61038e600480360381019080803573ffffffffffffffffffffffffffffffffffffffff169060200190929190505050611be8565b604051808215151515815260200191505060405180910390f35b3480156103b457600080fd5b50610409600480360381019080803573ffffffffffffffffffffffffffffffffffffffff169060200190929190803573ffffffffffffffffffffffffffffffffffffffff169060200190929190505050612218565b005b60008060009054906101000a900473ffffffffffffffffffffffffffffffffffffffff1673ffffffffffffffffffffffffffffffffffffffff16634209fff1336040518263ffffffff167c0100000000000000000000000000000000000000000000000000000000028152600401808273ffffffffffffffffffffffffffffffffffffffff1673ffffffffffffffffffffffffffffffffffffffff168152602001915050602060405180830381600087803b1580156104c957600080fd5b505af11580156104dd573d6000803e3d6000fd5b505050506040513d60208110156104f357600080fd5b8101908080519060200190929190505050905080151561051257600080fd5b6000809054906101000a900473ffffffffffffffffffffffffffffffffffffffff1673ffffffffffffffffffffffffffffffffffffffff16635b48d7fb600285856040518463ffffffff167c01000000000000000000000000000000000000000000000000000000000281526004018084600281111561058e57fe5b60ff1681526020018373ffffffffffffffffffffffffffffffffffffffff1673ffffffffffffffffffffffffffffffffffffffff1681526020018273ffffffffffffffffffffffffffffffffffffffff1673ffffffffffffffffffffffffffffffffffffffff1681526020019350505050600060405180830381600087803b15801561061957600080fd5b505af115801561062d573d6000803e3d6000fd5b50505050505050565b60008060009054906101000a900473ffffffffffffffffffffffffffffffffffffffff1673ffffffffffffffffffffffffffffffffffffffff16634209fff1336040518263ffffffff167c0100000000000000000000000000000000000000000000000000000000028152600401808273ffffffffffffffffffffffffffffffffffffffff1673ffffffffffffffffffffffffffffffffffffffff168152602001915050602060405180830381600087803b1580156106f457600080fd5b505af1158015610708573d6000803e3d6000fd5b505050506040513d602081101561071e57600080fd5b8101908080519060200190929190505050905080151561073d57600080fd5b6000809054906101000a900473ffffffffffffffffffffffffffffffffffffffff1673ffffffffffffffffffffffffffffffffffffffff16635b48d7fb600185856040518463ffffffff167c0100000000000000000000000000000000000000000000000000000000028152600401808460028111156107b957fe5b60ff1681526020018373ffffffffffffffffffffffffffffffffffffffff1673ffffffffffffffffffffffffffffffffffffffff1681526020018273ffffffffffffffffffffffffffffffffffffffff1673ffffffffffffffffffffffffffffffffffffffff1681526020019350505050600060405180830381600087803b15801561084457600080fd5b505af1158015610858573d6000803e3d6000fd5b50505050505050565b6000806000809054906101000a900473ffffffffffffffffffffffffffffffffffffffff1673ffffffffffffffffffffffffffffffffffffffff1663efd46065336040518263ffffffff167c0100000000000000000000000000000000000000000000000000000000028152600401808273ffffffffffffffffffffffffffffffffffffffff1673ffffffffffffffffffffffffffffffffffffffff168152602001915050602060405180830381600087803b15801561092057600080fd5b505af1158015610934573d6000803e3d6000fd5b505050506040513d602081101561094a57600080fd5b8101908080519060200190929190505050905080151561096957600080fd5b336000806000808493508373ffffffffffffffffffffffffffffffffffffffff16637e5852d96040518163ffffffff167c0100000000000000000000000000000000000000000000000000000000028152600401602060405180830381600087803b1580156109d757600080fd5b505af11580156109eb573d6000803e3d6000fd5b505050506040513d6020811015610a0157600080fd5b8101908080519060200190929190505050925082151515610a2157600080fd5b6000809054906101000a900473ffffffffffffffffffffffffffffffffffffffff1673ffffffffffffffffffffffffffffffffffffffff1663efd46065866040518263ffffffff167c0100000000000000000000000000000000000000000000000000000000028152600401808273ffffffffffffffffffffffffffffffffffffffff1673ffffffffffffffffffffffffffffffffffffffff168152602001915050602060405180830381600087803b158015610add57600080fd5b505af1158015610af1573d6000803e3d6000fd5b505050506040513d6020811015610b0757600080fd5b810190808051906020019092919050505015610cc5576000809054906101000a900473ffffffffffffffffffffffffffffffffffffffff1673ffffffffffffffffffffffffffffffffffffffff1663b7acf7c3866040518263ffffffff167c0100000000000000000000000000000000000000000000000000000000028152600401808273ffffffffffffffffffffffffffffffffffffffff1673ffffffffffffffffffffffffffffffffffffffff168152602001915050602060405180830381600087803b158015610bd957600080fd5b505af1158015610bed573d6000803e3d6000fd5b505050506040513d6020811015610c0357600080fd5b810190808051906020019092919050505091508173ffffffffffffffffffffffffffffffffffffffff16637e5852d96040518163ffffffff167c0100000000000000000000000000000000000000000000000000000000028152600401602060405180830381600087803b158015610c7a57600080fd5b505af1158015610c8e573d6000803e3d6000fd5b505050506040513d6020811015610ca457600080fd5b8101908080519060200190929190505050905080151515610cc457600080fd5b5b6000809054906101000a900473ffffffffffffffffffffffffffffffffffffffff1673ffffffffffffffffffffffffffffffffffffffff1663cf3e270d8c8c8c8c6040518563ffffffff167c0100000000000000000000000000000000000000000000000000000000028152600401808573ffffffffffffffffffffffffffffffffffffffff1673ffffffffffffffffffffffffffffffffffffffff1681526020018481526020018060200180602001838103835285818151815260200191508051906020019080838360005b83811015610dad578082015181840152602081019050610d92565b50505050905090810190601f168015610dda5780820380516001836020036101000a031916815260200191505b50838103825284818151815260200191508051906020019080838360005b83811015610e13578082015181840152602081019050610df8565b50505050905090810190601f168015610e405780820380516001836020036101000a031916815260200191505b509650505050505050600060405180830381600087803b158015610e6357600080fd5b505af1158015610e77573d6000803e3d6000fd5b50505050505050505050949350505050565b60008060009054906101000a900473ffffffffffffffffffffffffffffffffffffffff1673ffffffffffffffffffffffffffffffffffffffff16634209fff1336040518263ffffffff167c0100000000000000000000000000000000000000000000000000000000028152600401808273ffffffffffffffffffffffffffffffffffffffff1673ffffffffffffffffffffffffffffffffffffffff168152602001915050602060405180830381600087803b158015610f4757600080fd5b505af1158015610f5b573d6000803e3d6000fd5b505050506040513d6020811015610f7157600080fd5b81019080805190602001909291905050509050801515610f9057600080fd5b6000809054906101000a900473ffffffffffffffffffffffffffffffffffffffff1673ffffffffffffffffffffffffffffffffffffffff16635b48d7fb600085856040518463ffffffff167c01000000000000000000000000000000000000000000000000000000000281526004018084600281111561100c57fe5b60ff1681526020018373ffffffffffffffffffffffffffffffffffffffff1673ffffffffffffffffffffffffffffffffffffffff1681526020018273ffffffffffffffffffffffffffffffffffffffff1673ffffffffffffffffffffffffffffffffffffffff1681526020019350505050600060405180830381600087803b15801561109757600080fd5b505af11580156110ab573d6000803e3d6000fd5b50505050505050565b600160009054906101000a900473ffffffffffffffffffffffffffffffffffffffff1673ffffffffffffffffffffffffffffffffffffffff163373ffffffffffffffffffffffffffffffffffffffff1614806111fa57506000809054906101000a900473ffffffffffffffffffffffffffffffffffffffff1673ffffffffffffffffffffffffffffffffffffffff1663ed9aab516040518163ffffffff167c0100000000000000000000000000000000000000000000000000000000028152600401602060405180830381600087803b15801561119057600080fd5b505af11580156111a4573d6000803e3d6000fd5b505050506040513d60208110156111ba57600080fd5b810190808051906020019092919050505073ffffffffffffffffffffffffffffffffffffffff163373ffffffffffffffffffffffffffffffffffffffff16145b151561120557600080fd5b600160009054906101000a900473ffffffffffffffffffffffffffffffffffffffff1673ffffffffffffffffffffffffffffffffffffffff16ff5b600080836000806000808493508373ffffffffffffffffffffffffffffffffffffffff16637e5852d96040518163ffffffff167c0100000000000000000000000000000000000000000000000000000000028152600401602060405180830381600087803b1580156112b157600080fd5b505af11580156112c5573d6000803e3d6000fd5b505050506040513d60208110156112db57600080fd5b81019080805190602001909291905050509250821515156112fb57600080fd5b6000809054906101000a900473ffffffffffffffffffffffffffffffffffffffff1673ffffffffffffffffffffffffffffffffffffffff1663efd46065866040518263ffffffff167c0100000000000000000000000000000000000000000000000000000000028152600401808273ffffffffffffffffffffffffffffffffffffffff1673ffffffffffffffffffffffffffffffffffffffff168152602001915050602060405180830381600087803b1580156113b757600080fd5b505af11580156113cb573d6000803e3d6000fd5b505050506040513d60208110156113e157600080fd5b81019080805190602001909291905050501561159f576000809054906101000a900473ffffffffffffffffffffffffffffffffffffffff1673ffffffffffffffffffffffffffffffffffffffff1663b7acf7c3866040518263ffffffff167c0100000000000000000000000000000000000000000000000000000000028152600401808273ffffffffffffffffffffffffffffffffffffffff1673ffffffffffffffffffffffffffffffffffffffff168152602001915050602060405180830381600087803b1580156114b357600080fd5b505af11580156114c7573d6000803e3d6000fd5b505050506040513d60208110156114dd57600080fd5b810190808051906020019092919050505091508173ffffffffffffffffffffffffffffffffffffffff16637e5852d96040518163ffffffff167c0100000000000000000000000000000000000000000000000000000000028152600401602060405180830381600087803b15801561155457600080fd5b505af1158015611568573d6000803e3d6000fd5b505050506040513d602081101561157e57600080fd5b810190808051906020019092919050505090508015151561159e57600080fd5b5b600160149054906101000a900460ff161515156115bb57600080fd5b600160159054906101000a900460ff161515156115d757600080fd5b6509184e72a000348115156115e857fe5b049550600086111515611663576040517f08c379a000000000000000000000000000000000000000000000000000000000815260040180806020018281038252601b8152602001807f416d6f756e7420656e7465726564206e6f7420706f737369626c65000000000081525060200191505060405180910390fd5b6000809054906101000a900473ffffffffffffffffffffffffffffffffffffffff1673ffffffffffffffffffffffffffffffffffffffff1663a4c004e68a886040518363ffffffff167c0100000000000000000000000000000000000000000000000000000000028152600401808373ffffffffffffffffffffffffffffffffffffffff1673ffffffffffffffffffffffffffffffffffffffff16815260200182815260200192505050602060405180830381600087803b15801561172757600080fd5b505af115801561173b573d6000803e3d6000fd5b505050506040513d602081101561175157600080fd5b8101908080519060200190929190505050506000809054906101000a900473ffffffffffffffffffffffffffffffffffffffff1673ffffffffffffffffffffffffffffffffffffffff1663bba11cf78a8a6040518363ffffffff167c0100000000000000000000000000000000000000000000000000000000028152600401808373ffffffffffffffffffffffffffffffffffffffff1673ffffffffffffffffffffffffffffffffffffffff16815260200182815260200192505050600060405180830381600087803b15801561182757600080fd5b505af115801561183b573d6000803e3d6000fd5b5050505050505050505092915050565b336000806000808493508373ffffffffffffffffffffffffffffffffffffffff16637e5852d96040518163ffffffff167c0100000000000000000000000000000000000000000000000000000000028152600401602060405180830381600087803b1580156118b957600080fd5b505af11580156118cd573d6000803e3d6000fd5b505050506040513d60208110156118e357600080fd5b810190808051906020019092919050505092508215151561190357600080fd5b6000809054906101000a900473ffffffffffffffffffffffffffffffffffffffff1673ffffffffffffffffffffffffffffffffffffffff1663efd46065866040518263ffffffff167c0100000000000000000000000000000000000000000000000000000000028152600401808273ffffffffffffffffffffffffffffffffffffffff1673ffffffffffffffffffffffffffffffffffffffff168152602001915050602060405180830381600087803b1580156119bf57600080fd5b505af11580156119d3573d6000803e3d6000fd5b505050506040513d60208110156119e957600080fd5b810190808051906020019092919050505015611ba7576000809054906101000a900473ffffffffffffffffffffffffffffffffffffffff1673ffffffffffffffffffffffffffffffffffffffff1663b7acf7c3866040518263ffffffff167c0100000000000000000000000000000000000000000000000000000000028152600401808273ffffffffffffffffffffffffffffffffffffffff1673ffffffffffffffffffffffffffffffffffffffff168152602001915050602060405180830381600087803b158015611abb57600080fd5b505af1158015611acf573d6000803e3d6000fd5b505050506040513d6020811015611ae557600080fd5b810190808051906020019092919050505091508173ffffffffffffffffffffffffffffffffffffffff16637e5852d96040518163ffffffff167c0100000000000000000000000000000000000000000000000000000000028152600401602060405180830381600087803b158015611b5c57600080fd5b505af1158015611b70573d6000803e3d6000fd5b505050506040513d6020811015611b8657600080fd5b8101908080519060200190929190505050905080151515611ba657600080fd5b5b600160149054906101000a900460ff16151515611bc357600080fd5b600160159054906101000a900460ff16151515611bdf57600080fd5b50505050505050565b600080826000806000808493508373ffffffffffffffffffffffffffffffffffffffff16637e5852d96040518163ffffffff167c0100000000000000000000000000000000000000000000000000000000028152600401602060405180830381600087803b158015611c5957600080fd5b505af1158015611c6d573d6000803e3d6000fd5b505050506040513d6020811015611c8357600080fd5b8101908080519060200190929190505050925082151515611ca357600080fd5b6000809054906101000a900473ffffffffffffffffffffffffffffffffffffffff1673ffffffffffffffffffffffffffffffffffffffff1663efd46065866040518263ffffffff167c0100000000000000000000000000000000000000000000000000000000028152600401808273ffffffffffffffffffffffffffffffffffffffff1673ffffffffffffffffffffffffffffffffffffffff168152602001915050602060405180830381600087803b158015611d5f57600080fd5b505af1158015611d73573d6000803e3d6000fd5b505050506040513d6020811015611d8957600080fd5b810190808051906020019092919050505015611f47576000809054906101000a900473ffffffffffffffffffffffffffffffffffffffff1673ffffffffffffffffffffffffffffffffffffffff1663b7acf7c3866040518263ffffffff167c0100000000000000000000000000000000000000000000000000000000028152600401808273ffffffffffffffffffffffffffffffffffffffff1673ffffffffffffffffffffffffffffffffffffffff168152602001915050602060405180830381600087803b158015611e5b57600080fd5b505af1158015611e6f573d6000803e3d6000fd5b505050506040513d6020811015611e8557600080fd5b810190808051906020019092919050505091508173ffffffffffffffffffffffffffffffffffffffff16637e5852d96040518163ffffffff167c0100000000000000000000000000000000000000000000000000000000028152600401602060405180830381600087803b158015611efc57600080fd5b505af1158015611f10573d6000803e3d6000fd5b505050506040513d6020811015611f2657600080fd5b8101908080519060200190929190505050905080151515611f4657600080fd5b5b60008060009054906101000a900473ffffffffffffffffffffffffffffffffffffffff1673ffffffffffffffffffffffffffffffffffffffff16634209fff1336040518263ffffffff167c0100000000000000000000000000000000000000000000000000000000028152600401808273ffffffffffffffffffffffffffffffffffffffff1673ffffffffffffffffffffffffffffffffffffffff168152602001915050602060405180830381600087803b15801561200557600080fd5b505af1158015612019573d6000803e3d6000fd5b505050506040513d602081101561202f57600080fd5b8101908080519060200190929190505050905080151561204e57600080fd5b3330612058612362565b808373ffffffffffffffffffffffffffffffffffffffff1673ffffffffffffffffffffffffffffffffffffffff1681526020018273ffffffffffffffffffffffffffffffffffffffff1673ffffffffffffffffffffffffffffffffffffffff16815260200192505050604051809103906000f0801580156120dd573d6000803e3d6000fd5b5096506000809054906101000a900473ffffffffffffffffffffffffffffffffffffffff1673ffffffffffffffffffffffffffffffffffffffff1663e2bf75d18a896040518363ffffffff167c0100000000000000000000000000000000000000000000000000000000028152600401808373ffffffffffffffffffffffffffffffffffffffff1673ffffffffffffffffffffffffffffffffffffffff1681526020018273ffffffffffffffffffffffffffffffffffffffff1673ffffffffffffffffffffffffffffffffffffffff16815260200192505050602060405180830381600087803b1580156121d057600080fd5b505af11580156121e4573d6000803e3d6000fd5b505050506040513d60208110156121fa57600080fd5b81019080805190602001909291905050505050505050505050919050565b600160169054906101000a900460ff161515156122c3576040517f08c379a00000000000000000000000000000000000000000000000000000000081526004018080602001828103825260258152602001807f5468697320636f6e74726163742068617320616c7265616479206265656e207381526020017f657420757000000000000000000000000000000000000000000000000000000081525060400191505060405180910390fd5b816000806101000a81548173ffffffffffffffffffffffffffffffffffffffff021916908373ffffffffffffffffffffffffffffffffffffffff16021790555080600160006101000a81548173ffffffffffffffffffffffffffffffffffffffff021916908373ffffffffffffffffffffffffffffffffffffffff16021790555060018060166101000a81548160ff0219169083151502179055505050565b6040516107f580612373833901905600608060405234801561001057600080fd5b506040516040806107f58339810180604052810190808051906020019092919080519060200190929190505050336000809054906101000a900473ffffffffffffffffffffffffffffffffffffffff1673ffffffffffffffffffffffffffffffffffffffff1663a404d3c1826040518263ffffffff167c0100000000000000000000000000000000000000000000000000000000028152600401808273ffffffffffffffffffffffffffffffffffffffff1673ffffffffffffffffffffffffffffffffffffffff168152602001915050602060405180830381600087803b1580156100fa57600080fd5b505af115801561010e573d6000803e3d6000fd5b505050506040513d602081101561012457600080fd5b8101908080519060200190929190505050151561014057600080fd5b33600260006101000a81548173ffffffffffffffffffffffffffffffffffffffff021916908373ffffffffffffffffffffffffffffffffffffffff16021790555082600360006101000a81548173ffffffffffffffffffffffffffffffffffffffff021916908373ffffffffffffffffffffffffffffffffffffffff16021790555081600460006101000a81548173ffffffffffffffffffffffffffffffffffffffff021916908373ffffffffffffffffffffffffffffffffffffffff16021790555082600160006101000a81548173ffffffffffffffffffffffffffffffffffffffff021916908373ffffffffffffffffffffffffffffffffffffffff160217905550816000806101000a81548173ffffffffffffffffffffffffffffffffffffffff021916908373ffffffffffffffffffffffffffffffffffffffff16021790555050505061055f806102966000396000f30060806040526004361061004c576000357c0100000000000000000000000000000000000000000000000000000000900463ffffffff1680637e5852d914610051578063caec47b414610080575b600080fd5b34801561005d57600080fd5b50610066610164565b604051808215151515815260200191505060405180910390f35b61014a600480360381019080803573ffffffffffffffffffffffffffffffffffffffff16906020019092919080359060200190929190803590602001908201803590602001908080601f0160208091040260200160405190810160405280939291908181526020018383808284378201915050505050509192919290803590602001908201803590602001908080601f016020809104026020016040519081016040528093929190818152602001838380828437820191505050505050919291929050505061017b565b604051808215151515815260200191505060405180910390f35b6000600460149054906101000a900460ff16905090565b600080600160009054906101000a900473ffffffffffffffffffffffffffffffffffffffff1673ffffffffffffffffffffffffffffffffffffffff16637e5852d96040518163ffffffff167c0100000000000000000000000000000000000000000000000000000000028152600401602060405180830381600087803b15801561020457600080fd5b505af1158015610218573d6000803e3d6000fd5b505050506040513d602081101561022e57600080fd5b810190808051906020019092919050505015151561024b57600080fd5b600460149054906101000a900460ff1615151561026757600080fd5b6000809054906101000a900473ffffffffffffffffffffffffffffffffffffffff1673ffffffffffffffffffffffffffffffffffffffff1663f36675176040518163ffffffff167c0100000000000000000000000000000000000000000000000000000000028152600401602060405180830381600087803b1580156102ec57600080fd5b505af1158015610300573d6000803e3d6000fd5b505050506040513d602081101561031657600080fd5b810190808051906020019092919050505090508073ffffffffffffffffffffffffffffffffffffffff166108fc349081150290604051600060405180830381858888f1935050505015801561036f573d6000803e3d6000fd5b508073ffffffffffffffffffffffffffffffffffffffff16632d7e79e9308787876040518563ffffffff167c0100000000000000000000000000000000000000000000000000000000028152600401808573ffffffffffffffffffffffffffffffffffffffff1673ffffffffffffffffffffffffffffffffffffffff1681526020018481526020018060200180602001838103835285818151815260200191508051906020019080838360005b8381101561043757808201518184015260208101905061041c565b50505050905090810190601f1680156104645780820380516001836020036101000a031916815260200191505b50838103825284818151815260200191508051906020019080838360005b8381101561049d578082015181840152602081019050610482565b50505050905090810190601f1680156104ca5780820380516001836020036101000a031916815260200191505b509650505050505050602060405180830381600087803b1580156104ed57600080fd5b505af1158015610501573d6000803e3d6000fd5b505050506040513d602081101561051757600080fd5b81019080805190602001909291905050509150509493505050505600a165627a7a72305820ce689e61f4fd82689e678a4d60c3cf8b026859ede9f180164975571611f24ee30029a165627a7a723058203f862a11727191419e0efe72d33fdefa3e026a2972fe062d9246f913852e91900029",
  "source": "pragma solidity 0.4.24;\r\n\r\nimport \"./1DataStorage.sol\";\r\nimport \"./2Register.sol\";\r\nimport \"./User.sol\";\r\nimport \"./ContentCreator.sol\";\r\n\r\ncontract LoveMachine {\r\n    DataStorage dataStorage;\r\n    address owner;\r\n    \r\n    enum viewsUsed {LIKED, LOVED, FANLOVED}\r\n\r\n    bool emergencyStop = false;\r\n    bool pause = false;\r\n    bool callOnce = false;\r\n\r\n    modifier onlyOwner {\r\n        require(msg.sender == owner);\r\n        _;\r\n    }\r\n\r\n    modifier stopInEmergency() {\r\n        require(!emergencyStop);\r\n        _;\r\n    }\r\n\r\n    modifier pauseModifier {\r\n        require(!pause);\r\n        _;\r\n    }\r\n    \r\n    modifier onlyCallOnce {\r\n        require(!callOnce, \"This contract has already been set up\");\r\n        _;\r\n    }\r\n    \r\n    modifier onlyAUser {\r\n        bool user = dataStorage.isUser(msg.sender);\r\n        require(user);\r\n        _;\r\n    }\r\n    \r\n    modifier onlyACreator {\r\n        bool creator = dataStorage.isCreator(msg.sender);\r\n        require(creator);\r\n        _;\r\n    }\r\n\r\n    /**\r\n        so that users cannot withdraw from their creator and user\r\n        account simultaniously \r\n     */\r\n    modifier lockUser(address _user) {\r\n        User u = User(_user);\r\n        bool lock = u.getLock();\r\n        require(!lock);\r\n        if(dataStorage.isCreator(_user)) {\r\n            ContentCreator cc = ContentCreator(dataStorage.getCreatorAddressFromUser(_user));\r\n            bool ccLock = cc.getLock();\r\n            require(!ccLock);\r\n        }\r\n        _;\r\n    }\r\n\r\n    modifier ownerOrRegister {\r\n        require(msg.sender == owner || msg.sender == dataStorage.registryAddress());\r\n        _;\r\n    }\r\n\r\n    constructor() \r\n        public\r\n        stopInEmergency\r\n    {\r\n\r\n    }\r\n    \r\n    function constructorFunction(address _dataStorage, address _owner) \r\n        public\r\n        onlyCallOnce\r\n    {\r\n        dataStorage = DataStorage(_dataStorage);\r\n        owner = _owner;\r\n        callOnce = true;\r\n    }\r\n\r\n    function buyViews(address _userContract, uint _amount) \r\n        public \r\n        payable\r\n        lockUser(_userContract)\r\n        stopInEmergency\r\n        pauseModifier\r\n        returns(bool)\r\n    {\r\n        uint amountPossible = msg.value / 10**13;\r\n        require(amountPossible > 0, \"Amount entered not possible\");\r\n        dataStorage.boughtViews(_userContract, amountPossible);\r\n        dataStorage.setTotalViewsDispenced(_userContract, _amount);\r\n    }\r\n\r\n     //TODO: !! buyViewsFor(Uint _amount, address _reciver)\r\n                //lockUser\r\n    function byViewsFor(address _reciver, uint _amount) \r\n        public \r\n        payable \r\n        lockUser(msg.sender)\r\n        stopInEmergency\r\n        pauseModifier\r\n    {\r\n        \r\n    }\r\n   \r\n    //TODO: !! sellViews(uint _amount)\r\n                //lockUser\r\n\r\n    //TODO: !! giveViewsTo(uint _amount, address _reciver)\r\n                //lockUser\r\n\r\n    //TODO: !! getContentViews() => puts views into userContract so they can be withdrawn. \r\n                //can only be called from contentCreatorContractg \r\n                //lockUser\r\n                //onlyCreator\r\n\r\n    function liked(address _contentCreator, address _userConsumer)\r\n        public\r\n        onlyAUser\r\n    {\r\n        dataStorage.storingLikes(DataStorage.ViewsUsed.LIKED, _contentCreator, _userConsumer);\r\n    }\r\n\r\n    function loved(address _contentCreator, address _userConsumer)\r\n        public\r\n        onlyAUser\r\n    {\r\n        dataStorage.storingLikes(DataStorage.ViewsUsed.LOVED, _contentCreator, _userConsumer);\r\n    }\r\n    \r\n    function fanLoved(address _contentCreator, address _userConsumer)\r\n        public\r\n        onlyAUser\r\n    {\r\n        dataStorage.storingLikes(DataStorage.ViewsUsed.FANLOVED, _contentCreator, _userConsumer);\r\n    }\r\n    \r\n    function createContentCreatorMinter(address _userAccount)\r\n        public\r\n        payable\r\n        lockUser(_userAccount)\r\n        onlyAUser\r\n        returns(bool)\r\n    {\r\n        address ccc = new ContentCreator(msg.sender, this);\r\n        dataStorage.setNewCreatorData(_userAccount, ccc);\r\n    }\r\n    \r\n    function createContentMinter(\r\n        address _contentCreatorContract, \r\n        uint _addressIPFS, \r\n        string _title, \r\n        string _description\r\n        ) \r\n        public\r\n        payable\r\n        onlyACreator\r\n        lockUser(msg.sender)\r\n        returns(bool)\r\n    {\r\n        dataStorage.createContent(_contentCreatorContract, _addressIPFS, _title, _description);\r\n    }\r\n\r\n    function kill() \r\n        public \r\n        ownerOrRegister \r\n    {\r\n        selfdestruct(owner);\r\n    }\r\n}",
  "sourcePath": "C:\\Users\\Veronica Coutts\\Desktop\\Desktop\\Work\\Web3 Projects\\MVP\\mvp\\contracts\\LoveMachine.sol",
  "compiler": {
    "name": "solc",
    "version": "0.4.24+commit.e67f0147.Emscripten.clang"
  },
  "schemaVersion": "2.0.1",
  "updatedAt": "2018-08-23T20:18:44.256Z"
}