{
  "contractName": "Register",
  "abi": [
    {
      "constant": true,
      "inputs": [],
      "name": "emergencyStop",
      "outputs": [
        {
          "name": "",
          "type": "bool"
        }
      ],
      "payable": false,
      "stateMutability": "view",
      "type": "function"
    },
    {
      "constant": true,
      "inputs": [],
      "name": "pause",
      "outputs": [
        {
          "name": "",
          "type": "bool"
        }
      ],
      "payable": false,
      "stateMutability": "view",
      "type": "function"
    },
    {
      "inputs": [],
      "payable": false,
      "stateMutability": "nonpayable",
      "type": "constructor"
    },
    {
      "anonymous": false,
      "inputs": [
        {
          "indexed": false,
          "name": "newContract",
          "type": "address"
        },
        {
          "indexed": false,
          "name": "oldContract",
          "type": "address"
        }
      ],
      "name": "LogNewUserFactory",
      "type": "event"
    },
    {
      "anonymous": false,
      "inputs": [
        {
          "indexed": false,
          "name": "_newContentCreatorFactory",
          "type": "address"
        },
        {
          "indexed": false,
          "name": "backendContentCreatorFactory",
          "type": "address"
        }
      ],
      "name": "LogNewContract",
      "type": "event"
    },
    {
      "constant": false,
      "inputs": [
        {
          "name": "_backendUserFactory",
          "type": "address"
        },
        {
          "name": "_backendContentCreatorFactory",
          "type": "address"
        },
        {
          "name": "_backendMinter",
          "type": "address"
        },
        {
          "name": "_owner",
          "type": "address"
        },
        {
          "name": "_dataStorage",
          "type": "address"
        }
      ],
      "name": "constructorFunction",
      "outputs": [],
      "payable": false,
      "stateMutability": "nonpayable",
      "type": "function"
    },
    {
      "constant": false,
      "inputs": [
        {
          "name": "_newUserFactory",
          "type": "address"
        }
      ],
      "name": "changeUserFactory",
      "outputs": [
        {
          "name": "",
          "type": "bool"
        }
      ],
      "payable": false,
      "stateMutability": "nonpayable",
      "type": "function"
    },
    {
      "constant": true,
      "inputs": [],
      "name": "getUserFactory",
      "outputs": [
        {
          "name": "",
          "type": "address"
        }
      ],
      "payable": false,
      "stateMutability": "view",
      "type": "function"
    },
    {
      "constant": false,
      "inputs": [
        {
          "name": "_newContentCreatorFactory",
          "type": "address"
        }
      ],
      "name": "changeContentCreatorFactory",
      "outputs": [
        {
          "name": "",
          "type": "bool"
        }
      ],
      "payable": false,
      "stateMutability": "nonpayable",
      "type": "function"
    },
    {
      "constant": true,
      "inputs": [],
      "name": "getContentCreatorFactory",
      "outputs": [
        {
          "name": "",
          "type": "address"
        }
      ],
      "payable": false,
      "stateMutability": "view",
      "type": "function"
    },
    {
      "constant": false,
      "inputs": [
        {
          "name": "_newMinter",
          "type": "address"
        }
      ],
      "name": "changeMinter",
      "outputs": [
        {
          "name": "",
          "type": "bool"
        }
      ],
      "payable": false,
      "stateMutability": "nonpayable",
      "type": "function"
    },
    {
      "constant": true,
      "inputs": [],
      "name": "getMinter",
      "outputs": [
        {
          "name": "",
          "type": "address"
        }
      ],
      "payable": false,
      "stateMutability": "view",
      "type": "function"
    },
    {
      "constant": false,
      "inputs": [
        {
          "name": "_newRegister",
          "type": "address"
        }
      ],
      "name": "kill",
      "outputs": [],
      "payable": false,
      "stateMutability": "nonpayable",
      "type": "function"
    }
  ],
  "bytecode": "0x60806040526000600a60146101000a81548160ff0219169083151502179055506001600a60156101000a81548160ff0219169083151502179055506000600a60166101000a81548160ff02191690831515021790555034801561006157600080fd5b50611ad2806100716000396000f3006080604052600436106100a4576000357c0100000000000000000000000000000000000000000000000000000000900463ffffffff16806321815e36146100a95780632c4d4d18146101045780633c093d5a1461015f57806343d3f4b0146101b657806359ebee861461027957806363a599a4146102d45780638456cb5914610303578063cbf0b0c014610332578063e1d5515514610375578063f3667517146103cc575b600080fd5b3480156100b557600080fd5b506100ea600480360381019080803573ffffffffffffffffffffffffffffffffffffffff169060200190929190505050610423565b604051808215151515815260200191505060405180910390f35b34801561011057600080fd5b50610145600480360381019080803573ffffffffffffffffffffffffffffffffffffffff1690602001909291905050506109c1565b604051808215151515815260200191505060405180910390f35b34801561016b57600080fd5b50610174610f3d565b604051808273ffffffffffffffffffffffffffffffffffffffff1673ffffffffffffffffffffffffffffffffffffffff16815260200191505060405180910390f35b3480156101c257600080fd5b50610277600480360381019080803573ffffffffffffffffffffffffffffffffffffffff169060200190929190803573ffffffffffffffffffffffffffffffffffffffff169060200190929190803573ffffffffffffffffffffffffffffffffffffffff169060200190929190803573ffffffffffffffffffffffffffffffffffffffff169060200190929190803573ffffffffffffffffffffffffffffffffffffffff169060200190929190505050610f67565b005b34801561028557600080fd5b506102ba600480360381019080803573ffffffffffffffffffffffffffffffffffffffff16906020019092919050505061123b565b604051808215151515815260200191505060405180910390f35b3480156102e057600080fd5b506102e96117d9565b604051808215151515815260200191505060405180910390f35b34801561030f57600080fd5b506103186117ec565b604051808215151515815260200191505060405180910390f35b34801561033e57600080fd5b50610373600480360381019080803573ffffffffffffffffffffffffffffffffffffffff1690602001909291905050506117ff565b005b34801561038157600080fd5b5061038a611a52565b604051808273ffffffffffffffffffffffffffffffffffffffff1673ffffffffffffffffffffffffffffffffffffffff16815260200191505060405180910390f35b3480156103d857600080fd5b506103e1611a7c565b604051808273ffffffffffffffffffffffffffffffffffffffff1673ffffffffffffffffffffffffffffffffffffffff16815260200191505060405180910390f35b6000600a60009054906101000a900473ffffffffffffffffffffffffffffffffffffffff1673ffffffffffffffffffffffffffffffffffffffff163373ffffffffffffffffffffffffffffffffffffffff1614151561048157600080fd5b600a60149054906101000a900460ff1615151561049d57600080fd5b600a60159054906101000a900460ff161515156104b957600080fd5b6000809054906101000a900473ffffffffffffffffffffffffffffffffffffffff1673ffffffffffffffffffffffffffffffffffffffff16638456cb596040518163ffffffff167c0100000000000000000000000000000000000000000000000000000000028152600401602060405180830381600087803b15801561053e57600080fd5b505af1158015610552573d6000803e3d6000fd5b505050506040513d602081101561056857600080fd5b810190808051906020019092919050505015151561058557600080fd5b600460009054906101000a900473ffffffffffffffffffffffffffffffffffffffff1673ffffffffffffffffffffffffffffffffffffffff168273ffffffffffffffffffffffffffffffffffffffff161415156109b7577f551060e17116e4c03a5cb1beee4a599abe03db9e44126cc5b3e6215d7afde08182600460009054906101000a900473ffffffffffffffffffffffffffffffffffffffff16604051808373ffffffffffffffffffffffffffffffffffffffff1673ffffffffffffffffffffffffffffffffffffffff1681526020018273ffffffffffffffffffffffffffffffffffffffff1673ffffffffffffffffffffffffffffffffffffffff1681526020019250505060405180910390a16005600460009054906101000a900473ffffffffffffffffffffffffffffffffffffffff1690806001815401808255809150509060018203906000526020600020016000909192909190916101000a81548173ffffffffffffffffffffffffffffffffffffffff021916908373ffffffffffffffffffffffffffffffffffffffff16021790555050600160009054906101000a900473ffffffffffffffffffffffffffffffffffffffff1673ffffffffffffffffffffffffffffffffffffffff1663cbf0b0c0600860009054906101000a900473ffffffffffffffffffffffffffffffffffffffff166040518263ffffffff167c0100000000000000000000000000000000000000000000000000000000028152600401808273ffffffffffffffffffffffffffffffffffffffff1673ffffffffffffffffffffffffffffffffffffffff168152602001915050600060405180830381600087803b1580156107fc57600080fd5b505af1158015610810573d6000803e3d6000fd5b5050505081600460006101000a81548173ffffffffffffffffffffffffffffffffffffffff021916908373ffffffffffffffffffffffffffffffffffffffff160217905550600460009054906101000a900473ffffffffffffffffffffffffffffffffffffffff16600160006101000a81548173ffffffffffffffffffffffffffffffffffffffff021916908373ffffffffffffffffffffffffffffffffffffffff1602179055506000809054906101000a900473ffffffffffffffffffffffffffffffffffffffff1673ffffffffffffffffffffffffffffffffffffffff1663c3853537600460009054906101000a900473ffffffffffffffffffffffffffffffffffffffff166040518263ffffffff167c0100000000000000000000000000000000000000000000000000000000028152600401808273ffffffffffffffffffffffffffffffffffffffff1673ffffffffffffffffffffffffffffffffffffffff168152602001915050600060405180830381600087803b15801561099657600080fd5b505af11580156109aa573d6000803e3d6000fd5b50505050600190506109bc565b600090505b919050565b6000600a60009054906101000a900473ffffffffffffffffffffffffffffffffffffffff1673ffffffffffffffffffffffffffffffffffffffff163373ffffffffffffffffffffffffffffffffffffffff16141515610a1f57600080fd5b600a60149054906101000a900460ff16151515610a3b57600080fd5b600a60159054906101000a900460ff16151515610a5757600080fd5b6000809054906101000a900473ffffffffffffffffffffffffffffffffffffffff1673ffffffffffffffffffffffffffffffffffffffff16638456cb596040518163ffffffff167c0100000000000000000000000000000000000000000000000000000000028152600401602060405180830381600087803b158015610adc57600080fd5b505af1158015610af0573d6000803e3d6000fd5b505050506040513d6020811015610b0657600080fd5b8101908080519060200190929190505050151515610b2357600080fd5b600860009054906101000a900473ffffffffffffffffffffffffffffffffffffffff1673ffffffffffffffffffffffffffffffffffffffff168273ffffffffffffffffffffffffffffffffffffffff16141515610f33577f551060e17116e4c03a5cb1beee4a599abe03db9e44126cc5b3e6215d7afde08182600860009054906101000a900473ffffffffffffffffffffffffffffffffffffffff16604051808373ffffffffffffffffffffffffffffffffffffffff1673ffffffffffffffffffffffffffffffffffffffff1681526020018273ffffffffffffffffffffffffffffffffffffffff1673ffffffffffffffffffffffffffffffffffffffff1681526020019250505060405180910390a16009600860009054906101000a900473ffffffffffffffffffffffffffffffffffffffff1690806001815401808255809150509060018203906000526020600020016000909192909190916101000a81548173ffffffffffffffffffffffffffffffffffffffff021916908373ffffffffffffffffffffffffffffffffffffffff16021790555050600260009054906101000a900473ffffffffffffffffffffffffffffffffffffffff1673ffffffffffffffffffffffffffffffffffffffff1663cbf0b0c0836040518263ffffffff167c0100000000000000000000000000000000000000000000000000000000028152600401808273ffffffffffffffffffffffffffffffffffffffff1673ffffffffffffffffffffffffffffffffffffffff168152602001915050600060405180830381600087803b158015610d7857600080fd5b505af1158015610d8c573d6000803e3d6000fd5b5050505081600860006101000a81548173ffffffffffffffffffffffffffffffffffffffff021916908373ffffffffffffffffffffffffffffffffffffffff160217905550600860009054906101000a900473ffffffffffffffffffffffffffffffffffffffff16600360006101000a81548173ffffffffffffffffffffffffffffffffffffffff021916908373ffffffffffffffffffffffffffffffffffffffff1602179055506000809054906101000a900473ffffffffffffffffffffffffffffffffffffffff1673ffffffffffffffffffffffffffffffffffffffff1663ee38ae56600860009054906101000a900473ffffffffffffffffffffffffffffffffffffffff166040518263ffffffff167c0100000000000000000000000000000000000000000000000000000000028152600401808273ffffffffffffffffffffffffffffffffffffffff1673ffffffffffffffffffffffffffffffffffffffff168152602001915050600060405180830381600087803b158015610f1257600080fd5b505af1158015610f26573d6000803e3d6000fd5b5050505060019050610f38565b600090505b919050565b6000600660009054906101000a900473ffffffffffffffffffffffffffffffffffffffff16905090565b600a60169054906101000a900460ff16151515611012576040517f08c379a00000000000000000000000000000000000000000000000000000000081526004018080602001828103825260258152602001807f5468697320636f6e74726163742068617320616c7265616479206265656e207381526020017f657420757000000000000000000000000000000000000000000000000000000081525060400191505060405180910390fd5b8173ffffffffffffffffffffffffffffffffffffffff16600a60009054906101000a90505050806000806101000a81548173ffffffffffffffffffffffffffffffffffffffff021916908373ffffffffffffffffffffffffffffffffffffffff16021790555084600460006101000a81548173ffffffffffffffffffffffffffffffffffffffff021916908373ffffffffffffffffffffffffffffffffffffffff16021790555084600160006101000a81548173ffffffffffffffffffffffffffffffffffffffff021916908373ffffffffffffffffffffffffffffffffffffffff16021790555083600660006101000a81548173ffffffffffffffffffffffffffffffffffffffff021916908373ffffffffffffffffffffffffffffffffffffffff16021790555083600260006101000a81548173ffffffffffffffffffffffffffffffffffffffff021916908373ffffffffffffffffffffffffffffffffffffffff16021790555082600860006101000a81548173ffffffffffffffffffffffffffffffffffffffff021916908373ffffffffffffffffffffffffffffffffffffffff16021790555082600360006101000a81548173ffffffffffffffffffffffffffffffffffffffff021916908373ffffffffffffffffffffffffffffffffffffffff1602179055506000600a60156101000a81548160ff0219169083151502179055506001600a60166101000a81548160ff0219169083151502179055505050505050565b6000600a60009054906101000a900473ffffffffffffffffffffffffffffffffffffffff1673ffffffffffffffffffffffffffffffffffffffff163373ffffffffffffffffffffffffffffffffffffffff1614151561129957600080fd5b600a60149054906101000a900460ff161515156112b557600080fd5b600a60159054906101000a900460ff161515156112d157600080fd5b6000809054906101000a900473ffffffffffffffffffffffffffffffffffffffff1673ffffffffffffffffffffffffffffffffffffffff16638456cb596040518163ffffffff167c0100000000000000000000000000000000000000000000000000000000028152600401602060405180830381600087803b15801561135657600080fd5b505af115801561136a573d6000803e3d6000fd5b505050506040513d602081101561138057600080fd5b810190808051906020019092919050505015151561139d57600080fd5b600660009054906101000a900473ffffffffffffffffffffffffffffffffffffffff1673ffffffffffffffffffffffffffffffffffffffff168273ffffffffffffffffffffffffffffffffffffffff161415156117cf577f551060e17116e4c03a5cb1beee4a599abe03db9e44126cc5b3e6215d7afde08182600660009054906101000a900473ffffffffffffffffffffffffffffffffffffffff16604051808373ffffffffffffffffffffffffffffffffffffffff1673ffffffffffffffffffffffffffffffffffffffff1681526020018273ffffffffffffffffffffffffffffffffffffffff1673ffffffffffffffffffffffffffffffffffffffff1681526020019250505060405180910390a16007600460009054906101000a900473ffffffffffffffffffffffffffffffffffffffff1690806001815401808255809150509060018203906000526020600020016000909192909190916101000a81548173ffffffffffffffffffffffffffffffffffffffff021916908373ffffffffffffffffffffffffffffffffffffffff16021790555050600260009054906101000a900473ffffffffffffffffffffffffffffffffffffffff1673ffffffffffffffffffffffffffffffffffffffff1663cbf0b0c0600860009054906101000a900473ffffffffffffffffffffffffffffffffffffffff166040518263ffffffff167c0100000000000000000000000000000000000000000000000000000000028152600401808273ffffffffffffffffffffffffffffffffffffffff1673ffffffffffffffffffffffffffffffffffffffff168152602001915050600060405180830381600087803b15801561161457600080fd5b505af1158015611628573d6000803e3d6000fd5b5050505081600660006101000a81548173ffffffffffffffffffffffffffffffffffffffff021916908373ffffffffffffffffffffffffffffffffffffffff160217905550600660009054906101000a900473ffffffffffffffffffffffffffffffffffffffff16600260006101000a81548173ffffffffffffffffffffffffffffffffffffffff021916908373ffffffffffffffffffffffffffffffffffffffff1602179055506000809054906101000a900473ffffffffffffffffffffffffffffffffffffffff1673ffffffffffffffffffffffffffffffffffffffff1663e393c5aa600660009054906101000a900473ffffffffffffffffffffffffffffffffffffffff166040518263ffffffff167c0100000000000000000000000000000000000000000000000000000000028152600401808273ffffffffffffffffffffffffffffffffffffffff1673ffffffffffffffffffffffffffffffffffffffff168152602001915050600060405180830381600087803b1580156117ae57600080fd5b505af11580156117c2573d6000803e3d6000fd5b50505050600190506117d4565b600090505b919050565b600a60149054906101000a900460ff1681565b600a60159054906101000a900460ff1681565b600a60009054906101000a900473ffffffffffffffffffffffffffffffffffffffff1673ffffffffffffffffffffffffffffffffffffffff163373ffffffffffffffffffffffffffffffffffffffff1614151561185b57600080fd5b600a60159054906101000a900460ff1615151561187757600080fd5b6000809054906101000a900473ffffffffffffffffffffffffffffffffffffffff1673ffffffffffffffffffffffffffffffffffffffff16638456cb596040518163ffffffff167c0100000000000000000000000000000000000000000000000000000000028152600401602060405180830381600087803b1580156118fc57600080fd5b505af1158015611910573d6000803e3d6000fd5b505050506040513d602081101561192657600080fd5b810190808051906020019092919050505015151561194357600080fd5b6000809054906101000a900473ffffffffffffffffffffffffffffffffffffffff1673ffffffffffffffffffffffffffffffffffffffff166376fc2b6e826040518263ffffffff167c0100000000000000000000000000000000000000000000000000000000028152600401808273ffffffffffffffffffffffffffffffffffffffff1673ffffffffffffffffffffffffffffffffffffffff168152602001915050600060405180830381600087803b1580156119ff57600080fd5b505af1158015611a13573d6000803e3d6000fd5b50505050600a60009054906101000a900473ffffffffffffffffffffffffffffffffffffffff1673ffffffffffffffffffffffffffffffffffffffff16ff5b6000600460009054906101000a900473ffffffffffffffffffffffffffffffffffffffff16905090565b6000600860009054906101000a900473ffffffffffffffffffffffffffffffffffffffff169050905600a165627a7a72305820c677822bd3ce2340bd28240730aab9e43be2ab7bffe025cf75b3bc1dbaa969b50029",
  "source": "pragma solidity 0.4.24;\r\n\r\n\r\nimport \"./1DataStorage.sol\";\r\nimport \"./UserFactory.sol\";\r\nimport \"./3ContentCreatorFactory.sol\";\r\nimport \"./LoveMachine.sol\";\r\n\r\ncontract Register {\r\n    DataStorage dataStorage;\r\n    UserFactory userFactory;\r\n    ContentCreatorFactory ccFactory;\r\n    LoveMachine minter;\r\n\r\n    address backendUserFactory;\r\n    address[] previousUserFactories;\r\n    address backendContentCreatorFactory;\r\n    address[] previousContentCreatorFactories;\r\n    address backendMinter;\r\n    address[] previousMinters;\r\n    address owner;\r\n\r\n    bool public emergencyStop = false;\r\n    bool public pause = true;\r\n    bool callOnce = false;\r\n\r\n    event LogNewUserFactory(address newContract, address oldContract);\r\n    event LogNewContract(\r\n        address _newContentCreatorFactory, \r\n        address backendContentCreatorFactory\r\n    );\r\n\r\n    //Restricts functions use to when there is an emergency \r\n    modifier onlyInEmergency {\r\n        require(emergencyStop);\r\n        _;\r\n    }\r\n    \r\n    //Restricts functions to only when there is not an emergency.\r\n    modifier stopInEmergency {\r\n        require(!emergencyStop);\r\n        _;\r\n    }\r\n    \r\n    //pauses all functionality untill contract set up is compleate.\r\n    modifier pauseFunction {\r\n        require(!pause);\r\n        require(!dataStorage.pause());\r\n        _;\r\n    }\r\n    \r\n    //This allows the set up to only run once.\r\n    modifier onlyCallOnce {\r\n        require(!callOnce, \"This contract has already been set up\");\r\n        _;\r\n    }\r\n\r\n    //Restricts the function to only be called by the owner.\r\n    modifier onlyOwner {\r\n        require(msg.sender == owner);\r\n        _;\r\n    }\r\n\r\n    //The empty constructor function allowing for the address to be created.\r\n    constructor(\r\n        \r\n        ) \r\n        public \r\n    {\r\n\r\n    }\r\n    \r\n    /**\r\n      * @dev Allows for the set up of the Register contract. \r\n      *     This function is required as a contract dose not have\r\n      *     an address untill the constructor has finished executing, \r\n      *     so the constructor functionality had to be seporated out \r\n      *     to allow for the various addresses to be created and passed in. \r\n      */\r\n    function constructorFunction(address _backendUserFactory, \r\n        address _backendContentCreatorFactory, \r\n        address _backendMinter, \r\n        address _owner,\r\n        address _dataStorage)\r\n        public\r\n        onlyCallOnce\r\n    {\r\n        owner == _owner;\r\n        dataStorage = DataStorage(_dataStorage);\r\n        backendUserFactory = _backendUserFactory;\r\n        userFactory = UserFactory(_backendUserFactory);\r\n        backendContentCreatorFactory = _backendContentCreatorFactory;\r\n        ccFactory = ContentCreatorFactory(_backendContentCreatorFactory);\r\n        backendMinter = _backendMinter;\r\n        minter = LoveMachine(_backendMinter);\r\n        \r\n        pause = false;\r\n        \r\n        callOnce = true;\r\n        \r\n    }\r\n    \r\n    /**\r\n      * @dev Allows the owner to upgrade the UserFactory contract by entering the new address\r\n      *     into this method.\r\n      * @param _newUserFactory : The address of the new UserFactory address.\r\n      * @return bool Letting the owner know if it successfully updated the UserFactory. \r\n      */\r\n    function changeUserFactory(address _newUserFactory) \r\n        public\r\n        onlyOwner()\r\n        stopInEmergency\r\n        pauseFunction\r\n        returns(bool) \r\n    {\r\n        if(_newUserFactory != backendUserFactory) {\r\n            \r\n            emit LogNewContract(_newUserFactory, backendUserFactory);\r\n            \r\n            previousUserFactories.push(backendUserFactory);\r\n            userFactory.kill(backendMinter);\r\n            backendUserFactory = _newUserFactory;\r\n            userFactory = UserFactory(backendUserFactory);\r\n            dataStorage.registryUpdateUserFactory(backendUserFactory);\r\n            return true;\r\n        }\r\n        return false;\r\n    }\r\n    \r\n    /**\r\n      * @return address The address of the current userFactory.\r\n      */\r\n    function getUserFactory()\r\n        public\r\n        view\r\n        returns(address)\r\n    {\r\n        return backendUserFactory;\r\n    }\r\n\r\n    /**\r\n      * @dev Allows the owner to upgrade the ContentCreatorFactory contract by entering \r\n      *     the new address into this method.\r\n      * @param _newContentCreatorFactory : The address of the new ContentCreatorFactory \r\n      *         address.\r\n      * @return bool Letting the owner know if it successfully updated the \r\n      *     ContentCreatorFactory. \r\n      */\r\n    function changeContentCreatorFactory(address _newContentCreatorFactory) \r\n        public\r\n        onlyOwner()\r\n        stopInEmergency\r\n        pauseFunction\r\n        returns(bool) \r\n    {\r\n        if(_newContentCreatorFactory != backendContentCreatorFactory) {\r\n            \r\n            emit LogNewContract(\r\n                _newContentCreatorFactory, \r\n                backendContentCreatorFactory\r\n            );\r\n            \r\n            previousContentCreatorFactories.push(backendUserFactory);\r\n            ccFactory.kill(backendMinter);\r\n            backendContentCreatorFactory = _newContentCreatorFactory;\r\n            ccFactory = ContentCreatorFactory(backendContentCreatorFactory);\r\n            dataStorage.registryUpdateCCFactory(backendContentCreatorFactory);\r\n            return true;\r\n        }\r\n        return false;\r\n    }\r\n    \r\n    /**\r\n      * @return address The address of the current contentCreatorFactory.\r\n      */\r\n    function getContentCreatorFactory()\r\n        public\r\n        view\r\n        returns(address)\r\n    {\r\n        return backendContentCreatorFactory;\r\n    }\r\n\r\n    /**\r\n      * @dev Allows the owner to upgrade the Minter contract by entering  the \r\n      *     new address into this method.\r\n      * @param _newMinter : The address of the new Minter \r\n      *         address.\r\n      * @return bool Letting the owner know if it successfully updated the \r\n      *     Minter. \r\n      */\r\n    function changeMinter(address _newMinter) \r\n        public\r\n        onlyOwner()\r\n        stopInEmergency\r\n        pauseFunction\r\n        returns(bool) \r\n    {\r\n        if(_newMinter != backendMinter) {\r\n            \r\n            emit LogNewContract(_newMinter, backendMinter);\r\n            \r\n            previousMinters.push(backendMinter);\r\n            ccFactory.kill(_newMinter);\r\n            backendMinter = _newMinter;\r\n            minter = LoveMachine(backendMinter);\r\n            dataStorage.registryUpdateMinter(backendMinter);\r\n            return true;\r\n        }\r\n        return false;\r\n    }\r\n    \r\n    /**\r\n      * @return address The address of the current Minter.\r\n      */\r\n    function getMinter()\r\n        public\r\n        view\r\n        returns(address)\r\n    {\r\n        return backendMinter;\r\n    }\r\n    \r\n    /**\r\n      * @dev Only callable by the onwer, this allows the owner to\r\n      *     upgrade the register itself. Calling this function may require \r\n      *     some set up to be changed in the fornt end, for example the \r\n      *     front ends pointer to the current Register. \r\n      * @param _newRegister : The address of the replacing register. \r\n      */\r\n    function kill(address _newRegister) \r\n        public\r\n        onlyOwner\r\n        pauseFunction\r\n    {\r\n        dataStorage.updateRegister(_newRegister);\r\n        selfdestruct(owner);\r\n    }\r\n}\r\n",
  "sourcePath": "C:\\Users\\Veronica Coutts\\Desktop\\Desktop\\Work\\Web3 Projects\\MVP\\mvp\\contracts\\2Register.sol",
  "compiler": {
    "name": "solc",
    "version": "0.4.24+commit.e67f0147.Emscripten.clang"
  },
  "schemaVersion": "2.0.1",
  "updatedAt": "2018-08-25T14:16:26.725Z"
}