{
  "contractName": "Register",
  "abi": [
    {
      "constant": true,
      "inputs": [],
      "name": "emergencyStop",
      "outputs": [
        {
          "name": "",
          "type": "bool"
        }
      ],
      "payable": false,
      "stateMutability": "view",
      "type": "function"
    },
    {
      "constant": true,
      "inputs": [],
      "name": "pause",
      "outputs": [
        {
          "name": "",
          "type": "bool"
        }
      ],
      "payable": false,
      "stateMutability": "view",
      "type": "function"
    },
    {
      "inputs": [
        {
          "name": "_backendUserFactory",
          "type": "address"
        },
        {
          "name": "_backendContentCreatorFactory",
          "type": "address"
        },
        {
          "name": "_backendMinter",
          "type": "address"
        },
        {
          "name": "_owner",
          "type": "address"
        },
        {
          "name": "_dataStorage",
          "type": "address"
        }
      ],
      "payable": false,
      "stateMutability": "nonpayable",
      "type": "constructor"
    },
    {
      "anonymous": false,
      "inputs": [
        {
          "indexed": false,
          "name": "newContract",
          "type": "address"
        },
        {
          "indexed": false,
          "name": "oldContract",
          "type": "address"
        }
      ],
      "name": "LogNewUserFactory",
      "type": "event"
    },
    {
      "anonymous": false,
      "inputs": [
        {
          "indexed": false,
          "name": "_newContentCreatorFactory",
          "type": "address"
        },
        {
          "indexed": false,
          "name": "backendContentCreatorFactory",
          "type": "address"
        }
      ],
      "name": "LogNewContract",
      "type": "event"
    },
    {
      "constant": false,
      "inputs": [
        {
          "name": "_newUserFactory",
          "type": "address"
        }
      ],
      "name": "changeUserFactory",
      "outputs": [
        {
          "name": "",
          "type": "bool"
        }
      ],
      "payable": false,
      "stateMutability": "nonpayable",
      "type": "function"
    },
    {
      "constant": true,
      "inputs": [],
      "name": "getUserFactory",
      "outputs": [
        {
          "name": "",
          "type": "address"
        }
      ],
      "payable": false,
      "stateMutability": "view",
      "type": "function"
    },
    {
      "constant": false,
      "inputs": [
        {
          "name": "_newContentCreatorFactory",
          "type": "address"
        }
      ],
      "name": "changeContentCreatorFactory",
      "outputs": [
        {
          "name": "",
          "type": "bool"
        }
      ],
      "payable": false,
      "stateMutability": "nonpayable",
      "type": "function"
    },
    {
      "constant": true,
      "inputs": [],
      "name": "getContentCreatorFactory",
      "outputs": [
        {
          "name": "",
          "type": "address"
        }
      ],
      "payable": false,
      "stateMutability": "view",
      "type": "function"
    },
    {
      "constant": false,
      "inputs": [
        {
          "name": "_newMinter",
          "type": "address"
        }
      ],
      "name": "changeMinter",
      "outputs": [
        {
          "name": "",
          "type": "bool"
        }
      ],
      "payable": false,
      "stateMutability": "nonpayable",
      "type": "function"
    },
    {
      "constant": true,
      "inputs": [],
      "name": "getMinter",
      "outputs": [
        {
          "name": "",
          "type": "address"
        }
      ],
      "payable": false,
      "stateMutability": "view",
      "type": "function"
    },
    {
      "constant": false,
      "inputs": [
        {
          "name": "_newRegister",
          "type": "address"
        }
      ],
      "name": "kill",
      "outputs": [],
      "payable": false,
      "stateMutability": "nonpayable",
      "type": "function"
    }
  ],
  "bytecode": "0x6080604052600a805460b060020a60ff021960a060020a61ffff021990911675010000000000000000000000000000000000000000001716905534801561004557600080fd5b5060405160a080610c9383398101604090815281516020830151918301516060840151608090940151600a805460008054600160a060020a03948516600160a060020a03199182161790915560048054968516968216871790556001805482169096179095556006805496841696861687179055600280548616909617909555600880549383169385168417905560038054851690931790925560a860020a60ff021994169190921617919091169055610b8f806101046000396000f30060806040526004361061007f5763ffffffff60e060020a60003504166321815e3681146100845780632c4d4d18146100b95780633c093d5a146100da57806359ebee861461010b57806363a599a41461012c5780638456cb5914610141578063cbf0b0c014610156578063e1d5515514610179578063f36675171461018e575b600080fd5b34801561009057600080fd5b506100a5600160a060020a03600435166101a3565b604080519115158252519081900360200190f35b3480156100c557600080fd5b506100a5600160a060020a0360043516610477565b3480156100e657600080fd5b506100ef61071c565b60408051600160a060020a039092168252519081900360200190f35b34801561011757600080fd5b506100a5600160a060020a036004351661072b565b34801561013857600080fd5b506100a56109d3565b34801561014d57600080fd5b506100a56109f4565b34801561016257600080fd5b50610177600160a060020a0360043516610a04565b005b34801561018557600080fd5b506100ef610b45565b34801561019a57600080fd5b506100ef610b54565b600a54600090600160a060020a031633146101bd57600080fd5b600a5474010000000000000000000000000000000000000000900460ff16156101e557600080fd5b600a5460a860020a900460ff16156101fc57600080fd5b6000809054906101000a9004600160a060020a0316600160a060020a0316638456cb596040518163ffffffff1660e060020a028152600401602060405180830381600087803b15801561024e57600080fd5b505af1158015610262573d6000803e3d6000fd5b505050506040513d602081101561027857600080fd5b50511561028457600080fd5b600454600160a060020a0383811691161461046e5760045460408051600160a060020a038086168252909216602083015280517f551060e17116e4c03a5cb1beee4a599abe03db9e44126cc5b3e6215d7afde0819281900390910190a160048054600580546001818101835560009283527f036b6384b5eca791c62761152d0c79bb0604c104a5fb6f4eb0703f3154bb3db0909101805473ffffffffffffffffffffffffffffffffffffffff1916600160a060020a0394851617905554600854604080517fcbf0b0c000000000000000000000000000000000000000000000000000000000815291851695820195909552935192169263cbf0b0c0926024808301939282900301818387803b15801561039c57600080fd5b505af11580156103b0573d6000803e3d6000fd5b505060048054600160a060020a0380871673ffffffffffffffffffffffffffffffffffffffff19928316178084556001805490931690821690811790925560008054604080517fc385353700000000000000000000000000000000000000000000000000000000815295860194909452925192909116945063c3853537935060248084019391929182900301818387803b15801561044d57600080fd5b505af1158015610461573d6000803e3d6000fd5b5050505060019050610472565b5060005b919050565b600a54600090600160a060020a0316331461049157600080fd5b600a5474010000000000000000000000000000000000000000900460ff16156104b957600080fd5b600a5460a860020a900460ff16156104d057600080fd5b6000809054906101000a9004600160a060020a0316600160a060020a0316638456cb596040518163ffffffff1660e060020a028152600401602060405180830381600087803b15801561052257600080fd5b505af1158015610536573d6000803e3d6000fd5b505050506040513d602081101561054c57600080fd5b50511561055857600080fd5b600854600160a060020a0383811691161461046e5760085460408051600160a060020a038086168252909216602083015280517f551060e17116e4c03a5cb1beee4a599abe03db9e44126cc5b3e6215d7afde0819281900390910190a16008546009805460018101825560009182527f6e1540171b6c0c960b71a7020d9f60077f6af931a8bbf590da0223dacf75c7af01805473ffffffffffffffffffffffffffffffffffffffff1916600160a060020a03938416179055600254604080517fcbf0b0c000000000000000000000000000000000000000000000000000000000815286851660048201529051919093169263cbf0b0c092602480830193919282900301818387803b15801561066c57600080fd5b505af1158015610680573d6000803e3d6000fd5b505060088054600160a060020a0380871673ffffffffffffffffffffffffffffffffffffffff1992831617928390556003805490921692811692831790915560008054604080517fee38ae560000000000000000000000000000000000000000000000000000000081526004810195909552519216945063ee38ae56935060248084019391929182900301818387803b15801561044d57600080fd5b600654600160a060020a031690565b600a54600090600160a060020a0316331461074557600080fd5b600a5474010000000000000000000000000000000000000000900460ff161561076d57600080fd5b600a5460a860020a900460ff161561078457600080fd5b6000809054906101000a9004600160a060020a0316600160a060020a0316638456cb596040518163ffffffff1660e060020a028152600401602060405180830381600087803b1580156107d657600080fd5b505af11580156107ea573d6000803e3d6000fd5b505050506040513d602081101561080057600080fd5b50511561080c57600080fd5b600654600160a060020a0383811691161461046e5760065460408051600160a060020a038086168252909216602083015280517f551060e17116e4c03a5cb1beee4a599abe03db9e44126cc5b3e6215d7afde0819281900390910190a1600480546007805460018101825560009182527fa66cc928b5edb82af9bd49922954155ab7b0942694bea4ce44661d9a8736c68801805473ffffffffffffffffffffffffffffffffffffffff1916600160a060020a03938416179055600254600854604080517fcbf0b0c000000000000000000000000000000000000000000000000000000000815291851695820195909552935192169263cbf0b0c0926024808301939282900301818387803b15801561092357600080fd5b505af1158015610937573d6000803e3d6000fd5b505060068054600160a060020a0380871673ffffffffffffffffffffffffffffffffffffffff1992831617928390556002805490921692811692831790915560008054604080517fe393c5aa0000000000000000000000000000000000000000000000000000000081526004810195909552519216945063e393c5aa935060248084019391929182900301818387803b15801561044d57600080fd5b600a5474010000000000000000000000000000000000000000900460ff1681565b600a5460a860020a900460ff1681565b600a54600160a060020a03163314610a1b57600080fd5b600a5460a860020a900460ff1615610a3257600080fd5b6000809054906101000a9004600160a060020a0316600160a060020a0316638456cb596040518163ffffffff1660e060020a028152600401602060405180830381600087803b158015610a8457600080fd5b505af1158015610a98573d6000803e3d6000fd5b505050506040513d6020811015610aae57600080fd5b505115610aba57600080fd5b60008054604080517f76fc2b6e000000000000000000000000000000000000000000000000000000008152600160a060020a038581166004830152915191909216926376fc2b6e926024808201939182900301818387803b158015610b1e57600080fd5b505af1158015610b32573d6000803e3d6000fd5b5050600a54600160a060020a0316915050ff5b600454600160a060020a031690565b600854600160a060020a0316905600a165627a7a72305820377df49fed549793d7c90313c79ff131919fe6bfd89d89d23c93809eb1d678970029",
  "source": "pragma solidity 0.4.24;\r\n\r\n\r\nimport \"./DataStorage.sol\";\r\nimport \"./UserFactory.sol\";\r\nimport \"./ContentCreatorFactory.sol\";\r\nimport \"./LoveMachine.sol\";\r\n\r\ncontract Register {\r\n    DataStorage dataStorage;\r\n    UserFactory userFactory;\r\n    ContentCreatorFactory ccFactory;\r\n    LoveMachine minter;\r\n\r\n    address backendUserFactory;\r\n    address[] previousUserFactories;\r\n    address backendContentCreatorFactory;\r\n    address[] previousContentCreatorFactories;\r\n    address backendMinter;\r\n    address[] previousMinters;\r\n    address owner;\r\n\r\n    bool public emergencyStop = false;\r\n    bool public pause = true;\r\n    bool callOnce = false;\r\n\r\n    event LogNewUserFactory(address newContract, address oldContract);\r\n    event LogNewContract(\r\n        address _newContentCreatorFactory, \r\n        address backendContentCreatorFactory\r\n    );\r\n\r\n    //Restricts functions use to when there is an emergency \r\n    modifier onlyInEmergency {\r\n        require(emergencyStop);\r\n        _;\r\n    }\r\n    \r\n    //Restricts functions to only when there is not an emergency.\r\n    modifier stopInEmergency {\r\n        require(!emergencyStop);\r\n        _;\r\n    }\r\n    \r\n    //pauses all functionality untill contract set up is compleate.\r\n    modifier pauseFunction {\r\n        require(!pause);\r\n        require(!dataStorage.pause());\r\n        _;\r\n    }\r\n    \r\n    //This allows the set up to only run once.\r\n    modifier onlyCallOnce {\r\n        require(!callOnce, \"This contract has already been set up\");\r\n        _;\r\n    }\r\n\r\n    //Restricts the function to only be called by the owner.\r\n    modifier onlyOwner {\r\n        require(msg.sender == owner);\r\n        _;\r\n    }\r\n\r\n    //The empty constructor function allowing for the address to be created.\r\n    constructor(\r\n        address _backendUserFactory, \r\n        address _backendContentCreatorFactory, \r\n        address _backendMinter, \r\n        address _owner,\r\n        address _dataStorage\r\n        ) \r\n        public \r\n    {\r\n        owner = _owner;\r\n        dataStorage = DataStorage(_dataStorage);\r\n        backendUserFactory = _backendUserFactory;\r\n        userFactory = UserFactory(_backendUserFactory);\r\n        backendContentCreatorFactory = _backendContentCreatorFactory;\r\n        ccFactory = ContentCreatorFactory(_backendContentCreatorFactory);\r\n        backendMinter = _backendMinter;\r\n        minter = LoveMachine(_backendMinter);\r\n        \r\n        pause = false;\r\n    }\r\n    \r\n    /**\r\n      * @dev Allows for the set up of the Register contract. \r\n      *     This function is required as a contract dose not have\r\n      *     an address untill the constructor has finished executing, \r\n      *     so the constructor functionality had to be seporated out \r\n      *     to allow for the various addresses to be created and passed in. \r\n      */\r\n    // function constructorFunction(address _backendUserFactory, \r\n    //     address _backendContentCreatorFactory, \r\n    //     address _backendMinter, \r\n    //     address _owner,\r\n    //     address _dataStorage)\r\n    //     public\r\n    //     onlyCallOnce\r\n    // {\r\n    //     owner == _owner;\r\n    //     dataStorage = DataStorage(_dataStorage);\r\n    //     backendUserFactory = _backendUserFactory;\r\n    //     userFactory = UserFactory(_backendUserFactory);\r\n    //     backendContentCreatorFactory = _backendContentCreatorFactory;\r\n    //     ccFactory = ContentCreatorFactory(_backendContentCreatorFactory);\r\n    //     backendMinter = _backendMinter;\r\n    //     minter = LoveMachine(_backendMinter);\r\n        \r\n    //     pause = false;\r\n        \r\n    //     callOnce = true;\r\n        \r\n    // }\r\n    \r\n    /**\r\n      * @dev Allows the owner to upgrade the UserFactory contract by entering the new address\r\n      *     into this method.\r\n      * @param _newUserFactory : The address of the new UserFactory address.\r\n      * @return bool Letting the owner know if it successfully updated the UserFactory. \r\n      */\r\n    function changeUserFactory(address _newUserFactory) \r\n        public\r\n        onlyOwner()\r\n        stopInEmergency\r\n        pauseFunction\r\n        returns(bool) \r\n    {\r\n        if(_newUserFactory != backendUserFactory) {\r\n            \r\n            emit LogNewContract(_newUserFactory, backendUserFactory);\r\n            \r\n            previousUserFactories.push(backendUserFactory);\r\n            userFactory.kill(backendMinter);\r\n            backendUserFactory = _newUserFactory;\r\n            userFactory = UserFactory(backendUserFactory);\r\n            dataStorage.registryUpdateUserFactory(backendUserFactory);\r\n            return true;\r\n        }\r\n        return false;\r\n    }\r\n    \r\n    /**\r\n      * @return address The address of the current userFactory.\r\n      */\r\n    function getUserFactory()\r\n        public\r\n        view\r\n        returns(address)\r\n    {\r\n        return backendUserFactory;\r\n    }\r\n\r\n    /**\r\n      * @dev Allows the owner to upgrade the ContentCreatorFactory contract by entering \r\n      *     the new address into this method.\r\n      * @param _newContentCreatorFactory : The address of the new ContentCreatorFactory \r\n      *         address.\r\n      * @return bool Letting the owner know if it successfully updated the \r\n      *     ContentCreatorFactory. \r\n      */\r\n    function changeContentCreatorFactory(address _newContentCreatorFactory) \r\n        public\r\n        onlyOwner()\r\n        stopInEmergency\r\n        pauseFunction\r\n        returns(bool) \r\n    {\r\n        if(_newContentCreatorFactory != backendContentCreatorFactory) {\r\n            \r\n            emit LogNewContract(\r\n                _newContentCreatorFactory, \r\n                backendContentCreatorFactory\r\n            );\r\n            \r\n            previousContentCreatorFactories.push(backendUserFactory);\r\n            ccFactory.kill(backendMinter);\r\n            backendContentCreatorFactory = _newContentCreatorFactory;\r\n            ccFactory = ContentCreatorFactory(backendContentCreatorFactory);\r\n            dataStorage.registryUpdateCCFactory(backendContentCreatorFactory);\r\n            return true;\r\n        }\r\n        return false;\r\n    }\r\n    \r\n    /**\r\n      * @return address The address of the current contentCreatorFactory.\r\n      */\r\n    function getContentCreatorFactory()\r\n        public\r\n        view\r\n        returns(address)\r\n    {\r\n        return backendContentCreatorFactory;\r\n    }\r\n\r\n    /**\r\n      * @dev Allows the owner to upgrade the Minter contract by entering  the \r\n      *     new address into this method.\r\n      * @param _newMinter : The address of the new Minter \r\n      *         address.\r\n      * @return bool Letting the owner know if it successfully updated the \r\n      *     Minter. \r\n      */\r\n    function changeMinter(address _newMinter) \r\n        public\r\n        onlyOwner()\r\n        stopInEmergency\r\n        pauseFunction\r\n        returns(bool) \r\n    {\r\n        if(_newMinter != backendMinter) {\r\n            \r\n            emit LogNewContract(_newMinter, backendMinter);\r\n            \r\n            previousMinters.push(backendMinter);\r\n            ccFactory.kill(_newMinter);\r\n            backendMinter = _newMinter;\r\n            minter = LoveMachine(backendMinter);\r\n            dataStorage.registryUpdateMinter(backendMinter);\r\n            return true;\r\n        }\r\n        return false;\r\n    }\r\n    \r\n    /**\r\n      * @return address The address of the current Minter.\r\n      */\r\n    function getMinter()\r\n        public\r\n        view\r\n        returns(address)\r\n    {\r\n        return backendMinter;\r\n    }\r\n    \r\n    /**\r\n      * @dev Only callable by the onwer, this allows the owner to\r\n      *     upgrade the register itself. Calling this function may require \r\n      *     some set up to be changed in the fornt end, for example the \r\n      *     front ends pointer to the current Register. \r\n      * @param _newRegister : The address of the replacing register. \r\n      */\r\n    function kill(address _newRegister) \r\n        public\r\n        onlyOwner\r\n        pauseFunction\r\n    {\r\n        dataStorage.updateRegister(_newRegister);\r\n        selfdestruct(owner);\r\n    }\r\n}\r\n",
  "sourcePath": "C:\\Users\\Veronica Coutts\\Desktop\\Desktop\\Work\\Web3 Projects\\MVP\\mvp\\contracts\\Register.sol",
  "compiler": {
    "name": "solc",
    "version": "0.4.24+commit.e67f0147.Emscripten.clang"
  },
  "schemaVersion": "2.0.1",
  "updatedAt": "2018-08-26T16:46:55.710Z"
}