{
  "contractName": "UserFactory",
  "abi": [
    {
      "constant": true,
      "inputs": [
        {
          "name": "",
          "type": "uint256"
        }
      ],
      "name": "usersNames",
      "outputs": [
        {
          "name": "",
          "type": "string"
        }
      ],
      "payable": false,
      "stateMutability": "view",
      "type": "function"
    },
    {
      "constant": true,
      "inputs": [
        {
          "name": "",
          "type": "uint256"
        }
      ],
      "name": "usersAddresses",
      "outputs": [
        {
          "name": "",
          "type": "address"
        }
      ],
      "payable": false,
      "stateMutability": "view",
      "type": "function"
    },
    {
      "constant": true,
      "inputs": [
        {
          "name": "",
          "type": "address"
        }
      ],
      "name": "allUsers",
      "outputs": [
        {
          "name": "",
          "type": "string"
        }
      ],
      "payable": false,
      "stateMutability": "view",
      "type": "function"
    },
    {
      "inputs": [],
      "payable": false,
      "stateMutability": "nonpayable",
      "type": "constructor"
    },
    {
      "anonymous": false,
      "inputs": [
        {
          "indexed": false,
          "name": "_userAddress",
          "type": "address"
        },
        {
          "indexed": false,
          "name": "_contractAddress",
          "type": "address"
        }
      ],
      "name": "LogCreatedUser",
      "type": "event"
    },
    {
      "constant": false,
      "inputs": [
        {
          "name": "_userName",
          "type": "string"
        }
      ],
      "name": "createUser",
      "outputs": [
        {
          "name": "userContractAdd",
          "type": "address"
        }
      ],
      "payable": false,
      "stateMutability": "nonpayable",
      "type": "function"
    },
    {
      "constant": false,
      "inputs": [
        {
          "name": "_contractAddress",
          "type": "address"
        }
      ],
      "name": "deleteUserFinal",
      "outputs": [
        {
          "name": "",
          "type": "bool"
        }
      ],
      "payable": false,
      "stateMutability": "nonpayable",
      "type": "function"
    }
  ],
  "bytecode": "0x608060405234801561001057600080fd5b503373ffffffffffffffffffffffffffffffffffffffff16600360009054906101000a90505050611233806100466000396000f30060806040526004361061006d576000357c0100000000000000000000000000000000000000000000000000000000900463ffffffff168063507ffba5146100725780635ebe20321461011b57806373338081146101c1578063cd189e2b1461022e578063edbece3714610289575b600080fd5b34801561007e57600080fd5b506100d9600480360381019080803590602001908201803590602001908080601f0160208091040260200160405190810160405280939291908181526020018383808284378201915050505050509192919290505050610345565b604051808273ffffffffffffffffffffffffffffffffffffffff1673ffffffffffffffffffffffffffffffffffffffff16815260200191505060405180910390f35b34801561012757600080fd5b506101466004803603810190808035906020019092919050505061066c565b6040518080602001828103825283818151815260200191508051906020019080838360005b8381101561018657808201518184015260208101905061016b565b50505050905090810190601f1680156101b35780820380516001836020036101000a031916815260200191505b509250505060405180910390f35b3480156101cd57600080fd5b506101ec60048036038101908080359060200190929190505050610727565b604051808273ffffffffffffffffffffffffffffffffffffffff1673ffffffffffffffffffffffffffffffffffffffff16815260200191505060405180910390f35b34801561023a57600080fd5b5061026f600480360381019080803573ffffffffffffffffffffffffffffffffffffffff169060200190929190505050610765565b604051808215151515815260200191505060405180910390f35b34801561029557600080fd5b506102ca600480360381019080803573ffffffffffffffffffffffffffffffffffffffff1690602001909291905050506109d2565b6040518080602001828103825283818151815260200191508051906020019080838360005b8381101561030a5780820151818401526020810190506102ef565b50505050905090810190601f1680156103375780820380516001836020036101000a031916815260200191505b509250505060405180910390f35b6000808260008090505b6002805490508110156104625760028181548110151561036b57fe5b9060005260206000200160405180828054600181600116156101000203166002900480156103d05780601f106103ae5761010080835404028352918201916103d0565b820191906000526020600020905b8154815290600101906020018083116103bc575b5050915050604051809103902060001916826040518082805190602001908083835b60208310151561041757805182526020820191506020810190506020830392506103f2565b6001836020036101000a0380198251168184511680821785525050505050509050019150506040518091039020600019161415151561045557600080fd5b808060010191505061034f565b3342863061046e610a82565b808573ffffffffffffffffffffffffffffffffffffffff1673ffffffffffffffffffffffffffffffffffffffff168152602001848152602001806020018373ffffffffffffffffffffffffffffffffffffffff1673ffffffffffffffffffffffffffffffffffffffff168152602001828103825284818151815260200191508051906020019080838360005b838110156105155780820151818401526020810190506104fa565b50505050905090810190601f1680156105425780820380516001836020036101000a031916815260200191505b5095505050505050604051809103906000f080158015610566573d6000803e3d6000fd5b509250846000808573ffffffffffffffffffffffffffffffffffffffff1673ffffffffffffffffffffffffffffffffffffffff16815260200190815260200160002090805190602001906105bb929190610a92565b5060018390806001815401808255809150509060018203906000526020600020016000909192909190916101000a81548173ffffffffffffffffffffffffffffffffffffffff021916908373ffffffffffffffffffffffffffffffffffffffff16021790555050600285908060018154018082558091505090600182039060005260206000200160009091929091909150908051906020019061065f929190610a92565b5050829350505050919050565b60028181548110151561067b57fe5b906000526020600020016000915090508054600181600116156101000203166002900480601f01602080910402602001604051908101604052809291908181526020018280546001816001161561010002031660029004801561071f5780601f106106f45761010080835404028352916020019161071f565b820191906000526020600020905b81548152906001019060200180831161070257829003601f168201915b505050505081565b60018181548110151561073657fe5b906000526020600020016000915054906101000a900473ffffffffffffffffffffffffffffffffffffffff1681565b6000808273ffffffffffffffffffffffffffffffffffffffff163373ffffffffffffffffffffffffffffffffffffffff161415156107a257600080fd5b6040518060000190506040518091039020600019166000808573ffffffffffffffffffffffffffffffffffffffff1673ffffffffffffffffffffffffffffffffffffffff16815260200190815260200160002060405180828054600181600116156101000203166002900480156108505780601f1061082e576101008083540402835291820191610850565b820191906000526020600020905b81548152906001019060200180831161083c575b50509150506040518091039020600019161415151561086e57600080fd5b60206040519081016040528060008152506000808573ffffffffffffffffffffffffffffffffffffffff1673ffffffffffffffffffffffffffffffffffffffff16815260200190815260200160002090805190602001906108d0929190610a92565b50600090505b6001805490508110156109c7578273ffffffffffffffffffffffffffffffffffffffff1660018281548110151561090957fe5b9060005260206000200160009054906101000a900473ffffffffffffffffffffffffffffffffffffffff1673ffffffffffffffffffffffffffffffffffffffff1614156109ba5760018181548110151561095f57fe5b9060005260206000200160006101000a81549073ffffffffffffffffffffffffffffffffffffffff021916905560028181548110151561099b57fe5b9060005260206000200160006109b19190610b12565b600191506109cc565b80806001019150506108d6565b600091505b50919050565b60006020528060005260406000206000915090508054600181600116156101000203166002900480601f016020809104026020016040519081016040528092919081815260200182805460018160011615610100020316600290048015610a7a5780601f10610a4f57610100808354040283529160200191610a7a565b820191906000526020600020905b815481529060010190602001808311610a5d57829003601f168201915b505050505081565b60405161068880610b8083390190565b828054600181600116156101000203166002900490600052602060002090601f016020900481019282601f10610ad357805160ff1916838001178555610b01565b82800160010185558215610b01579182015b82811115610b00578251825591602001919060010190610ae5565b5b509050610b0e9190610b5a565b5090565b50805460018160011615610100020316600290046000825580601f10610b385750610b57565b601f016020900490600052602060002090810190610b569190610b5a565b5b50565b610b7c91905b80821115610b78576000816000905550600101610b60565b5090565b905600608060405234801561001057600080fd5b506040516106883803806106888339810180604052810190808051906020019092919080519060200190929190805182019291906020018051906020019092919050505083600160006101000a81548173ffffffffffffffffffffffffffffffffffffffff021916908373ffffffffffffffffffffffffffffffffffffffff1602179055508260038190555081600290805190602001906100b29291906100fc565b50806000806101000a81548173ffffffffffffffffffffffffffffffffffffffff021916908373ffffffffffffffffffffffffffffffffffffffff160217905550505050506101a1565b828054600181600116156101000203166002900490600052602060002090601f016020900481019282601f1061013d57805160ff191683800117855561016b565b8280016001018555821561016b579182015b8281111561016a57825182559160200191906001019061014f565b5b509050610178919061017c565b5090565b61019e91905b8082111561019a576000816000905550600101610182565b5090565b90565b6104d8806101b06000396000f30060806040526004361061006d576000357c0100000000000000000000000000000000000000000000000000000000900463ffffffff168063026ff05e1461007257806370019b35146100a15780638da5cb5b14610131578063ca979d5014610188578063e8380d9b146101b3575b600080fd5b34801561007e57600080fd5b506100876101e2565b604051808215151515815260200191505060405180910390f35b3480156100ad57600080fd5b506100b661037d565b6040518080602001828103825283818151815260200191508051906020019080838360005b838110156100f65780820151818401526020810190506100db565b50505050905090810190601f1680156101235780820380516001836020036101000a031916815260200191505b509250505060405180910390f35b34801561013d57600080fd5b5061014661041b565b604051808273ffffffffffffffffffffffffffffffffffffffff1673ffffffffffffffffffffffffffffffffffffffff16815260200191505060405180910390f35b34801561019457600080fd5b5061019d610441565b6040518082815260200191505060405180910390f35b3480156101bf57600080fd5b506101c8610447565b604051808215151515815260200191505060405180910390f35b6000600160009054906101000a900473ffffffffffffffffffffffffffffffffffffffff1673ffffffffffffffffffffffffffffffffffffffff163373ffffffffffffffffffffffffffffffffffffffff1614151561024057600080fd5b6000809054906101000a900473ffffffffffffffffffffffffffffffffffffffff1673ffffffffffffffffffffffffffffffffffffffff1663cd189e2b306040518263ffffffff167c0100000000000000000000000000000000000000000000000000000000028152600401808273ffffffffffffffffffffffffffffffffffffffff1673ffffffffffffffffffffffffffffffffffffffff168152602001915050602060405180830381600087803b1580156102fc57600080fd5b505af1158015610310573d6000803e3d6000fd5b505050506040513d602081101561032657600080fd5b8101908080519060200190929190505050151561034257600080fd5b600160009054906101000a900473ffffffffffffffffffffffffffffffffffffffff1673ffffffffffffffffffffffffffffffffffffffff16ff5b60028054600181600116156101000203166002900480601f0160208091040260200160405190810160405280929190818152602001828054600181600116156101000203166002900480156104135780601f106103e857610100808354040283529160200191610413565b820191906000526020600020905b8154815290600101906020018083116103f657829003601f168201915b505050505081565b600160009054906101000a900473ffffffffffffffffffffffffffffffffffffffff1681565b60035481565b6000600160009054906101000a900473ffffffffffffffffffffffffffffffffffffffff1673ffffffffffffffffffffffffffffffffffffffff163373ffffffffffffffffffffffffffffffffffffffff161415156104a557600080fd5b60019050905600a165627a7a72305820d7b7784633f48465e76f22693bc8e30ddd47ffbdf7a1dd2bb6aa54716129275a0029a165627a7a72305820553f22dd69bcfe6bfa1b4208523876e66592d0b7c6adf1ef32390cf03a6800600029",
  "source": "pragma solidity 0.4.24;\r\n\r\nimport \"./User.sol\";\r\n\r\ncontract UserFactory {\r\n    mapping (address => string) public allUsers;\r\n    address[] public usersAddresses;\r\n    string[] public usersNames;\r\n    address owner;\r\n    \r\n    constructor() public {\r\n        owner == msg.sender;\r\n    }\r\n    \r\n    modifier onlyOwner {\r\n        require(msg.sender == owner);\r\n        _;\r\n    }\r\n    \r\n    modifier uniqueUserName(string _userName) {\r\n        for(uint i = 0; i < usersNames.length; i++){\r\n            require(keccak256(_userName) != keccak256(usersNames[i]));\r\n        }\r\n        _;\r\n    }\r\n    \r\n    event LogCreatedUser(address _userAddress, address _contractAddress);\r\n\r\n    function createUser(string _userName) \r\n    public \r\n    uniqueUserName(_userName)\r\n    returns(address userContractAdd) {\r\n        address newUser = new User(msg.sender, now, _userName, this);\r\n        allUsers[newUser] = _userName;\r\n        usersAddresses.push(newUser);\r\n        usersNames.push(_userName);\r\n        return newUser;\r\n    }\r\n    \r\n    function deleteUserFinal(address _contractAddress)\r\n    public \r\n    returns(bool) {\r\n        require(msg.sender == _contractAddress);\r\n        require(keccak256(allUsers[_contractAddress]) != keccak256(\"\"));\r\n        allUsers[_contractAddress] = \"\";\r\n        for(uint i = 0; i < usersAddresses.length; i++) {\r\n            if(usersAddresses[i] == _contractAddress) {\r\n                delete usersAddresses[i];\r\n                delete usersNames[i];\r\n                return true;\r\n            }\r\n        }\r\n        return false;\r\n    }\r\n    \r\n    // function deteteFactory() \r\n    // public \r\n    // onlyOwner \r\n    // returns(bool) {\r\n    //     //loop through all users and call their respective selfdestruct functions,\r\n    //     //sending all Eth/views value to the owners of the user contracts. \r\n    // }\r\n}",
  "sourcePath": "C:\\Users\\Veronica Coutts\\Desktop\\Desktop\\Work\\Web3 Projects\\MVP\\mvp\\contracts\\UserFactory.sol",
  "compiler": {
    "name": "solc",
    "version": "0.4.24+commit.e67f0147.Emscripten.clang"
  },
  "schemaVersion": "2.0.1",
  "updatedAt": "2018-08-19T16:31:58.096Z"
}