{
  "contractName": "UserFactory",
  "abi": [
    {
      "constant": true,
      "inputs": [],
      "name": "emergencyStop",
      "outputs": [
        {
          "name": "",
          "type": "bool"
        }
      ],
      "payable": false,
      "stateMutability": "view",
      "type": "function"
    },
    {
      "constant": true,
      "inputs": [],
      "name": "pause",
      "outputs": [
        {
          "name": "",
          "type": "bool"
        }
      ],
      "payable": false,
      "stateMutability": "view",
      "type": "function"
    },
    {
      "inputs": [
        {
          "name": "_dataStorage",
          "type": "address"
        },
        {
          "name": "_owner",
          "type": "address"
        },
        {
          "name": "_ccFactory",
          "type": "address"
        }
      ],
      "payable": false,
      "stateMutability": "nonpayable",
      "type": "constructor"
    },
    {
      "anonymous": false,
      "inputs": [
        {
          "indexed": false,
          "name": "_userAddress",
          "type": "address"
        },
        {
          "indexed": false,
          "name": "_contractAddress",
          "type": "address"
        }
      ],
      "name": "LogCreatedUser",
      "type": "event"
    },
    {
      "constant": true,
      "inputs": [],
      "name": "getMinter",
      "outputs": [
        {
          "name": "",
          "type": "address"
        }
      ],
      "payable": false,
      "stateMutability": "view",
      "type": "function"
    },
    {
      "constant": true,
      "inputs": [],
      "name": "getContentCreatorFactory",
      "outputs": [
        {
          "name": "",
          "type": "address"
        }
      ],
      "payable": false,
      "stateMutability": "view",
      "type": "function"
    },
    {
      "constant": true,
      "inputs": [],
      "name": "isCreator",
      "outputs": [
        {
          "name": "",
          "type": "bool"
        }
      ],
      "payable": false,
      "stateMutability": "view",
      "type": "function"
    },
    {
      "constant": true,
      "inputs": [],
      "name": "getCreatorAddress",
      "outputs": [
        {
          "name": "",
          "type": "address"
        }
      ],
      "payable": false,
      "stateMutability": "view",
      "type": "function"
    },
    {
      "constant": true,
      "inputs": [],
      "name": "getDataStorageAddress",
      "outputs": [
        {
          "name": "",
          "type": "address"
        }
      ],
      "payable": false,
      "stateMutability": "view",
      "type": "function"
    },
    {
      "constant": false,
      "inputs": [
        {
          "name": "_userName",
          "type": "string"
        }
      ],
      "name": "createUser",
      "outputs": [
        {
          "name": "",
          "type": "address"
        }
      ],
      "payable": false,
      "stateMutability": "nonpayable",
      "type": "function"
    },
    {
      "constant": false,
      "inputs": [
        {
          "name": "_contractAddress",
          "type": "address"
        }
      ],
      "name": "deleteUserFinal",
      "outputs": [
        {
          "name": "",
          "type": "bool"
        }
      ],
      "payable": false,
      "stateMutability": "nonpayable",
      "type": "function"
    },
    {
      "constant": false,
      "inputs": [
        {
          "name": "_minter",
          "type": "address"
        }
      ],
      "name": "kill",
      "outputs": [],
      "payable": false,
      "stateMutability": "nonpayable",
      "type": "function"
    }
  ],
  "bytecode": "0x60806040526005805460a060020a62ffffff021916905534801561002257600080fd5b5060405160608061172383398101604090815281516020830151919092015160038054600160a060020a03948516600160a060020a0319918216811790925560008054821690921790915560058054938516938216939093179092556002805493909116929091169190911790556116848061009f6000396000f30060806040526004361061008a5763ffffffff60e060020a6000350416633c093d5a811461008f578063507ffba5146100c0578063638f83601461011957806363a599a41461012e5780638456cb591461015757806394d2d7a71461016c578063cbf0b0c014610181578063cd189e2b146101a4578063ee92d484146101c5578063f3667517146101da575b600080fd5b34801561009b57600080fd5b506100a46101ef565b60408051600160a060020a039092168252519081900360200190f35b3480156100cc57600080fd5b506040805160206004803580820135601f81018490048402850184019095528484526100a49436949293602493928401919081908401838280828437509497506102749650505050505050565b34801561012557600080fd5b506100a46104fd565b34801561013a57600080fd5b5061014361050c565b604080519115158252519081900360200190f35b34801561016357600080fd5b5061014361052d565b34801561017857600080fd5b506100a461054f565b34801561018d57600080fd5b506101a2600160a060020a03600435166105b5565b005b3480156101b057600080fd5b50610143600160a060020a036004351661066a565b3480156101d157600080fd5b506101436108e7565b3480156101e657600080fd5b506100a461094d565b60008060009054906101000a9004600160a060020a0316600160a060020a031663cd8c43b66040518163ffffffff1660e060020a028152600401602060405180830381600087803b15801561024357600080fd5b505af1158015610257573d6000803e3d6000fd5b505050506040513d602081101561026d57600080fd5b5051905090565b600554600090819074010000000000000000000000000000000000000000900460ff16156102a157600080fd5b6005547501000000000000000000000000000000000000000000900460ff16156102ca57600080fd5b6000809054906101000a9004600160a060020a0316600160a060020a0316638456cb596040518163ffffffff1660e060020a028152600401602060405180830381600087803b15801561031c57600080fd5b505af1158015610330573d6000803e3d6000fd5b505050506040513d602081101561034657600080fd5b50511561035257600080fd5b33833061035d6109a1565b600160a060020a03808516825282166040820152606060208083018281528551928401929092528451608084019186019080838360005b838110156103ac578181015183820152602001610394565b50505050905090810190601f1680156103d95780820380516001836020036101000a031916815260200191505b50945050505050604051809103906000f0801580156103fc573d6000803e3d6000fd5b50600080546040517fccaf95530000000000000000000000000000000000000000000000000000000081523360048201818152600160a060020a0380871660248501526060604485019081528a5160648601528a5197985094169563ccaf955395929488948b9491926084909101916020860191908190849084905b83811015610490578181015183820152602001610478565b50505050905090810190601f1680156104bd5780820380516001836020036101000a031916815260200191505b50945050505050600060405180830381600087803b1580156104de57600080fd5b505af11580156104f2573d6000803e3d6000fd5b509295945050505050565b600354600160a060020a031690565b60055474010000000000000000000000000000000000000000900460ff1681565b6005547501000000000000000000000000000000000000000000900460ff1681565b60008054604080517fb7acf7c30000000000000000000000000000000000000000000000000000000081523360048201529051600160a060020a039092169163b7acf7c39160248082019260209290919082900301818787803b15801561024357600080fd5b600554600160a060020a031633148061065357506000809054906101000a9004600160a060020a0316600160a060020a031663ed9aab516040518163ffffffff1660e060020a028152600401602060405180830381600087803b15801561061b57600080fd5b505af115801561062f573d6000803e3d6000fd5b505050506040513d602081101561064557600080fd5b5051600160a060020a031633145b151561065e57600080fd5b80600160a060020a0316ff5b60055460009060609074010000000000000000000000000000000000000000900460ff161561069857600080fd5b6005547501000000000000000000000000000000000000000000900460ff16156106c157600080fd5b6000809054906101000a9004600160a060020a0316600160a060020a0316638456cb596040518163ffffffff1660e060020a028152600401602060405180830381600087803b15801561071357600080fd5b505af1158015610727573d6000803e3d6000fd5b505050506040513d602081101561073d57600080fd5b50511561074957600080fd5b33600160a060020a0384161461075e57600080fd5b60008054604080517f64015cc9000000000000000000000000000000000000000000000000000000008152600160a060020a038781166004830152915191909216926364015cc9926024808201939182900301818387803b1580156107c257600080fd5b505af11580156107d6573d6000803e3d6000fd5b505050506040513d6000823e601f3d908101601f1916820160405260208110156107ff57600080fd5b81019080805164010000000081111561081757600080fd5b8201602081018481111561082a57600080fd5b815164010000000081118282018710171561084457600080fd5b505060405181519195507fc5d2460186f7233c927e7db2dcc703c0e500b653ca82273b7bfad8045d85a47094508593509150819060208401908083835b602083106108a05780518252601f199092019160209182019101610881565b6001836020036101000a038019825116818451168082178552505050505050905001915050604051809103902060001916141515156108de57600080fd5b50600192915050565b60008054604080517fefd460650000000000000000000000000000000000000000000000000000000081523360048201529051600160a060020a039092169163efd460659160248082019260209290919082900301818787803b15801561024357600080fd5b60008060009054906101000a9004600160a060020a0316600160a060020a03166334d722c96040518163ffffffff1660e060020a028152600401602060405180830381600087803b15801561024357600080fd5b604051610ca7806109b2833901905600608060405234801561001057600080fd5b50604051610ca7380380610ca783398101604090815281516020808401519284015160018054600160a060020a031916600160a060020a03851617905542600355929093018051919390929161006c9160029190850190610095565b5060008054600160a060020a031916600160a060020a0392909216919091179055506101309050565b828054600181600116156101000203166002900490600052602060002090601f016020900481019282601f106100d657805160ff1916838001178555610103565b82800160010185558215610103579182015b828111156101035782518255916020019190600101906100e8565b5061010f929150610113565b5090565b61012d91905b8082111561010f5760008155600101610119565b90565b610b688061013f6000396000f3006080604052600436106100955763ffffffff60e060020a600035041663026ff05e811461009a5780634cad552b146100c3578063619d5194146100dd57806370019b35146100f75780637e5852d9146101815780638da5cb5b14610196578063a1b181f7146101c7578063afe8c37d146101df578063ca979d50146101f7578063e8380d9b1461021e578063fbfa1c6714610226575b600080fd5b3480156100a657600080fd5b506100af61022e565b604080519115158252519081900360200190f35b3480156100cf57600080fd5b506100db600435610473565b005b3480156100e957600080fd5b506100db60043515156105a1565b34801561010357600080fd5b5061010c610646565b6040805160208082528351818301528351919283929083019185019080838360005b8381101561014657818101518382015260200161012e565b50505050905090810190601f1680156101735780820380516001836020036101000a031916815260200191505b509250505060405180910390f35b34801561018d57600080fd5b506100af6106d1565b3480156101a257600080fd5b506101ab6106da565b60408051600160a060020a039092168252519081900360200190f35b3480156101d357600080fd5b506100db6004356106e9565b3480156101eb57600080fd5b506100db6004356107e7565b34801561020357600080fd5b5061020c6108e5565b60408051918252519081900360200190f35b6100af6108eb565b6100db610a16565b60015460009081908190600160a060020a0316331461024c57600080fd5b60008054604080517fcd189e2b0000000000000000000000000000000000000000000000000000000081523060048201529051600160a060020a039092169263cd189e2b926024808401936020939083900390910190829087803b1580156102b357600080fd5b505af11580156102c7573d6000803e3d6000fd5b505050506040513d60208110156102dd57600080fd5b505115156102ea57600080fd5b6000809054906101000a9004600160a060020a0316600160a060020a031663ee92d4846040518163ffffffff1660e060020a028152600401602060405180830381600087803b15801561033c57600080fd5b505af1158015610350573d6000803e3d6000fd5b505050506040513d602081101561036657600080fd5b505191508115610465576000809054906101000a9004600160a060020a0316600160a060020a03166394d2d7a76040518163ffffffff1660e060020a028152600401602060405180830381600087803b1580156103c257600080fd5b505af11580156103d6573d6000803e3d6000fd5b505050506040513d60208110156103ec57600080fd5b5051604080517f41c0e1b50000000000000000000000000000000000000000000000000000000081529051919250600160a060020a038316916341c0e1b59160048082019260009290919082900301818387803b15801561044c57600080fd5b505af1158015610460573d6000803e3d6000fd5b505050505b600154600160a060020a0316ff5b600154600090600160a060020a0316331461048d57600080fd5b6000809054906101000a9004600160a060020a0316600160a060020a031663f36675176040518163ffffffff1660e060020a028152600401602060405180830381600087803b1580156104df57600080fd5b505af11580156104f3573d6000803e3d6000fd5b505050506040513d602081101561050957600080fd5b5051604080517f4cad552b000000000000000000000000000000000000000000000000000000008152600481018590529051919250600160a060020a03831691634cad552b916024808201926020929091908290030181600087803b15801561057157600080fd5b505af1158015610585573d6000803e3d6000fd5b505050506040513d602081101561059b57600080fd5b50505050565b6000809054906101000a9004600160a060020a0316600160a060020a031663638f83606040518163ffffffff1660e060020a028152600401602060405180830381600087803b1580156105f357600080fd5b505af1158015610607573d6000803e3d6000fd5b505050506040513d602081101561061d57600080fd5b5051600160a060020a0316331461063357600080fd5b6004805460ff1916911515919091179055565b6002805460408051602060018416156101000260001901909316849004601f810184900484028201840190925281815292918301828280156106c95780601f1061069e576101008083540402835291602001916106c9565b820191906000526020600020905b8154815290600101906020018083116106ac57829003601f168201915b505050505081565b60045460ff1690565b600154600160a060020a031681565b600154600090600160a060020a0316331461070357600080fd5b6000809054906101000a9004600160a060020a0316600160a060020a031663f36675176040518163ffffffff1660e060020a028152600401602060405180830381600087803b15801561075557600080fd5b505af1158015610769573d6000803e3d6000fd5b505050506040513d602081101561077f57600080fd5b5051604080517f67526c4d000000000000000000000000000000000000000000000000000000008152600481018590529051919250600160a060020a038316916367526c4d916024808201926020929091908290030181600087803b15801561057157600080fd5b600154600090600160a060020a0316331461080157600080fd5b6000809054906101000a9004600160a060020a0316600160a060020a031663f36675176040518163ffffffff1660e060020a028152600401602060405180830381600087803b15801561085357600080fd5b505af1158015610867573d6000803e3d6000fd5b505050506040513d602081101561087d57600080fd5b5051604080517fec792932000000000000000000000000000000000000000000000000000000008152600481018590529051919250600160a060020a0383169163ec792932916024808201926020929091908290030181600087803b15801561057157600080fd5b60035481565b6001546000908190600160a060020a0316331461090757600080fd5b6000809054906101000a9004600160a060020a0316600160a060020a0316633c093d5a6040518163ffffffff1660e060020a028152600401602060405180830381600087803b15801561095957600080fd5b505af115801561096d573d6000803e3d6000fd5b505050506040513d602081101561098357600080fd5b5051604080517fd0b0731c0000000000000000000000000000000000000000000000000000000081529051919250600160a060020a0383169163d0b0731c916004808201926020929091908290030181600087803b1580156109e457600080fd5b505af11580156109f8573d6000803e3d6000fd5b505050506040513d6020811015610a0e57600080fd5b505191505090565b600154600090600160a060020a03163314610a3057600080fd5b6000809054906101000a9004600160a060020a0316600160a060020a031663f36675176040518163ffffffff1660e060020a028152600401602060405180830381600087803b158015610a8257600080fd5b505af1158015610a96573d6000803e3d6000fd5b505050506040513d6020811015610aac57600080fd5b5051604080517ffbfa1c670000000000000000000000000000000000000000000000000000000081529051919250600160a060020a0383169163fbfa1c67916004808201926020929091908290030181600087803b158015610b0d57600080fd5b505af1158015610b21573d6000803e3d6000fd5b505050506040513d6020811015610b3757600080fd5b5050505600a165627a7a723058208eebaa0591325a3abcf58e873fa8122ad5c6881b50511091b1dbe8dd34d53d770029a165627a7a72305820f609bb29106c13c9fc3421e498c66d2d3cff10aeb9b8364b4c9acabf7c64bab90029",
  "source": "pragma solidity 0.4.24;\r\n\r\nimport \"./DataStorage.sol\";\r\nimport \"./Register.sol\";\r\nimport \"./3ContentCreatorFactory.sol\";\r\nimport \"./User.sol\";\r\n\r\ncontract UserFactory {\r\n    DataStorage dataStorage;\r\n    Register register;\r\n    ContentCreatorFactory ccFactory;\r\n    address dataStorageAddress; \r\n    address registerAddress;\r\n    address owner;\r\n\r\n    bool public emergencyStop = false;\r\n    bool public pause = false;\r\n    bool private callOnce = false;\r\n\r\n    event LogCreatedUser(address _userAddress, address _contractAddress);\r\n    \r\n    //Ensures the function is only used in an emergency.\r\n    modifier onlyInEmergency {\r\n        require(emergencyStop);\r\n        _;\r\n    }\r\n    \r\n    //Ensures the function stops in an emergency.\r\n    modifier stopInEmergency {\r\n        require(!emergencyStop);\r\n        _;\r\n    }\r\n    \r\n    //Ensures the function is paused untill set-up.\r\n    modifier pauseFunction {\r\n        require(!pause);\r\n        require(!dataStorage.pause());\r\n        _;\r\n    }\r\n    \r\n    //Ensures the function is only called nce.\r\n    modifier onlyCallOnce {\r\n        require(!callOnce, \"This contract has already been set up\");\r\n        _;\r\n    }\r\n\r\n    //Ensures only the owner can call the function.\r\n    modifier onlyOwner {\r\n        require(msg.sender == owner);\r\n        _;\r\n    }\r\n\r\n    //Ensures only the owner or the register can call this function. \r\n    modifier ownerOrRegister {\r\n        require(msg.sender == owner || msg.sender == dataStorage.registryAddress());\r\n        _;\r\n    }\r\n    \r\n    /**\r\n      * @dev The constructor for the UserFactory. \r\n      */\r\n    constructor(address _dataStorage, address _owner, address _ccFactory) \r\n        public \r\n    {\r\n        dataStorageAddress = _dataStorage;\r\n        dataStorage = DataStorage(_dataStorage);\r\n        owner = _owner;\r\n        ccFactory = ContentCreatorFactory(_ccFactory);\r\n    }\r\n    \r\n    // function constructorFunction(address _dataStorage, address _owner, address _ccFactory)\r\n    //     public\r\n    //     onlyCallOnce\r\n    // {\r\n    //     owner = _owner;\r\n    //     dataStorageAddress = _dataStorage;\r\n    //     dataStorage = DataStorage(_dataStorage);\r\n    //     ccFactory = ContentCreatorFactory(_ccFactory);\r\n    //     callOnce = true;\r\n    // }\r\n    \r\n    \r\n    /**\r\n      * @return address : The address of the current LoveMahcine.\r\n      */\r\n    function getMinter()\r\n        public\r\n        view\r\n        returns(address)\r\n    {\r\n        return dataStorage.minterAddress();\r\n    }\r\n    \r\n    /**\r\n      * @return address : The current address of the \r\n      *     ContentCreatorFactory. \r\n      */\r\n    function getContentCreatorFactory()\r\n        public\r\n        view\r\n        returns(address)\r\n    {\r\n        return dataStorage.ccFactoryAddress();\r\n    }\r\n    \r\n    /**\r\n      * @return bool : If the msg.sender is a creator. \r\n      */\r\n    function isCreator()\r\n        public \r\n        view\r\n        returns(bool)\r\n    {\r\n        return dataStorage.isCreator(msg.sender);\r\n    }\r\n    \r\n    /**\r\n      * @return address : The address of this users creator \r\n      *     contract. \r\n      */\r\n    function getCreatorAddress()\r\n        public\r\n        view\r\n        returns(address)\r\n    {\r\n        return dataStorage.getCreatorAddressFromUser(msg.sender);\r\n    }\r\n    \r\n    /**\r\n      * @return address : The address of the dataStorage. \r\n      */\r\n    function getDataStorageAddress()\r\n        public\r\n        view \r\n        returns(address)\r\n    {\r\n        return dataStorageAddress;\r\n    }\r\n    \r\n    /**\r\n      * @dev The function that creates a new user.\r\n      * @notice The user name is checked for uniqueness in the \r\n      *     dataStorage. \r\n      *     The contract is created before this and \r\n      * @param _userName : The user name the user has entered. \r\n      * @return address : The address of the new user contract. \r\n      */\r\n    function createUser(string _userName) \r\n        public \r\n        stopInEmergency\r\n        pauseFunction\r\n        returns(address) \r\n    {\r\n        // require(dataStorage.isUnique(_userName), \"The user name is not unique.\");\r\n        address newUser = new User(msg.sender, _userName, this);\r\n        dataStorage.setNewUserData(msg.sender, newUser, _userName);\r\n        \r\n        return newUser;\r\n    }\r\n    \r\n    function deleteUserFinal(address _contractAddress)\r\n        public \r\n        stopInEmergency\r\n        pauseFunction\r\n        returns(bool) \r\n    {\r\n        require(msg.sender == _contractAddress);\r\n        string memory _userName = dataStorage.getAUsersName(_contractAddress);\r\n        require(keccak256(_userName) != keccak256(\"\"));\r\n        \r\n        //TODO: call minter to send remaining views to contract creator\r\n\r\n        // dataStorage.removeUserData(\r\n        //     dataStorage.getAUsersOwnerData(_contractAddress), \r\n        //     _contractAddress,\r\n        //     dataStorage.getAUsersNameData(_contractAddress));\r\n            \r\n            //TODO: needs to check if user is a creator and delete creator too\r\n        return true;\r\n    }\r\n\r\n    function kill(address _minter) \r\n        public \r\n        ownerOrRegister \r\n    {\r\n        selfdestruct(_minter);\r\n        //v2 could just have a \r\n        //bool death private;\r\n        //that needs \r\n        //to be false and when its set to true the contract \r\n        //is dead.\r\n    }\r\n}",
  "sourcePath": "C:\\Users\\Veronica Coutts\\Desktop\\Desktop\\Work\\Web3 Projects\\MVP\\mvp\\contracts\\UserFactory.sol",
  "compiler": {
    "name": "solc",
    "version": "0.4.24+commit.e67f0147.Emscripten.clang"
  },
  "schemaVersion": "2.0.1",
  "updatedAt": "2018-08-25T21:07:59.442Z"
}