{
  "contractName": "User",
  "abi": [
    {
      "constant": true,
      "inputs": [],
      "name": "userName",
      "outputs": [
        {
          "name": "",
          "type": "string"
        }
      ],
      "payable": false,
      "stateMutability": "view",
      "type": "function"
    },
    {
      "constant": true,
      "inputs": [],
      "name": "owner",
      "outputs": [
        {
          "name": "",
          "type": "address"
        }
      ],
      "payable": false,
      "stateMutability": "view",
      "type": "function"
    },
    {
      "constant": true,
      "inputs": [],
      "name": "joinedDate",
      "outputs": [
        {
          "name": "",
          "type": "uint256"
        }
      ],
      "payable": false,
      "stateMutability": "view",
      "type": "function"
    },
    {
      "inputs": [
        {
          "name": "_userWallet",
          "type": "address"
        },
        {
          "name": "_userName",
          "type": "string"
        },
        {
          "name": "_userFactory",
          "type": "address"
        }
      ],
      "payable": false,
      "stateMutability": "nonpayable",
      "type": "constructor"
    },
    {
      "constant": true,
      "inputs": [],
      "name": "getLock",
      "outputs": [
        {
          "name": "",
          "type": "bool"
        }
      ],
      "payable": false,
      "stateMutability": "view",
      "type": "function"
    },
    {
      "constant": false,
      "inputs": [
        {
          "name": "_lock",
          "type": "bool"
        }
      ],
      "name": "setLock",
      "outputs": [],
      "payable": false,
      "stateMutability": "nonpayable",
      "type": "function"
    },
    {
      "constant": false,
      "inputs": [],
      "name": "buyViews",
      "outputs": [],
      "payable": true,
      "stateMutability": "payable",
      "type": "function"
    },
    {
      "constant": false,
      "inputs": [
        {
          "name": "_amount",
          "type": "uint256"
        }
      ],
      "name": "sellViews",
      "outputs": [],
      "payable": false,
      "stateMutability": "nonpayable",
      "type": "function"
    },
    {
      "constant": false,
      "inputs": [
        {
          "name": "_amount",
          "type": "uint256"
        }
      ],
      "name": "transferToCreatorAccount",
      "outputs": [],
      "payable": false,
      "stateMutability": "nonpayable",
      "type": "function"
    },
    {
      "constant": false,
      "inputs": [
        {
          "name": "_amount",
          "type": "uint256"
        }
      ],
      "name": "transferFromCreatorAccount",
      "outputs": [],
      "payable": false,
      "stateMutability": "nonpayable",
      "type": "function"
    },
    {
      "constant": false,
      "inputs": [],
      "name": "becomeContentCreator",
      "outputs": [
        {
          "name": "",
          "type": "bool"
        }
      ],
      "payable": true,
      "stateMutability": "payable",
      "type": "function"
    },
    {
      "constant": false,
      "inputs": [],
      "name": "deleteUser",
      "outputs": [
        {
          "name": "",
          "type": "bool"
        }
      ],
      "payable": false,
      "stateMutability": "nonpayable",
      "type": "function"
    }
  ],
  "bytecode": "0x60806040523480156200001157600080fd5b506040516200137a3803806200137a83398101806040528101908080519060200190929190805182019291906020018051906020019092919050505082600160006101000a81548173ffffffffffffffffffffffffffffffffffffffff021916908373ffffffffffffffffffffffffffffffffffffffff160217905550426003819055508160029080519060200190620000ad929190620000f7565b50806000806101000a81548173ffffffffffffffffffffffffffffffffffffffff021916908373ffffffffffffffffffffffffffffffffffffffff160217905550505050620001a6565b828054600181600116156101000203166002900490600052602060002090601f016020900481019282601f106200013a57805160ff19168380011785556200016b565b828001600101855582156200016b579182015b828111156200016a5782518255916020019190600101906200014d565b5b5090506200017a91906200017e565b5090565b620001a391905b808211156200019f57600081600090555060010162000185565b5090565b90565b6111c480620001b66000396000f3006080604052600436106100af576000357c0100000000000000000000000000000000000000000000000000000000900463ffffffff168063026ff05e146100b45780634cad552b146100e3578063619d51941461011057806370019b351461013f5780637e5852d9146101cf5780638da5cb5b146101fe578063a1b181f714610255578063afe8c37d14610282578063ca979d50146102af578063e8380d9b146102da578063fbfa1c67146102fc575b600080fd5b3480156100c057600080fd5b506100c9610306565b604051808215151515815260200191505060405180910390f35b3480156100ef57600080fd5b5061010e600480360381019080803590602001909291905050506106ab565b005b34801561011c57600080fd5b5061013d60048036038101908080351515906020019092919050505061087a565b005b34801561014b57600080fd5b50610154610990565b6040518080602001828103825283818151815260200191508051906020019080838360005b83811015610194578082015181840152602081019050610179565b50505050905090810190601f1680156101c15780820380516001836020036101000a031916815260200191505b509250505060405180910390f35b3480156101db57600080fd5b506101e4610a2e565b604051808215151515815260200191505060405180910390f35b34801561020a57600080fd5b50610213610a45565b604051808273ffffffffffffffffffffffffffffffffffffffff1673ffffffffffffffffffffffffffffffffffffffff16815260200191505060405180910390f35b34801561026157600080fd5b5061028060048036038101908080359060200190929190505050610a6b565b005b34801561028e57600080fd5b506102ad60048036038101908080359060200190929190505050610c3a565b005b3480156102bb57600080fd5b506102c4610e09565b6040518082815260200191505060405180910390f35b6102e2610e0f565b604051808215151515815260200191505060405180910390f35b610304610fd5565b005b6000806000600160009054906101000a900473ffffffffffffffffffffffffffffffffffffffff1673ffffffffffffffffffffffffffffffffffffffff163373ffffffffffffffffffffffffffffffffffffffff1614151561036757600080fd5b6000809054906101000a900473ffffffffffffffffffffffffffffffffffffffff1673ffffffffffffffffffffffffffffffffffffffff1663cd189e2b306040518263ffffffff167c0100000000000000000000000000000000000000000000000000000000028152600401808273ffffffffffffffffffffffffffffffffffffffff1673ffffffffffffffffffffffffffffffffffffffff168152602001915050602060405180830381600087803b15801561042357600080fd5b505af1158015610437573d6000803e3d6000fd5b505050506040513d602081101561044d57600080fd5b8101908080519060200190929190505050151561046957600080fd5b6000809054906101000a900473ffffffffffffffffffffffffffffffffffffffff1673ffffffffffffffffffffffffffffffffffffffff1663ee92d4846040518163ffffffff167c0100000000000000000000000000000000000000000000000000000000028152600401602060405180830381600087803b1580156104ee57600080fd5b505af1158015610502573d6000803e3d6000fd5b505050506040513d602081101561051857600080fd5b810190808051906020019092919050505091508115610670576000809054906101000a900473ffffffffffffffffffffffffffffffffffffffff1673ffffffffffffffffffffffffffffffffffffffff166394d2d7a76040518163ffffffff167c0100000000000000000000000000000000000000000000000000000000028152600401602060405180830381600087803b1580156105b657600080fd5b505af11580156105ca573d6000803e3d6000fd5b505050506040513d60208110156105e057600080fd5b810190808051906020019092919050505090508073ffffffffffffffffffffffffffffffffffffffff166341c0e1b56040518163ffffffff167c0100000000000000000000000000000000000000000000000000000000028152600401600060405180830381600087803b15801561065757600080fd5b505af115801561066b573d6000803e3d6000fd5b505050505b600160009054906101000a900473ffffffffffffffffffffffffffffffffffffffff1673ffffffffffffffffffffffffffffffffffffffff16ff5b6000600160009054906101000a900473ffffffffffffffffffffffffffffffffffffffff1673ffffffffffffffffffffffffffffffffffffffff163373ffffffffffffffffffffffffffffffffffffffff1614151561070957600080fd5b6000809054906101000a900473ffffffffffffffffffffffffffffffffffffffff1673ffffffffffffffffffffffffffffffffffffffff1663f36675176040518163ffffffff167c0100000000000000000000000000000000000000000000000000000000028152600401602060405180830381600087803b15801561078e57600080fd5b505af11580156107a2573d6000803e3d6000fd5b505050506040513d60208110156107b857600080fd5b810190808051906020019092919050505090508073ffffffffffffffffffffffffffffffffffffffff16634cad552b836040518263ffffffff167c010000000000000000000000000000000000000000000000000000000002815260040180828152602001915050602060405180830381600087803b15801561083a57600080fd5b505af115801561084e573d6000803e3d6000fd5b505050506040513d602081101561086457600080fd5b8101908080519060200190929190505050505050565b6000809054906101000a900473ffffffffffffffffffffffffffffffffffffffff1673ffffffffffffffffffffffffffffffffffffffff1663638f83606040518163ffffffff167c0100000000000000000000000000000000000000000000000000000000028152600401602060405180830381600087803b1580156108ff57600080fd5b505af1158015610913573d6000803e3d6000fd5b505050506040513d602081101561092957600080fd5b810190808051906020019092919050505073ffffffffffffffffffffffffffffffffffffffff163373ffffffffffffffffffffffffffffffffffffffff1614151561097357600080fd5b80600460006101000a81548160ff02191690831515021790555050565b60028054600181600116156101000203166002900480601f016020809104026020016040519081016040528092919081815260200182805460018160011615610100020316600290048015610a265780601f106109fb57610100808354040283529160200191610a26565b820191906000526020600020905b815481529060010190602001808311610a0957829003601f168201915b505050505081565b6000600460009054906101000a900460ff16905090565b600160009054906101000a900473ffffffffffffffffffffffffffffffffffffffff1681565b6000600160009054906101000a900473ffffffffffffffffffffffffffffffffffffffff1673ffffffffffffffffffffffffffffffffffffffff163373ffffffffffffffffffffffffffffffffffffffff16141515610ac957600080fd5b6000809054906101000a900473ffffffffffffffffffffffffffffffffffffffff1673ffffffffffffffffffffffffffffffffffffffff1663f36675176040518163ffffffff167c0100000000000000000000000000000000000000000000000000000000028152600401602060405180830381600087803b158015610b4e57600080fd5b505af1158015610b62573d6000803e3d6000fd5b505050506040513d6020811015610b7857600080fd5b810190808051906020019092919050505090508073ffffffffffffffffffffffffffffffffffffffff166367526c4d836040518263ffffffff167c010000000000000000000000000000000000000000000000000000000002815260040180828152602001915050602060405180830381600087803b158015610bfa57600080fd5b505af1158015610c0e573d6000803e3d6000fd5b505050506040513d6020811015610c2457600080fd5b8101908080519060200190929190505050505050565b6000600160009054906101000a900473ffffffffffffffffffffffffffffffffffffffff1673ffffffffffffffffffffffffffffffffffffffff163373ffffffffffffffffffffffffffffffffffffffff16141515610c9857600080fd5b6000809054906101000a900473ffffffffffffffffffffffffffffffffffffffff1673ffffffffffffffffffffffffffffffffffffffff1663f36675176040518163ffffffff167c0100000000000000000000000000000000000000000000000000000000028152600401602060405180830381600087803b158015610d1d57600080fd5b505af1158015610d31573d6000803e3d6000fd5b505050506040513d6020811015610d4757600080fd5b810190808051906020019092919050505090508073ffffffffffffffffffffffffffffffffffffffff1663ec792932836040518263ffffffff167c010000000000000000000000000000000000000000000000000000000002815260040180828152602001915050602060405180830381600087803b158015610dc957600080fd5b505af1158015610ddd573d6000803e3d6000fd5b505050506040513d6020811015610df357600080fd5b8101908080519060200190929190505050505050565b60035481565b600080600160009054906101000a900473ffffffffffffffffffffffffffffffffffffffff1673ffffffffffffffffffffffffffffffffffffffff163373ffffffffffffffffffffffffffffffffffffffff16141515610e6e57600080fd5b6000809054906101000a900473ffffffffffffffffffffffffffffffffffffffff1673ffffffffffffffffffffffffffffffffffffffff16633c093d5a6040518163ffffffff167c0100000000000000000000000000000000000000000000000000000000028152600401602060405180830381600087803b158015610ef357600080fd5b505af1158015610f07573d6000803e3d6000fd5b505050506040513d6020811015610f1d57600080fd5b810190808051906020019092919050505090508073ffffffffffffffffffffffffffffffffffffffff1663d0b0731c6040518163ffffffff167c0100000000000000000000000000000000000000000000000000000000028152600401602060405180830381600087803b158015610f9457600080fd5b505af1158015610fa8573d6000803e3d6000fd5b505050506040513d6020811015610fbe57600080fd5b810190808051906020019092919050505091505090565b6000600160009054906101000a900473ffffffffffffffffffffffffffffffffffffffff1673ffffffffffffffffffffffffffffffffffffffff163373ffffffffffffffffffffffffffffffffffffffff1614151561103357600080fd5b6000809054906101000a900473ffffffffffffffffffffffffffffffffffffffff1673ffffffffffffffffffffffffffffffffffffffff1663f36675176040518163ffffffff167c0100000000000000000000000000000000000000000000000000000000028152600401602060405180830381600087803b1580156110b857600080fd5b505af11580156110cc573d6000803e3d6000fd5b505050506040513d60208110156110e257600080fd5b810190808051906020019092919050505090508073ffffffffffffffffffffffffffffffffffffffff1663fbfa1c676040518163ffffffff167c0100000000000000000000000000000000000000000000000000000000028152600401602060405180830381600087803b15801561115957600080fd5b505af115801561116d573d6000803e3d6000fd5b505050506040513d602081101561118357600080fd5b810190808051906020019092919050505050505600a165627a7a723058200b5636c961b7033af12769ec091f179100ea334ca7add54a35cb4e5efc5396240029",
  "source": "pragma solidity 0.4.24;\r\n\r\nimport \"./UserFactory.sol\";\r\nimport \"./3ContentCreatorFactory.sol\";\r\nimport \"./LoveMachine.sol\";\r\nimport \"./ContentCreator.sol\";\r\n\r\ncontract User {\r\n    UserFactory userFactory;\r\n    address public owner;\r\n    string public userName;\r\n    uint public joinedDate;\r\n\r\n    bool lock;\r\n    \r\n    //Ensures the sender is the owner. \r\n    modifier isUser {\r\n        require(msg.sender == owner);\r\n        _;\r\n    }\r\n    \r\n    //Ensures the lock is not true.\r\n    modifier checkLock {\r\n        require(!lock);\r\n        _;\r\n    }\r\n    \r\n    //Ensures only the minter can call the function. \r\n    modifier onlyMinter {\r\n        require(msg.sender == userFactory.getMinter());\r\n        _;\r\n    }\r\n    \r\n    //Ensures only the dataStorage can call the function.\r\n    modifier onlyDataStorage {\r\n        require(msg.sender == userFactory.getDataStorageAddress());\r\n        _;\r\n    }\r\n    \r\n    //Ensures only the wallet creator can call this function.\r\n    modifier onlyOwner {\r\n        require(msg.sender == owner);\r\n        _;\r\n    }\r\n    \r\n    /**\r\n      * @dev The constructor creates a new User. \r\n      * @notice The _userWallet is used when deleting account, as \r\n      *     all the views value will be sent to this address.\r\n      * @param _userWallet : The address of the users wallet.\r\n      *     _userName : The users uniqe userName. \r\n      *     _userFactory : The address of the user factory that \r\n      *         spawned this contract. \r\n      */\r\n    constructor(\r\n        address _userWallet,\r\n        string _userName, \r\n        address _userFactory\r\n        ) \r\n        public \r\n    {\r\n        owner = _userWallet;\r\n        joinedDate = now;\r\n        userName = _userName;\r\n        userFactory = UserFactory(_userFactory);\r\n    }\r\n    \r\n    /**\r\n      * @return bool : If the contract is currently making \r\n      *     state changes. \r\n      */\r\n    function getLock()\r\n        public\r\n        view\r\n        returns(bool)\r\n    {\r\n        return(lock);\r\n    }\r\n    \r\n    /**\r\n      * @dev This allows the dataStorrage to set the user contract \r\n      *     to locked or unlocked, allowing it to prevent attacks from \r\n      *     reentry. \r\n      * @param _lock : What the lock must be set to. \r\n      */\r\n    function setLock(bool _lock)\r\n        public\r\n        onlyDataStorage\r\n    {\r\n        lock = _lock;\r\n    }\r\n    \r\n    /**\r\n      * @dev Allows the user to buy views. \r\n      */\r\n    function buyViews()\r\n        public\r\n        payable\r\n        onlyOwner\r\n    {\r\n        LoveMachine minter = LoveMachine(userFactory.getMinter());\r\n        minter.buyViews();\r\n    }\r\n    \r\n    /**\r\n      * @dev Allows the user to sell views. \r\n      * @param _amount : THe amount of views they wish to sell.\r\n      */\r\n    function sellViews(uint _amount)\r\n        public\r\n        onlyOwner\r\n    {\r\n        LoveMachine minter = LoveMachine(userFactory.getMinter());\r\n        minter.sellViews(_amount);\r\n    }\r\n    \r\n    /**\r\n      * @dev Allows a user to transfer views between their creator and \r\n      *     user contracts. \r\n      * @param _amount : The amount of views they wish to transfer. \r\n      */\r\n    function transferToCreatorAccount(uint _amount)\r\n        public \r\n        onlyOwner\r\n    {\r\n        LoveMachine minter = LoveMachine(userFactory.getMinter());\r\n        minter.TransferViewsToCreatorAccount(_amount);\r\n    }\r\n    \r\n    /**\r\n      * @dev Allows a user to transfer views between their creator and \r\n      *     user contracts. \r\n      * @param _amount : The amount of views they wish to transfer. \r\n      */\r\n    function transferFromCreatorAccount(uint _amount)\r\n        public\r\n        onlyOwner\r\n    {\r\n        LoveMachine minter = LoveMachine(userFactory.getMinter());\r\n        minter.TransferViewsToUserAccount(_amount);\r\n    }\r\n    \r\n    /**\r\n      * @dev Allows a user to become a content creator. \r\n      * @return bool : If it was successful in creating the \r\n      *     content creator account. \r\n      */\r\n    function becomeContentCreator() \r\n        public\r\n        payable\r\n        isUser\r\n        returns(bool) \r\n    {\r\n        ContentCreatorFactory ccFactory = ContentCreatorFactory(userFactory.getContentCreatorFactory());\r\n        return ccFactory.createContentCreator();\r\n    }\r\n    \r\n    /**\r\n      * @dev Allows the user to delete their account.\r\n      * @notice User has to manyaly withdraw all funds \r\n      *     from account, as per the pull-over-push pattern.\r\n      * @return bool : If the deletion was successful.\r\n      */\r\n    function deleteUser() \r\n        public\r\n        isUser\r\n        returns(bool) \r\n    {\r\n        require(userFactory.deleteUserFinal(this));\r\n        bool pass = userFactory.isCreator();\r\n        if(pass) {\r\n            ContentCreator cc = ContentCreator(userFactory.getCreatorAddress());\r\n            cc.kill();\r\n        }\r\n        selfdestruct(owner);\r\n        return true;\r\n    }\r\n}",
  "sourcePath": "C:\\Users\\Veronica Coutts\\Desktop\\Desktop\\Work\\Web3 Projects\\MVP\\mvp\\contracts\\User.sol",
  "compiler": {
    "name": "solc",
    "version": "0.4.24+commit.e67f0147.Emscripten.clang"
  },
  "schemaVersion": "2.0.1",
  "updatedAt": "2018-08-25T14:16:26.703Z"
}