{
  "contractName": "User",
  "abi": [
    {
      "constant": true,
      "inputs": [],
      "name": "userName",
      "outputs": [
        {
          "name": "",
          "type": "string"
        }
      ],
      "payable": false,
      "stateMutability": "view",
      "type": "function"
    },
    {
      "constant": true,
      "inputs": [],
      "name": "owner",
      "outputs": [
        {
          "name": "",
          "type": "address"
        }
      ],
      "payable": false,
      "stateMutability": "view",
      "type": "function"
    },
    {
      "constant": true,
      "inputs": [],
      "name": "joinedDate",
      "outputs": [
        {
          "name": "",
          "type": "uint256"
        }
      ],
      "payable": false,
      "stateMutability": "view",
      "type": "function"
    },
    {
      "inputs": [
        {
          "name": "_userWallet",
          "type": "address"
        },
        {
          "name": "_userName",
          "type": "string"
        },
        {
          "name": "_userFactory",
          "type": "address"
        }
      ],
      "payable": false,
      "stateMutability": "nonpayable",
      "type": "constructor"
    },
    {
      "constant": true,
      "inputs": [],
      "name": "getLock",
      "outputs": [
        {
          "name": "",
          "type": "bool"
        }
      ],
      "payable": false,
      "stateMutability": "view",
      "type": "function"
    },
    {
      "constant": false,
      "inputs": [],
      "name": "deleteUser",
      "outputs": [
        {
          "name": "",
          "type": "bool"
        }
      ],
      "payable": false,
      "stateMutability": "nonpayable",
      "type": "function"
    },
    {
      "constant": false,
      "inputs": [],
      "name": "becomeContentCreator",
      "outputs": [
        {
          "name": "",
          "type": "bool"
        }
      ],
      "payable": true,
      "stateMutability": "payable",
      "type": "function"
    }
  ],
  "bytecode": "0x608060405234801561001057600080fd5b5060405161082238038061082283398101806040528101908080519060200190929190805182019291906020018051906020019092919050505082600160006101000a81548173ffffffffffffffffffffffffffffffffffffffff021916908373ffffffffffffffffffffffffffffffffffffffff1602179055504260038190555081600290805190602001906100a89291906100f1565b50806000806101000a81548173ffffffffffffffffffffffffffffffffffffffff021916908373ffffffffffffffffffffffffffffffffffffffff160217905550505050610196565b828054600181600116156101000203166002900490600052602060002090601f016020900481019282601f1061013257805160ff1916838001178555610160565b82800160010185558215610160579182015b8281111561015f578251825591602001919060010190610144565b5b50905061016d9190610171565b5090565b61019391905b8082111561018f576000816000905550600101610177565b5090565b90565b61067d806101a56000396000f300608060405260043610610078576000357c0100000000000000000000000000000000000000000000000000000000900463ffffffff168063026ff05e1461007d57806370019b35146100ac5780637e5852d91461013c5780638da5cb5b1461016b578063ca979d50146101c2578063e8380d9b146101ed575b600080fd5b34801561008957600080fd5b5061009261020f565b604051808215151515815260200191505060405180910390f35b3480156100b857600080fd5b506100c16103aa565b6040518080602001828103825283818151815260200191508051906020019080838360005b838110156101015780820151818401526020810190506100e6565b50505050905090810190601f16801561012e5780820380516001836020036101000a031916815260200191505b509250505060405180910390f35b34801561014857600080fd5b50610151610448565b604051808215151515815260200191505060405180910390f35b34801561017757600080fd5b5061018061045f565b604051808273ffffffffffffffffffffffffffffffffffffffff1673ffffffffffffffffffffffffffffffffffffffff16815260200191505060405180910390f35b3480156101ce57600080fd5b506101d7610485565b6040518082815260200191505060405180910390f35b6101f561048b565b604051808215151515815260200191505060405180910390f35b6000600160009054906101000a900473ffffffffffffffffffffffffffffffffffffffff1673ffffffffffffffffffffffffffffffffffffffff163373ffffffffffffffffffffffffffffffffffffffff1614151561026d57600080fd5b6000809054906101000a900473ffffffffffffffffffffffffffffffffffffffff1673ffffffffffffffffffffffffffffffffffffffff1663cd189e2b306040518263ffffffff167c0100000000000000000000000000000000000000000000000000000000028152600401808273ffffffffffffffffffffffffffffffffffffffff1673ffffffffffffffffffffffffffffffffffffffff168152602001915050602060405180830381600087803b15801561032957600080fd5b505af115801561033d573d6000803e3d6000fd5b505050506040513d602081101561035357600080fd5b8101908080519060200190929190505050151561036f57600080fd5b600160009054906101000a900473ffffffffffffffffffffffffffffffffffffffff1673ffffffffffffffffffffffffffffffffffffffff16ff5b60028054600181600116156101000203166002900480601f0160208091040260200160405190810160405280929190818152602001828054600181600116156101000203166002900480156104405780601f1061041557610100808354040283529160200191610440565b820191906000526020600020905b81548152906001019060200180831161042357829003601f168201915b505050505081565b6000600460009054906101000a900460ff16905090565b600160009054906101000a900473ffffffffffffffffffffffffffffffffffffffff1681565b60035481565b600080600160009054906101000a900473ffffffffffffffffffffffffffffffffffffffff1673ffffffffffffffffffffffffffffffffffffffff163373ffffffffffffffffffffffffffffffffffffffff161415156104ea57600080fd5b6000809054906101000a900473ffffffffffffffffffffffffffffffffffffffff1673ffffffffffffffffffffffffffffffffffffffff16633c093d5a6040518163ffffffff167c0100000000000000000000000000000000000000000000000000000000028152600401602060405180830381600087803b15801561056f57600080fd5b505af1158015610583573d6000803e3d6000fd5b505050506040513d602081101561059957600080fd5b810190808051906020019092919050505090508073ffffffffffffffffffffffffffffffffffffffff1663d0b0731c6040518163ffffffff167c0100000000000000000000000000000000000000000000000000000000028152600401602060405180830381600087803b15801561061057600080fd5b505af1158015610624573d6000803e3d6000fd5b505050506040513d602081101561063a57600080fd5b8101908080519060200190929190505050915050905600a165627a7a7230582088a9ddb53565aceea5a8526cbc781b60f6a5b10688e928a17f84682629bc7e7f0029",
  "source": "pragma solidity 0.4.24;\r\n\r\nimport \"./UserFactory.sol\";\r\nimport \"./3ContentCreatorFactory.sol\";\r\nimport \"./LoveMachine.sol\";\r\n\r\ncontract User {\r\n    UserFactory uf;\r\n    address public owner;\r\n    string public userName;\r\n    uint public joinedDate;\r\n\r\n    bool lock;\r\n    \r\n    modifier isUser {\r\n        require(msg.sender == owner);\r\n        _;\r\n    }\r\n    \r\n    modifier checkLock {\r\n        require(!lock);\r\n        _;\r\n    }\r\n    \r\n    modifier onlyMinter {\r\n        require(msg.sender == uf.getMinter());\r\n        _;\r\n    }\r\n    \r\n    constructor(\r\n        address _userWallet,\r\n        string _userName, \r\n        address _userFactory\r\n        ) \r\n        public \r\n    {\r\n        owner = _userWallet;\r\n        joinedDate = now;\r\n        userName = _userName;\r\n        uf = UserFactory(_userFactory);\r\n    }\r\n    \r\n    function getLock()\r\n        public\r\n        view\r\n        returns(bool)\r\n    {\r\n        return(lock);\r\n    }\r\n    \r\n    function deleteUser() public\r\n    isUser\r\n    returns(bool) {\r\n        require(uf.deleteUserFinal(this));\r\n        selfdestruct(owner);\r\n        return true;\r\n    }\r\n\r\n    function becomeContentCreator() public\r\n    payable\r\n    isUser\r\n    returns(bool) {\r\n        ContentCreatorFactory ccFactory = ContentCreatorFactory(uf.getContentCreatorFactory());\r\n        return ccFactory.createContentCreator();\r\n    }\r\n}",
  "sourcePath": "C:\\Users\\Veronica Coutts\\Desktop\\Desktop\\Work\\Web3 Projects\\MVP\\mvp\\contracts\\User.sol",
  "compiler": {
    "name": "solc",
    "version": "0.4.24+commit.e67f0147.Emscripten.clang"
  },
  "schemaVersion": "2.0.1",
  "updatedAt": "2018-08-23T20:18:44.272Z"
}