{
  "contractName": "User",
  "abi": [
    {
      "constant": true,
      "inputs": [],
      "name": "userName",
      "outputs": [
        {
          "name": "",
          "type": "string"
        }
      ],
      "payable": false,
      "stateMutability": "view",
      "type": "function"
    },
    {
      "constant": true,
      "inputs": [],
      "name": "owner",
      "outputs": [
        {
          "name": "",
          "type": "address"
        }
      ],
      "payable": false,
      "stateMutability": "view",
      "type": "function"
    },
    {
      "constant": true,
      "inputs": [],
      "name": "joinedDate",
      "outputs": [
        {
          "name": "",
          "type": "uint256"
        }
      ],
      "payable": false,
      "stateMutability": "view",
      "type": "function"
    },
    {
      "inputs": [
        {
          "name": "_user",
          "type": "address"
        },
        {
          "name": "_joinedDate",
          "type": "uint256"
        },
        {
          "name": "_userName",
          "type": "string"
        },
        {
          "name": "_uf",
          "type": "address"
        }
      ],
      "payable": false,
      "stateMutability": "nonpayable",
      "type": "constructor"
    },
    {
      "constant": false,
      "inputs": [],
      "name": "deleteUser",
      "outputs": [
        {
          "name": "",
          "type": "bool"
        }
      ],
      "payable": false,
      "stateMutability": "nonpayable",
      "type": "function"
    },
    {
      "constant": false,
      "inputs": [],
      "name": "becomeContentCreator",
      "outputs": [
        {
          "name": "",
          "type": "bool"
        }
      ],
      "payable": false,
      "stateMutability": "nonpayable",
      "type": "function"
    }
  ],
  "bytecode": "0x608060405234801561001057600080fd5b506040516106883803806106888339810180604052810190808051906020019092919080519060200190929190805182019291906020018051906020019092919050505083600160006101000a81548173ffffffffffffffffffffffffffffffffffffffff021916908373ffffffffffffffffffffffffffffffffffffffff1602179055508260038190555081600290805190602001906100b29291906100fc565b50806000806101000a81548173ffffffffffffffffffffffffffffffffffffffff021916908373ffffffffffffffffffffffffffffffffffffffff160217905550505050506101a1565b828054600181600116156101000203166002900490600052602060002090601f016020900481019282601f1061013d57805160ff191683800117855561016b565b8280016001018555821561016b579182015b8281111561016a57825182559160200191906001019061014f565b5b509050610178919061017c565b5090565b61019e91905b8082111561019a576000816000905550600101610182565b5090565b90565b6104d8806101b06000396000f30060806040526004361061006d576000357c0100000000000000000000000000000000000000000000000000000000900463ffffffff168063026ff05e1461007257806370019b35146100a15780638da5cb5b14610131578063ca979d5014610188578063e8380d9b146101b3575b600080fd5b34801561007e57600080fd5b506100876101e2565b604051808215151515815260200191505060405180910390f35b3480156100ad57600080fd5b506100b661037d565b6040518080602001828103825283818151815260200191508051906020019080838360005b838110156100f65780820151818401526020810190506100db565b50505050905090810190601f1680156101235780820380516001836020036101000a031916815260200191505b509250505060405180910390f35b34801561013d57600080fd5b5061014661041b565b604051808273ffffffffffffffffffffffffffffffffffffffff1673ffffffffffffffffffffffffffffffffffffffff16815260200191505060405180910390f35b34801561019457600080fd5b5061019d610441565b6040518082815260200191505060405180910390f35b3480156101bf57600080fd5b506101c8610447565b604051808215151515815260200191505060405180910390f35b6000600160009054906101000a900473ffffffffffffffffffffffffffffffffffffffff1673ffffffffffffffffffffffffffffffffffffffff163373ffffffffffffffffffffffffffffffffffffffff1614151561024057600080fd5b6000809054906101000a900473ffffffffffffffffffffffffffffffffffffffff1673ffffffffffffffffffffffffffffffffffffffff1663cd189e2b306040518263ffffffff167c0100000000000000000000000000000000000000000000000000000000028152600401808273ffffffffffffffffffffffffffffffffffffffff1673ffffffffffffffffffffffffffffffffffffffff168152602001915050602060405180830381600087803b1580156102fc57600080fd5b505af1158015610310573d6000803e3d6000fd5b505050506040513d602081101561032657600080fd5b8101908080519060200190929190505050151561034257600080fd5b600160009054906101000a900473ffffffffffffffffffffffffffffffffffffffff1673ffffffffffffffffffffffffffffffffffffffff16ff5b60028054600181600116156101000203166002900480601f0160208091040260200160405190810160405280929190818152602001828054600181600116156101000203166002900480156104135780601f106103e857610100808354040283529160200191610413565b820191906000526020600020905b8154815290600101906020018083116103f657829003601f168201915b505050505081565b600160009054906101000a900473ffffffffffffffffffffffffffffffffffffffff1681565b60035481565b6000600160009054906101000a900473ffffffffffffffffffffffffffffffffffffffff1673ffffffffffffffffffffffffffffffffffffffff163373ffffffffffffffffffffffffffffffffffffffff161415156104a557600080fd5b60019050905600a165627a7a72305820d7b7784633f48465e76f22693bc8e30ddd47ffbdf7a1dd2bb6aa54716129275a0029",
  "source": "pragma solidity 0.4.24;\r\n\r\nimport \"./UserFactory.sol\";\r\n\r\ncontract User {\r\n    UserFactory uf;\r\n    address public owner;\r\n    string public userName;\r\n    uint public joinedDate;\r\n    uint daoKey;\r\n    \r\n    constructor(address _user, uint _joinedDate, string _userName, UserFactory _uf) \r\n    public {\r\n        owner = _user;\r\n        joinedDate = _joinedDate;\r\n        userName = _userName;\r\n        uf = _uf;\r\n    }\r\n    \r\n    modifier isUser {\r\n        require(msg.sender == owner);\r\n        _;\r\n    }\r\n    \r\n    function deleteUser() public\r\n    isUser\r\n    returns(bool) {\r\n        require(uf.deleteUserFinal(this));\r\n        selfdestruct(owner);\r\n        return true;\r\n    }\r\n\r\n    function becomeContentCreator() public\r\n    isUser\r\n    returns(bool) {\r\n        // ContentCreatorFactory.createNewCC(this);\r\n        return true;\r\n    }\r\n}",
  "sourcePath": "C:\\Users\\Veronica Coutts\\Desktop\\Desktop\\Work\\Web3 Projects\\MVP\\mvp\\contracts\\User.sol",
  "compiler": {
    "name": "solc",
    "version": "0.4.24+commit.e67f0147.Emscripten.clang"
  },
  "schemaVersion": "2.0.1",
  "updatedAt": "2018-08-19T16:31:58.063Z"
}