{
  "contractName": "UserFactory",
  "abi": [
    {
      "constant": true,
      "inputs": [
        {
          "name": "",
          "type": "uint256"
        }
      ],
      "name": "userAddresses",
      "outputs": [
        {
          "name": "",
          "type": "address"
        }
      ],
      "payable": false,
      "stateMutability": "view",
      "type": "function"
    },
    {
      "constant": true,
      "inputs": [],
      "name": "emergencyStop",
      "outputs": [
        {
          "name": "",
          "type": "bool"
        }
      ],
      "payable": false,
      "stateMutability": "view",
      "type": "function"
    },
    {
      "constant": true,
      "inputs": [],
      "name": "pause",
      "outputs": [
        {
          "name": "",
          "type": "bool"
        }
      ],
      "payable": false,
      "stateMutability": "view",
      "type": "function"
    },
    {
      "inputs": [
        {
          "name": "_dataStorage",
          "type": "address"
        },
        {
          "name": "_owner",
          "type": "address"
        },
        {
          "name": "_ccFactory",
          "type": "address"
        }
      ],
      "payable": false,
      "stateMutability": "nonpayable",
      "type": "constructor"
    },
    {
      "anonymous": false,
      "inputs": [
        {
          "indexed": false,
          "name": "_userAddress",
          "type": "address"
        },
        {
          "indexed": false,
          "name": "_contractAddress",
          "type": "address"
        }
      ],
      "name": "LogCreatedUser",
      "type": "event"
    },
    {
      "constant": true,
      "inputs": [],
      "name": "getMinter",
      "outputs": [
        {
          "name": "",
          "type": "address"
        }
      ],
      "payable": false,
      "stateMutability": "view",
      "type": "function"
    },
    {
      "constant": true,
      "inputs": [],
      "name": "getContentCreatorFactory",
      "outputs": [
        {
          "name": "",
          "type": "address"
        }
      ],
      "payable": false,
      "stateMutability": "view",
      "type": "function"
    },
    {
      "constant": true,
      "inputs": [],
      "name": "isCreator",
      "outputs": [
        {
          "name": "",
          "type": "bool"
        }
      ],
      "payable": false,
      "stateMutability": "view",
      "type": "function"
    },
    {
      "constant": true,
      "inputs": [],
      "name": "getCreatorAddress",
      "outputs": [
        {
          "name": "",
          "type": "address"
        }
      ],
      "payable": false,
      "stateMutability": "view",
      "type": "function"
    },
    {
      "constant": true,
      "inputs": [],
      "name": "getDataStorageAddress",
      "outputs": [
        {
          "name": "",
          "type": "address"
        }
      ],
      "payable": false,
      "stateMutability": "view",
      "type": "function"
    },
    {
      "constant": false,
      "inputs": [
        {
          "name": "_userName",
          "type": "string"
        }
      ],
      "name": "createUser",
      "outputs": [],
      "payable": false,
      "stateMutability": "nonpayable",
      "type": "function"
    },
    {
      "constant": false,
      "inputs": [
        {
          "name": "_contractAddress",
          "type": "address"
        }
      ],
      "name": "deleteUserFinal",
      "outputs": [
        {
          "name": "",
          "type": "bool"
        }
      ],
      "payable": false,
      "stateMutability": "nonpayable",
      "type": "function"
    },
    {
      "constant": false,
      "inputs": [
        {
          "name": "_minter",
          "type": "address"
        }
      ],
      "name": "kill",
      "outputs": [],
      "payable": false,
      "stateMutability": "nonpayable",
      "type": "function"
    }
  ],
  "bytecode": "0x60806040526007805462ffffff1916905534801561001c57600080fd5b50604051606080611a99833981018060405261003b919081019061009d565b60038054600160a060020a03948516600160a060020a031991821681179092556000805482169092179091556005805493851693821693909317909255600280549190931691161790556100f6565b600061009682516100ea565b9392505050565b6000806000606084860312156100b257600080fd5b60006100be868661008a565b93505060206100cf8682870161008a565b92505060406100e08682870161008a565b9150509250925092565b600160a060020a031690565b611994806101056000396000f3006080604052600436106100955763ffffffff60e060020a6000350416633c093d5a811461009a578063502c9bd5146100c5578063507ffba5146100e5578063638f83601461010757806363a599a41461011c5780638456cb591461013e57806394d2d7a714610153578063cbf0b0c014610168578063cd189e2b14610188578063ee92d484146101a8578063f3667517146101bd575b600080fd5b3480156100a657600080fd5b506100af6101d2565b6040516100bc9190610bb9565b60405180910390f35b3480156100d157600080fd5b506100af6100e0366004610b4e565b610263565b3480156100f157600080fd5b50610105610100366004610ae4565b61028b565b005b34801561011357600080fd5b506100af610396565b34801561012857600080fd5b506101316103a5565b6040516100bc9190610c23565b34801561014a57600080fd5b506101316103ae565b34801561015f57600080fd5b506100af6103bc565b34801561017457600080fd5b50610105610183366004610a82565b610420565b34801561019457600080fd5b506101316101a3366004610a82565b6104ea565b3480156101b457600080fd5b506101316108b1565b3480156101c957600080fd5b506100af61094d565b60008060009054906101000a9004600160a060020a0316600160a060020a031663cd8c43b66040518163ffffffff1660e060020a028152600401602060405180830381600087803b15801561022657600080fd5b505af115801561023a573d6000803e3d6000fd5b505050506040513d601f19601f8201168201806040525061025e9190810190610aa8565b905090565b600680548290811061027157fe5b600091825260209091200154600160a060020a0316905081565b600033826102976109a1565b6102a2929190610c03565b604051809103906000f0801580156102be573d6000803e3d6000fd5b506006805460018101825560009182527ff652222313e28459528d920b65115c16c04f3efc82aaedc97be59f3f377c0d3f01805473ffffffffffffffffffffffffffffffffffffffff1916600160a060020a038481169190911790915590546040517fccaf9553000000000000000000000000000000000000000000000000000000008152929350169063ccaf95539061036090339085908790600401610bcd565b600060405180830381600087803b15801561037a57600080fd5b505af115801561038e573d6000803e3d6000fd5b505050505050565b600354600160a060020a031690565b60075460ff1681565b600754610100900460ff1681565b600080546040517fb7acf7c3000000000000000000000000000000000000000000000000000000008152600160a060020a039091169063b7acf7c390610406903390600401610bb9565b602060405180830381600087803b15801561022657600080fd5b600554600160a060020a03163314806104d357506000809054906101000a9004600160a060020a0316600160a060020a031663ed9aab516040518163ffffffff1660e060020a028152600401602060405180830381600087803b15801561048657600080fd5b505af115801561049a573d6000803e3d6000fd5b505050506040513d601f19601f820116820180604052506104be9190810190610aa8565b600160a060020a031633600160a060020a0316145b15156104de57600080fd5b80600160a060020a0316ff5b60075460009060609060ff161561050057600080fd5b600754610100900460ff161561051557600080fd5b6000809054906101000a9004600160a060020a0316600160a060020a0316638456cb596040518163ffffffff1660e060020a028152600401602060405180830381600087803b15801561056757600080fd5b505af115801561057b573d6000803e3d6000fd5b505050506040513d601f19601f8201168201806040525061059f9190810190610ac6565b156105a957600080fd5b33600160a060020a038416146105be57600080fd5b6000546040517f64015cc9000000000000000000000000000000000000000000000000000000008152600160a060020a03909116906364015cc990610607908690600401610bb9565b600060405180830381600087803b15801561062157600080fd5b505af1158015610635573d6000803e3d6000fd5b505050506040513d6000823e601f3d908101601f1916820160405261065d9190810190610b19565b60405181519192507fc5d2460186f7233c927e7db2dcc703c0e500b653ca82273b7bfad8045d85a47091839190819060208401908083835b602083106106b45780518252601f199092019160209182019101610695565b6001836020036101000a038019825116818451168082178552505050505050905001915050604051809103902060001916141515156106f257600080fd5b6000546040517fb96275fb000000000000000000000000000000000000000000000000000000008152600160a060020a039091169063819ad02790829063b96275fb90610743908890600401610bb9565b602060405180830381600087803b15801561075d57600080fd5b505af1158015610771573d6000803e3d6000fd5b505050506040513d601f19601f820116820180604052506107959190810190610aa8565b6000546040517fbfc16c500000000000000000000000000000000000000000000000000000000081528791600160a060020a03169063bfc16c50906107de908490600401610bb9565b600060405180830381600087803b1580156107f857600080fd5b505af115801561080c573d6000803e3d6000fd5b505050506040513d6000823e601f3d908101601f191682016040526108349190810190610b19565b6040518463ffffffff1660e060020a02815260040161085593929190610bcd565b602060405180830381600087803b15801561086f57600080fd5b505af1158015610883573d6000803e3d6000fd5b505050506040513d601f19601f820116820180604052506108a79190810190610ac6565b5060019392505050565b600080546040517fefd46065000000000000000000000000000000000000000000000000000000008152600160a060020a039091169063efd46065906108fb903390600401610bb9565b602060405180830381600087803b15801561091557600080fd5b505af1158015610929573d6000803e3d6000fd5b505050506040513d601f19601f8201168201806040525061025e9190810190610ac6565b60008060009054906101000a9004600160a060020a0316600160a060020a03166334d722c96040518163ffffffff1660e060020a028152600401602060405180830381600087803b15801561022657600080fd5b604051610c7c80610cdf83390190565b60006109bd8235610c84565b9392505050565b60006109bd8251610c84565b60006109bd8251610c90565b6000601f820183136109ed57600080fd5b8135610a006109fb82610c58565b610c31565b91508082526020830160208301858383011115610a1c57600080fd5b610a27838284610c98565b50505092915050565b6000601f82018313610a4157600080fd5b8151610a4f6109fb82610c58565b91508082526020830160208301858383011115610a6b57600080fd5b610a27838284610ca4565b60006109bd8235610c95565b600060208284031215610a9457600080fd5b6000610aa084846109b1565b949350505050565b600060208284031215610aba57600080fd5b6000610aa084846109c4565b600060208284031215610ad857600080fd5b6000610aa084846109d0565b600060208284031215610af657600080fd5b813567ffffffffffffffff811115610b0d57600080fd5b610aa0848285016109dc565b600060208284031215610b2b57600080fd5b815167ffffffffffffffff811115610b4257600080fd5b610aa084828501610a30565b600060208284031215610b6057600080fd5b6000610aa08484610a76565b610b7581610c84565b82525050565b610b7581610c90565b6000610b8f82610c80565b808452610ba3816020860160208601610ca4565b610bac81610cd4565b9093016020019392505050565b60208101610bc78284610b6c565b92915050565b60608101610bdb8286610b6c565b610be86020830185610b6c565b8181036040830152610bfa8184610b84565b95945050505050565b60408101610c118285610b6c565b8181036020830152610aa08184610b84565b60208101610bc78284610b7b565b60405181810167ffffffffffffffff81118282101715610c5057600080fd5b604052919050565b600067ffffffffffffffff821115610c6f57600080fd5b506020601f91909101601f19160190565b5190565b600160a060020a031690565b151590565b90565b82818337506000910152565b60005b83811015610cbf578181015183820152602001610ca7565b83811115610cce576000848401525b50505050565b601f01601f1916905600608060405234801561001057600080fd5b50604051610c7c380380610c7c83398101604052805160208083015160018054600160a060020a031916600160a060020a03851617905542600355909201805191929091610064916002919084019061007e565b505060008054600160a060020a0319163317905550610119565b828054600181600116156101000203166002900490600052602060002090601f016020900481019282601f106100bf57805160ff19168380011785556100ec565b828001600101855582156100ec579182015b828111156100ec5782518255916020019190600101906100d1565b506100f89291506100fc565b5090565b61011691905b808211156100f85760008155600101610102565b90565b610b54806101286000396000f3006080604052600436106100955763ffffffff60e060020a600035041663026ff05e811461009a5780634cad552b146100c3578063619d5194146100dd57806370019b35146100f75780637e5852d9146101815780638da5cb5b14610196578063a1b181f7146101c7578063afe8c37d146101df578063ca979d50146101f7578063e8380d9b1461021e578063fbfa1c6714610233575b600080fd5b3480156100a657600080fd5b506100af61023b565b604080519115158252519081900360200190f35b3480156100cf57600080fd5b506100db600435610480565b005b3480156100e957600080fd5b506100db60043515156105ae565b34801561010357600080fd5b5061010c610653565b6040805160208082528351818301528351919283929083019185019080838360005b8381101561014657818101518382015260200161012e565b50505050905090810190601f1680156101735780820380516001836020036101000a031916815260200191505b509250505060405180910390f35b34801561018d57600080fd5b506100af6106de565b3480156101a257600080fd5b506101ab6106e7565b60408051600160a060020a039092168252519081900360200190f35b3480156101d357600080fd5b506100db6004356106f6565b3480156101eb57600080fd5b506100db6004356107f4565b34801561020357600080fd5b5061020c6108f2565b60408051918252519081900360200190f35b34801561022a57600080fd5b506100af6108f8565b6100db610a01565b60015460009081908190600160a060020a0316331461025957600080fd5b60008054604080517fcd189e2b0000000000000000000000000000000000000000000000000000000081523060048201529051600160a060020a039092169263cd189e2b926024808401936020939083900390910190829087803b1580156102c057600080fd5b505af11580156102d4573d6000803e3d6000fd5b505050506040513d60208110156102ea57600080fd5b505115156102f757600080fd5b6000809054906101000a9004600160a060020a0316600160a060020a031663ee92d4846040518163ffffffff1660e060020a028152600401602060405180830381600087803b15801561034957600080fd5b505af115801561035d573d6000803e3d6000fd5b505050506040513d602081101561037357600080fd5b505191508115610472576000809054906101000a9004600160a060020a0316600160a060020a03166394d2d7a76040518163ffffffff1660e060020a028152600401602060405180830381600087803b1580156103cf57600080fd5b505af11580156103e3573d6000803e3d6000fd5b505050506040513d60208110156103f957600080fd5b5051604080517f41c0e1b50000000000000000000000000000000000000000000000000000000081529051919250600160a060020a038316916341c0e1b59160048082019260009290919082900301818387803b15801561045957600080fd5b505af115801561046d573d6000803e3d6000fd5b505050505b600154600160a060020a0316ff5b600154600090600160a060020a0316331461049a57600080fd5b6000809054906101000a9004600160a060020a0316600160a060020a031663f36675176040518163ffffffff1660e060020a028152600401602060405180830381600087803b1580156104ec57600080fd5b505af1158015610500573d6000803e3d6000fd5b505050506040513d602081101561051657600080fd5b5051604080517f4cad552b000000000000000000000000000000000000000000000000000000008152600481018590529051919250600160a060020a03831691634cad552b916024808201926020929091908290030181600087803b15801561057e57600080fd5b505af1158015610592573d6000803e3d6000fd5b505050506040513d60208110156105a857600080fd5b50505050565b6000809054906101000a9004600160a060020a0316600160a060020a031663638f83606040518163ffffffff1660e060020a028152600401602060405180830381600087803b15801561060057600080fd5b505af1158015610614573d6000803e3d6000fd5b505050506040513d602081101561062a57600080fd5b5051600160a060020a0316331461064057600080fd5b6004805460ff1916911515919091179055565b6002805460408051602060018416156101000260001901909316849004601f810184900484028201840190925281815292918301828280156106d65780601f106106ab576101008083540402835291602001916106d6565b820191906000526020600020905b8154815290600101906020018083116106b957829003601f168201915b505050505081565b60045460ff1690565b600154600160a060020a031681565b600154600090600160a060020a0316331461071057600080fd5b6000809054906101000a9004600160a060020a0316600160a060020a031663f36675176040518163ffffffff1660e060020a028152600401602060405180830381600087803b15801561076257600080fd5b505af1158015610776573d6000803e3d6000fd5b505050506040513d602081101561078c57600080fd5b5051604080517f67526c4d000000000000000000000000000000000000000000000000000000008152600481018590529051919250600160a060020a038316916367526c4d916024808201926020929091908290030181600087803b15801561057e57600080fd5b600154600090600160a060020a0316331461080e57600080fd5b6000809054906101000a9004600160a060020a0316600160a060020a031663f36675176040518163ffffffff1660e060020a028152600401602060405180830381600087803b15801561086057600080fd5b505af1158015610874573d6000803e3d6000fd5b505050506040513d602081101561088a57600080fd5b5051604080517fec792932000000000000000000000000000000000000000000000000000000008152600481018590529051919250600160a060020a0383169163ec792932916024808201926020929091908290030181600087803b15801561057e57600080fd5b60035481565b60008054604080517f3c093d5a00000000000000000000000000000000000000000000000000000000815290518392600160a060020a031691633c093d5a91600480830192602092919082900301818787803b15801561095757600080fd5b505af115801561096b573d6000803e3d6000fd5b505050506040513d602081101561098157600080fd5b5051604080517fd0b0731c0000000000000000000000000000000000000000000000000000000081529051919250600160a060020a0383169163d0b0731c9160048082019260009290919082900301818387803b1580156109e157600080fd5b505af11580156109f5573d6000803e3d6000fd5b50505050600191505090565b600154600090600160a060020a03163314610a1b57600080fd5b6000809054906101000a9004600160a060020a0316600160a060020a031663f36675176040518163ffffffff1660e060020a028152600401602060405180830381600087803b158015610a6d57600080fd5b505af1158015610a81573d6000803e3d6000fd5b505050506040513d6020811015610a9757600080fd5b5051604080517ffbfa1c670000000000000000000000000000000000000000000000000000000081529051919250600160a060020a0383169163fbfa1c67913491600480830192602092919082900301818588803b158015610af857600080fd5b505af1158015610b0c573d6000803e3d6000fd5b50505050506040513d6020811015610b2357600080fd5b5050505600a165627a7a7230582009f32ac1703c9988b79a43b700077240b20642326b45933c184531c014634c020029a265627a7a723058207b8473f986b91baca5185aaf9695acae898d717697e420ecdd3fbeeed261409f6c6578706572696d656e74616cf50037",
  "source": "pragma solidity 0.4.24;\r\npragma experimental ABIEncoderV2;\r\n\r\nimport \"./DataStorage.sol\";\r\nimport \"./Register.sol\";\r\nimport \"./ContentCreatorFactory.sol\";\r\nimport \"./User.sol\";\r\n\r\ncontract UserFactory {\r\n    DataStorage dataStorage;\r\n    Register register;\r\n    ContentCreatorFactory ccFactory;\r\n    address dataStorageAddress; \r\n    address registerAddress;\r\n    address owner;\r\n    address[] public userAddresses;\r\n\r\n    bool public emergencyStop = false;\r\n    bool public pause = false;\r\n    bool private callOnce = false;\r\n\r\n    event LogCreatedUser(address _userAddress, address _contractAddress);\r\n    \r\n    //Ensures the function is only used in an emergency.\r\n    modifier onlyInEmergency {\r\n        require(emergencyStop);\r\n        _;\r\n    }\r\n    \r\n    //Ensures the function stops in an emergency.\r\n    modifier stopInEmergency {\r\n        require(!emergencyStop);\r\n        _;\r\n    }\r\n    \r\n    //Ensures the function is paused untill set-up.\r\n    modifier pauseFunction {\r\n        require(!pause);\r\n        require(!dataStorage.pause());\r\n        _;\r\n    }\r\n    \r\n    //Ensures the function is only called nce.\r\n    modifier onlyCallOnce {\r\n        require(!callOnce, \"This contract has already been set up\");\r\n        _;\r\n    }\r\n\r\n    //Ensures only the owner can call the function.\r\n    modifier onlyOwner {\r\n        require(msg.sender == owner);\r\n        _;\r\n    }\r\n\r\n    //Ensures only the owner or the register can call this function. \r\n    modifier ownerOrRegister {\r\n        require(msg.sender == owner || msg.sender == dataStorage.registryAddress());\r\n        _;\r\n    }\r\n    \r\n    /**\r\n      * @dev The constructor for the UserFactory. \r\n      */\r\n    constructor(address _dataStorage, address _owner, address _ccFactory) \r\n        public \r\n    {\r\n        dataStorageAddress = _dataStorage;\r\n        dataStorage = DataStorage(_dataStorage);\r\n        owner = _owner;\r\n        ccFactory = ContentCreatorFactory(_ccFactory);\r\n    }\r\n    \r\n    // function constructorFunction(address _dataStorage, address _owner, address _ccFactory)\r\n    //     public\r\n    //     onlyCallOnce\r\n    // {\r\n    //     owner = _owner;\r\n    //     dataStorageAddress = _dataStorage;\r\n    //     dataStorage = DataStorage(_dataStorage);\r\n    //     ccFactory = ContentCreatorFactory(_ccFactory);\r\n    //     callOnce = true;\r\n    // }\r\n    \r\n    \r\n    /**\r\n      * @return address : The address of the current LoveMahcine.\r\n      */\r\n    function getMinter()\r\n        public\r\n        view\r\n        returns(address)\r\n    {\r\n        return dataStorage.minterAddress();\r\n    }\r\n    \r\n    /**\r\n      * @return address : The current address of the \r\n      *     ContentCreatorFactory. \r\n      */\r\n    function getContentCreatorFactory()\r\n        public\r\n        view\r\n        returns(address)\r\n    {\r\n        return dataStorage.ccFactoryAddress();\r\n    }\r\n    \r\n    /**\r\n      * @return bool : If the msg.sender is a creator. \r\n      */\r\n    function isCreator()\r\n        public \r\n        view\r\n        returns(bool)\r\n    {\r\n        return dataStorage.isCreator(msg.sender);\r\n    }\r\n    \r\n    /**\r\n      * @return address : The address of this users creator \r\n      *     contract. \r\n      */\r\n    function getCreatorAddress()\r\n        public\r\n        view\r\n        returns(address)\r\n    {\r\n        return dataStorage.getCreatorAddressFromUser(msg.sender);\r\n    }\r\n    \r\n    /**\r\n      * @return address : The address of the dataStorage. \r\n      */\r\n    function getDataStorageAddress()\r\n        public\r\n        view \r\n        returns(address)\r\n    {\r\n        return dataStorageAddress;\r\n    }\r\n    \r\n    /**\r\n      * @dev The function that creates a new user.\r\n      * @notice The user name is checked for uniqueness in the \r\n      *     dataStorage. \r\n      *     The contract is created before this and \r\n      * @param _userName : The user name the user has entered. \r\n      * @return address : The address of the new user contract. \r\n      */\r\n    function createUser(string _userName) \r\n        public \r\n        // stopInEmergency\r\n        // pauseFunction\r\n        // returns(address) \r\n    {\r\n        //require(dataStorage.isUnique(_userName), \"The user name is not unique.\");\r\n        address newUser = new User(msg.sender, _userName);\r\n        userAddresses.push(newUser);\r\n        dataStorage.setNewUserData(msg.sender, newUser, _userName);\r\n        \r\n        // return newUser;\r\n    }\r\n    \r\n    function deleteUserFinal(address _contractAddress)\r\n        public \r\n        stopInEmergency\r\n        pauseFunction\r\n        returns(bool) \r\n    {\r\n        require(msg.sender == _contractAddress);\r\n        string memory _userName = dataStorage.getAUsersName(_contractAddress);\r\n        require(keccak256(_userName) != keccak256(\"\"));\r\n        \r\n        //TODO: call minter to send remaining views to contract creator\r\n\r\n        dataStorage.removeUserData(\r\n            dataStorage.getAUsersOwnerData(_contractAddress), \r\n            _contractAddress,\r\n            dataStorage.getAUsersNameData(_contractAddress));\r\n            \r\n            //TODO: needs to check if user is a creator and delete creator too\r\n        return true;\r\n    }\r\n\r\n    function kill(address _minter) \r\n        public \r\n        ownerOrRegister \r\n    {\r\n        selfdestruct(_minter);\r\n        //v2 could just have a \r\n        //bool death private;\r\n        //that needs \r\n        //to be false and when its set to true the contract \r\n        //is dead.\r\n    }\r\n}",
  "sourcePath": "C:\\Users\\Veronica Coutts\\Desktop\\Desktop\\Work\\Web3 Projects\\MVP\\mvp\\contracts\\UserFactory.sol",
  "compiler": {
    "name": "solc",
    "version": "0.4.24+commit.e67f0147.Emscripten.clang"
  },
  "schemaVersion": "2.0.1",
  "updatedAt": "2018-08-26T16:46:55.714Z"
}