{
  "contractName": "ContentCreatorFactory",
  "abi": [
    {
      "constant": true,
      "inputs": [],
      "name": "emergencyStop",
      "outputs": [
        {
          "name": "",
          "type": "bool"
        }
      ],
      "payable": false,
      "stateMutability": "view",
      "type": "function"
    },
    {
      "constant": true,
      "inputs": [
        {
          "name": "",
          "type": "uint256"
        }
      ],
      "name": "creatorAddresses",
      "outputs": [
        {
          "name": "",
          "type": "address"
        }
      ],
      "payable": false,
      "stateMutability": "view",
      "type": "function"
    },
    {
      "constant": true,
      "inputs": [],
      "name": "pause",
      "outputs": [
        {
          "name": "",
          "type": "bool"
        }
      ],
      "payable": false,
      "stateMutability": "view",
      "type": "function"
    },
    {
      "constant": true,
      "inputs": [],
      "name": "owner",
      "outputs": [
        {
          "name": "",
          "type": "address"
        }
      ],
      "payable": false,
      "stateMutability": "view",
      "type": "function"
    },
    {
      "inputs": [
        {
          "name": "_dataStorage",
          "type": "address"
        }
      ],
      "payable": false,
      "stateMutability": "nonpayable",
      "type": "constructor"
    },
    {
      "anonymous": false,
      "inputs": [
        {
          "indexed": false,
          "name": "_userAccount",
          "type": "address"
        },
        {
          "indexed": false,
          "name": "_contentCreatorFactory",
          "type": "address"
        }
      ],
      "name": "LogContentCreator",
      "type": "event"
    },
    {
      "constant": true,
      "inputs": [
        {
          "name": "_addressToCheck",
          "type": "address"
        }
      ],
      "name": "onlyAUser",
      "outputs": [
        {
          "name": "",
          "type": "bool"
        }
      ],
      "payable": false,
      "stateMutability": "view",
      "type": "function"
    },
    {
      "constant": false,
      "inputs": [],
      "name": "createContentCreator",
      "outputs": [
        {
          "name": "",
          "type": "address"
        }
      ],
      "payable": false,
      "stateMutability": "nonpayable",
      "type": "function"
    },
    {
      "constant": true,
      "inputs": [],
      "name": "getMinter",
      "outputs": [
        {
          "name": "",
          "type": "address"
        }
      ],
      "payable": false,
      "stateMutability": "view",
      "type": "function"
    },
    {
      "constant": true,
      "inputs": [],
      "name": "getDataStorage",
      "outputs": [
        {
          "name": "",
          "type": "address"
        }
      ],
      "payable": false,
      "stateMutability": "view",
      "type": "function"
    },
    {
      "constant": false,
      "inputs": [],
      "name": "killingCreator",
      "outputs": [],
      "payable": false,
      "stateMutability": "nonpayable",
      "type": "function"
    },
    {
      "constant": false,
      "inputs": [
        {
          "name": "_minter",
          "type": "address"
        }
      ],
      "name": "kill",
      "outputs": [],
      "payable": false,
      "stateMutability": "nonpayable",
      "type": "function"
    }
  ],
  "bytecode": "0x60806040526006805462ffffff1916905534801561001c57600080fd5b50604051602080611276833981016040818152915160028054600160a060020a0319908116600160a060020a0380851691821790935560008054909216178082557f8da5cb5b0000000000000000000000000000000000000000000000000000000085529451929490911692638da5cb5b9260048083019360209383900390910190829087803b1580156100af57600080fd5b505af11580156100c3573d6000803e3d6000fd5b505050506040513d60208110156100d957600080fd5b505160048054600160a060020a03909216600160a060020a0319909216919091179055506006805462ff00001916620100001790556111598061011d6000396000f30060806040526004361061008a5763ffffffff60e060020a60003504166363a599a4811461008f5780636c4f8bd5146100b85780637c0cc8b3146100cf5780638456cb591461010357806386cc31ac146101185780638da5cb5b1461012d578063a404d3c114610142578063cbf0b0c014610163578063d0b0731c14610184578063f366751714610199575b600080fd5b34801561009b57600080fd5b506100a46101ae565b604080519115158252519081900360200190f35b3480156100c457600080fd5b506100cd6101b7565b005b3480156100db57600080fd5b506100e7600435610469565b60408051600160a060020a039092168252519081900360200190f35b34801561010f57600080fd5b506100a4610491565b34801561012457600080fd5b506100e761049f565b34801561013957600080fd5b506100e76104ae565b34801561014e57600080fd5b506100a4600160a060020a03600435166104bd565b34801561016f57600080fd5b506100cd600160a060020a03600435166105ff565b34801561019057600080fd5b506100e76106b4565b3480156101a557600080fd5b506100e76108d2565b60065460ff1681565b60008054604080517fefd46065000000000000000000000000000000000000000000000000000000008152336004820181905291519192600160a060020a03169163efd460659160248082019260209290919082900301818887803b15801561021f57600080fd5b505af1158015610233573d6000803e3d6000fd5b505050506040513d602081101561024957600080fd5b5051151561025657600080fd5b33600160a060020a0382161461026b57600080fd5b3391506000809054906101000a9004600160a060020a0316600160a060020a0316635c1e153c3384600160a060020a031663893d20e86040518163ffffffff1660e060020a028152600401602060405180830381600087803b1580156102d057600080fd5b505af11580156102e4573d6000803e3d6000fd5b505050506040513d60208110156102fa57600080fd5b50516040805160e060020a63ffffffff8616028152600160a060020a03938416600482015292909116602483015251604480830192600092919082900301818387803b15801561034957600080fd5b505af115801561035d573d6000803e3d6000fd5b505050506000809054906101000a9004600160a060020a0316600160a060020a031663aae87c2483600160a060020a031663893d20e86040518163ffffffff1660e060020a028152600401602060405180830381600087803b1580156103c257600080fd5b505af11580156103d6573d6000803e3d6000fd5b505050506040513d60208110156103ec57600080fd5b50516040805160e060020a63ffffffff8516028152600160a060020a0390921660048301523360248301525160448083019260209291908290030181600087803b15801561043957600080fd5b505af115801561044d573d6000803e3d6000fd5b505050506040513d602081101561046357600080fd5b50505050565b600580548290811061047757fe5b600091825260209091200154600160a060020a0316905081565b600654610100900460ff1681565b600254600160a060020a031690565b600454600160a060020a031681565b600080606060008092506000809054906101000a9004600160a060020a0316600160a060020a0316632f3300236040518163ffffffff1660e060020a028152600401600060405180830381600087803b15801561051957600080fd5b505af115801561052d573d6000803e3d6000fd5b505050506040513d6000823e601f3d908101601f19168201604052602081101561055657600080fd5b81019080805164010000000081111561056e57600080fd5b8201602081018481111561058157600080fd5b815185602082028301116401000000008211171561059e57600080fd5b5090955060009450505050505b81518110156105f65784600160a060020a031682828151811015156105cc57fe5b90602001906020020151600160a060020a031614156105ee57600192506105f6565b6001016105ab565b50909392505050565b600454600160a060020a031633148061069d57506000809054906101000a9004600160a060020a0316600160a060020a031663ed9aab516040518163ffffffff1660e060020a028152600401602060405180830381600087803b15801561066557600080fd5b505af1158015610679573d6000803e3d6000fd5b505050506040513d602081101561068f57600080fd5b5051600160a060020a031633145b15156106a857600080fd5b80600160a060020a0316ff5b600654600090819060ff16156106c957600080fd5b600654610100900460ff16156106de57600080fd5b6000809054906101000a9004600160a060020a0316600160a060020a0316638456cb596040518163ffffffff1660e060020a028152600401602060405180830381600087803b15801561073057600080fd5b505af1158015610744573d6000803e3d6000fd5b505050506040513d602081101561075a57600080fd5b50511561076657600080fd5b3330610770610957565b600160a060020a03928316815291166020820152604080519182900301906000f0801580156107a3573d6000803e3d6000fd5b506005805460018101825560009182527f036b6384b5eca791c62761152d0c79bb0604c104a5fb6f4eb0703f3154bb3db001805473ffffffffffffffffffffffffffffffffffffffff1916600160a060020a038481169182179092558254604080517fe2bf75d10000000000000000000000000000000000000000000000000000000081523360048201526024810193909352519495509091169263e2bf75d192604480840193602093929083900390910190829087803b15801561086757600080fd5b505af115801561087b573d6000803e3d6000fd5b505050506040513d602081101561089157600080fd5b50506040805133815230602082015281517fc4a6c51d5a191081fe9bfd236037c94a0b113428ed97a5e77463b5c18723aa23929181900390910190a1919050565b60008060009054906101000a9004600160a060020a0316600160a060020a031663f36675176040518163ffffffff1660e060020a028152600401602060405180830381600087803b15801561092657600080fd5b505af115801561093a573d6000803e3d6000fd5b505050506040513d602081101561095057600080fd5b5051905090565b6040516107c680610968833901905600608060405234801561001057600080fd5b506040516040806107c68339810160408181528251602093840151600160a060020a03808316855281169484019490945281519093927f0f3b40638b6b596c5e7f587f78c545bca38da246c2816944b2233e2beffb3c3792908290030190a160028054600160a060020a03938416600160a060020a0319918216811790925560038054821683179055600480549390941692811683179093556001805484169091179055600080549092161790556106f9806100cd6000396000f3006080604052600436106100745763ffffffff60e060020a60003504166341c0e1b581146100795780635000596b14610090578063619d5194146100c15780637e5852d9146100db578063893d20e8146101045780638da5cb5b1461011957806391d0a3221461012e578063cd8c43b614610203575b600080fd5b34801561008557600080fd5b5061008e610218565b005b34801561009c57600080fd5b506100a56102b0565b60408051600160a060020a039092168252519081900360200190f35b3480156100cd57600080fd5b5061008e60043515156102bf565b3480156100e757600080fd5b506100f0610397565b604080519115158252519081900360200190f35b34801561011057600080fd5b506100a56103b8565b34801561012557600080fd5b506100a56103c7565b34801561013a57600080fd5b506040805160206004803580820135601f810184900484028501840190955284845261008e94369492936024939284019190819084018382808284375050604080516020601f89358b018035918201839004830284018301909452808352979a99988101979196509182019450925082915084018382808284375050604080516020601f89358b018035918201839004830284018301909452808352979a9998810197919650918201945092508291508401838280828437509497506103d69650505050505050565b34801561020f57600080fd5b506100a56106be565b600254600160a060020a0316331461022f57600080fd5b60008054604080517f6c4f8bd50000000000000000000000000000000000000000000000000000000081529051600160a060020a0390921692636c4f8bd59260048084019382900301818387803b15801561028957600080fd5b505af115801561029d573d6000803e3d6000fd5b5050600254600160a060020a0316915050ff5b600354600160a060020a031681565b60008060009054906101000a9004600160a060020a0316600160a060020a03166386cc31ac6040518163ffffffff1660e060020a028152600401602060405180830381600087803b15801561031357600080fd5b505af1158015610327573d6000803e3d6000fd5b505050506040513d602081101561033d57600080fd5b5051905033600160a060020a0382161461035657600080fd5b5060048054911515740100000000000000000000000000000000000000000274ff000000000000000000000000000000000000000019909216919091179055565b60045474010000000000000000000000000000000000000000900460ff1690565b600254600160a060020a031690565b600254600160a060020a031681565b604080516000602082018190528282526022828401527f496e20636363206265666f72652063616c6c696e67206c6f7665206d6163686960608301527f6e650000000000000000000000000000000000000000000000000000000000006080830152915182917f94d0a093377a101d5273778eb97c4078f231a24825316d77d684c2c25ab4fcda919081900360a00190a16000809054906101000a9004600160a060020a0316600160a060020a031663f36675176040518163ffffffff1660e060020a028152600401602060405180830381600087803b1580156104b957600080fd5b505af11580156104cd573d6000803e3d6000fd5b505050506040513d60208110156104e357600080fd5b50516002546040517f6e9f1b75000000000000000000000000000000000000000000000000000000008152600160a060020a03918216600482018181526080602484019081528a5160848501528a5195975093871694636e9f1b759492938b938b938b9390926044810191606482019160a40190602089019080838360005b8381101561057a578181015183820152602001610562565b50505050905090810190601f1680156105a75780820380516001836020036101000a031916815260200191505b50848103835286518152865160209182019188019080838360005b838110156105da5781810151838201526020016105c2565b50505050905090810190601f1680156106075780820380516001836020036101000a031916815260200191505b50848103825285518152855160209182019187019080838360005b8381101561063a578181015183820152602001610622565b50505050905090810190601f1680156106675780820380516001836020036101000a031916815260200191505b50975050505050505050602060405180830381600087803b15801561068b57600080fd5b505af115801561069f573d6000803e3d6000fd5b505050506040513d60208110156106b557600080fd5b50505050505050565b600454600160a060020a0316815600a165627a7a7230582011b8d5ee785c0f925472aaa1d1a510e12572265de54a19ee028ee45511b897e10029a165627a7a723058200df0c8a893a166a5a2327278ee6a65dbf04169dc9492c219ddbfff3e1b86d8ab0029",
  "source": "pragma solidity 0.4.24;\r\n\r\nimport \"./DataStorage.sol\";\r\nimport \"./Register.sol\";\r\nimport \"./LoveMachine.sol\";\r\nimport \"./ContentCreator.sol\";\r\n\r\ncontract ContentCreatorFactory {\r\n    DataStorage dataStorage;\r\n    Register register;\r\n    address dataStorageAddress;\r\n    address registerAddress;\r\n    address public owner;\r\n    address[] public creatorAddresses;\r\n\r\n    bool public emergencyStop = false;\r\n    bool public pause = false;\r\n    bool callOnce = false;\r\n\r\n    event LogContentCreator(address _userAccount, address _contentCreatorFactory);\r\n\r\n    //Ensures the address is a user address.\r\n    modifier onlyUsers(address _user) {\r\n        bool pass = false;\r\n        pass = dataStorage.isUser(_user);\r\n        require(pass);\r\n        _;\r\n    }\r\n    \r\n    //Ensures function is only used in emergency.\r\n    modifier onlyInEmergency {\r\n        require(emergencyStop);\r\n        _;\r\n    }\r\n    \r\n    //Ensures function is stopped during an emergency.\r\n    modifier stopInEmergency {\r\n        require(!emergencyStop);\r\n        _;\r\n    }\r\n    \r\n    //Ensures the contract has been set up\r\n    modifier pauseFunction {\r\n        require(!pause);\r\n        require(!dataStorage.pause());\r\n        _;\r\n    }\r\n    \r\n    //Ensures the setUp function is only called once. \r\n    modifier onlyCallOnce {\r\n        require(!callOnce, \"This contract has already been set up\");\r\n        _;\r\n    }\r\n\r\n    //Ensures function is only called by owner or register.\r\n    modifier ownerOrRegister {\r\n        require(msg.sender == owner || msg.sender == dataStorage.registryAddress());\r\n        _;\r\n    }\r\n    \r\n    //Ensures only the creator can call this function\r\n    modifier onlyCreator(address _ccc) {\r\n        require(dataStorage.isCreator(msg.sender));\r\n        require(msg.sender == _ccc);\r\n        _;\r\n    }\r\n\r\n    /**\r\n      * @dev Creates the contract.\r\n      * @notice The constructor and contract setup has been seporated\r\n      *     becuse the constructor dose not create an address for itself\r\n      *     untill the constructor has finished. \r\n      */\r\n    constructor(address _dataStorage) \r\n        public \r\n    {\r\n        dataStorageAddress = _dataStorage;\r\n        dataStorage = DataStorage(_dataStorage);\r\n        owner = dataStorage.owner();\r\n        \r\n        callOnce = true;\r\n    }\r\n    \r\n    // /**\r\n    //   * @dev This function is used to set up the contract after the \r\n    //   *     constructor has created the contract address.\r\n    //   * @notice The owner is set to the owner of the DataStorage. \r\n    //   *     This function can only be called once. \r\n    //   * @param _dataStorage : The address of the dataStorage that \r\n    //   *             created it. \r\n    //   */\r\n    // function constructorFunction)\r\n    //     public\r\n    //     onlyCallOnce\r\n    // {\r\n        \r\n    // }\r\n\r\n    /**\r\n      * @dev Used to check if an address is a user. \r\n      * @param _addressToCheck : The address to check.\r\n      * @return bool : If the address is a user. \r\n      */\r\n    function onlyAUser(address _addressToCheck)\r\n        public\r\n        view\r\n        returns(bool)    \r\n    {\r\n        bool pass = false;\r\n        address[] memory allUsers = dataStorage.getAllUserAddresses();\r\n        for(uint i = 0; i < allUsers.length; i++) {\r\n            if(allUsers[i] == _addressToCheck) {\r\n                pass = true;\r\n                break;\r\n            }\r\n        }\r\n        return(pass);\r\n    } \r\n     \r\n     /**\r\n       * @dev Creates a conent creator.\r\n       * @notice Can only be called by a user. This function is \r\n       *    called directly from the users contract. \r\n       * @return bool : Returns what the minter function to \r\n       *    creator a creator returns. \r\n       */\r\n    function createContentCreator()\r\n        public \r\n        // payable\r\n        // onlyUsers(msg.sender)\r\n        stopInEmergency\r\n        pauseFunction\r\n        returns(address) \r\n    { \r\n        address ccc = new ContentCreator(msg.sender, this);\r\n        creatorAddresses.push(ccc);\r\n        \r\n        dataStorage.setNewCreatorData(msg.sender, ccc);\r\n        emit LogContentCreator(msg.sender, this);\r\n        return ccc;\r\n    }\r\n    \r\n    /**\r\n      * @return address : The address of the current minter \r\n      *     from the dataStorage.  \r\n      */\r\n    function getMinter() \r\n        public\r\n        view\r\n        returns(address)\r\n    {\r\n        return dataStorage.getMinter();\r\n    }\r\n    \r\n    function getDataStorage()\r\n        public\r\n        view\r\n        returns(address)\r\n    {\r\n        return dataStorageAddress;\r\n    }\r\n    \r\n    /**\r\n      * @dev Sends all funds to user contract and then deletes\r\n      *     all the content creators data. \r\n      */\r\n    function killingCreator()\r\n        public\r\n        onlyCreator(msg.sender)\r\n    {\r\n        ContentCreator cc = ContentCreator(msg.sender);\r\n        dataStorage.moveAllFundsToUser(msg.sender, cc.getOwner());\r\n        dataStorage.removeCreatorData(cc.getOwner(), msg.sender);\r\n    }\r\n\r\n    /**\r\n      * @dev Kills this contract and sends any finds to the \r\n      *     minter. \r\n      * @notice Can only be called by the \r\n      */\r\n    function kill(address _minter) \r\n        public \r\n        ownerOrRegister \r\n    {\r\n        selfdestruct(_minter);\r\n    }\r\n}",
  "sourcePath": "C:\\Users\\Veronica Coutts\\Desktop\\Desktop\\Work\\Web3 Projects\\MVP\\contracts\\ContentCreatorFactory.sol",
  "compiler": {
    "name": "solc",
    "version": "0.4.24+commit.e67f0147.Emscripten.clang"
  },
  "schemaVersion": "2.0.1",
  "updatedAt": "2018-08-27T19:59:36.648Z"
}