{
  "contractName": "ContentCreator",
  "abi": [
    {
      "constant": true,
      "inputs": [],
      "name": "userContract",
      "outputs": [
        {
          "name": "",
          "type": "address"
        }
      ],
      "payable": false,
      "stateMutability": "view",
      "type": "function"
    },
    {
      "constant": true,
      "inputs": [],
      "name": "owner",
      "outputs": [
        {
          "name": "",
          "type": "address"
        }
      ],
      "payable": false,
      "stateMutability": "view",
      "type": "function"
    },
    {
      "constant": true,
      "inputs": [],
      "name": "ccFactoryAddress",
      "outputs": [
        {
          "name": "",
          "type": "address"
        }
      ],
      "payable": false,
      "stateMutability": "view",
      "type": "function"
    },
    {
      "inputs": [
        {
          "name": "_userAccount",
          "type": "address"
        },
        {
          "name": "_contentCreatorFactory",
          "type": "address"
        }
      ],
      "payable": false,
      "stateMutability": "nonpayable",
      "type": "constructor"
    },
    {
      "anonymous": false,
      "inputs": [
        {
          "indexed": false,
          "name": "_userAccount",
          "type": "address"
        },
        {
          "indexed": false,
          "name": "_factory",
          "type": "address"
        }
      ],
      "name": "constructorTest",
      "type": "event"
    },
    {
      "anonymous": false,
      "inputs": [
        {
          "indexed": false,
          "name": "usedIn",
          "type": "string"
        },
        {
          "indexed": false,
          "name": "passed",
          "type": "bool"
        }
      ],
      "name": "LogIsUser",
      "type": "event"
    },
    {
      "constant": false,
      "inputs": [
        {
          "name": "_addressIPFS",
          "type": "string"
        },
        {
          "name": "_title",
          "type": "string"
        },
        {
          "name": "_description",
          "type": "string"
        }
      ],
      "name": "createConent",
      "outputs": [],
      "payable": false,
      "stateMutability": "nonpayable",
      "type": "function"
    },
    {
      "constant": true,
      "inputs": [],
      "name": "getLock",
      "outputs": [
        {
          "name": "",
          "type": "bool"
        }
      ],
      "payable": false,
      "stateMutability": "view",
      "type": "function"
    },
    {
      "constant": false,
      "inputs": [
        {
          "name": "_lock",
          "type": "bool"
        }
      ],
      "name": "setLock",
      "outputs": [],
      "payable": false,
      "stateMutability": "nonpayable",
      "type": "function"
    },
    {
      "constant": true,
      "inputs": [],
      "name": "getOwner",
      "outputs": [
        {
          "name": "",
          "type": "address"
        }
      ],
      "payable": false,
      "stateMutability": "view",
      "type": "function"
    },
    {
      "constant": false,
      "inputs": [],
      "name": "kill",
      "outputs": [],
      "payable": false,
      "stateMutability": "nonpayable",
      "type": "function"
    }
  ],
  "bytecode": "0x608060405234801561001057600080fd5b506040516040806107c68339810160408181528251602093840151600160a060020a03808316855281169484019490945281519093927f0f3b40638b6b596c5e7f587f78c545bca38da246c2816944b2233e2beffb3c3792908290030190a160028054600160a060020a03938416600160a060020a0319918216811790925560038054821683179055600480549390941692811683179093556001805484169091179055600080549092161790556106f9806100cd6000396000f3006080604052600436106100745763ffffffff60e060020a60003504166341c0e1b581146100795780635000596b14610090578063619d5194146100c15780637e5852d9146100db578063893d20e8146101045780638da5cb5b1461011957806391d0a3221461012e578063cd8c43b614610203575b600080fd5b34801561008557600080fd5b5061008e610218565b005b34801561009c57600080fd5b506100a56102b0565b60408051600160a060020a039092168252519081900360200190f35b3480156100cd57600080fd5b5061008e60043515156102bf565b3480156100e757600080fd5b506100f0610397565b604080519115158252519081900360200190f35b34801561011057600080fd5b506100a56103b8565b34801561012557600080fd5b506100a56103c7565b34801561013a57600080fd5b506040805160206004803580820135601f810184900484028501840190955284845261008e94369492936024939284019190819084018382808284375050604080516020601f89358b018035918201839004830284018301909452808352979a99988101979196509182019450925082915084018382808284375050604080516020601f89358b018035918201839004830284018301909452808352979a9998810197919650918201945092508291508401838280828437509497506103d69650505050505050565b34801561020f57600080fd5b506100a56106be565b600254600160a060020a0316331461022f57600080fd5b60008054604080517f6c4f8bd50000000000000000000000000000000000000000000000000000000081529051600160a060020a0390921692636c4f8bd59260048084019382900301818387803b15801561028957600080fd5b505af115801561029d573d6000803e3d6000fd5b5050600254600160a060020a0316915050ff5b600354600160a060020a031681565b60008060009054906101000a9004600160a060020a0316600160a060020a03166386cc31ac6040518163ffffffff1660e060020a028152600401602060405180830381600087803b15801561031357600080fd5b505af1158015610327573d6000803e3d6000fd5b505050506040513d602081101561033d57600080fd5b5051905033600160a060020a0382161461035657600080fd5b5060048054911515740100000000000000000000000000000000000000000274ff000000000000000000000000000000000000000019909216919091179055565b60045474010000000000000000000000000000000000000000900460ff1690565b600254600160a060020a031690565b600254600160a060020a031681565b604080516000602082018190528282526022828401527f496e20636363206265666f72652063616c6c696e67206c6f7665206d6163686960608301527f6e650000000000000000000000000000000000000000000000000000000000006080830152915182917f94d0a093377a101d5273778eb97c4078f231a24825316d77d684c2c25ab4fcda919081900360a00190a16000809054906101000a9004600160a060020a0316600160a060020a031663f36675176040518163ffffffff1660e060020a028152600401602060405180830381600087803b1580156104b957600080fd5b505af11580156104cd573d6000803e3d6000fd5b505050506040513d60208110156104e357600080fd5b50516002546040517f6e9f1b75000000000000000000000000000000000000000000000000000000008152600160a060020a03918216600482018181526080602484019081528a5160848501528a5195975093871694636e9f1b759492938b938b938b9390926044810191606482019160a40190602089019080838360005b8381101561057a578181015183820152602001610562565b50505050905090810190601f1680156105a75780820380516001836020036101000a031916815260200191505b50848103835286518152865160209182019188019080838360005b838110156105da5781810151838201526020016105c2565b50505050905090810190601f1680156106075780820380516001836020036101000a031916815260200191505b50848103825285518152855160209182019187019080838360005b8381101561063a578181015183820152602001610622565b50505050905090810190601f1680156106675780820380516001836020036101000a031916815260200191505b50975050505050505050602060405180830381600087803b15801561068b57600080fd5b505af115801561069f573d6000803e3d6000fd5b505050506040513d60208110156106b557600080fd5b50505050505050565b600454600160a060020a0316815600a165627a7a7230582011b8d5ee785c0f925472aaa1d1a510e12572265de54a19ee028ee45511b897e10029",
  "source": "pragma solidity 0.4.24;\r\n\r\nimport \"./User.sol\";\r\nimport \"./ContentCreatorFactory.sol\";\r\nimport \"./LoveMachine.sol\";\r\n\r\ncontract ContentCreator {\r\n    ContentCreatorFactory ccFactory;\r\n    User user;\r\n    address public owner;\r\n    address public userContract;\r\n    address public ccFactoryAddress;\r\n    \r\n    bool ccLock;\r\n   \r\n   //Ensures the caller of the function is the userContract\r\n   //that created it. \r\n    modifier isUser { \r\n        require(msg.sender == owner);\r\n        _;\r\n    }\r\n\r\n    //Ensures the caller of the function is the \r\n    //ConetentCreatorFactory that spawner it. \r\n    modifier onlyCCFactory {\r\n        require(msg.sender == ccFactoryAddress);\r\n        _;\r\n    }\r\n\r\n    //Ensures the address is a user contract address.\r\n    modifier onlyAUser(address _user){\r\n        require(ccFactory.onlyAUser(_user));\r\n        _;\r\n    }\r\n    \r\n    //Ensures the lock is false.\r\n    modifier checkLock {\r\n        require(!user.getLock());\r\n        require(!ccLock);\r\n        _;\r\n    }\r\n    \r\n    //Ensures the caller of the function is the minter. \r\n    modifier onlyMinter {\r\n        address minter = ccFactory.getMinter();\r\n        require(msg.sender == minter);\r\n        _;\r\n    }\r\n    \r\n    //Ensures only the dataStorage can call this function\r\n    modifier onlyDataStorage {\r\n        address dataStorage = ccFactory.getDataStorage();\r\n        require(msg.sender == dataStorage);\r\n        _;\r\n    }\r\n    \r\n    event constructorTest(address _userAccount,address _factory);\r\n    /**\r\n      * @dev Creates a new Conent creator. \r\n      * @notice This is called by the Content Creator Facotry, which \r\n      *     in turn is called by a user account. \r\n      * @param _userAccount : The user contract that called the \r\n      *         Content Creator Factory to become a content creator. \r\n      *     _contentCreatorFactory : The address of the content \r\n      *         creator factory. \r\n      */\r\n    constructor(address _userAccount, address _contentCreatorFactory) \r\n        public \r\n        // onlyAUser(_userAccount)\r\n    {\r\n        emit constructorTest(_userAccount, _contentCreatorFactory);\r\n        owner = _userAccount;\r\n        userContract = _userAccount;\r\n        ccFactoryAddress = _contentCreatorFactory;\r\n        user = User(_userAccount);\r\n        ccFactory = ContentCreatorFactory(_contentCreatorFactory);\r\n    }\r\n    \r\n    event LogIsUser(string usedIn, bool passed);\r\n    //TO REMOVE\r\n\r\n    /**\r\n      * @dev This allows the content creator to create content. \r\n      * @param _addressIPFS : The address of the content in IPFS. \r\n      *     _title : The title of the content.\r\n      *     _description : The description or the 'About' for the content.\r\n      * @return bool : If the minter created the content. \r\n      */\r\n    function createConent( \r\n        string _addressIPFS, \r\n        string _title, \r\n        string _description\r\n        )\r\n        public\r\n        // returns(bool)\r\n    {\r\n        //require(msg.sender == owner, \"Sender must be owner contract\");\r\n        emit LogIsUser(\"In ccc before calling love machine\", false);\r\n        LoveMachine minter = LoveMachine(ccFactory.getMinter());\r\n        bool finished = minter.createContentMinter(owner, _addressIPFS, _title, _description);\r\n        // emit LogIsUser(\"In ccc after love machine has been called\", true);\r\n        // return finished;\r\n    }\r\n    \r\n    /**\r\n      * @dev To ensure that the creator is not making any other state changes.  \r\n      * @return bool : If the creator is locked. \r\n      */\r\n    function getLock()\r\n        public\r\n        view\r\n        returns(bool)\r\n    {\r\n        return(ccLock);\r\n    }\r\n    \r\n    /**\r\n      * @dev Sets the lock to the value given. \r\n      * @notice This is only changable by the dataStorage as \r\n      *     the dataStorage is the only thing able to do state \r\n      *     changes, it is the only thing able to lock users and \r\n      *     creators. \r\n      * @param _lock : The new vaule for lock. \r\n      */\r\n    function setLock(bool _lock)\r\n        public\r\n        onlyDataStorage\r\n    {\r\n        ccLock = _lock;\r\n    }\r\n    \r\n    /**\r\n      * @return address : The address of the user contract that \r\n      *     created this creator account. \r\n      */\r\n    function getOwner()\r\n        public\r\n        view\r\n        returns(address)\r\n    {\r\n        return owner;\r\n    }\r\n    \r\n    /**\r\n      * @dev Allows the creator to destroy their account. \r\n      * @notice the killingContract() function transefers all  \r\n      *     views to the user contract that created it, and \r\n      *     also sends any value in the contract to the user \r\n      *     contract as well. \r\n      */\r\n    function kill() \r\n        public\r\n        isUser\r\n    {\r\n        ccFactory.killingCreator();\r\n        selfdestruct(owner);\r\n    }\r\n}",
  "sourcePath": "C:\\Users\\Veronica Coutts\\Desktop\\Desktop\\Work\\Web3 Projects\\MVP\\contracts\\ContentCreator.sol",
  "compiler": {
    "name": "solc",
    "version": "0.4.24+commit.e67f0147.Emscripten.clang"
  },
  "schemaVersion": "2.0.1",
  "updatedAt": "2018-08-27T19:59:36.646Z"
}