{
  "contractName": "DataStorage",
  "abi": [
    {
      "constant": true,
      "inputs": [
        {
          "name": "",
          "type": "uint256"
        }
      ],
      "name": "creatorsAddresses",
      "outputs": [
        {
          "name": "",
          "type": "address"
        }
      ],
      "payable": false,
      "stateMutability": "view",
      "type": "function"
    },
    {
      "constant": true,
      "inputs": [
        {
          "name": "",
          "type": "uint256"
        }
      ],
      "name": "allContent",
      "outputs": [
        {
          "name": "userOwner",
          "type": "address"
        },
        {
          "name": "creator",
          "type": "address"
        },
        {
          "name": "contentLocationIPFS",
          "type": "string"
        },
        {
          "name": "title",
          "type": "string"
        },
        {
          "name": "description",
          "type": "string"
        },
        {
          "name": "views",
          "type": "uint256"
        }
      ],
      "payable": false,
      "stateMutability": "view",
      "type": "function"
    },
    {
      "constant": true,
      "inputs": [],
      "name": "moderatorViews",
      "outputs": [
        {
          "name": "",
          "type": "uint256"
        }
      ],
      "payable": false,
      "stateMutability": "view",
      "type": "function"
    },
    {
      "constant": true,
      "inputs": [
        {
          "name": "",
          "type": "address"
        }
      ],
      "name": "creatorsContractOwners",
      "outputs": [
        {
          "name": "",
          "type": "address"
        }
      ],
      "payable": false,
      "stateMutability": "view",
      "type": "function"
    },
    {
      "constant": true,
      "inputs": [],
      "name": "minterAddress",
      "outputs": [
        {
          "name": "",
          "type": "address"
        }
      ],
      "payable": false,
      "stateMutability": "view",
      "type": "function"
    },
    {
      "constant": true,
      "inputs": [],
      "name": "userFactoryAddress",
      "outputs": [
        {
          "name": "",
          "type": "address"
        }
      ],
      "payable": false,
      "stateMutability": "view",
      "type": "function"
    },
    {
      "constant": true,
      "inputs": [
        {
          "name": "",
          "type": "uint256"
        }
      ],
      "name": "usersNames",
      "outputs": [
        {
          "name": "",
          "type": "string"
        }
      ],
      "payable": false,
      "stateMutability": "view",
      "type": "function"
    },
    {
      "constant": true,
      "inputs": [],
      "name": "emergencyStop",
      "outputs": [
        {
          "name": "",
          "type": "bool"
        }
      ],
      "payable": false,
      "stateMutability": "view",
      "type": "function"
    },
    {
      "constant": true,
      "inputs": [
        {
          "name": "",
          "type": "address"
        },
        {
          "name": "",
          "type": "uint256"
        }
      ],
      "name": "creatorContent",
      "outputs": [
        {
          "name": "userOwner",
          "type": "address"
        },
        {
          "name": "creator",
          "type": "address"
        },
        {
          "name": "contentLocationIPFS",
          "type": "string"
        },
        {
          "name": "title",
          "type": "string"
        },
        {
          "name": "description",
          "type": "string"
        },
        {
          "name": "views",
          "type": "uint256"
        }
      ],
      "payable": false,
      "stateMutability": "view",
      "type": "function"
    },
    {
      "constant": true,
      "inputs": [
        {
          "name": "",
          "type": "address"
        }
      ],
      "name": "allCreators",
      "outputs": [
        {
          "name": "",
          "type": "uint256"
        }
      ],
      "payable": false,
      "stateMutability": "view",
      "type": "function"
    },
    {
      "constant": true,
      "inputs": [
        {
          "name": "",
          "type": "uint256"
        }
      ],
      "name": "usersAddresses",
      "outputs": [
        {
          "name": "",
          "type": "address"
        }
      ],
      "payable": false,
      "stateMutability": "view",
      "type": "function"
    },
    {
      "constant": true,
      "inputs": [],
      "name": "pause",
      "outputs": [
        {
          "name": "",
          "type": "bool"
        }
      ],
      "payable": false,
      "stateMutability": "view",
      "type": "function"
    },
    {
      "constant": true,
      "inputs": [],
      "name": "owner",
      "outputs": [
        {
          "name": "",
          "type": "address"
        }
      ],
      "payable": false,
      "stateMutability": "view",
      "type": "function"
    },
    {
      "constant": true,
      "inputs": [
        {
          "name": "",
          "type": "address"
        }
      ],
      "name": "userContractOwners",
      "outputs": [
        {
          "name": "",
          "type": "address"
        }
      ],
      "payable": false,
      "stateMutability": "view",
      "type": "function"
    },
    {
      "constant": true,
      "inputs": [
        {
          "name": "",
          "type": "address"
        }
      ],
      "name": "UsersTotalViewPurchases",
      "outputs": [
        {
          "name": "",
          "type": "uint256"
        }
      ],
      "payable": false,
      "stateMutability": "view",
      "type": "function"
    },
    {
      "constant": true,
      "inputs": [
        {
          "name": "",
          "type": "address"
        }
      ],
      "name": "allUserNames",
      "outputs": [
        {
          "name": "",
          "type": "string"
        }
      ],
      "payable": false,
      "stateMutability": "view",
      "type": "function"
    },
    {
      "constant": true,
      "inputs": [],
      "name": "ccFactoryAddress",
      "outputs": [
        {
          "name": "",
          "type": "address"
        }
      ],
      "payable": false,
      "stateMutability": "view",
      "type": "function"
    },
    {
      "constant": true,
      "inputs": [],
      "name": "registryAddress",
      "outputs": [
        {
          "name": "",
          "type": "address"
        }
      ],
      "payable": false,
      "stateMutability": "view",
      "type": "function"
    },
    {
      "constant": true,
      "inputs": [
        {
          "name": "",
          "type": "address"
        }
      ],
      "name": "allUsers",
      "outputs": [
        {
          "name": "",
          "type": "uint256"
        }
      ],
      "payable": false,
      "stateMutability": "view",
      "type": "function"
    },
    {
      "inputs": [],
      "payable": false,
      "stateMutability": "nonpayable",
      "type": "constructor"
    },
    {
      "anonymous": false,
      "inputs": [
        {
          "indexed": false,
          "name": "emergency",
          "type": "bool"
        }
      ],
      "name": "LogEmergency",
      "type": "event"
    },
    {
      "anonymous": false,
      "inputs": [
        {
          "indexed": false,
          "name": "pause",
          "type": "bool"
        }
      ],
      "name": "LogPause",
      "type": "event"
    },
    {
      "anonymous": false,
      "inputs": [
        {
          "indexed": false,
          "name": "userFactoryAddress",
          "type": "address"
        },
        {
          "indexed": false,
          "name": "creatorFactoryAddress",
          "type": "address"
        },
        {
          "indexed": false,
          "name": "minterAddress",
          "type": "address"
        },
        {
          "indexed": false,
          "name": "register",
          "type": "address"
        }
      ],
      "name": "LogSetUp",
      "type": "event"
    },
    {
      "anonymous": false,
      "inputs": [
        {
          "indexed": false,
          "name": "account",
          "type": "address"
        },
        {
          "indexed": false,
          "name": "amount",
          "type": "uint256"
        }
      ],
      "name": "LogBoughtViewsUser",
      "type": "event"
    },
    {
      "anonymous": false,
      "inputs": [
        {
          "indexed": false,
          "name": "account",
          "type": "address"
        },
        {
          "indexed": false,
          "name": "amount",
          "type": "uint256"
        }
      ],
      "name": "LogSoldViewsUser",
      "type": "event"
    },
    {
      "anonymous": false,
      "inputs": [
        {
          "indexed": false,
          "name": "account",
          "type": "address"
        },
        {
          "indexed": false,
          "name": "amount",
          "type": "uint256"
        }
      ],
      "name": "LogModeriatorFund",
      "type": "event"
    },
    {
      "anonymous": false,
      "inputs": [
        {
          "indexed": false,
          "name": "owner",
          "type": "address"
        },
        {
          "indexed": false,
          "name": "userContract",
          "type": "address"
        },
        {
          "indexed": false,
          "name": "userName",
          "type": "string"
        }
      ],
      "name": "LogUserCreated",
      "type": "event"
    },
    {
      "anonymous": false,
      "inputs": [
        {
          "indexed": false,
          "name": "owner",
          "type": "address"
        },
        {
          "indexed": false,
          "name": "userContract",
          "type": "address"
        },
        {
          "indexed": false,
          "name": "userName",
          "type": "string"
        }
      ],
      "name": "LogUserDeleted",
      "type": "event"
    },
    {
      "anonymous": false,
      "inputs": [
        {
          "indexed": false,
          "name": "userCOwner",
          "type": "address"
        },
        {
          "indexed": false,
          "name": "creatorContract",
          "type": "address"
        }
      ],
      "name": "LogCreatorCreated",
      "type": "event"
    },
    {
      "anonymous": false,
      "inputs": [
        {
          "indexed": false,
          "name": "userContract",
          "type": "address"
        },
        {
          "indexed": false,
          "name": "creatorContract",
          "type": "address"
        }
      ],
      "name": "LogCreatorDeleted",
      "type": "event"
    },
    {
      "anonymous": false,
      "inputs": [
        {
          "indexed": false,
          "name": "position",
          "type": "uint256"
        },
        {
          "indexed": false,
          "name": "title",
          "type": "string"
        },
        {
          "indexed": false,
          "name": "creator",
          "type": "address"
        }
      ],
      "name": "LogContentCreated",
      "type": "event"
    },
    {
      "anonymous": false,
      "inputs": [
        {
          "indexed": false,
          "name": "userContract",
          "type": "address"
        }
      ],
      "name": "LogCheckingData",
      "type": "event"
    },
    {
      "anonymous": false,
      "inputs": [
        {
          "indexed": false,
          "name": "usedIn",
          "type": "string"
        },
        {
          "indexed": false,
          "name": "passed",
          "type": "bool"
        }
      ],
      "name": "LogIsUser",
      "type": "event"
    },
    {
      "constant": false,
      "inputs": [
        {
          "name": "_userFactoryAddress",
          "type": "address"
        },
        {
          "name": "_ccFactoryAddress",
          "type": "address"
        },
        {
          "name": "_minterAddress",
          "type": "address"
        },
        {
          "name": "_register",
          "type": "address"
        }
      ],
      "name": "setUpDataContracts",
      "outputs": [
        {
          "name": "",
          "type": "bool"
        }
      ],
      "payable": false,
      "stateMutability": "nonpayable",
      "type": "function"
    },
    {
      "constant": true,
      "inputs": [
        {
          "name": "_userAddress",
          "type": "address"
        }
      ],
      "name": "isCreator",
      "outputs": [
        {
          "name": "",
          "type": "bool"
        }
      ],
      "payable": false,
      "stateMutability": "view",
      "type": "function"
    },
    {
      "constant": true,
      "inputs": [
        {
          "name": "_addressToCheck",
          "type": "address"
        }
      ],
      "name": "isUser",
      "outputs": [
        {
          "name": "",
          "type": "bool"
        }
      ],
      "payable": false,
      "stateMutability": "view",
      "type": "function"
    },
    {
      "constant": true,
      "inputs": [],
      "name": "getUserFactory",
      "outputs": [
        {
          "name": "",
          "type": "address"
        }
      ],
      "payable": false,
      "stateMutability": "view",
      "type": "function"
    },
    {
      "constant": true,
      "inputs": [],
      "name": "getCCFactory",
      "outputs": [
        {
          "name": "",
          "type": "address"
        }
      ],
      "payable": false,
      "stateMutability": "view",
      "type": "function"
    },
    {
      "constant": true,
      "inputs": [],
      "name": "getMinter",
      "outputs": [
        {
          "name": "",
          "type": "address"
        }
      ],
      "payable": false,
      "stateMutability": "view",
      "type": "function"
    },
    {
      "constant": true,
      "inputs": [],
      "name": "getAllUserAddresses",
      "outputs": [
        {
          "name": "",
          "type": "address[]"
        }
      ],
      "payable": false,
      "stateMutability": "view",
      "type": "function"
    },
    {
      "constant": true,
      "inputs": [],
      "name": "getAllCreatorsAddresses",
      "outputs": [
        {
          "name": "",
          "type": "address[]"
        }
      ],
      "payable": false,
      "stateMutability": "view",
      "type": "function"
    },
    {
      "constant": true,
      "inputs": [],
      "name": "getAllUsersNames",
      "outputs": [
        {
          "name": "",
          "type": "string[]"
        }
      ],
      "payable": false,
      "stateMutability": "view",
      "type": "function"
    },
    {
      "constant": true,
      "inputs": [
        {
          "name": "_user",
          "type": "address"
        }
      ],
      "name": "getAUsersName",
      "outputs": [
        {
          "name": "",
          "type": "string"
        }
      ],
      "payable": false,
      "stateMutability": "view",
      "type": "function"
    },
    {
      "constant": true,
      "inputs": [
        {
          "name": "_userAddress",
          "type": "address"
        }
      ],
      "name": "getCreatorAddressFromUser",
      "outputs": [
        {
          "name": "",
          "type": "address"
        }
      ],
      "payable": false,
      "stateMutability": "view",
      "type": "function"
    },
    {
      "constant": true,
      "inputs": [
        {
          "name": "_contractAddress",
          "type": "address"
        }
      ],
      "name": "getAUsersOwnerData",
      "outputs": [
        {
          "name": "",
          "type": "address"
        }
      ],
      "payable": false,
      "stateMutability": "view",
      "type": "function"
    },
    {
      "constant": true,
      "inputs": [
        {
          "name": "_contractAddress",
          "type": "address"
        }
      ],
      "name": "getAUsersNameData",
      "outputs": [
        {
          "name": "",
          "type": "string"
        }
      ],
      "payable": false,
      "stateMutability": "view",
      "type": "function"
    },
    {
      "constant": false,
      "inputs": [
        {
          "name": "_user",
          "type": "address"
        },
        {
          "name": "_amount",
          "type": "uint256"
        }
      ],
      "name": "setTotalViewsDispenced",
      "outputs": [],
      "payable": false,
      "stateMutability": "nonpayable",
      "type": "function"
    },
    {
      "constant": false,
      "inputs": [
        {
          "name": "_ccc",
          "type": "address"
        },
        {
          "name": "_userContract",
          "type": "address"
        }
      ],
      "name": "moveAllFundsToUser",
      "outputs": [],
      "payable": false,
      "stateMutability": "nonpayable",
      "type": "function"
    },
    {
      "constant": false,
      "inputs": [
        {
          "name": "_emergencyState",
          "type": "bool"
        }
      ],
      "name": "setEmergency",
      "outputs": [
        {
          "name": "",
          "type": "bool"
        }
      ],
      "payable": false,
      "stateMutability": "nonpayable",
      "type": "function"
    },
    {
      "constant": false,
      "inputs": [
        {
          "name": "pauseState",
          "type": "bool"
        }
      ],
      "name": "setPause",
      "outputs": [
        {
          "name": "",
          "type": "bool"
        }
      ],
      "payable": false,
      "stateMutability": "nonpayable",
      "type": "function"
    },
    {
      "constant": false,
      "inputs": [
        {
          "name": "_newUserFactory",
          "type": "address"
        }
      ],
      "name": "registryUpdateUserFactory",
      "outputs": [],
      "payable": false,
      "stateMutability": "nonpayable",
      "type": "function"
    },
    {
      "constant": false,
      "inputs": [
        {
          "name": "_newCCFactory",
          "type": "address"
        }
      ],
      "name": "registryUpdateCCFactory",
      "outputs": [],
      "payable": false,
      "stateMutability": "nonpayable",
      "type": "function"
    },
    {
      "constant": false,
      "inputs": [
        {
          "name": "_newMinter",
          "type": "address"
        }
      ],
      "name": "registryUpdateMinter",
      "outputs": [],
      "payable": false,
      "stateMutability": "nonpayable",
      "type": "function"
    },
    {
      "constant": false,
      "inputs": [
        {
          "name": "_user",
          "type": "address"
        },
        {
          "name": "_userContract",
          "type": "address"
        },
        {
          "name": "_userName",
          "type": "string"
        }
      ],
      "name": "setNewUserData",
      "outputs": [],
      "payable": false,
      "stateMutability": "nonpayable",
      "type": "function"
    },
    {
      "constant": false,
      "inputs": [
        {
          "name": "_user",
          "type": "address"
        },
        {
          "name": "_userContract",
          "type": "address"
        },
        {
          "name": "_userName",
          "type": "string"
        }
      ],
      "name": "removeUserData",
      "outputs": [
        {
          "name": "",
          "type": "bool"
        }
      ],
      "payable": false,
      "stateMutability": "nonpayable",
      "type": "function"
    },
    {
      "constant": false,
      "inputs": [
        {
          "name": "_userContract",
          "type": "address"
        },
        {
          "name": "_creatorContract",
          "type": "address"
        }
      ],
      "name": "setNewCreatorData",
      "outputs": [
        {
          "name": "",
          "type": "bool"
        }
      ],
      "payable": false,
      "stateMutability": "nonpayable",
      "type": "function"
    },
    {
      "constant": false,
      "inputs": [
        {
          "name": "_userContract",
          "type": "address"
        },
        {
          "name": "_creatorContract",
          "type": "address"
        }
      ],
      "name": "removeCreatorData",
      "outputs": [
        {
          "name": "",
          "type": "bool"
        }
      ],
      "payable": false,
      "stateMutability": "nonpayable",
      "type": "function"
    },
    {
      "constant": false,
      "inputs": [
        {
          "name": "_userContract",
          "type": "address"
        },
        {
          "name": "_amount",
          "type": "uint256"
        }
      ],
      "name": "buyViewsSave",
      "outputs": [
        {
          "name": "",
          "type": "bool"
        }
      ],
      "payable": false,
      "stateMutability": "nonpayable",
      "type": "function"
    },
    {
      "constant": false,
      "inputs": [
        {
          "name": "_userContract",
          "type": "address"
        },
        {
          "name": "_amount",
          "type": "uint256"
        }
      ],
      "name": "sellViewsSave",
      "outputs": [
        {
          "name": "",
          "type": "bool"
        }
      ],
      "payable": false,
      "stateMutability": "nonpayable",
      "type": "function"
    },
    {
      "constant": false,
      "inputs": [
        {
          "name": "_user",
          "type": "address"
        },
        {
          "name": "_amount",
          "type": "uint256"
        }
      ],
      "name": "fromUserToCreator",
      "outputs": [
        {
          "name": "",
          "type": "bool"
        }
      ],
      "payable": false,
      "stateMutability": "nonpayable",
      "type": "function"
    },
    {
      "constant": false,
      "inputs": [
        {
          "name": "_user",
          "type": "address"
        },
        {
          "name": "_amount",
          "type": "uint256"
        }
      ],
      "name": "fromCreatorToUser",
      "outputs": [
        {
          "name": "",
          "type": "bool"
        }
      ],
      "payable": false,
      "stateMutability": "nonpayable",
      "type": "function"
    },
    {
      "constant": false,
      "inputs": [
        {
          "name": "viewUsedRecived",
          "type": "uint8"
        },
        {
          "name": "_contentOwner",
          "type": "address"
        },
        {
          "name": "_user",
          "type": "address"
        }
      ],
      "name": "storingLikes",
      "outputs": [],
      "payable": false,
      "stateMutability": "nonpayable",
      "type": "function"
    },
    {
      "constant": false,
      "inputs": [
        {
          "name": "_userContract",
          "type": "address"
        },
        {
          "name": "_contentCreatorContract",
          "type": "address"
        },
        {
          "name": "_addressIPFS",
          "type": "string"
        },
        {
          "name": "_title",
          "type": "string"
        },
        {
          "name": "_description",
          "type": "string"
        }
      ],
      "name": "createContent",
      "outputs": [],
      "payable": false,
      "stateMutability": "nonpayable",
      "type": "function"
    },
    {
      "constant": true,
      "inputs": [
        {
          "name": "_ccc",
          "type": "address"
        }
      ],
      "name": "getContent",
      "outputs": [
        {
          "name": "userContractAddress",
          "type": "address"
        },
        {
          "name": "cCCAddress",
          "type": "address"
        },
        {
          "name": "addressIPFS",
          "type": "string"
        },
        {
          "name": "title",
          "type": "string"
        },
        {
          "name": "description",
          "type": "string"
        },
        {
          "name": "views",
          "type": "uint256"
        }
      ],
      "payable": false,
      "stateMutability": "view",
      "type": "function"
    },
    {
      "constant": false,
      "inputs": [
        {
          "name": "_newRegister",
          "type": "address"
        }
      ],
      "name": "updateRegister",
      "outputs": [],
      "payable": false,
      "stateMutability": "nonpayable",
      "type": "function"
    }
  ],
  "bytecode": "0x60806040526016805461ffff19166101001762ff00001916620200001764ffff000000191664010000000017905534801561003957600080fd5b5060008054600160a060020a03191633179055614ef68061005b6000396000f30060806040526004361061024d5763ffffffff60e060020a600035041663040321f681146102525780630501d5561461028857806307d1b2fd146102b55780631418c311146102e757806316531415146103095780631ddf8358146103295780632a10ff26146103495780632c8694b61461036b5780632f3300231461038b57806334d722c9146103ad57806336bab95b146103c25780634209fff1146103d75780634604920f146103f7578063547e7afe146104175780635b48d7fb146104395780635c1e153c146104595780635ebe20321461047957806363a599a4146104a657806364015cc9146104bb5780636a480eb8146104db5780636db08bd7146104fb578063718581081461051b578063733380811461053b57806373adc5111461055b57806376fc2b6e14610570578063819ad027146105905780638456cb59146105b05780638da5cb5b146105c5578063aae87c24146105da578063b1781da3146105fa578063b30ab3491461061a578063b7acf7c31461063a578063b96275fb1461065a578063bba11cf71461067a578063bd76e4941461069a578063bedb86fb146106ba578063bf57df09146106da578063bfc16c50146104bb578063c0fed46f146106fa578063c38535371461071a578063ccaf95531461073a578063cd8c43b61461075a578063e0b969bd1461076f578063e1d5515514610784578063e2bf75d114610799578063e393c5aa146107b9578063ed9aab51146107d9578063edbece37146107ee578063ee38ae561461080e578063efd460651461082e578063f36675171461084e575b600080fd5b34801561025e57600080fd5b5061027261026d3660046147ee565b610863565b60405161027f9190614b7b565b60405180910390f35b34801561029457600080fd5b506102a86102a336600461476f565b61088b565b60405161027f9190614cd6565b3480156102c157600080fd5b506102d56102d03660046147ee565b610947565b60405161027f96959493929190614c0f565b3480156102f357600080fd5b506102fc610b39565b60405161027f9190614d95565b34801561031557600080fd5b506102a86103243660046145bc565b610b3f565b34801561033557600080fd5b506102a861034436600461473f565b610c48565b34801561035557600080fd5b50610369610364366004614682565b611052565b005b34801561037757600080fd5b50610272610386366004614546565b6115ea565b34801561039757600080fd5b506103a0611605565b60405161027f9190614cb4565b3480156103b957600080fd5b50610272611668565b3480156103ce57600080fd5b50610272611677565b3480156103e357600080fd5b506102a86103f2366004614546565b611686565b34801561040357600080fd5b506102a861041236600461473f565b6116b8565b34801561042357600080fd5b5061042c6119ba565b60405161027f9190614cc5565b34801561044557600080fd5b506103696104543660046147ab565b611a92565b34801561046557600080fd5b50610369610474366004614582565b611f0c565b34801561048557600080fd5b506104996104943660046147ee565b61223e565b60405161027f9190614ce4565b3480156104b257600080fd5b506102a86122e5565b3480156104c757600080fd5b506104996104d6366004614546565b6122f5565b3480156104e757600080fd5b506102d56104f636600461473f565b6123a0565b34801561050757600080fd5b506102a861051636600461473f565b612447565b34801561052757600080fd5b506102fc610536366004614546565b612839565b34801561054757600080fd5b506102726105563660046147ee565b61284b565b34801561056757600080fd5b50610272612859565b34801561057c57600080fd5b5061036961058b366004614546565b6128eb565b34801561059c57600080fd5b506102a86105ab36600461461d565b612968565b3480156105bc57600080fd5b506102a8612bbb565b3480156105d157600080fd5b50610272612bcc565b3480156105e657600080fd5b506102a86105f5366004614582565b612bdb565b34801561060657600080fd5b50610272610615366004614546565b612e4e565b34801561062657600080fd5b506102d5610635366004614546565b612e69565b34801561064657600080fd5b50610272610655366004614546565b613183565b34801561066657600080fd5b50610272610675366004614546565b6131ca565b34801561068657600080fd5b5061036961069536600461473f565b613211565b3480156106a657600080fd5b506102fc6106b5366004614546565b61335a565b3480156106c657600080fd5b506102a86106d536600461476f565b61336c565b3480156106e657600080fd5b506102a86106f536600461473f565b6133ee565b34801561070657600080fd5b50610499610715366004614546565b6136c2565b34801561072657600080fd5b50610369610735366004614546565b61372a565b34801561074657600080fd5b5061036961075536600461461d565b6137b1565b34801561076657600080fd5b50610272613c13565b34801561077b57600080fd5b506103a0613c22565b34801561079057600080fd5b50610272613c82565b3480156107a557600080fd5b506102a86107b4366004614582565b613cd7565b3480156107c557600080fd5b506103696107d4366004614546565b613e11565b3480156107e557600080fd5b50610272613e98565b3480156107fa57600080fd5b506102fc610809366004614546565b613ea7565b34801561081a57600080fd5b50610369610829366004614546565b613eb9565b34801561083a57600080fd5b506102a8610849366004614546565b613f40565b34801561085a57600080fd5b50610272613f6a565b601080548290811061087157fe5b600091825260209091200154600160a060020a0316905081565b60008054600160a060020a031633146108c25760405160e560020a62461bcd0281526004016108b990614d45565b60405180910390fd5b601654640100000000900460ff16156108f05760405160e560020a62461bcd0281526004016108b990614d15565b7f413e6d22f012c3337757e66546d28828d7000e061a40d2492c34741e2c62d9888260405161091f9190614cd6565b60405180910390a1506016805463ff000000191663010000008315150217905560015b919050565b601380548290811061095557fe5b600091825260209182902060069091020180546001808301546002808501805460408051601f60001997841615610100029790970190921693909304948501889004880281018801909252838252600160a060020a0394851697509190931694909190830182828015610a095780601f106109de57610100808354040283529160200191610a09565b820191906000526020600020905b8154815290600101906020018083116109ec57829003601f168201915b5050505060038301805460408051602060026001851615610100026000190190941693909304601f8101849004840282018401909252818152949594935090830182828015610a995780601f10610a6e57610100808354040283529160200191610a99565b820191906000526020600020905b815481529060010190602001808311610a7c57829003601f168201915b5050505060048301805460408051602060026001851615610100026000190190941693909304601f8101849004840282018401909252818152949594935090830182828015610b295780601f10610afe57610100808354040283529160200191610b29565b820191906000526020600020905b815481529060010190602001808311610b0c57829003601f168201915b5050505050908060050154905086565b60125481565b60008054600160a060020a03163314610b6d5760405160e560020a62461bcd0281526004016108b990614d45565b6016546301000000900460ff1615610b8457600080fd5b60028054600160a060020a0319908116600160a060020a0387811691821790935560068054831690911790556001805482168884169081179091556005805483169091179055600380548216868416908117909155600780548316909117905560048054909116918416919091179055610bfe600061336c565b507fd6c831f26f396f47a3d6dae9057e42c399d6487e0174d1ab18f78f7b889f929385858585604051610c349493929190614ba4565b60405180910390a15060015b949350505050565b60048054604080517ff366751700000000000000000000000000000000000000000000000000000000815290516000938593600160a060020a03169263f3667517928183019260209282900301818887803b158015610ca657600080fd5b505af1158015610cba573d6000803e3d6000fd5b505050506040513d601f19601f82011682018060405250610cde9190810190614564565b600160a060020a03163314610d085760405160e560020a62461bcd0281526004016108b990614d55565b60008111610d2b5760405160e560020a62461bcd0281526004016108b990614d85565b8360008060008084935083600160a060020a0316637e5852d96040518163ffffffff1660e060020a028152600401602060405180830381600087803b158015610d7357600080fd5b505af1158015610d87573d6000803e3d6000fd5b505050506040513d601f19601f82011682018060405250610dab919081019061478d565b92508215610dce5760405160e560020a62461bcd0281526004016108b990614d75565b60405160e060020a63efd46065028152309063efd4606590610df4908890600401614b7b565b602060405180830381600087803b158015610e0e57600080fd5b505af1158015610e22573d6000803e3d6000fd5b505050506040513d601f19601f82011682018060405250610e46919081019061478d565b15610f5e5760405160e060020a63b7acf7c3028152309063b7acf7c390610e71908890600401614b7b565b602060405180830381600087803b158015610e8b57600080fd5b505af1158015610e9f573d6000803e3d6000fd5b505050506040513d601f19601f82011682018060405250610ec39190810190614564565b915081600160a060020a0316637e5852d96040518163ffffffff1660e060020a028152600401602060405180830381600087803b158015610f0357600080fd5b505af1158015610f17573d6000803e3d6000fd5b505050506040513d601f19601f82011682018060405250610f3b919081019061478d565b90508015610f5e5760405160e560020a62461bcd0281526004016108b990614d75565b6016546301000000900460ff1615610f7557600080fd5b601654640100000000900460ff1615610fa35760405160e560020a62461bcd0281526004016108b990614d15565b610fac89613fbf565b610fb589613f40565b1515610fc057600080fd5b87600b6000610fce8c613183565b600160a060020a0316815260208101919091526040016000205411610ff257600080fd5b87600b60006110008c613183565b600160a060020a039081168252602080830193909352604091820160009081208054959095039094558c16835260099091529020805489019055611043896141b7565b50600198975050505050505050565b8460008060008084935083600160a060020a0316637e5852d96040518163ffffffff1660e060020a028152600401602060405180830381600087803b15801561109a57600080fd5b505af11580156110ae573d6000803e3d6000fd5b505050506040513d601f19601f820116820180604052506110d2919081019061478d565b925082156110f55760405160e560020a62461bcd0281526004016108b990614d75565b60405160e060020a63efd46065028152309063efd460659061111b908890600401614b7b565b602060405180830381600087803b15801561113557600080fd5b505af1158015611149573d6000803e3d6000fd5b505050506040513d601f19601f8201168201806040525061116d919081019061478d565b156112855760405160e060020a63b7acf7c3028152309063b7acf7c390611198908890600401614b7b565b602060405180830381600087803b1580156111b257600080fd5b505af11580156111c6573d6000803e3d6000fd5b505050506040513d601f19601f820116820180604052506111ea9190810190614564565b915081600160a060020a0316637e5852d96040518163ffffffff1660e060020a028152600401602060405180830381600087803b15801561122a57600080fd5b505af115801561123e573d6000803e3d6000fd5b505050506040513d601f19601f82011682018060405250611262919081019061478d565b905080156112855760405160e560020a62461bcd0281526004016108b990614d75565b6016546301000000900460ff161561129c57600080fd5b601654640100000000900460ff16156112ca5760405160e560020a62461bcd0281526004016108b990614d15565b6112d38a613fbf565b600160a060020a0389166000908152600b60205260409020805460041901905560128054600590810190915561130a908a90614377565b50601460008a600160a060020a0316600160a060020a0316815260200190815260200160002060c0604051908101604052808c600160a060020a031681526020018b600160a060020a031681526020018a815260200189815260200188815260200160008152509080600181540180825580915050906001820390600052602060002090600602016000909192909190915060008201518160000160006101000a815481600160a060020a030219169083600160a060020a0316021790555060208201518160010160006101000a815481600160a060020a030219169083600160a060020a0316021790555060408201518160020190805190602001906114129291906143cd565b506060820151805161142e9160038401916020909101906143cd565b506080820151805161144a9160048401916020909101906143cd565b5060a0918201516005909101556040805160c081018252600160a060020a03808f1682528d811660208084019182529383018e8152606084018e9052608084018d90526000958401869052601380546001810180835591909752845160069097027f66de8ffda797e3de9c05e8fc57b3bf0ec28a930d40b0d285d93c06501cf6a09081018054988616600160a060020a0319998a1617815593517f66de8ffda797e3de9c05e8fc57b3bf0ec28a930d40b0d285d93c06501cf6a091820180549190961698169790971790935551805192965092949093611551937f66de8ffda797e3de9c05e8fc57b3bf0ec28a930d40b0d285d93c06501cf6a092909201929101906143cd565b506060820151805161156d9160038401916020909101906143cd565b50608082015180516115899160048401916020909101906143cd565b5060a09190910151600590910155506013546040517f1265282869251121edf11374a7f7d04b956dfd0ab45255cf5a1c08cfa527012b916115cd918a908d90614da3565b60405180910390a16115de8a6141b7565b50505050505050505050565b600e60205260009081526040902054600160a060020a031681565b6060600f80548060200260200160405190810160405280929190818152602001828054801561165d57602002820191906000526020600020905b8154600160a060020a0316815260019091019060200180831161163f575b505050505090505b90565b600754600160a060020a031681565b600554600160a060020a031681565b600160a060020a038082166000908152600d6020526040812054909116156116b057506001610942565b506000919050565b60008260008060008084935083600160a060020a0316637e5852d96040518163ffffffff1660e060020a028152600401602060405180830381600087803b15801561170257600080fd5b505af1158015611716573d6000803e3d6000fd5b505050506040513d601f19601f8201168201806040525061173a919081019061478d565b9250821561175d5760405160e560020a62461bcd0281526004016108b990614d75565b60405160e060020a63efd46065028152309063efd4606590611783908890600401614b7b565b602060405180830381600087803b15801561179d57600080fd5b505af11580156117b1573d6000803e3d6000fd5b505050506040513d601f19601f820116820180604052506117d5919081019061478d565b156118ed5760405160e060020a63b7acf7c3028152309063b7acf7c390611800908890600401614b7b565b602060405180830381600087803b15801561181a57600080fd5b505af115801561182e573d6000803e3d6000fd5b505050506040513d601f19601f820116820180604052506118529190810190614564565b915081600160a060020a0316637e5852d96040518163ffffffff1660e060020a028152600401602060405180830381600087803b15801561189257600080fd5b505af11580156118a6573d6000803e3d6000fd5b505050506040513d601f19601f820116820180604052506118ca919081019061478d565b905080156118ed5760405160e560020a62461bcd0281526004016108b990614d75565b6016546301000000900460ff161561190457600080fd5b601654640100000000900460ff16156119325760405160e560020a62461bcd0281526004016108b990614d15565b61193b88613fbf565b600160a060020a03881660009081526009602052604090208054880160041990810190915561196d9089908901613211565b611978886005614377565b50600080516020614e9d833981519152886005890360405161199b929190614c99565b60405180910390a16119ac886141b7565b506001979650505050505050565b60606011805480602002602001604051908101604052809291908181526020016000905b82821015611a895760008481526020908190208301805460408051601f6002600019610100600187161502019094169390930492830185900485028101850190915281815292830182828015611a755780601f10611a4a57610100808354040283529160200191611a75565b820191906000526020600020905b815481529060010190602001808311611a5857829003601f168201915b5050505050815260200190600101906119de565b50505050905090565b8060008060008084935083600160a060020a0316637e5852d96040518163ffffffff1660e060020a028152600401602060405180830381600087803b158015611ada57600080fd5b505af1158015611aee573d6000803e3d6000fd5b505050506040513d601f19601f82011682018060405250611b12919081019061478d565b92508215611b355760405160e560020a62461bcd0281526004016108b990614d75565b60405160e060020a63efd46065028152309063efd4606590611b5b908890600401614b7b565b602060405180830381600087803b158015611b7557600080fd5b505af1158015611b89573d6000803e3d6000fd5b505050506040513d601f19601f82011682018060405250611bad919081019061478d565b15611cc55760405160e060020a63b7acf7c3028152309063b7acf7c390611bd8908890600401614b7b565b602060405180830381600087803b158015611bf257600080fd5b505af1158015611c06573d6000803e3d6000fd5b505050506040513d601f19601f82011682018060405250611c2a9190810190614564565b915081600160a060020a0316637e5852d96040518163ffffffff1660e060020a028152600401602060405180830381600087803b158015611c6a57600080fd5b505af1158015611c7e573d6000803e3d6000fd5b505050506040513d601f19601f82011682018060405250611ca2919081019061478d565b90508015611cc55760405160e560020a62461bcd0281526004016108b990614d75565b6016546301000000900460ff1615611cdc57600080fd5b601654640100000000900460ff1615611d0a5760405160e560020a62461bcd0281526004016108b990614d15565b611d1386613fbf565b6000886002811115611d2157fe5b1415611dad57600160a060020a038616600090815260096020526040902054600510611d4c57600080fd5b600160a060020a0380871660009081526009602090815260408083208054600419019055928a168252600b9052819020805460059081019091559051600080516020614e9d83398151915291611da491899190614c7e565b60405180910390a15b6001886002811115611dbb57fe5b1415611e5357600160a060020a038616600090815260096020526040902054600f10611de657600080fd5b600160a060020a0380871660009081526009602090815260408083208054600e19019055928a168252600b9052208054600f908101909155611e29908790614377565b50600080516020614e9d83398151915286600f604051611e4a929190614c7e565b60405180910390a15b6002886002811115611e6157fe5b1415611ef957600160a060020a038616600090815260096020526040902054601910611e8c57600080fd5b600160a060020a0380871660009081526009602090815260408083208054601819019055928a168252600b90522080546019908101909155611ecf908790614377565b50600080516020614e9d833981519152866019604051611ef0929190614c7e565b60405180910390a15b611f02866141b7565b5050505050505050565b6000600460009054906101000a9004600160a060020a0316600160a060020a0316633c093d5a6040518163ffffffff1660e060020a028152600401602060405180830381600087803b158015611f6157600080fd5b505af1158015611f75573d6000803e3d6000fd5b505050506040513d601f19601f82011682018060405250611f999190810190614564565b600160a060020a03163314611fc35760405160e560020a62461bcd0281526004016108b990614cf5565b8160008060008084935083600160a060020a0316637e5852d96040518163ffffffff1660e060020a028152600401602060405180830381600087803b15801561200b57600080fd5b505af115801561201f573d6000803e3d6000fd5b505050506040513d601f19601f82011682018060405250612043919081019061478d565b925082156120665760405160e560020a62461bcd0281526004016108b990614d75565b60405160e060020a63efd46065028152309063efd460659061208c908890600401614b7b565b602060405180830381600087803b1580156120a657600080fd5b505af11580156120ba573d6000803e3d6000fd5b505050506040513d601f19601f820116820180604052506120de919081019061478d565b156121f65760405160e060020a63b7acf7c3028152309063b7acf7c390612109908890600401614b7b565b602060405180830381600087803b15801561212357600080fd5b505af1158015612137573d6000803e3d6000fd5b505050506040513d601f19601f8201168201806040525061215b9190810190614564565b915081600160a060020a0316637e5852d96040518163ffffffff1660e060020a028152600401602060405180830381600087803b15801561219b57600080fd5b505af11580156121af573d6000803e3d6000fd5b505050506040513d601f19601f820116820180604052506121d3919081019061478d565b905080156121f65760405160e560020a62461bcd0281526004016108b990614d75565b6121ff87613fbf565b600160a060020a038089166000908152600b60209081526040808320805490849055938b168352600990915290208054820190559550611f02876141b7565b601180548290811061224c57fe5b600091825260209182902001805460408051601f60026000196101006001871615020190941693909304928301859004850281018501909152818152935090918301828280156122dd5780601f106122b2576101008083540402835291602001916122dd565b820191906000526020600020905b8154815290600101906020018083116122c057829003601f168201915b505050505081565b6016546301000000900460ff1681565b600160a060020a0381166000908152600c602090815260409182902080548351601f60026000196101006001861615020190931692909204918201849004840281018401909452808452606093928301828280156123945780601f1061236957610100808354040283529160200191612394565b820191906000526020600020905b81548152906001019060200180831161237757829003601f168201915b50505050509050919050565b6014602052816000526040600020818154811015156123bb57fe5b600091825260209182902060069091020180546001808301546002808501805460408051601f60001997841615610100029790970190921693909304948501889004880281018801909252838252600160a060020a0394851698509190931695509293919291830182828015610a095780601f106109de57610100808354040283529160200191610a09565b60048054604080517ff366751700000000000000000000000000000000000000000000000000000000815290516000938593600160a060020a03169263f3667517928183019260209282900301818887803b1580156124a557600080fd5b505af11580156124b9573d6000803e3d6000fd5b505050506040513d601f19601f820116820180604052506124dd9190810190614564565b600160a060020a031633146125075760405160e560020a62461bcd0281526004016108b990614d55565b6000811161252a5760405160e560020a62461bcd0281526004016108b990614d85565b8360008060008084935083600160a060020a0316637e5852d96040518163ffffffff1660e060020a028152600401602060405180830381600087803b15801561257257600080fd5b505af1158015612586573d6000803e3d6000fd5b505050506040513d601f19601f820116820180604052506125aa919081019061478d565b925082156125cd5760405160e560020a62461bcd0281526004016108b990614d75565b60405160e060020a63efd46065028152309063efd46065906125f3908890600401614b7b565b602060405180830381600087803b15801561260d57600080fd5b505af1158015612621573d6000803e3d6000fd5b505050506040513d601f19601f82011682018060405250612645919081019061478d565b1561275d5760405160e060020a63b7acf7c3028152309063b7acf7c390612670908890600401614b7b565b602060405180830381600087803b15801561268a57600080fd5b505af115801561269e573d6000803e3d6000fd5b505050506040513d601f19601f820116820180604052506126c29190810190614564565b915081600160a060020a0316637e5852d96040518163ffffffff1660e060020a028152600401602060405180830381600087803b15801561270257600080fd5b505af1158015612716573d6000803e3d6000fd5b505050506040513d601f19601f8201168201806040525061273a919081019061478d565b9050801561275d5760405160e560020a62461bcd0281526004016108b990614d75565b6016546301000000900460ff161561277457600080fd5b601654640100000000900460ff16156127a25760405160e560020a62461bcd0281526004016108b990614d15565b6127ab89613fbf565b6127b489613f40565b15156127bf57600080fd5b600160a060020a03891660009081526009602052604090205488106127e357600080fd5b600160a060020a038916600090815260096020526040812080548a900390558890600b906128108c613183565b600160a060020a03168152602081019190915260400160002080549091019055611043896141b7565b600b6020526000908152604090205481565b600f80548290811061087157fe5b6000600460009054906101000a9004600160a060020a0316600160a060020a0316633c093d5a6040518163ffffffff1660e060020a028152600401602060405180830381600087803b1580156128ae57600080fd5b505af11580156128c2573d6000803e3d6000fd5b505050506040513d601f19601f820116820180604052506128e69190810190614564565b905090565b600854600160a060020a031633146129185760405160e560020a62461bcd0281526004016108b990614d05565b601654640100000000900460ff16156129465760405160e560020a62461bcd0281526004016108b990614d15565b60048054600160a060020a031916600160a060020a0392909216919091179055565b60048054604080517fe1d5515500000000000000000000000000000000000000000000000000000000815290516000938493600160a060020a03169263e1d55155928183019260209282900301818787803b1580156129c657600080fd5b505af11580156129da573d6000803e3d6000fd5b505050506040513d601f19601f820116820180604052506129fe9190810190614564565b600160a060020a03163314612a285760405160e560020a62461bcd0281526004016108b990614d35565b600160a060020a038416600090815260096020526040902054849015612a635760405160e560020a62461bcd0281526004016108b990614d25565b6016546301000000900460ff1615612a7a57600080fd5b601654640100000000900460ff1615612aa85760405160e560020a62461bcd0281526004016108b990614d15565b600160a060020a0385166000908152600960209081526040808320839055600c9091528120612ad69161444b565b600160a060020a0385166000908152600d602052604081208054600160a060020a031916905591505b600f54821015612b745784600160a060020a0316600f83815481101515612b2257fe5b600091825260209091200154600160a060020a03161415612b6957600f805483908110612b4b57fe5b60009182526020909120018054600160a060020a0319169055612b74565b600190910190612aff565b7f534fe867fcd18d9d6f5f22aa672ea934f7f45cb109b283f70f4de5d2bbc71f07868686604051612ba793929190614be2565b60405180910390a150600195945050505050565b601654640100000000900460ff1681565b600054600160a060020a031681565b60048054604080517f3c093d5a00000000000000000000000000000000000000000000000000000000815290516000938493600160a060020a031692633c093d5a928183019260209282900301818787803b158015612c3957600080fd5b505af1158015612c4d573d6000803e3d6000fd5b505050506040513d601f19601f82011682018060405250612c719190810190614564565b600160a060020a03163314612c9b5760405160e560020a62461bcd0281526004016108b990614cf5565b600160a060020a0383166000908152600b6020526040902054839015612cd65760405160e560020a62461bcd0281526004016108b990614d65565b600160a060020a038516600090815260096020526040902054859015612d115760405160e560020a62461bcd0281526004016108b990614d25565b6016546301000000900460ff1615612d2857600080fd5b601654640100000000900460ff1615612d565760405160e560020a62461bcd0281526004016108b990614d15565b600160a060020a038086166000908152600b602090815260408083208390559289168252600e90529081208054600160a060020a031916905592505b601054831015612e075784600160a060020a0316601084815481101515612db557fe5b600091825260209091200154600160a060020a03161415612dfc576010805484908110612dde57fe5b60009182526020909120018054600160a060020a0319169055612e07565b600190920191612d92565b7f5979f2d5c2a55039e0944909f57404087e16171fa44b3e32147bde6f48bfe1d18686604051612e38929190614b89565b60405180910390a1600193505b50505092915050565b600d60205260009081526040902054600160a060020a031681565b600160a060020a03811660009081526014602052604081208054829160609182918291859160001982019182908110612e9e57fe5b60009182526020808320600690920290910154600160a060020a038b8116845260149092526040909220805491909216985082908110612eda57fe5b6000918252602080832060016006909302019190910154600160a060020a038b8116845260149092526040909220805491909216975082908110612f1a57fe5b600091825260209182902060026006909202018101805460408051601f600019610100600186161502019093169490940491820185900485028401850190528083529192909190830182828015612fb25780601f10612f8757610100808354040283529160200191612fb2565b820191906000526020600020905b815481529060010190602001808311612f9557829003601f168201915b50505050600160a060020a038a1660009081526014602052604090208054929750918391508110612fdf57fe5b6000918252602091829020600360069092020101805460408051601f60026000196101006001871615020190941693909304928301859004850281018501909152818152928301828280156130755780601f1061304a57610100808354040283529160200191613075565b820191906000526020600020905b81548152906001019060200180831161305857829003601f168201915b50505050600160a060020a038a16600090815260146020526040902080549296509183915081106130a257fe5b6000918252602091829020600460069092020101805460408051601f60026000196101006001871615020190941693909304928301859004850281018501909152818152928301828280156131385780601f1061310d57610100808354040283529160200191613138565b820191906000526020600020905b81548152906001019060200180831161311b57829003601f168201915b50505050600160a060020a038a166000908152601460205260409020805492955091839150811061316557fe5b90600052602060002090600602016005015491505091939550919395565b600160a060020a038082166000908152600e602052604081205490911615156131ab57600080fd5b50600160a060020a039081166000908152600e60205260409020541690565b600160a060020a038082166000908152600d602052604081205490911615156131f257600080fd5b50600160a060020a039081166000908152600d60205260409020541690565b80600460009054906101000a9004600160a060020a0316600160a060020a031663f36675176040518163ffffffff1660e060020a028152600401602060405180830381600087803b15801561326557600080fd5b505af1158015613279573d6000803e3d6000fd5b505050506040513d601f19601f8201168201806040525061329d9190810190614564565b600160a060020a031633146132c75760405160e560020a62461bcd0281526004016108b990614d55565b600081116132ea5760405160e560020a62461bcd0281526004016108b990614d85565b6016546301000000900460ff161561330157600080fd5b601654640100000000900460ff161561332f5760405160e560020a62461bcd0281526004016108b990614d15565b50600160a060020a039091166000908152600a60205260409020805482019055601580549091019055565b600a6020526000908152604090205481565b60008054600160a060020a0316331461339a5760405160e560020a62461bcd0281526004016108b990614d45565b7fdd7221e8fae38eadd917726db6aa1477e63320aea2609f225f90fe8bb2ff6010826040516133c99190614cd6565b60405180910390a1506016805464ff0000000019166401000000008315150217905590565b60008260008060008084935083600160a060020a0316637e5852d96040518163ffffffff1660e060020a028152600401602060405180830381600087803b15801561343857600080fd5b505af115801561344c573d6000803e3d6000fd5b505050506040513d601f19601f82011682018060405250613470919081019061478d565b925082156134935760405160e560020a62461bcd0281526004016108b990614d75565b60405160e060020a63efd46065028152309063efd46065906134b9908890600401614b7b565b602060405180830381600087803b1580156134d357600080fd5b505af11580156134e7573d6000803e3d6000fd5b505050506040513d601f19601f8201168201806040525061350b919081019061478d565b156136235760405160e060020a63b7acf7c3028152309063b7acf7c390613536908890600401614b7b565b602060405180830381600087803b15801561355057600080fd5b505af1158015613564573d6000803e3d6000fd5b505050506040513d601f19601f820116820180604052506135889190810190614564565b915081600160a060020a0316637e5852d96040518163ffffffff1660e060020a028152600401602060405180830381600087803b1580156135c857600080fd5b505af11580156135dc573d6000803e3d6000fd5b505050506040513d601f19601f82011682018060405250613600919081019061478d565b905080156136235760405160e560020a62461bcd0281526004016108b990614d75565b6016546301000000900460ff161561363a57600080fd5b601654640100000000900460ff16156136685760405160e560020a62461bcd0281526004016108b990614d15565b61367188613fbf565b600160a060020a0388166000908152600960205260409081902080548990039055517fd5d3187f4ee69cdab201eb2d01d5e0979950c476211c91e5370cabbb5c34692d9061199b908a908a90614c99565b600c6020908152600091825260409182902080548351601f6002600019610100600186161502019093169290920491820184900484028101840190945280845290918301828280156122dd5780601f106122b2576101008083540402835291602001916122dd565b600854600160a060020a031633146137575760405160e560020a62461bcd0281526004016108b990614d05565b601654640100000000900460ff16156137855760405160e560020a62461bcd0281526004016108b990614d15565b60018054600160a060020a03909216600160a060020a0319928316811790915560058054909216179055565b60048054604080517fe1d551550000000000000000000000000000000000000000000000000000000081529051600160a060020a039092169263e1d551559282820192602092908290030181600087803b15801561380e57600080fd5b505af1158015613822573d6000803e3d6000fd5b505050506040513d601f19601f820116820180604052506138469190810190614564565b600160a060020a031633146138705760405160e560020a62461bcd0281526004016108b990614d35565b8160008060008084935083600160a060020a0316637e5852d96040518163ffffffff1660e060020a028152600401602060405180830381600087803b1580156138b857600080fd5b505af11580156138cc573d6000803e3d6000fd5b505050506040513d601f19601f820116820180604052506138f0919081019061478d565b925082156139135760405160e560020a62461bcd0281526004016108b990614d75565b60405160e060020a63efd46065028152309063efd4606590613939908890600401614b7b565b602060405180830381600087803b15801561395357600080fd5b505af1158015613967573d6000803e3d6000fd5b505050506040513d601f19601f8201168201806040525061398b919081019061478d565b15613aa35760405160e060020a63b7acf7c3028152309063b7acf7c3906139b6908890600401614b7b565b602060405180830381600087803b1580156139d057600080fd5b505af11580156139e4573d6000803e3d6000fd5b505050506040513d601f19601f82011682018060405250613a089190810190614564565b915081600160a060020a0316637e5852d96040518163ffffffff1660e060020a028152600401602060405180830381600087803b158015613a4857600080fd5b505af1158015613a5c573d6000803e3d6000fd5b505050506040513d601f19601f82011682018060405250613a80919081019061478d565b90508015613aa35760405160e560020a62461bcd0281526004016108b990614d75565b6016546301000000900460ff1615613aba57600080fd5b601654640100000000900460ff1615613ae85760405160e560020a62461bcd0281526004016108b990614d15565b613af187613fbf565b600160a060020a0387166000908152600960209081526040808320839055600c82529091208751613b24928901906143cd565b50600160a060020a038088166000818152600d6020908152604082208054948d16600160a060020a0319958616179055600f805460018181019092557f8d1108e10bcb7c27dddfc02ed9d693a074039d026cf4ea4240b40f7d581ac80201805490951690931790935560118054928301808255915288519092613bcd927f31ecc21a745e3968a04e9570e4425bc18fa8019c68028196b546d1669c200c680191908a01906143cd565b50507fce57b5f9720fa3562dd0b9eaf95894975c0b100ea8e3aa40a353228a7c1063e3888888604051613c0293929190614be2565b60405180910390a1611f02876141b7565b600654600160a060020a031681565b6060601080548060200260200160405190810160405280929190818152602001828054801561165d57602002820191906000526020600020908154600160a060020a0316815260019091019060200180831161163f575050505050905090565b6000600460009054906101000a9004600160a060020a0316600160a060020a031663e1d551556040518163ffffffff1660e060020a028152600401602060405180830381600087803b1580156128ae57600080fd5b6016546000906301000000900460ff1615613cf157600080fd5b601654640100000000900460ff1615613d1f5760405160e560020a62461bcd0281526004016108b990614d15565b600160a060020a03831660009081526009602052604090208054600419019055601280546005908101909155613d56908490614377565b50600160a060020a038083166000818152600b602090815260408083208390559387168252600e90528281208054600160a060020a031990811684179091556010805460018101825592527f1b6847dc741a1b0cd08d278845f9d819d87b734759afb55fe2de5cb82a9ae67290910180549091169091179055517f719114bb62dcf2ce1ce925182885f459c01951965d9a783e3de78bf19143850f90613dff9085908590614b89565b60405180910390a15060015b92915050565b600854600160a060020a03163314613e3e5760405160e560020a62461bcd0281526004016108b990614d05565b601654640100000000900460ff1615613e6c5760405160e560020a62461bcd0281526004016108b990614d15565b60028054600160a060020a03909216600160a060020a0319928316811790915560068054909216179055565b600854600160a060020a031681565b60096020526000908152604090205481565b600854600160a060020a03163314613ee65760405160e560020a62461bcd0281526004016108b990614d05565b601654640100000000900460ff1615613f145760405160e560020a62461bcd0281526004016108b990614d15565b60038054600160a060020a03909216600160a060020a0319928316811790915560078054909216179055565b600160a060020a038082166000908152600e6020526040812054909116156116b057506001610942565b6000600460009054906101000a9004600160a060020a0316600160a060020a031663f36675176040518163ffffffff1660e060020a028152600401602060405180830381600087803b1580156128ae57600080fd5b6016546000908190640100000000900460ff1615613ff25760405160e560020a62461bcd0281526004016108b990614d15565b60405160e260020a6318675465028152839250600160a060020a0383169063619d51949061402590600190600401614cd6565b600060405180830381600087803b15801561403f57600080fd5b505af1158015614053573d6000803e3d6000fd5b505060405160e060020a63efd4606502815230925063efd46065915061407d908690600401614b7b565b602060405180830381600087803b15801561409757600080fd5b505af11580156140ab573d6000803e3d6000fd5b505050506040513d601f19601f820116820180604052506140cf919081019061478d565b156141b25760405160e060020a63b7acf7c3028152309063b7acf7c3906140fa908690600401614b7b565b602060405180830381600087803b15801561411457600080fd5b505af1158015614128573d6000803e3d6000fd5b505050506040513d601f19601f8201168201806040525061414c9190810190614564565b60405160e260020a6318675465028152909150600160a060020a0382169063619d51949061417f90600190600401614cd6565b600060405180830381600087803b15801561419957600080fd5b505af11580156141ad573d6000803e3d6000fd5b505050505b505050565b6016546000908190640100000000900460ff16156141ea5760405160e560020a62461bcd0281526004016108b990614d15565b60405160e260020a6318675465028152839250600160a060020a0383169063619d51949061421d90600090600401614cd6565b600060405180830381600087803b15801561423757600080fd5b505af115801561424b573d6000803e3d6000fd5b505060405160e060020a63efd4606502815230925063efd460659150614275908690600401614b7b565b602060405180830381600087803b15801561428f57600080fd5b505af11580156142a3573d6000803e3d6000fd5b505050506040513d601f19601f820116820180604052506142c7919081019061478d565b156141b25760405160e060020a63b7acf7c3028152309063b7acf7c3906142f2908690600401614b7b565b602060405180830381600087803b15801561430c57600080fd5b505af1158015614320573d6000803e3d6000fd5b505050506040513d601f19601f820116820180604052506143449190810190614564565b60405160e260020a6318675465028152909150600160a060020a0382169063619d51949061417f90600090600401614cd6565b600080821161438557600080fd5b60128054830190556040517f353e5eeb76213a2ec8cc1db1fa84a2782f6129abcdee0e4c2238cb99fa835889906143bf9085908590614c99565b60405180910390a192915050565b828054600181600116156101000203166002900490600052602060002090601f016020900481019282601f1061440e57805160ff191683800117855561443b565b8280016001018555821561443b579182015b8281111561443b578251825591602001919060010190614420565b50614447929150614492565b5090565b50805460018160011615610100020316600290046000825580601f10614471575061448f565b601f01602090049060005260206000209081019061448f9190614492565b50565b61166591905b808211156144475760008155600101614498565b60006144b88235614e2b565b9392505050565b60006144b88251614e2b565b60006144b88235614e37565b60006144b88251614e37565b60006144b88235614e3c565b6000601f8201831361450057600080fd5b813561451361450e82614df9565b614dd2565b9150808252602083016020830185838301111561452f57600080fd5b612e45838284614e56565b60006144b88235611665565b60006020828403121561455857600080fd5b6000610c4084846144ac565b60006020828403121561457657600080fd5b6000610c4084846144bf565b6000806040838503121561459557600080fd5b60006145a185856144ac565b92505060206145b2858286016144ac565b9150509250929050565b600080600080608085870312156145d257600080fd5b60006145de87876144ac565b94505060206145ef878288016144ac565b9350506040614600878288016144ac565b9250506060614611878288016144ac565b91505092959194509250565b60008060006060848603121561463257600080fd5b600061463e86866144ac565b935050602061464f868287016144ac565b925050604084013567ffffffffffffffff81111561466c57600080fd5b614678868287016144ef565b9150509250925092565b600080600080600060a0868803121561469a57600080fd5b60006146a688886144ac565b95505060206146b7888289016144ac565b945050604086013567ffffffffffffffff8111156146d457600080fd5b6146e0888289016144ef565b935050606086013567ffffffffffffffff8111156146fd57600080fd5b614709888289016144ef565b925050608086013567ffffffffffffffff81111561472657600080fd5b614732888289016144ef565b9150509295509295909350565b6000806040838503121561475257600080fd5b600061475e85856144ac565b92505060206145b28582860161453a565b60006020828403121561478157600080fd5b6000610c4084846144cb565b60006020828403121561479f57600080fd5b6000610c4084846144d7565b6000806000606084860312156147c057600080fd5b60006147cc86866144e3565b93505060206147dd868287016144ac565b9250506040614678868287016144ac565b60006020828403121561480057600080fd5b6000610c40848461453a565b61481581614e2b565b82525050565b600061482682614e27565b80845260208401935061483883614e21565b60005b828110156148685761484e86835161480c565b61485782614e21565b60209690960195915060010161483b565b5093949350505050565b600061487d82614e27565b8084526020840193508360208202850161489685614e21565b60005b848110156148cd5783830388526148b18383516148eb565b92506148bc82614e21565b602098909801979150600101614899565b50909695505050505050565b61481581614e37565b61481581614e4b565b60006148f682614e27565b80845261490a816020860160208601614e62565b61491381614e92565b9093016020019392505050565b601d81527f53656e646572206973206e6f742043726561746f724661636f7472792e000000602082015260400190565b601681527f53656e646572206973206e6f7420526567697374657200000000000000000000602082015260400190565b601981527f436f6e7472616374207265717569726573207365742d75702e00000000000000602082015260400190565b602f81527f55736572206163636f756e74206d75737420626520656d707479206265666f7260208201527f65206265696e67206b696c6c65642e0000000000000000000000000000000000604082015260600190565b601981527f53656e646572206973206e6f742055736572466163746f727900000000000000602082015260400190565b601481527f53656e646572206973206e6f74206f776e65722e000000000000000000000000602082015260400190565b601481527f53656e646572206973206e6f74204d696e746572000000000000000000000000602082015260400190565b603281527f43726561746f72206163636f756e74206d75737420626520656d70747920626560208201527f666f7265206265696e67206b696c6c65642e0000000000000000000000000000604082015260600190565b602781527f436f6e74726163742063757272656e746c79206c6f636b65642e20506c65617360208201527f6520776169742e00000000000000000000000000000000000000000000000000604082015260600190565b601a81527f416d6f756e742063616e6e6f74206265206e656761746976652e000000000000602082015260400190565b61481581611665565b60208101613e0b828461480c565b60408101614b97828561480c565b6144b8602083018461480c565b60808101614bb2828761480c565b614bbf602083018661480c565b614bcc604083018561480c565b614bd9606083018461480c565b95945050505050565b60608101614bf0828661480c565b614bfd602083018561480c565b8181036040830152614bd981846148eb565b60c08101614c1d828961480c565b614c2a602083018861480c565b8181036040830152614c3c81876148eb565b90508181036060830152614c5081866148eb565b90508181036080830152614c6481856148eb565b9050614c7360a0830184614b72565b979650505050505050565b60408101614c8c828561480c565b6144b860208301846148e2565b60408101614ca7828561480c565b6144b86020830184614b72565b602080825281016144b8818461481b565b602080825281016144b88184614872565b60208101613e0b82846148d9565b602080825281016144b881846148eb565b60208082528101613e0b81614920565b60208082528101613e0b81614950565b60208082528101613e0b81614980565b60208082528101613e0b816149b0565b60208082528101613e0b81614a06565b60208082528101613e0b81614a36565b60208082528101613e0b81614a66565b60208082528101613e0b81614a96565b60208082528101613e0b81614aec565b60208082528101613e0b81614b42565b60208101613e0b8284614b72565b60608101614db18286614b72565b8181036020830152614dc381856148eb565b9050610c40604083018461480c565b60405181810167ffffffffffffffff81118282101715614df157600080fd5b604052919050565b600067ffffffffffffffff821115614e1057600080fd5b506020601f91909101601f19160190565b60200190565b5190565b600160a060020a031690565b151590565b60006003821061444757600080fd5b6000613e0b82611665565b82818337506000910152565b60005b83811015614e7d578181015183820152602001614e65565b83811115614e8c576000848401525b50505050565b601f01601f19169056005fc13a8cb79897556001bff3646be555a23490209aba88173cfa256d76220527a265627a7a72305820ee6d8b94abaed27ddce7e8649ecb5d5b2d6c24241669c32863b72460c2d0bf3f6c6578706572696d656e74616cf50037",
  "source": "pragma solidity 0.4.24;\r\npragma experimental ABIEncoderV2;\r\n\r\nimport \"./UserFactory.sol\";\r\nimport \"./ContentCreatorFactory.sol\";\r\nimport \"./LoveMachine.sol\";\r\nimport \"./Register.sol\";\r\n\r\ncontract DataStorage {\r\n    address public owner;\r\n\r\n    UserFactory uf;\r\n    ContentCreatorFactory ccf;\r\n    LoveMachine m;\r\n    Register registry;\r\n\r\n    address public userFactoryAddress;\r\n    address public ccFactoryAddress;\r\n    address public minterAddress;\r\n    address public registryAddress;\r\n    \r\n    mapping (address => uint) public allUsers; //userContract to views\r\n    mapping (address => uint) public UsersTotalViewPurchases;//userContract to total views bought\r\n    mapping (address => uint) public allCreators;//creatorContract to views\r\n    mapping (address => string) public allUserNames;//user contract address to userName\r\n    mapping (address => address) public userContractOwners;//userContract add to user add ress\r\n    mapping (address => address) public creatorsContractOwners;//userContract to creatorContract\r\n    address[] public usersAddresses;//contract addresses\r\n    address[] public creatorsAddresses;//creators contract addresses\r\n    string[] public usersNames;//userNames\r\n    uint public moderatorViews;\r\n    struct Content {\r\n        address userOwner;\r\n        address creator;\r\n        string contentLocationIPFS;\r\n        string title;\r\n        string description;\r\n        uint views;\r\n    }\r\n\r\n    Content[] public allContent;\r\n    mapping (address => Content[]) public creatorContent;//ccc to array of content\r\n    uint private totalViewCreated;\r\n    \r\n    enum ViewsUsed {LIKED, LOVED, FANLOVED}\r\n    ViewsUsed liked = ViewsUsed.LIKED;\r\n    ViewsUsed loved = ViewsUsed.LOVED;\r\n    ViewsUsed fanLoved = ViewsUsed.FANLOVED;\r\n    \r\n    bool public emergencyStop = false;\r\n    bool public pause = true;\r\n    \r\n    event LogEmergency(bool emergency);\r\n    event LogPause(bool pause);\r\n    event LogSetUp(address userFactoryAddress, address creatorFactoryAddress, address minterAddress, address register);\r\n    event LogBoughtViewsUser(address account, uint amount);\r\n    event LogSoldViewsUser(address account, uint amount);\r\n    event LogModeriatorFund(address account, uint amount);\r\n    event LogUserCreated(address owner, address userContract, string userName);\r\n    event LogUserDeleted(address owner, address userContract, string userName);\r\n    event LogCreatorCreated(address userCOwner, address creatorContract);\r\n    event LogCreatorDeleted(address userContract, address creatorContract);\r\n    event LogContentCreated(uint position, string title, address creator);\r\n    // event LogContentCreated(uint indexed position, string indexed title, address indexed creator);\r\n    event LogCheckingData(address userContract);\r\n    \r\n    //Ensures the user can still withdraw during an emergency.\r\n    modifier onlyInEmergency {\r\n        require(emergencyStop);\r\n        _;\r\n    }\r\n    \r\n    //Ensures no sensitive transations happen in an emergency.\r\n    modifier stopInEmergency {\r\n        require(!emergencyStop);\r\n        _;\r\n    }\r\n    \r\n    //Ensures no state changes can happen untill the \r\n    //contract has finished being set up.\r\n    modifier pauseFunction {\r\n        require(!pause, \"Contract requires set-up.\");\r\n        _;\r\n    }\r\n    \r\n    //Ensures only the user can call the function.\r\n    modifier onlyOwner {\r\n        require(msg.sender == owner, \"Sender is not owner.\");\r\n        _;\r\n    }\r\n    \r\n    //Ensures only the owner can call the function \r\n    // modifier onlyAUser(address _userAddress) {\r\n    //     require(allUsers[_userAddress] != 0, \"Address is not a user address.\");\r\n    //     _;\r\n    // }\r\n    \r\n    //Ensures only the ContentCreatorFactory can call\r\n    //the function. Calls from register so that the most \r\n    //up to date contract is always used. \r\n    modifier onlyCreatorFactory {\r\n        require(\r\n            msg.sender == registry.getContentCreatorFactory(),\r\n            \"Sender is not CreatorFacotry.\"\r\n        );\r\n        _;\r\n    }\r\n    \r\n    //Ensures only the minter may call the function\r\n    modifier onlyMinter(uint _amount) {\r\n        require(msg.sender == registry.getMinter(), \"Sender is not Minter\");\r\n        require(_amount > 0, \"Amount cannot be negative.\");\r\n        _;\r\n    }\r\n    \r\n    //Ensures only they UserFactory can call the function.\r\n    modifier onlyUserFactory {\r\n        require(msg.sender == registry.getUserFactory(), \"Sender is not UserFactory\");\r\n        _;\r\n    }\r\n    \r\n    //Ensures only the Register can call this function.\r\n    modifier onlyRegistry {\r\n        require(msg.sender == registryAddress, \"Sender is not Register\");\r\n        _;\r\n    }\r\n    \r\n    //Ensures the user is not making another state change. \r\n    modifier lockCheck(address _user) {\r\n        // require(isUser(_user), \"User must be registed\");\r\n        User u = User(_user);\r\n        bool lock = u.getLock();\r\n        require(!lock, \"Contract currently locked. Please wait.\");\r\n        if(this.isCreator(_user)) {\r\n            ContentCreator cc = ContentCreator(this.getCreatorAddressFromUser(_user));\r\n            bool ccLock = cc.getLock();\r\n            require(!ccLock, \"Contract currently locked. Please wait.\");\r\n        }\r\n        _;\r\n    }\r\n    \r\n    //Ensures the user has no more views before they get deleted. \r\n    modifier beforeDeleteChecksUser(address _userContract) {\r\n        require(\r\n            allUsers[_userContract] == 0, \r\n            \"User account must be empty before being killed.\"\r\n        );\r\n        _;\r\n    }\r\n    \r\n    //Ensures the Creator has no more views before \r\n    //deleteing their account. \r\n    modifier beforeDeleteChecksCreator(address _creatorContract) {\r\n        require(\r\n            allCreators[_creatorContract] == 0, \r\n            \"Creator account must be empty before being killed.\"\r\n        );\r\n        _;\r\n    }\r\n    \r\n    /**\r\n      * @dev Creates all the contracts that use this dataStorage. \r\n      * @notice The constructor and contract setup has been seporated\r\n      *     becuse the constructor dose not create an address for itself\r\n      *     untill the constructor has finished. \r\n      */\r\n    constructor()\r\n        public\r\n    {\r\n        owner = msg.sender;    \r\n    }\r\n    \r\n    /**\r\n      * @dev This function sets up all the contracts and inputs the \r\n      *     various addresses they all need after they have all been \r\n      *     created by blank constructors. \r\n      * @notice This function sets paused to false and allows the data \r\n      *     storage to be used for state modification. \r\n      */\r\n    function setUpDataContracts(\r\n        address _userFactoryAddress,\r\n        address _ccFactoryAddress,\r\n        address _minterAddress,\r\n        address _register\r\n        )\r\n        public\r\n        onlyOwner \r\n        stopInEmergency\r\n        returns(bool)\r\n    {\r\n        ccf = ContentCreatorFactory(_ccFactoryAddress);\r\n        ccFactoryAddress = _ccFactoryAddress;\r\n        uf = UserFactory(_userFactoryAddress);\r\n        userFactoryAddress = _userFactoryAddress;\r\n        m = LoveMachine(_minterAddress);\r\n        minterAddress = _minterAddress;\r\n        registry = Register(_register);\r\n        \r\n        setPause(false);\r\n        \r\n        emit LogSetUp(_userFactoryAddress, _ccFactoryAddress, _minterAddress, _register);\r\n        \r\n        return true;\r\n    }\r\n\r\n    /**\r\n      * @param _userAddress : The address of the user \r\n      *     that is being checked as a creator. \r\n      * @return bool : Wether they are a creator or not.      \r\n      */\r\n    function isCreator(address _userAddress)\r\n        public\r\n        view\r\n        returns(bool)\r\n    {\r\n        if(creatorsContractOwners[_userAddress] != 0) {\r\n            return true;\r\n        }\r\n        return false;\r\n    }\r\n    \r\n    /**\r\n      * @param _addressToCheck : The address to be checked. \r\n      * @return bool : Wether the address is a user. \r\n      */\r\n    function isUser(address _addressToCheck)\r\n        public\r\n        view\r\n        returns(bool)\r\n    {\r\n        if(userContractOwners[_addressToCheck] != 0) {\r\n            return true;\r\n        }\r\n        return false;\r\n    }\r\n    \r\n    event LogIsUser(string usedIn, bool passed);\r\n    //TO REMOVE\r\n    /**\r\n      * @dev Locks the user so that no other state changes\r\n      *     for that user may occur at the same time, thus preventing reentry attacks \r\n      *     and other recursion atacks. It also helps with code readability.\r\n      *     As an instance of a User is being created, we have to check the address\r\n      *     dose belong to a user. \r\n      * @notice creating instances of the users is expensive and inifiecient. Future\r\n      *     versions will allow for the users data to be entirely stored in the \r\n      *     dataStorage, meaning an instance of the user dose not need to be created \r\n      *     to check or set their lock. \r\n      * @param _user : The user who is making the state change. \r\n      */\r\n    function lockUser(address _user) \r\n        private\r\n        pauseFunction\r\n    {\r\n        User u;\r\n        u = User(_user);\r\n        u.setLock(true);\r\n        if(this.isCreator(_user)) {\r\n            ContentCreator ccc = ContentCreator(this.getCreatorAddressFromUser(_user));\r\n            ccc.setLock(true);\r\n        }\r\n    }\r\n    \r\n    /**\r\n      * @dev Unlocks the user so they may make other state changes. \r\n      * @notice creating instances of the users is expensive and inifiecient. Future\r\n      *     versions will allow for the users data to be entirely stored in the \r\n      *     dataStorage, meaning an instance of the user dose not need to be created \r\n      *     to check or set their lock. \r\n      * @param _user : The user who is being unlocked to make state changes.\r\n      */\r\n    function unlockUser(address _user)\r\n        private\r\n        pauseFunction\r\n    {\r\n        User u;\r\n        u = User(_user);\r\n        u.setLock(false);\r\n        if(this.isCreator(_user)) {\r\n            ContentCreator ccc = ContentCreator(this.getCreatorAddressFromUser(_user));\r\n            ccc.setLock(false);\r\n        }\r\n    }\r\n    \r\n    /**\r\n      * @return address : The address of the minter.\r\n      */\r\n    function getUserFactory()\r\n        public\r\n        view\r\n        returns(address)\r\n    {\r\n        return registry.getUserFactory();\r\n    }\r\n\r\n    /**\r\n      * @return address : The address of the minter.\r\n      */\r\n    function getCCFactory()\r\n        public\r\n        view\r\n        returns(address)\r\n    {\r\n        return registry.getContentCreatorFactory();\r\n    }\r\n\r\n    /**\r\n      * @return address : The address of the minter.\r\n      */\r\n    function getMinter()\r\n        public\r\n        view\r\n        returns(address)\r\n    {\r\n        return registry.getMinter();\r\n    }\r\n    \r\n    /**\r\n      * @return address[] : The addresses of all Users. \r\n      */\r\n    function getAllUserAddresses() \r\n        public \r\n        view\r\n        returns(address[])\r\n    {\r\n        return usersAddresses;\r\n    }\r\n\r\n    /**\r\n      * @return address[] : The addresses of all creators. \r\n      */\r\n    function getAllCreatorsAddresses() \r\n        public \r\n        view\r\n        returns(address[])\r\n    {\r\n        return creatorsAddresses;\r\n    }\r\n\r\n    /**\r\n      * @return string[] : All user names registered. \r\n      */\r\n    function getAllUsersNames() \r\n        public \r\n        view\r\n        returns(string[])\r\n    {\r\n        return usersNames;\r\n    }\r\n    \r\n    /**\r\n      * @param _user : The address of the user whos \r\n      *     name is wanted.  \r\n      * @return string : A users name. \r\n      */\r\n    function getAUsersName(address _user)\r\n        public\r\n        view\r\n        returns(string)    \r\n    {\r\n        //require(isUser(_user));\r\n        return(allUserNames[_user]);\r\n    }\r\n    \r\n    /**\r\n      * @param _userAddress : The user address\r\n      * @return address : The address of the users Creator contract. \r\n      */\r\n    function getCreatorAddressFromUser(address _userAddress)\r\n        public\r\n        view\r\n        returns(address)\r\n    {\r\n        require(creatorsContractOwners[_userAddress] != 0);\r\n        return creatorsContractOwners[_userAddress];\r\n    }\r\n\r\n    /**\r\n      * @param _contractAddress : The address of the users contract. \r\n      * @return address : The address of the owner.\r\n      */\r\n    function getAUsersOwnerData(address _contractAddress)\r\n        public\r\n        view\r\n        returns(address)\r\n    {\r\n        require(userContractOwners[_contractAddress] != 0);\r\n        return(userContractOwners[_contractAddress]);\r\n    }\r\n\r\n    /**\r\n      * @param _contractAddress : The address of the useowner.\r\n      * @return string : The users UserName. \r\n      */\r\n    function getAUsersNameData(address _contractAddress)\r\n        public\r\n        view\r\n        returns(string)\r\n    {\r\n        //require(allUsers[_contractAddress] != 0);\r\n        return(allUserNames[_contractAddress]);\r\n    }\r\n    \r\n    /**\r\n      * @dev This function dose not need user locks or safy checks \r\n      *     as it is mearly a counter for views dispenced and the users \r\n      *     total amount of views purchased. \r\n      * @param _user : The users address.\r\n      *     _amount : The amount of views purchased. \r\n      */\r\n    function setTotalViewsDispenced(address _user, uint _amount) \r\n        public \r\n        onlyMinter(_amount)\r\n        stopInEmergency\r\n        pauseFunction\r\n    {\r\n        UsersTotalViewPurchases[_user] += _amount;\r\n        totalViewCreated += _amount;\r\n    }\r\n    \r\n    /**\r\n      * @dev For when a content creator whishes to delete their account.\r\n      * @param _ccc : The content creator contract address.\r\n      *     _userContract : The address of the users account.\r\n      */\r\n    function moveAllFundsToUser(address _ccc, address _userContract)\r\n        public\r\n        onlyCreatorFactory\r\n        lockCheck(_userContract)\r\n    {\r\n        lockUser(_userContract);\r\n        \r\n        uint allFunds = allCreators[_ccc];\r\n        allCreators[_ccc] -= allFunds;\r\n        \r\n        allUsers[_userContract] += allFunds;\r\n        \r\n        unlockUser(_userContract);\r\n    }\r\n    \r\n    /**\r\n      * @dev Called when views are being taken out of an account \r\n      *     and  do not need to be paid to a creator.\r\n      * @param _adder : Whom ever is being 'charged' the View.\r\n      *     _amount : The amount of views being taken from the adder. \r\n      * @return bool : Compleated function. \r\n      */\r\n    function addToModeratorFund(address _adder, uint _amount)\r\n        internal \r\n        returns(bool)\r\n    {\r\n        require(_amount > 0);\r\n        moderatorViews += _amount;\r\n        \r\n        emit LogModeriatorFund(_adder, _amount);\r\n    }\r\n    \r\n    /**\r\n      * @dev Allows for the owner to set the emergency state. \r\n      * @notice This function takes in a bool instead of being two \r\n      *     functions (one that sets true and one that sets false) \r\n      *     as to simplify access. \r\n      * @param _emergencyState : The state to set emergency to. \r\n      * @return bool : Returns true once function compleate.\r\n      */\r\n    function setEmergency(bool _emergencyState)\r\n        public \r\n        onlyOwner \r\n        pauseFunction\r\n        returns(bool)\r\n    {\r\n        emit LogEmergency(_emergencyState);\r\n        \r\n        emergencyStop = _emergencyState;\r\n        return true;\r\n    }\r\n    \r\n    /**\r\n      * @dev Sets the pause function. Is not stopped during emergency \r\n      *     to allow for state mutability to be changed during an emergency. \r\n      */\r\n    function setPause(bool pauseState) \r\n        public\r\n        onlyOwner\r\n        returns(bool) \r\n    {\r\n        emit LogPause(pauseState);\r\n        \r\n        return pause = pauseState;\r\n    }\r\n    \r\n    /**\r\n      * @dev used to update the dataStorages instance of the ccontract.\r\n      * @param _newUserFactory : The address of the new contract. \r\n      */\r\n    function registryUpdateUserFactory(address _newUserFactory)\r\n        public\r\n        onlyRegistry\r\n        pauseFunction\r\n    {\r\n        uf = UserFactory(_newUserFactory);\r\n        userFactoryAddress = _newUserFactory;\r\n    }\r\n    \r\n    /**\r\n      * @dev used to update the dataStorages instance of the ccontract.\r\n      * @param _newCCFactory : The address of the new contract. \r\n      */\r\n    function registryUpdateCCFactory(address _newCCFactory)\r\n        public\r\n        onlyRegistry\r\n        pauseFunction\r\n    {\r\n        ccf = ContentCreatorFactory(_newCCFactory);\r\n        ccFactoryAddress = _newCCFactory;\r\n    }\r\n    \r\n    /**\r\n      * @dev used to update the dataStorages instance of the ccontract.\r\n      * @param _newMinter : The address of the new contract. \r\n      */\r\n    function registryUpdateMinter(address _newMinter)\r\n        public\r\n        onlyRegistry\r\n        pauseFunction\r\n    {\r\n        m = LoveMachine(_newMinter);\r\n        minterAddress = _newMinter;\r\n    }\r\n\r\n    /**\r\n      * @dev Creates a new userUser. \r\n      * @notice Only the user factory can call the creation of a new \r\n      *     user, so that the user has to be registed to the system \r\n      *     and to ensure that the user is an actual user and belongs to \r\n      *     the  UserFactory.\r\n      * @param _user : The address of the creators wallet. \r\n      *     _userContract : The address of the users created user contract.\r\n      *     _userName : The users chosen userName. \r\n      */\r\n    function setNewUserData(address _user, address _userContract, string _userName)\r\n        public \r\n        onlyUserFactory\r\n        lockCheck(_userContract)\r\n        stopInEmergency\r\n        pauseFunction\r\n    {\r\n        lockUser(_userContract);\r\n        \r\n        allUsers[_userContract] = 0;\r\n        allUserNames[_userContract] = _userName;\r\n        userContractOwners[_userContract] = _user;\r\n        usersAddresses.push(_userContract);\r\n        usersNames.push(_userName);\r\n        \r\n        emit LogUserCreated(_user, _userContract, _userName);\r\n        \r\n        unlockUser(_userContract);\r\n    }\r\n    \r\n    /** \r\n      * @dev Called by the users Factory by the users contract to delete the \r\n      *     users details and send all their views back to them as Ether. \r\n      * @notice This method implements the lock to ensure no other transactions\r\n      *     are happening before the users Contract is deleted.\r\n      * @param _user : The address of the users contract. To be removed \r\n      *         in future versions and the address of the users wallet from \r\n      *         storage.\r\n      *     _userContract : The address of the users Contract.\r\n      *     string _usrName: The users name.\r\n      */\r\n    function removeUserData(address _user, address _userContract, string _userName)\r\n        public\r\n        onlyUserFactory \r\n        beforeDeleteChecksUser(_userContract) \r\n        stopInEmergency\r\n        pauseFunction\r\n        returns(bool)\r\n    {\r\n        //function is called through the user factory, but the account should \r\n            //have all funds sent to their users wallets. \r\n        //TODO: delete creator content as well. \r\n        delete allUsers[_userContract];\r\n        delete allUserNames[_userContract];\r\n        delete userContractOwners[_userContract];\r\n        for(uint i = 0; i < usersAddresses.length; i++) {\r\n            if(usersAddresses[i] == _userContract) {\r\n                delete usersAddresses[i];\r\n                break;\r\n            }\r\n        }\r\n        \r\n        emit LogUserDeleted(_user, _userContract, _userName);\r\n        \r\n        return true;\r\n    }\r\n    \r\n    /**\r\n      * @dev This allows a new creator to be finalized and stored.\r\n      * @notice The 'transaction fee' of a like (5 views) is taken \r\n      *     and added to the moderator fund, to help pay for the \r\n      *     moderation of content. \r\n      *     This method can only be called by the minter as the minter \r\n      *     needs to handle all payable methods values.\r\n      * @param _userContract : The address of the users contract.\r\n      *     _creatorContract : The address of the new Creators contract.\r\n      */\r\n    function setNewCreatorData(address _userContract, address _creatorContract) \r\n        public \r\n        //onlyMinter(1) \r\n        stopInEmergency \r\n        pauseFunction\r\n        returns(bool)\r\n    {\r\n        // require(\r\n        //     allUsers[_userContract] > 5, \r\n        //     \"You need to be able to like your own stuff.\"\r\n        // );\r\n        allUsers[_userContract] -= 5;\r\n        moderatorViews += 5;\r\n        \r\n        addToModeratorFund(_userContract, 5);\r\n        \r\n        allCreators[_creatorContract] = 0;\r\n        creatorsContractOwners[_userContract] = _creatorContract;\r\n        creatorsAddresses.push(_creatorContract);\r\n        \r\n        emit LogCreatorCreated(_userContract, _creatorContract);\r\n        \r\n        return true;\r\n    }\r\n\r\n    /**\r\n      * @dev Removes the creators data and deletes all their information off \r\n      *     the system. It requires that the user has already cleared their \r\n      *     balance. This function deletes the user information and the \r\n      *     creator information. \r\n      * @param _userContract : The address of the user contract. \r\n      *     _creatorContract : The address of the creators contract. \r\n      * @return bool : After the function has been completed. \r\n      */\r\n    function removeCreatorData(address _userContract, address _creatorContract) \r\n        public\r\n        onlyCreatorFactory \r\n        beforeDeleteChecksCreator(_creatorContract) \r\n        beforeDeleteChecksUser(_userContract)\r\n        stopInEmergency\r\n        pauseFunction\r\n        returns(bool)\r\n    {\r\n        delete allCreators[_creatorContract];\r\n        delete creatorsContractOwners[_userContract];\r\n        for(uint a = 0; a < creatorsAddresses.length; a++) {\r\n            if(creatorsAddresses[a] == _creatorContract) {\r\n                delete creatorsAddresses[a];\r\n                break;\r\n            }\r\n        }\r\n        \r\n        emit LogCreatorDeleted(_userContract, _creatorContract);\r\n        \r\n        return true;\r\n    }\r\n\r\n    /**\r\n      * @dev Saves a users purchase of views after LoveMachine has been paid.\r\n      * @param _userContract : The users contract address.\r\n      *     _amount : The amount of views the user has already paid for in the \r\n      *         LoveMachine.\r\n      * @return bool After it has changed the users balance.\r\n      */\r\n    function buyViewsSave(address _userContract, uint _amount)\r\n        public\r\n        //onlyMinter(_amount)\r\n        lockCheck(_userContract)\r\n        stopInEmergency\r\n        pauseFunction\r\n        returns(bool)\r\n    {\r\n        lockUser(_userContract);\r\n        \r\n        allUsers[_userContract] += _amount - 5;\r\n        setTotalViewsDispenced(_userContract, _amount - 5);\r\n        \r\n        addToModeratorFund(_userContract, 5);\r\n        \r\n        emit LogBoughtViewsUser(_userContract, _amount - 5);\r\n        \r\n        unlockUser(_userContract);\r\n        return true;\r\n    }\r\n    \r\n    /**\r\n      * @dev Saves a users sale of views before the LoveMachine pays the user the \r\n      *     value of the views in Ether.\r\n      * @notice the assert is used as a prevention of underflow.\r\n      * @param _userContract : The users contract address.\r\n      *     _amount : The amount of views the user is selling. \r\n      * @return bool After it has changed the users balance.\r\n      */\r\n    function sellViewsSave(address _userContract, uint _amount)\r\n        public\r\n        //onlyMinter(_amount)\r\n        lockCheck(_userContract)\r\n        stopInEmergency\r\n        pauseFunction\r\n        returns(bool)\r\n    {\r\n        lockUser(_userContract);\r\n        \r\n        //assert(allUsers[_userContract] - _amount > 0);\r\n        \r\n        allUsers[_userContract] = allUsers[_userContract] - _amount;\r\n\r\n        emit LogSoldViewsUser(_userContract, _amount);\r\n        \r\n        unlockUser(_userContract);\r\n        return true;\r\n    }\r\n    \r\n    /**\r\n      * @dev Allows a creator to send views from their user contract (where they can \r\n      *     buy and sell views) to their creator contract.\r\n      * @notice This function is nessasary as the seporation of user contracts from \r\n      *     creator contracts prevents some reentry attacks. \r\n      * @param _user : The users contracts account. \r\n      *     _amount: The amount of views they wish to transfer from their user contract \r\n      *         to their creator accouhnt. Amount is set in the LoveMachine, and \r\n      *         check here. \r\n      * @return bool After the function has compleated. \r\n      */\r\n    function fromUserToCreator(address _user, uint _amount) \r\n        public\r\n        onlyMinter(_amount)\r\n        lockCheck(_user)\r\n        stopInEmergency\r\n        pauseFunction\r\n        returns(bool)\r\n    {\r\n        lockUser(_user);\r\n        \r\n        require(isCreator(_user));\r\n        require(allUsers[_user] > _amount);\r\n        allUsers[_user] -= _amount;\r\n        allCreators[getCreatorAddressFromUser(_user)] += _amount;\r\n        \r\n        unlockUser(_user);\r\n        return true;\r\n        \r\n    }\r\n    \r\n    /**\r\n      * @dev Allows the creator to send views from their creator account to their\r\n      *     user contract account so they can sell them back for Ether, or so they \r\n      *     can view and consume contennt. \r\n      * @notice This function is nessasary for the compleate seporation of consurns \r\n      *     and to prevent various weaknesses and attack points through reeentry. \r\n      *     No views are being bought or sold and therefore there are no emits or \r\n      *     logs of any kind. \r\n      *     Function checks that the _amount is not more than the creator address has. \r\n      * @param _user : The users contract address.\r\n      *     _amount : The amount of views they wish to transfer. \r\n      */\r\n    function fromCreatorToUser(address _user, uint _amount)\r\n        public\r\n        onlyMinter(_amount)\r\n        lockCheck(_user)\r\n        stopInEmergency\r\n        pauseFunction\r\n        returns(bool)\r\n    {\r\n        lockUser(_user);\r\n        \r\n        require(isCreator(_user));\r\n        require(allCreators[getCreatorAddressFromUser(_user)] > _amount);\r\n        allCreators[getCreatorAddressFromUser(_user)] -= _amount;\r\n        allUsers[_user] += _amount;\r\n        \r\n        unlockUser(_user);\r\n        return true;\r\n    }\r\n    \r\n    /**\r\n      * @dev Minter calls this when a user likes content. \r\n      * @notice Only the user is locked as the content creator should be able to \r\n      *     recive multipule likes, and should not be licked by each one as this \r\n      *     would slow down the system sygnificantly.\r\n      */\r\n    function storingLikes(ViewsUsed viewUsedRecived, address _contentOwner, address _user)\r\n        public \r\n        //onlyMinter(1)\r\n        lockCheck(_user)\r\n        stopInEmergency\r\n        pauseFunction\r\n    {\r\n        lockUser(_user);\r\n        \r\n        if (viewUsedRecived == ViewsUsed.LIKED) {\r\n            require(allUsers[_user] > 5);\r\n            allUsers[_user] -= 5;\r\n            allCreators[_contentOwner] += 5;\r\n            \r\n            emit LogBoughtViewsUser(_user, 5);\r\n        }\r\n        if (viewUsedRecived == ViewsUsed.LOVED) {\r\n            require(allUsers[_user] > 15);\r\n            allUsers[_user] -= 15;\r\n            allCreators[_contentOwner] += 15;\r\n            addToModeratorFund(_user, 15);\r\n            \r\n            emit LogBoughtViewsUser(_user, 15);\r\n        }\r\n        if (viewUsedRecived == ViewsUsed.FANLOVED) {\r\n            require(allUsers[_user] > 25);\r\n            allUsers[_user] -= 25;\r\n            allCreators[_contentOwner] += 25;\r\n            addToModeratorFund(_user, 25);\r\n            \r\n            emit LogBoughtViewsUser(_user, 25);\r\n        }\r\n        \r\n        unlockUser(_user);\r\n    }\r\n\r\n    /**\r\n      * @dev This function allows for the storage of newly created content. \r\n      * @notice This contract can only be called by the minter as the \r\n      *     minter handles a;; calles that have the potential for value \r\n      *     transfer.\r\n      */\r\n    function createContent(\r\n        address _userContract,\r\n        address _contentCreatorContract, \r\n        string _addressIPFS, \r\n        string _title, \r\n        string _description\r\n        )\r\n        public\r\n        //onlyMinter(1)\r\n        lockCheck(_userContract)\r\n        stopInEmergency\r\n        pauseFunction\r\n    {\r\n        lockUser(_userContract);\r\n        //reducing balance of content creator\r\n        //require(allCreators[_contentCreatorContract] > 5);\r\n        allCreators[_contentCreatorContract] -= 5;\r\n        moderatorViews += 5;\r\n        \r\n        addToModeratorFund(_contentCreatorContract, 5);\r\n        \r\n        creatorContent[_contentCreatorContract].push(Content({\r\n            userOwner: _userContract,\r\n            creator: _contentCreatorContract,\r\n            contentLocationIPFS: _addressIPFS,\r\n            title: _title,\r\n            description: _description,\r\n            views: 0\r\n        }));\r\n        allContent.push(Content({\r\n            userOwner: _userContract,\r\n            creator: _contentCreatorContract,\r\n            contentLocationIPFS: _addressIPFS,\r\n            title: _title,\r\n            description: _description,\r\n            views: 0\r\n        })); \r\n        //for front end to have access to lates and all content\r\n        //For the indervidual conent creators to be able to claim ownership of content\r\n        // uint length = creatorContent[_contentCreatorContract].length;\r\n        // creatorContent[_contentCreatorContract][length] = Content({\r\n        //     userOwner: _userContract,\r\n        //     creator: _contentCreatorContract,\r\n        //     contentLocationIPFS: _addressIPFS,\r\n        //     title: _title,\r\n        //     description: _description,\r\n        //     views: 0\r\n        // });\r\n        \r\n        // Content[] storage temp = creatorContent[_contentCreatorContract];\r\n        // temp.push(Content({\r\n        //     userOwner: _userContract,\r\n        //     creator: _contentCreatorContract,\r\n        //     contentLocationIPFS: _addressIPFS,\r\n        //     title: _title,\r\n        //     description: _description,\r\n        //     views: 0\r\n        // }));\r\n\r\n        emit LogContentCreated(allContent.length, _title, _contentCreatorContract);\r\n\r\n        unlockUser(_userContract);\r\n    }    \r\n\r\n    function getContent(address _ccc)\r\n        public\r\n        view\r\n        returns(\r\n            address userContractAddress,\r\n            address cCCAddress, \r\n            string addressIPFS, \r\n            string title, \r\n            string description,\r\n            uint views\r\n        )\r\n    {\r\n        uint latestContent = creatorContent[_ccc].length-1;\r\n\r\n        userContractAddress = creatorContent[_ccc][latestContent].userOwner;\r\n        cCCAddress = creatorContent[_ccc][latestContent].creator;\r\n        addressIPFS = creatorContent[_ccc][latestContent].contentLocationIPFS;\r\n        title = creatorContent[_ccc][latestContent].title;\r\n        description = creatorContent[_ccc][latestContent].description;\r\n        views = creatorContent[_ccc][latestContent].views;\r\n    }\r\n\r\n    /**\r\n      * @dev This function allows the register to replace itself. \r\n      * @notice The function in the register that allows it to be \r\n      *     replaced can only be called by the owner. \r\n      * @param _newRegister : The address of the new register. \r\n      */\r\n    function updateRegister(address _newRegister) \r\n        onlyRegistry\r\n        pauseFunction\r\n        public\r\n    {\r\n        registry = Register(_newRegister);\r\n    } \r\n}",
  "sourcePath": "C:\\Users\\Veronica Coutts\\Desktop\\Desktop\\Work\\Web3 Projects\\MVP\\contracts\\DataStorage.sol",
  "compiler": {
    "name": "solc",
    "version": "0.4.24+commit.e67f0147.Emscripten.clang"
  },
  "schemaVersion": "2.0.1",
  "updatedAt": "2018-08-27T19:59:36.650Z"
}