{
  "contractName": "LoveMachine",
  "abi": [
    {
      "inputs": [
        {
          "name": "_dataStorage",
          "type": "address"
        }
      ],
      "payable": false,
      "stateMutability": "nonpayable",
      "type": "constructor"
    },
    {
      "anonymous": false,
      "inputs": [
        {
          "indexed": false,
          "name": "usedIn",
          "type": "string"
        },
        {
          "indexed": false,
          "name": "passed",
          "type": "bool"
        }
      ],
      "name": "LogIsUser",
      "type": "event"
    },
    {
      "constant": true,
      "inputs": [],
      "name": "getBalance",
      "outputs": [
        {
          "name": "",
          "type": "uint256"
        }
      ],
      "payable": false,
      "stateMutability": "view",
      "type": "function"
    },
    {
      "constant": false,
      "inputs": [],
      "name": "buyViews",
      "outputs": [
        {
          "name": "",
          "type": "bool"
        }
      ],
      "payable": true,
      "stateMutability": "payable",
      "type": "function"
    },
    {
      "constant": false,
      "inputs": [
        {
          "name": "_amount",
          "type": "uint256"
        }
      ],
      "name": "sellViews",
      "outputs": [
        {
          "name": "",
          "type": "bool"
        }
      ],
      "payable": false,
      "stateMutability": "nonpayable",
      "type": "function"
    },
    {
      "constant": false,
      "inputs": [
        {
          "name": "_amount",
          "type": "uint256"
        }
      ],
      "name": "TransferViewsToCreatorAccount",
      "outputs": [
        {
          "name": "",
          "type": "bool"
        }
      ],
      "payable": false,
      "stateMutability": "nonpayable",
      "type": "function"
    },
    {
      "constant": false,
      "inputs": [
        {
          "name": "_amount",
          "type": "uint256"
        }
      ],
      "name": "TransferViewsToUserAccount",
      "outputs": [
        {
          "name": "",
          "type": "bool"
        }
      ],
      "payable": false,
      "stateMutability": "nonpayable",
      "type": "function"
    },
    {
      "constant": false,
      "inputs": [
        {
          "name": "_contentCreator",
          "type": "address"
        },
        {
          "name": "_userConsumer",
          "type": "address"
        }
      ],
      "name": "liked",
      "outputs": [],
      "payable": false,
      "stateMutability": "nonpayable",
      "type": "function"
    },
    {
      "constant": false,
      "inputs": [
        {
          "name": "_contentCreator",
          "type": "address"
        },
        {
          "name": "_userConsumer",
          "type": "address"
        }
      ],
      "name": "loved",
      "outputs": [],
      "payable": false,
      "stateMutability": "nonpayable",
      "type": "function"
    },
    {
      "constant": false,
      "inputs": [
        {
          "name": "_contentCreator",
          "type": "address"
        },
        {
          "name": "_userConsumer",
          "type": "address"
        }
      ],
      "name": "fanLoved",
      "outputs": [],
      "payable": false,
      "stateMutability": "nonpayable",
      "type": "function"
    },
    {
      "constant": false,
      "inputs": [
        {
          "name": "_owner",
          "type": "address"
        },
        {
          "name": "_addressIPFS",
          "type": "string"
        },
        {
          "name": "_title",
          "type": "string"
        },
        {
          "name": "_description",
          "type": "string"
        }
      ],
      "name": "createContentMinter",
      "outputs": [
        {
          "name": "",
          "type": "bool"
        }
      ],
      "payable": false,
      "stateMutability": "nonpayable",
      "type": "function"
    },
    {
      "constant": false,
      "inputs": [],
      "name": "kill",
      "outputs": [],
      "payable": false,
      "stateMutability": "nonpayable",
      "type": "function"
    }
  ],
  "bytecode": "0x60806040526001805460a060020a62ffffff021916905534801561002257600080fd5b50604051602080610e44833981016040818152915160008054600160a060020a031916600160a060020a03808416919091178083557f8da5cb5b000000000000000000000000000000000000000000000000000000008552945192941692638da5cb5b9260048083019360209383900390910190829087803b1580156100a757600080fd5b505af11580156100bb573d6000803e3d6000fd5b505050506040513d60208110156100d157600080fd5b505160018054600160a060020a031916600160a060020a0390921691909117905550610d42806101026000396000f3006080604052600436106100a35763ffffffff7c010000000000000000000000000000000000000000000000000000000060003504166312065fe081146100a857806314d03713146100cf5780632946014c146100f8578063347001261461011f57806341c0e1b5146101465780634cad552b1461015b57806367526c4d146101875780636e9f1b751461019f578063ec79293214610282578063fbfa1c671461029a575b600080fd5b3480156100b457600080fd5b506100bd6102a2565b60408051918252519081900360200190f35b3480156100db57600080fd5b506100f6600160a060020a03600435811690602435166102a7565b005b34801561010457600080fd5b506100f6600160a060020a03600435811690602435166103ed565b34801561012b57600080fd5b506100f6600160a060020a03600435811690602435166104c3565b34801561015257600080fd5b506100f6610552565b34801561016757600080fd5b506101736004356106aa565b604080519115158252519081900360200190f35b34801561019357600080fd5b50610173600435610757565b3480156101ab57600080fd5b5060408051602060046024803582810135601f8101859004850286018501909652858552610173958335600160a060020a031695369560449491939091019190819084018382808284375050604080516020601f89358b018035918201839004830284018301909452808352979a99988101979196509182019450925082915084018382808284375050604080516020601f89358b018035918201839004830284018301909452808352979a9998810197919650918201945092508291508401838280828437509497506108839650505050505050565b34801561028e57600080fd5b50610173600435610b73565b610173610c6a565b303190565b600080546040805160e060020a634209fff10281523360048201529051600160a060020a0390921691634209fff19160248082019260209290919082900301818787803b1580156102f757600080fd5b505af115801561030b573d6000803e3d6000fd5b505050506040513d602081101561032157600080fd5b5051905080151561033157600080fd5b6000546040517f5b48d7fb000000000000000000000000000000000000000000000000000000008152600160a060020a0390911690635b48d7fb906002908690869060040180845b60ff16815260200183600160a060020a0316600160a060020a0316815260200182600160a060020a0316600160a060020a031681526020019350505050600060405180830381600087803b1580156103d057600080fd5b505af11580156103e4573d6000803e3d6000fd5b50505050505050565b600080546040805160e060020a634209fff10281523360048201529051600160a060020a0390921691634209fff19160248082019260209290919082900301818787803b15801561043d57600080fd5b505af1158015610451573d6000803e3d6000fd5b505050506040513d602081101561046757600080fd5b5051905080151561047757600080fd5b6000546040517f5b48d7fb000000000000000000000000000000000000000000000000000000008152600160a060020a0390911690635b48d7fb90600190869086906004018084610379565b60008054604080517f5b48d7fb00000000000000000000000000000000000000000000000000000000815260048101849052600160a060020a038681166024830152858116604483015291519190921692635b48d7fb926064808201939182900301818387803b15801561053657600080fd5b505af115801561054a573d6000803e3d6000fd5b505050505050565b600154600160a060020a031633148061060957506000809054906101000a9004600160a060020a0316600160a060020a031663ed9aab516040518163ffffffff167c0100000000000000000000000000000000000000000000000000000000028152600401602060405180830381600087803b1580156105d157600080fd5b505af11580156105e5573d6000803e3d6000fd5b505050506040513d60208110156105fb57600080fd5b5051600160a060020a031633145b151561069c57604080517f08c379a000000000000000000000000000000000000000000000000000000000815260206004820152603960248201527f46756e6374696f6e2063616e206f6e6c792062652063616c6c6564206279207460448201527f6865206f776e6572206f72207468652072656769737465722e00000000000000606482015290519081900360840190fd5b600154600160a060020a0316ff5b60008054604080517fbf57df090000000000000000000000000000000000000000000000000000000081523360048201526024810185905290516509184e72a0008502928492600160a060020a039091169163bf57df099160448082019260209290919082900301818787803b15801561072357600080fd5b505af1158015610737573d6000803e3d6000fd5b505050506040513d602081101561074d57600080fd5b5051949350505050565b600080546040805160e060020a634209fff102815233600482015290518392600160a060020a031691634209fff191602480830192602092919082900301818787803b1580156107a657600080fd5b505af11580156107ba573d6000803e3d6000fd5b505050506040513d60208110156107d057600080fd5b505190508015156107e057600080fd5b60008054604080517f1ddf8358000000000000000000000000000000000000000000000000000000008152336004820152602481018790529051600160a060020a0390921692631ddf8358926044808401936020939083900390910190829087803b15801561084e57600080fd5b505af1158015610862573d6000803e3d6000fd5b505050506040513d602081101561087857600080fd5b506001949350505050565b604080516000602082018190528282526029828401527f4372656174696e6720636f6e746e65742c206c6f7665206d616368696e65206360608301527f616c6c696e672064730000000000000000000000000000000000000000000000608083015291517f94d0a093377a101d5273778eb97c4078f231a24825316d77d684c2c25ab4fcda9181900360a00190a1600080546040517f2a10ff26000000000000000000000000000000000000000000000000000000008152600160a060020a0388811660048301908152336024840181905260a0604485019081528a5160a48601528a519390951695632a10ff26958c9592948c948c948c949193926064820192608483019260c4019160208a01918190849084905b838110156109b1578181015183820152602001610999565b50505050905090810190601f1680156109de5780820380516001836020036101000a031916815260200191505b50848103835286518152865160209182019188019080838360005b83811015610a115781810151838201526020016109f9565b50505050905090810190601f168015610a3e5780820380516001836020036101000a031916815260200191505b50848103825285518152855160209182019187019080838360005b83811015610a71578181015183820152602001610a59565b50505050905090810190601f168015610a9e5780820380516001836020036101000a031916815260200191505b5098505050505050505050600060405180830381600087803b158015610ac357600080fd5b505af1158015610ad7573d6000803e3d6000fd5b50506040805160016020820152818152602c818301527f4372656174696e6720636f6e746e65742c206c6f7665206d616368696e65206860608201527f61732063616c6c65642064730000000000000000000000000000000000000000608082015290517f94d0a093377a101d5273778eb97c4078f231a24825316d77d684c2c25ab4fcda93509081900360a0019150a1506001949350505050565b600080546040805160e060020a634209fff102815233600482015290518392600160a060020a031691634209fff191602480830192602092919082900301818787803b158015610bc257600080fd5b505af1158015610bd6573d6000803e3d6000fd5b505050506040513d6020811015610bec57600080fd5b50519050801515610bfc57600080fd5b60008054604080517f6db08bd7000000000000000000000000000000000000000000000000000000008152336004820152602481018790529051600160a060020a0390921692636db08bd7926044808401936020939083900390910190829087803b15801561084e57600080fd5b60008054604080517f4604920f0000000000000000000000000000000000000000000000000000000081523360048201526509184e72a000340460248201819052915191928492600160a060020a0390911691634604920f91604480830192602092919082900301818787803b158015610ce357600080fd5b505af1158015610cf7573d6000803e3d6000fd5b505050506040513d6020811015610d0d57600080fd5b505193925050505600a165627a7a72305820bc6e53b488a9fd7e4bad8cc3adbaf465df19c0f21cfcfbf5ba0f15fdf76a89ba0029",
  "source": "pragma solidity 0.4.24;\r\n\r\nimport \"./DataStorage.sol\";\r\nimport \"./Register.sol\";\r\nimport \"./User.sol\";\r\nimport \"./ContentCreator.sol\";\r\n\r\ncontract LoveMachine {\r\n    DataStorage dataStorage;\r\n    address owner;\r\n    \r\n    enum viewsUsed {LIKED, LOVED, FANLOVED}\r\n\r\n    bool emergencyStop = false;\r\n    bool pause = false;\r\n    bool callOnce = false;\r\n\r\n    //Ensures only the owner can call the function.\r\n    modifier onlyOwner {\r\n        require(msg.sender == owner);\r\n        _;\r\n    }\r\n\r\n    //Ensures that the function will not work in emergency.\r\n    modifier stopInEmergency() {\r\n        require(!emergencyStop);\r\n        _;\r\n    }\r\n\r\n    //Ensures the contract dose not work untill it is set up.\r\n    modifier pauseModifier {\r\n        require(!pause);\r\n        _;\r\n    }\r\n    \r\n    //Ensures set up only ever runs once. \r\n    modifier onlyCallOnce {\r\n        require(!callOnce, \"This contract has already been set up\");\r\n        _;\r\n    }\r\n    \r\n    //Ensures only a user can call this function. \r\n    modifier onlyAUser {\r\n        bool user = dataStorage.isUser(msg.sender);\r\n        require(user);\r\n        _;\r\n    }\r\n    \r\n    //Ensures address is that of a users.\r\n    modifier onlyAUserAddress(address _addressToCheck) {\r\n        bool user = dataStorage.isUser(_addressToCheck);\r\n        require(user, \"Address is not a user\");\r\n        _;\r\n    }\r\n    \r\n    //Ensures only a creator can call this function.\r\n    modifier onlyACreator {\r\n        bool creator = dataStorage.isCreator(msg.sender);\r\n        require(creator);\r\n        _;\r\n    }\r\n    \r\n    //Ensures address is that of a creators. \r\n    modifier onlyACreatorAddress(address _addressToCheck) {\r\n        bool creator = dataStorage.isCreator(_addressToCheck);\r\n        require(creator);\r\n        _;\r\n    }\r\n\r\n    //Ensures only the owner or register can call the function. \r\n    modifier ownerOrRegister {\r\n        require(\r\n            msg.sender == owner || msg.sender == dataStorage.registryAddress(),\r\n            \"Function can only be called by the owner or the register.\"\r\n        );\r\n        _;\r\n    }\r\n\r\n    /**\r\n      *@dev Called by the owner to create an instance of this contract.\r\n      */\r\n    constructor(address _dataStorage) \r\n        public\r\n    {\r\n        dataStorage = DataStorage(_dataStorage);\r\n        owner =  dataStorage.owner();\r\n    }\r\n\r\n    /** \r\n      * @return uint the balance of this contract\r\n      */\r\n    function getBalance()\r\n        public\r\n        view\r\n        returns(uint)\r\n    {\r\n        return address(this).balance;\r\n    }\r\n\r\n    /**\r\n      * @dev Allows only user contracts to buy views. \r\n      * @return bool : If the proccess was successful.\r\n      */\r\n    function buyViews()\r\n        public\r\n        payable\r\n        //onlyAUser\r\n        returns(bool)\r\n    {\r\n        uint amountPossible = msg.value / 10**13;\r\n        bool updated = dataStorage.buyViewsSave(msg.sender, amountPossible);\r\n        return updated;\r\n    }\r\n    \r\n    /**\r\n      * @dev Allows only user contracts to sell views.\r\n      * @return bool : If the transfer was successful.\r\n      */\r\n    function sellViews(uint _amount)\r\n        public\r\n        // onlyAUser\r\n        returns(bool)\r\n    {\r\n        uint weiValue = _amount * 10**13;\r\n        bool viewsSold = dataStorage.sellViewsSave(msg.sender, _amount);\r\n        //msg.sender.transfer(weiValue);\r\n        \r\n        return viewsSold;\r\n    }\r\n    \r\n    /**\r\n      * @dev Allows a user to transfer views from their user account \r\n      *     to their creator account.\r\n      * @notice This is needed as a creator dose not have the functionality\r\n      *     of a user. \r\n      * @param _amount : The amount of views they wish to transfer.\r\n      * @return bool : If the transaction was successful.\r\n      */\r\n    function TransferViewsToCreatorAccount(uint _amount)\r\n        public\r\n        onlyAUser\r\n        returns(bool)\r\n    {\r\n        dataStorage.fromUserToCreator(msg.sender, _amount);\r\n        \r\n        return true;\r\n    }\r\n\r\n    /**\r\n      * @dev Allows a creator to send views back to their user acount. \r\n      * @notice This functionality is needed if the creator wants \r\n      *     to sell their views. \r\n      */\r\n    function TransferViewsToUserAccount(uint _amount)\r\n        public\r\n        onlyAUser\r\n        returns(bool)\r\n    {\r\n        dataStorage.fromCreatorToUser(msg.sender, _amount);\r\n        \r\n        return true;\r\n    }\r\n    \r\n    /**\r\n      * @dev Allows a user to like content. \r\n      * @param _contentCreator : The content the user is liking's creator. \r\n      *     _userConsumer : The user who is liking the content. \r\n      */\r\n    function liked(address _contentCreator, address _userConsumer)\r\n        public\r\n        //onlyAUser\r\n    {\r\n        dataStorage.storingLikes(DataStorage.ViewsUsed.LIKED, _contentCreator, _userConsumer);\r\n    }\r\n\r\n    /**\r\n      * @dev Allows a user to love content. \r\n      * @param _contentCreator : The content the user is loving's creator. \r\n      *     _userConsumer : The user who is loving the content. \r\n      */\r\n    function loved(address _contentCreator, address _userConsumer)\r\n        public\r\n        onlyAUser\r\n    {\r\n        dataStorage.storingLikes(DataStorage.ViewsUsed.LOVED, _contentCreator, _userConsumer);\r\n    }\r\n    \r\n    /**\r\n      * @dev Allows a user to love content. \r\n      * @param _contentCreator : The content the user is fan loving's creator. \r\n      *     _userConsumer : The user who is fan loving the content. \r\n      */\r\n    function fanLoved(address _contentCreator, address _userConsumer)\r\n        public\r\n        onlyAUser\r\n    {\r\n        dataStorage.storingLikes(DataStorage.ViewsUsed.FANLOVED, _contentCreator, _userConsumer);\r\n    }\r\n\r\n    event LogIsUser(string usedIn, bool passed);\r\n    //TO REMOVE\r\n    \r\n    /**\r\n      * @dev Allows a creator to create content. \r\n      * @param _addressIPFS : The address of the content in IPFS. \r\n      *     _title : The title of the content. \r\n      *     _description : The 'About' of the content. \r\n      * @return bool : If the transaction was successful. \r\n      */\r\n    function createContentMinter(\r\n        address _owner,\r\n        string _addressIPFS, \r\n        string _title, \r\n        string _description\r\n        ) \r\n        public\r\n        // onlyACreator\r\n        returns(bool)\r\n    {\r\n        emit LogIsUser(\"Creating contnet, love machine calling ds\", false);\r\n        dataStorage.createContent(_owner, msg.sender, _addressIPFS, _title, _description);\r\n        emit LogIsUser(\"Creating contnet, love machine has called ds\", true);\r\n        return true; \r\n    }\r\n\r\n    /**\r\n      * @dev Allows the register or owner to replace the minter by kiling it. \r\n      * @notice All the other kill's for contract factories send their \r\n      *     value to this contract, but when this contract is destroyed it \r\n      *     sends its value to the owner. \r\n      */\r\n    function kill() \r\n        public \r\n        ownerOrRegister \r\n    {\r\n        selfdestruct(owner);\r\n    }\r\n}",
  "sourcePath": "C:\\Users\\Veronica Coutts\\Desktop\\Desktop\\Work\\Web3 Projects\\MVP\\contracts\\LoveMachine.sol",
  "compiler": {
    "name": "solc",
    "version": "0.4.24+commit.e67f0147.Emscripten.clang"
  },
  "schemaVersion": "2.0.1",
  "updatedAt": "2018-08-27T19:59:36.659Z"
}