{
  "contractName": "Register",
  "abi": [
    {
      "constant": true,
      "inputs": [],
      "name": "backendContentCreatorFactory",
      "outputs": [
        {
          "name": "",
          "type": "address"
        }
      ],
      "payable": false,
      "stateMutability": "view",
      "type": "function"
    },
    {
      "constant": true,
      "inputs": [],
      "name": "emergencyStop",
      "outputs": [
        {
          "name": "",
          "type": "bool"
        }
      ],
      "payable": false,
      "stateMutability": "view",
      "type": "function"
    },
    {
      "constant": true,
      "inputs": [],
      "name": "pause",
      "outputs": [
        {
          "name": "",
          "type": "bool"
        }
      ],
      "payable": false,
      "stateMutability": "view",
      "type": "function"
    },
    {
      "constant": true,
      "inputs": [],
      "name": "backendMinter",
      "outputs": [
        {
          "name": "",
          "type": "address"
        }
      ],
      "payable": false,
      "stateMutability": "view",
      "type": "function"
    },
    {
      "constant": true,
      "inputs": [],
      "name": "owner",
      "outputs": [
        {
          "name": "",
          "type": "address"
        }
      ],
      "payable": false,
      "stateMutability": "view",
      "type": "function"
    },
    {
      "constant": true,
      "inputs": [],
      "name": "backendUserFactory",
      "outputs": [
        {
          "name": "",
          "type": "address"
        }
      ],
      "payable": false,
      "stateMutability": "view",
      "type": "function"
    },
    {
      "inputs": [
        {
          "name": "_backendUserFactory",
          "type": "address"
        },
        {
          "name": "_backendContentCreatorFactory",
          "type": "address"
        },
        {
          "name": "_backendMinter",
          "type": "address"
        },
        {
          "name": "_owner",
          "type": "address"
        },
        {
          "name": "_dataStorage",
          "type": "address"
        }
      ],
      "payable": false,
      "stateMutability": "nonpayable",
      "type": "constructor"
    },
    {
      "anonymous": false,
      "inputs": [
        {
          "indexed": false,
          "name": "newContract",
          "type": "address"
        },
        {
          "indexed": false,
          "name": "oldContract",
          "type": "address"
        }
      ],
      "name": "LogNewUserFactory",
      "type": "event"
    },
    {
      "anonymous": false,
      "inputs": [
        {
          "indexed": false,
          "name": "_newContentCreatorFactory",
          "type": "address"
        },
        {
          "indexed": false,
          "name": "backendContentCreatorFactory",
          "type": "address"
        }
      ],
      "name": "LogNewContract",
      "type": "event"
    },
    {
      "constant": false,
      "inputs": [
        {
          "name": "_newUserFactory",
          "type": "address"
        }
      ],
      "name": "changeUserFactory",
      "outputs": [
        {
          "name": "",
          "type": "bool"
        }
      ],
      "payable": false,
      "stateMutability": "nonpayable",
      "type": "function"
    },
    {
      "constant": true,
      "inputs": [],
      "name": "getUserFactory",
      "outputs": [
        {
          "name": "",
          "type": "address"
        }
      ],
      "payable": false,
      "stateMutability": "view",
      "type": "function"
    },
    {
      "constant": false,
      "inputs": [
        {
          "name": "_newContentCreatorFactory",
          "type": "address"
        }
      ],
      "name": "changeContentCreatorFactory",
      "outputs": [
        {
          "name": "",
          "type": "bool"
        }
      ],
      "payable": false,
      "stateMutability": "nonpayable",
      "type": "function"
    },
    {
      "constant": true,
      "inputs": [],
      "name": "getContentCreatorFactory",
      "outputs": [
        {
          "name": "",
          "type": "address"
        }
      ],
      "payable": false,
      "stateMutability": "view",
      "type": "function"
    },
    {
      "constant": false,
      "inputs": [
        {
          "name": "_newMinter",
          "type": "address"
        }
      ],
      "name": "changeMinter",
      "outputs": [
        {
          "name": "",
          "type": "bool"
        }
      ],
      "payable": false,
      "stateMutability": "nonpayable",
      "type": "function"
    },
    {
      "constant": true,
      "inputs": [],
      "name": "getMinter",
      "outputs": [
        {
          "name": "",
          "type": "address"
        }
      ],
      "payable": false,
      "stateMutability": "view",
      "type": "function"
    },
    {
      "constant": false,
      "inputs": [
        {
          "name": "_newRegister",
          "type": "address"
        }
      ],
      "name": "kill",
      "outputs": [],
      "payable": false,
      "stateMutability": "nonpayable",
      "type": "function"
    }
  ],
  "bytecode": "0x6080604052600a805460b060020a60ff021960a060020a61ffff021990911675010000000000000000000000000000000000000000001716905534801561004557600080fd5b5060405160a080610a3283398101604090815281516020830151918301516060840151608090940151600a805460008054600160a060020a03948516600160a060020a03199182161790915560048054968516968216871790556001805482169096179095556006805496841696861687179055600280548616909617909555600880549383169385168417905560038054851690931790925560a860020a60ff02199416919092161791909116905561092e806101046000396000f3006080604052600436106100ab5763ffffffff60e060020a60003504166321815e3681146100b05780632c4d4d18146100e55780633c093d5a14610106578063490775bd1461013757806359ebee861461014c57806363a599a41461016d5780638456cb59146101825780638a8603bb146101975780638da5cb5b146101ac578063cbf0b0c0146101c1578063d315d974146101e4578063e1d55155146101f9578063f36675171461020e575b600080fd5b3480156100bc57600080fd5b506100d1600160a060020a0360043516610223565b604080519115158252519081900360200190f35b3480156100f157600080fd5b506100d1600160a060020a03600435166103d4565b34801561011257600080fd5b5061011b61057e565b60408051600160a060020a039092168252519081900360200190f35b34801561014357600080fd5b5061011b61058d565b34801561015857600080fd5b506100d1600160a060020a036004351661059c565b34801561017957600080fd5b506100d1610745565b34801561018e57600080fd5b506100d1610766565b3480156101a357600080fd5b5061011b610776565b3480156101b857600080fd5b5061011b610785565b3480156101cd57600080fd5b506101e2600160a060020a0360043516610794565b005b3480156101f057600080fd5b5061011b6108d5565b34801561020557600080fd5b5061011b6108e4565b34801561021a57600080fd5b5061011b6108f3565b600a5460009074010000000000000000000000000000000000000000900460ff161561024e57600080fd5b600a5460a860020a900460ff161561026557600080fd5b6000809054906101000a9004600160a060020a0316600160a060020a0316638456cb596040518163ffffffff1660e060020a028152600401602060405180830381600087803b1580156102b757600080fd5b505af11580156102cb573d6000803e3d6000fd5b505050506040513d60208110156102e157600080fd5b5051156102ed57600080fd5b600454600160a060020a038381169116146103cb5760045460408051600160a060020a038086168252909216602083015280517f551060e17116e4c03a5cb1beee4a599abe03db9e44126cc5b3e6215d7afde0819281900390910190a1506004805460058054600181810183556000929092527f036b6384b5eca791c62761152d0c79bb0604c104a5fb6f4eb0703f3154bb3db001805473ffffffffffffffffffffffffffffffffffffffff19908116600160a060020a039485161790915583548584169082161793849055815416929091169190911781556103cf565b5060005b919050565b600a5460009074010000000000000000000000000000000000000000900460ff16156103ff57600080fd5b600a5460a860020a900460ff161561041657600080fd5b6000809054906101000a9004600160a060020a0316600160a060020a0316638456cb596040518163ffffffff1660e060020a028152600401602060405180830381600087803b15801561046857600080fd5b505af115801561047c573d6000803e3d6000fd5b505050506040513d602081101561049257600080fd5b50511561049e57600080fd5b600854600160a060020a038381169116146103cb5760085460408051600160a060020a038086168252909216602083015280517f551060e17116e4c03a5cb1beee4a599abe03db9e44126cc5b3e6215d7afde0819281900390910190a1506008805460098054600180820183556000929092527f6e1540171b6c0c960b71a7020d9f60077f6af931a8bbf590da0223dacf75c7af018054600160a060020a0393841673ffffffffffffffffffffffffffffffffffffffff1991821617909155835481168584161793849055600380549490931693169290921790556103cf565b600654600160a060020a031690565b600654600160a060020a031681565b600a5460009074010000000000000000000000000000000000000000900460ff16156105c757600080fd5b600a5460a860020a900460ff16156105de57600080fd5b6000809054906101000a9004600160a060020a0316600160a060020a0316638456cb596040518163ffffffff1660e060020a028152600401602060405180830381600087803b15801561063057600080fd5b505af1158015610644573d6000803e3d6000fd5b505050506040513d602081101561065a57600080fd5b50511561066657600080fd5b600654600160a060020a038381169116146103cb5760065460408051600160a060020a038086168252909216602083015280517f551060e17116e4c03a5cb1beee4a599abe03db9e44126cc5b3e6215d7afde0819281900390910190a15060045460078054600180820183556000929092527fa66cc928b5edb82af9bd49922954155ab7b0942694bea4ce44661d9a8736c688018054600160a060020a0393841673ffffffffffffffffffffffffffffffffffffffff1991821617909155600680548216858516179081905560028054919094169116179091556103cf565b600a5474010000000000000000000000000000000000000000900460ff1681565b600a5460a860020a900460ff1681565b600854600160a060020a031681565b600a54600160a060020a031681565b600a54600160a060020a031633146107ab57600080fd5b600a5460a860020a900460ff16156107c257600080fd5b6000809054906101000a9004600160a060020a0316600160a060020a0316638456cb596040518163ffffffff1660e060020a028152600401602060405180830381600087803b15801561081457600080fd5b505af1158015610828573d6000803e3d6000fd5b505050506040513d602081101561083e57600080fd5b50511561084a57600080fd5b60008054604080517f76fc2b6e000000000000000000000000000000000000000000000000000000008152600160a060020a038581166004830152915191909216926376fc2b6e926024808201939182900301818387803b1580156108ae57600080fd5b505af11580156108c2573d6000803e3d6000fd5b5050600a54600160a060020a0316915050ff5b600454600160a060020a031681565b600454600160a060020a031690565b600854600160a060020a0316905600a165627a7a72305820846d366aff9adce59d634cdb152a1d2ceda49fd255c68a3aaa671c5162e551ad0029",
  "source": "pragma solidity 0.4.24;\r\n\r\n\r\nimport \"./DataStorage.sol\";\r\nimport \"./UserFactory.sol\";\r\nimport \"./ContentCreatorFactory.sol\";\r\nimport \"./LoveMachine.sol\";\r\n\r\ncontract Register {\r\n    DataStorage dataStorage;\r\n    UserFactory userFactory;\r\n    ContentCreatorFactory ccFactory;\r\n    LoveMachine minter;\r\n\r\n    address public backendUserFactory;\r\n    address[] previousUserFactories;\r\n    address public backendContentCreatorFactory;\r\n    address[] previousContentCreatorFactories;\r\n    address public backendMinter;\r\n    address[] previousMinters;\r\n    address public owner;\r\n\r\n    bool public emergencyStop = false;\r\n    bool public pause = true;\r\n    bool callOnce = false;\r\n\r\n    event LogNewUserFactory(address newContract, address oldContract);\r\n    event LogNewContract(\r\n        address _newContentCreatorFactory, \r\n        address backendContentCreatorFactory\r\n    );\r\n\r\n    //Restricts functions use to when there is an emergency \r\n    modifier onlyInEmergency {\r\n        require(emergencyStop);\r\n        _;\r\n    }\r\n    \r\n    //Restricts functions to only when there is not an emergency.\r\n    modifier stopInEmergency {\r\n        require(!emergencyStop);\r\n        _;\r\n    }\r\n    \r\n    //pauses all functionality untill contract set up is compleate.\r\n    modifier pauseFunction {\r\n        require(!pause);\r\n        require(!dataStorage.pause());\r\n        _;\r\n    }\r\n    \r\n    //This allows the set up to only run once.\r\n    modifier onlyCallOnce {\r\n        require(!callOnce, \"This contract has already been set up\");\r\n        _;\r\n    }\r\n\r\n    //Restricts the function to only be called by the owner.\r\n    modifier onlyOwner {\r\n        require(msg.sender == owner);\r\n        _;\r\n    }\r\n\r\n    //The empty constructor function allowing for the address to be created.\r\n    constructor(\r\n        address _backendUserFactory, \r\n        address _backendContentCreatorFactory, \r\n        address _backendMinter, \r\n        address _owner,\r\n        address _dataStorage\r\n        ) \r\n        public \r\n    {\r\n        owner = _owner;\r\n        dataStorage = DataStorage(_dataStorage);\r\n        backendUserFactory = _backendUserFactory;\r\n        userFactory = UserFactory(_backendUserFactory);\r\n        backendContentCreatorFactory = _backendContentCreatorFactory;\r\n        ccFactory = ContentCreatorFactory(_backendContentCreatorFactory);\r\n        backendMinter = _backendMinter;\r\n        minter = LoveMachine(_backendMinter);\r\n        \r\n        pause = false;\r\n    }\r\n    \r\n    /**\r\n      * @dev Allows the owner to upgrade the UserFactory contract by entering the new address\r\n      *     into this method.\r\n      * @param _newUserFactory : The address of the new UserFactory address.\r\n      * @return bool Letting the owner know if it successfully updated the UserFactory. \r\n      */\r\n    function changeUserFactory(address _newUserFactory) \r\n        public\r\n        //onlyOwner()\r\n        stopInEmergency\r\n        pauseFunction\r\n        returns(bool) \r\n    {\r\n        if(_newUserFactory != backendUserFactory) {\r\n            \r\n            emit LogNewContract(_newUserFactory, backendUserFactory);\r\n            \r\n            previousUserFactories.push(backendUserFactory);\r\n            // userFactory.kill(backendUserFactory);\r\n            backendUserFactory = _newUserFactory;\r\n            userFactory = UserFactory(backendUserFactory);\r\n            // dataStorage.registryUpdateUserFactory(backendUserFactory);\r\n            return true;\r\n        }\r\n        return false;\r\n    }\r\n    \r\n    /**\r\n      * @return address The address of the current userFactory.\r\n      */\r\n    function getUserFactory()\r\n        public\r\n        view\r\n        returns(address)\r\n    {\r\n        return backendUserFactory;\r\n    }\r\n\r\n    /**\r\n      * @dev Allows the owner to upgrade the ContentCreatorFactory contract by entering \r\n      *     the new address into this method.\r\n      * @param _newContentCreatorFactory : The address of the new ContentCreatorFactory \r\n      *         address.\r\n      * @return bool Letting the owner know if it successfully updated the \r\n      *     ContentCreatorFactory. \r\n      */\r\n    function changeContentCreatorFactory(address _newContentCreatorFactory) \r\n        public\r\n        // onlyOwner()\r\n        stopInEmergency\r\n        pauseFunction\r\n        returns(bool) \r\n    {\r\n        if(_newContentCreatorFactory != backendContentCreatorFactory) {\r\n            \r\n            emit LogNewContract(\r\n                _newContentCreatorFactory, \r\n                backendContentCreatorFactory\r\n            );\r\n            \r\n            previousContentCreatorFactories.push(backendUserFactory);\r\n            // ccFactory.kill(backendMinter);\r\n            backendContentCreatorFactory = _newContentCreatorFactory;\r\n            ccFactory = ContentCreatorFactory(backendContentCreatorFactory);\r\n            // dataStorage.registryUpdateCCFactory(backendContentCreatorFactory);\r\n            return true;\r\n        }\r\n        return false;\r\n    }\r\n    \r\n    /**\r\n      * @return address The address of the current contentCreatorFactory.\r\n      */\r\n    function getContentCreatorFactory()\r\n        public\r\n        view\r\n        returns(address)\r\n    {\r\n        return backendContentCreatorFactory;\r\n    }\r\n\r\n    /**\r\n      * @dev Allows the owner to upgrade the Minter contract by entering  the \r\n      *     new address into this method.\r\n      * @param _newMinter : The address of the new Minter \r\n      *         address.\r\n      * @return bool Letting the owner know if it successfully updated the \r\n      *     Minter. \r\n      */\r\n    function changeMinter(address _newMinter) \r\n        public\r\n        // onlyOwner()\r\n        stopInEmergency\r\n        pauseFunction\r\n        returns(bool) \r\n    {\r\n        if(_newMinter != backendMinter) {\r\n            \r\n            emit LogNewContract(_newMinter, backendMinter);\r\n            \r\n            previousMinters.push(backendMinter);\r\n            // ccFactory.kill(_newMinter);\r\n            backendMinter = _newMinter;\r\n            minter = LoveMachine(backendMinter);\r\n            // dataStorage.registryUpdateMinter(backendMinter);\r\n            return true;\r\n        }\r\n        return false;\r\n    }\r\n    \r\n    /**\r\n      * @return address The address of the current Minter.\r\n      */\r\n    function getMinter()\r\n        public\r\n        view\r\n        returns(address)\r\n    {\r\n        return backendMinter;\r\n    }\r\n    \r\n    /**\r\n      * @dev Only callable by the onwer, this allows the owner to\r\n      *     upgrade the register itself. Calling this function may require \r\n      *     some set up to be changed in the fornt end, for example the \r\n      *     front ends pointer to the current Register. \r\n      * @param _newRegister : The address of the replacing register. \r\n      */\r\n    function kill(address _newRegister) \r\n        public\r\n        onlyOwner\r\n        pauseFunction\r\n    {\r\n        dataStorage.updateRegister(_newRegister);\r\n        selfdestruct(owner);\r\n    }\r\n}\r\n",
  "sourcePath": "C:\\Users\\Veronica Coutts\\Desktop\\Desktop\\Work\\Web3 Projects\\MVP\\contracts\\Register.sol",
  "compiler": {
    "name": "solc",
    "version": "0.4.24+commit.e67f0147.Emscripten.clang"
  },
  "schemaVersion": "2.0.1",
  "updatedAt": "2018-08-27T19:59:36.662Z"
}