{
  "contractName": "UserFactory",
  "abi": [
    {
      "constant": true,
      "inputs": [
        {
          "name": "",
          "type": "uint256"
        }
      ],
      "name": "userAddresses",
      "outputs": [
        {
          "name": "",
          "type": "address"
        }
      ],
      "payable": false,
      "stateMutability": "view",
      "type": "function"
    },
    {
      "constant": true,
      "inputs": [],
      "name": "emergencyStop",
      "outputs": [
        {
          "name": "",
          "type": "bool"
        }
      ],
      "payable": false,
      "stateMutability": "view",
      "type": "function"
    },
    {
      "constant": true,
      "inputs": [],
      "name": "pause",
      "outputs": [
        {
          "name": "",
          "type": "bool"
        }
      ],
      "payable": false,
      "stateMutability": "view",
      "type": "function"
    },
    {
      "inputs": [
        {
          "name": "_dataStorage",
          "type": "address"
        },
        {
          "name": "_owner",
          "type": "address"
        },
        {
          "name": "_ccFactory",
          "type": "address"
        }
      ],
      "payable": false,
      "stateMutability": "nonpayable",
      "type": "constructor"
    },
    {
      "anonymous": false,
      "inputs": [
        {
          "indexed": false,
          "name": "_userAddress",
          "type": "address"
        },
        {
          "indexed": false,
          "name": "_contractAddress",
          "type": "address"
        }
      ],
      "name": "LogCreatedUser",
      "type": "event"
    },
    {
      "constant": true,
      "inputs": [],
      "name": "getMinter",
      "outputs": [
        {
          "name": "",
          "type": "address"
        }
      ],
      "payable": false,
      "stateMutability": "view",
      "type": "function"
    },
    {
      "constant": true,
      "inputs": [],
      "name": "getContentCreatorFactory",
      "outputs": [
        {
          "name": "",
          "type": "address"
        }
      ],
      "payable": false,
      "stateMutability": "view",
      "type": "function"
    },
    {
      "constant": true,
      "inputs": [],
      "name": "isCreator",
      "outputs": [
        {
          "name": "",
          "type": "bool"
        }
      ],
      "payable": false,
      "stateMutability": "view",
      "type": "function"
    },
    {
      "constant": true,
      "inputs": [],
      "name": "getCreatorAddress",
      "outputs": [
        {
          "name": "",
          "type": "address"
        }
      ],
      "payable": false,
      "stateMutability": "view",
      "type": "function"
    },
    {
      "constant": true,
      "inputs": [],
      "name": "getDataStorageAddress",
      "outputs": [
        {
          "name": "",
          "type": "address"
        }
      ],
      "payable": false,
      "stateMutability": "view",
      "type": "function"
    },
    {
      "constant": false,
      "inputs": [
        {
          "name": "_userName",
          "type": "string"
        }
      ],
      "name": "createUser",
      "outputs": [
        {
          "name": "",
          "type": "address"
        }
      ],
      "payable": false,
      "stateMutability": "nonpayable",
      "type": "function"
    },
    {
      "constant": false,
      "inputs": [
        {
          "name": "_contractAddress",
          "type": "address"
        }
      ],
      "name": "deleteUserFinal",
      "outputs": [
        {
          "name": "",
          "type": "bool"
        }
      ],
      "payable": false,
      "stateMutability": "nonpayable",
      "type": "function"
    },
    {
      "constant": false,
      "inputs": [
        {
          "name": "_minter",
          "type": "address"
        }
      ],
      "name": "kill",
      "outputs": [],
      "payable": false,
      "stateMutability": "nonpayable",
      "type": "function"
    }
  ],
  "bytecode": "0x60806040526007805462ffffff1916905534801561001c57600080fd5b506040516060806118d7833981018060405261003b919081019061009d565b60038054600160a060020a03948516600160a060020a031991821681179092556000805482169092179091556005805493851693821693909317909255600280549190931691161790556100f6565b600061009682516100ea565b9392505050565b6000806000606084860312156100b257600080fd5b60006100be868661008a565b93505060206100cf8682870161008a565b92505060406100e08682870161008a565b9150509250925092565b600160a060020a031690565b6117d2806101056000396000f3006080604052600436106100955763ffffffff60e060020a6000350416633c093d5a811461009a578063502c9bd5146100c5578063507ffba5146100e5578063638f83601461010557806363a599a41461011a5780638456cb591461013c57806394d2d7a714610151578063cbf0b0c014610166578063cd189e2b14610188578063ee92d484146101a8578063f3667517146101bd575b600080fd5b3480156100a657600080fd5b506100af6101d2565b6040516100bc9190610a89565b60405180910390f35b3480156100d157600080fd5b506100af6100e0366004610a1e565b610263565b3480156100f157600080fd5b506100af6101003660046109b4565b61028b565b34801561011157600080fd5b506100af610455565b34801561012657600080fd5b5061012f610464565b6040516100bc9190610af3565b34801561014857600080fd5b5061012f61046d565b34801561015d57600080fd5b506100af61047b565b34801561017257600080fd5b50610186610181366004610952565b6104df565b005b34801561019457600080fd5b5061012f6101a3366004610952565b6104eb565b3480156101b457600080fd5b5061012f610781565b3480156101c957600080fd5b506100af61081d565b60008060009054906101000a9004600160a060020a0316600160a060020a031663cd8c43b66040518163ffffffff1660e060020a028152600401602060405180830381600087803b15801561022657600080fd5b505af115801561023a573d6000803e3d6000fd5b505050506040513d601f19601f8201168201806040525061025e9190810190610978565b905090565b600680548290811061027157fe5b600091825260209091200154600160a060020a0316905081565b600754600090819060ff16156102a057600080fd5b600754610100900460ff16156102b557600080fd5b6000809054906101000a9004600160a060020a0316600160a060020a0316638456cb596040518163ffffffff1660e060020a028152600401602060405180830381600087803b15801561030757600080fd5b505af115801561031b573d6000803e3d6000fd5b505050506040513d601f19601f8201168201806040525061033f9190810190610996565b1561034957600080fd5b3383610353610871565b61035e929190610ad3565b604051809103906000f08015801561037a573d6000803e3d6000fd5b506006805460018101825560009182527ff652222313e28459528d920b65115c16c04f3efc82aaedc97be59f3f377c0d3f01805473ffffffffffffffffffffffffffffffffffffffff1916600160a060020a038481169190911790915590546040517fccaf9553000000000000000000000000000000000000000000000000000000008152929350169063ccaf95539061041c90339085908890600401610a9d565b600060405180830381600087803b15801561043657600080fd5b505af115801561044a573d6000803e3d6000fd5b509295945050505050565b600354600160a060020a031690565b60075460ff1681565b600754610100900460ff1681565b600080546040517fb7acf7c3000000000000000000000000000000000000000000000000000000008152600160a060020a039091169063b7acf7c3906104c5903390600401610a89565b602060405180830381600087803b15801561022657600080fd5b80600160a060020a0316ff5b60075460009060609060ff161561050157600080fd5b600754610100900460ff161561051657600080fd5b6000809054906101000a9004600160a060020a0316600160a060020a0316638456cb596040518163ffffffff1660e060020a028152600401602060405180830381600087803b15801561056857600080fd5b505af115801561057c573d6000803e3d6000fd5b505050506040513d601f19601f820116820180604052506105a09190810190610996565b156105aa57600080fd5b33600160a060020a038416146105bf57600080fd5b6000546040517f64015cc9000000000000000000000000000000000000000000000000000000008152600160a060020a03909116906364015cc990610608908690600401610a89565b600060405180830381600087803b15801561062257600080fd5b505af1158015610636573d6000803e3d6000fd5b505050506040513d6000823e601f3d908101601f1916820160405261065e91908101906109e9565b6000546040517fb96275fb000000000000000000000000000000000000000000000000000000008152919250600160a060020a03169063819ad02790829063b96275fb906106b0908890600401610a89565b602060405180830381600087803b1580156106ca57600080fd5b505af11580156106de573d6000803e3d6000fd5b505050506040513d601f19601f820116820180604052506107029190810190610978565b85846040518463ffffffff1660e060020a02815260040161072593929190610a9d565b602060405180830381600087803b15801561073f57600080fd5b505af1158015610753573d6000803e3d6000fd5b505050506040513d601f19601f820116820180604052506107779190810190610996565b5060019392505050565b600080546040517fefd46065000000000000000000000000000000000000000000000000000000008152600160a060020a039091169063efd46065906107cb903390600401610a89565b602060405180830381600087803b1580156107e557600080fd5b505af11580156107f9573d6000803e3d6000fd5b505050506040513d601f19601f8201168201806040525061025e9190810190610996565b60008060009054906101000a9004600160a060020a0316600160a060020a03166334d722c96040518163ffffffff1660e060020a028152600401602060405180830381600087803b15801561022657600080fd5b604051610bea80610baf83390190565b600061088d8235610b54565b9392505050565b600061088d8251610b54565b600061088d8251610b60565b6000601f820183136108bd57600080fd5b81356108d06108cb82610b28565b610b01565b915080825260208301602083018583830111156108ec57600080fd5b6108f7838284610b68565b50505092915050565b6000601f8201831361091157600080fd5b815161091f6108cb82610b28565b9150808252602083016020830185838301111561093b57600080fd5b6108f7838284610b74565b600061088d8235610b65565b60006020828403121561096457600080fd5b60006109708484610881565b949350505050565b60006020828403121561098a57600080fd5b60006109708484610894565b6000602082840312156109a857600080fd5b600061097084846108a0565b6000602082840312156109c657600080fd5b813567ffffffffffffffff8111156109dd57600080fd5b610970848285016108ac565b6000602082840312156109fb57600080fd5b815167ffffffffffffffff811115610a1257600080fd5b61097084828501610900565b600060208284031215610a3057600080fd5b60006109708484610946565b610a4581610b54565b82525050565b610a4581610b60565b6000610a5f82610b50565b808452610a73816020860160208601610b74565b610a7c81610ba4565b9093016020019392505050565b60208101610a978284610a3c565b92915050565b60608101610aab8286610a3c565b610ab86020830185610a3c565b8181036040830152610aca8184610a54565b95945050505050565b60408101610ae18285610a3c565b81810360208301526109708184610a54565b60208101610a978284610a4b565b60405181810167ffffffffffffffff81118282101715610b2057600080fd5b604052919050565b600067ffffffffffffffff821115610b3f57600080fd5b506020601f91909101601f19160190565b5190565b600160a060020a031690565b151590565b90565b82818337506000910152565b60005b83811015610b8f578181015183820152602001610b77565b83811115610b9e576000848401525b50505050565b601f01601f1916905600608060405234801561001057600080fd5b50604051610bea380380610bea83398101604052805160208083015160018054600160a060020a031916600160a060020a03851617905542600355909201805191929091610064916002919084019061007e565b505060008054600160a060020a0319163317905550610119565b828054600181600116156101000203166002900490600052602060002090601f016020900481019282601f106100bf57805160ff19168380011785556100ec565b828001600101855582156100ec579182015b828111156100ec5782518255916020019190600101906100d1565b506100f89291506100fc565b5090565b61011691905b808211156100f85760008155600101610102565b90565b610ac2806101286000396000f3006080604052600436106100955763ffffffff60e060020a600035041663026ff05e811461009a5780634cad552b146100c3578063619d5194146100dd57806370019b35146100f75780637e5852d9146101815780638da5cb5b14610196578063a1b181f7146101c7578063afe8c37d146101df578063ca979d50146101f7578063e8380d9b1461021e578063fbfa1c6714610233575b600080fd5b3480156100a657600080fd5b506100af61023b565b604080519115158252519081900360200190f35b3480156100cf57600080fd5b506100db6004356103e2565b005b3480156100e957600080fd5b506100db6004351515610510565b34801561010357600080fd5b5061010c6105b5565b6040805160208082528351818301528351919283929083019185019080838360005b8381101561014657818101518382015260200161012e565b50505050905090810190601f1680156101735780820380516001836020036101000a031916815260200191505b509250505060405180910390f35b34801561018d57600080fd5b506100af610640565b3480156101a257600080fd5b506101ab610649565b60408051600160a060020a039092168252519081900360200190f35b3480156101d357600080fd5b506100db600435610658565b3480156101eb57600080fd5b506100db600435610756565b34801561020357600080fd5b5061020c610854565b60408051918252519081900360200190f35b34801561022a57600080fd5b506101ab61085a565b6100db61096f565b60015460009081908190600160a060020a0316331461025957600080fd5b6000809054906101000a9004600160a060020a0316600160a060020a031663ee92d4846040518163ffffffff1660e060020a028152600401602060405180830381600087803b1580156102ab57600080fd5b505af11580156102bf573d6000803e3d6000fd5b505050506040513d60208110156102d557600080fd5b5051915081156103d4576000809054906101000a9004600160a060020a0316600160a060020a03166394d2d7a76040518163ffffffff1660e060020a028152600401602060405180830381600087803b15801561033157600080fd5b505af1158015610345573d6000803e3d6000fd5b505050506040513d602081101561035b57600080fd5b5051604080517f41c0e1b50000000000000000000000000000000000000000000000000000000081529051919250600160a060020a038316916341c0e1b59160048082019260009290919082900301818387803b1580156103bb57600080fd5b505af11580156103cf573d6000803e3d6000fd5b505050505b600154600160a060020a0316ff5b600154600090600160a060020a031633146103fc57600080fd5b6000809054906101000a9004600160a060020a0316600160a060020a031663f36675176040518163ffffffff1660e060020a028152600401602060405180830381600087803b15801561044e57600080fd5b505af1158015610462573d6000803e3d6000fd5b505050506040513d602081101561047857600080fd5b5051604080517f4cad552b000000000000000000000000000000000000000000000000000000008152600481018590529051919250600160a060020a03831691634cad552b916024808201926020929091908290030181600087803b1580156104e057600080fd5b505af11580156104f4573d6000803e3d6000fd5b505050506040513d602081101561050a57600080fd5b50505050565b6000809054906101000a9004600160a060020a0316600160a060020a031663638f83606040518163ffffffff1660e060020a028152600401602060405180830381600087803b15801561056257600080fd5b505af1158015610576573d6000803e3d6000fd5b505050506040513d602081101561058c57600080fd5b5051600160a060020a031633146105a257600080fd5b6004805460ff1916911515919091179055565b6002805460408051602060018416156101000260001901909316849004601f810184900484028201840190925281815292918301828280156106385780601f1061060d57610100808354040283529160200191610638565b820191906000526020600020905b81548152906001019060200180831161061b57829003601f168201915b505050505081565b60045460ff1690565b600154600160a060020a031681565b600154600090600160a060020a0316331461067257600080fd5b6000809054906101000a9004600160a060020a0316600160a060020a031663f36675176040518163ffffffff1660e060020a028152600401602060405180830381600087803b1580156106c457600080fd5b505af11580156106d8573d6000803e3d6000fd5b505050506040513d60208110156106ee57600080fd5b5051604080517f67526c4d000000000000000000000000000000000000000000000000000000008152600481018590529051919250600160a060020a038316916367526c4d916024808201926020929091908290030181600087803b1580156104e057600080fd5b600154600090600160a060020a0316331461077057600080fd5b6000809054906101000a9004600160a060020a0316600160a060020a031663f36675176040518163ffffffff1660e060020a028152600401602060405180830381600087803b1580156107c257600080fd5b505af11580156107d6573d6000803e3d6000fd5b505050506040513d60208110156107ec57600080fd5b5051604080517fec792932000000000000000000000000000000000000000000000000000000008152600481018590529051919250600160a060020a0383169163ec792932916024808201926020929091908290030181600087803b1580156104e057600080fd5b60035481565b60008060008060009054906101000a9004600160a060020a0316600160a060020a0316633c093d5a6040518163ffffffff1660e060020a028152600401602060405180830381600087803b1580156108b157600080fd5b505af11580156108c5573d6000803e3d6000fd5b505050506040513d60208110156108db57600080fd5b5051604080517fd0b0731c0000000000000000000000000000000000000000000000000000000081529051919350600160a060020a0384169163d0b0731c916004808201926020929091908290030181600087803b15801561093c57600080fd5b505af1158015610950573d6000803e3d6000fd5b505050506040513d602081101561096657600080fd5b50519392505050565b600154600090600160a060020a0316331461098957600080fd5b6000809054906101000a9004600160a060020a0316600160a060020a031663f36675176040518163ffffffff1660e060020a028152600401602060405180830381600087803b1580156109db57600080fd5b505af11580156109ef573d6000803e3d6000fd5b505050506040513d6020811015610a0557600080fd5b5051604080517ffbfa1c670000000000000000000000000000000000000000000000000000000081529051919250600160a060020a0383169163fbfa1c67913491600480830192602092919082900301818588803b158015610a6657600080fd5b505af1158015610a7a573d6000803e3d6000fd5b50505050506040513d6020811015610a9157600080fd5b5050505600a165627a7a72305820d1d1acde4620ba954e7c560ca13b614ef111c8a0b7bfcd43de95d70a20ee08ab0029a265627a7a7230582097335597eca0727692c134f31267ea266c53871d91f6d2116fe184e7ec3e1ba86c6578706572696d656e74616cf50037",
  "source": "pragma solidity 0.4.24;\r\npragma experimental ABIEncoderV2;\r\n\r\nimport \"./DataStorage.sol\";\r\nimport \"./Register.sol\";\r\nimport \"./ContentCreatorFactory.sol\";\r\nimport \"./User.sol\";\r\n\r\ncontract UserFactory {\r\n    DataStorage dataStorage;\r\n    Register register;\r\n    ContentCreatorFactory ccFactory;\r\n    address dataStorageAddress; \r\n    address registerAddress;\r\n    address owner;\r\n    address[] public userAddresses;\r\n\r\n    bool public emergencyStop = false;\r\n    bool public pause = false;\r\n    bool private callOnce = false;\r\n\r\n    event LogCreatedUser(address _userAddress, address _contractAddress);\r\n    \r\n    //Ensures the function is only used in an emergency.\r\n    modifier onlyInEmergency {\r\n        require(emergencyStop);\r\n        _;\r\n    }\r\n    \r\n    //Ensures the function stops in an emergency.\r\n    modifier stopInEmergency {\r\n        require(!emergencyStop);\r\n        _;\r\n    }\r\n    \r\n    //Ensures the function is paused untill set-up.\r\n    modifier pauseFunction {\r\n        require(!pause);\r\n        require(!dataStorage.pause());\r\n        _;\r\n    }\r\n    \r\n    //Ensures the function is only called nce.\r\n    modifier onlyCallOnce {\r\n        require(!callOnce, \"This contract has already been set up\");\r\n        _;\r\n    }\r\n\r\n    //Ensures only the owner can call the function.\r\n    modifier onlyOwner {\r\n        require(msg.sender == owner);\r\n        _;\r\n    }\r\n\r\n    //Ensures only the owner or the register can call this function. \r\n    modifier ownerOrRegister {\r\n        require(msg.sender == owner || msg.sender == dataStorage.registryAddress());\r\n        _;\r\n    }\r\n    \r\n    /**\r\n      * @dev The constructor for the UserFactory. \r\n      */\r\n    constructor(address _dataStorage, address _owner, address _ccFactory) \r\n        public \r\n    {\r\n        dataStorageAddress = _dataStorage;\r\n        dataStorage = DataStorage(_dataStorage);\r\n        owner = _owner;\r\n        ccFactory = ContentCreatorFactory(_ccFactory);\r\n    }\r\n    \r\n    \r\n    /**\r\n      * @return address : The address of the current LoveMahcine.\r\n      */\r\n    function getMinter()\r\n        public\r\n        view\r\n        returns(address)\r\n    {\r\n        return dataStorage.minterAddress();\r\n    }\r\n    \r\n    /**\r\n      * @return address : The current address of the \r\n      *     ContentCreatorFactory. \r\n      */\r\n    function getContentCreatorFactory()\r\n        public\r\n        view\r\n        returns(address)\r\n    {\r\n        return dataStorage.ccFactoryAddress();\r\n    }\r\n    \r\n    /**\r\n      * @return bool : If the msg.sender is a creator. \r\n      */\r\n    function isCreator()\r\n        public \r\n        view\r\n        returns(bool)\r\n    {\r\n        return dataStorage.isCreator(msg.sender);\r\n    }\r\n    \r\n    /**\r\n      * @return address : The address of this users creator \r\n      *     contract. \r\n      */\r\n    function getCreatorAddress()\r\n        public\r\n        view\r\n        returns(address)\r\n    {\r\n        return dataStorage.getCreatorAddressFromUser(msg.sender);\r\n    }\r\n    \r\n    /**\r\n      * @return address : The address of the dataStorage. \r\n      */\r\n    function getDataStorageAddress()\r\n        public\r\n        view \r\n        returns(address)\r\n    {\r\n        return dataStorageAddress;\r\n    }\r\n    \r\n    /**\r\n      * @dev The function that creates a new user.\r\n      * @notice The user name is checked for uniqueness in the \r\n      *     dataStorage. \r\n      *     The contract is created before this and \r\n      * @param _userName : The user name the user has entered. \r\n      * @return address : The address of the new user contract. \r\n      */\r\n    function createUser(string _userName) \r\n        public \r\n        stopInEmergency\r\n        pauseFunction\r\n        returns(address) \r\n    {\r\n        address newUser = new User(msg.sender, _userName);\r\n        userAddresses.push(newUser);\r\n        dataStorage.setNewUserData(msg.sender, newUser, _userName);\r\n        \r\n        return newUser;\r\n    }\r\n    \r\n    function deleteUserFinal(address _contractAddress)\r\n        public \r\n        stopInEmergency\r\n        pauseFunction\r\n        returns(bool) \r\n    {\r\n        require(msg.sender == _contractAddress);\r\n        string memory _userName = dataStorage.getAUsersName(_contractAddress);\r\n        \r\n        //TODO: call minter to send remaining views to contract creator\r\n\r\n        dataStorage.removeUserData(\r\n            dataStorage.getAUsersOwnerData(_contractAddress), \r\n            _contractAddress,\r\n            _userName);\r\n            \r\n            //TODO: needs to check if user is a creator and delete creator too\r\n        return true;\r\n    }\r\n\r\n    function kill(address _minter) \r\n        public \r\n        //ownerOrRegister \r\n    {\r\n        selfdestruct(_minter);\r\n    }\r\n}",
  "sourcePath": "C:\\Users\\Veronica Coutts\\Desktop\\Desktop\\Work\\Web3 Projects\\MVP\\contracts\\UserFactory.sol",
  "compiler": {
    "name": "solc",
    "version": "0.4.24+commit.e67f0147.Emscripten.clang"
  },
  "schemaVersion": "2.0.1",
  "updatedAt": "2018-08-27T19:59:36.670Z"
}