{
  "contractName": "User",
  "abi": [
    {
      "constant": true,
      "inputs": [],
      "name": "userName",
      "outputs": [
        {
          "name": "",
          "type": "string"
        }
      ],
      "payable": false,
      "stateMutability": "view",
      "type": "function"
    },
    {
      "constant": true,
      "inputs": [],
      "name": "owner",
      "outputs": [
        {
          "name": "",
          "type": "address"
        }
      ],
      "payable": false,
      "stateMutability": "view",
      "type": "function"
    },
    {
      "constant": true,
      "inputs": [],
      "name": "joinedDate",
      "outputs": [
        {
          "name": "",
          "type": "uint256"
        }
      ],
      "payable": false,
      "stateMutability": "view",
      "type": "function"
    },
    {
      "inputs": [
        {
          "name": "_userWallet",
          "type": "address"
        },
        {
          "name": "_userName",
          "type": "string"
        }
      ],
      "payable": false,
      "stateMutability": "nonpayable",
      "type": "constructor"
    },
    {
      "constant": true,
      "inputs": [],
      "name": "getLock",
      "outputs": [
        {
          "name": "",
          "type": "bool"
        }
      ],
      "payable": false,
      "stateMutability": "view",
      "type": "function"
    },
    {
      "constant": false,
      "inputs": [
        {
          "name": "_lock",
          "type": "bool"
        }
      ],
      "name": "setLock",
      "outputs": [],
      "payable": false,
      "stateMutability": "nonpayable",
      "type": "function"
    },
    {
      "constant": false,
      "inputs": [],
      "name": "buyViews",
      "outputs": [],
      "payable": true,
      "stateMutability": "payable",
      "type": "function"
    },
    {
      "constant": false,
      "inputs": [
        {
          "name": "_amount",
          "type": "uint256"
        }
      ],
      "name": "sellViews",
      "outputs": [],
      "payable": false,
      "stateMutability": "nonpayable",
      "type": "function"
    },
    {
      "constant": false,
      "inputs": [
        {
          "name": "_amount",
          "type": "uint256"
        }
      ],
      "name": "transferToCreatorAccount",
      "outputs": [],
      "payable": false,
      "stateMutability": "nonpayable",
      "type": "function"
    },
    {
      "constant": false,
      "inputs": [
        {
          "name": "_amount",
          "type": "uint256"
        }
      ],
      "name": "transferFromCreatorAccount",
      "outputs": [],
      "payable": false,
      "stateMutability": "nonpayable",
      "type": "function"
    },
    {
      "constant": false,
      "inputs": [],
      "name": "becomeContentCreator",
      "outputs": [
        {
          "name": "",
          "type": "address"
        }
      ],
      "payable": false,
      "stateMutability": "nonpayable",
      "type": "function"
    },
    {
      "constant": false,
      "inputs": [],
      "name": "deleteUser",
      "outputs": [
        {
          "name": "",
          "type": "bool"
        }
      ],
      "payable": false,
      "stateMutability": "nonpayable",
      "type": "function"
    }
  ],
  "bytecode": "0x608060405234801561001057600080fd5b50604051610bea380380610bea83398101604052805160208083015160018054600160a060020a031916600160a060020a03851617905542600355909201805191929091610064916002919084019061007e565b505060008054600160a060020a0319163317905550610119565b828054600181600116156101000203166002900490600052602060002090601f016020900481019282601f106100bf57805160ff19168380011785556100ec565b828001600101855582156100ec579182015b828111156100ec5782518255916020019190600101906100d1565b506100f89291506100fc565b5090565b61011691905b808211156100f85760008155600101610102565b90565b610ac2806101286000396000f3006080604052600436106100955763ffffffff60e060020a600035041663026ff05e811461009a5780634cad552b146100c3578063619d5194146100dd57806370019b35146100f75780637e5852d9146101815780638da5cb5b14610196578063a1b181f7146101c7578063afe8c37d146101df578063ca979d50146101f7578063e8380d9b1461021e578063fbfa1c6714610233575b600080fd5b3480156100a657600080fd5b506100af61023b565b604080519115158252519081900360200190f35b3480156100cf57600080fd5b506100db6004356103e2565b005b3480156100e957600080fd5b506100db6004351515610510565b34801561010357600080fd5b5061010c6105b5565b6040805160208082528351818301528351919283929083019185019080838360005b8381101561014657818101518382015260200161012e565b50505050905090810190601f1680156101735780820380516001836020036101000a031916815260200191505b509250505060405180910390f35b34801561018d57600080fd5b506100af610640565b3480156101a257600080fd5b506101ab610649565b60408051600160a060020a039092168252519081900360200190f35b3480156101d357600080fd5b506100db600435610658565b3480156101eb57600080fd5b506100db600435610756565b34801561020357600080fd5b5061020c610854565b60408051918252519081900360200190f35b34801561022a57600080fd5b506101ab61085a565b6100db61096f565b60015460009081908190600160a060020a0316331461025957600080fd5b6000809054906101000a9004600160a060020a0316600160a060020a031663ee92d4846040518163ffffffff1660e060020a028152600401602060405180830381600087803b1580156102ab57600080fd5b505af11580156102bf573d6000803e3d6000fd5b505050506040513d60208110156102d557600080fd5b5051915081156103d4576000809054906101000a9004600160a060020a0316600160a060020a03166394d2d7a76040518163ffffffff1660e060020a028152600401602060405180830381600087803b15801561033157600080fd5b505af1158015610345573d6000803e3d6000fd5b505050506040513d602081101561035b57600080fd5b5051604080517f41c0e1b50000000000000000000000000000000000000000000000000000000081529051919250600160a060020a038316916341c0e1b59160048082019260009290919082900301818387803b1580156103bb57600080fd5b505af11580156103cf573d6000803e3d6000fd5b505050505b600154600160a060020a0316ff5b600154600090600160a060020a031633146103fc57600080fd5b6000809054906101000a9004600160a060020a0316600160a060020a031663f36675176040518163ffffffff1660e060020a028152600401602060405180830381600087803b15801561044e57600080fd5b505af1158015610462573d6000803e3d6000fd5b505050506040513d602081101561047857600080fd5b5051604080517f4cad552b000000000000000000000000000000000000000000000000000000008152600481018590529051919250600160a060020a03831691634cad552b916024808201926020929091908290030181600087803b1580156104e057600080fd5b505af11580156104f4573d6000803e3d6000fd5b505050506040513d602081101561050a57600080fd5b50505050565b6000809054906101000a9004600160a060020a0316600160a060020a031663638f83606040518163ffffffff1660e060020a028152600401602060405180830381600087803b15801561056257600080fd5b505af1158015610576573d6000803e3d6000fd5b505050506040513d602081101561058c57600080fd5b5051600160a060020a031633146105a257600080fd5b6004805460ff1916911515919091179055565b6002805460408051602060018416156101000260001901909316849004601f810184900484028201840190925281815292918301828280156106385780601f1061060d57610100808354040283529160200191610638565b820191906000526020600020905b81548152906001019060200180831161061b57829003601f168201915b505050505081565b60045460ff1690565b600154600160a060020a031681565b600154600090600160a060020a0316331461067257600080fd5b6000809054906101000a9004600160a060020a0316600160a060020a031663f36675176040518163ffffffff1660e060020a028152600401602060405180830381600087803b1580156106c457600080fd5b505af11580156106d8573d6000803e3d6000fd5b505050506040513d60208110156106ee57600080fd5b5051604080517f67526c4d000000000000000000000000000000000000000000000000000000008152600481018590529051919250600160a060020a038316916367526c4d916024808201926020929091908290030181600087803b1580156104e057600080fd5b600154600090600160a060020a0316331461077057600080fd5b6000809054906101000a9004600160a060020a0316600160a060020a031663f36675176040518163ffffffff1660e060020a028152600401602060405180830381600087803b1580156107c257600080fd5b505af11580156107d6573d6000803e3d6000fd5b505050506040513d60208110156107ec57600080fd5b5051604080517fec792932000000000000000000000000000000000000000000000000000000008152600481018590529051919250600160a060020a0383169163ec792932916024808201926020929091908290030181600087803b1580156104e057600080fd5b60035481565b60008060008060009054906101000a9004600160a060020a0316600160a060020a0316633c093d5a6040518163ffffffff1660e060020a028152600401602060405180830381600087803b1580156108b157600080fd5b505af11580156108c5573d6000803e3d6000fd5b505050506040513d60208110156108db57600080fd5b5051604080517fd0b0731c0000000000000000000000000000000000000000000000000000000081529051919350600160a060020a0384169163d0b0731c916004808201926020929091908290030181600087803b15801561093c57600080fd5b505af1158015610950573d6000803e3d6000fd5b505050506040513d602081101561096657600080fd5b50519392505050565b600154600090600160a060020a0316331461098957600080fd5b6000809054906101000a9004600160a060020a0316600160a060020a031663f36675176040518163ffffffff1660e060020a028152600401602060405180830381600087803b1580156109db57600080fd5b505af11580156109ef573d6000803e3d6000fd5b505050506040513d6020811015610a0557600080fd5b5051604080517ffbfa1c670000000000000000000000000000000000000000000000000000000081529051919250600160a060020a0383169163fbfa1c67913491600480830192602092919082900301818588803b158015610a6657600080fd5b505af1158015610a7a573d6000803e3d6000fd5b50505050506040513d6020811015610a9157600080fd5b5050505600a165627a7a72305820d1d1acde4620ba954e7c560ca13b614ef111c8a0b7bfcd43de95d70a20ee08ab0029",
  "source": "pragma solidity 0.4.24;\r\n\r\nimport \"./UserFactory.sol\";\r\nimport \"./ContentCreatorFactory.sol\";\r\nimport \"./LoveMachine.sol\";\r\nimport \"./ContentCreator.sol\";\r\n\r\ncontract User {\r\n    UserFactory userFactory;\r\n    address public owner;\r\n    string public userName;\r\n    uint public joinedDate;\r\n\r\n    bool lock;\r\n    \r\n    //Ensures the sender is the owner. \r\n    modifier isUser {\r\n        require(msg.sender == owner);\r\n        _;\r\n    }\r\n    \r\n    //Ensures the lock is not true.\r\n    modifier checkLock {\r\n        require(!lock);\r\n        _;\r\n    }\r\n    \r\n    //Ensures only the minter can call the function. \r\n    modifier onlyMinter {\r\n        require(msg.sender == userFactory.getMinter());\r\n        _;\r\n    }\r\n    \r\n    //Ensures only the dataStorage can call the function.\r\n    modifier onlyDataStorage {\r\n        require(msg.sender == userFactory.getDataStorageAddress());\r\n        _;\r\n    }\r\n    \r\n    //Ensures only the wallet creator can call this function.\r\n    modifier onlyOwner {\r\n        require(msg.sender == owner);\r\n        _;\r\n    }\r\n    \r\n    /**\r\n      * @dev The constructor creates a new User. \r\n      * @notice The _userWallet is used when deleting account, as \r\n      *     all the views value will be sent to this address.\r\n      * @param _userWallet : The address of the users wallet.\r\n      *     _userName : The users uniqe userName. \r\n      */\r\n    constructor(\r\n        address _userWallet,\r\n        string _userName\r\n        ) \r\n        public \r\n    {\r\n        owner = _userWallet;\r\n        joinedDate = now;\r\n        userName = _userName;\r\n        userFactory = UserFactory(msg.sender);\r\n    }\r\n    \r\n    /**\r\n      * @return bool : If the contract is currently making \r\n      *     state changes. \r\n      */\r\n    function getLock()\r\n        public\r\n        view\r\n        returns(bool)\r\n    {\r\n        return(lock);\r\n    }\r\n    \r\n    /**\r\n      * @dev This allows the dataStorrage to set the user contract \r\n      *     to locked or unlocked, allowing it to prevent attacks from \r\n      *     reentry. \r\n      * @param _lock : What the lock must be set to. \r\n      */\r\n    function setLock(bool _lock)\r\n        public\r\n        onlyDataStorage\r\n    {\r\n        lock = _lock;\r\n    }\r\n    \r\n    /**\r\n      * @dev Allows the user to buy views. \r\n      */\r\n    function buyViews()\r\n        public\r\n        payable\r\n        onlyOwner\r\n    {\r\n        LoveMachine minter = LoveMachine(userFactory.getMinter());\r\n        minter.buyViews.value(msg.value)();\r\n    }\r\n    \r\n    /**\r\n      * @dev Allows the user to sell views. \r\n      * @param _amount : THe amount of views they wish to sell.\r\n      */\r\n    function sellViews(uint _amount)\r\n        public\r\n        onlyOwner\r\n    {\r\n        LoveMachine minter = LoveMachine(userFactory.getMinter());\r\n        minter.sellViews(_amount);\r\n    }\r\n    \r\n    /**\r\n      * @dev Allows a user to transfer views between their creator and \r\n      *     user contracts. \r\n      * @param _amount : The amount of views they wish to transfer. \r\n      */\r\n    function transferToCreatorAccount(uint _amount)\r\n        public \r\n        onlyOwner\r\n    {\r\n        LoveMachine minter = LoveMachine(userFactory.getMinter());\r\n        minter.TransferViewsToCreatorAccount(_amount);\r\n    }\r\n    \r\n    /**\r\n      * @dev Allows a user to transfer views between their creator and \r\n      *     user contracts. \r\n      * @param _amount : The amount of views they wish to transfer. \r\n      */\r\n    function transferFromCreatorAccount(uint _amount)\r\n        public\r\n        onlyOwner\r\n    {\r\n        LoveMachine minter = LoveMachine(userFactory.getMinter());\r\n        minter.TransferViewsToUserAccount(_amount);\r\n    }\r\n     \r\n    /**\r\n      * @dev Allows a user to become a content creator. \r\n      * @return bool : If it was successful in creating the \r\n      *     content creator account. \r\n      */\r\n    function becomeContentCreator() \r\n        public\r\n        //isUser\r\n        returns(address) \r\n    {\r\n        ContentCreatorFactory ccFactory = ContentCreatorFactory(userFactory.getContentCreatorFactory());\r\n        address ccc = ccFactory.createContentCreator();\r\n        return ccc;\r\n    }\r\n    \r\n    /**\r\n      * @dev Allows the user to delete their account.\r\n      * @notice User has to manyaly withdraw all funds \r\n      *     from account, as per the pull-over-push pattern.\r\n      * @return bool : If the deletion was successful.\r\n      */\r\n    function deleteUser() \r\n        public\r\n        isUser\r\n        returns(bool) \r\n    {\r\n        //require(userFactory.deleteUserFinal(this));\r\n        bool pass = userFactory.isCreator();\r\n        if(pass) {\r\n            ContentCreator cc = ContentCreator(userFactory.getCreatorAddress());\r\n            cc.kill();\r\n        }\r\n        selfdestruct(owner);\r\n        return true;\r\n    }\r\n}",
  "sourcePath": "C:\\Users\\Veronica Coutts\\Desktop\\Desktop\\Work\\Web3 Projects\\MVP\\contracts\\User.sol",
  "compiler": {
    "name": "solc",
    "version": "0.4.24+commit.e67f0147.Emscripten.clang"
  },
  "schemaVersion": "2.0.1",
  "updatedAt": "2018-08-27T19:59:36.668Z"
}